{
  "_format": "hh-sol-artifact-1",
  "contractName": "RadarVideoNFT",
  "sourceName": "src/RadarVideoNFT.sol",
  "abi": [
    {
      "inputs": [],
      "stateMutability": "nonpayable",
      "type": "constructor"
    },
    {
      "anonymous": false,
      "inputs": [
        {
          "indexed": false,
          "internalType": "address",
          "name": "previousAdmin",
          "type": "address"
        },
        {
          "indexed": false,
          "internalType": "address",
          "name": "newAdmin",
          "type": "address"
        }
      ],
      "name": "AdminChanged",
      "type": "event"
    },
    {
      "anonymous": false,
      "inputs": [
        {
          "indexed": true,
          "internalType": "address",
          "name": "owner",
          "type": "address"
        },
        {
          "indexed": true,
          "internalType": "address",
          "name": "approved",
          "type": "address"
        },
        {
          "indexed": true,
          "internalType": "uint256",
          "name": "tokenId",
          "type": "uint256"
        }
      ],
      "name": "Approval",
      "type": "event"
    },
    {
      "anonymous": false,
      "inputs": [
        {
          "indexed": true,
          "internalType": "address",
          "name": "owner",
          "type": "address"
        },
        {
          "indexed": true,
          "internalType": "address",
          "name": "operator",
          "type": "address"
        },
        {
          "indexed": false,
          "internalType": "bool",
          "name": "approved",
          "type": "bool"
        }
      ],
      "name": "ApprovalForAll",
      "type": "event"
    },
    {
      "anonymous": false,
      "inputs": [
        {
          "indexed": false,
          "internalType": "uint256",
          "name": "_fromTokenId",
          "type": "uint256"
        },
        {
          "indexed": false,
          "internalType": "uint256",
          "name": "_toTokenId",
          "type": "uint256"
        }
      ],
      "name": "BatchMetadataUpdate",
      "type": "event"
    },
    {
      "anonymous": false,
      "inputs": [
        {
          "indexed": true,
          "internalType": "address",
          "name": "beacon",
          "type": "address"
        }
      ],
      "name": "BeaconUpgraded",
      "type": "event"
    },
    {
      "anonymous": false,
      "inputs": [
        {
          "indexed": false,
          "internalType": "uint8",
          "name": "version",
          "type": "uint8"
        }
      ],
      "name": "Initialized",
      "type": "event"
    },
    {
      "anonymous": false,
      "inputs": [
        {
          "indexed": false,
          "internalType": "uint256",
          "name": "_tokenId",
          "type": "uint256"
        }
      ],
      "name": "MetadataUpdate",
      "type": "event"
    },
    {
      "anonymous": false,
      "inputs": [
        {
          "indexed": true,
          "internalType": "address",
          "name": "sender",
          "type": "address"
        },
        {
          "indexed": true,
          "internalType": "address",
          "name": "owner",
          "type": "address"
        },
        {
          "indexed": false,
          "internalType": "string",
          "name": "tokenURI",
          "type": "string"
        },
        {
          "indexed": false,
          "internalType": "uint256",
          "name": "tokenId",
          "type": "uint256"
        }
      ],
      "name": "Mint",
      "type": "event"
    },
    {
      "anonymous": false,
      "inputs": [
        {
          "indexed": true,
          "internalType": "address",
          "name": "previousOwner",
          "type": "address"
        },
        {
          "indexed": true,
          "internalType": "address",
          "name": "newOwner",
          "type": "address"
        }
      ],
      "name": "OwnershipTransferred",
      "type": "event"
    },
    {
      "anonymous": false,
      "inputs": [
        {
          "indexed": true,
          "internalType": "address",
          "name": "from",
          "type": "address"
        },
        {
          "indexed": true,
          "internalType": "address",
          "name": "to",
          "type": "address"
        },
        {
          "indexed": true,
          "internalType": "uint256",
          "name": "tokenId",
          "type": "uint256"
        }
      ],
      "name": "Transfer",
      "type": "event"
    },
    {
      "anonymous": false,
      "inputs": [
        {
          "indexed": true,
          "internalType": "address",
          "name": "implementation",
          "type": "address"
        }
      ],
      "name": "Upgraded",
      "type": "event"
    },
    {
      "inputs": [
        {
          "internalType": "address",
          "name": "to",
          "type": "address"
        },
        {
          "internalType": "uint256",
          "name": "tokenId",
          "type": "uint256"
        }
      ],
      "name": "approve",
      "outputs": [],
      "stateMutability": "nonpayable",
      "type": "function"
    },
    {
      "inputs": [
        {
          "internalType": "address",
          "name": "owner",
          "type": "address"
        }
      ],
      "name": "balanceOf",
      "outputs": [
        {
          "internalType": "uint256",
          "name": "",
          "type": "uint256"
        }
      ],
      "stateMutability": "view",
      "type": "function"
    },
    {
      "inputs": [
        {
          "internalType": "uint256",
          "name": "tokenId",
          "type": "uint256"
        }
      ],
      "name": "getApproved",
      "outputs": [
        {
          "internalType": "address",
          "name": "",
          "type": "address"
        }
      ],
      "stateMutability": "view",
      "type": "function"
    },
    {
      "inputs": [],
      "name": "initialize",
      "outputs": [],
      "stateMutability": "nonpayable",
      "type": "function"
    },
    {
      "inputs": [
        {
          "internalType": "address",
          "name": "owner",
          "type": "address"
        },
        {
          "internalType": "address",
          "name": "operator",
          "type": "address"
        }
      ],
      "name": "isApprovedForAll",
      "outputs": [
        {
          "internalType": "bool",
          "name": "",
          "type": "bool"
        }
      ],
      "stateMutability": "view",
      "type": "function"
    },
    {
      "inputs": [
        {
          "internalType": "address",
          "name": "owner",
          "type": "address"
        },
        {
          "internalType": "string",
          "name": "tokenUri",
          "type": "string"
        }
      ],
      "name": "mint",
      "outputs": [
        {
          "internalType": "uint256",
          "name": "",
          "type": "uint256"
        }
      ],
      "stateMutability": "nonpayable",
      "type": "function"
    },
    {
      "inputs": [],
      "name": "name",
      "outputs": [
        {
          "internalType": "string",
          "name": "",
          "type": "string"
        }
      ],
      "stateMutability": "view",
      "type": "function"
    },
    {
      "inputs": [],
      "name": "owner",
      "outputs": [
        {
          "internalType": "address",
          "name": "",
          "type": "address"
        }
      ],
      "stateMutability": "view",
      "type": "function"
    },
    {
      "inputs": [
        {
          "internalType": "uint256",
          "name": "tokenId",
          "type": "uint256"
        }
      ],
      "name": "ownerOf",
      "outputs": [
        {
          "internalType": "address",
          "name": "",
          "type": "address"
        }
      ],
      "stateMutability": "view",
      "type": "function"
    },
    {
      "inputs": [],
      "name": "proxiableUUID",
      "outputs": [
        {
          "internalType": "bytes32",
          "name": "",
          "type": "bytes32"
        }
      ],
      "stateMutability": "view",
      "type": "function"
    },
    {
      "inputs": [],
      "name": "renounceOwnership",
      "outputs": [],
      "stateMutability": "nonpayable",
      "type": "function"
    },
    {
      "inputs": [
        {
          "internalType": "address",
          "name": "from",
          "type": "address"
        },
        {
          "internalType": "address",
          "name": "to",
          "type": "address"
        },
        {
          "internalType": "uint256",
          "name": "tokenId",
          "type": "uint256"
        }
      ],
      "name": "safeTransferFrom",
      "outputs": [],
      "stateMutability": "nonpayable",
      "type": "function"
    },
    {
      "inputs": [
        {
          "internalType": "address",
          "name": "from",
          "type": "address"
        },
        {
          "internalType": "address",
          "name": "to",
          "type": "address"
        },
        {
          "internalType": "uint256",
          "name": "tokenId",
          "type": "uint256"
        },
        {
          "internalType": "bytes",
          "name": "data",
          "type": "bytes"
        }
      ],
      "name": "safeTransferFrom",
      "outputs": [],
      "stateMutability": "nonpayable",
      "type": "function"
    },
    {
      "inputs": [
        {
          "internalType": "address",
          "name": "operator",
          "type": "address"
        },
        {
          "internalType": "bool",
          "name": "approved",
          "type": "bool"
        }
      ],
      "name": "setApprovalForAll",
      "outputs": [],
      "stateMutability": "nonpayable",
      "type": "function"
    },
    {
      "inputs": [
        {
          "internalType": "bytes4",
          "name": "interfaceId",
          "type": "bytes4"
        }
      ],
      "name": "supportsInterface",
      "outputs": [
        {
          "internalType": "bool",
          "name": "",
          "type": "bool"
        }
      ],
      "stateMutability": "view",
      "type": "function"
    },
    {
      "inputs": [],
      "name": "symbol",
      "outputs": [
        {
          "internalType": "string",
          "name": "",
          "type": "string"
        }
      ],
      "stateMutability": "view",
      "type": "function"
    },
    {
      "inputs": [
        {
          "internalType": "uint256",
          "name": "tokenId",
          "type": "uint256"
        }
      ],
      "name": "tokenURI",
      "outputs": [
        {
          "internalType": "string",
          "name": "",
          "type": "string"
        }
      ],
      "stateMutability": "view",
      "type": "function"
    },
    {
      "inputs": [
        {
          "internalType": "address",
          "name": "from",
          "type": "address"
        },
        {
          "internalType": "address",
          "name": "to",
          "type": "address"
        },
        {
          "internalType": "uint256",
          "name": "tokenId",
          "type": "uint256"
        }
      ],
      "name": "transferFrom",
      "outputs": [],
      "stateMutability": "nonpayable",
      "type": "function"
    },
    {
      "inputs": [
        {
          "internalType": "address",
          "name": "newOwner",
          "type": "address"
        }
      ],
      "name": "transferOwnership",
      "outputs": [],
      "stateMutability": "nonpayable",
      "type": "function"
    },
    {
      "inputs": [
        {
          "internalType": "address",
          "name": "newImplementation",
          "type": "address"
        }
      ],
      "name": "upgradeTo",
      "outputs": [],
      "stateMutability": "nonpayable",
      "type": "function"
    },
    {
      "inputs": [
        {
          "internalType": "address",
          "name": "newImplementation",
          "type": "address"
        },
        {
          "internalType": "bytes",
          "name": "data",
          "type": "bytes"
        }
      ],
      "name": "upgradeToAndCall",
      "outputs": [],
      "stateMutability": "payable",
      "type": "function"
    },
    {
      "inputs": [
        {
          "internalType": "uint256",
          "name": "tokenId",
          "type": "uint256"
        }
      ],
      "name": "uri",
      "outputs": [
        {
          "internalType": "string",
          "name": "",
          "type": "string"
        }
      ],
      "stateMutability": "view",
      "type": "function"
    }
  ],
  "bytecode": "0x60a06040523060805234801561001457600080fd5b5061001d610022565b6100e1565b600054610100900460ff161561008e5760405162461bcd60e51b815260206004820152602760248201527f496e697469616c697a61626c653a20636f6e747261637420697320696e697469604482015266616c697a696e6760c81b606482015260840160405180910390fd5b60005460ff908116146100df576000805460ff191660ff9081179091556040519081527f7f26b83ff96e1f2b6a682f133852f6798a09c465da95921460cefb38474024989060200160405180910390a15b565b6080516124326200011960003960008181610651015281816106910152818161074b0152818161078b015261081e01526124326000f3fe6080604052600436106101355760003560e01c806370a08231116100ab578063a22cb4651161006f578063a22cb4651461033e578063b88d4fde1461035e578063c87b56dd1461037e578063d0def5211461039e578063e985e9c5146103be578063f2fde38b1461040757600080fd5b806370a08231146102c1578063715018a6146102e15780638129fc1c146102f65780638da5cb5b1461030b57806395d89b411461032957600080fd5b806323b872dd116100fd57806323b872dd1461020b5780633659cfe61461022b57806342842e0e1461024b5780634f1ef2861461026b57806352d1902d1461027e5780636352211e146102a157600080fd5b806301ffc9a71461013a57806306fdde031461016f578063081812fc14610191578063095ea7b3146101c95780630e89341c146101eb575b600080fd5b34801561014657600080fd5b5061015a610155366004611c50565b610427565b60405190151581526020015b60405180910390f35b34801561017b57600080fd5b50610184610438565b6040516101669190611cbd565b34801561019d57600080fd5b506101b16101ac366004611cd0565b6104ca565b6040516001600160a01b039091168152602001610166565b3480156101d557600080fd5b506101e96101e4366004611d05565b6104f1565b005b3480156101f757600080fd5b50610184610206366004611cd0565b61060b565b34801561021757600080fd5b506101e9610226366004611d2f565b610616565b34801561023757600080fd5b506101e9610246366004611d6b565b610647565b34801561025757600080fd5b506101e9610266366004611d2f565b610726565b6101e9610279366004611e32565b610741565b34801561028a57600080fd5b50610293610811565b604051908152602001610166565b3480156102ad57600080fd5b506101b16102bc366004611cd0565b6108c4565b3480156102cd57600080fd5b506102936102dc366004611d6b565b610924565b3480156102ed57600080fd5b506101e96109aa565b34801561030257600080fd5b506101e96109be565b34801561031757600080fd5b5060c9546001600160a01b03166101b1565b34801561033557600080fd5b50610184610b28565b34801561034a57600080fd5b506101e9610359366004611e80565b610b37565b34801561036a57600080fd5b506101e9610379366004611ebc565b610b42565b34801561038a57600080fd5b50610184610399366004611cd0565b610b7a565b3480156103aa57600080fd5b506102936103b9366004611f24565b610b85565b3480156103ca57600080fd5b5061015a6103d9366004611f7c565b6001600160a01b039182166000908152606a6020908152604080832093909416825291909152205460ff1690565b34801561041357600080fd5b506101e9610422366004611d6b565b610c0e565b600061043282610c84565b92915050565b60606065805461044790611faf565b80601f016020809104026020016040519081016040528092919081815260200182805461047390611faf565b80156104c05780601f10610495576101008083540402835291602001916104c0565b820191906000526020600020905b8154815290600101906020018083116104a357829003601f168201915b5050505050905090565b60006104d582610ca9565b506000908152606960205260409020546001600160a01b031690565b60006104fc826108c4565b9050806001600160a01b0316836001600160a01b03160361056e5760405162461bcd60e51b815260206004820152602160248201527f4552433732313a20617070726f76616c20746f2063757272656e74206f776e656044820152603960f91b60648201526084015b60405180910390fd5b336001600160a01b038216148061058a575061058a81336103d9565b6105fc5760405162461bcd60e51b815260206004820152603d60248201527f4552433732313a20617070726f76652063616c6c6572206973206e6f7420746f60448201527f6b656e206f776e6572206f7220617070726f76656420666f7220616c6c0000006064820152608401610565565b6106068383610d08565b505050565b606061043282610b7a565b6106203382610d76565b61063c5760405162461bcd60e51b815260040161056590611fe9565b610606838383610df5565b6001600160a01b037f000000000000000000000000000000000000000000000000000000000000000016300361068f5760405162461bcd60e51b815260040161056590612036565b7f00000000000000000000000000000000000000000000000000000000000000006001600160a01b03166106d86000805160206123b6833981519152546001600160a01b031690565b6001600160a01b0316146106fe5760405162461bcd60e51b815260040161056590612082565b61070781610f59565b6040805160008082526020820190925261072391839190610f61565b50565b61060683838360405180602001604052806000815250610b42565b6001600160a01b037f00000000000000000000000000000000000000000000000000000000000000001630036107895760405162461bcd60e51b815260040161056590612036565b7f00000000000000000000000000000000000000000000000000000000000000006001600160a01b03166107d26000805160206123b6833981519152546001600160a01b031690565b6001600160a01b0316146107f85760405162461bcd60e51b815260040161056590612082565b61080182610f59565b61080d82826001610f61565b5050565b6000306001600160a01b037f000000000000000000000000000000000000000000000000000000000000000016146108b15760405162461bcd60e51b815260206004820152603860248201527f555550535570677261646561626c653a206d757374206e6f742062652063616c60448201527f6c6564207468726f7567682064656c656761746563616c6c00000000000000006064820152608401610565565b506000805160206123b683398151915290565b6000818152606760205260408120546001600160a01b0316806104325760405162461bcd60e51b8152602060048201526018602482015277115490cdcc8c4e881a5b9d985b1a59081d1bdad95b88125160421b6044820152606401610565565b60006001600160a01b03821661098e5760405162461bcd60e51b815260206004820152602960248201527f4552433732313a2061646472657373207a65726f206973206e6f7420612076616044820152683634b21037bbb732b960b91b6064820152608401610565565b506001600160a01b031660009081526068602052604090205490565b6109b26110cc565b6109bc6000611126565b565b600054610100900460ff16158080156109de5750600054600160ff909116105b806109f85750303b1580156109f8575060005460ff166001145b610a5b5760405162461bcd60e51b815260206004820152602e60248201527f496e697469616c697a61626c653a20636f6e747261637420697320616c72656160448201526d191e481a5b9a5d1a585b1a5e995960921b6064820152608401610565565b6000805460ff191660011790558015610a7e576000805461ff0019166101001790555b610ac86040518060400160405280600b81526020016a5261646172566964656f7360a81b81525060405180604001604052806005815260200164564944454f60d81b815250611178565b610ad06111a9565b610ad86111d0565b610ae06111a9565b8015610723576000805461ff0019169055604051600181527f7f26b83ff96e1f2b6a682f133852f6798a09c465da95921460cefb38474024989060200160405180910390a150565b60606066805461044790611faf565b61080d3383836111ff565b610b4c3383610d76565b610b685760405162461bcd60e51b815260040161056590611fe9565b610b74848484846112cd565b50505050565b606061043282611300565b61015f54600090610b968482611408565b610ba08184611593565b836001600160a01b0316336001600160a01b03167f415b0b5f279208d6e050585b8549ece14fe3a66a5ad3008951c4bcb1bb62b9b28584604051610be59291906120ce565b60405180910390a3600161015f6000828254610c0191906120f0565b9091555090949350505050565b610c166110cc565b6001600160a01b038116610c7b5760405162461bcd60e51b815260206004820152602660248201527f4f776e61626c653a206e6577206f776e657220697320746865207a65726f206160448201526564647265737360d01b6064820152608401610565565b61072381611126565b60006001600160e01b03198216632483248360e11b148061043257506104328261165e565b6000818152606760205260409020546001600160a01b03166107235760405162461bcd60e51b8152602060048201526018602482015277115490cdcc8c4e881a5b9d985b1a59081d1bdad95b88125160421b6044820152606401610565565b600081815260696020526040902080546001600160a01b0319166001600160a01b0384169081179091558190610d3d826108c4565b6001600160a01b03167f8c5be1e5ebec7d5bd14f71427d1e84f3dd0314c0f7b2291e5b200ac8c7c3b92560405160405180910390a45050565b600080610d82836108c4565b9050806001600160a01b0316846001600160a01b03161480610dc957506001600160a01b038082166000908152606a602090815260408083209388168352929052205460ff165b80610ded5750836001600160a01b0316610de2846104ca565b6001600160a01b0316145b949350505050565b826001600160a01b0316610e08826108c4565b6001600160a01b031614610e2e5760405162461bcd60e51b815260040161056590612111565b6001600160a01b038216610e905760405162461bcd60e51b8152602060048201526024808201527f4552433732313a207472616e7366657220746f20746865207a65726f206164646044820152637265737360e01b6064820152608401610565565b826001600160a01b0316610ea3826108c4565b6001600160a01b031614610ec95760405162461bcd60e51b815260040161056590612111565b600081815260696020908152604080832080546001600160a01b03199081169091556001600160a01b0387811680865260688552838620805460001901905590871680865283862080546001019055868652606790945282852080549092168417909155905184937fddf252ad1be2c89b69c2b068fc378daa952ba7f163c4a11628f55a4df523b3ef91a4505050565b6107236110cc565b7f4910fdfa16fed3260ed0e7147f7cc6da11a60208b5b9406d12a635614ffd91435460ff1615610f9457610606836116ae565b826001600160a01b03166352d1902d6040518163ffffffff1660e01b8152600401602060405180830381865afa925050508015610fee575060408051601f3d908101601f19168201909252610feb91810190612156565b60015b6110515760405162461bcd60e51b815260206004820152602e60248201527f45524331393637557067726164653a206e657720696d706c656d656e7461746960448201526d6f6e206973206e6f74205555505360901b6064820152608401610565565b6000805160206123b683398151915281146110c05760405162461bcd60e51b815260206004820152602960248201527f45524331393637557067726164653a20756e737570706f727465642070726f786044820152681a58589b195555525160ba1b6064820152608401610565565b5061060683838361174a565b60c9546001600160a01b031633146109bc5760405162461bcd60e51b815260206004820181905260248201527f4f776e61626c653a2063616c6c6572206973206e6f7420746865206f776e65726044820152606401610565565b60c980546001600160a01b038381166001600160a01b0319831681179093556040519116919082907f8be0079c531659141344cd1fd0a4f28419497f9722a3daafe3b4186f6b6457e090600090a35050565b600054610100900460ff1661119f5760405162461bcd60e51b81526004016105659061216f565b61080d828261176f565b600054610100900460ff166109bc5760405162461bcd60e51b81526004016105659061216f565b600054610100900460ff166111f75760405162461bcd60e51b81526004016105659061216f565b6109bc6117af565b816001600160a01b0316836001600160a01b0316036112605760405162461bcd60e51b815260206004820152601960248201527f4552433732313a20617070726f766520746f2063616c6c6572000000000000006044820152606401610565565b6001600160a01b038381166000818152606a6020908152604080832094871680845294825291829020805460ff191686151590811790915591519182527f17307eab39ab6107e8899845ad3d59bd9653f200f220920489ca2b5937696c31910160405180910390a3505050565b6112d8848484610df5565b6112e4848484846117df565b610b745760405162461bcd60e51b8152600401610565906121ba565b606061130b82610ca9565b6000828152609760205260408120805461132490611faf565b80601f016020809104026020016040519081016040528092919081815260200182805461135090611faf565b801561139d5780601f106113725761010080835404028352916020019161139d565b820191906000526020600020905b81548152906001019060200180831161138057829003601f168201915b5050505050905060006113bb60408051602081019091526000815290565b905080516000036113cd575092915050565b8151156113ff5780826040516020016113e792919061220c565b60405160208183030381529060405292505050919050565b610ded846118e0565b6001600160a01b03821661145e5760405162461bcd60e51b815260206004820181905260248201527f4552433732313a206d696e7420746f20746865207a65726f20616464726573736044820152606401610565565b6000818152606760205260409020546001600160a01b0316156114c35760405162461bcd60e51b815260206004820152601c60248201527f4552433732313a20746f6b656e20616c7265616479206d696e746564000000006044820152606401610565565b6000818152606760205260409020546001600160a01b0316156115285760405162461bcd60e51b815260206004820152601c60248201527f4552433732313a20746f6b656e20616c7265616479206d696e746564000000006044820152606401610565565b6001600160a01b038216600081815260686020908152604080832080546001019055848352606790915280822080546001600160a01b0319168417905551839291907fddf252ad1be2c89b69c2b068fc378daa952ba7f163c4a11628f55a4df523b3ef908290a45050565b6000828152606760205260409020546001600160a01b031661160e5760405162461bcd60e51b815260206004820152602e60248201527f45524337323155524953746f726167653a2055524920736574206f66206e6f6e60448201526d32bc34b9ba32b73a103a37b5b2b760911b6064820152608401610565565b60008281526097602052604090206116268282612289565b506040518281527ff8e1a15aba9398e019f0b49df1a4fde98ee17ae345cb5f6b5e2c27f5033e8ce79060200160405180910390a15050565b60006001600160e01b031982166380ac58cd60e01b148061168f57506001600160e01b03198216635b5e139f60e01b145b8061043257506301ffc9a760e01b6001600160e01b0319831614610432565b6001600160a01b0381163b61171b5760405162461bcd60e51b815260206004820152602d60248201527f455243313936373a206e657720696d706c656d656e746174696f6e206973206e60448201526c1bdd08184818dbdb9d1c9858dd609a1b6064820152608401610565565b6000805160206123b683398151915280546001600160a01b0319166001600160a01b0392909216919091179055565b61175383611954565b6000825111806117605750805b1561060657610b748383611994565b600054610100900460ff166117965760405162461bcd60e51b81526004016105659061216f565b60656117a28382612289565b5060666106068282612289565b600054610100900460ff166117d65760405162461bcd60e51b81526004016105659061216f565b6109bc33611126565b60006001600160a01b0384163b156118d557604051630a85bd0160e11b81526001600160a01b0385169063150b7a0290611823903390899088908890600401612349565b6020604051808303816000875af192505050801561185e575060408051601f3d908101601f1916820190925261185b9181019061237c565b60015b6118bb573d80801561188c576040519150601f19603f3d011682016040523d82523d6000602084013e611891565b606091505b5080516000036118b35760405162461bcd60e51b8152600401610565906121ba565b805181602001fd5b6001600160e01b031916630a85bd0160e11b149050610ded565b506001949350505050565b60606118eb82610ca9565b600061190260408051602081019091526000815290565b90506000815111611922576040518060200160405280600081525061194d565b8061192c846119b9565b60405160200161193d92919061220c565b6040516020818303038152906040525b9392505050565b61195d816116ae565b6040516001600160a01b038216907fbc7cd75a20ee27fd9adebab32041f755214dbc6bffa90cc0225b39da2e5c2d3b90600090a250565b606061194d83836040518060600160405280602781526020016123d660279139611a4c565b606060006119c683611ac4565b600101905060008167ffffffffffffffff8111156119e6576119e6611d86565b6040519080825280601f01601f191660200182016040528015611a10576020820181803683370190505b5090508181016020015b600019016f181899199a1a9b1b9c1cb0b131b232b360811b600a86061a8153600a8504945084611a1a57509392505050565b6060600080856001600160a01b031685604051611a699190612399565b600060405180830381855af49150503d8060008114611aa4576040519150601f19603f3d011682016040523d82523d6000602084013e611aa9565b606091505b5091509150611aba86838387611b9c565b9695505050505050565b60008072184f03e93ff9f4daa797ed6e38ed64bf6a1f0160401b8310611b035772184f03e93ff9f4daa797ed6e38ed64bf6a1f0160401b830492506040015b6d04ee2d6d415b85acef81000000008310611b2f576d04ee2d6d415b85acef8100000000830492506020015b662386f26fc100008310611b4d57662386f26fc10000830492506010015b6305f5e1008310611b65576305f5e100830492506008015b6127108310611b7957612710830492506004015b60648310611b8b576064830492506002015b600a83106104325760010192915050565b60608315611c0b578251600003611c04576001600160a01b0385163b611c045760405162461bcd60e51b815260206004820152601d60248201527f416464726573733a2063616c6c20746f206e6f6e2d636f6e74726163740000006044820152606401610565565b5081610ded565b610ded8383815115611c205781518083602001fd5b8060405162461bcd60e51b81526004016105659190611cbd565b6001600160e01b03198116811461072357600080fd5b600060208284031215611c6257600080fd5b813561194d81611c3a565b60005b83811015611c88578181015183820152602001611c70565b50506000910152565b60008151808452611ca9816020860160208601611c6d565b601f01601f19169290920160200192915050565b60208152600061194d6020830184611c91565b600060208284031215611ce257600080fd5b5035919050565b80356001600160a01b0381168114611d0057600080fd5b919050565b60008060408385031215611d1857600080fd5b611d2183611ce9565b946020939093013593505050565b600080600060608486031215611d4457600080fd5b611d4d84611ce9565b9250611d5b60208501611ce9565b9150604084013590509250925092565b600060208284031215611d7d57600080fd5b61194d82611ce9565b634e487b7160e01b600052604160045260246000fd5b600067ffffffffffffffff80841115611db757611db7611d86565b604051601f8501601f19908116603f01168101908282118183101715611ddf57611ddf611d86565b81604052809350858152868686011115611df857600080fd5b858560208301376000602087830101525050509392505050565b600082601f830112611e2357600080fd5b61194d83833560208501611d9c565b60008060408385031215611e4557600080fd5b611e4e83611ce9565b9150602083013567ffffffffffffffff811115611e6a57600080fd5b611e7685828601611e12565b9150509250929050565b60008060408385031215611e9357600080fd5b611e9c83611ce9565b915060208301358015158114611eb157600080fd5b809150509250929050565b60008060008060808587031215611ed257600080fd5b611edb85611ce9565b9350611ee960208601611ce9565b925060408501359150606085013567ffffffffffffffff811115611f0c57600080fd5b611f1887828801611e12565b91505092959194509250565b60008060408385031215611f3757600080fd5b611f4083611ce9565b9150602083013567ffffffffffffffff811115611f5c57600080fd5b8301601f81018513611f6d57600080fd5b611e7685823560208401611d9c565b60008060408385031215611f8f57600080fd5b611f9883611ce9565b9150611fa660208401611ce9565b90509250929050565b600181811c90821680611fc357607f821691505b602082108103611fe357634e487b7160e01b600052602260045260246000fd5b50919050565b6020808252602d908201527f4552433732313a2063616c6c6572206973206e6f7420746f6b656e206f776e6560408201526c1c881bdc88185c1c1c9bdd9959609a1b606082015260800190565b6020808252602c908201527f46756e6374696f6e206d7573742062652063616c6c6564207468726f7567682060408201526b19195b1959d85d1958d85b1b60a21b606082015260800190565b6020808252602c908201527f46756e6374696f6e206d7573742062652063616c6c6564207468726f7567682060408201526b6163746976652070726f787960a01b606082015260800190565b6040815260006120e16040830185611c91565b90508260208301529392505050565b8082018082111561043257634e487b7160e01b600052601160045260246000fd5b60208082526025908201527f4552433732313a207472616e736665722066726f6d20696e636f72726563742060408201526437bbb732b960d91b606082015260800190565b60006020828403121561216857600080fd5b5051919050565b6020808252602b908201527f496e697469616c697a61626c653a20636f6e7472616374206973206e6f74206960408201526a6e697469616c697a696e6760a81b606082015260800190565b60208082526032908201527f4552433732313a207472616e7366657220746f206e6f6e20455243373231526560408201527131b2b4bb32b91034b6b83632b6b2b73a32b960711b606082015260800190565b6000835161221e818460208801611c6d565b835190830190612232818360208801611c6d565b01949350505050565b601f82111561060657600081815260208120601f850160051c810160208610156122625750805b601f850160051c820191505b818110156122815782815560010161226e565b505050505050565b815167ffffffffffffffff8111156122a3576122a3611d86565b6122b7816122b18454611faf565b8461223b565b602080601f8311600181146122ec57600084156122d45750858301515b600019600386901b1c1916600185901b178555612281565b600085815260208120601f198616915b8281101561231b578886015182559484019460019091019084016122fc565b50858210156123395787850151600019600388901b60f8161c191681555b5050505050600190811b01905550565b6001600160a01b0385811682528416602082015260408101839052608060608201819052600090611aba90830184611c91565b60006020828403121561238e57600080fd5b815161194d81611c3a565b600082516123ab818460208701611c6d565b919091019291505056fe360894a13ba1a3210667c828492db98dca3e2076cc3735a920a3ca505d382bbc416464726573733a206c6f772d6c6576656c2064656c65676174652063616c6c206661696c6564a264697066735822122097c5bc5d80ebba96c2382bc693d7cc00b8e67c8d5570083221292650f011328064736f6c63430008130033",
  "linkReferences": {},
  "deployedLinkReferences": {}
}