{
  "_format": "hh-sol-artifact-1",
  "contractName": "RadarEditions",
  "sourceName": "src/RadarEditions.sol",
  "abi": [
    {
      "inputs": [],
      "stateMutability": "nonpayable",
      "type": "constructor"
    },
    {
      "inputs": [],
      "name": "EditionFeeExceedsMaximumFee",
      "type": "error"
    },
    {
      "inputs": [],
      "name": "EditionNotCreated",
      "type": "error"
    },
    {
      "inputs": [],
      "name": "EditionNotEnoughBalance",
      "type": "error"
    },
    {
      "inputs": [],
      "name": "EditionNotLaunched",
      "type": "error"
    },
    {
      "inputs": [],
      "name": "EditionNotStopped",
      "type": "error"
    },
    {
      "inputs": [],
      "name": "NotCorrectUser",
      "type": "error"
    },
    {
      "inputs": [],
      "name": "NotEditionOwner",
      "type": "error"
    },
    {
      "inputs": [],
      "name": "NotEnoughFees",
      "type": "error"
    },
    {
      "inputs": [],
      "name": "NotEnoughFunds",
      "type": "error"
    },
    {
      "inputs": [],
      "name": "TransactionFailed",
      "type": "error"
    },
    {
      "anonymous": false,
      "inputs": [
        {
          "indexed": false,
          "internalType": "address",
          "name": "previousAdmin",
          "type": "address"
        },
        {
          "indexed": false,
          "internalType": "address",
          "name": "newAdmin",
          "type": "address"
        }
      ],
      "name": "AdminChanged",
      "type": "event"
    },
    {
      "anonymous": false,
      "inputs": [
        {
          "indexed": true,
          "internalType": "address",
          "name": "account",
          "type": "address"
        },
        {
          "indexed": true,
          "internalType": "address",
          "name": "operator",
          "type": "address"
        },
        {
          "indexed": false,
          "internalType": "bool",
          "name": "approved",
          "type": "bool"
        }
      ],
      "name": "ApprovalForAll",
      "type": "event"
    },
    {
      "anonymous": false,
      "inputs": [
        {
          "indexed": true,
          "internalType": "address",
          "name": "beacon",
          "type": "address"
        }
      ],
      "name": "BeaconUpgraded",
      "type": "event"
    },
    {
      "anonymous": false,
      "inputs": [
        {
          "indexed": false,
          "internalType": "uint256",
          "name": "editionId",
          "type": "uint256"
        }
      ],
      "name": "EditionApproved",
      "type": "event"
    },
    {
      "anonymous": false,
      "inputs": [
        {
          "indexed": false,
          "internalType": "uint256",
          "name": "editionId",
          "type": "uint256"
        },
        {
          "indexed": false,
          "internalType": "uint256",
          "name": "amount",
          "type": "uint256"
        },
        {
          "indexed": false,
          "internalType": "address",
          "name": "owner",
          "type": "address"
        }
      ],
      "name": "EditionBalanceWithdrawn",
      "type": "event"
    },
    {
      "anonymous": false,
      "inputs": [
        {
          "indexed": true,
          "internalType": "uint256",
          "name": "editionId",
          "type": "uint256"
        },
        {
          "indexed": true,
          "internalType": "address",
          "name": "believer",
          "type": "address"
        }
      ],
      "name": "EditionBeliefRemoved",
      "type": "event"
    },
    {
      "anonymous": false,
      "inputs": [
        {
          "indexed": true,
          "internalType": "uint256",
          "name": "editionId",
          "type": "uint256"
        },
        {
          "indexed": true,
          "internalType": "address",
          "name": "believer",
          "type": "address"
        },
        {
          "indexed": false,
          "internalType": "string",
          "name": "tags",
          "type": "string"
        }
      ],
      "name": "EditionBelieved",
      "type": "event"
    },
    {
      "anonymous": false,
      "inputs": [
        {
          "indexed": false,
          "internalType": "uint256",
          "name": "editionId",
          "type": "uint256"
        },
        {
          "indexed": false,
          "internalType": "uint256",
          "name": "fee",
          "type": "uint256"
        },
        {
          "indexed": false,
          "internalType": "address",
          "name": "owner",
          "type": "address"
        }
      ],
      "name": "EditionCreated",
      "type": "event"
    },
    {
      "anonymous": false,
      "inputs": [
        {
          "indexed": false,
          "internalType": "uint256",
          "name": "editionId",
          "type": "uint256"
        }
      ],
      "name": "EditionResumed",
      "type": "event"
    },
    {
      "anonymous": false,
      "inputs": [
        {
          "indexed": false,
          "internalType": "uint256",
          "name": "editionId",
          "type": "uint256"
        }
      ],
      "name": "EditionStopped",
      "type": "event"
    },
    {
      "anonymous": false,
      "inputs": [
        {
          "indexed": false,
          "internalType": "uint8",
          "name": "version",
          "type": "uint8"
        }
      ],
      "name": "Initialized",
      "type": "event"
    },
    {
      "anonymous": false,
      "inputs": [
        {
          "indexed": false,
          "internalType": "address",
          "name": "account",
          "type": "address"
        }
      ],
      "name": "Paused",
      "type": "event"
    },
    {
      "anonymous": false,
      "inputs": [
        {
          "indexed": true,
          "internalType": "bytes32",
          "name": "role",
          "type": "bytes32"
        },
        {
          "indexed": true,
          "internalType": "bytes32",
          "name": "previousAdminRole",
          "type": "bytes32"
        },
        {
          "indexed": true,
          "internalType": "bytes32",
          "name": "newAdminRole",
          "type": "bytes32"
        }
      ],
      "name": "RoleAdminChanged",
      "type": "event"
    },
    {
      "anonymous": false,
      "inputs": [
        {
          "indexed": true,
          "internalType": "bytes32",
          "name": "role",
          "type": "bytes32"
        },
        {
          "indexed": true,
          "internalType": "address",
          "name": "account",
          "type": "address"
        },
        {
          "indexed": true,
          "internalType": "address",
          "name": "sender",
          "type": "address"
        }
      ],
      "name": "RoleGranted",
      "type": "event"
    },
    {
      "anonymous": false,
      "inputs": [
        {
          "indexed": true,
          "internalType": "bytes32",
          "name": "role",
          "type": "bytes32"
        },
        {
          "indexed": true,
          "internalType": "address",
          "name": "account",
          "type": "address"
        },
        {
          "indexed": true,
          "internalType": "address",
          "name": "sender",
          "type": "address"
        }
      ],
      "name": "RoleRevoked",
      "type": "event"
    },
    {
      "anonymous": false,
      "inputs": [
        {
          "indexed": true,
          "internalType": "address",
          "name": "operator",
          "type": "address"
        },
        {
          "indexed": true,
          "internalType": "address",
          "name": "from",
          "type": "address"
        },
        {
          "indexed": true,
          "internalType": "address",
          "name": "to",
          "type": "address"
        },
        {
          "indexed": false,
          "internalType": "uint256[]",
          "name": "ids",
          "type": "uint256[]"
        },
        {
          "indexed": false,
          "internalType": "uint256[]",
          "name": "values",
          "type": "uint256[]"
        }
      ],
      "name": "TransferBatch",
      "type": "event"
    },
    {
      "anonymous": false,
      "inputs": [
        {
          "indexed": true,
          "internalType": "address",
          "name": "operator",
          "type": "address"
        },
        {
          "indexed": true,
          "internalType": "address",
          "name": "from",
          "type": "address"
        },
        {
          "indexed": true,
          "internalType": "address",
          "name": "to",
          "type": "address"
        },
        {
          "indexed": false,
          "internalType": "uint256",
          "name": "id",
          "type": "uint256"
        },
        {
          "indexed": false,
          "internalType": "uint256",
          "name": "value",
          "type": "uint256"
        }
      ],
      "name": "TransferSingle",
      "type": "event"
    },
    {
      "anonymous": false,
      "inputs": [
        {
          "indexed": false,
          "internalType": "string",
          "name": "value",
          "type": "string"
        },
        {
          "indexed": true,
          "internalType": "uint256",
          "name": "id",
          "type": "uint256"
        }
      ],
      "name": "URI",
      "type": "event"
    },
    {
      "anonymous": false,
      "inputs": [
        {
          "indexed": false,
          "internalType": "address",
          "name": "account",
          "type": "address"
        }
      ],
      "name": "Unpaused",
      "type": "event"
    },
    {
      "anonymous": false,
      "inputs": [
        {
          "indexed": true,
          "internalType": "address",
          "name": "implementation",
          "type": "address"
        }
      ],
      "name": "Upgraded",
      "type": "event"
    },
    {
      "stateMutability": "payable",
      "type": "fallback"
    },
    {
      "inputs": [],
      "name": "DEFAULT_ADMIN_ROLE",
      "outputs": [
        {
          "internalType": "bytes32",
          "name": "",
          "type": "bytes32"
        }
      ],
      "stateMutability": "view",
      "type": "function"
    },
    {
      "inputs": [
        {
          "internalType": "uint256",
          "name": "editionId",
          "type": "uint256"
        }
      ],
      "name": "approveEdition",
      "outputs": [],
      "stateMutability": "nonpayable",
      "type": "function"
    },
    {
      "inputs": [
        {
          "internalType": "address",
          "name": "account",
          "type": "address"
        },
        {
          "internalType": "uint256",
          "name": "id",
          "type": "uint256"
        }
      ],
      "name": "balanceOf",
      "outputs": [
        {
          "internalType": "uint256",
          "name": "",
          "type": "uint256"
        }
      ],
      "stateMutability": "view",
      "type": "function"
    },
    {
      "inputs": [
        {
          "internalType": "address[]",
          "name": "accounts",
          "type": "address[]"
        },
        {
          "internalType": "uint256[]",
          "name": "ids",
          "type": "uint256[]"
        }
      ],
      "name": "balanceOfBatch",
      "outputs": [
        {
          "internalType": "uint256[]",
          "name": "",
          "type": "uint256[]"
        }
      ],
      "stateMutability": "view",
      "type": "function"
    },
    {
      "inputs": [
        {
          "internalType": "uint256",
          "name": "editionId",
          "type": "uint256"
        },
        {
          "internalType": "string",
          "name": "tags",
          "type": "string"
        }
      ],
      "name": "believeProject",
      "outputs": [],
      "stateMutability": "nonpayable",
      "type": "function"
    },
    {
      "inputs": [
        {
          "internalType": "address",
          "name": "account",
          "type": "address"
        },
        {
          "internalType": "uint256",
          "name": "id",
          "type": "uint256"
        },
        {
          "internalType": "uint256",
          "name": "value",
          "type": "uint256"
        }
      ],
      "name": "burn",
      "outputs": [],
      "stateMutability": "nonpayable",
      "type": "function"
    },
    {
      "inputs": [
        {
          "internalType": "address",
          "name": "account",
          "type": "address"
        },
        {
          "internalType": "uint256[]",
          "name": "ids",
          "type": "uint256[]"
        },
        {
          "internalType": "uint256[]",
          "name": "values",
          "type": "uint256[]"
        }
      ],
      "name": "burnBatch",
      "outputs": [],
      "stateMutability": "nonpayable",
      "type": "function"
    },
    {
      "inputs": [],
      "name": "contractURI",
      "outputs": [
        {
          "internalType": "string",
          "name": "",
          "type": "string"
        }
      ],
      "stateMutability": "view",
      "type": "function"
    },
    {
      "inputs": [
        {
          "internalType": "uint256",
          "name": "fee",
          "type": "uint256"
        },
        {
          "internalType": "address",
          "name": "owner",
          "type": "address"
        },
        {
          "internalType": "address",
          "name": "payer",
          "type": "address"
        },
        {
          "internalType": "string",
          "name": "id",
          "type": "string"
        }
      ],
      "name": "createEdition",
      "outputs": [
        {
          "internalType": "uint256",
          "name": "editionId",
          "type": "uint256"
        }
      ],
      "stateMutability": "nonpayable",
      "type": "function"
    },
    {
      "inputs": [],
      "name": "editionCounter",
      "outputs": [
        {
          "internalType": "uint256",
          "name": "",
          "type": "uint256"
        }
      ],
      "stateMutability": "view",
      "type": "function"
    },
    {
      "inputs": [
        {
          "internalType": "uint256",
          "name": "",
          "type": "uint256"
        }
      ],
      "name": "editions",
      "outputs": [
        {
          "internalType": "enum EditionsStructs.EditionStatus",
          "name": "status",
          "type": "uint8"
        },
        {
          "internalType": "uint256",
          "name": "fee",
          "type": "uint256"
        },
        {
          "internalType": "uint256",
          "name": "balance",
          "type": "uint256"
        },
        {
          "internalType": "address",
          "name": "owner",
          "type": "address"
        },
        {
          "internalType": "string",
          "name": "id",
          "type": "string"
        }
      ],
      "stateMutability": "view",
      "type": "function"
    },
    {
      "inputs": [
        {
          "internalType": "uint256",
          "name": "id",
          "type": "uint256"
        }
      ],
      "name": "exists",
      "outputs": [
        {
          "internalType": "bool",
          "name": "",
          "type": "bool"
        }
      ],
      "stateMutability": "view",
      "type": "function"
    },
    {
      "inputs": [
        {
          "internalType": "address",
          "name": "owner",
          "type": "address"
        }
      ],
      "name": "getBalances",
      "outputs": [
        {
          "components": [
            {
              "internalType": "string",
              "name": "id",
              "type": "string"
            },
            {
              "internalType": "uint256",
              "name": "amount",
              "type": "uint256"
            }
          ],
          "internalType": "struct EditionsStructs.EditionIdWithAmount[]",
          "name": "",
          "type": "tuple[]"
        }
      ],
      "stateMutability": "view",
      "type": "function"
    },
    {
      "inputs": [],
      "name": "getEditions",
      "outputs": [
        {
          "components": [
            {
              "internalType": "enum EditionsStructs.EditionStatus",
              "name": "status",
              "type": "uint8"
            },
            {
              "internalType": "uint256",
              "name": "fee",
              "type": "uint256"
            },
            {
              "internalType": "uint256",
              "name": "balance",
              "type": "uint256"
            },
            {
              "internalType": "address",
              "name": "owner",
              "type": "address"
            },
            {
              "internalType": "string",
              "name": "id",
              "type": "string"
            }
          ],
          "internalType": "struct EditionsStructs.Edition[]",
          "name": "",
          "type": "tuple[]"
        }
      ],
      "stateMutability": "view",
      "type": "function"
    },
    {
      "inputs": [
        {
          "internalType": "bytes32",
          "name": "role",
          "type": "bytes32"
        }
      ],
      "name": "getRoleAdmin",
      "outputs": [
        {
          "internalType": "bytes32",
          "name": "",
          "type": "bytes32"
        }
      ],
      "stateMutability": "view",
      "type": "function"
    },
    {
      "inputs": [
        {
          "internalType": "bytes32",
          "name": "role",
          "type": "bytes32"
        },
        {
          "internalType": "address",
          "name": "account",
          "type": "address"
        }
      ],
      "name": "grantRole",
      "outputs": [],
      "stateMutability": "nonpayable",
      "type": "function"
    },
    {
      "inputs": [
        {
          "internalType": "bytes32",
          "name": "role",
          "type": "bytes32"
        },
        {
          "internalType": "address",
          "name": "account",
          "type": "address"
        }
      ],
      "name": "hasRole",
      "outputs": [
        {
          "internalType": "bool",
          "name": "",
          "type": "bool"
        }
      ],
      "stateMutability": "view",
      "type": "function"
    },
    {
      "inputs": [],
      "name": "initialize",
      "outputs": [],
      "stateMutability": "nonpayable",
      "type": "function"
    },
    {
      "inputs": [
        {
          "internalType": "address",
          "name": "account",
          "type": "address"
        },
        {
          "internalType": "address",
          "name": "operator",
          "type": "address"
        }
      ],
      "name": "isApprovedForAll",
      "outputs": [
        {
          "internalType": "bool",
          "name": "",
          "type": "bool"
        }
      ],
      "stateMutability": "view",
      "type": "function"
    },
    {
      "inputs": [],
      "name": "maximumEditionFee",
      "outputs": [
        {
          "internalType": "uint256",
          "name": "",
          "type": "uint256"
        }
      ],
      "stateMutability": "view",
      "type": "function"
    },
    {
      "inputs": [
        {
          "internalType": "uint256",
          "name": "editionId",
          "type": "uint256"
        },
        {
          "internalType": "uint256",
          "name": "amount",
          "type": "uint256"
        },
        {
          "internalType": "address",
          "name": "buyer",
          "type": "address"
        },
        {
          "internalType": "bytes",
          "name": "data",
          "type": "bytes"
        }
      ],
      "name": "mintEdition",
      "outputs": [],
      "stateMutability": "payable",
      "type": "function"
    },
    {
      "inputs": [],
      "name": "pause",
      "outputs": [],
      "stateMutability": "nonpayable",
      "type": "function"
    },
    {
      "inputs": [],
      "name": "paused",
      "outputs": [
        {
          "internalType": "bool",
          "name": "",
          "type": "bool"
        }
      ],
      "stateMutability": "view",
      "type": "function"
    },
    {
      "inputs": [],
      "name": "protocolFee",
      "outputs": [
        {
          "internalType": "uint256",
          "name": "",
          "type": "uint256"
        }
      ],
      "stateMutability": "view",
      "type": "function"
    },
    {
      "inputs": [],
      "name": "proxiableUUID",
      "outputs": [
        {
          "internalType": "bytes32",
          "name": "",
          "type": "bytes32"
        }
      ],
      "stateMutability": "view",
      "type": "function"
    },
    {
      "inputs": [
        {
          "internalType": "uint256",
          "name": "editionId",
          "type": "uint256"
        }
      ],
      "name": "removeBelief",
      "outputs": [],
      "stateMutability": "nonpayable",
      "type": "function"
    },
    {
      "inputs": [
        {
          "internalType": "bytes32",
          "name": "role",
          "type": "bytes32"
        },
        {
          "internalType": "address",
          "name": "account",
          "type": "address"
        }
      ],
      "name": "renounceRole",
      "outputs": [],
      "stateMutability": "nonpayable",
      "type": "function"
    },
    {
      "inputs": [
        {
          "internalType": "uint256",
          "name": "editionId",
          "type": "uint256"
        }
      ],
      "name": "resumeEdition",
      "outputs": [],
      "stateMutability": "nonpayable",
      "type": "function"
    },
    {
      "inputs": [
        {
          "internalType": "bytes32",
          "name": "role",
          "type": "bytes32"
        },
        {
          "internalType": "address",
          "name": "account",
          "type": "address"
        }
      ],
      "name": "revokeRole",
      "outputs": [],
      "stateMutability": "nonpayable",
      "type": "function"
    },
    {
      "inputs": [
        {
          "internalType": "address",
          "name": "from",
          "type": "address"
        },
        {
          "internalType": "address",
          "name": "to",
          "type": "address"
        },
        {
          "internalType": "uint256[]",
          "name": "ids",
          "type": "uint256[]"
        },
        {
          "internalType": "uint256[]",
          "name": "amounts",
          "type": "uint256[]"
        },
        {
          "internalType": "bytes",
          "name": "data",
          "type": "bytes"
        }
      ],
      "name": "safeBatchTransferFrom",
      "outputs": [],
      "stateMutability": "nonpayable",
      "type": "function"
    },
    {
      "inputs": [
        {
          "internalType": "address",
          "name": "from",
          "type": "address"
        },
        {
          "internalType": "address",
          "name": "to",
          "type": "address"
        },
        {
          "internalType": "uint256",
          "name": "id",
          "type": "uint256"
        },
        {
          "internalType": "uint256",
          "name": "amount",
          "type": "uint256"
        },
        {
          "internalType": "bytes",
          "name": "data",
          "type": "bytes"
        }
      ],
      "name": "safeTransferFrom",
      "outputs": [],
      "stateMutability": "nonpayable",
      "type": "function"
    },
    {
      "inputs": [
        {
          "internalType": "address",
          "name": "operator",
          "type": "address"
        },
        {
          "internalType": "bool",
          "name": "approved",
          "type": "bool"
        }
      ],
      "name": "setApprovalForAll",
      "outputs": [],
      "stateMutability": "nonpayable",
      "type": "function"
    },
    {
      "inputs": [
        {
          "internalType": "uint256",
          "name": "_maximumEditionFee",
          "type": "uint256"
        }
      ],
      "name": "setMaximumEditionFee",
      "outputs": [],
      "stateMutability": "nonpayable",
      "type": "function"
    },
    {
      "inputs": [
        {
          "internalType": "uint256",
          "name": "_protocolFee",
          "type": "uint256"
        }
      ],
      "name": "setProtocolFee",
      "outputs": [],
      "stateMutability": "nonpayable",
      "type": "function"
    },
    {
      "inputs": [
        {
          "internalType": "string",
          "name": "newuri",
          "type": "string"
        }
      ],
      "name": "setURI",
      "outputs": [],
      "stateMutability": "nonpayable",
      "type": "function"
    },
    {
      "inputs": [
        {
          "internalType": "uint256",
          "name": "editionId",
          "type": "uint256"
        }
      ],
      "name": "stopEdition",
      "outputs": [],
      "stateMutability": "nonpayable",
      "type": "function"
    },
    {
      "inputs": [
        {
          "internalType": "bytes4",
          "name": "interfaceId",
          "type": "bytes4"
        }
      ],
      "name": "supportsInterface",
      "outputs": [
        {
          "internalType": "bool",
          "name": "",
          "type": "bool"
        }
      ],
      "stateMutability": "view",
      "type": "function"
    },
    {
      "inputs": [
        {
          "internalType": "uint256",
          "name": "id",
          "type": "uint256"
        }
      ],
      "name": "totalSupply",
      "outputs": [
        {
          "internalType": "uint256",
          "name": "",
          "type": "uint256"
        }
      ],
      "stateMutability": "view",
      "type": "function"
    },
    {
      "inputs": [],
      "name": "unpause",
      "outputs": [],
      "stateMutability": "nonpayable",
      "type": "function"
    },
    {
      "inputs": [
        {
          "internalType": "address",
          "name": "newImplementation",
          "type": "address"
        }
      ],
      "name": "upgradeTo",
      "outputs": [],
      "stateMutability": "nonpayable",
      "type": "function"
    },
    {
      "inputs": [
        {
          "internalType": "address",
          "name": "newImplementation",
          "type": "address"
        },
        {
          "internalType": "bytes",
          "name": "data",
          "type": "bytes"
        }
      ],
      "name": "upgradeToAndCall",
      "outputs": [],
      "stateMutability": "payable",
      "type": "function"
    },
    {
      "inputs": [
        {
          "internalType": "uint256",
          "name": "id",
          "type": "uint256"
        }
      ],
      "name": "uri",
      "outputs": [
        {
          "internalType": "string",
          "name": "",
          "type": "string"
        }
      ],
      "stateMutability": "view",
      "type": "function"
    },
    {
      "inputs": [
        {
          "internalType": "uint256",
          "name": "editionId",
          "type": "uint256"
        },
        {
          "internalType": "uint256",
          "name": "amount",
          "type": "uint256"
        }
      ],
      "name": "withdrawEditionBalance",
      "outputs": [],
      "stateMutability": "nonpayable",
      "type": "function"
    },
    {
      "inputs": [
        {
          "internalType": "uint256",
          "name": "amount",
          "type": "uint256"
        }
      ],
      "name": "withdrawFunds",
      "outputs": [],
      "stateMutability": "nonpayable",
      "type": "function"
    },
    {
      "stateMutability": "payable",
      "type": "receive"
    }
  ],
  "bytecode": "0x60a0604052306080523480156200001557600080fd5b506200002062000026565b620000e7565b600054610100900460ff1615620000935760405162461bcd60e51b815260206004820152602760248201527f496e697469616c697a61626c653a20636f6e747261637420697320696e697469604482015266616c697a696e6760c81b606482015260840160405180910390fd5b60005460ff90811614620000e5576000805460ff191660ff9081179091556040519081527f7f26b83ff96e1f2b6a682f133852f6798a09c465da95921460cefb38474024989060200160405180910390a15b565b60805161446e6200011f60003960008181610cb901528181610cf901528181610ef301528181610f330152610fc2015261446e6000f3fe6080604052600436106102525760003560e01c8063790bafc611610138578063c6fbb712116100b0578063e8a3d48511610077578063e8a3d48514610732578063e985e9c514610747578063f242432a14610790578063f5298aca146107b0578063f8c1b2fd146107d0578063fc74efa2146107f057005b8063c6fbb7121461068c578063c84aae17146106a3578063d547741f146106d0578063d667c9ce146106f0578063df6efc6c1461071057005b806391fc02f1116100ff57806391fc02f1146105df578063940123da146105ff578063a217fddf14610612578063a22cb46514610627578063b0e21e8a14610647578063bd85b0391461065e57005b8063790bafc6146105555780637cc74941146105755780638129fc1c146105955780638456cb59146105aa57806391d14854146105bf57005b80633659cfe6116101cb57806352d1902d1161019257806352d1902d146104b15780635c975abb146104c65780636b20c454146104de5780636b5cb789146104fe5780637357628c14610515578063787dce3d1461053557005b80633659cfe61461040c5780633f4ba83a1461042c5780634e1273f4146104415780634f1ef2861461046e5780634f558e791461048157005b8063155dd5ee1161021a578063155dd5ee1461032b578063248a9ca31461034b578063279c806e1461037b5780632eb2c2d6146103ac5780632f2ff15d146103cc57806336568abe146103ec57005b8062fdd58e1461025b57806301ffc9a71461028e57806302fe5305146102be5780630a579eca146102de5780630e89341c146102fe57005b3661025957005b005b34801561026757600080fd5b5061027b610276366004613444565b610810565b6040519081526020015b60405180910390f35b34801561029a57600080fd5b506102ae6102a9366004613484565b6108ab565b6040519015158152602001610285565b3480156102ca57600080fd5b506102596102d9366004613556565b6108b6565b3480156102ea57600080fd5b506102596102f936600461358a565b6108ed565b34801561030a57600080fd5b5061031e61031936600461358a565b6109cf565b60405161028591906135f3565b34801561033757600080fd5b5061025961034636600461358a565b610a0a565b34801561035757600080fd5b5061027b61036636600461358a565b60009081526097602052604090206001015490565b34801561038757600080fd5b5061039b61039636600461358a565b610b07565b60405161028595949392919061363e565b3480156103b857600080fd5b506102596103c7366004613717565b610bcf565b3480156103d857600080fd5b506102596103e73660046137c0565b610c1b565b3480156103f857600080fd5b506102596104073660046137c0565b610c35565b34801561041857600080fd5b506102596104273660046137ec565b610caf565b34801561043857600080fd5b50610259610d8e565b34801561044d57600080fd5b5061046161045c366004613807565b610dc0565b604051610285919061390c565b61025961047c36600461391f565b610ee9565b34801561048d57600080fd5b506102ae61049c36600461358a565b600090815261012d6020526040902054151590565b3480156104bd57600080fd5b5061027b610fb5565b3480156104d257600080fd5b5060c95460ff166102ae565b3480156104ea57600080fd5b506102596104f9366004613962565b611069565b34801561050a57600080fd5b5061027b6101c65481565b34801561052157600080fd5b5061025961053036600461358a565b6110ac565b34801561054157600080fd5b5061025961055036600461358a565b61114d565b34801561056157600080fd5b506102596105703660046139d5565b61115f565b34801561058157600080fd5b5061025961059036600461358a565b611214565b3480156105a157600080fd5b50610259611226565b3480156105b657600080fd5b506102596113f1565b3480156105cb57600080fd5b506102ae6105da3660046137c0565b611423565b3480156105eb57600080fd5b5061027b6105fa366004613a05565b61144e565b61025961060d366004613a6c565b611596565b34801561061e57600080fd5b5061027b600081565b34801561063357600080fd5b50610259610642366004613a99565b611677565b34801561065357600080fd5b5061027b6101c35481565b34801561066a57600080fd5b5061027b61067936600461358a565b600090815261012d602052604090205490565b34801561069857600080fd5b5061027b6101c55481565b3480156106af57600080fd5b506106c36106be3660046137ec565b611682565b6040516102859190613ad5565b3480156106dc57600080fd5b506102596106eb3660046137c0565b6117ec565b3480156106fc57600080fd5b5061025961070b366004613b4b565b611811565b34801561071c57600080fd5b50610725611953565b6040516102859190613b6d565b34801561073e57600080fd5b5061031e611b29565b34801561075357600080fd5b506102ae610762366004613c03565b6001600160a01b03918216600090815260666020908152604080832093909416825291909152205460ff1690565b34801561079c57600080fd5b506102596107ab366004613c2d565b611b49565b3480156107bc57600080fd5b506102596107cb366004613c91565b611b8e565b3480156107dc57600080fd5b506102596107eb36600461358a565b611bd1565b3480156107fc57600080fd5b5061025961080b36600461358a565b611c66565b60006001600160a01b0383166108805760405162461bcd60e51b815260206004820152602a60248201527f455243313135353a2061646472657373207a65726f206973206e6f742061207660448201526930b634b21037bbb732b960b11b60648201526084015b60405180910390fd5b5060008181526065602090815260408083206001600160a01b03861684529091529020545b92915050565b60006108a582611d41565b7f7804d923f43a17d325d77e781528e0793b2edd9890ab45fc64efd7b4b427744c6108e081611d66565b6108e982611d70565b5050565b60008181526101c460205260409020600301546001600160a01b031633148061091c575061091c600033611423565b6109395760405163388f811f60e01b815260040160405180910390fd5b600260008281526101c4602052604090205460ff16600381111561095f5761095f613606565b1461097d57604051631f0fb6fd60e11b815260040160405180910390fd5b60008181526101c46020908152604091829020805460ff1916600317905590518281527f591913f977ab242c5871f116f36be231ff67df5e8e0bac1efd91fa8a723aca2b91015b60405180910390a150565b60606109da82611d7c565b6109e383611e10565b6040516020016109f4929190613cc4565b6040516020818303038152906040529050919050565b6000610a1581611d66565b47821115610a3657604051631036b5ad60e31b815260040160405180910390fd5b4760005b6101c554811015610a975760008181526101c46020526040902060020154610a629083613d09565b915083821015610a855760405163156bbc5b60e01b815260040160405180910390fd5b80610a8f81613d1c565b915050610a3a565b50604051600090339085908381818185875af1925050503d8060008114610ada576040519150601f19603f3d011682016040523d82523d6000602084013e610adf565b606091505b5050905080610b01576040516317f2c34560e31b815260040160405180910390fd5b50505050565b6101c4602052600090815260409020805460018201546002830154600384015460048501805460ff90951695939492936001600160a01b0390921692610b4c90613d35565b80601f0160208091040260200160405190810160405280929190818152602001828054610b7890613d35565b8015610bc55780601f10610b9a57610100808354040283529160200191610bc5565b820191906000526020600020905b815481529060010190602001808311610ba857829003601f168201915b5050505050905085565b6001600160a01b038516331480610beb5750610beb8533610762565b610c075760405162461bcd60e51b815260040161087790613d69565b610c148585858585611ea2565b5050505050565b6000610c2681611d66565b610c30838361204f565b505050565b6001600160a01b0381163314610ca55760405162461bcd60e51b815260206004820152602f60248201527f416363657373436f6e74726f6c3a2063616e206f6e6c792072656e6f756e636560448201526e103937b632b9903337b91039b2b63360891b6064820152608401610877565b6108e982826120d5565b6001600160a01b037f0000000000000000000000000000000000000000000000000000000000000000163003610cf75760405162461bcd60e51b815260040161087790613db7565b7f00000000000000000000000000000000000000000000000000000000000000006001600160a01b0316610d406000805160206143ce833981519152546001600160a01b031690565b6001600160a01b031614610d665760405162461bcd60e51b815260040161087790613e03565b610d6f8161213c565b60408051600080825260208201909252610d8b91839190612166565b50565b7f65d7a28e3265b37a6474929f336521b332c1681b933f6cb9f3376673440d862a610db881611d66565b610d8b6122d1565b60608151835114610e255760405162461bcd60e51b815260206004820152602960248201527f455243313135353a206163636f756e747320616e6420696473206c656e677468604482015268040dad2e6dac2e8c6d60bb1b6064820152608401610877565b600083516001600160401b03811115610e4057610e406134a1565b604051908082528060200260200182016040528015610e69578160200160208202803683370190505b50905060005b8451811015610ee157610eb4858281518110610e8d57610e8d613e4f565b6020026020010151858381518110610ea757610ea7613e4f565b6020026020010151610810565b828281518110610ec657610ec6613e4f565b6020908102919091010152610eda81613d1c565b9050610e6f565b509392505050565b6001600160a01b037f0000000000000000000000000000000000000000000000000000000000000000163003610f315760405162461bcd60e51b815260040161087790613db7565b7f00000000000000000000000000000000000000000000000000000000000000006001600160a01b0316610f7a6000805160206143ce833981519152546001600160a01b031690565b6001600160a01b031614610fa05760405162461bcd60e51b815260040161087790613e03565b610fa98261213c565b6108e982826001612166565b6000306001600160a01b037f000000000000000000000000000000000000000000000000000000000000000016146110555760405162461bcd60e51b815260206004820152603860248201527f555550535570677261646561626c653a206d757374206e6f742062652063616c60448201527f6c6564207468726f7567682064656c656761746563616c6c00000000000000006064820152608401610877565b506000805160206143ce8339815191525b90565b6001600160a01b03831633148061108557506110858333610762565b6110a15760405162461bcd60e51b815260040161087790613d69565b610c30838383612323565b60006110b781611d66565b600160008381526101c4602052604090205460ff1660038111156110dd576110dd613606565b146110fb5760405163137c9c1f60e31b815260040160405180910390fd5b60008281526101c46020908152604091829020805460ff1916600217905590518381527f8f4352ac8b4aefdd2333162306bbe09dd4f4ff6661e89ccc4e4dcced8794e8f7910160405180910390a15050565b600061115881611d66565b506101c355565b600260008381526101c4602052604090205460ff16600381111561118557611185613606565b146111a35760405163137c9c1f60e31b815260040160405180910390fd5b3360009081526101c760209081526040808320600886901c845290915290208054600160ff85161b179055336001600160a01b0316827f710e220a47c8d9e50587c80fe509f5e762149ef672440eff70798204dd70f5eb8360405161120891906135f3565b60405180910390a35050565b600061121f81611d66565b506101c655565b600054610100900460ff16158080156112465750600054600160ff909116105b806112605750303b158015611260575060005460ff166001145b6112c35760405162461bcd60e51b815260206004820152602e60248201527f496e697469616c697a61626c653a20636f6e747261637420697320616c72656160448201526d191e481a5b9a5d1a585b1a5e995960921b6064820152608401610877565b6000805460ff1916600117905580156112e6576000805461ff0019166101001790555b6112fe604051806020016040528060008152506124c2565b6113066124f2565b61130e61251b565b6113166124f2565b61131e6124f2565b6113266124f2565b61133160003361204f565b61135b7f7804d923f43a17d325d77e781528e0793b2edd9890ab45fc64efd7b4b427744c3361204f565b6113857f65d7a28e3265b37a6474929f336521b332c1681b933f6cb9f3376673440d862a3361204f565b6113af7f189ab7a9244df0848122154315af71fe140f3db0fe014031783b0946b8c9d2e33361204f565b8015610d8b576000805461ff0019169055604051600181527f7f26b83ff96e1f2b6a682f133852f6798a09c465da95921460cefb3847402498906020016109c4565b7f65d7a28e3265b37a6474929f336521b332c1681b933f6cb9f3376673440d862a61141b81611d66565b610d8b61254a565b60009182526097602090815260408084206001600160a01b0393909316845291905290205460ff1690565b60006101c65485111561147457604051630f0c4c5f60e41b815260040160405180910390fd5b506101c5546040805160a0810190915280600181526020808201889052600060408084018290526001600160a01b038916606085015260809093018690528481526101c49091522081518154829060ff191660018360038111156114da576114da613606565b0217905550602082015160018201556040820151600282015560608201516003820180546001600160a01b0319166001600160a01b039092169190911790556080820151600482019061152d9082613eab565b50506101c580549150600061154183613d1c565b909155505060408051828152602081018790526001600160a01b0386168183015290517f7fe7f72f14a53255f3c9e225ab1d40fdb21335b87a7912726a196fb816866ae09181900360600190a1949350505050565b600260008581526101c4602052604090205460ff1660038111156115bc576115bc613606565b146115da57604051631f0fb6fd60e11b815260040160405180910390fd5b6101c35460008581526101c4602052604090206001015484916115fc91613f6a565b6116069190613f7d565b34101561162657604051631036b5ad60e31b815260040160405180910390fd5b61163282858584612587565b6101c3546116409084613f7d565b61164a9034613d09565b60008581526101c460205260408120600201805490919061166c908490613f6a565b909155505050505050565b6108e93383836126ac565b606060006101c5546001600160401b038111156116a1576116a16134a1565b6040519080825280602002602001820160405280156116e757816020015b6040805180820190915260608152600060208201528152602001906001900390816116bf5790505b50905060005b6101c5548110156117e55760405180604001604052806101c46000848152602001908152602001600020600401805461172590613d35565b80601f016020809104026020016040519081016040528092919081815260200182805461175190613d35565b801561179e5780601f106117735761010080835404028352916020019161179e565b820191906000526020600020905b81548152906001019060200180831161178157829003601f168201915b505050505081526020016117b28684610810565b8152508282815181106117c7576117c7613e4f565b602002602001018190525080806117dd90613d1c565b9150506116ed565b5092915050565b60008281526097602052604090206001015461180781611d66565b610c3083836120d5565b60008281526101c460205260409020600301546001600160a01b0316331461184c5760405163388f811f60e01b815260040160405180910390fd5b60008281526101c4602052604090206002015481111561187f57604051637eafab7d60e01b815260040160405180910390fd5b604051600090339083908381818185875af1925050503d80600081146118c1576040519150601f19603f3d011682016040523d82523d6000602084013e6118c6565b606091505b50509050806118e8576040516317f2c34560e31b815260040160405180910390fd5b60008381526101c460205260408120600201805484929061190a908490613d09565b90915550506040805184815260208101849052338183015290517ff1090e9d5138cd4909542e10e1da576730b07eb291a71a151e63160dde345b949181900360600190a1505050565b606060006101c5546001600160401b03811115611972576119726134a1565b6040519080825280602002602001820160405280156119df57816020015b6119cc6040805160a081019091528060008152602001600081526020016000815260200160006001600160a01b03168152602001606081525090565b8152602001906001900390816119905790505b50905060005b6101c554811015611b235760008181526101c4602052604090819020815160a081019092528054829060ff166003811115611a2257611a22613606565b6003811115611a3357611a33613606565b8152600182015460208201526002820154604082015260038201546001600160a01b03166060820152600482018054608090920191611a7190613d35565b80601f0160208091040260200160405190810160405280929190818152602001828054611a9d90613d35565b8015611aea5780601f10611abf57610100808354040283529160200191611aea565b820191906000526020600020905b815481529060010190602001808311611acd57829003601f168201915b505050505081525050828281518110611b0557611b05613e4f565b60200260200101819052508080611b1b90613d1c565b9150506119e5565b50919050565b606060405180606001604052806024815260200161441560249139905090565b6001600160a01b038516331480611b655750611b658533610762565b611b815760405162461bcd60e51b815260040161087790613d69565b610c14858585858561278c565b6001600160a01b038316331480611baa5750611baa8333610762565b611bc65760405162461bcd60e51b815260040161087790613d69565b610c308383836128c8565b3360009081526101c760209081526040808320600885901c84529182905290912054600160ff84161b16611c185760405163423f327760e11b815260040160405180910390fd5b600882901c6000908152602082905260408082208054600160ff87161b1916905551339184917fc6c1c3224e50c3c958e39197695bdfe8457ce7c0014d8d51a4d3aa12c5ac18489190a35050565b60008181526101c460205260409020600301546001600160a01b0316331480611c955750611c95600033611423565b611cb25760405163388f811f60e01b815260040160405180910390fd5b600360008281526101c4602052604090205460ff166003811115611cd857611cd8613606565b14611cf65760405163968807a560e01b815260040160405180910390fd5b60008181526101c46020908152604091829020805460ff1916600217905590518281527f63bb17c9645a29322601b4fe88d8f3fa84f32229368294f903084be8f5d813ba91016109c4565b60006001600160e01b03198216637965db0b60e01b14806108a557506108a5826129e4565b610d8b8133612a34565b60676108e98282613eab565b606060678054611d8b90613d35565b80601f0160208091040260200160405190810160405280929190818152602001828054611db790613d35565b8015611e045780601f10611dd957610100808354040283529160200191611e04565b820191906000526020600020905b815481529060010190602001808311611de757829003601f168201915b50505050509050919050565b60606000611e1d83612a8d565b60010190506000816001600160401b03811115611e3c57611e3c6134a1565b6040519080825280601f01601f191660200182016040528015611e66576020820181803683370190505b5090508181016020015b600019016f181899199a1a9b1b9c1cb0b131b232b360811b600a86061a8153600a8504945084611e7057509392505050565b8151835114611ec35760405162461bcd60e51b815260040161087790613f94565b6001600160a01b038416611ee95760405162461bcd60e51b815260040161087790613fdc565b33611ef8818787878787612b65565b60005b8451811015611fe1576000858281518110611f1857611f18613e4f565b602002602001015190506000858381518110611f3657611f36613e4f565b60209081029190910181015160008481526065835260408082206001600160a01b038e168352909352919091205490915081811015611f875760405162461bcd60e51b815260040161087790614021565b60008381526065602090815260408083206001600160a01b038e8116855292528083208585039055908b16825281208054849290611fc6908490613f6a565b9250508190555050505080611fda90613d1c565b9050611efb565b50846001600160a01b0316866001600160a01b0316826001600160a01b03167f4a39dc06d4c0dbc64b70af90fd698a233a518aa5d07e595d983b8c0526c8f7fb878760405161203192919061406b565b60405180910390a4612047818787878787612b7b565b505050505050565b6120598282611423565b6108e95760008281526097602090815260408083206001600160a01b03851684529091529020805460ff191660011790556120913390565b6001600160a01b0316816001600160a01b0316837f2f8788117e7eff1d82e926ec794901d17c78024a50270940304540a733656f0d60405160405180910390a45050565b6120df8282611423565b156108e95760008281526097602090815260408083206001600160a01b0385168085529252808320805460ff1916905551339285917ff6391f5c32d9c69d2a47ea670b442974b53935d1edc7fd64eb21e047a839171b9190a45050565b7f189ab7a9244df0848122154315af71fe140f3db0fe014031783b0946b8c9d2e36108e981611d66565b7f4910fdfa16fed3260ed0e7147f7cc6da11a60208b5b9406d12a635614ffd91435460ff161561219957610c3083612cd6565b826001600160a01b03166352d1902d6040518163ffffffff1660e01b8152600401602060405180830381865afa9250505080156121f3575060408051601f3d908101601f191682019092526121f091810190614099565b60015b6122565760405162461bcd60e51b815260206004820152602e60248201527f45524331393637557067726164653a206e657720696d706c656d656e7461746960448201526d6f6e206973206e6f74205555505360901b6064820152608401610877565b6000805160206143ce83398151915281146122c55760405162461bcd60e51b815260206004820152602960248201527f45524331393637557067726164653a20756e737570706f727465642070726f786044820152681a58589b195555525160ba1b6064820152608401610877565b50610c30838383612d72565b6122d9612d97565b60c9805460ff191690557f5db9ee0a495bf2e6ff9c91a7834c1ba4fdd244a5e8aa4e537bd38aeae4b073aa335b6040516001600160a01b03909116815260200160405180910390a1565b6001600160a01b0383166123495760405162461bcd60e51b8152600401610877906140b2565b805182511461236a5760405162461bcd60e51b815260040161087790613f94565b600033905061238d81856000868660405180602001604052806000815250612b65565b60005b83518110156124555760008482815181106123ad576123ad613e4f565b6020026020010151905060008483815181106123cb576123cb613e4f565b60209081029190910181015160008481526065835260408082206001600160a01b038c16835290935291909120549091508181101561241c5760405162461bcd60e51b8152600401610877906140f5565b60009283526065602090815260408085206001600160a01b038b168652909152909220910390558061244d81613d1c565b915050612390565b5060006001600160a01b0316846001600160a01b0316826001600160a01b03167f4a39dc06d4c0dbc64b70af90fd698a233a518aa5d07e595d983b8c0526c8f7fb86866040516124a692919061406b565b60405180910390a4604080516020810190915260009052610b01565b600054610100900460ff166124e95760405162461bcd60e51b815260040161087790614139565b610d8b81612de0565b600054610100900460ff166125195760405162461bcd60e51b815260040161087790614139565b565b600054610100900460ff166125425760405162461bcd60e51b815260040161087790614139565b612519612e10565b612552612e43565b60c9805460ff191660011790557f62e78cea01bee320cd4e420270b5ea74000d11b0c9f74754ebdbfc544b05a2586123063390565b6001600160a01b0384166125e75760405162461bcd60e51b815260206004820152602160248201527f455243313135353a206d696e7420746f20746865207a65726f206164647265736044820152607360f81b6064820152608401610877565b3360006125f385612e89565b9050600061260085612e89565b905061261183600089858589612b65565b60008681526065602090815260408083206001600160a01b038b16845290915281208054879290612643908490613f6a565b909155505060408051878152602081018790526001600160a01b03808a1692600092918716917fc3d58168c5ae7397731d063d5bbf3d657854427343f4c083240f7aacaa2d0f62910160405180910390a46126a383600089898989612ed4565b50505050505050565b816001600160a01b0316836001600160a01b03160361271f5760405162461bcd60e51b815260206004820152602960248201527f455243313135353a2073657474696e6720617070726f76616c20737461747573604482015268103337b91039b2b63360b91b6064820152608401610877565b6001600160a01b03838116600081815260666020908152604080832094871680845294825291829020805460ff191686151590811790915591519182527f17307eab39ab6107e8899845ad3d59bd9653f200f220920489ca2b5937696c31910160405180910390a3505050565b6001600160a01b0384166127b25760405162461bcd60e51b815260040161087790613fdc565b3360006127be85612e89565b905060006127cb85612e89565b90506127db838989858589612b65565b60008681526065602090815260408083206001600160a01b038c1684529091529020548581101561281e5760405162461bcd60e51b815260040161087790614021565b60008781526065602090815260408083206001600160a01b038d8116855292528083208985039055908a1682528120805488929061285d908490613f6a565b909155505060408051888152602081018890526001600160a01b03808b16928c821692918816917fc3d58168c5ae7397731d063d5bbf3d657854427343f4c083240f7aacaa2d0f62910160405180910390a46128bd848a8a8a8a8a612ed4565b505050505050505050565b6001600160a01b0383166128ee5760405162461bcd60e51b8152600401610877906140b2565b3360006128fa84612e89565b9050600061290784612e89565b905061292783876000858560405180602001604052806000815250612b65565b60008581526065602090815260408083206001600160a01b038a1684529091529020548481101561296a5760405162461bcd60e51b8152600401610877906140f5565b60008681526065602090815260408083206001600160a01b038b81168086529184528285208a8703905582518b81529384018a90529092908816917fc3d58168c5ae7397731d063d5bbf3d657854427343f4c083240f7aacaa2d0f62910160405180910390a46040805160208101909152600090526126a3565b60006001600160e01b03198216636cdb3d1360e11b1480612a1557506001600160e01b031982166303a24d0760e21b145b806108a557506301ffc9a760e01b6001600160e01b03198316146108a5565b612a3e8282611423565b6108e957612a4b81612f8f565b612a56836020612fa1565b604051602001612a67929190614184565b60408051601f198184030181529082905262461bcd60e51b8252610877916004016135f3565b60008072184f03e93ff9f4daa797ed6e38ed64bf6a1f0160401b8310612acc5772184f03e93ff9f4daa797ed6e38ed64bf6a1f0160401b830492506040015b6d04ee2d6d415b85acef81000000008310612af8576d04ee2d6d415b85acef8100000000830492506020015b662386f26fc100008310612b1657662386f26fc10000830492506010015b6305f5e1008310612b2e576305f5e100830492506008015b6127108310612b4257612710830492506004015b60648310612b54576064830492506002015b600a83106108a55760010192915050565b612b6d612e43565b612047868686868686613143565b6001600160a01b0384163b156120475760405163bc197c8160e01b81526001600160a01b0385169063bc197c8190612bbf90899089908890889088906004016141f9565b6020604051808303816000875af1925050508015612bfa575060408051601f3d908101601f19168201909252612bf791810190614257565b60015b612ca657612c06614274565b806308c379a003612c3f5750612c1a61428f565b80612c255750612c41565b8060405162461bcd60e51b815260040161087791906135f3565b505b60405162461bcd60e51b815260206004820152603460248201527f455243313135353a207472616e7366657220746f206e6f6e2d455243313135356044820152732932b1b2b4bb32b91034b6b83632b6b2b73a32b960611b6064820152608401610877565b6001600160e01b0319811663bc197c8160e01b146126a35760405162461bcd60e51b815260040161087790614318565b6001600160a01b0381163b612d435760405162461bcd60e51b815260206004820152602d60248201527f455243313936373a206e657720696d706c656d656e746174696f6e206973206e60448201526c1bdd08184818dbdb9d1c9858dd609a1b6064820152608401610877565b6000805160206143ce83398151915280546001600160a01b0319166001600160a01b0392909216919091179055565b612d7b836132bf565b600082511180612d885750805b15610c3057610b0183836132ff565b60c95460ff166125195760405162461bcd60e51b815260206004820152601460248201527314185d5cd8589b194e881b9bdd081c185d5cd95960621b6044820152606401610877565b600054610100900460ff16612e075760405162461bcd60e51b815260040161087790614139565b610d8b81611d70565b600054610100900460ff16612e375760405162461bcd60e51b815260040161087790614139565b60c9805460ff19169055565b60c95460ff16156125195760405162461bcd60e51b815260206004820152601060248201526f14185d5cd8589b194e881c185d5cd95960821b6044820152606401610877565b60408051600180825281830190925260609160009190602080830190803683370190505090508281600081518110612ec357612ec3613e4f565b602090810291909101015292915050565b6001600160a01b0384163b156120475760405163f23a6e6160e01b81526001600160a01b0385169063f23a6e6190612f189089908990889088908890600401614360565b6020604051808303816000875af1925050508015612f53575060408051601f3d908101601f19168201909252612f5091810190614257565b60015b612f5f57612c06614274565b6001600160e01b0319811663f23a6e6160e01b146126a35760405162461bcd60e51b815260040161087790614318565b60606108a56001600160a01b03831660145b60606000612fb0836002613f7d565b612fbb906002613f6a565b6001600160401b03811115612fd257612fd26134a1565b6040519080825280601f01601f191660200182016040528015612ffc576020820181803683370190505b509050600360fc1b8160008151811061301757613017613e4f565b60200101906001600160f81b031916908160001a905350600f60fb1b8160018151811061304657613046613e4f565b60200101906001600160f81b031916908160001a905350600061306a846002613f7d565b613075906001613f6a565b90505b60018111156130ed576f181899199a1a9b1b9c1cb0b131b232b360811b85600f16601081106130a9576130a9613e4f565b1a60f81b8282815181106130bf576130bf613e4f565b60200101906001600160f81b031916908160001a90535060049490941c936130e68161439a565b9050613078565b50831561313c5760405162461bcd60e51b815260206004820181905260248201527f537472696e67733a20686578206c656e67746820696e73756666696369656e746044820152606401610877565b9392505050565b6001600160a01b0385166131cb5760005b83518110156131c95782818151811061316f5761316f613e4f565b602002602001015161012d600086848151811061318e5761318e613e4f565b6020026020010151815260200190815260200160002060008282546131b39190613f6a565b909155506131c2905081613d1c565b9050613154565b505b6001600160a01b0384166120475760005b83518110156126a35760008482815181106131f9576131f9613e4f565b60200260200101519050600084838151811061321757613217613e4f565b60200260200101519050600061012d60008481526020019081526020016000205490508181101561329b5760405162461bcd60e51b815260206004820152602860248201527f455243313135353a206275726e20616d6f756e74206578636565647320746f74604482015267616c537570706c7960c01b6064820152608401610877565b600092835261012d6020526040909220910390556132b881613d1c565b90506131dc565b6132c881612cd6565b6040516001600160a01b038216907fbc7cd75a20ee27fd9adebab32041f755214dbc6bffa90cc0225b39da2e5c2d3b90600090a250565b606061313c83836040518060600160405280602781526020016143ee602791396060600080856001600160a01b03168560405161333c91906143b1565b600060405180830381855af49150503d8060008114613377576040519150601f19603f3d011682016040523d82523d6000602084013e61337c565b606091505b509150915061338d86838387613397565b9695505050505050565b606083156134065782516000036133ff576001600160a01b0385163b6133ff5760405162461bcd60e51b815260206004820152601d60248201527f416464726573733a2063616c6c20746f206e6f6e2d636f6e74726163740000006044820152606401610877565b5081613410565b6134108383613418565b949350505050565b815115612c255781518083602001fd5b80356001600160a01b038116811461343f57600080fd5b919050565b6000806040838503121561345757600080fd5b61346083613428565b946020939093013593505050565b6001600160e01b031981168114610d8b57600080fd5b60006020828403121561349657600080fd5b813561313c8161346e565b634e487b7160e01b600052604160045260246000fd5b601f8201601f191681016001600160401b03811182821017156134dc576134dc6134a1565b6040525050565b600082601f8301126134f457600080fd5b81356001600160401b0381111561350d5761350d6134a1565b604051613524601f8301601f1916602001826134b7565b81815284602083860101111561353957600080fd5b816020850160208301376000918101602001919091529392505050565b60006020828403121561356857600080fd5b81356001600160401b0381111561357e57600080fd5b613410848285016134e3565b60006020828403121561359c57600080fd5b5035919050565b60005b838110156135be5781810151838201526020016135a6565b50506000910152565b600081518084526135df8160208601602086016135a3565b601f01601f19169290920160200192915050565b60208152600061313c60208301846135c7565b634e487b7160e01b600052602160045260246000fd5b6004811061363a57634e487b7160e01b600052602160045260246000fd5b9052565b613648818761361c565b84602082015283604082015260018060a01b038316606082015260a06080820152600061367860a08301846135c7565b979650505050505050565b60006001600160401b0382111561369c5761369c6134a1565b5060051b60200190565b600082601f8301126136b757600080fd5b813560206136c482613683565b6040516136d182826134b7565b83815260059390931b85018201928281019150868411156136f157600080fd5b8286015b8481101561370c57803583529183019183016136f5565b509695505050505050565b600080600080600060a0868803121561372f57600080fd5b61373886613428565b945061374660208701613428565b935060408601356001600160401b038082111561376257600080fd5b61376e89838a016136a6565b9450606088013591508082111561378457600080fd5b61379089838a016136a6565b935060808801359150808211156137a657600080fd5b506137b3888289016134e3565b9150509295509295909350565b600080604083850312156137d357600080fd5b823591506137e360208401613428565b90509250929050565b6000602082840312156137fe57600080fd5b61313c82613428565b6000806040838503121561381a57600080fd5b82356001600160401b038082111561383157600080fd5b818501915085601f83011261384557600080fd5b8135602061385282613683565b60405161385f82826134b7565b83815260059390931b850182019282810191508984111561387f57600080fd5b948201945b838610156138a45761389586613428565b82529482019490820190613884565b965050860135925050808211156138ba57600080fd5b506138c7858286016136a6565b9150509250929050565b600081518084526020808501945080840160005b83811015613901578151875295820195908201906001016138e5565b509495945050505050565b60208152600061313c60208301846138d1565b6000806040838503121561393257600080fd5b61393b83613428565b915060208301356001600160401b0381111561395657600080fd5b6138c7858286016134e3565b60008060006060848603121561397757600080fd5b61398084613428565b925060208401356001600160401b038082111561399c57600080fd5b6139a8878388016136a6565b935060408601359150808211156139be57600080fd5b506139cb868287016136a6565b9150509250925092565b600080604083850312156139e857600080fd5b8235915060208301356001600160401b0381111561395657600080fd5b60008060008060808587031215613a1b57600080fd5b84359350613a2b60208601613428565b9250613a3960408601613428565b915060608501356001600160401b03811115613a5457600080fd5b613a60878288016134e3565b91505092959194509250565b60008060008060808587031215613a8257600080fd5b8435935060208501359250613a3960408601613428565b60008060408385031215613aac57600080fd5b613ab583613428565b915060208301358015158114613aca57600080fd5b809150509250929050565b60006020808301818452808551808352604092508286019150828160051b87010184880160005b83811015613b3d57888303603f1901855281518051878552613b20888601826135c7565b918901519489019490945294870194925090860190600101613afc565b509098975050505050505050565b60008060408385031215613b5e57600080fd5b50508035926020909101359150565b60006020808301818452808551808352604092508286019150828160051b87010184880160005b83811015613b3d57603f19898403018552815160a0613bb485835161361c565b81890151858a015287820151888601526060808301516001600160a01b031690860152608091820151918501819052613bef818601836135c7565b968901969450505090860190600101613b94565b60008060408385031215613c1657600080fd5b613c1f83613428565b91506137e360208401613428565b600080600080600060a08688031215613c4557600080fd5b613c4e86613428565b9450613c5c60208701613428565b9350604086013592506060860135915060808601356001600160401b03811115613c8557600080fd5b6137b3888289016134e3565b600080600060608486031215613ca657600080fd5b613caf84613428565b95602085013595506040909401359392505050565b60008351613cd68184602088016135a3565b835190830190613cea8183602088016135a3565b01949350505050565b634e487b7160e01b600052601160045260246000fd5b818103818111156108a5576108a5613cf3565b600060018201613d2e57613d2e613cf3565b5060010190565b600181811c90821680613d4957607f821691505b602082108103611b2357634e487b7160e01b600052602260045260246000fd5b6020808252602e908201527f455243313135353a2063616c6c6572206973206e6f7420746f6b656e206f776e60408201526d195c881bdc88185c1c1c9bdd995960921b606082015260800190565b6020808252602c908201527f46756e6374696f6e206d7573742062652063616c6c6564207468726f7567682060408201526b19195b1959d85d1958d85b1b60a21b606082015260800190565b6020808252602c908201527f46756e6374696f6e206d7573742062652063616c6c6564207468726f7567682060408201526b6163746976652070726f787960a01b606082015260800190565b634e487b7160e01b600052603260045260246000fd5b601f821115610c3057600081815260208120601f850160051c81016020861015613e8c5750805b601f850160051c820191505b8181101561204757828155600101613e98565b81516001600160401b03811115613ec457613ec46134a1565b613ed881613ed28454613d35565b84613e65565b602080601f831160018114613f0d5760008415613ef55750858301515b600019600386901b1c1916600185901b178555612047565b600085815260208120601f198616915b82811015613f3c57888601518255948401946001909101908401613f1d565b5085821015613f5a5787850151600019600388901b60f8161c191681555b5050505050600190811b01905550565b808201808211156108a5576108a5613cf3565b80820281158282048414176108a5576108a5613cf3565b60208082526028908201527f455243313135353a2069647320616e6420616d6f756e7473206c656e677468206040820152670dad2e6dac2e8c6d60c31b606082015260800190565b60208082526025908201527f455243313135353a207472616e7366657220746f20746865207a65726f206164604082015264647265737360d81b606082015260800190565b6020808252602a908201527f455243313135353a20696e73756666696369656e742062616c616e636520666f60408201526939103a3930b739b332b960b11b606082015260800190565b60408152600061407e60408301856138d1565b828103602084015261409081856138d1565b95945050505050565b6000602082840312156140ab57600080fd5b5051919050565b60208082526023908201527f455243313135353a206275726e2066726f6d20746865207a65726f206164647260408201526265737360e81b606082015260800190565b60208082526024908201527f455243313135353a206275726e20616d6f756e7420657863656564732062616c604082015263616e636560e01b606082015260800190565b6020808252602b908201527f496e697469616c697a61626c653a20636f6e7472616374206973206e6f74206960408201526a6e697469616c697a696e6760a81b606082015260800190565b7f416363657373436f6e74726f6c3a206163636f756e74200000000000000000008152600083516141bc8160178501602088016135a3565b7001034b99036b4b9b9b4b733903937b6329607d1b60179184019182015283516141ed8160288401602088016135a3565b01602801949350505050565b6001600160a01b0386811682528516602082015260a060408201819052600090614225908301866138d1565b828103606084015261423781866138d1565b9050828103608084015261424b81856135c7565b98975050505050505050565b60006020828403121561426957600080fd5b815161313c8161346e565b600060033d11156110665760046000803e5060005160e01c90565b600060443d101561429d5790565b6040516003193d81016004833e81513d6001600160401b0381602484011181841117156142cc57505050505090565b82850191508151818111156142e45750505050505090565b843d87010160208285010111156142fe5750505050505090565b61430d602082860101876134b7565b509095945050505050565b60208082526028908201527f455243313135353a204552433131353552656365697665722072656a656374656040820152676420746f6b656e7360c01b606082015260800190565b6001600160a01b03868116825285166020820152604081018490526060810183905260a060808201819052600090613678908301846135c7565b6000816143a9576143a9613cf3565b506000190190565b600082516143c38184602087016135a3565b919091019291505056fe360894a13ba1a3210667c828492db98dca3e2076cc3735a920a3ca505d382bbc416464726573733a206c6f772d6c6576656c2064656c65676174652063616c6c206661696c656468747470733a2f2f72616461726c61756e63682e6170702f6170692f6d65746164617461a26469706673582212202c58386478f1d74d7245bd57a52ebeb9885eeb68eb1546a267accf33902dc98b64736f6c63430008130033",
  "linkReferences": {},
  "deployedLinkReferences": {}
}