{
  "_format": "hh-sol-artifact-1",
  "contractName": "RadarEditions",
  "sourceName": "src/RadarEditions.sol",
  "abi": [
    {
      "inputs": [],
      "stateMutability": "nonpayable",
      "type": "constructor"
    },
    {
      "inputs": [],
      "name": "EditionFeeExceedsMaximumFee",
      "type": "error"
    },
    {
      "inputs": [],
      "name": "EditionNotCreated",
      "type": "error"
    },
    {
      "inputs": [],
      "name": "EditionNotEnoughBalance",
      "type": "error"
    },
    {
      "inputs": [],
      "name": "EditionNotLaunched",
      "type": "error"
    },
    {
      "inputs": [],
      "name": "EditionNotStopped",
      "type": "error"
    },
    {
      "inputs": [],
      "name": "NotEditionOwner",
      "type": "error"
    },
    {
      "inputs": [],
      "name": "NotEnoughFunds",
      "type": "error"
    },
    {
      "inputs": [],
      "name": "TransactionFailed",
      "type": "error"
    },
    {
      "anonymous": false,
      "inputs": [
        {
          "indexed": false,
          "internalType": "address",
          "name": "previousAdmin",
          "type": "address"
        },
        {
          "indexed": false,
          "internalType": "address",
          "name": "newAdmin",
          "type": "address"
        }
      ],
      "name": "AdminChanged",
      "type": "event"
    },
    {
      "anonymous": false,
      "inputs": [
        {
          "indexed": true,
          "internalType": "address",
          "name": "account",
          "type": "address"
        },
        {
          "indexed": true,
          "internalType": "address",
          "name": "operator",
          "type": "address"
        },
        {
          "indexed": false,
          "internalType": "bool",
          "name": "approved",
          "type": "bool"
        }
      ],
      "name": "ApprovalForAll",
      "type": "event"
    },
    {
      "anonymous": false,
      "inputs": [
        {
          "indexed": true,
          "internalType": "address",
          "name": "beacon",
          "type": "address"
        }
      ],
      "name": "BeaconUpgraded",
      "type": "event"
    },
    {
      "anonymous": false,
      "inputs": [
        {
          "indexed": false,
          "internalType": "uint256",
          "name": "editionId",
          "type": "uint256"
        }
      ],
      "name": "EditionApproved",
      "type": "event"
    },
    {
      "anonymous": false,
      "inputs": [
        {
          "indexed": false,
          "internalType": "uint256",
          "name": "editionId",
          "type": "uint256"
        },
        {
          "indexed": false,
          "internalType": "uint256",
          "name": "amount",
          "type": "uint256"
        },
        {
          "indexed": false,
          "internalType": "address",
          "name": "owner",
          "type": "address"
        }
      ],
      "name": "EditionBalanceWithdrawn",
      "type": "event"
    },
    {
      "anonymous": false,
      "inputs": [
        {
          "indexed": false,
          "internalType": "uint256",
          "name": "editionId",
          "type": "uint256"
        },
        {
          "indexed": false,
          "internalType": "uint256",
          "name": "fee",
          "type": "uint256"
        },
        {
          "indexed": false,
          "internalType": "address",
          "name": "owner",
          "type": "address"
        }
      ],
      "name": "EditionCreated",
      "type": "event"
    },
    {
      "anonymous": false,
      "inputs": [
        {
          "indexed": false,
          "internalType": "uint256",
          "name": "editionId",
          "type": "uint256"
        }
      ],
      "name": "EditionResumed",
      "type": "event"
    },
    {
      "anonymous": false,
      "inputs": [
        {
          "indexed": false,
          "internalType": "uint256",
          "name": "editionId",
          "type": "uint256"
        }
      ],
      "name": "EditionStopped",
      "type": "event"
    },
    {
      "anonymous": false,
      "inputs": [
        {
          "indexed": false,
          "internalType": "uint8",
          "name": "version",
          "type": "uint8"
        }
      ],
      "name": "Initialized",
      "type": "event"
    },
    {
      "anonymous": false,
      "inputs": [
        {
          "indexed": false,
          "internalType": "address",
          "name": "account",
          "type": "address"
        }
      ],
      "name": "Paused",
      "type": "event"
    },
    {
      "anonymous": false,
      "inputs": [
        {
          "indexed": true,
          "internalType": "bytes32",
          "name": "role",
          "type": "bytes32"
        },
        {
          "indexed": true,
          "internalType": "bytes32",
          "name": "previousAdminRole",
          "type": "bytes32"
        },
        {
          "indexed": true,
          "internalType": "bytes32",
          "name": "newAdminRole",
          "type": "bytes32"
        }
      ],
      "name": "RoleAdminChanged",
      "type": "event"
    },
    {
      "anonymous": false,
      "inputs": [
        {
          "indexed": true,
          "internalType": "bytes32",
          "name": "role",
          "type": "bytes32"
        },
        {
          "indexed": true,
          "internalType": "address",
          "name": "account",
          "type": "address"
        },
        {
          "indexed": true,
          "internalType": "address",
          "name": "sender",
          "type": "address"
        }
      ],
      "name": "RoleGranted",
      "type": "event"
    },
    {
      "anonymous": false,
      "inputs": [
        {
          "indexed": true,
          "internalType": "bytes32",
          "name": "role",
          "type": "bytes32"
        },
        {
          "indexed": true,
          "internalType": "address",
          "name": "account",
          "type": "address"
        },
        {
          "indexed": true,
          "internalType": "address",
          "name": "sender",
          "type": "address"
        }
      ],
      "name": "RoleRevoked",
      "type": "event"
    },
    {
      "anonymous": false,
      "inputs": [
        {
          "indexed": true,
          "internalType": "address",
          "name": "operator",
          "type": "address"
        },
        {
          "indexed": true,
          "internalType": "address",
          "name": "from",
          "type": "address"
        },
        {
          "indexed": true,
          "internalType": "address",
          "name": "to",
          "type": "address"
        },
        {
          "indexed": false,
          "internalType": "uint256[]",
          "name": "ids",
          "type": "uint256[]"
        },
        {
          "indexed": false,
          "internalType": "uint256[]",
          "name": "values",
          "type": "uint256[]"
        }
      ],
      "name": "TransferBatch",
      "type": "event"
    },
    {
      "anonymous": false,
      "inputs": [
        {
          "indexed": true,
          "internalType": "address",
          "name": "operator",
          "type": "address"
        },
        {
          "indexed": true,
          "internalType": "address",
          "name": "from",
          "type": "address"
        },
        {
          "indexed": true,
          "internalType": "address",
          "name": "to",
          "type": "address"
        },
        {
          "indexed": false,
          "internalType": "uint256",
          "name": "id",
          "type": "uint256"
        },
        {
          "indexed": false,
          "internalType": "uint256",
          "name": "value",
          "type": "uint256"
        }
      ],
      "name": "TransferSingle",
      "type": "event"
    },
    {
      "anonymous": false,
      "inputs": [
        {
          "indexed": false,
          "internalType": "string",
          "name": "value",
          "type": "string"
        },
        {
          "indexed": true,
          "internalType": "uint256",
          "name": "id",
          "type": "uint256"
        }
      ],
      "name": "URI",
      "type": "event"
    },
    {
      "anonymous": false,
      "inputs": [
        {
          "indexed": false,
          "internalType": "address",
          "name": "account",
          "type": "address"
        }
      ],
      "name": "Unpaused",
      "type": "event"
    },
    {
      "anonymous": false,
      "inputs": [
        {
          "indexed": true,
          "internalType": "address",
          "name": "implementation",
          "type": "address"
        }
      ],
      "name": "Upgraded",
      "type": "event"
    },
    {
      "stateMutability": "payable",
      "type": "fallback"
    },
    {
      "inputs": [],
      "name": "DEFAULT_ADMIN_ROLE",
      "outputs": [
        {
          "internalType": "bytes32",
          "name": "",
          "type": "bytes32"
        }
      ],
      "stateMutability": "view",
      "type": "function"
    },
    {
      "inputs": [
        {
          "internalType": "uint256",
          "name": "editionId",
          "type": "uint256"
        }
      ],
      "name": "approveEdition",
      "outputs": [],
      "stateMutability": "nonpayable",
      "type": "function"
    },
    {
      "inputs": [
        {
          "internalType": "address",
          "name": "account",
          "type": "address"
        },
        {
          "internalType": "uint256",
          "name": "id",
          "type": "uint256"
        }
      ],
      "name": "balanceOf",
      "outputs": [
        {
          "internalType": "uint256",
          "name": "",
          "type": "uint256"
        }
      ],
      "stateMutability": "view",
      "type": "function"
    },
    {
      "inputs": [
        {
          "internalType": "address[]",
          "name": "accounts",
          "type": "address[]"
        },
        {
          "internalType": "uint256[]",
          "name": "ids",
          "type": "uint256[]"
        }
      ],
      "name": "balanceOfBatch",
      "outputs": [
        {
          "internalType": "uint256[]",
          "name": "",
          "type": "uint256[]"
        }
      ],
      "stateMutability": "view",
      "type": "function"
    },
    {
      "inputs": [
        {
          "internalType": "address",
          "name": "account",
          "type": "address"
        },
        {
          "internalType": "uint256",
          "name": "id",
          "type": "uint256"
        },
        {
          "internalType": "uint256",
          "name": "value",
          "type": "uint256"
        }
      ],
      "name": "burn",
      "outputs": [],
      "stateMutability": "nonpayable",
      "type": "function"
    },
    {
      "inputs": [
        {
          "internalType": "address",
          "name": "account",
          "type": "address"
        },
        {
          "internalType": "uint256[]",
          "name": "ids",
          "type": "uint256[]"
        },
        {
          "internalType": "uint256[]",
          "name": "values",
          "type": "uint256[]"
        }
      ],
      "name": "burnBatch",
      "outputs": [],
      "stateMutability": "nonpayable",
      "type": "function"
    },
    {
      "inputs": [],
      "name": "contractURI",
      "outputs": [
        {
          "internalType": "string",
          "name": "",
          "type": "string"
        }
      ],
      "stateMutability": "view",
      "type": "function"
    },
    {
      "inputs": [
        {
          "internalType": "uint256",
          "name": "fee",
          "type": "uint256"
        },
        {
          "internalType": "address",
          "name": "owner",
          "type": "address"
        },
        {
          "internalType": "address",
          "name": "payer",
          "type": "address"
        },
        {
          "internalType": "string",
          "name": "id",
          "type": "string"
        }
      ],
      "name": "createEdition",
      "outputs": [
        {
          "internalType": "uint256",
          "name": "editionId",
          "type": "uint256"
        }
      ],
      "stateMutability": "nonpayable",
      "type": "function"
    },
    {
      "inputs": [],
      "name": "editionCounter",
      "outputs": [
        {
          "internalType": "uint256",
          "name": "",
          "type": "uint256"
        }
      ],
      "stateMutability": "view",
      "type": "function"
    },
    {
      "inputs": [
        {
          "internalType": "uint256",
          "name": "",
          "type": "uint256"
        }
      ],
      "name": "editions",
      "outputs": [
        {
          "internalType": "enum EditionsStructs.EditionStatus",
          "name": "status",
          "type": "uint8"
        },
        {
          "internalType": "uint256",
          "name": "fee",
          "type": "uint256"
        },
        {
          "internalType": "uint256",
          "name": "balance",
          "type": "uint256"
        },
        {
          "internalType": "address",
          "name": "owner",
          "type": "address"
        },
        {
          "internalType": "string",
          "name": "id",
          "type": "string"
        }
      ],
      "stateMutability": "view",
      "type": "function"
    },
    {
      "inputs": [
        {
          "internalType": "uint256",
          "name": "id",
          "type": "uint256"
        }
      ],
      "name": "exists",
      "outputs": [
        {
          "internalType": "bool",
          "name": "",
          "type": "bool"
        }
      ],
      "stateMutability": "view",
      "type": "function"
    },
    {
      "inputs": [
        {
          "internalType": "address",
          "name": "owner",
          "type": "address"
        }
      ],
      "name": "getBalances",
      "outputs": [
        {
          "components": [
            {
              "internalType": "string",
              "name": "id",
              "type": "string"
            },
            {
              "internalType": "uint256",
              "name": "amount",
              "type": "uint256"
            }
          ],
          "internalType": "struct EditionsStructs.EditionIdWithAmount[]",
          "name": "",
          "type": "tuple[]"
        }
      ],
      "stateMutability": "view",
      "type": "function"
    },
    {
      "inputs": [],
      "name": "getEditions",
      "outputs": [
        {
          "components": [
            {
              "internalType": "enum EditionsStructs.EditionStatus",
              "name": "status",
              "type": "uint8"
            },
            {
              "internalType": "uint256",
              "name": "fee",
              "type": "uint256"
            },
            {
              "internalType": "uint256",
              "name": "balance",
              "type": "uint256"
            },
            {
              "internalType": "address",
              "name": "owner",
              "type": "address"
            },
            {
              "internalType": "string",
              "name": "id",
              "type": "string"
            }
          ],
          "internalType": "struct EditionsStructs.Edition[]",
          "name": "",
          "type": "tuple[]"
        }
      ],
      "stateMutability": "view",
      "type": "function"
    },
    {
      "inputs": [
        {
          "internalType": "bytes32",
          "name": "role",
          "type": "bytes32"
        }
      ],
      "name": "getRoleAdmin",
      "outputs": [
        {
          "internalType": "bytes32",
          "name": "",
          "type": "bytes32"
        }
      ],
      "stateMutability": "view",
      "type": "function"
    },
    {
      "inputs": [
        {
          "internalType": "bytes32",
          "name": "role",
          "type": "bytes32"
        },
        {
          "internalType": "address",
          "name": "account",
          "type": "address"
        }
      ],
      "name": "grantRole",
      "outputs": [],
      "stateMutability": "nonpayable",
      "type": "function"
    },
    {
      "inputs": [
        {
          "internalType": "bytes32",
          "name": "role",
          "type": "bytes32"
        },
        {
          "internalType": "address",
          "name": "account",
          "type": "address"
        }
      ],
      "name": "hasRole",
      "outputs": [
        {
          "internalType": "bool",
          "name": "",
          "type": "bool"
        }
      ],
      "stateMutability": "view",
      "type": "function"
    },
    {
      "inputs": [],
      "name": "initialize",
      "outputs": [],
      "stateMutability": "nonpayable",
      "type": "function"
    },
    {
      "inputs": [
        {
          "internalType": "address",
          "name": "account",
          "type": "address"
        },
        {
          "internalType": "address",
          "name": "operator",
          "type": "address"
        }
      ],
      "name": "isApprovedForAll",
      "outputs": [
        {
          "internalType": "bool",
          "name": "",
          "type": "bool"
        }
      ],
      "stateMutability": "view",
      "type": "function"
    },
    {
      "inputs": [],
      "name": "maximumEditionFee",
      "outputs": [
        {
          "internalType": "uint256",
          "name": "",
          "type": "uint256"
        }
      ],
      "stateMutability": "view",
      "type": "function"
    },
    {
      "inputs": [
        {
          "internalType": "uint256",
          "name": "editionId",
          "type": "uint256"
        },
        {
          "internalType": "uint256",
          "name": "amount",
          "type": "uint256"
        },
        {
          "internalType": "address",
          "name": "buyer",
          "type": "address"
        },
        {
          "internalType": "bytes",
          "name": "data",
          "type": "bytes"
        }
      ],
      "name": "mintEdition",
      "outputs": [],
      "stateMutability": "payable",
      "type": "function"
    },
    {
      "inputs": [],
      "name": "pause",
      "outputs": [],
      "stateMutability": "nonpayable",
      "type": "function"
    },
    {
      "inputs": [],
      "name": "paused",
      "outputs": [
        {
          "internalType": "bool",
          "name": "",
          "type": "bool"
        }
      ],
      "stateMutability": "view",
      "type": "function"
    },
    {
      "inputs": [],
      "name": "protocolFee",
      "outputs": [
        {
          "internalType": "uint256",
          "name": "",
          "type": "uint256"
        }
      ],
      "stateMutability": "view",
      "type": "function"
    },
    {
      "inputs": [],
      "name": "proxiableUUID",
      "outputs": [
        {
          "internalType": "bytes32",
          "name": "",
          "type": "bytes32"
        }
      ],
      "stateMutability": "view",
      "type": "function"
    },
    {
      "inputs": [
        {
          "internalType": "bytes32",
          "name": "role",
          "type": "bytes32"
        },
        {
          "internalType": "address",
          "name": "account",
          "type": "address"
        }
      ],
      "name": "renounceRole",
      "outputs": [],
      "stateMutability": "nonpayable",
      "type": "function"
    },
    {
      "inputs": [
        {
          "internalType": "uint256",
          "name": "editionId",
          "type": "uint256"
        }
      ],
      "name": "resumeEdition",
      "outputs": [],
      "stateMutability": "nonpayable",
      "type": "function"
    },
    {
      "inputs": [
        {
          "internalType": "bytes32",
          "name": "role",
          "type": "bytes32"
        },
        {
          "internalType": "address",
          "name": "account",
          "type": "address"
        }
      ],
      "name": "revokeRole",
      "outputs": [],
      "stateMutability": "nonpayable",
      "type": "function"
    },
    {
      "inputs": [
        {
          "internalType": "address",
          "name": "from",
          "type": "address"
        },
        {
          "internalType": "address",
          "name": "to",
          "type": "address"
        },
        {
          "internalType": "uint256[]",
          "name": "ids",
          "type": "uint256[]"
        },
        {
          "internalType": "uint256[]",
          "name": "amounts",
          "type": "uint256[]"
        },
        {
          "internalType": "bytes",
          "name": "data",
          "type": "bytes"
        }
      ],
      "name": "safeBatchTransferFrom",
      "outputs": [],
      "stateMutability": "nonpayable",
      "type": "function"
    },
    {
      "inputs": [
        {
          "internalType": "address",
          "name": "from",
          "type": "address"
        },
        {
          "internalType": "address",
          "name": "to",
          "type": "address"
        },
        {
          "internalType": "uint256",
          "name": "id",
          "type": "uint256"
        },
        {
          "internalType": "uint256",
          "name": "amount",
          "type": "uint256"
        },
        {
          "internalType": "bytes",
          "name": "data",
          "type": "bytes"
        }
      ],
      "name": "safeTransferFrom",
      "outputs": [],
      "stateMutability": "nonpayable",
      "type": "function"
    },
    {
      "inputs": [
        {
          "internalType": "address",
          "name": "operator",
          "type": "address"
        },
        {
          "internalType": "bool",
          "name": "approved",
          "type": "bool"
        }
      ],
      "name": "setApprovalForAll",
      "outputs": [],
      "stateMutability": "nonpayable",
      "type": "function"
    },
    {
      "inputs": [
        {
          "internalType": "uint256",
          "name": "_maximumEditionFee",
          "type": "uint256"
        }
      ],
      "name": "setMaximumEditionFee",
      "outputs": [],
      "stateMutability": "nonpayable",
      "type": "function"
    },
    {
      "inputs": [
        {
          "internalType": "uint256",
          "name": "_protocolFee",
          "type": "uint256"
        }
      ],
      "name": "setProtocolFee",
      "outputs": [],
      "stateMutability": "nonpayable",
      "type": "function"
    },
    {
      "inputs": [
        {
          "internalType": "string",
          "name": "newuri",
          "type": "string"
        }
      ],
      "name": "setURI",
      "outputs": [],
      "stateMutability": "nonpayable",
      "type": "function"
    },
    {
      "inputs": [
        {
          "internalType": "uint256",
          "name": "editionId",
          "type": "uint256"
        }
      ],
      "name": "stopEdition",
      "outputs": [],
      "stateMutability": "nonpayable",
      "type": "function"
    },
    {
      "inputs": [
        {
          "internalType": "bytes4",
          "name": "interfaceId",
          "type": "bytes4"
        }
      ],
      "name": "supportsInterface",
      "outputs": [
        {
          "internalType": "bool",
          "name": "",
          "type": "bool"
        }
      ],
      "stateMutability": "view",
      "type": "function"
    },
    {
      "inputs": [
        {
          "internalType": "uint256",
          "name": "id",
          "type": "uint256"
        }
      ],
      "name": "totalSupply",
      "outputs": [
        {
          "internalType": "uint256",
          "name": "",
          "type": "uint256"
        }
      ],
      "stateMutability": "view",
      "type": "function"
    },
    {
      "inputs": [],
      "name": "unpause",
      "outputs": [],
      "stateMutability": "nonpayable",
      "type": "function"
    },
    {
      "inputs": [
        {
          "internalType": "address",
          "name": "newImplementation",
          "type": "address"
        }
      ],
      "name": "upgradeTo",
      "outputs": [],
      "stateMutability": "nonpayable",
      "type": "function"
    },
    {
      "inputs": [
        {
          "internalType": "address",
          "name": "newImplementation",
          "type": "address"
        },
        {
          "internalType": "bytes",
          "name": "data",
          "type": "bytes"
        }
      ],
      "name": "upgradeToAndCall",
      "outputs": [],
      "stateMutability": "payable",
      "type": "function"
    },
    {
      "inputs": [
        {
          "internalType": "uint256",
          "name": "id",
          "type": "uint256"
        }
      ],
      "name": "uri",
      "outputs": [
        {
          "internalType": "string",
          "name": "",
          "type": "string"
        }
      ],
      "stateMutability": "view",
      "type": "function"
    },
    {
      "inputs": [
        {
          "internalType": "uint256",
          "name": "editionId",
          "type": "uint256"
        },
        {
          "internalType": "uint256",
          "name": "amount",
          "type": "uint256"
        }
      ],
      "name": "withdrawEditionBalance",
      "outputs": [],
      "stateMutability": "nonpayable",
      "type": "function"
    },
    {
      "inputs": [
        {
          "internalType": "uint256",
          "name": "amount",
          "type": "uint256"
        }
      ],
      "name": "withdrawFunds",
      "outputs": [],
      "stateMutability": "nonpayable",
      "type": "function"
    },
    {
      "stateMutability": "payable",
      "type": "receive"
    }
  ],
  "bytecode": "0x60a0604052306080523480156200001557600080fd5b506200002062000026565b620000e7565b600054610100900460ff1615620000935760405162461bcd60e51b815260206004820152602760248201527f496e697469616c697a61626c653a20636f6e747261637420697320696e697469604482015266616c697a696e6760c81b606482015260840160405180910390fd5b60005460ff90811614620000e5576000805460ff191660ff9081179091556040519081527f7f26b83ff96e1f2b6a682f133852f6798a09c465da95921460cefb38474024989060200160405180910390a15b565b6080516141f56200011f60003960008181610bc901528181610c0901528181610e0301528181610e430152610ed201526141f56000f3fe60806040526004361061023c5760003560e01c8063787dce3d1161012d578063bd85b039116100b0578063df6efc6c11610077578063df6efc6c146106da578063e8a3d485146106fc578063e985e9c514610711578063f242432a1461075a578063f5298aca1461077a578063fc74efa21461079a57005b8063bd85b03914610628578063c6fbb71214610656578063c84aae171461066d578063d547741f1461069a578063d667c9ce146106ba57005b806391fc02f1116100f457806391fc02f1146105a9578063940123da146105c9578063a217fddf146105dc578063a22cb465146105f1578063b0e21e8a1461061157005b8063787dce3d1461051f5780637cc749411461053f5780638129fc1c1461055f5780638456cb591461057457806391d148541461058957005b806336568abe116101c05780634f558e79116101875780634f558e791461046b57806352d1902d1461049b5780635c975abb146104b05780636b20c454146104c85780636b5cb789146104e85780637357628c146104ff57005b806336568abe146103d65780633659cfe6146103f65780633f4ba83a146104165780634e1273f41461042b5780634f1ef2861461045857005b8063155dd5ee11610204578063155dd5ee14610315578063248a9ca314610335578063279c806e146103655780632eb2c2d6146103965780632f2ff15d146103b657005b8062fdd58e1461024557806301ffc9a71461027857806302fe5305146102a85780630a579eca146102c85780630e89341c146102e857005b3661024357005b005b34801561025157600080fd5b506102656102603660046131fb565b6107ba565b6040519081526020015b60405180910390f35b34801561028457600080fd5b5061029861029336600461323b565b610855565b604051901515815260200161026f565b3480156102b457600080fd5b506102436102c336600461330d565b610860565b3480156102d457600080fd5b506102436102e3366004613341565b610897565b3480156102f457600080fd5b50610308610303366004613341565b610968565b60405161026f91906133aa565b34801561032157600080fd5b50610243610330366004613341565b6109a3565b34801561034157600080fd5b50610265610350366004613341565b60009081526097602052604090206001015490565b34801561037157600080fd5b50610385610380366004613341565b610a1c565b60405161026f9594939291906133f5565b3480156103a257600080fd5b506102436103b13660046134ce565b610ae4565b3480156103c257600080fd5b506102436103d1366004613577565b610b30565b3480156103e257600080fd5b506102436103f1366004613577565b610b45565b34801561040257600080fd5b506102436104113660046135a3565b610bbf565b34801561042257600080fd5b50610243610c9e565b34801561043757600080fd5b5061044b6104463660046135be565b610cd0565b60405161026f91906136c3565b6102436104663660046136d6565b610df9565b34801561047757600080fd5b50610298610486366004613341565b600090815261012d6020526040902054151590565b3480156104a757600080fd5b50610265610ec5565b3480156104bc57600080fd5b5060c95460ff16610298565b3480156104d457600080fd5b506102436104e3366004613719565b610f79565b3480156104f457600080fd5b506102656101c65481565b34801561050b57600080fd5b5061024361051a366004613341565b610fbc565b34801561052b57600080fd5b5061024361053a366004613341565b61105d565b34801561054b57600080fd5b5061024361055a366004613341565b61106f565b34801561056b57600080fd5b50610243611081565b34801561058057600080fd5b5061024361124c565b34801561059557600080fd5b506102986105a4366004613577565b61127e565b3480156105b557600080fd5b506102656105c436600461378c565b6112a9565b6102436105d73660046137f3565b6113f1565b3480156105e857600080fd5b50610265600081565b3480156105fd57600080fd5b5061024361060c366004613820565b6114d2565b34801561061d57600080fd5b506102656101c35481565b34801561063457600080fd5b50610265610643366004613341565b600090815261012d602052604090205490565b34801561066257600080fd5b506102656101c55481565b34801561067957600080fd5b5061068d6106883660046135a3565b6114dd565b60405161026f919061385c565b3480156106a657600080fd5b506102436106b5366004613577565b611647565b3480156106c657600080fd5b506102436106d53660046138d2565b61166c565b3480156106e657600080fd5b506106ef6117ae565b60405161026f91906138f4565b34801561070857600080fd5b50610308611984565b34801561071d57600080fd5b5061029861072c36600461398a565b6001600160a01b03918216600090815260666020908152604080832093909416825291909152205460ff1690565b34801561076657600080fd5b506102436107753660046139b4565b6119a4565b34801561078657600080fd5b50610243610795366004613a18565b6119e9565b3480156107a657600080fd5b506102436107b5366004613341565b611a2c565b60006001600160a01b03831661082a5760405162461bcd60e51b815260206004820152602a60248201527f455243313135353a2061646472657373207a65726f206973206e6f742061207660448201526930b634b21037bbb732b960b11b60648201526084015b60405180910390fd5b5060008181526065602090815260408083206001600160a01b03861684529091529020545b92915050565b600061084f82611af6565b7f7804d923f43a17d325d77e781528e0793b2edd9890ab45fc64efd7b4b427744c61088a81611b1b565b61089382611b25565b5050565b60008181526101c460205260409020600301546001600160a01b031633146108d25760405163388f811f60e01b815260040160405180910390fd5b600260008281526101c4602052604090205460ff1660038111156108f8576108f86133bd565b1461091657604051631f0fb6fd60e11b815260040160405180910390fd5b60008181526101c46020908152604091829020805460ff1916600317905590518281527f591913f977ab242c5871f116f36be231ff67df5e8e0bac1efd91fa8a723aca2b91015b60405180910390a150565b606061097382611b31565b61097c83611bc5565b60405160200161098d929190613a4b565b6040516020818303038152906040529050919050565b60006109ae81611b1b565b604051600090339084908381818185875af1925050503d80600081146109f0576040519150601f19603f3d011682016040523d82523d6000602084013e6109f5565b606091505b5050905080610a17576040516317f2c34560e31b815260040160405180910390fd5b505050565b6101c4602052600090815260409020805460018201546002830154600384015460048501805460ff90951695939492936001600160a01b0390921692610a6190613a7a565b80601f0160208091040260200160405190810160405280929190818152602001828054610a8d90613a7a565b8015610ada5780601f10610aaf57610100808354040283529160200191610ada565b820191906000526020600020905b815481529060010190602001808311610abd57829003601f168201915b5050505050905085565b6001600160a01b038516331480610b005750610b00853361072c565b610b1c5760405162461bcd60e51b815260040161082190613aae565b610b298585858585611c57565b5050505050565b6000610b3b81611b1b565b610a178383611e04565b6001600160a01b0381163314610bb55760405162461bcd60e51b815260206004820152602f60248201527f416363657373436f6e74726f6c3a2063616e206f6e6c792072656e6f756e636560448201526e103937b632b9903337b91039b2b63360891b6064820152608401610821565b6108938282611e8a565b6001600160a01b037f0000000000000000000000000000000000000000000000000000000000000000163003610c075760405162461bcd60e51b815260040161082190613afc565b7f00000000000000000000000000000000000000000000000000000000000000006001600160a01b0316610c50600080516020614155833981519152546001600160a01b031690565b6001600160a01b031614610c765760405162461bcd60e51b815260040161082190613b48565b610c7f81611ef1565b60408051600080825260208201909252610c9b91839190611f1b565b50565b7f65d7a28e3265b37a6474929f336521b332c1681b933f6cb9f3376673440d862a610cc881611b1b565b610c9b612086565b60608151835114610d355760405162461bcd60e51b815260206004820152602960248201527f455243313135353a206163636f756e747320616e6420696473206c656e677468604482015268040dad2e6dac2e8c6d60bb1b6064820152608401610821565b600083516001600160401b03811115610d5057610d50613258565b604051908082528060200260200182016040528015610d79578160200160208202803683370190505b50905060005b8451811015610df157610dc4858281518110610d9d57610d9d613b94565b6020026020010151858381518110610db757610db7613b94565b60200260200101516107ba565b828281518110610dd657610dd6613b94565b6020908102919091010152610dea81613bc0565b9050610d7f565b509392505050565b6001600160a01b037f0000000000000000000000000000000000000000000000000000000000000000163003610e415760405162461bcd60e51b815260040161082190613afc565b7f00000000000000000000000000000000000000000000000000000000000000006001600160a01b0316610e8a600080516020614155833981519152546001600160a01b031690565b6001600160a01b031614610eb05760405162461bcd60e51b815260040161082190613b48565b610eb982611ef1565b61089382826001611f1b565b6000306001600160a01b037f00000000000000000000000000000000000000000000000000000000000000001614610f655760405162461bcd60e51b815260206004820152603860248201527f555550535570677261646561626c653a206d757374206e6f742062652063616c60448201527f6c6564207468726f7567682064656c656761746563616c6c00000000000000006064820152608401610821565b506000805160206141558339815191525b90565b6001600160a01b038316331480610f955750610f95833361072c565b610fb15760405162461bcd60e51b815260040161082190613aae565b610a178383836120d8565b6000610fc781611b1b565b600160008381526101c4602052604090205460ff166003811115610fed57610fed6133bd565b1461100b5760405163137c9c1f60e31b815260040160405180910390fd5b60008281526101c46020908152604091829020805460ff1916600217905590518381527f8f4352ac8b4aefdd2333162306bbe09dd4f4ff6661e89ccc4e4dcced8794e8f7910160405180910390a15050565b600061106881611b1b565b506101c355565b600061107a81611b1b565b506101c655565b600054610100900460ff16158080156110a15750600054600160ff909116105b806110bb5750303b1580156110bb575060005460ff166001145b61111e5760405162461bcd60e51b815260206004820152602e60248201527f496e697469616c697a61626c653a20636f6e747261637420697320616c72656160448201526d191e481a5b9a5d1a585b1a5e995960921b6064820152608401610821565b6000805460ff191660011790558015611141576000805461ff0019166101001790555b61115960405180602001604052806000815250612279565b6111616122a9565b6111696122d2565b6111716122a9565b6111796122a9565b6111816122a9565b61118c600033611e04565b6111b67f7804d923f43a17d325d77e781528e0793b2edd9890ab45fc64efd7b4b427744c33611e04565b6111e07f65d7a28e3265b37a6474929f336521b332c1681b933f6cb9f3376673440d862a33611e04565b61120a7f189ab7a9244df0848122154315af71fe140f3db0fe014031783b0946b8c9d2e333611e04565b8015610c9b576000805461ff0019169055604051600181527f7f26b83ff96e1f2b6a682f133852f6798a09c465da95921460cefb38474024989060200161095d565b7f65d7a28e3265b37a6474929f336521b332c1681b933f6cb9f3376673440d862a61127681611b1b565b610c9b612301565b60009182526097602090815260408084206001600160a01b0393909316845291905290205460ff1690565b60006101c6548511156112cf57604051630f0c4c5f60e41b815260040160405180910390fd5b506101c5546040805160a0810190915280600181526020808201889052600060408084018290526001600160a01b038916606085015260809093018690528481526101c49091522081518154829060ff19166001836003811115611335576113356133bd565b0217905550602082015160018201556040820151600282015560608201516003820180546001600160a01b0319166001600160a01b03909216919091179055608082015160048201906113889082613c1f565b50506101c580549150600061139c83613bc0565b909155505060408051828152602081018790526001600160a01b0386168183015290517f7fe7f72f14a53255f3c9e225ab1d40fdb21335b87a7912726a196fb816866ae09181900360600190a1949350505050565b600260008581526101c4602052604090205460ff166003811115611417576114176133bd565b1461143557604051631f0fb6fd60e11b815260040160405180910390fd5b6101c35460008581526101c46020526040902060010154849161145791613cde565b6114619190613cf1565b34101561148157604051631036b5ad60e31b815260040160405180910390fd5b61148d8285858461233e565b6101c35461149b9084613cf1565b6114a59034613d08565b60008581526101c46020526040812060020180549091906114c7908490613cde565b909155505050505050565b610893338383612463565b606060006101c5546001600160401b038111156114fc576114fc613258565b60405190808252806020026020018201604052801561154257816020015b60408051808201909152606081526000602082015281526020019060019003908161151a5790505b50905060005b6101c5548110156116405760405180604001604052806101c46000848152602001908152602001600020600401805461158090613a7a565b80601f01602080910402602001604051908101604052809291908181526020018280546115ac90613a7a565b80156115f95780601f106115ce576101008083540402835291602001916115f9565b820191906000526020600020905b8154815290600101906020018083116115dc57829003601f168201915b5050505050815260200161160d86846107ba565b81525082828151811061162257611622613b94565b6020026020010181905250808061163890613bc0565b915050611548565b5092915050565b60008281526097602052604090206001015461166281611b1b565b610a178383611e8a565b60008281526101c460205260409020600301546001600160a01b031633146116a75760405163388f811f60e01b815260040160405180910390fd5b60008281526101c460205260409020600201548111156116da57604051637eafab7d60e01b815260040160405180910390fd5b604051600090339083908381818185875af1925050503d806000811461171c576040519150601f19603f3d011682016040523d82523d6000602084013e611721565b606091505b5050905080611743576040516317f2c34560e31b815260040160405180910390fd5b60008381526101c4602052604081206002018054849290611765908490613d08565b90915550506040805184815260208101849052338183015290517ff1090e9d5138cd4909542e10e1da576730b07eb291a71a151e63160dde345b949181900360600190a1505050565b606060006101c5546001600160401b038111156117cd576117cd613258565b60405190808252806020026020018201604052801561183a57816020015b6118276040805160a081019091528060008152602001600081526020016000815260200160006001600160a01b03168152602001606081525090565b8152602001906001900390816117eb5790505b50905060005b6101c55481101561197e5760008181526101c4602052604090819020815160a081019092528054829060ff16600381111561187d5761187d6133bd565b600381111561188e5761188e6133bd565b8152600182015460208201526002820154604082015260038201546001600160a01b031660608201526004820180546080909201916118cc90613a7a565b80601f01602080910402602001604051908101604052809291908181526020018280546118f890613a7a565b80156119455780601f1061191a57610100808354040283529160200191611945565b820191906000526020600020905b81548152906001019060200180831161192857829003601f168201915b50505050508152505082828151811061196057611960613b94565b6020026020010181905250808061197690613bc0565b915050611840565b50919050565b606060405180606001604052806024815260200161419c60249139905090565b6001600160a01b0385163314806119c057506119c0853361072c565b6119dc5760405162461bcd60e51b815260040161082190613aae565b610b298585858585612543565b6001600160a01b038316331480611a055750611a05833361072c565b611a215760405162461bcd60e51b815260040161082190613aae565b610a1783838361267f565b60008181526101c460205260409020600301546001600160a01b03163314611a675760405163388f811f60e01b815260040160405180910390fd5b600360008281526101c4602052604090205460ff166003811115611a8d57611a8d6133bd565b14611aab5760405163968807a560e01b815260040160405180910390fd5b60008181526101c46020908152604091829020805460ff1916600217905590518281527f63bb17c9645a29322601b4fe88d8f3fa84f32229368294f903084be8f5d813ba910161095d565b60006001600160e01b03198216637965db0b60e01b148061084f575061084f8261279b565b610c9b81336127eb565b60676108938282613c1f565b606060678054611b4090613a7a565b80601f0160208091040260200160405190810160405280929190818152602001828054611b6c90613a7a565b8015611bb95780601f10611b8e57610100808354040283529160200191611bb9565b820191906000526020600020905b815481529060010190602001808311611b9c57829003601f168201915b50505050509050919050565b60606000611bd283612844565b60010190506000816001600160401b03811115611bf157611bf1613258565b6040519080825280601f01601f191660200182016040528015611c1b576020820181803683370190505b5090508181016020015b600019016f181899199a1a9b1b9c1cb0b131b232b360811b600a86061a8153600a8504945084611c2557509392505050565b8151835114611c785760405162461bcd60e51b815260040161082190613d1b565b6001600160a01b038416611c9e5760405162461bcd60e51b815260040161082190613d63565b33611cad81878787878761291c565b60005b8451811015611d96576000858281518110611ccd57611ccd613b94565b602002602001015190506000858381518110611ceb57611ceb613b94565b60209081029190910181015160008481526065835260408082206001600160a01b038e168352909352919091205490915081811015611d3c5760405162461bcd60e51b815260040161082190613da8565b60008381526065602090815260408083206001600160a01b038e8116855292528083208585039055908b16825281208054849290611d7b908490613cde565b9250508190555050505080611d8f90613bc0565b9050611cb0565b50846001600160a01b0316866001600160a01b0316826001600160a01b03167f4a39dc06d4c0dbc64b70af90fd698a233a518aa5d07e595d983b8c0526c8f7fb8787604051611de6929190613df2565b60405180910390a4611dfc818787878787612932565b505050505050565b611e0e828261127e565b6108935760008281526097602090815260408083206001600160a01b03851684529091529020805460ff19166001179055611e463390565b6001600160a01b0316816001600160a01b0316837f2f8788117e7eff1d82e926ec794901d17c78024a50270940304540a733656f0d60405160405180910390a45050565b611e94828261127e565b156108935760008281526097602090815260408083206001600160a01b0385168085529252808320805460ff1916905551339285917ff6391f5c32d9c69d2a47ea670b442974b53935d1edc7fd64eb21e047a839171b9190a45050565b7f189ab7a9244df0848122154315af71fe140f3db0fe014031783b0946b8c9d2e361089381611b1b565b7f4910fdfa16fed3260ed0e7147f7cc6da11a60208b5b9406d12a635614ffd91435460ff1615611f4e57610a1783612a8d565b826001600160a01b03166352d1902d6040518163ffffffff1660e01b8152600401602060405180830381865afa925050508015611fa8575060408051601f3d908101601f19168201909252611fa591810190613e20565b60015b61200b5760405162461bcd60e51b815260206004820152602e60248201527f45524331393637557067726164653a206e657720696d706c656d656e7461746960448201526d6f6e206973206e6f74205555505360901b6064820152608401610821565b600080516020614155833981519152811461207a5760405162461bcd60e51b815260206004820152602960248201527f45524331393637557067726164653a20756e737570706f727465642070726f786044820152681a58589b195555525160ba1b6064820152608401610821565b50610a17838383612b29565b61208e612b4e565b60c9805460ff191690557f5db9ee0a495bf2e6ff9c91a7834c1ba4fdd244a5e8aa4e537bd38aeae4b073aa335b6040516001600160a01b03909116815260200160405180910390a1565b6001600160a01b0383166120fe5760405162461bcd60e51b815260040161082190613e39565b805182511461211f5760405162461bcd60e51b815260040161082190613d1b565b60003390506121428185600086866040518060200160405280600081525061291c565b60005b835181101561220a57600084828151811061216257612162613b94565b60200260200101519050600084838151811061218057612180613b94565b60209081029190910181015160008481526065835260408082206001600160a01b038c1683529093529190912054909150818110156121d15760405162461bcd60e51b815260040161082190613e7c565b60009283526065602090815260408085206001600160a01b038b168652909152909220910390558061220281613bc0565b915050612145565b5060006001600160a01b0316846001600160a01b0316826001600160a01b03167f4a39dc06d4c0dbc64b70af90fd698a233a518aa5d07e595d983b8c0526c8f7fb868660405161225b929190613df2565b60405180910390a46040805160208101909152600090525b50505050565b600054610100900460ff166122a05760405162461bcd60e51b815260040161082190613ec0565b610c9b81612b97565b600054610100900460ff166122d05760405162461bcd60e51b815260040161082190613ec0565b565b600054610100900460ff166122f95760405162461bcd60e51b815260040161082190613ec0565b6122d0612bc7565b612309612bfa565b60c9805460ff191660011790557f62e78cea01bee320cd4e420270b5ea74000d11b0c9f74754ebdbfc544b05a2586120bb3390565b6001600160a01b03841661239e5760405162461bcd60e51b815260206004820152602160248201527f455243313135353a206d696e7420746f20746865207a65726f206164647265736044820152607360f81b6064820152608401610821565b3360006123aa85612c40565b905060006123b785612c40565b90506123c88360008985858961291c565b60008681526065602090815260408083206001600160a01b038b168452909152812080548792906123fa908490613cde565b909155505060408051878152602081018790526001600160a01b03808a1692600092918716917fc3d58168c5ae7397731d063d5bbf3d657854427343f4c083240f7aacaa2d0f62910160405180910390a461245a83600089898989612c8b565b50505050505050565b816001600160a01b0316836001600160a01b0316036124d65760405162461bcd60e51b815260206004820152602960248201527f455243313135353a2073657474696e6720617070726f76616c20737461747573604482015268103337b91039b2b63360b91b6064820152608401610821565b6001600160a01b03838116600081815260666020908152604080832094871680845294825291829020805460ff191686151590811790915591519182527f17307eab39ab6107e8899845ad3d59bd9653f200f220920489ca2b5937696c31910160405180910390a3505050565b6001600160a01b0384166125695760405162461bcd60e51b815260040161082190613d63565b33600061257585612c40565b9050600061258285612c40565b905061259283898985858961291c565b60008681526065602090815260408083206001600160a01b038c168452909152902054858110156125d55760405162461bcd60e51b815260040161082190613da8565b60008781526065602090815260408083206001600160a01b038d8116855292528083208985039055908a16825281208054889290612614908490613cde565b909155505060408051888152602081018890526001600160a01b03808b16928c821692918816917fc3d58168c5ae7397731d063d5bbf3d657854427343f4c083240f7aacaa2d0f62910160405180910390a4612674848a8a8a8a8a612c8b565b505050505050505050565b6001600160a01b0383166126a55760405162461bcd60e51b815260040161082190613e39565b3360006126b184612c40565b905060006126be84612c40565b90506126de8387600085856040518060200160405280600081525061291c565b60008581526065602090815260408083206001600160a01b038a168452909152902054848110156127215760405162461bcd60e51b815260040161082190613e7c565b60008681526065602090815260408083206001600160a01b038b81168086529184528285208a8703905582518b81529384018a90529092908816917fc3d58168c5ae7397731d063d5bbf3d657854427343f4c083240f7aacaa2d0f62910160405180910390a460408051602081019091526000905261245a565b60006001600160e01b03198216636cdb3d1360e11b14806127cc57506001600160e01b031982166303a24d0760e21b145b8061084f57506301ffc9a760e01b6001600160e01b031983161461084f565b6127f5828261127e565b6108935761280281612d46565b61280d836020612d58565b60405160200161281e929190613f0b565b60408051601f198184030181529082905262461bcd60e51b8252610821916004016133aa565b60008072184f03e93ff9f4daa797ed6e38ed64bf6a1f0160401b83106128835772184f03e93ff9f4daa797ed6e38ed64bf6a1f0160401b830492506040015b6d04ee2d6d415b85acef810000000083106128af576d04ee2d6d415b85acef8100000000830492506020015b662386f26fc1000083106128cd57662386f26fc10000830492506010015b6305f5e10083106128e5576305f5e100830492506008015b61271083106128f957612710830492506004015b6064831061290b576064830492506002015b600a831061084f5760010192915050565b612924612bfa565b611dfc868686868686612efa565b6001600160a01b0384163b15611dfc5760405163bc197c8160e01b81526001600160a01b0385169063bc197c81906129769089908990889088908890600401613f80565b6020604051808303816000875af19250505080156129b1575060408051601f3d908101601f191682019092526129ae91810190613fde565b60015b612a5d576129bd613ffb565b806308c379a0036129f657506129d1614016565b806129dc57506129f8565b8060405162461bcd60e51b815260040161082191906133aa565b505b60405162461bcd60e51b815260206004820152603460248201527f455243313135353a207472616e7366657220746f206e6f6e2d455243313135356044820152732932b1b2b4bb32b91034b6b83632b6b2b73a32b960611b6064820152608401610821565b6001600160e01b0319811663bc197c8160e01b1461245a5760405162461bcd60e51b81526004016108219061409f565b6001600160a01b0381163b612afa5760405162461bcd60e51b815260206004820152602d60248201527f455243313936373a206e657720696d706c656d656e746174696f6e206973206e60448201526c1bdd08184818dbdb9d1c9858dd609a1b6064820152608401610821565b60008051602061415583398151915280546001600160a01b0319166001600160a01b0392909216919091179055565b612b3283613076565b600082511180612b3f5750805b15610a175761227383836130b6565b60c95460ff166122d05760405162461bcd60e51b815260206004820152601460248201527314185d5cd8589b194e881b9bdd081c185d5cd95960621b6044820152606401610821565b600054610100900460ff16612bbe5760405162461bcd60e51b815260040161082190613ec0565b610c9b81611b25565b600054610100900460ff16612bee5760405162461bcd60e51b815260040161082190613ec0565b60c9805460ff19169055565b60c95460ff16156122d05760405162461bcd60e51b815260206004820152601060248201526f14185d5cd8589b194e881c185d5cd95960821b6044820152606401610821565b60408051600180825281830190925260609160009190602080830190803683370190505090508281600081518110612c7a57612c7a613b94565b602090810291909101015292915050565b6001600160a01b0384163b15611dfc5760405163f23a6e6160e01b81526001600160a01b0385169063f23a6e6190612ccf90899089908890889088906004016140e7565b6020604051808303816000875af1925050508015612d0a575060408051601f3d908101601f19168201909252612d0791810190613fde565b60015b612d16576129bd613ffb565b6001600160e01b0319811663f23a6e6160e01b1461245a5760405162461bcd60e51b81526004016108219061409f565b606061084f6001600160a01b03831660145b60606000612d67836002613cf1565b612d72906002613cde565b6001600160401b03811115612d8957612d89613258565b6040519080825280601f01601f191660200182016040528015612db3576020820181803683370190505b509050600360fc1b81600081518110612dce57612dce613b94565b60200101906001600160f81b031916908160001a905350600f60fb1b81600181518110612dfd57612dfd613b94565b60200101906001600160f81b031916908160001a9053506000612e21846002613cf1565b612e2c906001613cde565b90505b6001811115612ea4576f181899199a1a9b1b9c1cb0b131b232b360811b85600f1660108110612e6057612e60613b94565b1a60f81b828281518110612e7657612e76613b94565b60200101906001600160f81b031916908160001a90535060049490941c93612e9d81614121565b9050612e2f565b508315612ef35760405162461bcd60e51b815260206004820181905260248201527f537472696e67733a20686578206c656e67746820696e73756666696369656e746044820152606401610821565b9392505050565b6001600160a01b038516612f825760005b8351811015612f8057828181518110612f2657612f26613b94565b602002602001015161012d6000868481518110612f4557612f45613b94565b602002602001015181526020019081526020016000206000828254612f6a9190613cde565b90915550612f79905081613bc0565b9050612f0b565b505b6001600160a01b038416611dfc5760005b835181101561245a576000848281518110612fb057612fb0613b94565b602002602001015190506000848381518110612fce57612fce613b94565b60200260200101519050600061012d6000848152602001908152602001600020549050818110156130525760405162461bcd60e51b815260206004820152602860248201527f455243313135353a206275726e20616d6f756e74206578636565647320746f74604482015267616c537570706c7960c01b6064820152608401610821565b600092835261012d60205260409092209103905561306f81613bc0565b9050612f93565b61307f81612a8d565b6040516001600160a01b038216907fbc7cd75a20ee27fd9adebab32041f755214dbc6bffa90cc0225b39da2e5c2d3b90600090a250565b6060612ef38383604051806060016040528060278152602001614175602791396060600080856001600160a01b0316856040516130f39190614138565b600060405180830381855af49150503d806000811461312e576040519150601f19603f3d011682016040523d82523d6000602084013e613133565b606091505b50915091506131448683838761314e565b9695505050505050565b606083156131bd5782516000036131b6576001600160a01b0385163b6131b65760405162461bcd60e51b815260206004820152601d60248201527f416464726573733a2063616c6c20746f206e6f6e2d636f6e74726163740000006044820152606401610821565b50816131c7565b6131c783836131cf565b949350505050565b8151156129dc5781518083602001fd5b80356001600160a01b03811681146131f657600080fd5b919050565b6000806040838503121561320e57600080fd5b613217836131df565b946020939093013593505050565b6001600160e01b031981168114610c9b57600080fd5b60006020828403121561324d57600080fd5b8135612ef381613225565b634e487b7160e01b600052604160045260246000fd5b601f8201601f191681016001600160401b038111828210171561329357613293613258565b6040525050565b600082601f8301126132ab57600080fd5b81356001600160401b038111156132c4576132c4613258565b6040516132db601f8301601f19166020018261326e565b8181528460208386010111156132f057600080fd5b816020850160208301376000918101602001919091529392505050565b60006020828403121561331f57600080fd5b81356001600160401b0381111561333557600080fd5b6131c78482850161329a565b60006020828403121561335357600080fd5b5035919050565b60005b8381101561337557818101518382015260200161335d565b50506000910152565b6000815180845261339681602086016020860161335a565b601f01601f19169290920160200192915050565b602081526000612ef3602083018461337e565b634e487b7160e01b600052602160045260246000fd5b600481106133f157634e487b7160e01b600052602160045260246000fd5b9052565b6133ff81876133d3565b84602082015283604082015260018060a01b038316606082015260a06080820152600061342f60a083018461337e565b979650505050505050565b60006001600160401b0382111561345357613453613258565b5060051b60200190565b600082601f83011261346e57600080fd5b8135602061347b8261343a565b604051613488828261326e565b83815260059390931b85018201928281019150868411156134a857600080fd5b8286015b848110156134c357803583529183019183016134ac565b509695505050505050565b600080600080600060a086880312156134e657600080fd5b6134ef866131df565b94506134fd602087016131df565b935060408601356001600160401b038082111561351957600080fd5b61352589838a0161345d565b9450606088013591508082111561353b57600080fd5b61354789838a0161345d565b9350608088013591508082111561355d57600080fd5b5061356a8882890161329a565b9150509295509295909350565b6000806040838503121561358a57600080fd5b8235915061359a602084016131df565b90509250929050565b6000602082840312156135b557600080fd5b612ef3826131df565b600080604083850312156135d157600080fd5b82356001600160401b03808211156135e857600080fd5b818501915085601f8301126135fc57600080fd5b813560206136098261343a565b604051613616828261326e565b83815260059390931b850182019282810191508984111561363657600080fd5b948201945b8386101561365b5761364c866131df565b8252948201949082019061363b565b9650508601359250508082111561367157600080fd5b5061367e8582860161345d565b9150509250929050565b600081518084526020808501945080840160005b838110156136b85781518752958201959082019060010161369c565b509495945050505050565b602081526000612ef36020830184613688565b600080604083850312156136e957600080fd5b6136f2836131df565b915060208301356001600160401b0381111561370d57600080fd5b61367e8582860161329a565b60008060006060848603121561372e57600080fd5b613737846131df565b925060208401356001600160401b038082111561375357600080fd5b61375f8783880161345d565b9350604086013591508082111561377557600080fd5b506137828682870161345d565b9150509250925092565b600080600080608085870312156137a257600080fd5b843593506137b2602086016131df565b92506137c0604086016131df565b915060608501356001600160401b038111156137db57600080fd5b6137e78782880161329a565b91505092959194509250565b6000806000806080858703121561380957600080fd5b84359350602085013592506137c0604086016131df565b6000806040838503121561383357600080fd5b61383c836131df565b91506020830135801515811461385157600080fd5b809150509250929050565b60006020808301818452808551808352604092508286019150828160051b87010184880160005b838110156138c457888303603f19018552815180518785526138a78886018261337e565b918901519489019490945294870194925090860190600101613883565b509098975050505050505050565b600080604083850312156138e557600080fd5b50508035926020909101359150565b60006020808301818452808551808352604092508286019150828160051b87010184880160005b838110156138c457603f19898403018552815160a061393b8583516133d3565b81890151858a015287820151888601526060808301516001600160a01b0316908601526080918201519185018190526139768186018361337e565b96890196945050509086019060010161391b565b6000806040838503121561399d57600080fd5b6139a6836131df565b915061359a602084016131df565b600080600080600060a086880312156139cc57600080fd5b6139d5866131df565b94506139e3602087016131df565b9350604086013592506060860135915060808601356001600160401b03811115613a0c57600080fd5b61356a8882890161329a565b600080600060608486031215613a2d57600080fd5b613a36846131df565b95602085013595506040909401359392505050565b60008351613a5d81846020880161335a565b835190830190613a7181836020880161335a565b01949350505050565b600181811c90821680613a8e57607f821691505b60208210810361197e57634e487b7160e01b600052602260045260246000fd5b6020808252602e908201527f455243313135353a2063616c6c6572206973206e6f7420746f6b656e206f776e60408201526d195c881bdc88185c1c1c9bdd995960921b606082015260800190565b6020808252602c908201527f46756e6374696f6e206d7573742062652063616c6c6564207468726f7567682060408201526b19195b1959d85d1958d85b1b60a21b606082015260800190565b6020808252602c908201527f46756e6374696f6e206d7573742062652063616c6c6564207468726f7567682060408201526b6163746976652070726f787960a01b606082015260800190565b634e487b7160e01b600052603260045260246000fd5b634e487b7160e01b600052601160045260246000fd5b600060018201613bd257613bd2613baa565b5060010190565b601f821115610a1757600081815260208120601f850160051c81016020861015613c005750805b601f850160051c820191505b81811015611dfc57828155600101613c0c565b81516001600160401b03811115613c3857613c38613258565b613c4c81613c468454613a7a565b84613bd9565b602080601f831160018114613c815760008415613c695750858301515b600019600386901b1c1916600185901b178555611dfc565b600085815260208120601f198616915b82811015613cb057888601518255948401946001909101908401613c91565b5085821015613cce5787850151600019600388901b60f8161c191681555b5050505050600190811b01905550565b8082018082111561084f5761084f613baa565b808202811582820484141761084f5761084f613baa565b8181038181111561084f5761084f613baa565b60208082526028908201527f455243313135353a2069647320616e6420616d6f756e7473206c656e677468206040820152670dad2e6dac2e8c6d60c31b606082015260800190565b60208082526025908201527f455243313135353a207472616e7366657220746f20746865207a65726f206164604082015264647265737360d81b606082015260800190565b6020808252602a908201527f455243313135353a20696e73756666696369656e742062616c616e636520666f60408201526939103a3930b739b332b960b11b606082015260800190565b604081526000613e056040830185613688565b8281036020840152613e178185613688565b95945050505050565b600060208284031215613e3257600080fd5b5051919050565b60208082526023908201527f455243313135353a206275726e2066726f6d20746865207a65726f206164647260408201526265737360e81b606082015260800190565b60208082526024908201527f455243313135353a206275726e20616d6f756e7420657863656564732062616c604082015263616e636560e01b606082015260800190565b6020808252602b908201527f496e697469616c697a61626c653a20636f6e7472616374206973206e6f74206960408201526a6e697469616c697a696e6760a81b606082015260800190565b7f416363657373436f6e74726f6c3a206163636f756e7420000000000000000000815260008351613f4381601785016020880161335a565b7001034b99036b4b9b9b4b733903937b6329607d1b6017918401918201528351613f7481602884016020880161335a565b01602801949350505050565b6001600160a01b0386811682528516602082015260a060408201819052600090613fac90830186613688565b8281036060840152613fbe8186613688565b90508281036080840152613fd2818561337e565b98975050505050505050565b600060208284031215613ff057600080fd5b8151612ef381613225565b600060033d1115610f765760046000803e5060005160e01c90565b600060443d10156140245790565b6040516003193d81016004833e81513d6001600160401b03816024840111818411171561405357505050505090565b828501915081518181111561406b5750505050505090565b843d87010160208285010111156140855750505050505090565b6140946020828601018761326e565b509095945050505050565b60208082526028908201527f455243313135353a204552433131353552656365697665722072656a656374656040820152676420746f6b656e7360c01b606082015260800190565b6001600160a01b03868116825285166020820152604081018490526060810183905260a06080820181905260009061342f9083018461337e565b60008161413057614130613baa565b506000190190565b6000825161414a81846020870161335a565b919091019291505056fe360894a13ba1a3210667c828492db98dca3e2076cc3735a920a3ca505d382bbc416464726573733a206c6f772d6c6576656c2064656c65676174652063616c6c206661696c656468747470733a2f2f72616461726c61756e63682e6170702f6170692f6d65746164617461a2646970667358221220d4c1226ecb57f4cc894216dda3621ea55e08306cf4f361a31af248d26feebdc164736f6c63430008130033",
  "linkReferences": {},
  "deployedLinkReferences": {}
}