{
  "_format": "hh-sol-artifact-1",
  "contractName": "RadarEditions",
  "sourceName": "src/RadarEditions.sol",
  "abi": [
    {
      "inputs": [],
      "stateMutability": "nonpayable",
      "type": "constructor"
    },
    {
      "inputs": [],
      "name": "EditionFeeExceedsMaximumFee",
      "type": "error"
    },
    {
      "inputs": [],
      "name": "EditionNotCreated",
      "type": "error"
    },
    {
      "inputs": [],
      "name": "EditionNotEnoughBalance",
      "type": "error"
    },
    {
      "inputs": [],
      "name": "EditionNotLaunched",
      "type": "error"
    },
    {
      "inputs": [],
      "name": "EditionNotStopped",
      "type": "error"
    },
    {
      "inputs": [],
      "name": "NotCorrectUser",
      "type": "error"
    },
    {
      "inputs": [],
      "name": "NotEditionOwner",
      "type": "error"
    },
    {
      "inputs": [],
      "name": "NotEnoughFees",
      "type": "error"
    },
    {
      "inputs": [],
      "name": "NotEnoughFunds",
      "type": "error"
    },
    {
      "inputs": [],
      "name": "TransactionFailed",
      "type": "error"
    },
    {
      "anonymous": false,
      "inputs": [
        {
          "indexed": false,
          "internalType": "address",
          "name": "previousAdmin",
          "type": "address"
        },
        {
          "indexed": false,
          "internalType": "address",
          "name": "newAdmin",
          "type": "address"
        }
      ],
      "name": "AdminChanged",
      "type": "event"
    },
    {
      "anonymous": false,
      "inputs": [
        {
          "indexed": true,
          "internalType": "address",
          "name": "account",
          "type": "address"
        },
        {
          "indexed": true,
          "internalType": "address",
          "name": "operator",
          "type": "address"
        },
        {
          "indexed": false,
          "internalType": "bool",
          "name": "approved",
          "type": "bool"
        }
      ],
      "name": "ApprovalForAll",
      "type": "event"
    },
    {
      "anonymous": false,
      "inputs": [
        {
          "indexed": true,
          "internalType": "address",
          "name": "beacon",
          "type": "address"
        }
      ],
      "name": "BeaconUpgraded",
      "type": "event"
    },
    {
      "anonymous": false,
      "inputs": [
        {
          "indexed": false,
          "internalType": "uint256",
          "name": "editionId",
          "type": "uint256"
        }
      ],
      "name": "EditionApproved",
      "type": "event"
    },
    {
      "anonymous": false,
      "inputs": [
        {
          "indexed": false,
          "internalType": "uint256",
          "name": "editionId",
          "type": "uint256"
        },
        {
          "indexed": false,
          "internalType": "uint256",
          "name": "amount",
          "type": "uint256"
        },
        {
          "indexed": false,
          "internalType": "address",
          "name": "owner",
          "type": "address"
        }
      ],
      "name": "EditionBalanceWithdrawn",
      "type": "event"
    },
    {
      "anonymous": false,
      "inputs": [
        {
          "indexed": true,
          "internalType": "uint256",
          "name": "editionId",
          "type": "uint256"
        }
      ],
      "name": "EditionBeliefRemoved",
      "type": "event"
    },
    {
      "anonymous": false,
      "inputs": [
        {
          "indexed": true,
          "internalType": "uint256",
          "name": "editionId",
          "type": "uint256"
        },
        {
          "indexed": false,
          "internalType": "string",
          "name": "tags",
          "type": "string"
        }
      ],
      "name": "EditionBelieved",
      "type": "event"
    },
    {
      "anonymous": false,
      "inputs": [
        {
          "indexed": false,
          "internalType": "uint256",
          "name": "editionId",
          "type": "uint256"
        },
        {
          "indexed": false,
          "internalType": "uint256",
          "name": "fee",
          "type": "uint256"
        },
        {
          "indexed": false,
          "internalType": "address",
          "name": "owner",
          "type": "address"
        }
      ],
      "name": "EditionCreated",
      "type": "event"
    },
    {
      "anonymous": false,
      "inputs": [
        {
          "indexed": false,
          "internalType": "uint256",
          "name": "editionId",
          "type": "uint256"
        }
      ],
      "name": "EditionResumed",
      "type": "event"
    },
    {
      "anonymous": false,
      "inputs": [
        {
          "indexed": false,
          "internalType": "uint256",
          "name": "editionId",
          "type": "uint256"
        }
      ],
      "name": "EditionStopped",
      "type": "event"
    },
    {
      "anonymous": false,
      "inputs": [
        {
          "indexed": false,
          "internalType": "uint8",
          "name": "version",
          "type": "uint8"
        }
      ],
      "name": "Initialized",
      "type": "event"
    },
    {
      "anonymous": false,
      "inputs": [
        {
          "indexed": false,
          "internalType": "address",
          "name": "account",
          "type": "address"
        }
      ],
      "name": "Paused",
      "type": "event"
    },
    {
      "anonymous": false,
      "inputs": [
        {
          "indexed": true,
          "internalType": "bytes32",
          "name": "role",
          "type": "bytes32"
        },
        {
          "indexed": true,
          "internalType": "bytes32",
          "name": "previousAdminRole",
          "type": "bytes32"
        },
        {
          "indexed": true,
          "internalType": "bytes32",
          "name": "newAdminRole",
          "type": "bytes32"
        }
      ],
      "name": "RoleAdminChanged",
      "type": "event"
    },
    {
      "anonymous": false,
      "inputs": [
        {
          "indexed": true,
          "internalType": "bytes32",
          "name": "role",
          "type": "bytes32"
        },
        {
          "indexed": true,
          "internalType": "address",
          "name": "account",
          "type": "address"
        },
        {
          "indexed": true,
          "internalType": "address",
          "name": "sender",
          "type": "address"
        }
      ],
      "name": "RoleGranted",
      "type": "event"
    },
    {
      "anonymous": false,
      "inputs": [
        {
          "indexed": true,
          "internalType": "bytes32",
          "name": "role",
          "type": "bytes32"
        },
        {
          "indexed": true,
          "internalType": "address",
          "name": "account",
          "type": "address"
        },
        {
          "indexed": true,
          "internalType": "address",
          "name": "sender",
          "type": "address"
        }
      ],
      "name": "RoleRevoked",
      "type": "event"
    },
    {
      "anonymous": false,
      "inputs": [
        {
          "indexed": true,
          "internalType": "address",
          "name": "operator",
          "type": "address"
        },
        {
          "indexed": true,
          "internalType": "address",
          "name": "from",
          "type": "address"
        },
        {
          "indexed": true,
          "internalType": "address",
          "name": "to",
          "type": "address"
        },
        {
          "indexed": false,
          "internalType": "uint256[]",
          "name": "ids",
          "type": "uint256[]"
        },
        {
          "indexed": false,
          "internalType": "uint256[]",
          "name": "values",
          "type": "uint256[]"
        }
      ],
      "name": "TransferBatch",
      "type": "event"
    },
    {
      "anonymous": false,
      "inputs": [
        {
          "indexed": true,
          "internalType": "address",
          "name": "operator",
          "type": "address"
        },
        {
          "indexed": true,
          "internalType": "address",
          "name": "from",
          "type": "address"
        },
        {
          "indexed": true,
          "internalType": "address",
          "name": "to",
          "type": "address"
        },
        {
          "indexed": false,
          "internalType": "uint256",
          "name": "id",
          "type": "uint256"
        },
        {
          "indexed": false,
          "internalType": "uint256",
          "name": "value",
          "type": "uint256"
        }
      ],
      "name": "TransferSingle",
      "type": "event"
    },
    {
      "anonymous": false,
      "inputs": [
        {
          "indexed": false,
          "internalType": "string",
          "name": "value",
          "type": "string"
        },
        {
          "indexed": true,
          "internalType": "uint256",
          "name": "id",
          "type": "uint256"
        }
      ],
      "name": "URI",
      "type": "event"
    },
    {
      "anonymous": false,
      "inputs": [
        {
          "indexed": false,
          "internalType": "address",
          "name": "account",
          "type": "address"
        }
      ],
      "name": "Unpaused",
      "type": "event"
    },
    {
      "anonymous": false,
      "inputs": [
        {
          "indexed": true,
          "internalType": "address",
          "name": "implementation",
          "type": "address"
        }
      ],
      "name": "Upgraded",
      "type": "event"
    },
    {
      "stateMutability": "payable",
      "type": "fallback"
    },
    {
      "inputs": [],
      "name": "DEFAULT_ADMIN_ROLE",
      "outputs": [
        {
          "internalType": "bytes32",
          "name": "",
          "type": "bytes32"
        }
      ],
      "stateMutability": "view",
      "type": "function"
    },
    {
      "inputs": [
        {
          "internalType": "uint256",
          "name": "editionId",
          "type": "uint256"
        }
      ],
      "name": "approveEdition",
      "outputs": [],
      "stateMutability": "nonpayable",
      "type": "function"
    },
    {
      "inputs": [
        {
          "internalType": "address",
          "name": "account",
          "type": "address"
        },
        {
          "internalType": "uint256",
          "name": "id",
          "type": "uint256"
        }
      ],
      "name": "balanceOf",
      "outputs": [
        {
          "internalType": "uint256",
          "name": "",
          "type": "uint256"
        }
      ],
      "stateMutability": "view",
      "type": "function"
    },
    {
      "inputs": [
        {
          "internalType": "address[]",
          "name": "accounts",
          "type": "address[]"
        },
        {
          "internalType": "uint256[]",
          "name": "ids",
          "type": "uint256[]"
        }
      ],
      "name": "balanceOfBatch",
      "outputs": [
        {
          "internalType": "uint256[]",
          "name": "",
          "type": "uint256[]"
        }
      ],
      "stateMutability": "view",
      "type": "function"
    },
    {
      "inputs": [
        {
          "internalType": "uint256",
          "name": "editionId",
          "type": "uint256"
        },
        {
          "internalType": "string",
          "name": "tags",
          "type": "string"
        }
      ],
      "name": "believeProject",
      "outputs": [],
      "stateMutability": "nonpayable",
      "type": "function"
    },
    {
      "inputs": [
        {
          "internalType": "address",
          "name": "account",
          "type": "address"
        },
        {
          "internalType": "uint256",
          "name": "id",
          "type": "uint256"
        },
        {
          "internalType": "uint256",
          "name": "value",
          "type": "uint256"
        }
      ],
      "name": "burn",
      "outputs": [],
      "stateMutability": "nonpayable",
      "type": "function"
    },
    {
      "inputs": [
        {
          "internalType": "address",
          "name": "account",
          "type": "address"
        },
        {
          "internalType": "uint256[]",
          "name": "ids",
          "type": "uint256[]"
        },
        {
          "internalType": "uint256[]",
          "name": "values",
          "type": "uint256[]"
        }
      ],
      "name": "burnBatch",
      "outputs": [],
      "stateMutability": "nonpayable",
      "type": "function"
    },
    {
      "inputs": [],
      "name": "contractURI",
      "outputs": [
        {
          "internalType": "string",
          "name": "",
          "type": "string"
        }
      ],
      "stateMutability": "view",
      "type": "function"
    },
    {
      "inputs": [
        {
          "internalType": "uint256",
          "name": "fee",
          "type": "uint256"
        },
        {
          "internalType": "address",
          "name": "owner",
          "type": "address"
        },
        {
          "internalType": "address",
          "name": "payer",
          "type": "address"
        },
        {
          "internalType": "string",
          "name": "id",
          "type": "string"
        }
      ],
      "name": "createEdition",
      "outputs": [
        {
          "internalType": "uint256",
          "name": "editionId",
          "type": "uint256"
        }
      ],
      "stateMutability": "nonpayable",
      "type": "function"
    },
    {
      "inputs": [],
      "name": "editionCounter",
      "outputs": [
        {
          "internalType": "uint256",
          "name": "",
          "type": "uint256"
        }
      ],
      "stateMutability": "view",
      "type": "function"
    },
    {
      "inputs": [
        {
          "internalType": "uint256",
          "name": "",
          "type": "uint256"
        }
      ],
      "name": "editions",
      "outputs": [
        {
          "internalType": "enum EditionsStructs.EditionStatus",
          "name": "status",
          "type": "uint8"
        },
        {
          "internalType": "uint256",
          "name": "fee",
          "type": "uint256"
        },
        {
          "internalType": "uint256",
          "name": "balance",
          "type": "uint256"
        },
        {
          "internalType": "address",
          "name": "owner",
          "type": "address"
        },
        {
          "internalType": "string",
          "name": "id",
          "type": "string"
        }
      ],
      "stateMutability": "view",
      "type": "function"
    },
    {
      "inputs": [
        {
          "internalType": "uint256",
          "name": "id",
          "type": "uint256"
        }
      ],
      "name": "exists",
      "outputs": [
        {
          "internalType": "bool",
          "name": "",
          "type": "bool"
        }
      ],
      "stateMutability": "view",
      "type": "function"
    },
    {
      "inputs": [
        {
          "internalType": "address",
          "name": "owner",
          "type": "address"
        }
      ],
      "name": "getBalances",
      "outputs": [
        {
          "components": [
            {
              "internalType": "string",
              "name": "id",
              "type": "string"
            },
            {
              "internalType": "uint256",
              "name": "amount",
              "type": "uint256"
            }
          ],
          "internalType": "struct EditionsStructs.EditionIdWithAmount[]",
          "name": "",
          "type": "tuple[]"
        }
      ],
      "stateMutability": "view",
      "type": "function"
    },
    {
      "inputs": [],
      "name": "getEditions",
      "outputs": [
        {
          "components": [
            {
              "internalType": "enum EditionsStructs.EditionStatus",
              "name": "status",
              "type": "uint8"
            },
            {
              "internalType": "uint256",
              "name": "fee",
              "type": "uint256"
            },
            {
              "internalType": "uint256",
              "name": "balance",
              "type": "uint256"
            },
            {
              "internalType": "address",
              "name": "owner",
              "type": "address"
            },
            {
              "internalType": "string",
              "name": "id",
              "type": "string"
            }
          ],
          "internalType": "struct EditionsStructs.Edition[]",
          "name": "",
          "type": "tuple[]"
        }
      ],
      "stateMutability": "view",
      "type": "function"
    },
    {
      "inputs": [
        {
          "internalType": "bytes32",
          "name": "role",
          "type": "bytes32"
        }
      ],
      "name": "getRoleAdmin",
      "outputs": [
        {
          "internalType": "bytes32",
          "name": "",
          "type": "bytes32"
        }
      ],
      "stateMutability": "view",
      "type": "function"
    },
    {
      "inputs": [
        {
          "internalType": "bytes32",
          "name": "role",
          "type": "bytes32"
        },
        {
          "internalType": "address",
          "name": "account",
          "type": "address"
        }
      ],
      "name": "grantRole",
      "outputs": [],
      "stateMutability": "nonpayable",
      "type": "function"
    },
    {
      "inputs": [
        {
          "internalType": "bytes32",
          "name": "role",
          "type": "bytes32"
        },
        {
          "internalType": "address",
          "name": "account",
          "type": "address"
        }
      ],
      "name": "hasRole",
      "outputs": [
        {
          "internalType": "bool",
          "name": "",
          "type": "bool"
        }
      ],
      "stateMutability": "view",
      "type": "function"
    },
    {
      "inputs": [],
      "name": "initialize",
      "outputs": [],
      "stateMutability": "nonpayable",
      "type": "function"
    },
    {
      "inputs": [
        {
          "internalType": "address",
          "name": "account",
          "type": "address"
        },
        {
          "internalType": "address",
          "name": "operator",
          "type": "address"
        }
      ],
      "name": "isApprovedForAll",
      "outputs": [
        {
          "internalType": "bool",
          "name": "",
          "type": "bool"
        }
      ],
      "stateMutability": "view",
      "type": "function"
    },
    {
      "inputs": [],
      "name": "maximumEditionFee",
      "outputs": [
        {
          "internalType": "uint256",
          "name": "",
          "type": "uint256"
        }
      ],
      "stateMutability": "view",
      "type": "function"
    },
    {
      "inputs": [
        {
          "internalType": "uint256",
          "name": "editionId",
          "type": "uint256"
        },
        {
          "internalType": "uint256",
          "name": "amount",
          "type": "uint256"
        },
        {
          "internalType": "address",
          "name": "buyer",
          "type": "address"
        },
        {
          "internalType": "bytes",
          "name": "data",
          "type": "bytes"
        }
      ],
      "name": "mintEdition",
      "outputs": [],
      "stateMutability": "payable",
      "type": "function"
    },
    {
      "inputs": [],
      "name": "pause",
      "outputs": [],
      "stateMutability": "nonpayable",
      "type": "function"
    },
    {
      "inputs": [],
      "name": "paused",
      "outputs": [
        {
          "internalType": "bool",
          "name": "",
          "type": "bool"
        }
      ],
      "stateMutability": "view",
      "type": "function"
    },
    {
      "inputs": [],
      "name": "protocolFee",
      "outputs": [
        {
          "internalType": "uint256",
          "name": "",
          "type": "uint256"
        }
      ],
      "stateMutability": "view",
      "type": "function"
    },
    {
      "inputs": [],
      "name": "proxiableUUID",
      "outputs": [
        {
          "internalType": "bytes32",
          "name": "",
          "type": "bytes32"
        }
      ],
      "stateMutability": "view",
      "type": "function"
    },
    {
      "inputs": [
        {
          "internalType": "uint256",
          "name": "editionId",
          "type": "uint256"
        }
      ],
      "name": "removeBelief",
      "outputs": [],
      "stateMutability": "nonpayable",
      "type": "function"
    },
    {
      "inputs": [
        {
          "internalType": "bytes32",
          "name": "role",
          "type": "bytes32"
        },
        {
          "internalType": "address",
          "name": "account",
          "type": "address"
        }
      ],
      "name": "renounceRole",
      "outputs": [],
      "stateMutability": "nonpayable",
      "type": "function"
    },
    {
      "inputs": [
        {
          "internalType": "uint256",
          "name": "editionId",
          "type": "uint256"
        }
      ],
      "name": "resumeEdition",
      "outputs": [],
      "stateMutability": "nonpayable",
      "type": "function"
    },
    {
      "inputs": [
        {
          "internalType": "bytes32",
          "name": "role",
          "type": "bytes32"
        },
        {
          "internalType": "address",
          "name": "account",
          "type": "address"
        }
      ],
      "name": "revokeRole",
      "outputs": [],
      "stateMutability": "nonpayable",
      "type": "function"
    },
    {
      "inputs": [
        {
          "internalType": "address",
          "name": "from",
          "type": "address"
        },
        {
          "internalType": "address",
          "name": "to",
          "type": "address"
        },
        {
          "internalType": "uint256[]",
          "name": "ids",
          "type": "uint256[]"
        },
        {
          "internalType": "uint256[]",
          "name": "amounts",
          "type": "uint256[]"
        },
        {
          "internalType": "bytes",
          "name": "data",
          "type": "bytes"
        }
      ],
      "name": "safeBatchTransferFrom",
      "outputs": [],
      "stateMutability": "nonpayable",
      "type": "function"
    },
    {
      "inputs": [
        {
          "internalType": "address",
          "name": "from",
          "type": "address"
        },
        {
          "internalType": "address",
          "name": "to",
          "type": "address"
        },
        {
          "internalType": "uint256",
          "name": "id",
          "type": "uint256"
        },
        {
          "internalType": "uint256",
          "name": "amount",
          "type": "uint256"
        },
        {
          "internalType": "bytes",
          "name": "data",
          "type": "bytes"
        }
      ],
      "name": "safeTransferFrom",
      "outputs": [],
      "stateMutability": "nonpayable",
      "type": "function"
    },
    {
      "inputs": [
        {
          "internalType": "address",
          "name": "operator",
          "type": "address"
        },
        {
          "internalType": "bool",
          "name": "approved",
          "type": "bool"
        }
      ],
      "name": "setApprovalForAll",
      "outputs": [],
      "stateMutability": "nonpayable",
      "type": "function"
    },
    {
      "inputs": [
        {
          "internalType": "uint256",
          "name": "_maximumEditionFee",
          "type": "uint256"
        }
      ],
      "name": "setMaximumEditionFee",
      "outputs": [],
      "stateMutability": "nonpayable",
      "type": "function"
    },
    {
      "inputs": [
        {
          "internalType": "uint256",
          "name": "_protocolFee",
          "type": "uint256"
        }
      ],
      "name": "setProtocolFee",
      "outputs": [],
      "stateMutability": "nonpayable",
      "type": "function"
    },
    {
      "inputs": [
        {
          "internalType": "string",
          "name": "newuri",
          "type": "string"
        }
      ],
      "name": "setURI",
      "outputs": [],
      "stateMutability": "nonpayable",
      "type": "function"
    },
    {
      "inputs": [
        {
          "internalType": "uint256",
          "name": "editionId",
          "type": "uint256"
        }
      ],
      "name": "stopEdition",
      "outputs": [],
      "stateMutability": "nonpayable",
      "type": "function"
    },
    {
      "inputs": [
        {
          "internalType": "bytes4",
          "name": "interfaceId",
          "type": "bytes4"
        }
      ],
      "name": "supportsInterface",
      "outputs": [
        {
          "internalType": "bool",
          "name": "",
          "type": "bool"
        }
      ],
      "stateMutability": "view",
      "type": "function"
    },
    {
      "inputs": [
        {
          "internalType": "uint256",
          "name": "id",
          "type": "uint256"
        }
      ],
      "name": "totalSupply",
      "outputs": [
        {
          "internalType": "uint256",
          "name": "",
          "type": "uint256"
        }
      ],
      "stateMutability": "view",
      "type": "function"
    },
    {
      "inputs": [],
      "name": "unpause",
      "outputs": [],
      "stateMutability": "nonpayable",
      "type": "function"
    },
    {
      "inputs": [
        {
          "internalType": "address",
          "name": "newImplementation",
          "type": "address"
        }
      ],
      "name": "upgradeTo",
      "outputs": [],
      "stateMutability": "nonpayable",
      "type": "function"
    },
    {
      "inputs": [
        {
          "internalType": "address",
          "name": "newImplementation",
          "type": "address"
        },
        {
          "internalType": "bytes",
          "name": "data",
          "type": "bytes"
        }
      ],
      "name": "upgradeToAndCall",
      "outputs": [],
      "stateMutability": "payable",
      "type": "function"
    },
    {
      "inputs": [
        {
          "internalType": "uint256",
          "name": "id",
          "type": "uint256"
        }
      ],
      "name": "uri",
      "outputs": [
        {
          "internalType": "string",
          "name": "",
          "type": "string"
        }
      ],
      "stateMutability": "view",
      "type": "function"
    },
    {
      "inputs": [
        {
          "internalType": "uint256",
          "name": "editionId",
          "type": "uint256"
        },
        {
          "internalType": "uint256",
          "name": "amount",
          "type": "uint256"
        }
      ],
      "name": "withdrawEditionBalance",
      "outputs": [],
      "stateMutability": "nonpayable",
      "type": "function"
    },
    {
      "inputs": [
        {
          "internalType": "uint256",
          "name": "amount",
          "type": "uint256"
        }
      ],
      "name": "withdrawFunds",
      "outputs": [],
      "stateMutability": "nonpayable",
      "type": "function"
    },
    {
      "stateMutability": "payable",
      "type": "receive"
    }
  ],
  "bytecode": "0x60a0604052306080523480156200001557600080fd5b506200002062000026565b620000e7565b600054610100900460ff1615620000935760405162461bcd60e51b815260206004820152602760248201527f496e697469616c697a61626c653a20636f6e747261637420697320696e697469604482015266616c697a696e6760c81b606482015260840160405180910390fd5b60005460ff90811614620000e5576000805460ff191660ff9081179091556040519081527f7f26b83ff96e1f2b6a682f133852f6798a09c465da95921460cefb38474024989060200160405180910390a15b565b6080516144616200011f60003960008181610cb901528181610cf901528181610ef301528181610f330152610fc201526144616000f3fe6080604052600436106102525760003560e01c8063790bafc611610138578063c6fbb712116100b0578063e8a3d48511610077578063e8a3d48514610732578063e985e9c514610747578063f242432a14610790578063f5298aca146107b0578063f8c1b2fd146107d0578063fc74efa2146107f057005b8063c6fbb7121461068c578063c84aae17146106a3578063d547741f146106d0578063d667c9ce146106f0578063df6efc6c1461071057005b806391fc02f1116100ff57806391fc02f1146105df578063940123da146105ff578063a217fddf14610612578063a22cb46514610627578063b0e21e8a14610647578063bd85b0391461065e57005b8063790bafc6146105555780637cc74941146105755780638129fc1c146105955780638456cb59146105aa57806391d14854146105bf57005b80633659cfe6116101cb57806352d1902d1161019257806352d1902d146104b15780635c975abb146104c65780636b20c454146104de5780636b5cb789146104fe5780637357628c14610515578063787dce3d1461053557005b80633659cfe61461040c5780633f4ba83a1461042c5780634e1273f4146104415780634f1ef2861461046e5780634f558e791461048157005b8063155dd5ee1161021a578063155dd5ee1461032b578063248a9ca31461034b578063279c806e1461037b5780632eb2c2d6146103ac5780632f2ff15d146103cc57806336568abe146103ec57005b8062fdd58e1461025b57806301ffc9a71461028e57806302fe5305146102be5780630a579eca146102de5780630e89341c146102fe57005b3661025957005b005b34801561026757600080fd5b5061027b610276366004613437565b610810565b6040519081526020015b60405180910390f35b34801561029a57600080fd5b506102ae6102a9366004613477565b6108ab565b6040519015158152602001610285565b3480156102ca57600080fd5b506102596102d9366004613549565b6108b6565b3480156102ea57600080fd5b506102596102f936600461357d565b6108ed565b34801561030a57600080fd5b5061031e61031936600461357d565b6109cf565b60405161028591906135e6565b34801561033757600080fd5b5061025961034636600461357d565b610a0a565b34801561035757600080fd5b5061027b61036636600461357d565b60009081526097602052604090206001015490565b34801561038757600080fd5b5061039b61039636600461357d565b610b07565b604051610285959493929190613631565b3480156103b857600080fd5b506102596103c736600461370a565b610bcf565b3480156103d857600080fd5b506102596103e73660046137b3565b610c1b565b3480156103f857600080fd5b506102596104073660046137b3565b610c35565b34801561041857600080fd5b506102596104273660046137df565b610caf565b34801561043857600080fd5b50610259610d8e565b34801561044d57600080fd5b5061046161045c3660046137fa565b610dc0565b60405161028591906138ff565b61025961047c366004613912565b610ee9565b34801561048d57600080fd5b506102ae61049c36600461357d565b600090815261012d6020526040902054151590565b3480156104bd57600080fd5b5061027b610fb5565b3480156104d257600080fd5b5060c95460ff166102ae565b3480156104ea57600080fd5b506102596104f9366004613955565b611069565b34801561050a57600080fd5b5061027b6101c65481565b34801561052157600080fd5b5061025961053036600461357d565b6110ac565b34801561054157600080fd5b5061025961055036600461357d565b61114d565b34801561056157600080fd5b506102596105703660046139c8565b61115f565b34801561058157600080fd5b5061025961059036600461357d565b61120a565b3480156105a157600080fd5b5061025961121c565b3480156105b657600080fd5b506102596113e7565b3480156105cb57600080fd5b506102ae6105da3660046137b3565b611419565b3480156105eb57600080fd5b5061027b6105fa3660046139f8565b611444565b61025961060d366004613a5f565b61158c565b34801561061e57600080fd5b5061027b600081565b34801561063357600080fd5b50610259610642366004613a8c565b61166d565b34801561065357600080fd5b5061027b6101c35481565b34801561066a57600080fd5b5061027b61067936600461357d565b600090815261012d602052604090205490565b34801561069857600080fd5b5061027b6101c55481565b3480156106af57600080fd5b506106c36106be3660046137df565b611678565b6040516102859190613ac8565b3480156106dc57600080fd5b506102596106eb3660046137b3565b6117e2565b3480156106fc57600080fd5b5061025961070b366004613b3e565b611807565b34801561071c57600080fd5b50610725611949565b6040516102859190613b60565b34801561073e57600080fd5b5061031e611b1f565b34801561075357600080fd5b506102ae610762366004613bf6565b6001600160a01b03918216600090815260666020908152604080832093909416825291909152205460ff1690565b34801561079c57600080fd5b506102596107ab366004613c20565b611b3f565b3480156107bc57600080fd5b506102596107cb366004613c84565b611b84565b3480156107dc57600080fd5b506102596107eb36600461357d565b611bc7565b3480156107fc57600080fd5b5061025961080b36600461357d565b611c59565b60006001600160a01b0383166108805760405162461bcd60e51b815260206004820152602a60248201527f455243313135353a2061646472657373207a65726f206973206e6f742061207660448201526930b634b21037bbb732b960b11b60648201526084015b60405180910390fd5b5060008181526065602090815260408083206001600160a01b03861684529091529020545b92915050565b60006108a582611d34565b7f7804d923f43a17d325d77e781528e0793b2edd9890ab45fc64efd7b4b427744c6108e081611d59565b6108e982611d63565b5050565b60008181526101c460205260409020600301546001600160a01b031633148061091c575061091c600033611419565b6109395760405163388f811f60e01b815260040160405180910390fd5b600260008281526101c4602052604090205460ff16600381111561095f5761095f6135f9565b1461097d57604051631f0fb6fd60e11b815260040160405180910390fd5b60008181526101c46020908152604091829020805460ff1916600317905590518281527f591913f977ab242c5871f116f36be231ff67df5e8e0bac1efd91fa8a723aca2b91015b60405180910390a150565b60606109da82611d6f565b6109e383611e03565b6040516020016109f4929190613cb7565b6040516020818303038152906040529050919050565b6000610a1581611d59565b47821115610a3657604051631036b5ad60e31b815260040160405180910390fd5b4760005b6101c554811015610a975760008181526101c46020526040902060020154610a629083613cfc565b915083821015610a855760405163156bbc5b60e01b815260040160405180910390fd5b80610a8f81613d0f565b915050610a3a565b50604051600090339085908381818185875af1925050503d8060008114610ada576040519150601f19603f3d011682016040523d82523d6000602084013e610adf565b606091505b5050905080610b01576040516317f2c34560e31b815260040160405180910390fd5b50505050565b6101c4602052600090815260409020805460018201546002830154600384015460048501805460ff90951695939492936001600160a01b0390921692610b4c90613d28565b80601f0160208091040260200160405190810160405280929190818152602001828054610b7890613d28565b8015610bc55780601f10610b9a57610100808354040283529160200191610bc5565b820191906000526020600020905b815481529060010190602001808311610ba857829003601f168201915b5050505050905085565b6001600160a01b038516331480610beb5750610beb8533610762565b610c075760405162461bcd60e51b815260040161087790613d5c565b610c148585858585611e95565b5050505050565b6000610c2681611d59565b610c308383612042565b505050565b6001600160a01b0381163314610ca55760405162461bcd60e51b815260206004820152602f60248201527f416363657373436f6e74726f6c3a2063616e206f6e6c792072656e6f756e636560448201526e103937b632b9903337b91039b2b63360891b6064820152608401610877565b6108e982826120c8565b6001600160a01b037f0000000000000000000000000000000000000000000000000000000000000000163003610cf75760405162461bcd60e51b815260040161087790613daa565b7f00000000000000000000000000000000000000000000000000000000000000006001600160a01b0316610d406000805160206143c1833981519152546001600160a01b031690565b6001600160a01b031614610d665760405162461bcd60e51b815260040161087790613df6565b610d6f8161212f565b60408051600080825260208201909252610d8b91839190612159565b50565b7f65d7a28e3265b37a6474929f336521b332c1681b933f6cb9f3376673440d862a610db881611d59565b610d8b6122c4565b60608151835114610e255760405162461bcd60e51b815260206004820152602960248201527f455243313135353a206163636f756e747320616e6420696473206c656e677468604482015268040dad2e6dac2e8c6d60bb1b6064820152608401610877565b600083516001600160401b03811115610e4057610e40613494565b604051908082528060200260200182016040528015610e69578160200160208202803683370190505b50905060005b8451811015610ee157610eb4858281518110610e8d57610e8d613e42565b6020026020010151858381518110610ea757610ea7613e42565b6020026020010151610810565b828281518110610ec657610ec6613e42565b6020908102919091010152610eda81613d0f565b9050610e6f565b509392505050565b6001600160a01b037f0000000000000000000000000000000000000000000000000000000000000000163003610f315760405162461bcd60e51b815260040161087790613daa565b7f00000000000000000000000000000000000000000000000000000000000000006001600160a01b0316610f7a6000805160206143c1833981519152546001600160a01b031690565b6001600160a01b031614610fa05760405162461bcd60e51b815260040161087790613df6565b610fa98261212f565b6108e982826001612159565b6000306001600160a01b037f000000000000000000000000000000000000000000000000000000000000000016146110555760405162461bcd60e51b815260206004820152603860248201527f555550535570677261646561626c653a206d757374206e6f742062652063616c60448201527f6c6564207468726f7567682064656c656761746563616c6c00000000000000006064820152608401610877565b506000805160206143c18339815191525b90565b6001600160a01b03831633148061108557506110858333610762565b6110a15760405162461bcd60e51b815260040161087790613d5c565b610c30838383612316565b60006110b781611d59565b600160008381526101c4602052604090205460ff1660038111156110dd576110dd6135f9565b146110fb5760405163137c9c1f60e31b815260040160405180910390fd5b60008281526101c46020908152604091829020805460ff1916600217905590518381527f8f4352ac8b4aefdd2333162306bbe09dd4f4ff6661e89ccc4e4dcced8794e8f7910160405180910390a15050565b600061115881611d59565b506101c355565b600260008381526101c4602052604090205460ff166003811115611185576111856135f9565b146111a35760405163137c9c1f60e31b815260040160405180910390fd5b3360009081526101c760209081526040808320600886901c845290915290208054600160ff85161b179055817ffea32ae325158c96f30b804b06666bbca1ac10c35bfc431f7657a5cb4036fb20826040516111fe91906135e6565b60405180910390a25050565b600061121581611d59565b506101c655565b600054610100900460ff161580801561123c5750600054600160ff909116105b806112565750303b158015611256575060005460ff166001145b6112b95760405162461bcd60e51b815260206004820152602e60248201527f496e697469616c697a61626c653a20636f6e747261637420697320616c72656160448201526d191e481a5b9a5d1a585b1a5e995960921b6064820152608401610877565b6000805460ff1916600117905580156112dc576000805461ff0019166101001790555b6112f4604051806020016040528060008152506124b5565b6112fc6124e5565b61130461250e565b61130c6124e5565b6113146124e5565b61131c6124e5565b611327600033612042565b6113517f7804d923f43a17d325d77e781528e0793b2edd9890ab45fc64efd7b4b427744c33612042565b61137b7f65d7a28e3265b37a6474929f336521b332c1681b933f6cb9f3376673440d862a33612042565b6113a57f189ab7a9244df0848122154315af71fe140f3db0fe014031783b0946b8c9d2e333612042565b8015610d8b576000805461ff0019169055604051600181527f7f26b83ff96e1f2b6a682f133852f6798a09c465da95921460cefb3847402498906020016109c4565b7f65d7a28e3265b37a6474929f336521b332c1681b933f6cb9f3376673440d862a61141181611d59565b610d8b61253d565b60009182526097602090815260408084206001600160a01b0393909316845291905290205460ff1690565b60006101c65485111561146a57604051630f0c4c5f60e41b815260040160405180910390fd5b506101c5546040805160a0810190915280600181526020808201889052600060408084018290526001600160a01b038916606085015260809093018690528481526101c49091522081518154829060ff191660018360038111156114d0576114d06135f9565b0217905550602082015160018201556040820151600282015560608201516003820180546001600160a01b0319166001600160a01b03909216919091179055608082015160048201906115239082613e9e565b50506101c580549150600061153783613d0f565b909155505060408051828152602081018790526001600160a01b0386168183015290517f7fe7f72f14a53255f3c9e225ab1d40fdb21335b87a7912726a196fb816866ae09181900360600190a1949350505050565b600260008581526101c4602052604090205460ff1660038111156115b2576115b26135f9565b146115d057604051631f0fb6fd60e11b815260040160405180910390fd5b6101c35460008581526101c4602052604090206001015484916115f291613f5d565b6115fc9190613f70565b34101561161c57604051631036b5ad60e31b815260040160405180910390fd5b6116288285858461257a565b6101c3546116369084613f70565b6116409034613cfc565b60008581526101c4602052604081206002018054909190611662908490613f5d565b909155505050505050565b6108e933838361269f565b606060006101c5546001600160401b0381111561169757611697613494565b6040519080825280602002602001820160405280156116dd57816020015b6040805180820190915260608152600060208201528152602001906001900390816116b55790505b50905060005b6101c5548110156117db5760405180604001604052806101c46000848152602001908152602001600020600401805461171b90613d28565b80601f016020809104026020016040519081016040528092919081815260200182805461174790613d28565b80156117945780601f1061176957610100808354040283529160200191611794565b820191906000526020600020905b81548152906001019060200180831161177757829003601f168201915b505050505081526020016117a88684610810565b8152508282815181106117bd576117bd613e42565b602002602001018190525080806117d390613d0f565b9150506116e3565b5092915050565b6000828152609760205260409020600101546117fd81611d59565b610c3083836120c8565b60008281526101c460205260409020600301546001600160a01b031633146118425760405163388f811f60e01b815260040160405180910390fd5b60008281526101c4602052604090206002015481111561187557604051637eafab7d60e01b815260040160405180910390fd5b604051600090339083908381818185875af1925050503d80600081146118b7576040519150601f19603f3d011682016040523d82523d6000602084013e6118bc565b606091505b50509050806118de576040516317f2c34560e31b815260040160405180910390fd5b60008381526101c4602052604081206002018054849290611900908490613cfc565b90915550506040805184815260208101849052338183015290517ff1090e9d5138cd4909542e10e1da576730b07eb291a71a151e63160dde345b949181900360600190a1505050565b606060006101c5546001600160401b0381111561196857611968613494565b6040519080825280602002602001820160405280156119d557816020015b6119c26040805160a081019091528060008152602001600081526020016000815260200160006001600160a01b03168152602001606081525090565b8152602001906001900390816119865790505b50905060005b6101c554811015611b195760008181526101c4602052604090819020815160a081019092528054829060ff166003811115611a1857611a186135f9565b6003811115611a2957611a296135f9565b8152600182015460208201526002820154604082015260038201546001600160a01b03166060820152600482018054608090920191611a6790613d28565b80601f0160208091040260200160405190810160405280929190818152602001828054611a9390613d28565b8015611ae05780601f10611ab557610100808354040283529160200191611ae0565b820191906000526020600020905b815481529060010190602001808311611ac357829003601f168201915b505050505081525050828281518110611afb57611afb613e42565b60200260200101819052508080611b1190613d0f565b9150506119db565b50919050565b606060405180606001604052806024815260200161440860249139905090565b6001600160a01b038516331480611b5b5750611b5b8533610762565b611b775760405162461bcd60e51b815260040161087790613d5c565b610c14858585858561277f565b6001600160a01b038316331480611ba05750611ba08333610762565b611bbc5760405162461bcd60e51b815260040161087790613d5c565b610c308383836128bb565b3360009081526101c760209081526040808320600885901c84529182905290912054600160ff84161b16611c0e5760405163423f327760e11b815260040160405180910390fd5b600882901c6000908152602082905260408082208054600160ff87161b191690555183917f652045604531b0c564a0ad1ac598299413e16fa85686aab897ba632a80a661a591a25050565b60008181526101c460205260409020600301546001600160a01b0316331480611c885750611c88600033611419565b611ca55760405163388f811f60e01b815260040160405180910390fd5b600360008281526101c4602052604090205460ff166003811115611ccb57611ccb6135f9565b14611ce95760405163968807a560e01b815260040160405180910390fd5b60008181526101c46020908152604091829020805460ff1916600217905590518281527f63bb17c9645a29322601b4fe88d8f3fa84f32229368294f903084be8f5d813ba91016109c4565b60006001600160e01b03198216637965db0b60e01b14806108a557506108a5826129d7565b610d8b8133612a27565b60676108e98282613e9e565b606060678054611d7e90613d28565b80601f0160208091040260200160405190810160405280929190818152602001828054611daa90613d28565b8015611df75780601f10611dcc57610100808354040283529160200191611df7565b820191906000526020600020905b815481529060010190602001808311611dda57829003601f168201915b50505050509050919050565b60606000611e1083612a80565b60010190506000816001600160401b03811115611e2f57611e2f613494565b6040519080825280601f01601f191660200182016040528015611e59576020820181803683370190505b5090508181016020015b600019016f181899199a1a9b1b9c1cb0b131b232b360811b600a86061a8153600a8504945084611e6357509392505050565b8151835114611eb65760405162461bcd60e51b815260040161087790613f87565b6001600160a01b038416611edc5760405162461bcd60e51b815260040161087790613fcf565b33611eeb818787878787612b58565b60005b8451811015611fd4576000858281518110611f0b57611f0b613e42565b602002602001015190506000858381518110611f2957611f29613e42565b60209081029190910181015160008481526065835260408082206001600160a01b038e168352909352919091205490915081811015611f7a5760405162461bcd60e51b815260040161087790614014565b60008381526065602090815260408083206001600160a01b038e8116855292528083208585039055908b16825281208054849290611fb9908490613f5d565b9250508190555050505080611fcd90613d0f565b9050611eee565b50846001600160a01b0316866001600160a01b0316826001600160a01b03167f4a39dc06d4c0dbc64b70af90fd698a233a518aa5d07e595d983b8c0526c8f7fb878760405161202492919061405e565b60405180910390a461203a818787878787612b6e565b505050505050565b61204c8282611419565b6108e95760008281526097602090815260408083206001600160a01b03851684529091529020805460ff191660011790556120843390565b6001600160a01b0316816001600160a01b0316837f2f8788117e7eff1d82e926ec794901d17c78024a50270940304540a733656f0d60405160405180910390a45050565b6120d28282611419565b156108e95760008281526097602090815260408083206001600160a01b0385168085529252808320805460ff1916905551339285917ff6391f5c32d9c69d2a47ea670b442974b53935d1edc7fd64eb21e047a839171b9190a45050565b7f189ab7a9244df0848122154315af71fe140f3db0fe014031783b0946b8c9d2e36108e981611d59565b7f4910fdfa16fed3260ed0e7147f7cc6da11a60208b5b9406d12a635614ffd91435460ff161561218c57610c3083612cc9565b826001600160a01b03166352d1902d6040518163ffffffff1660e01b8152600401602060405180830381865afa9250505080156121e6575060408051601f3d908101601f191682019092526121e39181019061408c565b60015b6122495760405162461bcd60e51b815260206004820152602e60248201527f45524331393637557067726164653a206e657720696d706c656d656e7461746960448201526d6f6e206973206e6f74205555505360901b6064820152608401610877565b6000805160206143c183398151915281146122b85760405162461bcd60e51b815260206004820152602960248201527f45524331393637557067726164653a20756e737570706f727465642070726f786044820152681a58589b195555525160ba1b6064820152608401610877565b50610c30838383612d65565b6122cc612d8a565b60c9805460ff191690557f5db9ee0a495bf2e6ff9c91a7834c1ba4fdd244a5e8aa4e537bd38aeae4b073aa335b6040516001600160a01b03909116815260200160405180910390a1565b6001600160a01b03831661233c5760405162461bcd60e51b8152600401610877906140a5565b805182511461235d5760405162461bcd60e51b815260040161087790613f87565b600033905061238081856000868660405180602001604052806000815250612b58565b60005b83518110156124485760008482815181106123a0576123a0613e42565b6020026020010151905060008483815181106123be576123be613e42565b60209081029190910181015160008481526065835260408082206001600160a01b038c16835290935291909120549091508181101561240f5760405162461bcd60e51b8152600401610877906140e8565b60009283526065602090815260408085206001600160a01b038b168652909152909220910390558061244081613d0f565b915050612383565b5060006001600160a01b0316846001600160a01b0316826001600160a01b03167f4a39dc06d4c0dbc64b70af90fd698a233a518aa5d07e595d983b8c0526c8f7fb868660405161249992919061405e565b60405180910390a4604080516020810190915260009052610b01565b600054610100900460ff166124dc5760405162461bcd60e51b81526004016108779061412c565b610d8b81612dd3565b600054610100900460ff1661250c5760405162461bcd60e51b81526004016108779061412c565b565b600054610100900460ff166125355760405162461bcd60e51b81526004016108779061412c565b61250c612e03565b612545612e36565b60c9805460ff191660011790557f62e78cea01bee320cd4e420270b5ea74000d11b0c9f74754ebdbfc544b05a2586122f93390565b6001600160a01b0384166125da5760405162461bcd60e51b815260206004820152602160248201527f455243313135353a206d696e7420746f20746865207a65726f206164647265736044820152607360f81b6064820152608401610877565b3360006125e685612e7c565b905060006125f385612e7c565b905061260483600089858589612b58565b60008681526065602090815260408083206001600160a01b038b16845290915281208054879290612636908490613f5d565b909155505060408051878152602081018790526001600160a01b03808a1692600092918716917fc3d58168c5ae7397731d063d5bbf3d657854427343f4c083240f7aacaa2d0f62910160405180910390a461269683600089898989612ec7565b50505050505050565b816001600160a01b0316836001600160a01b0316036127125760405162461bcd60e51b815260206004820152602960248201527f455243313135353a2073657474696e6720617070726f76616c20737461747573604482015268103337b91039b2b63360b91b6064820152608401610877565b6001600160a01b03838116600081815260666020908152604080832094871680845294825291829020805460ff191686151590811790915591519182527f17307eab39ab6107e8899845ad3d59bd9653f200f220920489ca2b5937696c31910160405180910390a3505050565b6001600160a01b0384166127a55760405162461bcd60e51b815260040161087790613fcf565b3360006127b185612e7c565b905060006127be85612e7c565b90506127ce838989858589612b58565b60008681526065602090815260408083206001600160a01b038c168452909152902054858110156128115760405162461bcd60e51b815260040161087790614014565b60008781526065602090815260408083206001600160a01b038d8116855292528083208985039055908a16825281208054889290612850908490613f5d565b909155505060408051888152602081018890526001600160a01b03808b16928c821692918816917fc3d58168c5ae7397731d063d5bbf3d657854427343f4c083240f7aacaa2d0f62910160405180910390a46128b0848a8a8a8a8a612ec7565b505050505050505050565b6001600160a01b0383166128e15760405162461bcd60e51b8152600401610877906140a5565b3360006128ed84612e7c565b905060006128fa84612e7c565b905061291a83876000858560405180602001604052806000815250612b58565b60008581526065602090815260408083206001600160a01b038a1684529091529020548481101561295d5760405162461bcd60e51b8152600401610877906140e8565b60008681526065602090815260408083206001600160a01b038b81168086529184528285208a8703905582518b81529384018a90529092908816917fc3d58168c5ae7397731d063d5bbf3d657854427343f4c083240f7aacaa2d0f62910160405180910390a4604080516020810190915260009052612696565b60006001600160e01b03198216636cdb3d1360e11b1480612a0857506001600160e01b031982166303a24d0760e21b145b806108a557506301ffc9a760e01b6001600160e01b03198316146108a5565b612a318282611419565b6108e957612a3e81612f82565b612a49836020612f94565b604051602001612a5a929190614177565b60408051601f198184030181529082905262461bcd60e51b8252610877916004016135e6565b60008072184f03e93ff9f4daa797ed6e38ed64bf6a1f0160401b8310612abf5772184f03e93ff9f4daa797ed6e38ed64bf6a1f0160401b830492506040015b6d04ee2d6d415b85acef81000000008310612aeb576d04ee2d6d415b85acef8100000000830492506020015b662386f26fc100008310612b0957662386f26fc10000830492506010015b6305f5e1008310612b21576305f5e100830492506008015b6127108310612b3557612710830492506004015b60648310612b47576064830492506002015b600a83106108a55760010192915050565b612b60612e36565b61203a868686868686613136565b6001600160a01b0384163b1561203a5760405163bc197c8160e01b81526001600160a01b0385169063bc197c8190612bb290899089908890889088906004016141ec565b6020604051808303816000875af1925050508015612bed575060408051601f3d908101601f19168201909252612bea9181019061424a565b60015b612c9957612bf9614267565b806308c379a003612c325750612c0d614282565b80612c185750612c34565b8060405162461bcd60e51b815260040161087791906135e6565b505b60405162461bcd60e51b815260206004820152603460248201527f455243313135353a207472616e7366657220746f206e6f6e2d455243313135356044820152732932b1b2b4bb32b91034b6b83632b6b2b73a32b960611b6064820152608401610877565b6001600160e01b0319811663bc197c8160e01b146126965760405162461bcd60e51b81526004016108779061430b565b6001600160a01b0381163b612d365760405162461bcd60e51b815260206004820152602d60248201527f455243313936373a206e657720696d706c656d656e746174696f6e206973206e60448201526c1bdd08184818dbdb9d1c9858dd609a1b6064820152608401610877565b6000805160206143c183398151915280546001600160a01b0319166001600160a01b0392909216919091179055565b612d6e836132b2565b600082511180612d7b5750805b15610c3057610b0183836132f2565b60c95460ff1661250c5760405162461bcd60e51b815260206004820152601460248201527314185d5cd8589b194e881b9bdd081c185d5cd95960621b6044820152606401610877565b600054610100900460ff16612dfa5760405162461bcd60e51b81526004016108779061412c565b610d8b81611d63565b600054610100900460ff16612e2a5760405162461bcd60e51b81526004016108779061412c565b60c9805460ff19169055565b60c95460ff161561250c5760405162461bcd60e51b815260206004820152601060248201526f14185d5cd8589b194e881c185d5cd95960821b6044820152606401610877565b60408051600180825281830190925260609160009190602080830190803683370190505090508281600081518110612eb657612eb6613e42565b602090810291909101015292915050565b6001600160a01b0384163b1561203a5760405163f23a6e6160e01b81526001600160a01b0385169063f23a6e6190612f0b9089908990889088908890600401614353565b6020604051808303816000875af1925050508015612f46575060408051601f3d908101601f19168201909252612f439181019061424a565b60015b612f5257612bf9614267565b6001600160e01b0319811663f23a6e6160e01b146126965760405162461bcd60e51b81526004016108779061430b565b60606108a56001600160a01b03831660145b60606000612fa3836002613f70565b612fae906002613f5d565b6001600160401b03811115612fc557612fc5613494565b6040519080825280601f01601f191660200182016040528015612fef576020820181803683370190505b509050600360fc1b8160008151811061300a5761300a613e42565b60200101906001600160f81b031916908160001a905350600f60fb1b8160018151811061303957613039613e42565b60200101906001600160f81b031916908160001a905350600061305d846002613f70565b613068906001613f5d565b90505b60018111156130e0576f181899199a1a9b1b9c1cb0b131b232b360811b85600f166010811061309c5761309c613e42565b1a60f81b8282815181106130b2576130b2613e42565b60200101906001600160f81b031916908160001a90535060049490941c936130d98161438d565b905061306b565b50831561312f5760405162461bcd60e51b815260206004820181905260248201527f537472696e67733a20686578206c656e67746820696e73756666696369656e746044820152606401610877565b9392505050565b6001600160a01b0385166131be5760005b83518110156131bc5782818151811061316257613162613e42565b602002602001015161012d600086848151811061318157613181613e42565b6020026020010151815260200190815260200160002060008282546131a69190613f5d565b909155506131b5905081613d0f565b9050613147565b505b6001600160a01b03841661203a5760005b83518110156126965760008482815181106131ec576131ec613e42565b60200260200101519050600084838151811061320a5761320a613e42565b60200260200101519050600061012d60008481526020019081526020016000205490508181101561328e5760405162461bcd60e51b815260206004820152602860248201527f455243313135353a206275726e20616d6f756e74206578636565647320746f74604482015267616c537570706c7960c01b6064820152608401610877565b600092835261012d6020526040909220910390556132ab81613d0f565b90506131cf565b6132bb81612cc9565b6040516001600160a01b038216907fbc7cd75a20ee27fd9adebab32041f755214dbc6bffa90cc0225b39da2e5c2d3b90600090a250565b606061312f83836040518060600160405280602781526020016143e1602791396060600080856001600160a01b03168560405161332f91906143a4565b600060405180830381855af49150503d806000811461336a576040519150601f19603f3d011682016040523d82523d6000602084013e61336f565b606091505b50915091506133808683838761338a565b9695505050505050565b606083156133f95782516000036133f2576001600160a01b0385163b6133f25760405162461bcd60e51b815260206004820152601d60248201527f416464726573733a2063616c6c20746f206e6f6e2d636f6e74726163740000006044820152606401610877565b5081613403565b613403838361340b565b949350505050565b815115612c185781518083602001fd5b80356001600160a01b038116811461343257600080fd5b919050565b6000806040838503121561344a57600080fd5b6134538361341b565b946020939093013593505050565b6001600160e01b031981168114610d8b57600080fd5b60006020828403121561348957600080fd5b813561312f81613461565b634e487b7160e01b600052604160045260246000fd5b601f8201601f191681016001600160401b03811182821017156134cf576134cf613494565b6040525050565b600082601f8301126134e757600080fd5b81356001600160401b0381111561350057613500613494565b604051613517601f8301601f1916602001826134aa565b81815284602083860101111561352c57600080fd5b816020850160208301376000918101602001919091529392505050565b60006020828403121561355b57600080fd5b81356001600160401b0381111561357157600080fd5b613403848285016134d6565b60006020828403121561358f57600080fd5b5035919050565b60005b838110156135b1578181015183820152602001613599565b50506000910152565b600081518084526135d2816020860160208601613596565b601f01601f19169290920160200192915050565b60208152600061312f60208301846135ba565b634e487b7160e01b600052602160045260246000fd5b6004811061362d57634e487b7160e01b600052602160045260246000fd5b9052565b61363b818761360f565b84602082015283604082015260018060a01b038316606082015260a06080820152600061366b60a08301846135ba565b979650505050505050565b60006001600160401b0382111561368f5761368f613494565b5060051b60200190565b600082601f8301126136aa57600080fd5b813560206136b782613676565b6040516136c482826134aa565b83815260059390931b85018201928281019150868411156136e457600080fd5b8286015b848110156136ff57803583529183019183016136e8565b509695505050505050565b600080600080600060a0868803121561372257600080fd5b61372b8661341b565b94506137396020870161341b565b935060408601356001600160401b038082111561375557600080fd5b61376189838a01613699565b9450606088013591508082111561377757600080fd5b61378389838a01613699565b9350608088013591508082111561379957600080fd5b506137a6888289016134d6565b9150509295509295909350565b600080604083850312156137c657600080fd5b823591506137d66020840161341b565b90509250929050565b6000602082840312156137f157600080fd5b61312f8261341b565b6000806040838503121561380d57600080fd5b82356001600160401b038082111561382457600080fd5b818501915085601f83011261383857600080fd5b8135602061384582613676565b60405161385282826134aa565b83815260059390931b850182019282810191508984111561387257600080fd5b948201945b83861015613897576138888661341b565b82529482019490820190613877565b965050860135925050808211156138ad57600080fd5b506138ba85828601613699565b9150509250929050565b600081518084526020808501945080840160005b838110156138f4578151875295820195908201906001016138d8565b509495945050505050565b60208152600061312f60208301846138c4565b6000806040838503121561392557600080fd5b61392e8361341b565b915060208301356001600160401b0381111561394957600080fd5b6138ba858286016134d6565b60008060006060848603121561396a57600080fd5b6139738461341b565b925060208401356001600160401b038082111561398f57600080fd5b61399b87838801613699565b935060408601359150808211156139b157600080fd5b506139be86828701613699565b9150509250925092565b600080604083850312156139db57600080fd5b8235915060208301356001600160401b0381111561394957600080fd5b60008060008060808587031215613a0e57600080fd5b84359350613a1e6020860161341b565b9250613a2c6040860161341b565b915060608501356001600160401b03811115613a4757600080fd5b613a53878288016134d6565b91505092959194509250565b60008060008060808587031215613a7557600080fd5b8435935060208501359250613a2c6040860161341b565b60008060408385031215613a9f57600080fd5b613aa88361341b565b915060208301358015158114613abd57600080fd5b809150509250929050565b60006020808301818452808551808352604092508286019150828160051b87010184880160005b83811015613b3057888303603f1901855281518051878552613b13888601826135ba565b918901519489019490945294870194925090860190600101613aef565b509098975050505050505050565b60008060408385031215613b5157600080fd5b50508035926020909101359150565b60006020808301818452808551808352604092508286019150828160051b87010184880160005b83811015613b3057603f19898403018552815160a0613ba785835161360f565b81890151858a015287820151888601526060808301516001600160a01b031690860152608091820151918501819052613be2818601836135ba565b968901969450505090860190600101613b87565b60008060408385031215613c0957600080fd5b613c128361341b565b91506137d66020840161341b565b600080600080600060a08688031215613c3857600080fd5b613c418661341b565b9450613c4f6020870161341b565b9350604086013592506060860135915060808601356001600160401b03811115613c7857600080fd5b6137a6888289016134d6565b600080600060608486031215613c9957600080fd5b613ca28461341b565b95602085013595506040909401359392505050565b60008351613cc9818460208801613596565b835190830190613cdd818360208801613596565b01949350505050565b634e487b7160e01b600052601160045260246000fd5b818103818111156108a5576108a5613ce6565b600060018201613d2157613d21613ce6565b5060010190565b600181811c90821680613d3c57607f821691505b602082108103611b1957634e487b7160e01b600052602260045260246000fd5b6020808252602e908201527f455243313135353a2063616c6c6572206973206e6f7420746f6b656e206f776e60408201526d195c881bdc88185c1c1c9bdd995960921b606082015260800190565b6020808252602c908201527f46756e6374696f6e206d7573742062652063616c6c6564207468726f7567682060408201526b19195b1959d85d1958d85b1b60a21b606082015260800190565b6020808252602c908201527f46756e6374696f6e206d7573742062652063616c6c6564207468726f7567682060408201526b6163746976652070726f787960a01b606082015260800190565b634e487b7160e01b600052603260045260246000fd5b601f821115610c3057600081815260208120601f850160051c81016020861015613e7f5750805b601f850160051c820191505b8181101561203a57828155600101613e8b565b81516001600160401b03811115613eb757613eb7613494565b613ecb81613ec58454613d28565b84613e58565b602080601f831160018114613f005760008415613ee85750858301515b600019600386901b1c1916600185901b17855561203a565b600085815260208120601f198616915b82811015613f2f57888601518255948401946001909101908401613f10565b5085821015613f4d5787850151600019600388901b60f8161c191681555b5050505050600190811b01905550565b808201808211156108a5576108a5613ce6565b80820281158282048414176108a5576108a5613ce6565b60208082526028908201527f455243313135353a2069647320616e6420616d6f756e7473206c656e677468206040820152670dad2e6dac2e8c6d60c31b606082015260800190565b60208082526025908201527f455243313135353a207472616e7366657220746f20746865207a65726f206164604082015264647265737360d81b606082015260800190565b6020808252602a908201527f455243313135353a20696e73756666696369656e742062616c616e636520666f60408201526939103a3930b739b332b960b11b606082015260800190565b60408152600061407160408301856138c4565b828103602084015261408381856138c4565b95945050505050565b60006020828403121561409e57600080fd5b5051919050565b60208082526023908201527f455243313135353a206275726e2066726f6d20746865207a65726f206164647260408201526265737360e81b606082015260800190565b60208082526024908201527f455243313135353a206275726e20616d6f756e7420657863656564732062616c604082015263616e636560e01b606082015260800190565b6020808252602b908201527f496e697469616c697a61626c653a20636f6e7472616374206973206e6f74206960408201526a6e697469616c697a696e6760a81b606082015260800190565b7f416363657373436f6e74726f6c3a206163636f756e74200000000000000000008152600083516141af816017850160208801613596565b7001034b99036b4b9b9b4b733903937b6329607d1b60179184019182015283516141e0816028840160208801613596565b01602801949350505050565b6001600160a01b0386811682528516602082015260a060408201819052600090614218908301866138c4565b828103606084015261422a81866138c4565b9050828103608084015261423e81856135ba565b98975050505050505050565b60006020828403121561425c57600080fd5b815161312f81613461565b600060033d11156110665760046000803e5060005160e01c90565b600060443d10156142905790565b6040516003193d81016004833e81513d6001600160401b0381602484011181841117156142bf57505050505090565b82850191508151818111156142d75750505050505090565b843d87010160208285010111156142f15750505050505090565b614300602082860101876134aa565b509095945050505050565b60208082526028908201527f455243313135353a204552433131353552656365697665722072656a656374656040820152676420746f6b656e7360c01b606082015260800190565b6001600160a01b03868116825285166020820152604081018490526060810183905260a06080820181905260009061366b908301846135ba565b60008161439c5761439c613ce6565b506000190190565b600082516143b6818460208701613596565b919091019291505056fe360894a13ba1a3210667c828492db98dca3e2076cc3735a920a3ca505d382bbc416464726573733a206c6f772d6c6576656c2064656c65676174652063616c6c206661696c656468747470733a2f2f72616461726c61756e63682e6170702f6170692f6d65746164617461a264697066735822122098d0c8728236cee945cde2c87362d82475063134f261c0e62db9ab3151a0c28564736f6c63430008130033",
  "linkReferences": {},
  "deployedLinkReferences": {}
}