{
  "_format": "hh-sol-artifact-1",
  "contractName": "RadarEditions",
  "sourceName": "src/RadarEditions.sol",
  "abi": [
    {
      "inputs": [],
      "stateMutability": "nonpayable",
      "type": "constructor"
    },
    {
      "inputs": [],
      "name": "EditionFeeExceedsMaximumFee",
      "type": "error"
    },
    {
      "inputs": [],
      "name": "EditionNotCreated",
      "type": "error"
    },
    {
      "inputs": [],
      "name": "EditionNotEnoughBalance",
      "type": "error"
    },
    {
      "inputs": [],
      "name": "EditionNotLaunched",
      "type": "error"
    },
    {
      "inputs": [],
      "name": "EditionNotStopped",
      "type": "error"
    },
    {
      "inputs": [],
      "name": "NotEditionOwner",
      "type": "error"
    },
    {
      "inputs": [],
      "name": "NotEnoughFunds",
      "type": "error"
    },
    {
      "inputs": [],
      "name": "TransactionFailed",
      "type": "error"
    },
    {
      "anonymous": false,
      "inputs": [
        {
          "indexed": false,
          "internalType": "address",
          "name": "previousAdmin",
          "type": "address"
        },
        {
          "indexed": false,
          "internalType": "address",
          "name": "newAdmin",
          "type": "address"
        }
      ],
      "name": "AdminChanged",
      "type": "event"
    },
    {
      "anonymous": false,
      "inputs": [
        {
          "indexed": true,
          "internalType": "address",
          "name": "account",
          "type": "address"
        },
        {
          "indexed": true,
          "internalType": "address",
          "name": "operator",
          "type": "address"
        },
        {
          "indexed": false,
          "internalType": "bool",
          "name": "approved",
          "type": "bool"
        }
      ],
      "name": "ApprovalForAll",
      "type": "event"
    },
    {
      "anonymous": false,
      "inputs": [
        {
          "indexed": true,
          "internalType": "address",
          "name": "beacon",
          "type": "address"
        }
      ],
      "name": "BeaconUpgraded",
      "type": "event"
    },
    {
      "anonymous": false,
      "inputs": [
        {
          "indexed": false,
          "internalType": "uint256",
          "name": "editionId",
          "type": "uint256"
        }
      ],
      "name": "EditionApproved",
      "type": "event"
    },
    {
      "anonymous": false,
      "inputs": [
        {
          "indexed": false,
          "internalType": "uint256",
          "name": "editionId",
          "type": "uint256"
        },
        {
          "indexed": false,
          "internalType": "uint256",
          "name": "amount",
          "type": "uint256"
        },
        {
          "indexed": false,
          "internalType": "address",
          "name": "owner",
          "type": "address"
        }
      ],
      "name": "EditionBalanceWithdrawn",
      "type": "event"
    },
    {
      "anonymous": false,
      "inputs": [
        {
          "indexed": false,
          "internalType": "uint256",
          "name": "editionId",
          "type": "uint256"
        },
        {
          "indexed": false,
          "internalType": "uint256",
          "name": "fee",
          "type": "uint256"
        },
        {
          "indexed": false,
          "internalType": "address",
          "name": "owner",
          "type": "address"
        }
      ],
      "name": "EditionCreated",
      "type": "event"
    },
    {
      "anonymous": false,
      "inputs": [
        {
          "indexed": false,
          "internalType": "uint256",
          "name": "editionId",
          "type": "uint256"
        }
      ],
      "name": "EditionResumed",
      "type": "event"
    },
    {
      "anonymous": false,
      "inputs": [
        {
          "indexed": false,
          "internalType": "uint256",
          "name": "editionId",
          "type": "uint256"
        }
      ],
      "name": "EditionStopped",
      "type": "event"
    },
    {
      "anonymous": false,
      "inputs": [
        {
          "indexed": false,
          "internalType": "uint8",
          "name": "version",
          "type": "uint8"
        }
      ],
      "name": "Initialized",
      "type": "event"
    },
    {
      "anonymous": false,
      "inputs": [
        {
          "indexed": false,
          "internalType": "address",
          "name": "account",
          "type": "address"
        }
      ],
      "name": "Paused",
      "type": "event"
    },
    {
      "anonymous": false,
      "inputs": [
        {
          "indexed": true,
          "internalType": "bytes32",
          "name": "role",
          "type": "bytes32"
        },
        {
          "indexed": true,
          "internalType": "bytes32",
          "name": "previousAdminRole",
          "type": "bytes32"
        },
        {
          "indexed": true,
          "internalType": "bytes32",
          "name": "newAdminRole",
          "type": "bytes32"
        }
      ],
      "name": "RoleAdminChanged",
      "type": "event"
    },
    {
      "anonymous": false,
      "inputs": [
        {
          "indexed": true,
          "internalType": "bytes32",
          "name": "role",
          "type": "bytes32"
        },
        {
          "indexed": true,
          "internalType": "address",
          "name": "account",
          "type": "address"
        },
        {
          "indexed": true,
          "internalType": "address",
          "name": "sender",
          "type": "address"
        }
      ],
      "name": "RoleGranted",
      "type": "event"
    },
    {
      "anonymous": false,
      "inputs": [
        {
          "indexed": true,
          "internalType": "bytes32",
          "name": "role",
          "type": "bytes32"
        },
        {
          "indexed": true,
          "internalType": "address",
          "name": "account",
          "type": "address"
        },
        {
          "indexed": true,
          "internalType": "address",
          "name": "sender",
          "type": "address"
        }
      ],
      "name": "RoleRevoked",
      "type": "event"
    },
    {
      "anonymous": false,
      "inputs": [
        {
          "indexed": true,
          "internalType": "address",
          "name": "operator",
          "type": "address"
        },
        {
          "indexed": true,
          "internalType": "address",
          "name": "from",
          "type": "address"
        },
        {
          "indexed": true,
          "internalType": "address",
          "name": "to",
          "type": "address"
        },
        {
          "indexed": false,
          "internalType": "uint256[]",
          "name": "ids",
          "type": "uint256[]"
        },
        {
          "indexed": false,
          "internalType": "uint256[]",
          "name": "values",
          "type": "uint256[]"
        }
      ],
      "name": "TransferBatch",
      "type": "event"
    },
    {
      "anonymous": false,
      "inputs": [
        {
          "indexed": true,
          "internalType": "address",
          "name": "operator",
          "type": "address"
        },
        {
          "indexed": true,
          "internalType": "address",
          "name": "from",
          "type": "address"
        },
        {
          "indexed": true,
          "internalType": "address",
          "name": "to",
          "type": "address"
        },
        {
          "indexed": false,
          "internalType": "uint256",
          "name": "id",
          "type": "uint256"
        },
        {
          "indexed": false,
          "internalType": "uint256",
          "name": "value",
          "type": "uint256"
        }
      ],
      "name": "TransferSingle",
      "type": "event"
    },
    {
      "anonymous": false,
      "inputs": [
        {
          "indexed": false,
          "internalType": "string",
          "name": "value",
          "type": "string"
        },
        {
          "indexed": true,
          "internalType": "uint256",
          "name": "id",
          "type": "uint256"
        }
      ],
      "name": "URI",
      "type": "event"
    },
    {
      "anonymous": false,
      "inputs": [
        {
          "indexed": false,
          "internalType": "address",
          "name": "account",
          "type": "address"
        }
      ],
      "name": "Unpaused",
      "type": "event"
    },
    {
      "anonymous": false,
      "inputs": [
        {
          "indexed": true,
          "internalType": "address",
          "name": "implementation",
          "type": "address"
        }
      ],
      "name": "Upgraded",
      "type": "event"
    },
    {
      "stateMutability": "payable",
      "type": "fallback"
    },
    {
      "inputs": [],
      "name": "DEFAULT_ADMIN_ROLE",
      "outputs": [
        {
          "internalType": "bytes32",
          "name": "",
          "type": "bytes32"
        }
      ],
      "stateMutability": "view",
      "type": "function"
    },
    {
      "inputs": [
        {
          "internalType": "uint256",
          "name": "editionId",
          "type": "uint256"
        }
      ],
      "name": "approveEdition",
      "outputs": [],
      "stateMutability": "nonpayable",
      "type": "function"
    },
    {
      "inputs": [
        {
          "internalType": "address",
          "name": "account",
          "type": "address"
        },
        {
          "internalType": "uint256",
          "name": "id",
          "type": "uint256"
        }
      ],
      "name": "balanceOf",
      "outputs": [
        {
          "internalType": "uint256",
          "name": "",
          "type": "uint256"
        }
      ],
      "stateMutability": "view",
      "type": "function"
    },
    {
      "inputs": [
        {
          "internalType": "address[]",
          "name": "accounts",
          "type": "address[]"
        },
        {
          "internalType": "uint256[]",
          "name": "ids",
          "type": "uint256[]"
        }
      ],
      "name": "balanceOfBatch",
      "outputs": [
        {
          "internalType": "uint256[]",
          "name": "",
          "type": "uint256[]"
        }
      ],
      "stateMutability": "view",
      "type": "function"
    },
    {
      "inputs": [
        {
          "internalType": "address",
          "name": "account",
          "type": "address"
        },
        {
          "internalType": "uint256",
          "name": "id",
          "type": "uint256"
        },
        {
          "internalType": "uint256",
          "name": "value",
          "type": "uint256"
        }
      ],
      "name": "burn",
      "outputs": [],
      "stateMutability": "nonpayable",
      "type": "function"
    },
    {
      "inputs": [
        {
          "internalType": "address",
          "name": "account",
          "type": "address"
        },
        {
          "internalType": "uint256[]",
          "name": "ids",
          "type": "uint256[]"
        },
        {
          "internalType": "uint256[]",
          "name": "values",
          "type": "uint256[]"
        }
      ],
      "name": "burnBatch",
      "outputs": [],
      "stateMutability": "nonpayable",
      "type": "function"
    },
    {
      "inputs": [],
      "name": "contractURI",
      "outputs": [
        {
          "internalType": "string",
          "name": "",
          "type": "string"
        }
      ],
      "stateMutability": "view",
      "type": "function"
    },
    {
      "inputs": [
        {
          "internalType": "uint256",
          "name": "fee",
          "type": "uint256"
        },
        {
          "internalType": "address",
          "name": "owner",
          "type": "address"
        },
        {
          "internalType": "address",
          "name": "payer",
          "type": "address"
        },
        {
          "internalType": "string",
          "name": "id",
          "type": "string"
        }
      ],
      "name": "createEdition",
      "outputs": [
        {
          "internalType": "uint256",
          "name": "editionId",
          "type": "uint256"
        }
      ],
      "stateMutability": "nonpayable",
      "type": "function"
    },
    {
      "inputs": [],
      "name": "editionCounter",
      "outputs": [
        {
          "internalType": "uint256",
          "name": "",
          "type": "uint256"
        }
      ],
      "stateMutability": "view",
      "type": "function"
    },
    {
      "inputs": [
        {
          "internalType": "uint256",
          "name": "",
          "type": "uint256"
        }
      ],
      "name": "editions",
      "outputs": [
        {
          "internalType": "enum EditionsStructs.EditionStatus",
          "name": "status",
          "type": "uint8"
        },
        {
          "internalType": "uint256",
          "name": "fee",
          "type": "uint256"
        },
        {
          "internalType": "uint256",
          "name": "balance",
          "type": "uint256"
        },
        {
          "internalType": "address",
          "name": "owner",
          "type": "address"
        },
        {
          "internalType": "string",
          "name": "id",
          "type": "string"
        }
      ],
      "stateMutability": "view",
      "type": "function"
    },
    {
      "inputs": [
        {
          "internalType": "uint256",
          "name": "id",
          "type": "uint256"
        }
      ],
      "name": "exists",
      "outputs": [
        {
          "internalType": "bool",
          "name": "",
          "type": "bool"
        }
      ],
      "stateMutability": "view",
      "type": "function"
    },
    {
      "inputs": [
        {
          "internalType": "address",
          "name": "owner",
          "type": "address"
        }
      ],
      "name": "getBalances",
      "outputs": [
        {
          "components": [
            {
              "internalType": "string",
              "name": "id",
              "type": "string"
            },
            {
              "internalType": "uint256",
              "name": "amount",
              "type": "uint256"
            }
          ],
          "internalType": "struct EditionsStructs.EditionIdWithAmount[]",
          "name": "",
          "type": "tuple[]"
        }
      ],
      "stateMutability": "view",
      "type": "function"
    },
    {
      "inputs": [],
      "name": "getEditions",
      "outputs": [
        {
          "components": [
            {
              "internalType": "enum EditionsStructs.EditionStatus",
              "name": "status",
              "type": "uint8"
            },
            {
              "internalType": "uint256",
              "name": "fee",
              "type": "uint256"
            },
            {
              "internalType": "uint256",
              "name": "balance",
              "type": "uint256"
            },
            {
              "internalType": "address",
              "name": "owner",
              "type": "address"
            },
            {
              "internalType": "string",
              "name": "id",
              "type": "string"
            }
          ],
          "internalType": "struct EditionsStructs.Edition[]",
          "name": "",
          "type": "tuple[]"
        }
      ],
      "stateMutability": "view",
      "type": "function"
    },
    {
      "inputs": [
        {
          "internalType": "bytes32",
          "name": "role",
          "type": "bytes32"
        }
      ],
      "name": "getRoleAdmin",
      "outputs": [
        {
          "internalType": "bytes32",
          "name": "",
          "type": "bytes32"
        }
      ],
      "stateMutability": "view",
      "type": "function"
    },
    {
      "inputs": [
        {
          "internalType": "bytes32",
          "name": "role",
          "type": "bytes32"
        },
        {
          "internalType": "address",
          "name": "account",
          "type": "address"
        }
      ],
      "name": "grantRole",
      "outputs": [],
      "stateMutability": "nonpayable",
      "type": "function"
    },
    {
      "inputs": [
        {
          "internalType": "bytes32",
          "name": "role",
          "type": "bytes32"
        },
        {
          "internalType": "address",
          "name": "account",
          "type": "address"
        }
      ],
      "name": "hasRole",
      "outputs": [
        {
          "internalType": "bool",
          "name": "",
          "type": "bool"
        }
      ],
      "stateMutability": "view",
      "type": "function"
    },
    {
      "inputs": [],
      "name": "initialize",
      "outputs": [],
      "stateMutability": "nonpayable",
      "type": "function"
    },
    {
      "inputs": [
        {
          "internalType": "address",
          "name": "account",
          "type": "address"
        },
        {
          "internalType": "address",
          "name": "operator",
          "type": "address"
        }
      ],
      "name": "isApprovedForAll",
      "outputs": [
        {
          "internalType": "bool",
          "name": "",
          "type": "bool"
        }
      ],
      "stateMutability": "view",
      "type": "function"
    },
    {
      "inputs": [],
      "name": "maximumEditionFee",
      "outputs": [
        {
          "internalType": "uint256",
          "name": "",
          "type": "uint256"
        }
      ],
      "stateMutability": "view",
      "type": "function"
    },
    {
      "inputs": [
        {
          "internalType": "uint256",
          "name": "editionId",
          "type": "uint256"
        },
        {
          "internalType": "uint256",
          "name": "amount",
          "type": "uint256"
        },
        {
          "internalType": "address",
          "name": "buyer",
          "type": "address"
        },
        {
          "internalType": "bytes",
          "name": "data",
          "type": "bytes"
        }
      ],
      "name": "mintEdition",
      "outputs": [],
      "stateMutability": "payable",
      "type": "function"
    },
    {
      "inputs": [],
      "name": "name",
      "outputs": [
        {
          "internalType": "string",
          "name": "",
          "type": "string"
        }
      ],
      "stateMutability": "view",
      "type": "function"
    },
    {
      "inputs": [],
      "name": "pause",
      "outputs": [],
      "stateMutability": "nonpayable",
      "type": "function"
    },
    {
      "inputs": [],
      "name": "paused",
      "outputs": [
        {
          "internalType": "bool",
          "name": "",
          "type": "bool"
        }
      ],
      "stateMutability": "view",
      "type": "function"
    },
    {
      "inputs": [],
      "name": "protocolFee",
      "outputs": [
        {
          "internalType": "uint256",
          "name": "",
          "type": "uint256"
        }
      ],
      "stateMutability": "view",
      "type": "function"
    },
    {
      "inputs": [],
      "name": "proxiableUUID",
      "outputs": [
        {
          "internalType": "bytes32",
          "name": "",
          "type": "bytes32"
        }
      ],
      "stateMutability": "view",
      "type": "function"
    },
    {
      "inputs": [
        {
          "internalType": "bytes32",
          "name": "role",
          "type": "bytes32"
        },
        {
          "internalType": "address",
          "name": "account",
          "type": "address"
        }
      ],
      "name": "renounceRole",
      "outputs": [],
      "stateMutability": "nonpayable",
      "type": "function"
    },
    {
      "inputs": [
        {
          "internalType": "uint256",
          "name": "editionId",
          "type": "uint256"
        }
      ],
      "name": "resumeEdition",
      "outputs": [],
      "stateMutability": "nonpayable",
      "type": "function"
    },
    {
      "inputs": [
        {
          "internalType": "bytes32",
          "name": "role",
          "type": "bytes32"
        },
        {
          "internalType": "address",
          "name": "account",
          "type": "address"
        }
      ],
      "name": "revokeRole",
      "outputs": [],
      "stateMutability": "nonpayable",
      "type": "function"
    },
    {
      "inputs": [
        {
          "internalType": "address",
          "name": "from",
          "type": "address"
        },
        {
          "internalType": "address",
          "name": "to",
          "type": "address"
        },
        {
          "internalType": "uint256[]",
          "name": "ids",
          "type": "uint256[]"
        },
        {
          "internalType": "uint256[]",
          "name": "amounts",
          "type": "uint256[]"
        },
        {
          "internalType": "bytes",
          "name": "data",
          "type": "bytes"
        }
      ],
      "name": "safeBatchTransferFrom",
      "outputs": [],
      "stateMutability": "nonpayable",
      "type": "function"
    },
    {
      "inputs": [
        {
          "internalType": "address",
          "name": "from",
          "type": "address"
        },
        {
          "internalType": "address",
          "name": "to",
          "type": "address"
        },
        {
          "internalType": "uint256",
          "name": "id",
          "type": "uint256"
        },
        {
          "internalType": "uint256",
          "name": "amount",
          "type": "uint256"
        },
        {
          "internalType": "bytes",
          "name": "data",
          "type": "bytes"
        }
      ],
      "name": "safeTransferFrom",
      "outputs": [],
      "stateMutability": "nonpayable",
      "type": "function"
    },
    {
      "inputs": [
        {
          "internalType": "address",
          "name": "operator",
          "type": "address"
        },
        {
          "internalType": "bool",
          "name": "approved",
          "type": "bool"
        }
      ],
      "name": "setApprovalForAll",
      "outputs": [],
      "stateMutability": "nonpayable",
      "type": "function"
    },
    {
      "inputs": [
        {
          "internalType": "string",
          "name": "_contractUri",
          "type": "string"
        }
      ],
      "name": "setContractUri",
      "outputs": [],
      "stateMutability": "nonpayable",
      "type": "function"
    },
    {
      "inputs": [
        {
          "internalType": "uint256",
          "name": "_maximumEditionFee",
          "type": "uint256"
        }
      ],
      "name": "setMaximumEditionFee",
      "outputs": [],
      "stateMutability": "nonpayable",
      "type": "function"
    },
    {
      "inputs": [
        {
          "internalType": "uint256",
          "name": "_protocolFee",
          "type": "uint256"
        }
      ],
      "name": "setProtocolFee",
      "outputs": [],
      "stateMutability": "nonpayable",
      "type": "function"
    },
    {
      "inputs": [
        {
          "internalType": "string",
          "name": "newuri",
          "type": "string"
        }
      ],
      "name": "setURI",
      "outputs": [],
      "stateMutability": "nonpayable",
      "type": "function"
    },
    {
      "inputs": [
        {
          "internalType": "uint256",
          "name": "editionId",
          "type": "uint256"
        }
      ],
      "name": "stopEdition",
      "outputs": [],
      "stateMutability": "nonpayable",
      "type": "function"
    },
    {
      "inputs": [
        {
          "internalType": "bytes4",
          "name": "interfaceId",
          "type": "bytes4"
        }
      ],
      "name": "supportsInterface",
      "outputs": [
        {
          "internalType": "bool",
          "name": "",
          "type": "bool"
        }
      ],
      "stateMutability": "view",
      "type": "function"
    },
    {
      "inputs": [],
      "name": "symbol",
      "outputs": [
        {
          "internalType": "string",
          "name": "",
          "type": "string"
        }
      ],
      "stateMutability": "view",
      "type": "function"
    },
    {
      "inputs": [
        {
          "internalType": "uint256",
          "name": "id",
          "type": "uint256"
        }
      ],
      "name": "totalSupply",
      "outputs": [
        {
          "internalType": "uint256",
          "name": "",
          "type": "uint256"
        }
      ],
      "stateMutability": "view",
      "type": "function"
    },
    {
      "inputs": [],
      "name": "unpause",
      "outputs": [],
      "stateMutability": "nonpayable",
      "type": "function"
    },
    {
      "inputs": [
        {
          "internalType": "address",
          "name": "newImplementation",
          "type": "address"
        }
      ],
      "name": "upgradeTo",
      "outputs": [],
      "stateMutability": "nonpayable",
      "type": "function"
    },
    {
      "inputs": [
        {
          "internalType": "address",
          "name": "newImplementation",
          "type": "address"
        },
        {
          "internalType": "bytes",
          "name": "data",
          "type": "bytes"
        }
      ],
      "name": "upgradeToAndCall",
      "outputs": [],
      "stateMutability": "payable",
      "type": "function"
    },
    {
      "inputs": [
        {
          "internalType": "uint256",
          "name": "id",
          "type": "uint256"
        }
      ],
      "name": "uri",
      "outputs": [
        {
          "internalType": "string",
          "name": "",
          "type": "string"
        }
      ],
      "stateMutability": "view",
      "type": "function"
    },
    {
      "inputs": [
        {
          "internalType": "uint256",
          "name": "editionId",
          "type": "uint256"
        },
        {
          "internalType": "uint256",
          "name": "amount",
          "type": "uint256"
        }
      ],
      "name": "withdrawEditionBalance",
      "outputs": [],
      "stateMutability": "nonpayable",
      "type": "function"
    },
    {
      "inputs": [
        {
          "internalType": "uint256",
          "name": "amount",
          "type": "uint256"
        }
      ],
      "name": "withdrawFunds",
      "outputs": [],
      "stateMutability": "nonpayable",
      "type": "function"
    },
    {
      "stateMutability": "payable",
      "type": "receive"
    }
  ],
  "bytecode": "0x60a0604052306080523480156200001557600080fd5b506200002062000026565b620000e7565b600054610100900460ff1615620000935760405162461bcd60e51b815260206004820152602760248201527f496e697469616c697a61626c653a20636f6e747261637420697320696e697469604482015266616c697a696e6760c81b606482015260840160405180910390fd5b60005460ff90811614620000e5576000805460ff191660ff9081179091556040519081527f7f26b83ff96e1f2b6a682f133852f6798a09c465da95921460cefb38474024989060200160405180910390a15b565b6080516142d66200011f60003960008181610c7301528181610cb301528181610ead01528181610eed0152610f7c01526142d66000f3fe60806040526004361061025d5760003560e01c8063787dce3d11610143578063bd85b039116100bb578063df6efc6c11610077578063df6efc6c14610784578063e8a3d485146107a6578063e985e9c5146107bb578063f242432a14610804578063f5298aca14610824578063fc74efa21461084457005b8063bd85b039146106b2578063c6fbb712146106e0578063c84aae17146106f7578063ccb4807b14610724578063d547741f14610744578063d667c9ce1461076457005b806391fc02f11161010a57806391fc02f114610602578063940123da1461062257806395d89b4114610635578063a217fddf14610666578063a22cb4651461067b578063b0e21e8a1461069b57005b8063787dce3d146105785780637cc74941146105985780638129fc1c146105b85780638456cb59146105cd57806391d14854146105e257005b806336568abe116101d65780634f558e791161019d5780634f558e79146104c457806352d1902d146104f45780635c975abb146105095780636b20c454146105215780636b5cb789146105415780637357628c1461055857005b806336568abe1461042f5780633659cfe61461044f5780633f4ba83a1461046f5780634e1273f4146104845780634f1ef286146104b157005b80630e89341c116102255780630e89341c1461034e578063155dd5ee1461036e578063248a9ca31461038e578063279c806e146103be5780632eb2c2d6146103ef5780632f2ff15d1461040f57005b8062fdd58e1461026657806301ffc9a71461029957806302fe5305146102c957806306fdde03146102e95780630a579eca1461032e57005b3661026457005b005b34801561027257600080fd5b506102866102813660046132dc565b610864565b6040519081526020015b60405180910390f35b3480156102a557600080fd5b506102b96102b436600461331c565b6108ff565b6040519015158152602001610290565b3480156102d557600080fd5b506102646102e43660046133ee565b61090a565b3480156102f557600080fd5b506103216040518060400160405280600c81526020016b0a4828882a44098c2eadcc6d60a31b81525081565b6040516102909190613472565b34801561033a57600080fd5b50610264610349366004613485565b610941565b34801561035a57600080fd5b50610321610369366004613485565b610a12565b34801561037a57600080fd5b50610264610389366004613485565b610a4d565b34801561039a57600080fd5b506102866103a9366004613485565b60009081526097602052604090206001015490565b3480156103ca57600080fd5b506103de6103d9366004613485565b610ac6565b6040516102909594939291906134d6565b3480156103fb57600080fd5b5061026461040a3660046135af565b610b8e565b34801561041b57600080fd5b5061026461042a366004613658565b610bda565b34801561043b57600080fd5b5061026461044a366004613658565b610bef565b34801561045b57600080fd5b5061026461046a366004613684565b610c69565b34801561047b57600080fd5b50610264610d48565b34801561049057600080fd5b506104a461049f36600461369f565b610d7a565b60405161029091906137a4565b6102646104bf3660046137b7565b610ea3565b3480156104d057600080fd5b506102b96104df366004613485565b600090815261012d6020526040902054151590565b34801561050057600080fd5b50610286610f6f565b34801561051557600080fd5b5060c95460ff166102b9565b34801561052d57600080fd5b5061026461053c3660046137fa565b611023565b34801561054d57600080fd5b506102866101c65481565b34801561056457600080fd5b50610264610573366004613485565b611066565b34801561058457600080fd5b50610264610593366004613485565b611107565b3480156105a457600080fd5b506102646105b3366004613485565b611119565b3480156105c457600080fd5b5061026461112b565b3480156105d957600080fd5b506102646112f6565b3480156105ee57600080fd5b506102b96105fd366004613658565b611328565b34801561060e57600080fd5b5061028661061d36600461386d565b611353565b6102646106303660046138d4565b61149b565b34801561064157600080fd5b50610321604051806040016040528060058152602001642920a220a960d91b81525081565b34801561067257600080fd5b50610286600081565b34801561068757600080fd5b50610264610696366004613901565b61157c565b3480156106a757600080fd5b506102866101c35481565b3480156106be57600080fd5b506102866106cd366004613485565b600090815261012d602052604090205490565b3480156106ec57600080fd5b506102866101c55481565b34801561070357600080fd5b50610717610712366004613684565b611587565b604051610290919061393d565b34801561073057600080fd5b5061026461073f3660046133ee565b6116f1565b34801561075057600080fd5b5061026461075f366004613658565b611728565b34801561077057600080fd5b5061026461077f3660046139b3565b61174d565b34801561079057600080fd5b5061079961188f565b60405161029091906139d5565b3480156107b257600080fd5b50610321611a65565b3480156107c757600080fd5b506102b96107d6366004613a6b565b6001600160a01b03918216600090815260666020908152604080832093909416825291909152205460ff1690565b34801561081057600080fd5b5061026461081f366004613a95565b611a85565b34801561083057600080fd5b5061026461083f366004613af9565b611aca565b34801561085057600080fd5b5061026461085f366004613485565b611b0d565b60006001600160a01b0383166108d45760405162461bcd60e51b815260206004820152602a60248201527f455243313135353a2061646472657373207a65726f206973206e6f742061207660448201526930b634b21037bbb732b960b11b60648201526084015b60405180910390fd5b5060008181526065602090815260408083206001600160a01b03861684529091529020545b92915050565b60006108f982611bd7565b7f7804d923f43a17d325d77e781528e0793b2edd9890ab45fc64efd7b4b427744c61093481611bfc565b61093d82611c06565b5050565b60008181526101c460205260409020600301546001600160a01b0316331461097c5760405163388f811f60e01b815260040160405180910390fd5b600260008281526101c4602052604090205460ff1660038111156109a2576109a261349e565b146109c057604051631f0fb6fd60e11b815260040160405180910390fd5b60008181526101c46020908152604091829020805460ff1916600317905590518281527f591913f977ab242c5871f116f36be231ff67df5e8e0bac1efd91fa8a723aca2b91015b60405180910390a150565b6060610a1d82611c12565b610a2683611ca6565b604051602001610a37929190613b2c565b6040516020818303038152906040529050919050565b6000610a5881611bfc565b604051600090339084908381818185875af1925050503d8060008114610a9a576040519150601f19603f3d011682016040523d82523d6000602084013e610a9f565b606091505b5050905080610ac1576040516317f2c34560e31b815260040160405180910390fd5b505050565b6101c4602052600090815260409020805460018201546002830154600384015460048501805460ff90951695939492936001600160a01b0390921692610b0b90613b5b565b80601f0160208091040260200160405190810160405280929190818152602001828054610b3790613b5b565b8015610b845780601f10610b5957610100808354040283529160200191610b84565b820191906000526020600020905b815481529060010190602001808311610b6757829003601f168201915b5050505050905085565b6001600160a01b038516331480610baa5750610baa85336107d6565b610bc65760405162461bcd60e51b81526004016108cb90613b8f565b610bd38585858585611d38565b5050505050565b6000610be581611bfc565b610ac18383611ee5565b6001600160a01b0381163314610c5f5760405162461bcd60e51b815260206004820152602f60248201527f416363657373436f6e74726f6c3a2063616e206f6e6c792072656e6f756e636560448201526e103937b632b9903337b91039b2b63360891b60648201526084016108cb565b61093d8282611f6b565b6001600160a01b037f0000000000000000000000000000000000000000000000000000000000000000163003610cb15760405162461bcd60e51b81526004016108cb90613bdd565b7f00000000000000000000000000000000000000000000000000000000000000006001600160a01b0316610cfa600080516020614236833981519152546001600160a01b031690565b6001600160a01b031614610d205760405162461bcd60e51b81526004016108cb90613c29565b610d2981611fd2565b60408051600080825260208201909252610d4591839190611ffc565b50565b7f65d7a28e3265b37a6474929f336521b332c1681b933f6cb9f3376673440d862a610d7281611bfc565b610d45612167565b60608151835114610ddf5760405162461bcd60e51b815260206004820152602960248201527f455243313135353a206163636f756e747320616e6420696473206c656e677468604482015268040dad2e6dac2e8c6d60bb1b60648201526084016108cb565b600083516001600160401b03811115610dfa57610dfa613339565b604051908082528060200260200182016040528015610e23578160200160208202803683370190505b50905060005b8451811015610e9b57610e6e858281518110610e4757610e47613c75565b6020026020010151858381518110610e6157610e61613c75565b6020026020010151610864565b828281518110610e8057610e80613c75565b6020908102919091010152610e9481613ca1565b9050610e29565b509392505050565b6001600160a01b037f0000000000000000000000000000000000000000000000000000000000000000163003610eeb5760405162461bcd60e51b81526004016108cb90613bdd565b7f00000000000000000000000000000000000000000000000000000000000000006001600160a01b0316610f34600080516020614236833981519152546001600160a01b031690565b6001600160a01b031614610f5a5760405162461bcd60e51b81526004016108cb90613c29565b610f6382611fd2565b61093d82826001611ffc565b6000306001600160a01b037f0000000000000000000000000000000000000000000000000000000000000000161461100f5760405162461bcd60e51b815260206004820152603860248201527f555550535570677261646561626c653a206d757374206e6f742062652063616c60448201527f6c6564207468726f7567682064656c656761746563616c6c000000000000000060648201526084016108cb565b506000805160206142368339815191525b90565b6001600160a01b03831633148061103f575061103f83336107d6565b61105b5760405162461bcd60e51b81526004016108cb90613b8f565b610ac18383836121b9565b600061107181611bfc565b600160008381526101c4602052604090205460ff1660038111156110975761109761349e565b146110b55760405163137c9c1f60e31b815260040160405180910390fd5b60008281526101c46020908152604091829020805460ff1916600217905590518381527f8f4352ac8b4aefdd2333162306bbe09dd4f4ff6661e89ccc4e4dcced8794e8f7910160405180910390a15050565b600061111281611bfc565b506101c355565b600061112481611bfc565b506101c655565b600054610100900460ff161580801561114b5750600054600160ff909116105b806111655750303b158015611165575060005460ff166001145b6111c85760405162461bcd60e51b815260206004820152602e60248201527f496e697469616c697a61626c653a20636f6e747261637420697320616c72656160448201526d191e481a5b9a5d1a585b1a5e995960921b60648201526084016108cb565b6000805460ff1916600117905580156111eb576000805461ff0019166101001790555b6112036040518060200160405280600081525061235a565b61120b61238a565b6112136123b3565b61121b61238a565b61122361238a565b61122b61238a565b611236600033611ee5565b6112607f7804d923f43a17d325d77e781528e0793b2edd9890ab45fc64efd7b4b427744c33611ee5565b61128a7f65d7a28e3265b37a6474929f336521b332c1681b933f6cb9f3376673440d862a33611ee5565b6112b47f189ab7a9244df0848122154315af71fe140f3db0fe014031783b0946b8c9d2e333611ee5565b8015610d45576000805461ff0019169055604051600181527f7f26b83ff96e1f2b6a682f133852f6798a09c465da95921460cefb384740249890602001610a07565b7f65d7a28e3265b37a6474929f336521b332c1681b933f6cb9f3376673440d862a61132081611bfc565b610d456123e2565b60009182526097602090815260408084206001600160a01b0393909316845291905290205460ff1690565b60006101c65485111561137957604051630f0c4c5f60e41b815260040160405180910390fd5b506101c5546040805160a0810190915280600181526020808201889052600060408084018290526001600160a01b038916606085015260809093018690528481526101c49091522081518154829060ff191660018360038111156113df576113df61349e565b0217905550602082015160018201556040820151600282015560608201516003820180546001600160a01b0319166001600160a01b03909216919091179055608082015160048201906114329082613d00565b50506101c580549150600061144683613ca1565b909155505060408051828152602081018790526001600160a01b0386168183015290517f7fe7f72f14a53255f3c9e225ab1d40fdb21335b87a7912726a196fb816866ae09181900360600190a1949350505050565b600260008581526101c4602052604090205460ff1660038111156114c1576114c161349e565b146114df57604051631f0fb6fd60e11b815260040160405180910390fd5b6101c35460008581526101c46020526040902060010154849161150191613dbf565b61150b9190613dd2565b34101561152b57604051631036b5ad60e31b815260040160405180910390fd5b6115378285858461241f565b6101c3546115459084613dd2565b61154f9034613de9565b60008581526101c4602052604081206002018054909190611571908490613dbf565b909155505050505050565b61093d338383612544565b606060006101c5546001600160401b038111156115a6576115a6613339565b6040519080825280602002602001820160405280156115ec57816020015b6040805180820190915260608152600060208201528152602001906001900390816115c45790505b50905060005b6101c5548110156116ea5760405180604001604052806101c46000848152602001908152602001600020600401805461162a90613b5b565b80601f016020809104026020016040519081016040528092919081815260200182805461165690613b5b565b80156116a35780601f10611678576101008083540402835291602001916116a3565b820191906000526020600020905b81548152906001019060200180831161168657829003601f168201915b505050505081526020016116b78684610864565b8152508282815181106116cc576116cc613c75565b602002602001018190525080806116e290613ca1565b9150506115f2565b5092915050565b7f7804d923f43a17d325d77e781528e0793b2edd9890ab45fc64efd7b4b427744c61171b81611bfc565b6101c7610ac18382613d00565b60008281526097602052604090206001015461174381611bfc565b610ac18383611f6b565b60008281526101c460205260409020600301546001600160a01b031633146117885760405163388f811f60e01b815260040160405180910390fd5b60008281526101c460205260409020600201548111156117bb57604051637eafab7d60e01b815260040160405180910390fd5b604051600090339083908381818185875af1925050503d80600081146117fd576040519150601f19603f3d011682016040523d82523d6000602084013e611802565b606091505b5050905080611824576040516317f2c34560e31b815260040160405180910390fd5b60008381526101c4602052604081206002018054849290611846908490613de9565b90915550506040805184815260208101849052338183015290517ff1090e9d5138cd4909542e10e1da576730b07eb291a71a151e63160dde345b949181900360600190a1505050565b606060006101c5546001600160401b038111156118ae576118ae613339565b60405190808252806020026020018201604052801561191b57816020015b6119086040805160a081019091528060008152602001600081526020016000815260200160006001600160a01b03168152602001606081525090565b8152602001906001900390816118cc5790505b50905060005b6101c554811015611a5f5760008181526101c4602052604090819020815160a081019092528054829060ff16600381111561195e5761195e61349e565b600381111561196f5761196f61349e565b8152600182015460208201526002820154604082015260038201546001600160a01b031660608201526004820180546080909201916119ad90613b5b565b80601f01602080910402602001604051908101604052809291908181526020018280546119d990613b5b565b8015611a265780601f106119fb57610100808354040283529160200191611a26565b820191906000526020600020905b815481529060010190602001808311611a0957829003601f168201915b505050505081525050828281518110611a4157611a41613c75565b60200260200101819052508080611a5790613ca1565b915050611921565b50919050565b606060405180606001604052806024815260200161427d60249139905090565b6001600160a01b038516331480611aa15750611aa185336107d6565b611abd5760405162461bcd60e51b81526004016108cb90613b8f565b610bd38585858585612624565b6001600160a01b038316331480611ae65750611ae683336107d6565b611b025760405162461bcd60e51b81526004016108cb90613b8f565b610ac1838383612760565b60008181526101c460205260409020600301546001600160a01b03163314611b485760405163388f811f60e01b815260040160405180910390fd5b600360008281526101c4602052604090205460ff166003811115611b6e57611b6e61349e565b14611b8c5760405163968807a560e01b815260040160405180910390fd5b60008181526101c46020908152604091829020805460ff1916600217905590518281527f63bb17c9645a29322601b4fe88d8f3fa84f32229368294f903084be8f5d813ba9101610a07565b60006001600160e01b03198216637965db0b60e01b14806108f957506108f98261287c565b610d4581336128cc565b606761093d8282613d00565b606060678054611c2190613b5b565b80601f0160208091040260200160405190810160405280929190818152602001828054611c4d90613b5b565b8015611c9a5780601f10611c6f57610100808354040283529160200191611c9a565b820191906000526020600020905b815481529060010190602001808311611c7d57829003601f168201915b50505050509050919050565b60606000611cb383612925565b60010190506000816001600160401b03811115611cd257611cd2613339565b6040519080825280601f01601f191660200182016040528015611cfc576020820181803683370190505b5090508181016020015b600019016f181899199a1a9b1b9c1cb0b131b232b360811b600a86061a8153600a8504945084611d0657509392505050565b8151835114611d595760405162461bcd60e51b81526004016108cb90613dfc565b6001600160a01b038416611d7f5760405162461bcd60e51b81526004016108cb90613e44565b33611d8e8187878787876129fd565b60005b8451811015611e77576000858281518110611dae57611dae613c75565b602002602001015190506000858381518110611dcc57611dcc613c75565b60209081029190910181015160008481526065835260408082206001600160a01b038e168352909352919091205490915081811015611e1d5760405162461bcd60e51b81526004016108cb90613e89565b60008381526065602090815260408083206001600160a01b038e8116855292528083208585039055908b16825281208054849290611e5c908490613dbf565b9250508190555050505080611e7090613ca1565b9050611d91565b50846001600160a01b0316866001600160a01b0316826001600160a01b03167f4a39dc06d4c0dbc64b70af90fd698a233a518aa5d07e595d983b8c0526c8f7fb8787604051611ec7929190613ed3565b60405180910390a4611edd818787878787612a13565b505050505050565b611eef8282611328565b61093d5760008281526097602090815260408083206001600160a01b03851684529091529020805460ff19166001179055611f273390565b6001600160a01b0316816001600160a01b0316837f2f8788117e7eff1d82e926ec794901d17c78024a50270940304540a733656f0d60405160405180910390a45050565b611f758282611328565b1561093d5760008281526097602090815260408083206001600160a01b0385168085529252808320805460ff1916905551339285917ff6391f5c32d9c69d2a47ea670b442974b53935d1edc7fd64eb21e047a839171b9190a45050565b7f189ab7a9244df0848122154315af71fe140f3db0fe014031783b0946b8c9d2e361093d81611bfc565b7f4910fdfa16fed3260ed0e7147f7cc6da11a60208b5b9406d12a635614ffd91435460ff161561202f57610ac183612b6e565b826001600160a01b03166352d1902d6040518163ffffffff1660e01b8152600401602060405180830381865afa925050508015612089575060408051601f3d908101601f1916820190925261208691810190613f01565b60015b6120ec5760405162461bcd60e51b815260206004820152602e60248201527f45524331393637557067726164653a206e657720696d706c656d656e7461746960448201526d6f6e206973206e6f74205555505360901b60648201526084016108cb565b600080516020614236833981519152811461215b5760405162461bcd60e51b815260206004820152602960248201527f45524331393637557067726164653a20756e737570706f727465642070726f786044820152681a58589b195555525160ba1b60648201526084016108cb565b50610ac1838383612c0a565b61216f612c2f565b60c9805460ff191690557f5db9ee0a495bf2e6ff9c91a7834c1ba4fdd244a5e8aa4e537bd38aeae4b073aa335b6040516001600160a01b03909116815260200160405180910390a1565b6001600160a01b0383166121df5760405162461bcd60e51b81526004016108cb90613f1a565b80518251146122005760405162461bcd60e51b81526004016108cb90613dfc565b6000339050612223818560008686604051806020016040528060008152506129fd565b60005b83518110156122eb57600084828151811061224357612243613c75565b60200260200101519050600084838151811061226157612261613c75565b60209081029190910181015160008481526065835260408082206001600160a01b038c1683529093529190912054909150818110156122b25760405162461bcd60e51b81526004016108cb90613f5d565b60009283526065602090815260408085206001600160a01b038b16865290915290922091039055806122e381613ca1565b915050612226565b5060006001600160a01b0316846001600160a01b0316826001600160a01b03167f4a39dc06d4c0dbc64b70af90fd698a233a518aa5d07e595d983b8c0526c8f7fb868660405161233c929190613ed3565b60405180910390a46040805160208101909152600090525b50505050565b600054610100900460ff166123815760405162461bcd60e51b81526004016108cb90613fa1565b610d4581612c78565b600054610100900460ff166123b15760405162461bcd60e51b81526004016108cb90613fa1565b565b600054610100900460ff166123da5760405162461bcd60e51b81526004016108cb90613fa1565b6123b1612ca8565b6123ea612cdb565b60c9805460ff191660011790557f62e78cea01bee320cd4e420270b5ea74000d11b0c9f74754ebdbfc544b05a25861219c3390565b6001600160a01b03841661247f5760405162461bcd60e51b815260206004820152602160248201527f455243313135353a206d696e7420746f20746865207a65726f206164647265736044820152607360f81b60648201526084016108cb565b33600061248b85612d21565b9050600061249885612d21565b90506124a9836000898585896129fd565b60008681526065602090815260408083206001600160a01b038b168452909152812080548792906124db908490613dbf565b909155505060408051878152602081018790526001600160a01b03808a1692600092918716917fc3d58168c5ae7397731d063d5bbf3d657854427343f4c083240f7aacaa2d0f62910160405180910390a461253b83600089898989612d6c565b50505050505050565b816001600160a01b0316836001600160a01b0316036125b75760405162461bcd60e51b815260206004820152602960248201527f455243313135353a2073657474696e6720617070726f76616c20737461747573604482015268103337b91039b2b63360b91b60648201526084016108cb565b6001600160a01b03838116600081815260666020908152604080832094871680845294825291829020805460ff191686151590811790915591519182527f17307eab39ab6107e8899845ad3d59bd9653f200f220920489ca2b5937696c31910160405180910390a3505050565b6001600160a01b03841661264a5760405162461bcd60e51b81526004016108cb90613e44565b33600061265685612d21565b9050600061266385612d21565b90506126738389898585896129fd565b60008681526065602090815260408083206001600160a01b038c168452909152902054858110156126b65760405162461bcd60e51b81526004016108cb90613e89565b60008781526065602090815260408083206001600160a01b038d8116855292528083208985039055908a168252812080548892906126f5908490613dbf565b909155505060408051888152602081018890526001600160a01b03808b16928c821692918816917fc3d58168c5ae7397731d063d5bbf3d657854427343f4c083240f7aacaa2d0f62910160405180910390a4612755848a8a8a8a8a612d6c565b505050505050505050565b6001600160a01b0383166127865760405162461bcd60e51b81526004016108cb90613f1a565b33600061279284612d21565b9050600061279f84612d21565b90506127bf838760008585604051806020016040528060008152506129fd565b60008581526065602090815260408083206001600160a01b038a168452909152902054848110156128025760405162461bcd60e51b81526004016108cb90613f5d565b60008681526065602090815260408083206001600160a01b038b81168086529184528285208a8703905582518b81529384018a90529092908816917fc3d58168c5ae7397731d063d5bbf3d657854427343f4c083240f7aacaa2d0f62910160405180910390a460408051602081019091526000905261253b565b60006001600160e01b03198216636cdb3d1360e11b14806128ad57506001600160e01b031982166303a24d0760e21b145b806108f957506301ffc9a760e01b6001600160e01b03198316146108f9565b6128d68282611328565b61093d576128e381612e27565b6128ee836020612e39565b6040516020016128ff929190613fec565b60408051601f198184030181529082905262461bcd60e51b82526108cb91600401613472565b60008072184f03e93ff9f4daa797ed6e38ed64bf6a1f0160401b83106129645772184f03e93ff9f4daa797ed6e38ed64bf6a1f0160401b830492506040015b6d04ee2d6d415b85acef81000000008310612990576d04ee2d6d415b85acef8100000000830492506020015b662386f26fc1000083106129ae57662386f26fc10000830492506010015b6305f5e10083106129c6576305f5e100830492506008015b61271083106129da57612710830492506004015b606483106129ec576064830492506002015b600a83106108f95760010192915050565b612a05612cdb565b611edd868686868686612fdb565b6001600160a01b0384163b15611edd5760405163bc197c8160e01b81526001600160a01b0385169063bc197c8190612a579089908990889088908890600401614061565b6020604051808303816000875af1925050508015612a92575060408051601f3d908101601f19168201909252612a8f918101906140bf565b60015b612b3e57612a9e6140dc565b806308c379a003612ad75750612ab26140f7565b80612abd5750612ad9565b8060405162461bcd60e51b81526004016108cb9190613472565b505b60405162461bcd60e51b815260206004820152603460248201527f455243313135353a207472616e7366657220746f206e6f6e2d455243313135356044820152732932b1b2b4bb32b91034b6b83632b6b2b73a32b960611b60648201526084016108cb565b6001600160e01b0319811663bc197c8160e01b1461253b5760405162461bcd60e51b81526004016108cb90614180565b6001600160a01b0381163b612bdb5760405162461bcd60e51b815260206004820152602d60248201527f455243313936373a206e657720696d706c656d656e746174696f6e206973206e60448201526c1bdd08184818dbdb9d1c9858dd609a1b60648201526084016108cb565b60008051602061423683398151915280546001600160a01b0319166001600160a01b0392909216919091179055565b612c1383613157565b600082511180612c205750805b15610ac1576123548383613197565b60c95460ff166123b15760405162461bcd60e51b815260206004820152601460248201527314185d5cd8589b194e881b9bdd081c185d5cd95960621b60448201526064016108cb565b600054610100900460ff16612c9f5760405162461bcd60e51b81526004016108cb90613fa1565b610d4581611c06565b600054610100900460ff16612ccf5760405162461bcd60e51b81526004016108cb90613fa1565b60c9805460ff19169055565b60c95460ff16156123b15760405162461bcd60e51b815260206004820152601060248201526f14185d5cd8589b194e881c185d5cd95960821b60448201526064016108cb565b60408051600180825281830190925260609160009190602080830190803683370190505090508281600081518110612d5b57612d5b613c75565b602090810291909101015292915050565b6001600160a01b0384163b15611edd5760405163f23a6e6160e01b81526001600160a01b0385169063f23a6e6190612db090899089908890889088906004016141c8565b6020604051808303816000875af1925050508015612deb575060408051601f3d908101601f19168201909252612de8918101906140bf565b60015b612df757612a9e6140dc565b6001600160e01b0319811663f23a6e6160e01b1461253b5760405162461bcd60e51b81526004016108cb90614180565b60606108f96001600160a01b03831660145b60606000612e48836002613dd2565b612e53906002613dbf565b6001600160401b03811115612e6a57612e6a613339565b6040519080825280601f01601f191660200182016040528015612e94576020820181803683370190505b509050600360fc1b81600081518110612eaf57612eaf613c75565b60200101906001600160f81b031916908160001a905350600f60fb1b81600181518110612ede57612ede613c75565b60200101906001600160f81b031916908160001a9053506000612f02846002613dd2565b612f0d906001613dbf565b90505b6001811115612f85576f181899199a1a9b1b9c1cb0b131b232b360811b85600f1660108110612f4157612f41613c75565b1a60f81b828281518110612f5757612f57613c75565b60200101906001600160f81b031916908160001a90535060049490941c93612f7e81614202565b9050612f10565b508315612fd45760405162461bcd60e51b815260206004820181905260248201527f537472696e67733a20686578206c656e67746820696e73756666696369656e7460448201526064016108cb565b9392505050565b6001600160a01b0385166130635760005b83518110156130615782818151811061300757613007613c75565b602002602001015161012d600086848151811061302657613026613c75565b60200260200101518152602001908152602001600020600082825461304b9190613dbf565b9091555061305a905081613ca1565b9050612fec565b505b6001600160a01b038416611edd5760005b835181101561253b57600084828151811061309157613091613c75565b6020026020010151905060008483815181106130af576130af613c75565b60200260200101519050600061012d6000848152602001908152602001600020549050818110156131335760405162461bcd60e51b815260206004820152602860248201527f455243313135353a206275726e20616d6f756e74206578636565647320746f74604482015267616c537570706c7960c01b60648201526084016108cb565b600092835261012d60205260409092209103905561315081613ca1565b9050613074565b61316081612b6e565b6040516001600160a01b038216907fbc7cd75a20ee27fd9adebab32041f755214dbc6bffa90cc0225b39da2e5c2d3b90600090a250565b6060612fd48383604051806060016040528060278152602001614256602791396060600080856001600160a01b0316856040516131d49190614219565b600060405180830381855af49150503d806000811461320f576040519150601f19603f3d011682016040523d82523d6000602084013e613214565b606091505b50915091506132258683838761322f565b9695505050505050565b6060831561329e578251600003613297576001600160a01b0385163b6132975760405162461bcd60e51b815260206004820152601d60248201527f416464726573733a2063616c6c20746f206e6f6e2d636f6e747261637400000060448201526064016108cb565b50816132a8565b6132a883836132b0565b949350505050565b815115612abd5781518083602001fd5b80356001600160a01b03811681146132d757600080fd5b919050565b600080604083850312156132ef57600080fd5b6132f8836132c0565b946020939093013593505050565b6001600160e01b031981168114610d4557600080fd5b60006020828403121561332e57600080fd5b8135612fd481613306565b634e487b7160e01b600052604160045260246000fd5b601f8201601f191681016001600160401b038111828210171561337457613374613339565b6040525050565b600082601f83011261338c57600080fd5b81356001600160401b038111156133a5576133a5613339565b6040516133bc601f8301601f19166020018261334f565b8181528460208386010111156133d157600080fd5b816020850160208301376000918101602001919091529392505050565b60006020828403121561340057600080fd5b81356001600160401b0381111561341657600080fd5b6132a88482850161337b565b60005b8381101561343d578181015183820152602001613425565b50506000910152565b6000815180845261345e816020860160208601613422565b601f01601f19169290920160200192915050565b602081526000612fd46020830184613446565b60006020828403121561349757600080fd5b5035919050565b634e487b7160e01b600052602160045260246000fd5b600481106134d257634e487b7160e01b600052602160045260246000fd5b9052565b6134e081876134b4565b84602082015283604082015260018060a01b038316606082015260a06080820152600061351060a0830184613446565b979650505050505050565b60006001600160401b0382111561353457613534613339565b5060051b60200190565b600082601f83011261354f57600080fd5b8135602061355c8261351b565b604051613569828261334f565b83815260059390931b850182019282810191508684111561358957600080fd5b8286015b848110156135a4578035835291830191830161358d565b509695505050505050565b600080600080600060a086880312156135c757600080fd5b6135d0866132c0565b94506135de602087016132c0565b935060408601356001600160401b03808211156135fa57600080fd5b61360689838a0161353e565b9450606088013591508082111561361c57600080fd5b61362889838a0161353e565b9350608088013591508082111561363e57600080fd5b5061364b8882890161337b565b9150509295509295909350565b6000806040838503121561366b57600080fd5b8235915061367b602084016132c0565b90509250929050565b60006020828403121561369657600080fd5b612fd4826132c0565b600080604083850312156136b257600080fd5b82356001600160401b03808211156136c957600080fd5b818501915085601f8301126136dd57600080fd5b813560206136ea8261351b565b6040516136f7828261334f565b83815260059390931b850182019282810191508984111561371757600080fd5b948201945b8386101561373c5761372d866132c0565b8252948201949082019061371c565b9650508601359250508082111561375257600080fd5b5061375f8582860161353e565b9150509250929050565b600081518084526020808501945080840160005b838110156137995781518752958201959082019060010161377d565b509495945050505050565b602081526000612fd46020830184613769565b600080604083850312156137ca57600080fd5b6137d3836132c0565b915060208301356001600160401b038111156137ee57600080fd5b61375f8582860161337b565b60008060006060848603121561380f57600080fd5b613818846132c0565b925060208401356001600160401b038082111561383457600080fd5b6138408783880161353e565b9350604086013591508082111561385657600080fd5b506138638682870161353e565b9150509250925092565b6000806000806080858703121561388357600080fd5b84359350613893602086016132c0565b92506138a1604086016132c0565b915060608501356001600160401b038111156138bc57600080fd5b6138c88782880161337b565b91505092959194509250565b600080600080608085870312156138ea57600080fd5b84359350602085013592506138a1604086016132c0565b6000806040838503121561391457600080fd5b61391d836132c0565b91506020830135801515811461393257600080fd5b809150509250929050565b60006020808301818452808551808352604092508286019150828160051b87010184880160005b838110156139a557888303603f190185528151805187855261398888860182613446565b918901519489019490945294870194925090860190600101613964565b509098975050505050505050565b600080604083850312156139c657600080fd5b50508035926020909101359150565b60006020808301818452808551808352604092508286019150828160051b87010184880160005b838110156139a557603f19898403018552815160a0613a1c8583516134b4565b81890151858a015287820151888601526060808301516001600160a01b031690860152608091820151918501819052613a5781860183613446565b9689019694505050908601906001016139fc565b60008060408385031215613a7e57600080fd5b613a87836132c0565b915061367b602084016132c0565b600080600080600060a08688031215613aad57600080fd5b613ab6866132c0565b9450613ac4602087016132c0565b9350604086013592506060860135915060808601356001600160401b03811115613aed57600080fd5b61364b8882890161337b565b600080600060608486031215613b0e57600080fd5b613b17846132c0565b95602085013595506040909401359392505050565b60008351613b3e818460208801613422565b835190830190613b52818360208801613422565b01949350505050565b600181811c90821680613b6f57607f821691505b602082108103611a5f57634e487b7160e01b600052602260045260246000fd5b6020808252602e908201527f455243313135353a2063616c6c6572206973206e6f7420746f6b656e206f776e60408201526d195c881bdc88185c1c1c9bdd995960921b606082015260800190565b6020808252602c908201527f46756e6374696f6e206d7573742062652063616c6c6564207468726f7567682060408201526b19195b1959d85d1958d85b1b60a21b606082015260800190565b6020808252602c908201527f46756e6374696f6e206d7573742062652063616c6c6564207468726f7567682060408201526b6163746976652070726f787960a01b606082015260800190565b634e487b7160e01b600052603260045260246000fd5b634e487b7160e01b600052601160045260246000fd5b600060018201613cb357613cb3613c8b565b5060010190565b601f821115610ac157600081815260208120601f850160051c81016020861015613ce15750805b601f850160051c820191505b81811015611edd57828155600101613ced565b81516001600160401b03811115613d1957613d19613339565b613d2d81613d278454613b5b565b84613cba565b602080601f831160018114613d625760008415613d4a5750858301515b600019600386901b1c1916600185901b178555611edd565b600085815260208120601f198616915b82811015613d9157888601518255948401946001909101908401613d72565b5085821015613daf5787850151600019600388901b60f8161c191681555b5050505050600190811b01905550565b808201808211156108f9576108f9613c8b565b80820281158282048414176108f9576108f9613c8b565b818103818111156108f9576108f9613c8b565b60208082526028908201527f455243313135353a2069647320616e6420616d6f756e7473206c656e677468206040820152670dad2e6dac2e8c6d60c31b606082015260800190565b60208082526025908201527f455243313135353a207472616e7366657220746f20746865207a65726f206164604082015264647265737360d81b606082015260800190565b6020808252602a908201527f455243313135353a20696e73756666696369656e742062616c616e636520666f60408201526939103a3930b739b332b960b11b606082015260800190565b604081526000613ee66040830185613769565b8281036020840152613ef88185613769565b95945050505050565b600060208284031215613f1357600080fd5b5051919050565b60208082526023908201527f455243313135353a206275726e2066726f6d20746865207a65726f206164647260408201526265737360e81b606082015260800190565b60208082526024908201527f455243313135353a206275726e20616d6f756e7420657863656564732062616c604082015263616e636560e01b606082015260800190565b6020808252602b908201527f496e697469616c697a61626c653a20636f6e7472616374206973206e6f74206960408201526a6e697469616c697a696e6760a81b606082015260800190565b7f416363657373436f6e74726f6c3a206163636f756e7420000000000000000000815260008351614024816017850160208801613422565b7001034b99036b4b9b9b4b733903937b6329607d1b6017918401918201528351614055816028840160208801613422565b01602801949350505050565b6001600160a01b0386811682528516602082015260a06040820181905260009061408d90830186613769565b828103606084015261409f8186613769565b905082810360808401526140b38185613446565b98975050505050505050565b6000602082840312156140d157600080fd5b8151612fd481613306565b600060033d11156110205760046000803e5060005160e01c90565b600060443d10156141055790565b6040516003193d81016004833e81513d6001600160401b03816024840111818411171561413457505050505090565b828501915081518181111561414c5750505050505090565b843d87010160208285010111156141665750505050505090565b6141756020828601018761334f565b509095945050505050565b60208082526028908201527f455243313135353a204552433131353552656365697665722072656a656374656040820152676420746f6b656e7360c01b606082015260800190565b6001600160a01b03868116825285166020820152604081018490526060810183905260a06080820181905260009061351090830184613446565b60008161421157614211613c8b565b506000190190565b6000825161422b818460208701613422565b919091019291505056fe360894a13ba1a3210667c828492db98dca3e2076cc3735a920a3ca505d382bbc416464726573733a206c6f772d6c6576656c2064656c65676174652063616c6c206661696c656468747470733a2f2f72616461726c61756e63682e6170702f6170692f6d65746164617461a26469706673582212206844650a978b8dbb32fdc39220efea3d4468c8be1255be7233a456357fd2630864736f6c63430008130033",
  "linkReferences": {},
  "deployedLinkReferences": {}
}