{
  "_format": "hh-sol-artifact-1",
  "contractName": "RadarEditions",
  "sourceName": "src/RadarEditions.sol",
  "abi": [
    {
      "inputs": [],
      "name": "EditionFeeExceedsMaximumFee",
      "type": "error"
    },
    {
      "inputs": [],
      "name": "EditionNotCreated",
      "type": "error"
    },
    {
      "inputs": [],
      "name": "EditionNotEnoughBalance",
      "type": "error"
    },
    {
      "inputs": [],
      "name": "EditionNotLaunched",
      "type": "error"
    },
    {
      "inputs": [],
      "name": "EditionNotStopped",
      "type": "error"
    },
    {
      "inputs": [],
      "name": "NotCorrectUser",
      "type": "error"
    },
    {
      "inputs": [],
      "name": "NotEditionOwner",
      "type": "error"
    },
    {
      "inputs": [],
      "name": "NotEnoughFees",
      "type": "error"
    },
    {
      "inputs": [],
      "name": "NotEnoughFunds",
      "type": "error"
    },
    {
      "inputs": [],
      "name": "TransactionFailed",
      "type": "error"
    },
    {
      "anonymous": false,
      "inputs": [
        {
          "indexed": false,
          "internalType": "address",
          "name": "previousAdmin",
          "type": "address"
        },
        {
          "indexed": false,
          "internalType": "address",
          "name": "newAdmin",
          "type": "address"
        }
      ],
      "name": "AdminChanged",
      "type": "event"
    },
    {
      "anonymous": false,
      "inputs": [
        {
          "indexed": true,
          "internalType": "address",
          "name": "account",
          "type": "address"
        },
        {
          "indexed": true,
          "internalType": "address",
          "name": "operator",
          "type": "address"
        },
        {
          "indexed": false,
          "internalType": "bool",
          "name": "approved",
          "type": "bool"
        }
      ],
      "name": "ApprovalForAll",
      "type": "event"
    },
    {
      "anonymous": false,
      "inputs": [
        {
          "indexed": true,
          "internalType": "address",
          "name": "beacon",
          "type": "address"
        }
      ],
      "name": "BeaconUpgraded",
      "type": "event"
    },
    {
      "anonymous": false,
      "inputs": [
        {
          "indexed": false,
          "internalType": "uint256",
          "name": "editionId",
          "type": "uint256"
        }
      ],
      "name": "EditionApproved",
      "type": "event"
    },
    {
      "anonymous": false,
      "inputs": [
        {
          "indexed": false,
          "internalType": "uint256",
          "name": "editionId",
          "type": "uint256"
        },
        {
          "indexed": false,
          "internalType": "uint256",
          "name": "amount",
          "type": "uint256"
        },
        {
          "indexed": false,
          "internalType": "address",
          "name": "owner",
          "type": "address"
        }
      ],
      "name": "EditionBalanceWithdrawn",
      "type": "event"
    },
    {
      "anonymous": false,
      "inputs": [
        {
          "indexed": true,
          "internalType": "uint256",
          "name": "editionId",
          "type": "uint256"
        },
        {
          "indexed": true,
          "internalType": "address",
          "name": "believer",
          "type": "address"
        }
      ],
      "name": "EditionBeliefRemoved",
      "type": "event"
    },
    {
      "anonymous": false,
      "inputs": [
        {
          "indexed": true,
          "internalType": "uint256",
          "name": "editionId",
          "type": "uint256"
        },
        {
          "indexed": true,
          "internalType": "address",
          "name": "believer",
          "type": "address"
        },
        {
          "indexed": false,
          "internalType": "string",
          "name": "tags",
          "type": "string"
        }
      ],
      "name": "EditionBelieved",
      "type": "event"
    },
    {
      "anonymous": false,
      "inputs": [
        {
          "indexed": false,
          "internalType": "uint256",
          "name": "editionId",
          "type": "uint256"
        },
        {
          "indexed": false,
          "internalType": "string",
          "name": "briefId",
          "type": "string"
        },
        {
          "indexed": false,
          "internalType": "uint256",
          "name": "fee",
          "type": "uint256"
        },
        {
          "indexed": false,
          "internalType": "address",
          "name": "owner",
          "type": "address"
        }
      ],
      "name": "EditionCreated",
      "type": "event"
    },
    {
      "anonymous": false,
      "inputs": [
        {
          "indexed": false,
          "internalType": "uint256",
          "name": "editionId",
          "type": "uint256"
        }
      ],
      "name": "EditionResumed",
      "type": "event"
    },
    {
      "anonymous": false,
      "inputs": [
        {
          "indexed": false,
          "internalType": "uint256",
          "name": "editionId",
          "type": "uint256"
        }
      ],
      "name": "EditionStopped",
      "type": "event"
    },
    {
      "anonymous": false,
      "inputs": [
        {
          "indexed": false,
          "internalType": "uint8",
          "name": "version",
          "type": "uint8"
        }
      ],
      "name": "Initialized",
      "type": "event"
    },
    {
      "anonymous": false,
      "inputs": [
        {
          "indexed": false,
          "internalType": "address",
          "name": "account",
          "type": "address"
        }
      ],
      "name": "Paused",
      "type": "event"
    },
    {
      "anonymous": false,
      "inputs": [
        {
          "indexed": true,
          "internalType": "bytes32",
          "name": "role",
          "type": "bytes32"
        },
        {
          "indexed": true,
          "internalType": "bytes32",
          "name": "previousAdminRole",
          "type": "bytes32"
        },
        {
          "indexed": true,
          "internalType": "bytes32",
          "name": "newAdminRole",
          "type": "bytes32"
        }
      ],
      "name": "RoleAdminChanged",
      "type": "event"
    },
    {
      "anonymous": false,
      "inputs": [
        {
          "indexed": true,
          "internalType": "bytes32",
          "name": "role",
          "type": "bytes32"
        },
        {
          "indexed": true,
          "internalType": "address",
          "name": "account",
          "type": "address"
        },
        {
          "indexed": true,
          "internalType": "address",
          "name": "sender",
          "type": "address"
        }
      ],
      "name": "RoleGranted",
      "type": "event"
    },
    {
      "anonymous": false,
      "inputs": [
        {
          "indexed": true,
          "internalType": "bytes32",
          "name": "role",
          "type": "bytes32"
        },
        {
          "indexed": true,
          "internalType": "address",
          "name": "account",
          "type": "address"
        },
        {
          "indexed": true,
          "internalType": "address",
          "name": "sender",
          "type": "address"
        }
      ],
      "name": "RoleRevoked",
      "type": "event"
    },
    {
      "anonymous": false,
      "inputs": [
        {
          "indexed": true,
          "internalType": "address",
          "name": "operator",
          "type": "address"
        },
        {
          "indexed": true,
          "internalType": "address",
          "name": "from",
          "type": "address"
        },
        {
          "indexed": true,
          "internalType": "address",
          "name": "to",
          "type": "address"
        },
        {
          "indexed": false,
          "internalType": "uint256[]",
          "name": "ids",
          "type": "uint256[]"
        },
        {
          "indexed": false,
          "internalType": "uint256[]",
          "name": "values",
          "type": "uint256[]"
        }
      ],
      "name": "TransferBatch",
      "type": "event"
    },
    {
      "anonymous": false,
      "inputs": [
        {
          "indexed": true,
          "internalType": "address",
          "name": "operator",
          "type": "address"
        },
        {
          "indexed": true,
          "internalType": "address",
          "name": "from",
          "type": "address"
        },
        {
          "indexed": true,
          "internalType": "address",
          "name": "to",
          "type": "address"
        },
        {
          "indexed": false,
          "internalType": "uint256",
          "name": "id",
          "type": "uint256"
        },
        {
          "indexed": false,
          "internalType": "uint256",
          "name": "value",
          "type": "uint256"
        }
      ],
      "name": "TransferSingle",
      "type": "event"
    },
    {
      "anonymous": false,
      "inputs": [
        {
          "indexed": false,
          "internalType": "string",
          "name": "value",
          "type": "string"
        },
        {
          "indexed": true,
          "internalType": "uint256",
          "name": "id",
          "type": "uint256"
        }
      ],
      "name": "URI",
      "type": "event"
    },
    {
      "anonymous": false,
      "inputs": [
        {
          "indexed": false,
          "internalType": "address",
          "name": "account",
          "type": "address"
        }
      ],
      "name": "Unpaused",
      "type": "event"
    },
    {
      "anonymous": false,
      "inputs": [
        {
          "indexed": true,
          "internalType": "address",
          "name": "implementation",
          "type": "address"
        }
      ],
      "name": "Upgraded",
      "type": "event"
    },
    {
      "stateMutability": "payable",
      "type": "fallback"
    },
    {
      "inputs": [],
      "name": "DEFAULT_ADMIN_ROLE",
      "outputs": [
        {
          "internalType": "bytes32",
          "name": "",
          "type": "bytes32"
        }
      ],
      "stateMutability": "view",
      "type": "function"
    },
    {
      "inputs": [
        {
          "internalType": "uint256",
          "name": "editionId",
          "type": "uint256"
        }
      ],
      "name": "approveEdition",
      "outputs": [],
      "stateMutability": "nonpayable",
      "type": "function"
    },
    {
      "inputs": [
        {
          "internalType": "address",
          "name": "account",
          "type": "address"
        },
        {
          "internalType": "uint256",
          "name": "id",
          "type": "uint256"
        }
      ],
      "name": "balanceOf",
      "outputs": [
        {
          "internalType": "uint256",
          "name": "",
          "type": "uint256"
        }
      ],
      "stateMutability": "view",
      "type": "function"
    },
    {
      "inputs": [
        {
          "internalType": "address[]",
          "name": "accounts",
          "type": "address[]"
        },
        {
          "internalType": "uint256[]",
          "name": "ids",
          "type": "uint256[]"
        }
      ],
      "name": "balanceOfBatch",
      "outputs": [
        {
          "internalType": "uint256[]",
          "name": "",
          "type": "uint256[]"
        }
      ],
      "stateMutability": "view",
      "type": "function"
    },
    {
      "inputs": [
        {
          "internalType": "address",
          "name": "user",
          "type": "address"
        }
      ],
      "name": "balances",
      "outputs": [
        {
          "internalType": "uint256",
          "name": "balance",
          "type": "uint256"
        }
      ],
      "stateMutability": "view",
      "type": "function"
    },
    {
      "inputs": [
        {
          "internalType": "uint256",
          "name": "editionId",
          "type": "uint256"
        },
        {
          "internalType": "string",
          "name": "tags",
          "type": "string"
        }
      ],
      "name": "believeProject",
      "outputs": [],
      "stateMutability": "payable",
      "type": "function"
    },
    {
      "inputs": [
        {
          "internalType": "address",
          "name": "account",
          "type": "address"
        },
        {
          "internalType": "uint256",
          "name": "id",
          "type": "uint256"
        },
        {
          "internalType": "uint256",
          "name": "value",
          "type": "uint256"
        }
      ],
      "name": "burn",
      "outputs": [],
      "stateMutability": "nonpayable",
      "type": "function"
    },
    {
      "inputs": [
        {
          "internalType": "address",
          "name": "account",
          "type": "address"
        },
        {
          "internalType": "uint256[]",
          "name": "ids",
          "type": "uint256[]"
        },
        {
          "internalType": "uint256[]",
          "name": "values",
          "type": "uint256[]"
        }
      ],
      "name": "burnBatch",
      "outputs": [],
      "stateMutability": "nonpayable",
      "type": "function"
    },
    {
      "inputs": [],
      "name": "contractURI",
      "outputs": [
        {
          "internalType": "string",
          "name": "",
          "type": "string"
        }
      ],
      "stateMutability": "view",
      "type": "function"
    },
    {
      "inputs": [
        {
          "internalType": "uint256",
          "name": "fee",
          "type": "uint256"
        },
        {
          "internalType": "address",
          "name": "owner",
          "type": "address"
        },
        {
          "internalType": "address",
          "name": "payer",
          "type": "address"
        },
        {
          "internalType": "string",
          "name": "id",
          "type": "string"
        },
        {
          "internalType": "string",
          "name": "briefId",
          "type": "string"
        }
      ],
      "name": "createEdition",
      "outputs": [
        {
          "internalType": "uint256",
          "name": "editionId",
          "type": "uint256"
        }
      ],
      "stateMutability": "nonpayable",
      "type": "function"
    },
    {
      "inputs": [],
      "name": "editionCounter",
      "outputs": [
        {
          "internalType": "uint256",
          "name": "",
          "type": "uint256"
        }
      ],
      "stateMutability": "view",
      "type": "function"
    },
    {
      "inputs": [
        {
          "internalType": "uint256",
          "name": "",
          "type": "uint256"
        }
      ],
      "name": "editions",
      "outputs": [
        {
          "internalType": "enum EditionsStructs.EditionStatus",
          "name": "status",
          "type": "uint8"
        },
        {
          "internalType": "uint256",
          "name": "fee",
          "type": "uint256"
        },
        {
          "internalType": "uint256",
          "name": "balance",
          "type": "uint256"
        },
        {
          "internalType": "address",
          "name": "owner",
          "type": "address"
        },
        {
          "internalType": "string",
          "name": "id",
          "type": "string"
        },
        {
          "internalType": "string",
          "name": "briefId",
          "type": "string"
        }
      ],
      "stateMutability": "view",
      "type": "function"
    },
    {
      "inputs": [
        {
          "internalType": "uint256",
          "name": "id",
          "type": "uint256"
        }
      ],
      "name": "exists",
      "outputs": [
        {
          "internalType": "bool",
          "name": "",
          "type": "bool"
        }
      ],
      "stateMutability": "view",
      "type": "function"
    },
    {
      "inputs": [],
      "name": "futureFundFee",
      "outputs": [
        {
          "internalType": "uint256",
          "name": "",
          "type": "uint256"
        }
      ],
      "stateMutability": "view",
      "type": "function"
    },
    {
      "inputs": [
        {
          "internalType": "address",
          "name": "owner",
          "type": "address"
        }
      ],
      "name": "getBalances",
      "outputs": [
        {
          "components": [
            {
              "internalType": "string",
              "name": "id",
              "type": "string"
            },
            {
              "internalType": "uint256",
              "name": "amount",
              "type": "uint256"
            }
          ],
          "internalType": "struct EditionsStructs.EditionIdWithAmount[]",
          "name": "",
          "type": "tuple[]"
        }
      ],
      "stateMutability": "view",
      "type": "function"
    },
    {
      "inputs": [],
      "name": "getEditions",
      "outputs": [
        {
          "components": [
            {
              "internalType": "enum EditionsStructs.EditionStatus",
              "name": "status",
              "type": "uint8"
            },
            {
              "internalType": "uint256",
              "name": "fee",
              "type": "uint256"
            },
            {
              "internalType": "uint256",
              "name": "balance",
              "type": "uint256"
            },
            {
              "internalType": "address",
              "name": "owner",
              "type": "address"
            },
            {
              "internalType": "string",
              "name": "id",
              "type": "string"
            },
            {
              "internalType": "string",
              "name": "briefId",
              "type": "string"
            }
          ],
          "internalType": "struct EditionsStructs.Edition[]",
          "name": "",
          "type": "tuple[]"
        }
      ],
      "stateMutability": "view",
      "type": "function"
    },
    {
      "inputs": [
        {
          "internalType": "bytes32",
          "name": "role",
          "type": "bytes32"
        }
      ],
      "name": "getRoleAdmin",
      "outputs": [
        {
          "internalType": "bytes32",
          "name": "",
          "type": "bytes32"
        }
      ],
      "stateMutability": "view",
      "type": "function"
    },
    {
      "inputs": [
        {
          "internalType": "bytes32",
          "name": "role",
          "type": "bytes32"
        },
        {
          "internalType": "address",
          "name": "account",
          "type": "address"
        }
      ],
      "name": "grantRole",
      "outputs": [],
      "stateMutability": "nonpayable",
      "type": "function"
    },
    {
      "inputs": [
        {
          "internalType": "bytes32",
          "name": "role",
          "type": "bytes32"
        },
        {
          "internalType": "address",
          "name": "account",
          "type": "address"
        }
      ],
      "name": "hasRole",
      "outputs": [
        {
          "internalType": "bool",
          "name": "",
          "type": "bool"
        }
      ],
      "stateMutability": "view",
      "type": "function"
    },
    {
      "inputs": [],
      "name": "initialize",
      "outputs": [],
      "stateMutability": "nonpayable",
      "type": "function"
    },
    {
      "inputs": [
        {
          "internalType": "address",
          "name": "account",
          "type": "address"
        },
        {
          "internalType": "address",
          "name": "operator",
          "type": "address"
        }
      ],
      "name": "isApprovedForAll",
      "outputs": [
        {
          "internalType": "bool",
          "name": "",
          "type": "bool"
        }
      ],
      "stateMutability": "view",
      "type": "function"
    },
    {
      "inputs": [],
      "name": "maximumEditionFee",
      "outputs": [
        {
          "internalType": "uint256",
          "name": "",
          "type": "uint256"
        }
      ],
      "stateMutability": "view",
      "type": "function"
    },
    {
      "inputs": [
        {
          "internalType": "uint256",
          "name": "editionId",
          "type": "uint256"
        },
        {
          "internalType": "uint256",
          "name": "amount",
          "type": "uint256"
        },
        {
          "internalType": "address",
          "name": "buyer",
          "type": "address"
        },
        {
          "internalType": "bytes",
          "name": "data",
          "type": "bytes"
        }
      ],
      "name": "mintEdition",
      "outputs": [],
      "stateMutability": "payable",
      "type": "function"
    },
    {
      "inputs": [],
      "name": "pause",
      "outputs": [],
      "stateMutability": "nonpayable",
      "type": "function"
    },
    {
      "inputs": [],
      "name": "paused",
      "outputs": [
        {
          "internalType": "bool",
          "name": "",
          "type": "bool"
        }
      ],
      "stateMutability": "view",
      "type": "function"
    },
    {
      "inputs": [],
      "name": "protocolFee",
      "outputs": [
        {
          "internalType": "uint256",
          "name": "",
          "type": "uint256"
        }
      ],
      "stateMutability": "view",
      "type": "function"
    },
    {
      "inputs": [],
      "name": "proxiableUUID",
      "outputs": [
        {
          "internalType": "bytes32",
          "name": "",
          "type": "bytes32"
        }
      ],
      "stateMutability": "view",
      "type": "function"
    },
    {
      "inputs": [
        {
          "internalType": "uint256",
          "name": "editionId",
          "type": "uint256"
        }
      ],
      "name": "removeBelief",
      "outputs": [],
      "stateMutability": "nonpayable",
      "type": "function"
    },
    {
      "inputs": [
        {
          "internalType": "bytes32",
          "name": "role",
          "type": "bytes32"
        },
        {
          "internalType": "address",
          "name": "account",
          "type": "address"
        }
      ],
      "name": "renounceRole",
      "outputs": [],
      "stateMutability": "nonpayable",
      "type": "function"
    },
    {
      "inputs": [
        {
          "internalType": "uint256",
          "name": "editionId",
          "type": "uint256"
        }
      ],
      "name": "resumeEdition",
      "outputs": [],
      "stateMutability": "nonpayable",
      "type": "function"
    },
    {
      "inputs": [
        {
          "internalType": "bytes32",
          "name": "role",
          "type": "bytes32"
        },
        {
          "internalType": "address",
          "name": "account",
          "type": "address"
        }
      ],
      "name": "revokeRole",
      "outputs": [],
      "stateMutability": "nonpayable",
      "type": "function"
    },
    {
      "inputs": [
        {
          "internalType": "address",
          "name": "from",
          "type": "address"
        },
        {
          "internalType": "address",
          "name": "to",
          "type": "address"
        },
        {
          "internalType": "uint256[]",
          "name": "ids",
          "type": "uint256[]"
        },
        {
          "internalType": "uint256[]",
          "name": "amounts",
          "type": "uint256[]"
        },
        {
          "internalType": "bytes",
          "name": "data",
          "type": "bytes"
        }
      ],
      "name": "safeBatchTransferFrom",
      "outputs": [],
      "stateMutability": "nonpayable",
      "type": "function"
    },
    {
      "inputs": [
        {
          "internalType": "address",
          "name": "from",
          "type": "address"
        },
        {
          "internalType": "address",
          "name": "to",
          "type": "address"
        },
        {
          "internalType": "uint256",
          "name": "id",
          "type": "uint256"
        },
        {
          "internalType": "uint256",
          "name": "amount",
          "type": "uint256"
        },
        {
          "internalType": "bytes",
          "name": "data",
          "type": "bytes"
        }
      ],
      "name": "safeTransferFrom",
      "outputs": [],
      "stateMutability": "nonpayable",
      "type": "function"
    },
    {
      "inputs": [
        {
          "internalType": "address",
          "name": "operator",
          "type": "address"
        },
        {
          "internalType": "bool",
          "name": "approved",
          "type": "bool"
        }
      ],
      "name": "setApprovalForAll",
      "outputs": [],
      "stateMutability": "nonpayable",
      "type": "function"
    },
    {
      "inputs": [
        {
          "internalType": "uint256",
          "name": "_futureFundFee",
          "type": "uint256"
        }
      ],
      "name": "setFutureFundFee",
      "outputs": [],
      "stateMutability": "nonpayable",
      "type": "function"
    },
    {
      "inputs": [
        {
          "internalType": "uint256",
          "name": "_maximumEditionFee",
          "type": "uint256"
        }
      ],
      "name": "setMaximumEditionFee",
      "outputs": [],
      "stateMutability": "nonpayable",
      "type": "function"
    },
    {
      "inputs": [
        {
          "internalType": "uint256",
          "name": "_protocolFee",
          "type": "uint256"
        }
      ],
      "name": "setProtocolFee",
      "outputs": [],
      "stateMutability": "nonpayable",
      "type": "function"
    },
    {
      "inputs": [
        {
          "internalType": "string",
          "name": "newuri",
          "type": "string"
        }
      ],
      "name": "setURI",
      "outputs": [],
      "stateMutability": "nonpayable",
      "type": "function"
    },
    {
      "inputs": [
        {
          "internalType": "uint256",
          "name": "editionId",
          "type": "uint256"
        }
      ],
      "name": "stopEdition",
      "outputs": [],
      "stateMutability": "nonpayable",
      "type": "function"
    },
    {
      "inputs": [
        {
          "internalType": "bytes4",
          "name": "interfaceId",
          "type": "bytes4"
        }
      ],
      "name": "supportsInterface",
      "outputs": [
        {
          "internalType": "bool",
          "name": "",
          "type": "bool"
        }
      ],
      "stateMutability": "view",
      "type": "function"
    },
    {
      "inputs": [
        {
          "internalType": "uint256",
          "name": "id",
          "type": "uint256"
        }
      ],
      "name": "totalSupply",
      "outputs": [
        {
          "internalType": "uint256",
          "name": "",
          "type": "uint256"
        }
      ],
      "stateMutability": "view",
      "type": "function"
    },
    {
      "inputs": [],
      "name": "unpause",
      "outputs": [],
      "stateMutability": "nonpayable",
      "type": "function"
    },
    {
      "inputs": [
        {
          "internalType": "uint256",
          "name": "editionId",
          "type": "uint256"
        },
        {
          "internalType": "string",
          "name": "id",
          "type": "string"
        },
        {
          "internalType": "string",
          "name": "briefId",
          "type": "string"
        }
      ],
      "name": "updateEdition",
      "outputs": [],
      "stateMutability": "nonpayable",
      "type": "function"
    },
    {
      "inputs": [
        {
          "internalType": "address",
          "name": "newImplementation",
          "type": "address"
        }
      ],
      "name": "upgradeTo",
      "outputs": [],
      "stateMutability": "nonpayable",
      "type": "function"
    },
    {
      "inputs": [
        {
          "internalType": "address",
          "name": "newImplementation",
          "type": "address"
        },
        {
          "internalType": "bytes",
          "name": "data",
          "type": "bytes"
        }
      ],
      "name": "upgradeToAndCall",
      "outputs": [],
      "stateMutability": "payable",
      "type": "function"
    },
    {
      "inputs": [
        {
          "internalType": "uint256",
          "name": "id",
          "type": "uint256"
        }
      ],
      "name": "uri",
      "outputs": [
        {
          "internalType": "string",
          "name": "",
          "type": "string"
        }
      ],
      "stateMutability": "view",
      "type": "function"
    },
    {
      "inputs": [
        {
          "internalType": "uint256",
          "name": "editionId",
          "type": "uint256"
        },
        {
          "internalType": "uint256",
          "name": "amount",
          "type": "uint256"
        }
      ],
      "name": "withdrawEditionBalance",
      "outputs": [],
      "stateMutability": "nonpayable",
      "type": "function"
    },
    {
      "inputs": [
        {
          "internalType": "uint256",
          "name": "amount",
          "type": "uint256"
        }
      ],
      "name": "withdrawFunds",
      "outputs": [],
      "stateMutability": "nonpayable",
      "type": "function"
    },
    {
      "stateMutability": "payable",
      "type": "receive"
    }
  ],
  "bytecode": "0x60a0604052306080523480156200001557600080fd5b506200002062000026565b620000e7565b600054610100900460ff1615620000935760405162461bcd60e51b815260206004820152602760248201527f496e697469616c697a61626c653a20636f6e747261637420697320696e697469604482015266616c697a696e6760c81b606482015260840160405180910390fd5b60005460ff90811614620000e5576000805460ff191660ff9081179091556040519081527f7f26b83ff96e1f2b6a682f133852f6798a09c465da95921460cefb38474024989060200160405180910390a15b565b6080516149736200011f60003960008181610dec01528181610e2c015281816110260152818161106601526110f501526149736000f3fe60806040526004361061027e5760003560e01c80637cc749411161014e578063c6fbb712116100bb578063e8a3d48511610077578063e8a3d485146107d7578063e985e9c5146107ec578063f242432a14610835578063f5298aca14610855578063f8c1b2fd14610875578063fc74efa21461089557005b8063c6fbb71214610711578063c84aae1714610728578063d547741f14610755578063d667c9ce14610775578063df6efc6c14610795578063e43990fe146107b757005b8063a217fddf1161010a578063a217fddf14610660578063a22cb46514610675578063b0e21e8a14610695578063b3a44bd6146106ac578063b94967a4146106cc578063bd85b039146106e357005b80637cc74941146105c35780638129fc1c146105e35780638456cb59146105f857806391d148541461060d578063940123da1461062d5780639e751ffc1461064057005b80633659cfe6116101ec5780635c975abb116101a85780635c975abb146105215780636b20c454146105395780636b5cb789146105595780637357628c14610570578063787dce3d14610590578063790bafc6146105b057005b80633659cfe6146104675780633f4ba83a146104875780634e1273f41461049c5780634f1ef286146104c95780634f558e79146104dc57806352d1902d1461050c57005b8063248a9ca31161023b578063248a9ca314610377578063279c806e146103a757806327e235e3146103d95780632eb2c2d6146104075780632f2ff15d1461042757806336568abe1461044757005b8062fdd58e1461028757806301ffc9a7146102ba57806302fe5305146102ea5780630a579eca1461030a5780630e89341c1461032a578063155dd5ee1461035757005b3661028557005b005b34801561029357600080fd5b506102a76102a2366004613846565b6108b5565b6040519081526020015b60405180910390f35b3480156102c657600080fd5b506102da6102d5366004613886565b610950565b60405190151581526020016102b1565b3480156102f657600080fd5b50610285610305366004613958565b61095b565b34801561031657600080fd5b5061028561032536600461398c565b610992565b34801561033657600080fd5b5061034a61034536600461398c565b610a74565b6040516102b191906139f5565b34801561036357600080fd5b5061028561037236600461398c565b610aaf565b34801561038357600080fd5b506102a761039236600461398c565b60009081526097602052604090206001015490565b3480156103b357600080fd5b506103c76103c236600461398c565b610bac565b6040516102b196959493929190613a40565b3480156103e557600080fd5b506102a76103f4366004613a99565b6101c76020526000908152604090205481565b34801561041357600080fd5b50610285610422366004613b48565b610d02565b34801561043357600080fd5b50610285610442366004613bf1565b610d4e565b34801561045357600080fd5b50610285610462366004613bf1565b610d68565b34801561047357600080fd5b50610285610482366004613a99565b610de2565b34801561049357600080fd5b50610285610ec1565b3480156104a857600080fd5b506104bc6104b7366004613c1d565b610ef3565b6040516102b19190613d22565b6102856104d7366004613d35565b61101c565b3480156104e857600080fd5b506102da6104f736600461398c565b600090815261012d6020526040902054151590565b34801561051857600080fd5b506102a76110e8565b34801561052d57600080fd5b5060c95460ff166102da565b34801561054557600080fd5b50610285610554366004613d78565b61119c565b34801561056557600080fd5b506102a76101c65481565b34801561057c57600080fd5b5061028561058b36600461398c565b6111df565b34801561059c57600080fd5b506102856105ab36600461398c565b611280565b6102856105be366004613deb565b611292565b3480156105cf57600080fd5b506102856105de36600461398c565b6114cf565b3480156105ef57600080fd5b506102856114e1565b34801561060457600080fd5b506102856116ac565b34801561061957600080fd5b506102da610628366004613bf1565b6116de565b61028561063b366004613e1b565b611709565b34801561064c57600080fd5b5061028561065b36600461398c565b6117f6565b34801561066c57600080fd5b506102a7600081565b34801561068157600080fd5b50610285610690366004613e7b565b611808565b3480156106a157600080fd5b506102a76101c35481565b3480156106b857600080fd5b506102a76106c7366004613eb7565b611813565b3480156106d857600080fd5b506102a76101c85481565b3480156106ef57600080fd5b506102a76106fe36600461398c565b600090815261012d602052604090205490565b34801561071d57600080fd5b506102a76101c55481565b34801561073457600080fd5b50610748610743366004613a99565b61196d565b6040516102b19190613f15565b34801561076157600080fd5b50610285610770366004613bf1565b611ad7565b34801561078157600080fd5b50610285610790366004613f8b565b611afc565b3480156107a157600080fd5b506107aa611c3e565b6040516102b19190613fad565b3480156107c357600080fd5b506102856107d2366004614061565b611ead565b3480156107e357600080fd5b5061034a611f33565b3480156107f857600080fd5b506102da6108073660046140c3565b6001600160a01b03918216600090815260666020908152604080832093909416825291909152205460ff1690565b34801561084157600080fd5b506102856108503660046140ed565b611f53565b34801561086157600080fd5b50610285610870366004614151565b611f98565b34801561088157600080fd5b5061028561089036600461398c565b611fdb565b3480156108a157600080fd5b506102856108b036600461398c565b612070565b60006001600160a01b0383166109255760405162461bcd60e51b815260206004820152602a60248201527f455243313135353a2061646472657373207a65726f206973206e6f742061207660448201526930b634b21037bbb732b960b11b60648201526084015b60405180910390fd5b5060008181526065602090815260408083206001600160a01b03861684529091529020545b92915050565b600061094a8261214b565b7f7804d923f43a17d325d77e781528e0793b2edd9890ab45fc64efd7b4b427744c61098581612170565b61098e8261217a565b5050565b60008181526101c460205260409020600301546001600160a01b03163314806109c157506109c16000336116de565b6109de5760405163388f811f60e01b815260040160405180910390fd5b600260008281526101c4602052604090205460ff166003811115610a0457610a04613a08565b14610a2257604051631f0fb6fd60e11b815260040160405180910390fd5b60008181526101c46020908152604091829020805460ff1916600317905590518281527f591913f977ab242c5871f116f36be231ff67df5e8e0bac1efd91fa8a723aca2b91015b60405180910390a150565b6060610a7f82612186565b610a888361221a565b604051602001610a99929190614184565b6040516020818303038152906040529050919050565b6000610aba81612170565b47821115610adb57604051631036b5ad60e31b815260040160405180910390fd5b4760005b6101c554811015610b3c5760008181526101c46020526040902060020154610b0790836141c9565b915083821015610b2a5760405163156bbc5b60e01b815260040160405180910390fd5b80610b34816141dc565b915050610adf565b50604051600090339085908381818185875af1925050503d8060008114610b7f576040519150601f19603f3d011682016040523d82523d6000602084013e610b84565b606091505b5050905080610ba6576040516317f2c34560e31b815260040160405180910390fd5b50505050565b6101c4602052600090815260409020805460018201546002830154600384015460048501805460ff90951695939492936001600160a01b0390921692610bf1906141f5565b80601f0160208091040260200160405190810160405280929190818152602001828054610c1d906141f5565b8015610c6a5780601f10610c3f57610100808354040283529160200191610c6a565b820191906000526020600020905b815481529060010190602001808311610c4d57829003601f168201915b505050505090806005018054610c7f906141f5565b80601f0160208091040260200160405190810160405280929190818152602001828054610cab906141f5565b8015610cf85780601f10610ccd57610100808354040283529160200191610cf8565b820191906000526020600020905b815481529060010190602001808311610cdb57829003601f168201915b5050505050905086565b6001600160a01b038516331480610d1e5750610d1e8533610807565b610d3a5760405162461bcd60e51b815260040161091c90614229565b610d4785858585856122ac565b5050505050565b6000610d5981612170565b610d638383612459565b505050565b6001600160a01b0381163314610dd85760405162461bcd60e51b815260206004820152602f60248201527f416363657373436f6e74726f6c3a2063616e206f6e6c792072656e6f756e636560448201526e103937b632b9903337b91039b2b63360891b606482015260840161091c565b61098e82826124df565b6001600160a01b037f0000000000000000000000000000000000000000000000000000000000000000163003610e2a5760405162461bcd60e51b815260040161091c90614277565b7f00000000000000000000000000000000000000000000000000000000000000006001600160a01b0316610e736000805160206148d3833981519152546001600160a01b031690565b6001600160a01b031614610e995760405162461bcd60e51b815260040161091c906142c3565b610ea281612546565b60408051600080825260208201909252610ebe91839190612570565b50565b7f65d7a28e3265b37a6474929f336521b332c1681b933f6cb9f3376673440d862a610eeb81612170565b610ebe6126db565b60608151835114610f585760405162461bcd60e51b815260206004820152602960248201527f455243313135353a206163636f756e747320616e6420696473206c656e677468604482015268040dad2e6dac2e8c6d60bb1b606482015260840161091c565b600083516001600160401b03811115610f7357610f736138a3565b604051908082528060200260200182016040528015610f9c578160200160208202803683370190505b50905060005b845181101561101457610fe7858281518110610fc057610fc061430f565b6020026020010151858381518110610fda57610fda61430f565b60200260200101516108b5565b828281518110610ff957610ff961430f565b602090810291909101015261100d816141dc565b9050610fa2565b509392505050565b6001600160a01b037f00000000000000000000000000000000000000000000000000000000000000001630036110645760405162461bcd60e51b815260040161091c90614277565b7f00000000000000000000000000000000000000000000000000000000000000006001600160a01b03166110ad6000805160206148d3833981519152546001600160a01b031690565b6001600160a01b0316146110d35760405162461bcd60e51b815260040161091c906142c3565b6110dc82612546565b61098e82826001612570565b6000306001600160a01b037f000000000000000000000000000000000000000000000000000000000000000016146111885760405162461bcd60e51b815260206004820152603860248201527f555550535570677261646561626c653a206d757374206e6f742062652063616c60448201527f6c6564207468726f7567682064656c656761746563616c6c0000000000000000606482015260840161091c565b506000805160206148d38339815191525b90565b6001600160a01b0383163314806111b857506111b88333610807565b6111d45760405162461bcd60e51b815260040161091c90614229565b610d6383838361272d565b60006111ea81612170565b600160008381526101c4602052604090205460ff16600381111561121057611210613a08565b1461122e5760405163137c9c1f60e31b815260040160405180910390fd5b60008281526101c46020908152604091829020805460ff1916600217905590518381527f8f4352ac8b4aefdd2333162306bbe09dd4f4ff6661e89ccc4e4dcced8794e8f7910160405180910390a15050565b600061128b81612170565b506101c355565b6101c8543410156112b657604051631036b5ad60e31b815260040160405180910390fd5b600260008381526101c4602052604090205460ff1660038111156112dc576112dc613a08565b146112fa57604051631f0fb6fd60e11b815260040160405180910390fd5b6101c5546040516308fe3d0760e01b81523460048201526024810184905260448101919091526101c460648201526101c7608482015273__$49e18fe781110033976e5d9a79c457096c$__906308fe3d079060a40160006040518083038186803b15801561136757600080fd5b505af415801561137b573d6000803e3d6000fd5b505050506000805b6101ca5481101561141357336001600160a01b03166101ca82815481106113ac576113ac61430f565b6000918252602090912001546001600160a01b03160361140157336001600160a01b03166101ca82815481106113e4576113e461430f565b6000918252602090912001546001600160a01b0316149150611413565b8061140b816141dc565b915050611383565b508061145d576101ca80546001810182556000919091527f0faeda9012b7f59bd2a84ac2a33ead5fc9f720c38d8bbf90db1ac3c1518386eb0180546001600160a01b031916331790555b3360009081526101c960209081526040808320600887901c845290915290208054600160ff86161b179055336001600160a01b0316837f710e220a47c8d9e50587c80fe509f5e762149ef672440eff70798204dd70f5eb846040516114c291906139f5565b60405180910390a3505050565b60006114da81612170565b506101c655565b600054610100900460ff16158080156115015750600054600160ff909116105b8061151b5750303b15801561151b575060005460ff166001145b61157e5760405162461bcd60e51b815260206004820152602e60248201527f496e697469616c697a61626c653a20636f6e747261637420697320616c72656160448201526d191e481a5b9a5d1a585b1a5e995960921b606482015260840161091c565b6000805460ff1916600117905580156115a1576000805461ff0019166101001790555b6115b9604051806020016040528060008152506128cc565b6115c16128fc565b6115c9612925565b6115d16128fc565b6115d96128fc565b6115e16128fc565b6115ec600033612459565b6116167f7804d923f43a17d325d77e781528e0793b2edd9890ab45fc64efd7b4b427744c33612459565b6116407f65d7a28e3265b37a6474929f336521b332c1681b933f6cb9f3376673440d862a33612459565b61166a7f189ab7a9244df0848122154315af71fe140f3db0fe014031783b0946b8c9d2e333612459565b8015610ebe576000805461ff0019169055604051600181527f7f26b83ff96e1f2b6a682f133852f6798a09c465da95921460cefb384740249890602001610a69565b7f65d7a28e3265b37a6474929f336521b332c1681b933f6cb9f3376673440d862a6116d681612170565b610ebe612954565b60009182526097602090815260408084206001600160a01b0393909316845291905290205460ff1690565b600061171481612170565b600260008681526101c4602052604090205460ff16600381111561173a5761173a613a08565b1461175857604051631f0fb6fd60e11b815260040160405180910390fd5b6101c35460008681526101c46020526040902060010154859161177a91614325565b6117849190614338565b3410156117a457604051631036b5ad60e31b815260040160405180910390fd5b6117b083868685612991565b6101c3546117be9085614338565b6117c890346141c9565b60008681526101c46020526040812060020180549091906117ea908490614325565b90915550505050505050565b600061180181612170565b506101c855565b61098e338383612ab6565b60006101c65486111561183957604051630f0c4c5f60e41b815260040160405180910390fd5b506101c5546040805160c0810190915280600181526020808201899052600060408084018290526001600160a01b038a1660608501526080840188905260a09093018690528481526101c49091522081518154829060ff191660018360038111156118a6576118a6613a08565b0217905550602082015160018201556040820151600282015560608201516003820180546001600160a01b0319166001600160a01b03909216919091179055608082015160048201906118f99082614395565b5060a0820151600582019061190e9082614395565b50506101c5805491506000611922836141dc565b91905055507f3deb71b5a6774038a220621d78241405004043d5a928de9c7956bcc5270416db8183888860405161195c9493929190614454565b60405180910390a195945050505050565b606060006101c5546001600160401b0381111561198c5761198c6138a3565b6040519080825280602002602001820160405280156119d257816020015b6040805180820190915260608152600060208201528152602001906001900390816119aa5790505b50905060005b6101c554811015611ad05760405180604001604052806101c460008481526020019081526020016000206004018054611a10906141f5565b80601f0160208091040260200160405190810160405280929190818152602001828054611a3c906141f5565b8015611a895780601f10611a5e57610100808354040283529160200191611a89565b820191906000526020600020905b815481529060010190602001808311611a6c57829003601f168201915b50505050508152602001611a9d86846108b5565b815250828281518110611ab257611ab261430f565b60200260200101819052508080611ac8906141dc565b9150506119d8565b5092915050565b600082815260976020526040902060010154611af281612170565b610d6383836124df565b60008281526101c460205260409020600301546001600160a01b03163314611b375760405163388f811f60e01b815260040160405180910390fd5b60008281526101c46020526040902060020154811115611b6a57604051637eafab7d60e01b815260040160405180910390fd5b604051600090339083908381818185875af1925050503d8060008114611bac576040519150601f19603f3d011682016040523d82523d6000602084013e611bb1565b606091505b5050905080611bd3576040516317f2c34560e31b815260040160405180910390fd5b60008381526101c4602052604081206002018054849290611bf59084906141c9565b90915550506040805184815260208101849052338183015290517ff1090e9d5138cd4909542e10e1da576730b07eb291a71a151e63160dde345b949181900360600190a1505050565b606060006101c5546001600160401b03811115611c5d57611c5d6138a3565b604051908082528060200260200182016040528015611cd157816020015b611cbe6040805160c081019091528060008152602001600081526020016000815260200160006001600160a01b0316815260200160608152602001606081525090565b815260200190600190039081611c7b5790505b50905060005b6101c554811015611ea75760008181526101c4602052604090819020815160c081019092528054829060ff166003811115611d1457611d14613a08565b6003811115611d2557611d25613a08565b8152600182015460208201526002820154604082015260038201546001600160a01b03166060820152600482018054608090920191611d63906141f5565b80601f0160208091040260200160405190810160405280929190818152602001828054611d8f906141f5565b8015611ddc5780601f10611db157610100808354040283529160200191611ddc565b820191906000526020600020905b815481529060010190602001808311611dbf57829003601f168201915b50505050508152602001600582018054611df5906141f5565b80601f0160208091040260200160405190810160405280929190818152602001828054611e21906141f5565b8015611e6e5780601f10611e4357610100808354040283529160200191611e6e565b820191906000526020600020905b815481529060010190602001808311611e5157829003601f168201915b505050505081525050828281518110611e8957611e8961430f565b60200260200101819052508080611e9f906141dc565b915050611cd7565b50919050565b6000611eb881612170565b60008481526101c4602052604081205460ff166003811115611edc57611edc613a08565b03611efa5760405163137c9c1f60e31b815260040160405180910390fd5b60008481526101c460205260409020600401611f168482614395565b5060008481526101c460205260409020600501610d478382614395565b606060405180606001604052806024815260200161491a60249139905090565b6001600160a01b038516331480611f6f5750611f6f8533610807565b611f8b5760405162461bcd60e51b815260040161091c90614229565b610d478585858585612b8e565b6001600160a01b038316331480611fb45750611fb48333610807565b611fd05760405162461bcd60e51b815260040161091c90614229565b610d63838383612cca565b3360009081526101c960209081526040808320600885901c84529182905290912054600160ff84161b166120225760405163423f327760e11b815260040160405180910390fd5b600882901c6000908152602082905260408082208054600160ff87161b1916905551339184917fc6c1c3224e50c3c958e39197695bdfe8457ce7c0014d8d51a4d3aa12c5ac18489190a35050565b60008181526101c460205260409020600301546001600160a01b031633148061209f575061209f6000336116de565b6120bc5760405163388f811f60e01b815260040160405180910390fd5b600360008281526101c4602052604090205460ff1660038111156120e2576120e2613a08565b146121005760405163968807a560e01b815260040160405180910390fd5b60008181526101c46020908152604091829020805460ff1916600217905590518281527f63bb17c9645a29322601b4fe88d8f3fa84f32229368294f903084be8f5d813ba9101610a69565b60006001600160e01b03198216637965db0b60e01b148061094a575061094a82612de6565b610ebe8133612e36565b606761098e8282614395565b606060678054612195906141f5565b80601f01602080910402602001604051908101604052809291908181526020018280546121c1906141f5565b801561220e5780601f106121e35761010080835404028352916020019161220e565b820191906000526020600020905b8154815290600101906020018083116121f157829003601f168201915b50505050509050919050565b6060600061222783612e8f565b60010190506000816001600160401b03811115612246576122466138a3565b6040519080825280601f01601f191660200182016040528015612270576020820181803683370190505b5090508181016020015b600019016f181899199a1a9b1b9c1cb0b131b232b360811b600a86061a8153600a850494508461227a57509392505050565b81518351146122cd5760405162461bcd60e51b815260040161091c9061448e565b6001600160a01b0384166122f35760405162461bcd60e51b815260040161091c906144d6565b33612302818787878787612f67565b60005b84518110156123eb5760008582815181106123225761232261430f565b6020026020010151905060008583815181106123405761234061430f565b60209081029190910181015160008481526065835260408082206001600160a01b038e1683529093529190912054909150818110156123915760405162461bcd60e51b815260040161091c9061451b565b60008381526065602090815260408083206001600160a01b038e8116855292528083208585039055908b168252812080548492906123d0908490614325565b92505081905550505050806123e4906141dc565b9050612305565b50846001600160a01b0316866001600160a01b0316826001600160a01b03167f4a39dc06d4c0dbc64b70af90fd698a233a518aa5d07e595d983b8c0526c8f7fb878760405161243b929190614565565b60405180910390a4612451818787878787612f7d565b505050505050565b61246382826116de565b61098e5760008281526097602090815260408083206001600160a01b03851684529091529020805460ff1916600117905561249b3390565b6001600160a01b0316816001600160a01b0316837f2f8788117e7eff1d82e926ec794901d17c78024a50270940304540a733656f0d60405160405180910390a45050565b6124e982826116de565b1561098e5760008281526097602090815260408083206001600160a01b0385168085529252808320805460ff1916905551339285917ff6391f5c32d9c69d2a47ea670b442974b53935d1edc7fd64eb21e047a839171b9190a45050565b7f189ab7a9244df0848122154315af71fe140f3db0fe014031783b0946b8c9d2e361098e81612170565b7f4910fdfa16fed3260ed0e7147f7cc6da11a60208b5b9406d12a635614ffd91435460ff16156125a357610d63836130d8565b826001600160a01b03166352d1902d6040518163ffffffff1660e01b8152600401602060405180830381865afa9250505080156125fd575060408051601f3d908101601f191682019092526125fa91810190614593565b60015b6126605760405162461bcd60e51b815260206004820152602e60248201527f45524331393637557067726164653a206e657720696d706c656d656e7461746960448201526d6f6e206973206e6f74205555505360901b606482015260840161091c565b6000805160206148d383398151915281146126cf5760405162461bcd60e51b815260206004820152602960248201527f45524331393637557067726164653a20756e737570706f727465642070726f786044820152681a58589b195555525160ba1b606482015260840161091c565b50610d63838383613174565b6126e3613199565b60c9805460ff191690557f5db9ee0a495bf2e6ff9c91a7834c1ba4fdd244a5e8aa4e537bd38aeae4b073aa335b6040516001600160a01b03909116815260200160405180910390a1565b6001600160a01b0383166127535760405162461bcd60e51b815260040161091c906145ac565b80518251146127745760405162461bcd60e51b815260040161091c9061448e565b600033905061279781856000868660405180602001604052806000815250612f67565b60005b835181101561285f5760008482815181106127b7576127b761430f565b6020026020010151905060008483815181106127d5576127d561430f565b60209081029190910181015160008481526065835260408082206001600160a01b038c1683529093529190912054909150818110156128265760405162461bcd60e51b815260040161091c906145ef565b60009283526065602090815260408085206001600160a01b038b1686529091529092209103905580612857816141dc565b91505061279a565b5060006001600160a01b0316846001600160a01b0316826001600160a01b03167f4a39dc06d4c0dbc64b70af90fd698a233a518aa5d07e595d983b8c0526c8f7fb86866040516128b0929190614565565b60405180910390a4604080516020810190915260009052610ba6565b600054610100900460ff166128f35760405162461bcd60e51b815260040161091c90614633565b610ebe816131e2565b600054610100900460ff166129235760405162461bcd60e51b815260040161091c90614633565b565b600054610100900460ff1661294c5760405162461bcd60e51b815260040161091c90614633565b612923613212565b61295c613245565b60c9805460ff191660011790557f62e78cea01bee320cd4e420270b5ea74000d11b0c9f74754ebdbfc544b05a2586127103390565b6001600160a01b0384166129f15760405162461bcd60e51b815260206004820152602160248201527f455243313135353a206d696e7420746f20746865207a65726f206164647265736044820152607360f81b606482015260840161091c565b3360006129fd8561328b565b90506000612a0a8561328b565b9050612a1b83600089858589612f67565b60008681526065602090815260408083206001600160a01b038b16845290915281208054879290612a4d908490614325565b909155505060408051878152602081018790526001600160a01b03808a1692600092918716917fc3d58168c5ae7397731d063d5bbf3d657854427343f4c083240f7aacaa2d0f62910160405180910390a4612aad836000898989896132d6565b50505050505050565b816001600160a01b0316836001600160a01b031603612b295760405162461bcd60e51b815260206004820152602960248201527f455243313135353a2073657474696e6720617070726f76616c20737461747573604482015268103337b91039b2b63360b91b606482015260840161091c565b6001600160a01b03838116600081815260666020908152604080832094871680845294825291829020805460ff191686151590811790915591519182527f17307eab39ab6107e8899845ad3d59bd9653f200f220920489ca2b5937696c3191016114c2565b6001600160a01b038416612bb45760405162461bcd60e51b815260040161091c906144d6565b336000612bc08561328b565b90506000612bcd8561328b565b9050612bdd838989858589612f67565b60008681526065602090815260408083206001600160a01b038c16845290915290205485811015612c205760405162461bcd60e51b815260040161091c9061451b565b60008781526065602090815260408083206001600160a01b038d8116855292528083208985039055908a16825281208054889290612c5f908490614325565b909155505060408051888152602081018890526001600160a01b03808b16928c821692918816917fc3d58168c5ae7397731d063d5bbf3d657854427343f4c083240f7aacaa2d0f62910160405180910390a4612cbf848a8a8a8a8a6132d6565b505050505050505050565b6001600160a01b038316612cf05760405162461bcd60e51b815260040161091c906145ac565b336000612cfc8461328b565b90506000612d098461328b565b9050612d2983876000858560405180602001604052806000815250612f67565b60008581526065602090815260408083206001600160a01b038a16845290915290205484811015612d6c5760405162461bcd60e51b815260040161091c906145ef565b60008681526065602090815260408083206001600160a01b038b81168086529184528285208a8703905582518b81529384018a90529092908816917fc3d58168c5ae7397731d063d5bbf3d657854427343f4c083240f7aacaa2d0f62910160405180910390a4604080516020810190915260009052612aad565b60006001600160e01b03198216636cdb3d1360e11b1480612e1757506001600160e01b031982166303a24d0760e21b145b8061094a57506301ffc9a760e01b6001600160e01b031983161461094a565b612e4082826116de565b61098e57612e4d81613391565b612e588360206133a3565b604051602001612e6992919061467e565b60408051601f198184030181529082905262461bcd60e51b825261091c916004016139f5565b60008072184f03e93ff9f4daa797ed6e38ed64bf6a1f0160401b8310612ece5772184f03e93ff9f4daa797ed6e38ed64bf6a1f0160401b830492506040015b6d04ee2d6d415b85acef81000000008310612efa576d04ee2d6d415b85acef8100000000830492506020015b662386f26fc100008310612f1857662386f26fc10000830492506010015b6305f5e1008310612f30576305f5e100830492506008015b6127108310612f4457612710830492506004015b60648310612f56576064830492506002015b600a831061094a5760010192915050565b612f6f613245565b612451868686868686613545565b6001600160a01b0384163b156124515760405163bc197c8160e01b81526001600160a01b0385169063bc197c8190612fc190899089908890889088906004016146f3565b6020604051808303816000875af1925050508015612ffc575060408051601f3d908101601f19168201909252612ff991810190614751565b60015b6130a85761300861476e565b806308c379a003613041575061301c614789565b806130275750613043565b8060405162461bcd60e51b815260040161091c91906139f5565b505b60405162461bcd60e51b815260206004820152603460248201527f455243313135353a207472616e7366657220746f206e6f6e2d455243313135356044820152732932b1b2b4bb32b91034b6b83632b6b2b73a32b960611b606482015260840161091c565b6001600160e01b0319811663bc197c8160e01b14612aad5760405162461bcd60e51b815260040161091c90614812565b6001600160a01b0381163b6131455760405162461bcd60e51b815260206004820152602d60248201527f455243313936373a206e657720696d706c656d656e746174696f6e206973206e60448201526c1bdd08184818dbdb9d1c9858dd609a1b606482015260840161091c565b6000805160206148d383398151915280546001600160a01b0319166001600160a01b0392909216919091179055565b61317d836136c1565b60008251118061318a5750805b15610d6357610ba68383613701565b60c95460ff166129235760405162461bcd60e51b815260206004820152601460248201527314185d5cd8589b194e881b9bdd081c185d5cd95960621b604482015260640161091c565b600054610100900460ff166132095760405162461bcd60e51b815260040161091c90614633565b610ebe8161217a565b600054610100900460ff166132395760405162461bcd60e51b815260040161091c90614633565b60c9805460ff19169055565b60c95460ff16156129235760405162461bcd60e51b815260206004820152601060248201526f14185d5cd8589b194e881c185d5cd95960821b604482015260640161091c565b604080516001808252818301909252606091600091906020808301908036833701905050905082816000815181106132c5576132c561430f565b602090810291909101015292915050565b6001600160a01b0384163b156124515760405163f23a6e6160e01b81526001600160a01b0385169063f23a6e619061331a908990899088908890889060040161485a565b6020604051808303816000875af1925050508015613355575060408051601f3d908101601f1916820190925261335291810190614751565b60015b6133615761300861476e565b6001600160e01b0319811663f23a6e6160e01b14612aad5760405162461bcd60e51b815260040161091c90614812565b606061094a6001600160a01b03831660145b606060006133b2836002614338565b6133bd906002614325565b6001600160401b038111156133d4576133d46138a3565b6040519080825280601f01601f1916602001820160405280156133fe576020820181803683370190505b509050600360fc1b816000815181106134195761341961430f565b60200101906001600160f81b031916908160001a905350600f60fb1b816001815181106134485761344861430f565b60200101906001600160f81b031916908160001a905350600061346c846002614338565b613477906001614325565b90505b60018111156134ef576f181899199a1a9b1b9c1cb0b131b232b360811b85600f16601081106134ab576134ab61430f565b1a60f81b8282815181106134c1576134c161430f565b60200101906001600160f81b031916908160001a90535060049490941c936134e88161489f565b905061347a565b50831561353e5760405162461bcd60e51b815260206004820181905260248201527f537472696e67733a20686578206c656e67746820696e73756666696369656e74604482015260640161091c565b9392505050565b6001600160a01b0385166135cd5760005b83518110156135cb578281815181106135715761357161430f565b602002602001015161012d60008684815181106135905761359061430f565b6020026020010151815260200190815260200160002060008282546135b59190614325565b909155506135c49050816141dc565b9050613556565b505b6001600160a01b0384166124515760005b8351811015612aad5760008482815181106135fb576135fb61430f565b6020026020010151905060008483815181106136195761361961430f565b60200260200101519050600061012d60008481526020019081526020016000205490508181101561369d5760405162461bcd60e51b815260206004820152602860248201527f455243313135353a206275726e20616d6f756e74206578636565647320746f74604482015267616c537570706c7960c01b606482015260840161091c565b600092835261012d6020526040909220910390556136ba816141dc565b90506135de565b6136ca816130d8565b6040516001600160a01b038216907fbc7cd75a20ee27fd9adebab32041f755214dbc6bffa90cc0225b39da2e5c2d3b90600090a250565b606061353e83836040518060600160405280602781526020016148f3602791396060600080856001600160a01b03168560405161373e91906148b6565b600060405180830381855af49150503d8060008114613779576040519150601f19603f3d011682016040523d82523d6000602084013e61377e565b606091505b509150915061378f86838387613799565b9695505050505050565b60608315613808578251600003613801576001600160a01b0385163b6138015760405162461bcd60e51b815260206004820152601d60248201527f416464726573733a2063616c6c20746f206e6f6e2d636f6e7472616374000000604482015260640161091c565b5081613812565b613812838361381a565b949350505050565b8151156130275781518083602001fd5b80356001600160a01b038116811461384157600080fd5b919050565b6000806040838503121561385957600080fd5b6138628361382a565b946020939093013593505050565b6001600160e01b031981168114610ebe57600080fd5b60006020828403121561389857600080fd5b813561353e81613870565b634e487b7160e01b600052604160045260246000fd5b601f8201601f191681016001600160401b03811182821017156138de576138de6138a3565b6040525050565b600082601f8301126138f657600080fd5b81356001600160401b0381111561390f5761390f6138a3565b604051613926601f8301601f1916602001826138b9565b81815284602083860101111561393b57600080fd5b816020850160208301376000918101602001919091529392505050565b60006020828403121561396a57600080fd5b81356001600160401b0381111561398057600080fd5b613812848285016138e5565b60006020828403121561399e57600080fd5b5035919050565b60005b838110156139c05781810151838201526020016139a8565b50506000910152565b600081518084526139e18160208601602086016139a5565b601f01601f19169290920160200192915050565b60208152600061353e60208301846139c9565b634e487b7160e01b600052602160045260246000fd5b60048110613a3c57634e487b7160e01b600052602160045260246000fd5b9052565b613a4a8188613a1e565b85602082015284604082015260018060a01b038416606082015260c060808201526000613a7a60c08301856139c9565b82810360a0840152613a8c81856139c9565b9998505050505050505050565b600060208284031215613aab57600080fd5b61353e8261382a565b60006001600160401b03821115613acd57613acd6138a3565b5060051b60200190565b600082601f830112613ae857600080fd5b81356020613af582613ab4565b604051613b0282826138b9565b83815260059390931b8501820192828101915086841115613b2257600080fd5b8286015b84811015613b3d5780358352918301918301613b26565b509695505050505050565b600080600080600060a08688031215613b6057600080fd5b613b698661382a565b9450613b776020870161382a565b935060408601356001600160401b0380821115613b9357600080fd5b613b9f89838a01613ad7565b94506060880135915080821115613bb557600080fd5b613bc189838a01613ad7565b93506080880135915080821115613bd757600080fd5b50613be4888289016138e5565b9150509295509295909350565b60008060408385031215613c0457600080fd5b82359150613c146020840161382a565b90509250929050565b60008060408385031215613c3057600080fd5b82356001600160401b0380821115613c4757600080fd5b818501915085601f830112613c5b57600080fd5b81356020613c6882613ab4565b604051613c7582826138b9565b83815260059390931b8501820192828101915089841115613c9557600080fd5b948201945b83861015613cba57613cab8661382a565b82529482019490820190613c9a565b96505086013592505080821115613cd057600080fd5b50613cdd85828601613ad7565b9150509250929050565b600081518084526020808501945080840160005b83811015613d1757815187529582019590820190600101613cfb565b509495945050505050565b60208152600061353e6020830184613ce7565b60008060408385031215613d4857600080fd5b613d518361382a565b915060208301356001600160401b03811115613d6c57600080fd5b613cdd858286016138e5565b600080600060608486031215613d8d57600080fd5b613d968461382a565b925060208401356001600160401b0380821115613db257600080fd5b613dbe87838801613ad7565b93506040860135915080821115613dd457600080fd5b50613de186828701613ad7565b9150509250925092565b60008060408385031215613dfe57600080fd5b8235915060208301356001600160401b03811115613d6c57600080fd5b60008060008060808587031215613e3157600080fd5b8435935060208501359250613e486040860161382a565b915060608501356001600160401b03811115613e6357600080fd5b613e6f878288016138e5565b91505092959194509250565b60008060408385031215613e8e57600080fd5b613e978361382a565b915060208301358015158114613eac57600080fd5b809150509250929050565b600080600080600060a08688031215613ecf57600080fd5b85359450613edf6020870161382a565b9350613eed6040870161382a565b925060608601356001600160401b0380821115613f0957600080fd5b613bc189838a016138e5565b60006020808301818452808551808352604092508286019150828160051b87010184880160005b83811015613f7d57888303603f1901855281518051878552613f60888601826139c9565b918901519489019490945294870194925090860190600101613f3c565b509098975050505050505050565b60008060408385031215613f9e57600080fd5b50508035926020909101359150565b60006020808301818452808551808352604092508286019150828160051b87010184880160005b83811015613f7d57603f19898403018552815160c0613ff4858351613a1e565b81890151858a015287820151888601526060808301516001600160a01b03169086015260808083015181870183905261402f838801826139c9565b9250505060a0808301519250858203818701525061404d81836139c9565b968901969450505090860190600101613fd4565b60008060006060848603121561407657600080fd5b8335925060208401356001600160401b038082111561409457600080fd5b6140a0878388016138e5565b935060408601359150808211156140b657600080fd5b50613de1868287016138e5565b600080604083850312156140d657600080fd5b6140df8361382a565b9150613c146020840161382a565b600080600080600060a0868803121561410557600080fd5b61410e8661382a565b945061411c6020870161382a565b9350604086013592506060860135915060808601356001600160401b0381111561414557600080fd5b613be4888289016138e5565b60008060006060848603121561416657600080fd5b61416f8461382a565b95602085013595506040909401359392505050565b600083516141968184602088016139a5565b8351908301906141aa8183602088016139a5565b01949350505050565b634e487b7160e01b600052601160045260246000fd5b8181038181111561094a5761094a6141b3565b6000600182016141ee576141ee6141b3565b5060010190565b600181811c9082168061420957607f821691505b602082108103611ea757634e487b7160e01b600052602260045260246000fd5b6020808252602e908201527f455243313135353a2063616c6c6572206973206e6f7420746f6b656e206f776e60408201526d195c881bdc88185c1c1c9bdd995960921b606082015260800190565b6020808252602c908201527f46756e6374696f6e206d7573742062652063616c6c6564207468726f7567682060408201526b19195b1959d85d1958d85b1b60a21b606082015260800190565b6020808252602c908201527f46756e6374696f6e206d7573742062652063616c6c6564207468726f7567682060408201526b6163746976652070726f787960a01b606082015260800190565b634e487b7160e01b600052603260045260246000fd5b8082018082111561094a5761094a6141b3565b808202811582820484141761094a5761094a6141b3565b601f821115610d6357600081815260208120601f850160051c810160208610156143765750805b601f850160051c820191505b8181101561245157828155600101614382565b81516001600160401b038111156143ae576143ae6138a3565b6143c2816143bc84546141f5565b8461434f565b602080601f8311600181146143f757600084156143df5750858301515b600019600386901b1c1916600185901b178555612451565b600085815260208120601f198616915b8281101561442657888601518255948401946001909101908401614407565b50858210156144445787850151600019600388901b60f8161c191681555b5050505050600190811b01905550565b84815260806020820152600061446d60808301866139c9565b6040830194909452506001600160a01b039190911660609091015292915050565b60208082526028908201527f455243313135353a2069647320616e6420616d6f756e7473206c656e677468206040820152670dad2e6dac2e8c6d60c31b606082015260800190565b60208082526025908201527f455243313135353a207472616e7366657220746f20746865207a65726f206164604082015264647265737360d81b606082015260800190565b6020808252602a908201527f455243313135353a20696e73756666696369656e742062616c616e636520666f60408201526939103a3930b739b332b960b11b606082015260800190565b6040815260006145786040830185613ce7565b828103602084015261458a8185613ce7565b95945050505050565b6000602082840312156145a557600080fd5b5051919050565b60208082526023908201527f455243313135353a206275726e2066726f6d20746865207a65726f206164647260408201526265737360e81b606082015260800190565b60208082526024908201527f455243313135353a206275726e20616d6f756e7420657863656564732062616c604082015263616e636560e01b606082015260800190565b6020808252602b908201527f496e697469616c697a61626c653a20636f6e7472616374206973206e6f74206960408201526a6e697469616c697a696e6760a81b606082015260800190565b7f416363657373436f6e74726f6c3a206163636f756e74200000000000000000008152600083516146b68160178501602088016139a5565b7001034b99036b4b9b9b4b733903937b6329607d1b60179184019182015283516146e78160288401602088016139a5565b01602801949350505050565b6001600160a01b0386811682528516602082015260a06040820181905260009061471f90830186613ce7565b82810360608401526147318186613ce7565b9050828103608084015261474581856139c9565b98975050505050505050565b60006020828403121561476357600080fd5b815161353e81613870565b600060033d11156111995760046000803e5060005160e01c90565b600060443d10156147975790565b6040516003193d81016004833e81513d6001600160401b0381602484011181841117156147c657505050505090565b82850191508151818111156147de5750505050505090565b843d87010160208285010111156147f85750505050505090565b614807602082860101876138b9565b509095945050505050565b60208082526028908201527f455243313135353a204552433131353552656365697665722072656a656374656040820152676420746f6b656e7360c01b606082015260800190565b6001600160a01b03868116825285166020820152604081018490526060810183905260a060808201819052600090614894908301846139c9565b979650505050505050565b6000816148ae576148ae6141b3565b506000190190565b600082516148c88184602087016139a5565b919091019291505056fe360894a13ba1a3210667c828492db98dca3e2076cc3735a920a3ca505d382bbc416464726573733a206c6f772d6c6576656c2064656c65676174652063616c6c206661696c656468747470733a2f2f72616461726c61756e63682e6170702f6170692f6d65746164617461a264697066735822122052c361c9b80283a3959c1c8f97860b517f85015b3e40c2ef7c58e272e011f9e364736f6c63430008130033",
  "linkReferences": {
    "src/Beliefs/LibBeliefs.sol": {
      "LibBeliefs": [
        {
          "length": 20,
          "start": 5201
        }
      ]
    }
  },
  "deployedLinkReferences": {
    "src/Beliefs/LibBeliefs.sol": {
      "LibBeliefs": [
        {
          "length": 20,
          "start": 4914
        }
      ]
    }
  }
}