{
  "_format": "hh-sol-artifact-1",
  "contractName": "RadarEditions",
  "sourceName": "src/RadarEditions.sol",
  "abi": [
    {
      "inputs": [],
      "stateMutability": "nonpayable",
      "type": "constructor"
    },
    {
      "inputs": [],
      "name": "EditionFeeExceedsMaximumFee",
      "type": "error"
    },
    {
      "inputs": [],
      "name": "EditionNotCreated",
      "type": "error"
    },
    {
      "inputs": [],
      "name": "EditionNotEnoughBalance",
      "type": "error"
    },
    {
      "inputs": [],
      "name": "EditionNotLaunched",
      "type": "error"
    },
    {
      "inputs": [],
      "name": "EditionNotStopped",
      "type": "error"
    },
    {
      "inputs": [],
      "name": "NotCorrectUser",
      "type": "error"
    },
    {
      "inputs": [],
      "name": "NotEditionOwner",
      "type": "error"
    },
    {
      "inputs": [],
      "name": "NotEnoughFees",
      "type": "error"
    },
    {
      "inputs": [],
      "name": "NotEnoughFunds",
      "type": "error"
    },
    {
      "inputs": [],
      "name": "TransactionFailed",
      "type": "error"
    },
    {
      "anonymous": false,
      "inputs": [
        {
          "indexed": false,
          "internalType": "address",
          "name": "previousAdmin",
          "type": "address"
        },
        {
          "indexed": false,
          "internalType": "address",
          "name": "newAdmin",
          "type": "address"
        }
      ],
      "name": "AdminChanged",
      "type": "event"
    },
    {
      "anonymous": false,
      "inputs": [
        {
          "indexed": true,
          "internalType": "address",
          "name": "account",
          "type": "address"
        },
        {
          "indexed": true,
          "internalType": "address",
          "name": "operator",
          "type": "address"
        },
        {
          "indexed": false,
          "internalType": "bool",
          "name": "approved",
          "type": "bool"
        }
      ],
      "name": "ApprovalForAll",
      "type": "event"
    },
    {
      "anonymous": false,
      "inputs": [
        {
          "indexed": true,
          "internalType": "address",
          "name": "beacon",
          "type": "address"
        }
      ],
      "name": "BeaconUpgraded",
      "type": "event"
    },
    {
      "anonymous": false,
      "inputs": [
        {
          "indexed": false,
          "internalType": "uint256",
          "name": "editionId",
          "type": "uint256"
        }
      ],
      "name": "EditionApproved",
      "type": "event"
    },
    {
      "anonymous": false,
      "inputs": [
        {
          "indexed": false,
          "internalType": "uint256",
          "name": "editionId",
          "type": "uint256"
        },
        {
          "indexed": false,
          "internalType": "uint256",
          "name": "amount",
          "type": "uint256"
        },
        {
          "indexed": false,
          "internalType": "address",
          "name": "owner",
          "type": "address"
        }
      ],
      "name": "EditionBalanceWithdrawn",
      "type": "event"
    },
    {
      "anonymous": false,
      "inputs": [
        {
          "indexed": true,
          "internalType": "address",
          "name": "believer",
          "type": "address"
        },
        {
          "indexed": true,
          "internalType": "uint256",
          "name": "editionId",
          "type": "uint256"
        }
      ],
      "name": "EditionBeliefRemoved",
      "type": "event"
    },
    {
      "anonymous": false,
      "inputs": [
        {
          "indexed": true,
          "internalType": "address",
          "name": "believer",
          "type": "address"
        },
        {
          "indexed": true,
          "internalType": "uint256",
          "name": "editionId",
          "type": "uint256"
        },
        {
          "indexed": false,
          "internalType": "bytes32",
          "name": "hashOne",
          "type": "bytes32"
        },
        {
          "indexed": false,
          "internalType": "bytes32",
          "name": "hashTwo",
          "type": "bytes32"
        },
        {
          "indexed": false,
          "internalType": "bytes32",
          "name": "hashThree",
          "type": "bytes32"
        }
      ],
      "name": "EditionBelieved",
      "type": "event"
    },
    {
      "anonymous": false,
      "inputs": [
        {
          "indexed": false,
          "internalType": "uint256",
          "name": "editionId",
          "type": "uint256"
        },
        {
          "indexed": false,
          "internalType": "uint256",
          "name": "fee",
          "type": "uint256"
        },
        {
          "indexed": false,
          "internalType": "address",
          "name": "owner",
          "type": "address"
        }
      ],
      "name": "EditionCreated",
      "type": "event"
    },
    {
      "anonymous": false,
      "inputs": [
        {
          "indexed": false,
          "internalType": "uint256",
          "name": "editionId",
          "type": "uint256"
        }
      ],
      "name": "EditionResumed",
      "type": "event"
    },
    {
      "anonymous": false,
      "inputs": [
        {
          "indexed": false,
          "internalType": "uint256",
          "name": "editionId",
          "type": "uint256"
        }
      ],
      "name": "EditionStopped",
      "type": "event"
    },
    {
      "anonymous": false,
      "inputs": [
        {
          "indexed": false,
          "internalType": "uint8",
          "name": "version",
          "type": "uint8"
        }
      ],
      "name": "Initialized",
      "type": "event"
    },
    {
      "anonymous": false,
      "inputs": [
        {
          "indexed": false,
          "internalType": "address",
          "name": "account",
          "type": "address"
        }
      ],
      "name": "Paused",
      "type": "event"
    },
    {
      "anonymous": false,
      "inputs": [
        {
          "indexed": true,
          "internalType": "bytes32",
          "name": "role",
          "type": "bytes32"
        },
        {
          "indexed": true,
          "internalType": "bytes32",
          "name": "previousAdminRole",
          "type": "bytes32"
        },
        {
          "indexed": true,
          "internalType": "bytes32",
          "name": "newAdminRole",
          "type": "bytes32"
        }
      ],
      "name": "RoleAdminChanged",
      "type": "event"
    },
    {
      "anonymous": false,
      "inputs": [
        {
          "indexed": true,
          "internalType": "bytes32",
          "name": "role",
          "type": "bytes32"
        },
        {
          "indexed": true,
          "internalType": "address",
          "name": "account",
          "type": "address"
        },
        {
          "indexed": true,
          "internalType": "address",
          "name": "sender",
          "type": "address"
        }
      ],
      "name": "RoleGranted",
      "type": "event"
    },
    {
      "anonymous": false,
      "inputs": [
        {
          "indexed": true,
          "internalType": "bytes32",
          "name": "role",
          "type": "bytes32"
        },
        {
          "indexed": true,
          "internalType": "address",
          "name": "account",
          "type": "address"
        },
        {
          "indexed": true,
          "internalType": "address",
          "name": "sender",
          "type": "address"
        }
      ],
      "name": "RoleRevoked",
      "type": "event"
    },
    {
      "anonymous": false,
      "inputs": [
        {
          "indexed": true,
          "internalType": "address",
          "name": "operator",
          "type": "address"
        },
        {
          "indexed": true,
          "internalType": "address",
          "name": "from",
          "type": "address"
        },
        {
          "indexed": true,
          "internalType": "address",
          "name": "to",
          "type": "address"
        },
        {
          "indexed": false,
          "internalType": "uint256[]",
          "name": "ids",
          "type": "uint256[]"
        },
        {
          "indexed": false,
          "internalType": "uint256[]",
          "name": "values",
          "type": "uint256[]"
        }
      ],
      "name": "TransferBatch",
      "type": "event"
    },
    {
      "anonymous": false,
      "inputs": [
        {
          "indexed": true,
          "internalType": "address",
          "name": "operator",
          "type": "address"
        },
        {
          "indexed": true,
          "internalType": "address",
          "name": "from",
          "type": "address"
        },
        {
          "indexed": true,
          "internalType": "address",
          "name": "to",
          "type": "address"
        },
        {
          "indexed": false,
          "internalType": "uint256",
          "name": "id",
          "type": "uint256"
        },
        {
          "indexed": false,
          "internalType": "uint256",
          "name": "value",
          "type": "uint256"
        }
      ],
      "name": "TransferSingle",
      "type": "event"
    },
    {
      "anonymous": false,
      "inputs": [
        {
          "indexed": false,
          "internalType": "string",
          "name": "value",
          "type": "string"
        },
        {
          "indexed": true,
          "internalType": "uint256",
          "name": "id",
          "type": "uint256"
        }
      ],
      "name": "URI",
      "type": "event"
    },
    {
      "anonymous": false,
      "inputs": [
        {
          "indexed": false,
          "internalType": "address",
          "name": "account",
          "type": "address"
        }
      ],
      "name": "Unpaused",
      "type": "event"
    },
    {
      "anonymous": false,
      "inputs": [
        {
          "indexed": true,
          "internalType": "address",
          "name": "implementation",
          "type": "address"
        }
      ],
      "name": "Upgraded",
      "type": "event"
    },
    {
      "stateMutability": "payable",
      "type": "fallback"
    },
    {
      "inputs": [],
      "name": "DEFAULT_ADMIN_ROLE",
      "outputs": [
        {
          "internalType": "bytes32",
          "name": "",
          "type": "bytes32"
        }
      ],
      "stateMutability": "view",
      "type": "function"
    },
    {
      "inputs": [
        {
          "internalType": "uint256",
          "name": "editionId",
          "type": "uint256"
        }
      ],
      "name": "approveEdition",
      "outputs": [],
      "stateMutability": "nonpayable",
      "type": "function"
    },
    {
      "inputs": [
        {
          "internalType": "address",
          "name": "account",
          "type": "address"
        },
        {
          "internalType": "uint256",
          "name": "id",
          "type": "uint256"
        }
      ],
      "name": "balanceOf",
      "outputs": [
        {
          "internalType": "uint256",
          "name": "",
          "type": "uint256"
        }
      ],
      "stateMutability": "view",
      "type": "function"
    },
    {
      "inputs": [
        {
          "internalType": "address[]",
          "name": "accounts",
          "type": "address[]"
        },
        {
          "internalType": "uint256[]",
          "name": "ids",
          "type": "uint256[]"
        }
      ],
      "name": "balanceOfBatch",
      "outputs": [
        {
          "internalType": "uint256[]",
          "name": "",
          "type": "uint256[]"
        }
      ],
      "stateMutability": "view",
      "type": "function"
    },
    {
      "inputs": [
        {
          "internalType": "uint256",
          "name": "editionId",
          "type": "uint256"
        },
        {
          "internalType": "bytes32",
          "name": "hashOne",
          "type": "bytes32"
        },
        {
          "internalType": "bytes32",
          "name": "hashTwo",
          "type": "bytes32"
        },
        {
          "internalType": "bytes32",
          "name": "hashThree",
          "type": "bytes32"
        }
      ],
      "name": "believeProject",
      "outputs": [],
      "stateMutability": "nonpayable",
      "type": "function"
    },
    {
      "inputs": [
        {
          "internalType": "address",
          "name": "account",
          "type": "address"
        },
        {
          "internalType": "uint256",
          "name": "id",
          "type": "uint256"
        },
        {
          "internalType": "uint256",
          "name": "value",
          "type": "uint256"
        }
      ],
      "name": "burn",
      "outputs": [],
      "stateMutability": "nonpayable",
      "type": "function"
    },
    {
      "inputs": [
        {
          "internalType": "address",
          "name": "account",
          "type": "address"
        },
        {
          "internalType": "uint256[]",
          "name": "ids",
          "type": "uint256[]"
        },
        {
          "internalType": "uint256[]",
          "name": "values",
          "type": "uint256[]"
        }
      ],
      "name": "burnBatch",
      "outputs": [],
      "stateMutability": "nonpayable",
      "type": "function"
    },
    {
      "inputs": [],
      "name": "contractURI",
      "outputs": [
        {
          "internalType": "string",
          "name": "",
          "type": "string"
        }
      ],
      "stateMutability": "view",
      "type": "function"
    },
    {
      "inputs": [
        {
          "internalType": "uint256",
          "name": "fee",
          "type": "uint256"
        },
        {
          "internalType": "address",
          "name": "owner",
          "type": "address"
        },
        {
          "internalType": "address",
          "name": "payer",
          "type": "address"
        },
        {
          "internalType": "string",
          "name": "id",
          "type": "string"
        }
      ],
      "name": "createEdition",
      "outputs": [
        {
          "internalType": "uint256",
          "name": "editionId",
          "type": "uint256"
        }
      ],
      "stateMutability": "nonpayable",
      "type": "function"
    },
    {
      "inputs": [],
      "name": "editionCounter",
      "outputs": [
        {
          "internalType": "uint256",
          "name": "",
          "type": "uint256"
        }
      ],
      "stateMutability": "view",
      "type": "function"
    },
    {
      "inputs": [
        {
          "internalType": "uint256",
          "name": "",
          "type": "uint256"
        }
      ],
      "name": "editions",
      "outputs": [
        {
          "internalType": "enum EditionsStructs.EditionStatus",
          "name": "status",
          "type": "uint8"
        },
        {
          "internalType": "uint256",
          "name": "fee",
          "type": "uint256"
        },
        {
          "internalType": "uint256",
          "name": "balance",
          "type": "uint256"
        },
        {
          "internalType": "address",
          "name": "owner",
          "type": "address"
        },
        {
          "internalType": "string",
          "name": "id",
          "type": "string"
        }
      ],
      "stateMutability": "view",
      "type": "function"
    },
    {
      "inputs": [
        {
          "internalType": "uint256",
          "name": "id",
          "type": "uint256"
        }
      ],
      "name": "exists",
      "outputs": [
        {
          "internalType": "bool",
          "name": "",
          "type": "bool"
        }
      ],
      "stateMutability": "view",
      "type": "function"
    },
    {
      "inputs": [
        {
          "internalType": "address",
          "name": "owner",
          "type": "address"
        }
      ],
      "name": "getBalances",
      "outputs": [
        {
          "components": [
            {
              "internalType": "string",
              "name": "id",
              "type": "string"
            },
            {
              "internalType": "uint256",
              "name": "amount",
              "type": "uint256"
            }
          ],
          "internalType": "struct EditionsStructs.EditionIdWithAmount[]",
          "name": "",
          "type": "tuple[]"
        }
      ],
      "stateMutability": "view",
      "type": "function"
    },
    {
      "inputs": [],
      "name": "getEditions",
      "outputs": [
        {
          "components": [
            {
              "internalType": "enum EditionsStructs.EditionStatus",
              "name": "status",
              "type": "uint8"
            },
            {
              "internalType": "uint256",
              "name": "fee",
              "type": "uint256"
            },
            {
              "internalType": "uint256",
              "name": "balance",
              "type": "uint256"
            },
            {
              "internalType": "address",
              "name": "owner",
              "type": "address"
            },
            {
              "internalType": "string",
              "name": "id",
              "type": "string"
            }
          ],
          "internalType": "struct EditionsStructs.Edition[]",
          "name": "",
          "type": "tuple[]"
        }
      ],
      "stateMutability": "view",
      "type": "function"
    },
    {
      "inputs": [
        {
          "internalType": "bytes32",
          "name": "role",
          "type": "bytes32"
        }
      ],
      "name": "getRoleAdmin",
      "outputs": [
        {
          "internalType": "bytes32",
          "name": "",
          "type": "bytes32"
        }
      ],
      "stateMutability": "view",
      "type": "function"
    },
    {
      "inputs": [
        {
          "internalType": "bytes32",
          "name": "role",
          "type": "bytes32"
        },
        {
          "internalType": "address",
          "name": "account",
          "type": "address"
        }
      ],
      "name": "grantRole",
      "outputs": [],
      "stateMutability": "nonpayable",
      "type": "function"
    },
    {
      "inputs": [
        {
          "internalType": "bytes32",
          "name": "role",
          "type": "bytes32"
        },
        {
          "internalType": "address",
          "name": "account",
          "type": "address"
        }
      ],
      "name": "hasRole",
      "outputs": [
        {
          "internalType": "bool",
          "name": "",
          "type": "bool"
        }
      ],
      "stateMutability": "view",
      "type": "function"
    },
    {
      "inputs": [],
      "name": "initialize",
      "outputs": [],
      "stateMutability": "nonpayable",
      "type": "function"
    },
    {
      "inputs": [
        {
          "internalType": "address",
          "name": "account",
          "type": "address"
        },
        {
          "internalType": "address",
          "name": "operator",
          "type": "address"
        }
      ],
      "name": "isApprovedForAll",
      "outputs": [
        {
          "internalType": "bool",
          "name": "",
          "type": "bool"
        }
      ],
      "stateMutability": "view",
      "type": "function"
    },
    {
      "inputs": [],
      "name": "maximumEditionFee",
      "outputs": [
        {
          "internalType": "uint256",
          "name": "",
          "type": "uint256"
        }
      ],
      "stateMutability": "view",
      "type": "function"
    },
    {
      "inputs": [
        {
          "internalType": "uint256",
          "name": "editionId",
          "type": "uint256"
        },
        {
          "internalType": "uint256",
          "name": "amount",
          "type": "uint256"
        },
        {
          "internalType": "address",
          "name": "buyer",
          "type": "address"
        },
        {
          "internalType": "bytes",
          "name": "data",
          "type": "bytes"
        }
      ],
      "name": "mintEdition",
      "outputs": [],
      "stateMutability": "payable",
      "type": "function"
    },
    {
      "inputs": [],
      "name": "pause",
      "outputs": [],
      "stateMutability": "nonpayable",
      "type": "function"
    },
    {
      "inputs": [],
      "name": "paused",
      "outputs": [
        {
          "internalType": "bool",
          "name": "",
          "type": "bool"
        }
      ],
      "stateMutability": "view",
      "type": "function"
    },
    {
      "inputs": [],
      "name": "protocolFee",
      "outputs": [
        {
          "internalType": "uint256",
          "name": "",
          "type": "uint256"
        }
      ],
      "stateMutability": "view",
      "type": "function"
    },
    {
      "inputs": [],
      "name": "proxiableUUID",
      "outputs": [
        {
          "internalType": "bytes32",
          "name": "",
          "type": "bytes32"
        }
      ],
      "stateMutability": "view",
      "type": "function"
    },
    {
      "inputs": [
        {
          "internalType": "uint256",
          "name": "editionId",
          "type": "uint256"
        }
      ],
      "name": "removeBelief",
      "outputs": [],
      "stateMutability": "nonpayable",
      "type": "function"
    },
    {
      "inputs": [
        {
          "internalType": "bytes32",
          "name": "role",
          "type": "bytes32"
        },
        {
          "internalType": "address",
          "name": "account",
          "type": "address"
        }
      ],
      "name": "renounceRole",
      "outputs": [],
      "stateMutability": "nonpayable",
      "type": "function"
    },
    {
      "inputs": [
        {
          "internalType": "uint256",
          "name": "editionId",
          "type": "uint256"
        }
      ],
      "name": "resumeEdition",
      "outputs": [],
      "stateMutability": "nonpayable",
      "type": "function"
    },
    {
      "inputs": [
        {
          "internalType": "bytes32",
          "name": "role",
          "type": "bytes32"
        },
        {
          "internalType": "address",
          "name": "account",
          "type": "address"
        }
      ],
      "name": "revokeRole",
      "outputs": [],
      "stateMutability": "nonpayable",
      "type": "function"
    },
    {
      "inputs": [
        {
          "internalType": "address",
          "name": "from",
          "type": "address"
        },
        {
          "internalType": "address",
          "name": "to",
          "type": "address"
        },
        {
          "internalType": "uint256[]",
          "name": "ids",
          "type": "uint256[]"
        },
        {
          "internalType": "uint256[]",
          "name": "amounts",
          "type": "uint256[]"
        },
        {
          "internalType": "bytes",
          "name": "data",
          "type": "bytes"
        }
      ],
      "name": "safeBatchTransferFrom",
      "outputs": [],
      "stateMutability": "nonpayable",
      "type": "function"
    },
    {
      "inputs": [
        {
          "internalType": "address",
          "name": "from",
          "type": "address"
        },
        {
          "internalType": "address",
          "name": "to",
          "type": "address"
        },
        {
          "internalType": "uint256",
          "name": "id",
          "type": "uint256"
        },
        {
          "internalType": "uint256",
          "name": "amount",
          "type": "uint256"
        },
        {
          "internalType": "bytes",
          "name": "data",
          "type": "bytes"
        }
      ],
      "name": "safeTransferFrom",
      "outputs": [],
      "stateMutability": "nonpayable",
      "type": "function"
    },
    {
      "inputs": [
        {
          "internalType": "address",
          "name": "operator",
          "type": "address"
        },
        {
          "internalType": "bool",
          "name": "approved",
          "type": "bool"
        }
      ],
      "name": "setApprovalForAll",
      "outputs": [],
      "stateMutability": "nonpayable",
      "type": "function"
    },
    {
      "inputs": [
        {
          "internalType": "uint256",
          "name": "_maximumEditionFee",
          "type": "uint256"
        }
      ],
      "name": "setMaximumEditionFee",
      "outputs": [],
      "stateMutability": "nonpayable",
      "type": "function"
    },
    {
      "inputs": [
        {
          "internalType": "uint256",
          "name": "_protocolFee",
          "type": "uint256"
        }
      ],
      "name": "setProtocolFee",
      "outputs": [],
      "stateMutability": "nonpayable",
      "type": "function"
    },
    {
      "inputs": [
        {
          "internalType": "string",
          "name": "newuri",
          "type": "string"
        }
      ],
      "name": "setURI",
      "outputs": [],
      "stateMutability": "nonpayable",
      "type": "function"
    },
    {
      "inputs": [
        {
          "internalType": "uint256",
          "name": "editionId",
          "type": "uint256"
        }
      ],
      "name": "stopEdition",
      "outputs": [],
      "stateMutability": "nonpayable",
      "type": "function"
    },
    {
      "inputs": [
        {
          "internalType": "bytes4",
          "name": "interfaceId",
          "type": "bytes4"
        }
      ],
      "name": "supportsInterface",
      "outputs": [
        {
          "internalType": "bool",
          "name": "",
          "type": "bool"
        }
      ],
      "stateMutability": "view",
      "type": "function"
    },
    {
      "inputs": [
        {
          "internalType": "uint256",
          "name": "id",
          "type": "uint256"
        }
      ],
      "name": "totalSupply",
      "outputs": [
        {
          "internalType": "uint256",
          "name": "",
          "type": "uint256"
        }
      ],
      "stateMutability": "view",
      "type": "function"
    },
    {
      "inputs": [],
      "name": "unpause",
      "outputs": [],
      "stateMutability": "nonpayable",
      "type": "function"
    },
    {
      "inputs": [
        {
          "internalType": "address",
          "name": "newImplementation",
          "type": "address"
        }
      ],
      "name": "upgradeTo",
      "outputs": [],
      "stateMutability": "nonpayable",
      "type": "function"
    },
    {
      "inputs": [
        {
          "internalType": "address",
          "name": "newImplementation",
          "type": "address"
        },
        {
          "internalType": "bytes",
          "name": "data",
          "type": "bytes"
        }
      ],
      "name": "upgradeToAndCall",
      "outputs": [],
      "stateMutability": "payable",
      "type": "function"
    },
    {
      "inputs": [
        {
          "internalType": "uint256",
          "name": "id",
          "type": "uint256"
        }
      ],
      "name": "uri",
      "outputs": [
        {
          "internalType": "string",
          "name": "",
          "type": "string"
        }
      ],
      "stateMutability": "view",
      "type": "function"
    },
    {
      "inputs": [
        {
          "internalType": "uint256",
          "name": "editionId",
          "type": "uint256"
        },
        {
          "internalType": "uint256",
          "name": "amount",
          "type": "uint256"
        }
      ],
      "name": "withdrawEditionBalance",
      "outputs": [],
      "stateMutability": "nonpayable",
      "type": "function"
    },
    {
      "inputs": [
        {
          "internalType": "uint256",
          "name": "amount",
          "type": "uint256"
        }
      ],
      "name": "withdrawFunds",
      "outputs": [],
      "stateMutability": "nonpayable",
      "type": "function"
    },
    {
      "stateMutability": "payable",
      "type": "receive"
    }
  ],
  "bytecode": "0x60a0604052306080523480156200001557600080fd5b506200002062000026565b620000e7565b600054610100900460ff1615620000935760405162461bcd60e51b815260206004820152602760248201527f496e697469616c697a61626c653a20636f6e747261637420697320696e697469604482015266616c697a696e6760c81b606482015260840160405180910390fd5b60005460ff90811614620000e5576000805460ff191660ff9081179091556040519081527f7f26b83ff96e1f2b6a682f133852f6798a09c465da95921460cefb38474024989060200160405180910390a15b565b6080516144756200011f60003960008181610cb901528181610cf901528181610ef301528181610f33015261107c01526144756000f3fe6080604052600436106102525760003560e01c8063787dce3d11610138578063c6fbb712116100b0578063e8a3d48511610077578063e8a3d48514610732578063e985e9c514610747578063f242432a14610790578063f5298aca146107b0578063f8c1b2fd146107d0578063fc74efa2146107f057005b8063c6fbb7121461068c578063c84aae17146106a3578063d547741f146106d0578063d667c9ce146106f0578063df6efc6c1461071057005b806391fc02f1116100ff57806391fc02f1146105df578063940123da146105ff578063a217fddf14610612578063a22cb46514610627578063b0e21e8a14610647578063bd85b0391461065e57005b8063787dce3d146105555780637cc74941146105755780638129fc1c146105955780638456cb59146105aa57806391d14854146105bf57005b80633659cfe6116101cb578063504575141161019257806350457514146104b157806352d1902d146104d15780635c975abb146104e65780636b20c454146104fe5780636b5cb7891461051e5780637357628c1461053557005b80633659cfe61461040c5780633f4ba83a1461042c5780634e1273f4146104415780634f1ef2861461046e5780634f558e791461048157005b8063155dd5ee1161021a578063155dd5ee1461032b578063248a9ca31461034b578063279c806e1461037b5780632eb2c2d6146103ac5780632f2ff15d146103cc57806336568abe146103ec57005b8062fdd58e1461025b57806301ffc9a71461028e57806302fe5305146102be5780630a579eca146102de5780630e89341c146102fe57005b3661025957005b005b34801561026757600080fd5b5061027b610276366004613449565b610810565b6040519081526020015b60405180910390f35b34801561029a57600080fd5b506102ae6102a9366004613489565b6108ab565b6040519015158152602001610285565b3480156102ca57600080fd5b506102596102d936600461355b565b6108b6565b3480156102ea57600080fd5b506102596102f936600461358f565b6108ed565b34801561030a57600080fd5b5061031e61031936600461358f565b6109cf565b60405161028591906135f8565b34801561033757600080fd5b5061025961034636600461358f565b610a0a565b34801561035757600080fd5b5061027b61036636600461358f565b60009081526097602052604090206001015490565b34801561038757600080fd5b5061039b61039636600461358f565b610b07565b604051610285959493929190613643565b3480156103b857600080fd5b506102596103c736600461371c565b610bcf565b3480156103d857600080fd5b506102596103e73660046137c5565b610c1b565b3480156103f857600080fd5b506102596104073660046137c5565b610c35565b34801561041857600080fd5b506102596104273660046137f1565b610caf565b34801561043857600080fd5b50610259610d8e565b34801561044d57600080fd5b5061046161045c36600461380c565b610dc0565b6040516102859190613911565b61025961047c366004613924565b610ee9565b34801561048d57600080fd5b506102ae61049c36600461358f565b600090815261012d6020526040902054151590565b3480156104bd57600080fd5b506102596104cc366004613967565b610fb5565b3480156104dd57600080fd5b5061027b61106f565b3480156104f257600080fd5b5060c95460ff166102ae565b34801561050a57600080fd5b50610259610519366004613999565b611123565b34801561052a57600080fd5b5061027b6101c65481565b34801561054157600080fd5b5061025961055036600461358f565b611166565b34801561056157600080fd5b5061025961057036600461358f565b611207565b34801561058157600080fd5b5061025961059036600461358f565b611219565b3480156105a157600080fd5b5061025961122b565b3480156105b657600080fd5b506102596113f6565b3480156105cb57600080fd5b506102ae6105da3660046137c5565b611428565b3480156105eb57600080fd5b5061027b6105fa366004613a0c565b611453565b61025961060d366004613a73565b61159b565b34801561061e57600080fd5b5061027b600081565b34801561063357600080fd5b50610259610642366004613aa0565b61167c565b34801561065357600080fd5b5061027b6101c35481565b34801561066a57600080fd5b5061027b61067936600461358f565b600090815261012d602052604090205490565b34801561069857600080fd5b5061027b6101c55481565b3480156106af57600080fd5b506106c36106be3660046137f1565b611687565b6040516102859190613adc565b3480156106dc57600080fd5b506102596106eb3660046137c5565b6117f1565b3480156106fc57600080fd5b5061025961070b366004613b52565b611816565b34801561071c57600080fd5b50610725611958565b6040516102859190613b74565b34801561073e57600080fd5b5061031e611b2e565b34801561075357600080fd5b506102ae610762366004613c0a565b6001600160a01b03918216600090815260666020908152604080832093909416825291909152205460ff1690565b34801561079c57600080fd5b506102596107ab366004613c34565b611b4e565b3480156107bc57600080fd5b506102596107cb366004613c98565b611b93565b3480156107dc57600080fd5b506102596107eb36600461358f565b611bd6565b3480156107fc57600080fd5b5061025961080b36600461358f565b611c6b565b60006001600160a01b0383166108805760405162461bcd60e51b815260206004820152602a60248201527f455243313135353a2061646472657373207a65726f206973206e6f742061207660448201526930b634b21037bbb732b960b11b60648201526084015b60405180910390fd5b5060008181526065602090815260408083206001600160a01b03861684529091529020545b92915050565b60006108a582611d46565b7f7804d923f43a17d325d77e781528e0793b2edd9890ab45fc64efd7b4b427744c6108e081611d6b565b6108e982611d75565b5050565b60008181526101c460205260409020600301546001600160a01b031633148061091c575061091c600033611428565b6109395760405163388f811f60e01b815260040160405180910390fd5b600260008281526101c4602052604090205460ff16600381111561095f5761095f61360b565b1461097d57604051631f0fb6fd60e11b815260040160405180910390fd5b60008181526101c46020908152604091829020805460ff1916600317905590518281527f591913f977ab242c5871f116f36be231ff67df5e8e0bac1efd91fa8a723aca2b91015b60405180910390a150565b60606109da82611d81565b6109e383611e15565b6040516020016109f4929190613ccb565b6040516020818303038152906040529050919050565b6000610a1581611d6b565b47821115610a3657604051631036b5ad60e31b815260040160405180910390fd5b4760005b6101c554811015610a975760008181526101c46020526040902060020154610a629083613d10565b915083821015610a855760405163156bbc5b60e01b815260040160405180910390fd5b80610a8f81613d23565b915050610a3a565b50604051600090339085908381818185875af1925050503d8060008114610ada576040519150601f19603f3d011682016040523d82523d6000602084013e610adf565b606091505b5050905080610b01576040516317f2c34560e31b815260040160405180910390fd5b50505050565b6101c4602052600090815260409020805460018201546002830154600384015460048501805460ff90951695939492936001600160a01b0390921692610b4c90613d3c565b80601f0160208091040260200160405190810160405280929190818152602001828054610b7890613d3c565b8015610bc55780601f10610b9a57610100808354040283529160200191610bc5565b820191906000526020600020905b815481529060010190602001808311610ba857829003601f168201915b5050505050905085565b6001600160a01b038516331480610beb5750610beb8533610762565b610c075760405162461bcd60e51b815260040161087790613d70565b610c148585858585611ea7565b5050505050565b6000610c2681611d6b565b610c308383612054565b505050565b6001600160a01b0381163314610ca55760405162461bcd60e51b815260206004820152602f60248201527f416363657373436f6e74726f6c3a2063616e206f6e6c792072656e6f756e636560448201526e103937b632b9903337b91039b2b63360891b6064820152608401610877565b6108e982826120da565b6001600160a01b037f0000000000000000000000000000000000000000000000000000000000000000163003610cf75760405162461bcd60e51b815260040161087790613dbe565b7f00000000000000000000000000000000000000000000000000000000000000006001600160a01b0316610d406000805160206143d5833981519152546001600160a01b031690565b6001600160a01b031614610d665760405162461bcd60e51b815260040161087790613e0a565b610d6f81612141565b60408051600080825260208201909252610d8b9183919061216b565b50565b7f65d7a28e3265b37a6474929f336521b332c1681b933f6cb9f3376673440d862a610db881611d6b565b610d8b6122d6565b60608151835114610e255760405162461bcd60e51b815260206004820152602960248201527f455243313135353a206163636f756e747320616e6420696473206c656e677468604482015268040dad2e6dac2e8c6d60bb1b6064820152608401610877565b600083516001600160401b03811115610e4057610e406134a6565b604051908082528060200260200182016040528015610e69578160200160208202803683370190505b50905060005b8451811015610ee157610eb4858281518110610e8d57610e8d613e56565b6020026020010151858381518110610ea757610ea7613e56565b6020026020010151610810565b828281518110610ec657610ec6613e56565b6020908102919091010152610eda81613d23565b9050610e6f565b509392505050565b6001600160a01b037f0000000000000000000000000000000000000000000000000000000000000000163003610f315760405162461bcd60e51b815260040161087790613dbe565b7f00000000000000000000000000000000000000000000000000000000000000006001600160a01b0316610f7a6000805160206143d5833981519152546001600160a01b031690565b6001600160a01b031614610fa05760405162461bcd60e51b815260040161087790613e0a565b610fa982612141565b6108e98282600161216b565b600260008581526101c4602052604090205460ff166003811115610fdb57610fdb61360b565b14610ff95760405163137c9c1f60e31b815260040160405180910390fd5b3360009081526101c760209081526040808320600888901c845290915290208054600160ff87161b1790556040805184815260208101849052908101829052849033907f7b0cc96a1f808bdffcbf4db4feace8d84ce12e38a462ef7abf3fce622378472c9060600160405180910390a350505050565b6000306001600160a01b037f0000000000000000000000000000000000000000000000000000000000000000161461110f5760405162461bcd60e51b815260206004820152603860248201527f555550535570677261646561626c653a206d757374206e6f742062652063616c60448201527f6c6564207468726f7567682064656c656761746563616c6c00000000000000006064820152608401610877565b506000805160206143d58339815191525b90565b6001600160a01b03831633148061113f575061113f8333610762565b61115b5760405162461bcd60e51b815260040161087790613d70565b610c30838383612328565b600061117181611d6b565b600160008381526101c4602052604090205460ff1660038111156111975761119761360b565b146111b55760405163137c9c1f60e31b815260040160405180910390fd5b60008281526101c46020908152604091829020805460ff1916600217905590518381527f8f4352ac8b4aefdd2333162306bbe09dd4f4ff6661e89ccc4e4dcced8794e8f7910160405180910390a15050565b600061121281611d6b565b506101c355565b600061122481611d6b565b506101c655565b600054610100900460ff161580801561124b5750600054600160ff909116105b806112655750303b158015611265575060005460ff166001145b6112c85760405162461bcd60e51b815260206004820152602e60248201527f496e697469616c697a61626c653a20636f6e747261637420697320616c72656160448201526d191e481a5b9a5d1a585b1a5e995960921b6064820152608401610877565b6000805460ff1916600117905580156112eb576000805461ff0019166101001790555b611303604051806020016040528060008152506124c7565b61130b6124f7565b611313612520565b61131b6124f7565b6113236124f7565b61132b6124f7565b611336600033612054565b6113607f7804d923f43a17d325d77e781528e0793b2edd9890ab45fc64efd7b4b427744c33612054565b61138a7f65d7a28e3265b37a6474929f336521b332c1681b933f6cb9f3376673440d862a33612054565b6113b47f189ab7a9244df0848122154315af71fe140f3db0fe014031783b0946b8c9d2e333612054565b8015610d8b576000805461ff0019169055604051600181527f7f26b83ff96e1f2b6a682f133852f6798a09c465da95921460cefb3847402498906020016109c4565b7f65d7a28e3265b37a6474929f336521b332c1681b933f6cb9f3376673440d862a61142081611d6b565b610d8b61254f565b60009182526097602090815260408084206001600160a01b0393909316845291905290205460ff1690565b60006101c65485111561147957604051630f0c4c5f60e41b815260040160405180910390fd5b506101c5546040805160a0810190915280600181526020808201889052600060408084018290526001600160a01b038916606085015260809093018690528481526101c49091522081518154829060ff191660018360038111156114df576114df61360b565b0217905550602082015160018201556040820151600282015560608201516003820180546001600160a01b0319166001600160a01b03909216919091179055608082015160048201906115329082613eb2565b50506101c580549150600061154683613d23565b909155505060408051828152602081018790526001600160a01b0386168183015290517f7fe7f72f14a53255f3c9e225ab1d40fdb21335b87a7912726a196fb816866ae09181900360600190a1949350505050565b600260008581526101c4602052604090205460ff1660038111156115c1576115c161360b565b146115df57604051631f0fb6fd60e11b815260040160405180910390fd5b6101c35460008581526101c46020526040902060010154849161160191613f71565b61160b9190613f84565b34101561162b57604051631036b5ad60e31b815260040160405180910390fd5b6116378285858461258c565b6101c3546116459084613f84565b61164f9034613d10565b60008581526101c4602052604081206002018054909190611671908490613f71565b909155505050505050565b6108e93383836126b1565b606060006101c5546001600160401b038111156116a6576116a66134a6565b6040519080825280602002602001820160405280156116ec57816020015b6040805180820190915260608152600060208201528152602001906001900390816116c45790505b50905060005b6101c5548110156117ea5760405180604001604052806101c46000848152602001908152602001600020600401805461172a90613d3c565b80601f016020809104026020016040519081016040528092919081815260200182805461175690613d3c565b80156117a35780601f10611778576101008083540402835291602001916117a3565b820191906000526020600020905b81548152906001019060200180831161178657829003601f168201915b505050505081526020016117b78684610810565b8152508282815181106117cc576117cc613e56565b602002602001018190525080806117e290613d23565b9150506116f2565b5092915050565b60008281526097602052604090206001015461180c81611d6b565b610c3083836120da565b60008281526101c460205260409020600301546001600160a01b031633146118515760405163388f811f60e01b815260040160405180910390fd5b60008281526101c4602052604090206002015481111561188457604051637eafab7d60e01b815260040160405180910390fd5b604051600090339083908381818185875af1925050503d80600081146118c6576040519150601f19603f3d011682016040523d82523d6000602084013e6118cb565b606091505b50509050806118ed576040516317f2c34560e31b815260040160405180910390fd5b60008381526101c460205260408120600201805484929061190f908490613d10565b90915550506040805184815260208101849052338183015290517ff1090e9d5138cd4909542e10e1da576730b07eb291a71a151e63160dde345b949181900360600190a1505050565b606060006101c5546001600160401b03811115611977576119776134a6565b6040519080825280602002602001820160405280156119e457816020015b6119d16040805160a081019091528060008152602001600081526020016000815260200160006001600160a01b03168152602001606081525090565b8152602001906001900390816119955790505b50905060005b6101c554811015611b285760008181526101c4602052604090819020815160a081019092528054829060ff166003811115611a2757611a2761360b565b6003811115611a3857611a3861360b565b8152600182015460208201526002820154604082015260038201546001600160a01b03166060820152600482018054608090920191611a7690613d3c565b80601f0160208091040260200160405190810160405280929190818152602001828054611aa290613d3c565b8015611aef5780601f10611ac457610100808354040283529160200191611aef565b820191906000526020600020905b815481529060010190602001808311611ad257829003601f168201915b505050505081525050828281518110611b0a57611b0a613e56565b60200260200101819052508080611b2090613d23565b9150506119ea565b50919050565b606060405180606001604052806024815260200161441c60249139905090565b6001600160a01b038516331480611b6a5750611b6a8533610762565b611b865760405162461bcd60e51b815260040161087790613d70565b610c148585858585612791565b6001600160a01b038316331480611baf5750611baf8333610762565b611bcb5760405162461bcd60e51b815260040161087790613d70565b610c308383836128cd565b3360009081526101c760209081526040808320600885901c84529182905290912054600160ff84161b16611c1d5760405163423f327760e11b815260040160405180910390fd5b600882901c6000908152602082905260408082208054600160ff87161b1916905551839133917f20fd6f1082c46453388a0b0ac9e4278a154cec6317c190a3416b62dd4ea2bf4a9190a35050565b60008181526101c460205260409020600301546001600160a01b0316331480611c9a5750611c9a600033611428565b611cb75760405163388f811f60e01b815260040160405180910390fd5b600360008281526101c4602052604090205460ff166003811115611cdd57611cdd61360b565b14611cfb5760405163968807a560e01b815260040160405180910390fd5b60008181526101c46020908152604091829020805460ff1916600217905590518281527f63bb17c9645a29322601b4fe88d8f3fa84f32229368294f903084be8f5d813ba91016109c4565b60006001600160e01b03198216637965db0b60e01b14806108a557506108a5826129e9565b610d8b8133612a39565b60676108e98282613eb2565b606060678054611d9090613d3c565b80601f0160208091040260200160405190810160405280929190818152602001828054611dbc90613d3c565b8015611e095780601f10611dde57610100808354040283529160200191611e09565b820191906000526020600020905b815481529060010190602001808311611dec57829003601f168201915b50505050509050919050565b60606000611e2283612a92565b60010190506000816001600160401b03811115611e4157611e416134a6565b6040519080825280601f01601f191660200182016040528015611e6b576020820181803683370190505b5090508181016020015b600019016f181899199a1a9b1b9c1cb0b131b232b360811b600a86061a8153600a8504945084611e7557509392505050565b8151835114611ec85760405162461bcd60e51b815260040161087790613f9b565b6001600160a01b038416611eee5760405162461bcd60e51b815260040161087790613fe3565b33611efd818787878787612b6a565b60005b8451811015611fe6576000858281518110611f1d57611f1d613e56565b602002602001015190506000858381518110611f3b57611f3b613e56565b60209081029190910181015160008481526065835260408082206001600160a01b038e168352909352919091205490915081811015611f8c5760405162461bcd60e51b815260040161087790614028565b60008381526065602090815260408083206001600160a01b038e8116855292528083208585039055908b16825281208054849290611fcb908490613f71565b9250508190555050505080611fdf90613d23565b9050611f00565b50846001600160a01b0316866001600160a01b0316826001600160a01b03167f4a39dc06d4c0dbc64b70af90fd698a233a518aa5d07e595d983b8c0526c8f7fb8787604051612036929190614072565b60405180910390a461204c818787878787612b80565b505050505050565b61205e8282611428565b6108e95760008281526097602090815260408083206001600160a01b03851684529091529020805460ff191660011790556120963390565b6001600160a01b0316816001600160a01b0316837f2f8788117e7eff1d82e926ec794901d17c78024a50270940304540a733656f0d60405160405180910390a45050565b6120e48282611428565b156108e95760008281526097602090815260408083206001600160a01b0385168085529252808320805460ff1916905551339285917ff6391f5c32d9c69d2a47ea670b442974b53935d1edc7fd64eb21e047a839171b9190a45050565b7f189ab7a9244df0848122154315af71fe140f3db0fe014031783b0946b8c9d2e36108e981611d6b565b7f4910fdfa16fed3260ed0e7147f7cc6da11a60208b5b9406d12a635614ffd91435460ff161561219e57610c3083612cdb565b826001600160a01b03166352d1902d6040518163ffffffff1660e01b8152600401602060405180830381865afa9250505080156121f8575060408051601f3d908101601f191682019092526121f5918101906140a0565b60015b61225b5760405162461bcd60e51b815260206004820152602e60248201527f45524331393637557067726164653a206e657720696d706c656d656e7461746960448201526d6f6e206973206e6f74205555505360901b6064820152608401610877565b6000805160206143d583398151915281146122ca5760405162461bcd60e51b815260206004820152602960248201527f45524331393637557067726164653a20756e737570706f727465642070726f786044820152681a58589b195555525160ba1b6064820152608401610877565b50610c30838383612d77565b6122de612d9c565b60c9805460ff191690557f5db9ee0a495bf2e6ff9c91a7834c1ba4fdd244a5e8aa4e537bd38aeae4b073aa335b6040516001600160a01b03909116815260200160405180910390a1565b6001600160a01b03831661234e5760405162461bcd60e51b8152600401610877906140b9565b805182511461236f5760405162461bcd60e51b815260040161087790613f9b565b600033905061239281856000868660405180602001604052806000815250612b6a565b60005b835181101561245a5760008482815181106123b2576123b2613e56565b6020026020010151905060008483815181106123d0576123d0613e56565b60209081029190910181015160008481526065835260408082206001600160a01b038c1683529093529190912054909150818110156124215760405162461bcd60e51b8152600401610877906140fc565b60009283526065602090815260408085206001600160a01b038b168652909152909220910390558061245281613d23565b915050612395565b5060006001600160a01b0316846001600160a01b0316826001600160a01b03167f4a39dc06d4c0dbc64b70af90fd698a233a518aa5d07e595d983b8c0526c8f7fb86866040516124ab929190614072565b60405180910390a4604080516020810190915260009052610b01565b600054610100900460ff166124ee5760405162461bcd60e51b815260040161087790614140565b610d8b81612de5565b600054610100900460ff1661251e5760405162461bcd60e51b815260040161087790614140565b565b600054610100900460ff166125475760405162461bcd60e51b815260040161087790614140565b61251e612e15565b612557612e48565b60c9805460ff191660011790557f62e78cea01bee320cd4e420270b5ea74000d11b0c9f74754ebdbfc544b05a25861230b3390565b6001600160a01b0384166125ec5760405162461bcd60e51b815260206004820152602160248201527f455243313135353a206d696e7420746f20746865207a65726f206164647265736044820152607360f81b6064820152608401610877565b3360006125f885612e8e565b9050600061260585612e8e565b905061261683600089858589612b6a565b60008681526065602090815260408083206001600160a01b038b16845290915281208054879290612648908490613f71565b909155505060408051878152602081018790526001600160a01b03808a1692600092918716917fc3d58168c5ae7397731d063d5bbf3d657854427343f4c083240f7aacaa2d0f62910160405180910390a46126a883600089898989612ed9565b50505050505050565b816001600160a01b0316836001600160a01b0316036127245760405162461bcd60e51b815260206004820152602960248201527f455243313135353a2073657474696e6720617070726f76616c20737461747573604482015268103337b91039b2b63360b91b6064820152608401610877565b6001600160a01b03838116600081815260666020908152604080832094871680845294825291829020805460ff191686151590811790915591519182527f17307eab39ab6107e8899845ad3d59bd9653f200f220920489ca2b5937696c31910160405180910390a3505050565b6001600160a01b0384166127b75760405162461bcd60e51b815260040161087790613fe3565b3360006127c385612e8e565b905060006127d085612e8e565b90506127e0838989858589612b6a565b60008681526065602090815260408083206001600160a01b038c168452909152902054858110156128235760405162461bcd60e51b815260040161087790614028565b60008781526065602090815260408083206001600160a01b038d8116855292528083208985039055908a16825281208054889290612862908490613f71565b909155505060408051888152602081018890526001600160a01b03808b16928c821692918816917fc3d58168c5ae7397731d063d5bbf3d657854427343f4c083240f7aacaa2d0f62910160405180910390a46128c2848a8a8a8a8a612ed9565b505050505050505050565b6001600160a01b0383166128f35760405162461bcd60e51b8152600401610877906140b9565b3360006128ff84612e8e565b9050600061290c84612e8e565b905061292c83876000858560405180602001604052806000815250612b6a565b60008581526065602090815260408083206001600160a01b038a1684529091529020548481101561296f5760405162461bcd60e51b8152600401610877906140fc565b60008681526065602090815260408083206001600160a01b038b81168086529184528285208a8703905582518b81529384018a90529092908816917fc3d58168c5ae7397731d063d5bbf3d657854427343f4c083240f7aacaa2d0f62910160405180910390a46040805160208101909152600090526126a8565b60006001600160e01b03198216636cdb3d1360e11b1480612a1a57506001600160e01b031982166303a24d0760e21b145b806108a557506301ffc9a760e01b6001600160e01b03198316146108a5565b612a438282611428565b6108e957612a5081612f94565b612a5b836020612fa6565b604051602001612a6c92919061418b565b60408051601f198184030181529082905262461bcd60e51b8252610877916004016135f8565b60008072184f03e93ff9f4daa797ed6e38ed64bf6a1f0160401b8310612ad15772184f03e93ff9f4daa797ed6e38ed64bf6a1f0160401b830492506040015b6d04ee2d6d415b85acef81000000008310612afd576d04ee2d6d415b85acef8100000000830492506020015b662386f26fc100008310612b1b57662386f26fc10000830492506010015b6305f5e1008310612b33576305f5e100830492506008015b6127108310612b4757612710830492506004015b60648310612b59576064830492506002015b600a83106108a55760010192915050565b612b72612e48565b61204c868686868686613148565b6001600160a01b0384163b1561204c5760405163bc197c8160e01b81526001600160a01b0385169063bc197c8190612bc49089908990889088908890600401614200565b6020604051808303816000875af1925050508015612bff575060408051601f3d908101601f19168201909252612bfc9181019061425e565b60015b612cab57612c0b61427b565b806308c379a003612c445750612c1f614296565b80612c2a5750612c46565b8060405162461bcd60e51b815260040161087791906135f8565b505b60405162461bcd60e51b815260206004820152603460248201527f455243313135353a207472616e7366657220746f206e6f6e2d455243313135356044820152732932b1b2b4bb32b91034b6b83632b6b2b73a32b960611b6064820152608401610877565b6001600160e01b0319811663bc197c8160e01b146126a85760405162461bcd60e51b81526004016108779061431f565b6001600160a01b0381163b612d485760405162461bcd60e51b815260206004820152602d60248201527f455243313936373a206e657720696d706c656d656e746174696f6e206973206e60448201526c1bdd08184818dbdb9d1c9858dd609a1b6064820152608401610877565b6000805160206143d583398151915280546001600160a01b0319166001600160a01b0392909216919091179055565b612d80836132c4565b600082511180612d8d5750805b15610c3057610b018383613304565b60c95460ff1661251e5760405162461bcd60e51b815260206004820152601460248201527314185d5cd8589b194e881b9bdd081c185d5cd95960621b6044820152606401610877565b600054610100900460ff16612e0c5760405162461bcd60e51b815260040161087790614140565b610d8b81611d75565b600054610100900460ff16612e3c5760405162461bcd60e51b815260040161087790614140565b60c9805460ff19169055565b60c95460ff161561251e5760405162461bcd60e51b815260206004820152601060248201526f14185d5cd8589b194e881c185d5cd95960821b6044820152606401610877565b60408051600180825281830190925260609160009190602080830190803683370190505090508281600081518110612ec857612ec8613e56565b602090810291909101015292915050565b6001600160a01b0384163b1561204c5760405163f23a6e6160e01b81526001600160a01b0385169063f23a6e6190612f1d9089908990889088908890600401614367565b6020604051808303816000875af1925050508015612f58575060408051601f3d908101601f19168201909252612f559181019061425e565b60015b612f6457612c0b61427b565b6001600160e01b0319811663f23a6e6160e01b146126a85760405162461bcd60e51b81526004016108779061431f565b60606108a56001600160a01b03831660145b60606000612fb5836002613f84565b612fc0906002613f71565b6001600160401b03811115612fd757612fd76134a6565b6040519080825280601f01601f191660200182016040528015613001576020820181803683370190505b509050600360fc1b8160008151811061301c5761301c613e56565b60200101906001600160f81b031916908160001a905350600f60fb1b8160018151811061304b5761304b613e56565b60200101906001600160f81b031916908160001a905350600061306f846002613f84565b61307a906001613f71565b90505b60018111156130f2576f181899199a1a9b1b9c1cb0b131b232b360811b85600f16601081106130ae576130ae613e56565b1a60f81b8282815181106130c4576130c4613e56565b60200101906001600160f81b031916908160001a90535060049490941c936130eb816143a1565b905061307d565b5083156131415760405162461bcd60e51b815260206004820181905260248201527f537472696e67733a20686578206c656e67746820696e73756666696369656e746044820152606401610877565b9392505050565b6001600160a01b0385166131d05760005b83518110156131ce5782818151811061317457613174613e56565b602002602001015161012d600086848151811061319357613193613e56565b6020026020010151815260200190815260200160002060008282546131b89190613f71565b909155506131c7905081613d23565b9050613159565b505b6001600160a01b03841661204c5760005b83518110156126a85760008482815181106131fe576131fe613e56565b60200260200101519050600084838151811061321c5761321c613e56565b60200260200101519050600061012d6000848152602001908152602001600020549050818110156132a05760405162461bcd60e51b815260206004820152602860248201527f455243313135353a206275726e20616d6f756e74206578636565647320746f74604482015267616c537570706c7960c01b6064820152608401610877565b600092835261012d6020526040909220910390556132bd81613d23565b90506131e1565b6132cd81612cdb565b6040516001600160a01b038216907fbc7cd75a20ee27fd9adebab32041f755214dbc6bffa90cc0225b39da2e5c2d3b90600090a250565b606061314183836040518060600160405280602781526020016143f5602791396060600080856001600160a01b03168560405161334191906143b8565b600060405180830381855af49150503d806000811461337c576040519150601f19603f3d011682016040523d82523d6000602084013e613381565b606091505b50915091506133928683838761339c565b9695505050505050565b6060831561340b578251600003613404576001600160a01b0385163b6134045760405162461bcd60e51b815260206004820152601d60248201527f416464726573733a2063616c6c20746f206e6f6e2d636f6e74726163740000006044820152606401610877565b5081613415565b613415838361341d565b949350505050565b815115612c2a5781518083602001fd5b80356001600160a01b038116811461344457600080fd5b919050565b6000806040838503121561345c57600080fd5b6134658361342d565b946020939093013593505050565b6001600160e01b031981168114610d8b57600080fd5b60006020828403121561349b57600080fd5b813561314181613473565b634e487b7160e01b600052604160045260246000fd5b601f8201601f191681016001600160401b03811182821017156134e1576134e16134a6565b6040525050565b600082601f8301126134f957600080fd5b81356001600160401b03811115613512576135126134a6565b604051613529601f8301601f1916602001826134bc565b81815284602083860101111561353e57600080fd5b816020850160208301376000918101602001919091529392505050565b60006020828403121561356d57600080fd5b81356001600160401b0381111561358357600080fd5b613415848285016134e8565b6000602082840312156135a157600080fd5b5035919050565b60005b838110156135c35781810151838201526020016135ab565b50506000910152565b600081518084526135e48160208601602086016135a8565b601f01601f19169290920160200192915050565b60208152600061314160208301846135cc565b634e487b7160e01b600052602160045260246000fd5b6004811061363f57634e487b7160e01b600052602160045260246000fd5b9052565b61364d8187613621565b84602082015283604082015260018060a01b038316606082015260a06080820152600061367d60a08301846135cc565b979650505050505050565b60006001600160401b038211156136a1576136a16134a6565b5060051b60200190565b600082601f8301126136bc57600080fd5b813560206136c982613688565b6040516136d682826134bc565b83815260059390931b85018201928281019150868411156136f657600080fd5b8286015b8481101561371157803583529183019183016136fa565b509695505050505050565b600080600080600060a0868803121561373457600080fd5b61373d8661342d565b945061374b6020870161342d565b935060408601356001600160401b038082111561376757600080fd5b61377389838a016136ab565b9450606088013591508082111561378957600080fd5b61379589838a016136ab565b935060808801359150808211156137ab57600080fd5b506137b8888289016134e8565b9150509295509295909350565b600080604083850312156137d857600080fd5b823591506137e86020840161342d565b90509250929050565b60006020828403121561380357600080fd5b6131418261342d565b6000806040838503121561381f57600080fd5b82356001600160401b038082111561383657600080fd5b818501915085601f83011261384a57600080fd5b8135602061385782613688565b60405161386482826134bc565b83815260059390931b850182019282810191508984111561388457600080fd5b948201945b838610156138a95761389a8661342d565b82529482019490820190613889565b965050860135925050808211156138bf57600080fd5b506138cc858286016136ab565b9150509250929050565b600081518084526020808501945080840160005b83811015613906578151875295820195908201906001016138ea565b509495945050505050565b60208152600061314160208301846138d6565b6000806040838503121561393757600080fd5b6139408361342d565b915060208301356001600160401b0381111561395b57600080fd5b6138cc858286016134e8565b6000806000806080858703121561397d57600080fd5b5050823594602084013594506040840135936060013592509050565b6000806000606084860312156139ae57600080fd5b6139b78461342d565b925060208401356001600160401b03808211156139d357600080fd5b6139df878388016136ab565b935060408601359150808211156139f557600080fd5b50613a02868287016136ab565b9150509250925092565b60008060008060808587031215613a2257600080fd5b84359350613a326020860161342d565b9250613a406040860161342d565b915060608501356001600160401b03811115613a5b57600080fd5b613a67878288016134e8565b91505092959194509250565b60008060008060808587031215613a8957600080fd5b8435935060208501359250613a406040860161342d565b60008060408385031215613ab357600080fd5b613abc8361342d565b915060208301358015158114613ad157600080fd5b809150509250929050565b60006020808301818452808551808352604092508286019150828160051b87010184880160005b83811015613b4457888303603f1901855281518051878552613b27888601826135cc565b918901519489019490945294870194925090860190600101613b03565b509098975050505050505050565b60008060408385031215613b6557600080fd5b50508035926020909101359150565b60006020808301818452808551808352604092508286019150828160051b87010184880160005b83811015613b4457603f19898403018552815160a0613bbb858351613621565b81890151858a015287820151888601526060808301516001600160a01b031690860152608091820151918501819052613bf6818601836135cc565b968901969450505090860190600101613b9b565b60008060408385031215613c1d57600080fd5b613c268361342d565b91506137e86020840161342d565b600080600080600060a08688031215613c4c57600080fd5b613c558661342d565b9450613c636020870161342d565b9350604086013592506060860135915060808601356001600160401b03811115613c8c57600080fd5b6137b8888289016134e8565b600080600060608486031215613cad57600080fd5b613cb68461342d565b95602085013595506040909401359392505050565b60008351613cdd8184602088016135a8565b835190830190613cf18183602088016135a8565b01949350505050565b634e487b7160e01b600052601160045260246000fd5b818103818111156108a5576108a5613cfa565b600060018201613d3557613d35613cfa565b5060010190565b600181811c90821680613d5057607f821691505b602082108103611b2857634e487b7160e01b600052602260045260246000fd5b6020808252602e908201527f455243313135353a2063616c6c6572206973206e6f7420746f6b656e206f776e60408201526d195c881bdc88185c1c1c9bdd995960921b606082015260800190565b6020808252602c908201527f46756e6374696f6e206d7573742062652063616c6c6564207468726f7567682060408201526b19195b1959d85d1958d85b1b60a21b606082015260800190565b6020808252602c908201527f46756e6374696f6e206d7573742062652063616c6c6564207468726f7567682060408201526b6163746976652070726f787960a01b606082015260800190565b634e487b7160e01b600052603260045260246000fd5b601f821115610c3057600081815260208120601f850160051c81016020861015613e935750805b601f850160051c820191505b8181101561204c57828155600101613e9f565b81516001600160401b03811115613ecb57613ecb6134a6565b613edf81613ed98454613d3c565b84613e6c565b602080601f831160018114613f145760008415613efc5750858301515b600019600386901b1c1916600185901b17855561204c565b600085815260208120601f198616915b82811015613f4357888601518255948401946001909101908401613f24565b5085821015613f615787850151600019600388901b60f8161c191681555b5050505050600190811b01905550565b808201808211156108a5576108a5613cfa565b80820281158282048414176108a5576108a5613cfa565b60208082526028908201527f455243313135353a2069647320616e6420616d6f756e7473206c656e677468206040820152670dad2e6dac2e8c6d60c31b606082015260800190565b60208082526025908201527f455243313135353a207472616e7366657220746f20746865207a65726f206164604082015264647265737360d81b606082015260800190565b6020808252602a908201527f455243313135353a20696e73756666696369656e742062616c616e636520666f60408201526939103a3930b739b332b960b11b606082015260800190565b60408152600061408560408301856138d6565b828103602084015261409781856138d6565b95945050505050565b6000602082840312156140b257600080fd5b5051919050565b60208082526023908201527f455243313135353a206275726e2066726f6d20746865207a65726f206164647260408201526265737360e81b606082015260800190565b60208082526024908201527f455243313135353a206275726e20616d6f756e7420657863656564732062616c604082015263616e636560e01b606082015260800190565b6020808252602b908201527f496e697469616c697a61626c653a20636f6e7472616374206973206e6f74206960408201526a6e697469616c697a696e6760a81b606082015260800190565b7f416363657373436f6e74726f6c3a206163636f756e74200000000000000000008152600083516141c38160178501602088016135a8565b7001034b99036b4b9b9b4b733903937b6329607d1b60179184019182015283516141f48160288401602088016135a8565b01602801949350505050565b6001600160a01b0386811682528516602082015260a06040820181905260009061422c908301866138d6565b828103606084015261423e81866138d6565b9050828103608084015261425281856135cc565b98975050505050505050565b60006020828403121561427057600080fd5b815161314181613473565b600060033d11156111205760046000803e5060005160e01c90565b600060443d10156142a45790565b6040516003193d81016004833e81513d6001600160401b0381602484011181841117156142d357505050505090565b82850191508151818111156142eb5750505050505090565b843d87010160208285010111156143055750505050505090565b614314602082860101876134bc565b509095945050505050565b60208082526028908201527f455243313135353a204552433131353552656365697665722072656a656374656040820152676420746f6b656e7360c01b606082015260800190565b6001600160a01b03868116825285166020820152604081018490526060810183905260a06080820181905260009061367d908301846135cc565b6000816143b0576143b0613cfa565b506000190190565b600082516143ca8184602087016135a8565b919091019291505056fe360894a13ba1a3210667c828492db98dca3e2076cc3735a920a3ca505d382bbc416464726573733a206c6f772d6c6576656c2064656c65676174652063616c6c206661696c656468747470733a2f2f72616461726c61756e63682e6170702f6170692f6d65746164617461a2646970667358221220e2e10823066806f931b63c1690e1109cf35d95eb8a952094fd4c9a95c64ce43f64736f6c63430008130033",
  "linkReferences": {},
  "deployedLinkReferences": {}
}