{
  "_format": "hh-sol-artifact-1",
  "contractName": "RadarEditions",
  "sourceName": "src/RadarEditions.sol",
  "abi": [
    {
      "inputs": [],
      "name": "EditionFeeExceedsMaximumFee",
      "type": "error"
    },
    {
      "inputs": [],
      "name": "EditionNotCreated",
      "type": "error"
    },
    {
      "inputs": [],
      "name": "EditionNotEnoughBalance",
      "type": "error"
    },
    {
      "inputs": [],
      "name": "EditionNotLaunched",
      "type": "error"
    },
    {
      "inputs": [],
      "name": "EditionNotStopped",
      "type": "error"
    },
    {
      "inputs": [],
      "name": "NotCorrectUser",
      "type": "error"
    },
    {
      "inputs": [],
      "name": "NotEditionOwner",
      "type": "error"
    },
    {
      "inputs": [],
      "name": "NotEnoughFees",
      "type": "error"
    },
    {
      "inputs": [],
      "name": "NotEnoughFunds",
      "type": "error"
    },
    {
      "inputs": [],
      "name": "TransactionFailed",
      "type": "error"
    },
    {
      "anonymous": false,
      "inputs": [
        {
          "indexed": false,
          "internalType": "address",
          "name": "previousAdmin",
          "type": "address"
        },
        {
          "indexed": false,
          "internalType": "address",
          "name": "newAdmin",
          "type": "address"
        }
      ],
      "name": "AdminChanged",
      "type": "event"
    },
    {
      "anonymous": false,
      "inputs": [
        {
          "indexed": true,
          "internalType": "address",
          "name": "account",
          "type": "address"
        },
        {
          "indexed": true,
          "internalType": "address",
          "name": "operator",
          "type": "address"
        },
        {
          "indexed": false,
          "internalType": "bool",
          "name": "approved",
          "type": "bool"
        }
      ],
      "name": "ApprovalForAll",
      "type": "event"
    },
    {
      "anonymous": false,
      "inputs": [
        {
          "indexed": true,
          "internalType": "address",
          "name": "beacon",
          "type": "address"
        }
      ],
      "name": "BeaconUpgraded",
      "type": "event"
    },
    {
      "anonymous": false,
      "inputs": [
        {
          "indexed": false,
          "internalType": "uint256",
          "name": "editionId",
          "type": "uint256"
        }
      ],
      "name": "EditionApproved",
      "type": "event"
    },
    {
      "anonymous": false,
      "inputs": [
        {
          "indexed": false,
          "internalType": "uint256",
          "name": "editionId",
          "type": "uint256"
        },
        {
          "indexed": false,
          "internalType": "uint256",
          "name": "amount",
          "type": "uint256"
        },
        {
          "indexed": false,
          "internalType": "address",
          "name": "owner",
          "type": "address"
        }
      ],
      "name": "EditionBalanceWithdrawn",
      "type": "event"
    },
    {
      "anonymous": false,
      "inputs": [
        {
          "indexed": true,
          "internalType": "uint256",
          "name": "editionId",
          "type": "uint256"
        },
        {
          "indexed": true,
          "internalType": "address",
          "name": "believer",
          "type": "address"
        }
      ],
      "name": "EditionBeliefRemoved",
      "type": "event"
    },
    {
      "anonymous": false,
      "inputs": [
        {
          "indexed": true,
          "internalType": "uint256",
          "name": "editionId",
          "type": "uint256"
        },
        {
          "indexed": true,
          "internalType": "address",
          "name": "believer",
          "type": "address"
        },
        {
          "indexed": false,
          "internalType": "string",
          "name": "tags",
          "type": "string"
        }
      ],
      "name": "EditionBelieved",
      "type": "event"
    },
    {
      "anonymous": false,
      "inputs": [
        {
          "indexed": false,
          "internalType": "uint256",
          "name": "editionId",
          "type": "uint256"
        },
        {
          "indexed": false,
          "internalType": "string",
          "name": "briefId",
          "type": "string"
        },
        {
          "indexed": false,
          "internalType": "uint256",
          "name": "fee",
          "type": "uint256"
        },
        {
          "indexed": false,
          "internalType": "address",
          "name": "owner",
          "type": "address"
        }
      ],
      "name": "EditionCreated",
      "type": "event"
    },
    {
      "anonymous": false,
      "inputs": [
        {
          "indexed": false,
          "internalType": "uint256",
          "name": "editionId",
          "type": "uint256"
        }
      ],
      "name": "EditionResumed",
      "type": "event"
    },
    {
      "anonymous": false,
      "inputs": [
        {
          "indexed": false,
          "internalType": "uint256",
          "name": "editionId",
          "type": "uint256"
        }
      ],
      "name": "EditionStopped",
      "type": "event"
    },
    {
      "anonymous": false,
      "inputs": [
        {
          "indexed": false,
          "internalType": "uint8",
          "name": "version",
          "type": "uint8"
        }
      ],
      "name": "Initialized",
      "type": "event"
    },
    {
      "anonymous": false,
      "inputs": [
        {
          "indexed": false,
          "internalType": "address",
          "name": "account",
          "type": "address"
        }
      ],
      "name": "Paused",
      "type": "event"
    },
    {
      "anonymous": false,
      "inputs": [
        {
          "indexed": true,
          "internalType": "bytes32",
          "name": "role",
          "type": "bytes32"
        },
        {
          "indexed": true,
          "internalType": "bytes32",
          "name": "previousAdminRole",
          "type": "bytes32"
        },
        {
          "indexed": true,
          "internalType": "bytes32",
          "name": "newAdminRole",
          "type": "bytes32"
        }
      ],
      "name": "RoleAdminChanged",
      "type": "event"
    },
    {
      "anonymous": false,
      "inputs": [
        {
          "indexed": true,
          "internalType": "bytes32",
          "name": "role",
          "type": "bytes32"
        },
        {
          "indexed": true,
          "internalType": "address",
          "name": "account",
          "type": "address"
        },
        {
          "indexed": true,
          "internalType": "address",
          "name": "sender",
          "type": "address"
        }
      ],
      "name": "RoleGranted",
      "type": "event"
    },
    {
      "anonymous": false,
      "inputs": [
        {
          "indexed": true,
          "internalType": "bytes32",
          "name": "role",
          "type": "bytes32"
        },
        {
          "indexed": true,
          "internalType": "address",
          "name": "account",
          "type": "address"
        },
        {
          "indexed": true,
          "internalType": "address",
          "name": "sender",
          "type": "address"
        }
      ],
      "name": "RoleRevoked",
      "type": "event"
    },
    {
      "anonymous": false,
      "inputs": [
        {
          "indexed": true,
          "internalType": "address",
          "name": "operator",
          "type": "address"
        },
        {
          "indexed": true,
          "internalType": "address",
          "name": "from",
          "type": "address"
        },
        {
          "indexed": true,
          "internalType": "address",
          "name": "to",
          "type": "address"
        },
        {
          "indexed": false,
          "internalType": "uint256[]",
          "name": "ids",
          "type": "uint256[]"
        },
        {
          "indexed": false,
          "internalType": "uint256[]",
          "name": "values",
          "type": "uint256[]"
        }
      ],
      "name": "TransferBatch",
      "type": "event"
    },
    {
      "anonymous": false,
      "inputs": [
        {
          "indexed": true,
          "internalType": "address",
          "name": "operator",
          "type": "address"
        },
        {
          "indexed": true,
          "internalType": "address",
          "name": "from",
          "type": "address"
        },
        {
          "indexed": true,
          "internalType": "address",
          "name": "to",
          "type": "address"
        },
        {
          "indexed": false,
          "internalType": "uint256",
          "name": "id",
          "type": "uint256"
        },
        {
          "indexed": false,
          "internalType": "uint256",
          "name": "value",
          "type": "uint256"
        }
      ],
      "name": "TransferSingle",
      "type": "event"
    },
    {
      "anonymous": false,
      "inputs": [
        {
          "indexed": false,
          "internalType": "string",
          "name": "value",
          "type": "string"
        },
        {
          "indexed": true,
          "internalType": "uint256",
          "name": "id",
          "type": "uint256"
        }
      ],
      "name": "URI",
      "type": "event"
    },
    {
      "anonymous": false,
      "inputs": [
        {
          "indexed": false,
          "internalType": "address",
          "name": "account",
          "type": "address"
        }
      ],
      "name": "Unpaused",
      "type": "event"
    },
    {
      "anonymous": false,
      "inputs": [
        {
          "indexed": true,
          "internalType": "address",
          "name": "implementation",
          "type": "address"
        }
      ],
      "name": "Upgraded",
      "type": "event"
    },
    {
      "stateMutability": "payable",
      "type": "fallback"
    },
    {
      "inputs": [],
      "name": "DEFAULT_ADMIN_ROLE",
      "outputs": [
        {
          "internalType": "bytes32",
          "name": "",
          "type": "bytes32"
        }
      ],
      "stateMutability": "view",
      "type": "function"
    },
    {
      "inputs": [
        {
          "internalType": "uint256",
          "name": "editionId",
          "type": "uint256"
        }
      ],
      "name": "approveEdition",
      "outputs": [],
      "stateMutability": "nonpayable",
      "type": "function"
    },
    {
      "inputs": [
        {
          "internalType": "address",
          "name": "account",
          "type": "address"
        },
        {
          "internalType": "uint256",
          "name": "id",
          "type": "uint256"
        }
      ],
      "name": "balanceOf",
      "outputs": [
        {
          "internalType": "uint256",
          "name": "",
          "type": "uint256"
        }
      ],
      "stateMutability": "view",
      "type": "function"
    },
    {
      "inputs": [
        {
          "internalType": "address[]",
          "name": "accounts",
          "type": "address[]"
        },
        {
          "internalType": "uint256[]",
          "name": "ids",
          "type": "uint256[]"
        }
      ],
      "name": "balanceOfBatch",
      "outputs": [
        {
          "internalType": "uint256[]",
          "name": "",
          "type": "uint256[]"
        }
      ],
      "stateMutability": "view",
      "type": "function"
    },
    {
      "inputs": [
        {
          "internalType": "address",
          "name": "user",
          "type": "address"
        }
      ],
      "name": "balances",
      "outputs": [
        {
          "internalType": "uint256",
          "name": "balance",
          "type": "uint256"
        }
      ],
      "stateMutability": "view",
      "type": "function"
    },
    {
      "inputs": [
        {
          "internalType": "uint256",
          "name": "editionId",
          "type": "uint256"
        },
        {
          "internalType": "string",
          "name": "tags",
          "type": "string"
        }
      ],
      "name": "believeProject",
      "outputs": [],
      "stateMutability": "payable",
      "type": "function"
    },
    {
      "inputs": [
        {
          "internalType": "address",
          "name": "account",
          "type": "address"
        },
        {
          "internalType": "uint256",
          "name": "id",
          "type": "uint256"
        },
        {
          "internalType": "uint256",
          "name": "value",
          "type": "uint256"
        }
      ],
      "name": "burn",
      "outputs": [],
      "stateMutability": "nonpayable",
      "type": "function"
    },
    {
      "inputs": [
        {
          "internalType": "address",
          "name": "account",
          "type": "address"
        },
        {
          "internalType": "uint256[]",
          "name": "ids",
          "type": "uint256[]"
        },
        {
          "internalType": "uint256[]",
          "name": "values",
          "type": "uint256[]"
        }
      ],
      "name": "burnBatch",
      "outputs": [],
      "stateMutability": "nonpayable",
      "type": "function"
    },
    {
      "inputs": [],
      "name": "contractURI",
      "outputs": [
        {
          "internalType": "string",
          "name": "",
          "type": "string"
        }
      ],
      "stateMutability": "view",
      "type": "function"
    },
    {
      "inputs": [
        {
          "internalType": "uint256",
          "name": "fee",
          "type": "uint256"
        },
        {
          "internalType": "address",
          "name": "owner",
          "type": "address"
        },
        {
          "internalType": "address",
          "name": "payer",
          "type": "address"
        },
        {
          "internalType": "string",
          "name": "id",
          "type": "string"
        },
        {
          "internalType": "string",
          "name": "briefId",
          "type": "string"
        }
      ],
      "name": "createEdition",
      "outputs": [
        {
          "internalType": "uint256",
          "name": "editionId",
          "type": "uint256"
        }
      ],
      "stateMutability": "nonpayable",
      "type": "function"
    },
    {
      "inputs": [],
      "name": "editionCounter",
      "outputs": [
        {
          "internalType": "uint256",
          "name": "",
          "type": "uint256"
        }
      ],
      "stateMutability": "view",
      "type": "function"
    },
    {
      "inputs": [
        {
          "internalType": "uint256",
          "name": "",
          "type": "uint256"
        }
      ],
      "name": "editions",
      "outputs": [
        {
          "internalType": "enum EditionsStructs.EditionStatus",
          "name": "status",
          "type": "uint8"
        },
        {
          "internalType": "uint256",
          "name": "fee",
          "type": "uint256"
        },
        {
          "internalType": "uint256",
          "name": "balance",
          "type": "uint256"
        },
        {
          "internalType": "address",
          "name": "owner",
          "type": "address"
        },
        {
          "internalType": "string",
          "name": "id",
          "type": "string"
        },
        {
          "internalType": "string",
          "name": "briefId",
          "type": "string"
        }
      ],
      "stateMutability": "view",
      "type": "function"
    },
    {
      "inputs": [
        {
          "internalType": "uint256",
          "name": "id",
          "type": "uint256"
        }
      ],
      "name": "exists",
      "outputs": [
        {
          "internalType": "bool",
          "name": "",
          "type": "bool"
        }
      ],
      "stateMutability": "view",
      "type": "function"
    },
    {
      "inputs": [],
      "name": "futureFundFee",
      "outputs": [
        {
          "internalType": "uint256",
          "name": "",
          "type": "uint256"
        }
      ],
      "stateMutability": "view",
      "type": "function"
    },
    {
      "inputs": [
        {
          "internalType": "address",
          "name": "owner",
          "type": "address"
        }
      ],
      "name": "getBalances",
      "outputs": [
        {
          "components": [
            {
              "internalType": "string",
              "name": "id",
              "type": "string"
            },
            {
              "internalType": "uint256",
              "name": "amount",
              "type": "uint256"
            }
          ],
          "internalType": "struct EditionsStructs.EditionIdWithAmount[]",
          "name": "",
          "type": "tuple[]"
        }
      ],
      "stateMutability": "view",
      "type": "function"
    },
    {
      "inputs": [],
      "name": "getEditions",
      "outputs": [
        {
          "components": [
            {
              "internalType": "enum EditionsStructs.EditionStatus",
              "name": "status",
              "type": "uint8"
            },
            {
              "internalType": "uint256",
              "name": "fee",
              "type": "uint256"
            },
            {
              "internalType": "uint256",
              "name": "balance",
              "type": "uint256"
            },
            {
              "internalType": "address",
              "name": "owner",
              "type": "address"
            },
            {
              "internalType": "string",
              "name": "id",
              "type": "string"
            },
            {
              "internalType": "string",
              "name": "briefId",
              "type": "string"
            }
          ],
          "internalType": "struct EditionsStructs.Edition[]",
          "name": "",
          "type": "tuple[]"
        }
      ],
      "stateMutability": "view",
      "type": "function"
    },
    {
      "inputs": [
        {
          "internalType": "bytes32",
          "name": "role",
          "type": "bytes32"
        }
      ],
      "name": "getRoleAdmin",
      "outputs": [
        {
          "internalType": "bytes32",
          "name": "",
          "type": "bytes32"
        }
      ],
      "stateMutability": "view",
      "type": "function"
    },
    {
      "inputs": [
        {
          "internalType": "bytes32",
          "name": "role",
          "type": "bytes32"
        },
        {
          "internalType": "address",
          "name": "account",
          "type": "address"
        }
      ],
      "name": "grantRole",
      "outputs": [],
      "stateMutability": "nonpayable",
      "type": "function"
    },
    {
      "inputs": [
        {
          "internalType": "bytes32",
          "name": "role",
          "type": "bytes32"
        },
        {
          "internalType": "address",
          "name": "account",
          "type": "address"
        }
      ],
      "name": "hasRole",
      "outputs": [
        {
          "internalType": "bool",
          "name": "",
          "type": "bool"
        }
      ],
      "stateMutability": "view",
      "type": "function"
    },
    {
      "inputs": [],
      "name": "initialize",
      "outputs": [],
      "stateMutability": "nonpayable",
      "type": "function"
    },
    {
      "inputs": [
        {
          "internalType": "address",
          "name": "account",
          "type": "address"
        },
        {
          "internalType": "address",
          "name": "operator",
          "type": "address"
        }
      ],
      "name": "isApprovedForAll",
      "outputs": [
        {
          "internalType": "bool",
          "name": "",
          "type": "bool"
        }
      ],
      "stateMutability": "view",
      "type": "function"
    },
    {
      "inputs": [],
      "name": "maximumEditionFee",
      "outputs": [
        {
          "internalType": "uint256",
          "name": "",
          "type": "uint256"
        }
      ],
      "stateMutability": "view",
      "type": "function"
    },
    {
      "inputs": [
        {
          "internalType": "uint256",
          "name": "editionId",
          "type": "uint256"
        },
        {
          "internalType": "uint256",
          "name": "amount",
          "type": "uint256"
        },
        {
          "internalType": "address",
          "name": "buyer",
          "type": "address"
        },
        {
          "internalType": "bytes",
          "name": "data",
          "type": "bytes"
        }
      ],
      "name": "mintEdition",
      "outputs": [],
      "stateMutability": "payable",
      "type": "function"
    },
    {
      "inputs": [],
      "name": "pause",
      "outputs": [],
      "stateMutability": "nonpayable",
      "type": "function"
    },
    {
      "inputs": [],
      "name": "paused",
      "outputs": [
        {
          "internalType": "bool",
          "name": "",
          "type": "bool"
        }
      ],
      "stateMutability": "view",
      "type": "function"
    },
    {
      "inputs": [],
      "name": "protocolFee",
      "outputs": [
        {
          "internalType": "uint256",
          "name": "",
          "type": "uint256"
        }
      ],
      "stateMutability": "view",
      "type": "function"
    },
    {
      "inputs": [],
      "name": "proxiableUUID",
      "outputs": [
        {
          "internalType": "bytes32",
          "name": "",
          "type": "bytes32"
        }
      ],
      "stateMutability": "view",
      "type": "function"
    },
    {
      "inputs": [
        {
          "internalType": "uint256",
          "name": "editionId",
          "type": "uint256"
        }
      ],
      "name": "removeBelief",
      "outputs": [],
      "stateMutability": "nonpayable",
      "type": "function"
    },
    {
      "inputs": [
        {
          "internalType": "bytes32",
          "name": "role",
          "type": "bytes32"
        },
        {
          "internalType": "address",
          "name": "account",
          "type": "address"
        }
      ],
      "name": "renounceRole",
      "outputs": [],
      "stateMutability": "nonpayable",
      "type": "function"
    },
    {
      "inputs": [
        {
          "internalType": "uint256",
          "name": "editionId",
          "type": "uint256"
        }
      ],
      "name": "resumeEdition",
      "outputs": [],
      "stateMutability": "nonpayable",
      "type": "function"
    },
    {
      "inputs": [
        {
          "internalType": "bytes32",
          "name": "role",
          "type": "bytes32"
        },
        {
          "internalType": "address",
          "name": "account",
          "type": "address"
        }
      ],
      "name": "revokeRole",
      "outputs": [],
      "stateMutability": "nonpayable",
      "type": "function"
    },
    {
      "inputs": [
        {
          "internalType": "address",
          "name": "from",
          "type": "address"
        },
        {
          "internalType": "address",
          "name": "to",
          "type": "address"
        },
        {
          "internalType": "uint256[]",
          "name": "ids",
          "type": "uint256[]"
        },
        {
          "internalType": "uint256[]",
          "name": "amounts",
          "type": "uint256[]"
        },
        {
          "internalType": "bytes",
          "name": "data",
          "type": "bytes"
        }
      ],
      "name": "safeBatchTransferFrom",
      "outputs": [],
      "stateMutability": "nonpayable",
      "type": "function"
    },
    {
      "inputs": [
        {
          "internalType": "address",
          "name": "from",
          "type": "address"
        },
        {
          "internalType": "address",
          "name": "to",
          "type": "address"
        },
        {
          "internalType": "uint256",
          "name": "id",
          "type": "uint256"
        },
        {
          "internalType": "uint256",
          "name": "amount",
          "type": "uint256"
        },
        {
          "internalType": "bytes",
          "name": "data",
          "type": "bytes"
        }
      ],
      "name": "safeTransferFrom",
      "outputs": [],
      "stateMutability": "nonpayable",
      "type": "function"
    },
    {
      "inputs": [
        {
          "internalType": "address",
          "name": "operator",
          "type": "address"
        },
        {
          "internalType": "bool",
          "name": "approved",
          "type": "bool"
        }
      ],
      "name": "setApprovalForAll",
      "outputs": [],
      "stateMutability": "nonpayable",
      "type": "function"
    },
    {
      "inputs": [
        {
          "internalType": "uint256",
          "name": "_futureFundFee",
          "type": "uint256"
        }
      ],
      "name": "setFutureFundFee",
      "outputs": [],
      "stateMutability": "nonpayable",
      "type": "function"
    },
    {
      "inputs": [
        {
          "internalType": "uint256",
          "name": "_maximumEditionFee",
          "type": "uint256"
        }
      ],
      "name": "setMaximumEditionFee",
      "outputs": [],
      "stateMutability": "nonpayable",
      "type": "function"
    },
    {
      "inputs": [
        {
          "internalType": "uint256",
          "name": "_protocolFee",
          "type": "uint256"
        }
      ],
      "name": "setProtocolFee",
      "outputs": [],
      "stateMutability": "nonpayable",
      "type": "function"
    },
    {
      "inputs": [
        {
          "internalType": "string",
          "name": "newuri",
          "type": "string"
        }
      ],
      "name": "setURI",
      "outputs": [],
      "stateMutability": "nonpayable",
      "type": "function"
    },
    {
      "inputs": [
        {
          "internalType": "uint256",
          "name": "editionId",
          "type": "uint256"
        }
      ],
      "name": "stopEdition",
      "outputs": [],
      "stateMutability": "nonpayable",
      "type": "function"
    },
    {
      "inputs": [
        {
          "internalType": "bytes4",
          "name": "interfaceId",
          "type": "bytes4"
        }
      ],
      "name": "supportsInterface",
      "outputs": [
        {
          "internalType": "bool",
          "name": "",
          "type": "bool"
        }
      ],
      "stateMutability": "view",
      "type": "function"
    },
    {
      "inputs": [
        {
          "internalType": "uint256",
          "name": "id",
          "type": "uint256"
        }
      ],
      "name": "totalSupply",
      "outputs": [
        {
          "internalType": "uint256",
          "name": "",
          "type": "uint256"
        }
      ],
      "stateMutability": "view",
      "type": "function"
    },
    {
      "inputs": [],
      "name": "unpause",
      "outputs": [],
      "stateMutability": "nonpayable",
      "type": "function"
    },
    {
      "inputs": [
        {
          "internalType": "uint256",
          "name": "editionId",
          "type": "uint256"
        },
        {
          "internalType": "string",
          "name": "id",
          "type": "string"
        },
        {
          "internalType": "string",
          "name": "briefId",
          "type": "string"
        }
      ],
      "name": "updateEdition",
      "outputs": [],
      "stateMutability": "nonpayable",
      "type": "function"
    },
    {
      "inputs": [
        {
          "internalType": "address",
          "name": "newImplementation",
          "type": "address"
        }
      ],
      "name": "upgradeTo",
      "outputs": [],
      "stateMutability": "nonpayable",
      "type": "function"
    },
    {
      "inputs": [
        {
          "internalType": "address",
          "name": "newImplementation",
          "type": "address"
        },
        {
          "internalType": "bytes",
          "name": "data",
          "type": "bytes"
        }
      ],
      "name": "upgradeToAndCall",
      "outputs": [],
      "stateMutability": "payable",
      "type": "function"
    },
    {
      "inputs": [
        {
          "internalType": "uint256",
          "name": "id",
          "type": "uint256"
        }
      ],
      "name": "uri",
      "outputs": [
        {
          "internalType": "string",
          "name": "",
          "type": "string"
        }
      ],
      "stateMutability": "view",
      "type": "function"
    },
    {
      "inputs": [
        {
          "internalType": "uint256",
          "name": "editionId",
          "type": "uint256"
        },
        {
          "internalType": "uint256",
          "name": "amount",
          "type": "uint256"
        }
      ],
      "name": "withdrawEditionBalance",
      "outputs": [],
      "stateMutability": "nonpayable",
      "type": "function"
    },
    {
      "inputs": [
        {
          "internalType": "uint256",
          "name": "amount",
          "type": "uint256"
        }
      ],
      "name": "withdrawFunds",
      "outputs": [],
      "stateMutability": "nonpayable",
      "type": "function"
    },
    {
      "stateMutability": "payable",
      "type": "receive"
    }
  ],
  "bytecode": "0x60a0604052306080523480156200001557600080fd5b506200002062000026565b620000e7565b600054610100900460ff1615620000935760405162461bcd60e51b815260206004820152602760248201527f496e697469616c697a61626c653a20636f6e747261637420697320696e697469604482015266616c697a696e6760c81b606482015260840160405180910390fd5b60005460ff90811614620000e5576000805460ff191660ff9081179091556040519081527f7f26b83ff96e1f2b6a682f133852f6798a09c465da95921460cefb38474024989060200160405180910390a15b565b608051614d056200011f60003960008181610dec01528181610e2c015281816110260152818161106601526110f50152614d056000f3fe60806040526004361061027e5760003560e01c80637cc749411161014e578063c6fbb712116100bb578063e8a3d48511610077578063e8a3d485146107d7578063e985e9c5146107ec578063f242432a14610835578063f5298aca14610855578063f8c1b2fd14610875578063fc74efa21461089557005b8063c6fbb71214610711578063c84aae1714610728578063d547741f14610755578063d667c9ce14610775578063df6efc6c14610795578063e43990fe146107b757005b8063a217fddf1161010a578063a217fddf14610660578063a22cb46514610675578063b0e21e8a14610695578063b3a44bd6146106ac578063b94967a4146106cc578063bd85b039146106e357005b80637cc74941146105c35780638129fc1c146105e35780638456cb59146105f857806391d148541461060d578063940123da1461062d5780639e751ffc1461064057005b80633659cfe6116101ec5780635c975abb116101a85780635c975abb146105215780636b20c454146105395780636b5cb789146105595780637357628c14610570578063787dce3d14610590578063790bafc6146105b057005b80633659cfe6146104675780633f4ba83a146104875780634e1273f41461049c5780634f1ef286146104c95780634f558e79146104dc57806352d1902d1461050c57005b8063248a9ca31161023b578063248a9ca314610377578063279c806e146103a757806327e235e3146103d95780632eb2c2d6146104075780632f2ff15d1461042757806336568abe1461044757005b8062fdd58e1461028757806301ffc9a7146102ba57806302fe5305146102ea5780630a579eca1461030a5780630e89341c1461032a578063155dd5ee1461035757005b3661028557005b005b34801561029357600080fd5b506102a76102a2366004613bb6565b6108b5565b6040519081526020015b60405180910390f35b3480156102c657600080fd5b506102da6102d5366004613bf6565b610950565b60405190151581526020016102b1565b3480156102f657600080fd5b50610285610305366004613cc8565b61095b565b34801561031657600080fd5b50610285610325366004613cfc565b610992565b34801561033657600080fd5b5061034a610345366004613cfc565b610a74565b6040516102b19190613d65565b34801561036357600080fd5b50610285610372366004613cfc565b610aaf565b34801561038357600080fd5b506102a7610392366004613cfc565b60009081526097602052604090206001015490565b3480156103b357600080fd5b506103c76103c2366004613cfc565b610bac565b6040516102b196959493929190613db0565b3480156103e557600080fd5b506102a76103f4366004613e09565b6101c96020526000908152604090205481565b34801561041357600080fd5b50610285610422366004613eb8565b610d02565b34801561043357600080fd5b50610285610442366004613f61565b610d4e565b34801561045357600080fd5b50610285610462366004613f61565b610d68565b34801561047357600080fd5b50610285610482366004613e09565b610de2565b34801561049357600080fd5b50610285610ec1565b3480156104a857600080fd5b506104bc6104b7366004613f8d565b610ef3565b6040516102b19190614092565b6102856104d73660046140a5565b61101c565b3480156104e857600080fd5b506102da6104f7366004613cfc565b600090815261012d6020526040902054151590565b34801561051857600080fd5b506102a76110e8565b34801561052d57600080fd5b5060c95460ff166102da565b34801561054557600080fd5b506102856105543660046140e8565b61119c565b34801561056557600080fd5b506102a76101c65481565b34801561057c57600080fd5b5061028561058b366004613cfc565b6111df565b34801561059c57600080fd5b506102856105ab366004613cfc565b611280565b6102856105be36600461415b565b611292565b3480156105cf57600080fd5b506102856105de366004613cfc565b61145e565b3480156105ef57600080fd5b50610285611470565b34801561060457600080fd5b5061028561163b565b34801561061957600080fd5b506102da610628366004613f61565b61166d565b61028561063b36600461418b565b611698565b34801561064c57600080fd5b5061028561065b366004613cfc565b611785565b34801561066c57600080fd5b506102a7600081565b34801561068157600080fd5b506102856106903660046141eb565b611797565b3480156106a157600080fd5b506102a76101c35481565b3480156106b857600080fd5b506102a76106c7366004614227565b6117a2565b3480156106d857600080fd5b506102a76101ca5481565b3480156106ef57600080fd5b506102a76106fe366004613cfc565b600090815261012d602052604090205490565b34801561071d57600080fd5b506102a76101c55481565b34801561073457600080fd5b50610748610743366004613e09565b6118fc565b6040516102b19190614285565b34801561076157600080fd5b50610285610770366004613f61565b611a66565b34801561078157600080fd5b506102856107903660046142fb565b611a8b565b3480156107a157600080fd5b506107aa611bcd565b6040516102b1919061431d565b3480156107c357600080fd5b506102856107d23660046143d1565b611e3c565b3480156107e357600080fd5b5061034a611ec2565b3480156107f857600080fd5b506102da610807366004614433565b6001600160a01b03918216600090815260666020908152604080832093909416825291909152205460ff1690565b34801561084157600080fd5b5061028561085036600461445d565b611ee2565b34801561086157600080fd5b506102856108703660046144c1565b611f27565b34801561088157600080fd5b50610285610890366004613cfc565b611f6a565b3480156108a157600080fd5b506102856108b0366004613cfc565b611fff565b60006001600160a01b0383166109255760405162461bcd60e51b815260206004820152602a60248201527f455243313135353a2061646472657373207a65726f206973206e6f742061207660448201526930b634b21037bbb732b960b11b60648201526084015b60405180910390fd5b5060008181526065602090815260408083206001600160a01b03861684529091529020545b92915050565b600061094a826120da565b7f7804d923f43a17d325d77e781528e0793b2edd9890ab45fc64efd7b4b427744c610985816120ff565b61098e82612109565b5050565b60008181526101c460205260409020600301546001600160a01b03163314806109c157506109c160003361166d565b6109de5760405163388f811f60e01b815260040160405180910390fd5b600260008281526101c4602052604090205460ff166003811115610a0457610a04613d78565b14610a2257604051631f0fb6fd60e11b815260040160405180910390fd5b60008181526101c46020908152604091829020805460ff1916600317905590518281527f591913f977ab242c5871f116f36be231ff67df5e8e0bac1efd91fa8a723aca2b91015b60405180910390a150565b6060610a7f82612115565b610a88836121a9565b604051602001610a999291906144f4565b6040516020818303038152906040529050919050565b6000610aba816120ff565b47821115610adb57604051631036b5ad60e31b815260040160405180910390fd5b4760005b6101c554811015610b3c5760008181526101c46020526040902060020154610b079083614539565b915083821015610b2a5760405163156bbc5b60e01b815260040160405180910390fd5b80610b348161454c565b915050610adf565b50604051600090339085908381818185875af1925050503d8060008114610b7f576040519150601f19603f3d011682016040523d82523d6000602084013e610b84565b606091505b5050905080610ba6576040516317f2c34560e31b815260040160405180910390fd5b50505050565b6101c4602052600090815260409020805460018201546002830154600384015460048501805460ff90951695939492936001600160a01b0390921692610bf190614565565b80601f0160208091040260200160405190810160405280929190818152602001828054610c1d90614565565b8015610c6a5780601f10610c3f57610100808354040283529160200191610c6a565b820191906000526020600020905b815481529060010190602001808311610c4d57829003601f168201915b505050505090806005018054610c7f90614565565b80601f0160208091040260200160405190810160405280929190818152602001828054610cab90614565565b8015610cf85780601f10610ccd57610100808354040283529160200191610cf8565b820191906000526020600020905b815481529060010190602001808311610cdb57829003601f168201915b5050505050905086565b6001600160a01b038516331480610d1e5750610d1e8533610807565b610d3a5760405162461bcd60e51b815260040161091c90614599565b610d47858585858561223b565b5050505050565b6000610d59816120ff565b610d6383836123e8565b505050565b6001600160a01b0381163314610dd85760405162461bcd60e51b815260206004820152602f60248201527f416363657373436f6e74726f6c3a2063616e206f6e6c792072656e6f756e636560448201526e103937b632b9903337b91039b2b63360891b606482015260840161091c565b61098e828261246e565b6001600160a01b037f0000000000000000000000000000000000000000000000000000000000000000163003610e2a5760405162461bcd60e51b815260040161091c906145e7565b7f00000000000000000000000000000000000000000000000000000000000000006001600160a01b0316610e73600080516020614c65833981519152546001600160a01b031690565b6001600160a01b031614610e995760405162461bcd60e51b815260040161091c90614633565b610ea2816124d5565b60408051600080825260208201909252610ebe918391906124ff565b50565b7f65d7a28e3265b37a6474929f336521b332c1681b933f6cb9f3376673440d862a610eeb816120ff565b610ebe61266a565b60608151835114610f585760405162461bcd60e51b815260206004820152602960248201527f455243313135353a206163636f756e747320616e6420696473206c656e677468604482015268040dad2e6dac2e8c6d60bb1b606482015260840161091c565b600083516001600160401b03811115610f7357610f73613c13565b604051908082528060200260200182016040528015610f9c578160200160208202803683370190505b50905060005b845181101561101457610fe7858281518110610fc057610fc061467f565b6020026020010151858381518110610fda57610fda61467f565b60200260200101516108b5565b828281518110610ff957610ff961467f565b602090810291909101015261100d8161454c565b9050610fa2565b509392505050565b6001600160a01b037f00000000000000000000000000000000000000000000000000000000000000001630036110645760405162461bcd60e51b815260040161091c906145e7565b7f00000000000000000000000000000000000000000000000000000000000000006001600160a01b03166110ad600080516020614c65833981519152546001600160a01b031690565b6001600160a01b0316146110d35760405162461bcd60e51b815260040161091c90614633565b6110dc826124d5565b61098e828260016124ff565b6000306001600160a01b037f000000000000000000000000000000000000000000000000000000000000000016146111885760405162461bcd60e51b815260206004820152603860248201527f555550535570677261646561626c653a206d757374206e6f742062652063616c60448201527f6c6564207468726f7567682064656c656761746563616c6c0000000000000000606482015260840161091c565b50600080516020614c658339815191525b90565b6001600160a01b0383163314806111b857506111b88333610807565b6111d45760405162461bcd60e51b815260040161091c90614599565b610d638383836126bc565b60006111ea816120ff565b600160008381526101c4602052604090205460ff16600381111561121057611210613d78565b1461122e5760405163137c9c1f60e31b815260040160405180910390fd5b60008281526101c46020908152604091829020805460ff1916600217905590518381527f8f4352ac8b4aefdd2333162306bbe09dd4f4ff6661e89ccc4e4dcced8794e8f7910160405180910390a15050565b600061128b816120ff565b506101c355565b6101ca543410156112b657604051631036b5ad60e31b815260040160405180910390fd5b600260008381526101c4602052604090205460ff1660038111156112dc576112dc613d78565b146112fa57604051631f0fb6fd60e11b815260040160405180910390fd5b61130e34836101c5546101c46101c961285b565b6000805b6101c8548110156113a257336001600160a01b03166101c8828154811061133b5761133b61467f565b6000918252602090912001546001600160a01b03160361139057336001600160a01b03166101c882815481106113735761137361467f565b6000918252602090912001546001600160a01b03161491506113a2565b8061139a8161454c565b915050611312565b50806113ec576101c880546001810182556000919091527f8cdee82cb3ac6d59f1f417405a3eecf497b31f3d06d4c506f96deb67789f61e90180546001600160a01b031916331790555b3360009081526101c760209081526040808320600887901c845290915290208054600160ff86161b179055336001600160a01b0316837f710e220a47c8d9e50587c80fe509f5e762149ef672440eff70798204dd70f5eb846040516114519190613d65565b60405180910390a3505050565b6000611469816120ff565b506101c655565b600054610100900460ff16158080156114905750600054600160ff909116105b806114aa5750303b1580156114aa575060005460ff166001145b61150d5760405162461bcd60e51b815260206004820152602e60248201527f496e697469616c697a61626c653a20636f6e747261637420697320616c72656160448201526d191e481a5b9a5d1a585b1a5e995960921b606482015260840161091c565b6000805460ff191660011790558015611530576000805461ff0019166101001790555b61154860405180602001604052806000815250612c3c565b611550612c6c565b611558612c95565b611560612c6c565b611568612c6c565b611570612c6c565b61157b6000336123e8565b6115a57f7804d923f43a17d325d77e781528e0793b2edd9890ab45fc64efd7b4b427744c336123e8565b6115cf7f65d7a28e3265b37a6474929f336521b332c1681b933f6cb9f3376673440d862a336123e8565b6115f97f189ab7a9244df0848122154315af71fe140f3db0fe014031783b0946b8c9d2e3336123e8565b8015610ebe576000805461ff0019169055604051600181527f7f26b83ff96e1f2b6a682f133852f6798a09c465da95921460cefb384740249890602001610a69565b7f65d7a28e3265b37a6474929f336521b332c1681b933f6cb9f3376673440d862a611665816120ff565b610ebe612cc4565b60009182526097602090815260408084206001600160a01b0393909316845291905290205460ff1690565b60006116a3816120ff565b600260008681526101c4602052604090205460ff1660038111156116c9576116c9613d78565b146116e757604051631f0fb6fd60e11b815260040160405180910390fd5b6101c35460008681526101c46020526040902060010154859161170991614695565b61171391906146a8565b34101561173357604051631036b5ad60e31b815260040160405180910390fd5b61173f83868685612d01565b6101c35461174d90856146a8565b6117579034614539565b60008681526101c4602052604081206002018054909190611779908490614695565b90915550505050505050565b6000611790816120ff565b506101ca55565b61098e338383612e26565b60006101c6548611156117c857604051630f0c4c5f60e41b815260040160405180910390fd5b506101c5546040805160c0810190915280600181526020808201899052600060408084018290526001600160a01b038a1660608501526080840188905260a09093018690528481526101c49091522081518154829060ff1916600183600381111561183557611835613d78565b0217905550602082015160018201556040820151600282015560608201516003820180546001600160a01b0319166001600160a01b03909216919091179055608082015160048201906118889082614705565b5060a0820151600582019061189d9082614705565b50506101c58054915060006118b18361454c565b91905055507f3deb71b5a6774038a220621d78241405004043d5a928de9c7956bcc5270416db818388886040516118eb94939291906147c4565b60405180910390a195945050505050565b606060006101c5546001600160401b0381111561191b5761191b613c13565b60405190808252806020026020018201604052801561196157816020015b6040805180820190915260608152600060208201528152602001906001900390816119395790505b50905060005b6101c554811015611a5f5760405180604001604052806101c46000848152602001908152602001600020600401805461199f90614565565b80601f01602080910402602001604051908101604052809291908181526020018280546119cb90614565565b8015611a185780601f106119ed57610100808354040283529160200191611a18565b820191906000526020600020905b8154815290600101906020018083116119fb57829003601f168201915b50505050508152602001611a2c86846108b5565b815250828281518110611a4157611a4161467f565b60200260200101819052508080611a579061454c565b915050611967565b5092915050565b600082815260976020526040902060010154611a81816120ff565b610d63838361246e565b60008281526101c460205260409020600301546001600160a01b03163314611ac65760405163388f811f60e01b815260040160405180910390fd5b60008281526101c46020526040902060020154811115611af957604051637eafab7d60e01b815260040160405180910390fd5b604051600090339083908381818185875af1925050503d8060008114611b3b576040519150601f19603f3d011682016040523d82523d6000602084013e611b40565b606091505b5050905080611b62576040516317f2c34560e31b815260040160405180910390fd5b60008381526101c4602052604081206002018054849290611b84908490614539565b90915550506040805184815260208101849052338183015290517ff1090e9d5138cd4909542e10e1da576730b07eb291a71a151e63160dde345b949181900360600190a1505050565b606060006101c5546001600160401b03811115611bec57611bec613c13565b604051908082528060200260200182016040528015611c6057816020015b611c4d6040805160c081019091528060008152602001600081526020016000815260200160006001600160a01b0316815260200160608152602001606081525090565b815260200190600190039081611c0a5790505b50905060005b6101c554811015611e365760008181526101c4602052604090819020815160c081019092528054829060ff166003811115611ca357611ca3613d78565b6003811115611cb457611cb4613d78565b8152600182015460208201526002820154604082015260038201546001600160a01b03166060820152600482018054608090920191611cf290614565565b80601f0160208091040260200160405190810160405280929190818152602001828054611d1e90614565565b8015611d6b5780601f10611d4057610100808354040283529160200191611d6b565b820191906000526020600020905b815481529060010190602001808311611d4e57829003601f168201915b50505050508152602001600582018054611d8490614565565b80601f0160208091040260200160405190810160405280929190818152602001828054611db090614565565b8015611dfd5780601f10611dd257610100808354040283529160200191611dfd565b820191906000526020600020905b815481529060010190602001808311611de057829003601f168201915b505050505081525050828281518110611e1857611e1861467f565b60200260200101819052508080611e2e9061454c565b915050611c66565b50919050565b6000611e47816120ff565b60008481526101c4602052604081205460ff166003811115611e6b57611e6b613d78565b03611e895760405163137c9c1f60e31b815260040160405180910390fd5b60008481526101c460205260409020600401611ea58482614705565b5060008481526101c460205260409020600501610d478382614705565b6060604051806060016040528060248152602001614cac60249139905090565b6001600160a01b038516331480611efe5750611efe8533610807565b611f1a5760405162461bcd60e51b815260040161091c90614599565b610d478585858585612efe565b6001600160a01b038316331480611f435750611f438333610807565b611f5f5760405162461bcd60e51b815260040161091c90614599565b610d6383838361303a565b3360009081526101c760209081526040808320600885901c84529182905290912054600160ff84161b16611fb15760405163423f327760e11b815260040160405180910390fd5b600882901c6000908152602082905260408082208054600160ff87161b1916905551339184917fc6c1c3224e50c3c958e39197695bdfe8457ce7c0014d8d51a4d3aa12c5ac18489190a35050565b60008181526101c460205260409020600301546001600160a01b031633148061202e575061202e60003361166d565b61204b5760405163388f811f60e01b815260040160405180910390fd5b600360008281526101c4602052604090205460ff16600381111561207157612071613d78565b1461208f5760405163968807a560e01b815260040160405180910390fd5b60008181526101c46020908152604091829020805460ff1916600217905590518281527f63bb17c9645a29322601b4fe88d8f3fa84f32229368294f903084be8f5d813ba9101610a69565b60006001600160e01b03198216637965db0b60e01b148061094a575061094a82613156565b610ebe81336131a6565b606761098e8282614705565b60606067805461212490614565565b80601f016020809104026020016040519081016040528092919081815260200182805461215090614565565b801561219d5780601f106121725761010080835404028352916020019161219d565b820191906000526020600020905b81548152906001019060200180831161218057829003601f168201915b50505050509050919050565b606060006121b6836131ff565b60010190506000816001600160401b038111156121d5576121d5613c13565b6040519080825280601f01601f1916602001820160405280156121ff576020820181803683370190505b5090508181016020015b600019016f181899199a1a9b1b9c1cb0b131b232b360811b600a86061a8153600a850494508461220957509392505050565b815183511461225c5760405162461bcd60e51b815260040161091c906147fe565b6001600160a01b0384166122825760405162461bcd60e51b815260040161091c90614846565b336122918187878787876132d7565b60005b845181101561237a5760008582815181106122b1576122b161467f565b6020026020010151905060008583815181106122cf576122cf61467f565b60209081029190910181015160008481526065835260408082206001600160a01b038e1683529093529190912054909150818110156123205760405162461bcd60e51b815260040161091c9061488b565b60008381526065602090815260408083206001600160a01b038e8116855292528083208585039055908b1682528120805484929061235f908490614695565b92505081905550505050806123739061454c565b9050612294565b50846001600160a01b0316866001600160a01b0316826001600160a01b03167f4a39dc06d4c0dbc64b70af90fd698a233a518aa5d07e595d983b8c0526c8f7fb87876040516123ca9291906148d5565b60405180910390a46123e08187878787876132ed565b505050505050565b6123f2828261166d565b61098e5760008281526097602090815260408083206001600160a01b03851684529091529020805460ff1916600117905561242a3390565b6001600160a01b0316816001600160a01b0316837f2f8788117e7eff1d82e926ec794901d17c78024a50270940304540a733656f0d60405160405180910390a45050565b612478828261166d565b1561098e5760008281526097602090815260408083206001600160a01b0385168085529252808320805460ff1916905551339285917ff6391f5c32d9c69d2a47ea670b442974b53935d1edc7fd64eb21e047a839171b9190a45050565b7f189ab7a9244df0848122154315af71fe140f3db0fe014031783b0946b8c9d2e361098e816120ff565b7f4910fdfa16fed3260ed0e7147f7cc6da11a60208b5b9406d12a635614ffd91435460ff161561253257610d6383613448565b826001600160a01b03166352d1902d6040518163ffffffff1660e01b8152600401602060405180830381865afa92505050801561258c575060408051601f3d908101601f1916820190925261258991810190614903565b60015b6125ef5760405162461bcd60e51b815260206004820152602e60248201527f45524331393637557067726164653a206e657720696d706c656d656e7461746960448201526d6f6e206973206e6f74205555505360901b606482015260840161091c565b600080516020614c65833981519152811461265e5760405162461bcd60e51b815260206004820152602960248201527f45524331393637557067726164653a20756e737570706f727465642070726f786044820152681a58589b195555525160ba1b606482015260840161091c565b50610d638383836134e4565b612672613509565b60c9805460ff191690557f5db9ee0a495bf2e6ff9c91a7834c1ba4fdd244a5e8aa4e537bd38aeae4b073aa335b6040516001600160a01b03909116815260200160405180910390a1565b6001600160a01b0383166126e25760405162461bcd60e51b815260040161091c9061491c565b80518251146127035760405162461bcd60e51b815260040161091c906147fe565b6000339050612726818560008686604051806020016040528060008152506132d7565b60005b83518110156127ee5760008482815181106127465761274661467f565b6020026020010151905060008483815181106127645761276461467f565b60209081029190910181015160008481526065835260408082206001600160a01b038c1683529093529190912054909150818110156127b55760405162461bcd60e51b815260040161091c9061495f565b60009283526065602090815260408085206001600160a01b038b16865290915290922091039055806127e68161454c565b915050612729565b5060006001600160a01b0316846001600160a01b0316826001600160a01b03167f4a39dc06d4c0dbc64b70af90fd698a233a518aa5d07e595d983b8c0526c8f7fb868660405161283f9291906148d5565b60405180910390a4604080516020810190915260009052610ba6565b60006128686002876149a3565b905060006128776005886149a3565b905081846000888152602001908152602001600020600201600082825461289e9190614695565b9091555050600086815260208590526040812060050180546128bf90614565565b80601f01602080910402602001604051908101604052809291908181526020018280546128eb90614565565b80156129385780601f1061290d57610100808354040283529160200191612938565b820191906000526020600020905b81548152906001019060200180831161291b57829003601f168201915b505050505090506000866001600160401b0381111561295957612959613c13565b604051908082528060200260200182016040528015612982578160200160208202803683370190505b5090506000805b88811080156129985750898114155b15612ba657600081815260208990526040808220815160c081019092528054829060ff1660038111156129cd576129cd613d78565b60038111156129de576129de613d78565b8152600182015460208201526002820154604082015260038201546001600160a01b03166060820152600482018054608090920191612a1c90614565565b80601f0160208091040260200160405190810160405280929190818152602001828054612a4890614565565b8015612a955780601f10612a6a57610100808354040283529160200191612a95565b820191906000526020600020905b815481529060010190602001808311612a7857829003601f168201915b50505050508152602001600582018054612aae90614565565b80601f0160208091040260200160405190810160405280929190818152602001828054612ada90614565565b8015612b275780601f10612afc57610100808354040283529160200191612b27565b820191906000526020600020905b815481529060010190602001808311612b0a57829003601f168201915b5050505050815250509050612b518160a00151868051602091820120825192909101919091201490565b15612b93578060600151848481518110612b6d57612b6d61467f565b6001600160a01b0390921660209283029190910190910152612b90600184614695565b92505b5080612b9e8161454c565b915050612989565b825115612c2f576000612bb983876149a3565b9050600091505b82821015612c2d5780886000868581518110612bde57612bde61467f565b60200260200101516001600160a01b03166001600160a01b031681526020019081526020016000206000828254612c159190614695565b90915550829050612c258161454c565b925050612bc0565b505b5050505050505050505050565b600054610100900460ff16612c635760405162461bcd60e51b815260040161091c906149c5565b610ebe81613552565b600054610100900460ff16612c935760405162461bcd60e51b815260040161091c906149c5565b565b600054610100900460ff16612cbc5760405162461bcd60e51b815260040161091c906149c5565b612c93613582565b612ccc6135b5565b60c9805460ff191660011790557f62e78cea01bee320cd4e420270b5ea74000d11b0c9f74754ebdbfc544b05a25861269f3390565b6001600160a01b038416612d615760405162461bcd60e51b815260206004820152602160248201527f455243313135353a206d696e7420746f20746865207a65726f206164647265736044820152607360f81b606482015260840161091c565b336000612d6d856135fb565b90506000612d7a856135fb565b9050612d8b836000898585896132d7565b60008681526065602090815260408083206001600160a01b038b16845290915281208054879290612dbd908490614695565b909155505060408051878152602081018790526001600160a01b03808a1692600092918716917fc3d58168c5ae7397731d063d5bbf3d657854427343f4c083240f7aacaa2d0f62910160405180910390a4612e1d83600089898989613646565b50505050505050565b816001600160a01b0316836001600160a01b031603612e995760405162461bcd60e51b815260206004820152602960248201527f455243313135353a2073657474696e6720617070726f76616c20737461747573604482015268103337b91039b2b63360b91b606482015260840161091c565b6001600160a01b03838116600081815260666020908152604080832094871680845294825291829020805460ff191686151590811790915591519182527f17307eab39ab6107e8899845ad3d59bd9653f200f220920489ca2b5937696c319101611451565b6001600160a01b038416612f245760405162461bcd60e51b815260040161091c90614846565b336000612f30856135fb565b90506000612f3d856135fb565b9050612f4d8389898585896132d7565b60008681526065602090815260408083206001600160a01b038c16845290915290205485811015612f905760405162461bcd60e51b815260040161091c9061488b565b60008781526065602090815260408083206001600160a01b038d8116855292528083208985039055908a16825281208054889290612fcf908490614695565b909155505060408051888152602081018890526001600160a01b03808b16928c821692918816917fc3d58168c5ae7397731d063d5bbf3d657854427343f4c083240f7aacaa2d0f62910160405180910390a461302f848a8a8a8a8a613646565b505050505050505050565b6001600160a01b0383166130605760405162461bcd60e51b815260040161091c9061491c565b33600061306c846135fb565b90506000613079846135fb565b9050613099838760008585604051806020016040528060008152506132d7565b60008581526065602090815260408083206001600160a01b038a168452909152902054848110156130dc5760405162461bcd60e51b815260040161091c9061495f565b60008681526065602090815260408083206001600160a01b038b81168086529184528285208a8703905582518b81529384018a90529092908816917fc3d58168c5ae7397731d063d5bbf3d657854427343f4c083240f7aacaa2d0f62910160405180910390a4604080516020810190915260009052612e1d565b60006001600160e01b03198216636cdb3d1360e11b148061318757506001600160e01b031982166303a24d0760e21b145b8061094a57506301ffc9a760e01b6001600160e01b031983161461094a565b6131b0828261166d565b61098e576131bd81613701565b6131c8836020613713565b6040516020016131d9929190614a10565b60408051601f198184030181529082905262461bcd60e51b825261091c91600401613d65565b60008072184f03e93ff9f4daa797ed6e38ed64bf6a1f0160401b831061323e5772184f03e93ff9f4daa797ed6e38ed64bf6a1f0160401b830492506040015b6d04ee2d6d415b85acef8100000000831061326a576d04ee2d6d415b85acef8100000000830492506020015b662386f26fc10000831061328857662386f26fc10000830492506010015b6305f5e10083106132a0576305f5e100830492506008015b61271083106132b457612710830492506004015b606483106132c6576064830492506002015b600a831061094a5760010192915050565b6132df6135b5565b6123e08686868686866138b5565b6001600160a01b0384163b156123e05760405163bc197c8160e01b81526001600160a01b0385169063bc197c81906133319089908990889088908890600401614a85565b6020604051808303816000875af192505050801561336c575060408051601f3d908101601f1916820190925261336991810190614ae3565b60015b61341857613378614b00565b806308c379a0036133b1575061338c614b1b565b8061339757506133b3565b8060405162461bcd60e51b815260040161091c9190613d65565b505b60405162461bcd60e51b815260206004820152603460248201527f455243313135353a207472616e7366657220746f206e6f6e2d455243313135356044820152732932b1b2b4bb32b91034b6b83632b6b2b73a32b960611b606482015260840161091c565b6001600160e01b0319811663bc197c8160e01b14612e1d5760405162461bcd60e51b815260040161091c90614ba4565b6001600160a01b0381163b6134b55760405162461bcd60e51b815260206004820152602d60248201527f455243313936373a206e657720696d706c656d656e746174696f6e206973206e60448201526c1bdd08184818dbdb9d1c9858dd609a1b606482015260840161091c565b600080516020614c6583398151915280546001600160a01b0319166001600160a01b0392909216919091179055565b6134ed83613a31565b6000825111806134fa5750805b15610d6357610ba68383613a71565b60c95460ff16612c935760405162461bcd60e51b815260206004820152601460248201527314185d5cd8589b194e881b9bdd081c185d5cd95960621b604482015260640161091c565b600054610100900460ff166135795760405162461bcd60e51b815260040161091c906149c5565b610ebe81612109565b600054610100900460ff166135a95760405162461bcd60e51b815260040161091c906149c5565b60c9805460ff19169055565b60c95460ff1615612c935760405162461bcd60e51b815260206004820152601060248201526f14185d5cd8589b194e881c185d5cd95960821b604482015260640161091c565b604080516001808252818301909252606091600091906020808301908036833701905050905082816000815181106136355761363561467f565b602090810291909101015292915050565b6001600160a01b0384163b156123e05760405163f23a6e6160e01b81526001600160a01b0385169063f23a6e619061368a9089908990889088908890600401614bec565b6020604051808303816000875af19250505080156136c5575060408051601f3d908101601f191682019092526136c291810190614ae3565b60015b6136d157613378614b00565b6001600160e01b0319811663f23a6e6160e01b14612e1d5760405162461bcd60e51b815260040161091c90614ba4565b606061094a6001600160a01b03831660145b606060006137228360026146a8565b61372d906002614695565b6001600160401b0381111561374457613744613c13565b6040519080825280601f01601f19166020018201604052801561376e576020820181803683370190505b509050600360fc1b816000815181106137895761378961467f565b60200101906001600160f81b031916908160001a905350600f60fb1b816001815181106137b8576137b861467f565b60200101906001600160f81b031916908160001a90535060006137dc8460026146a8565b6137e7906001614695565b90505b600181111561385f576f181899199a1a9b1b9c1cb0b131b232b360811b85600f166010811061381b5761381b61467f565b1a60f81b8282815181106138315761383161467f565b60200101906001600160f81b031916908160001a90535060049490941c9361385881614c31565b90506137ea565b5083156138ae5760405162461bcd60e51b815260206004820181905260248201527f537472696e67733a20686578206c656e67746820696e73756666696369656e74604482015260640161091c565b9392505050565b6001600160a01b03851661393d5760005b835181101561393b578281815181106138e1576138e161467f565b602002602001015161012d60008684815181106139005761390061467f565b6020026020010151815260200190815260200160002060008282546139259190614695565b9091555061393490508161454c565b90506138c6565b505b6001600160a01b0384166123e05760005b8351811015612e1d57600084828151811061396b5761396b61467f565b6020026020010151905060008483815181106139895761398961467f565b60200260200101519050600061012d600084815260200190815260200160002054905081811015613a0d5760405162461bcd60e51b815260206004820152602860248201527f455243313135353a206275726e20616d6f756e74206578636565647320746f74604482015267616c537570706c7960c01b606482015260840161091c565b600092835261012d602052604090922091039055613a2a8161454c565b905061394e565b613a3a81613448565b6040516001600160a01b038216907fbc7cd75a20ee27fd9adebab32041f755214dbc6bffa90cc0225b39da2e5c2d3b90600090a250565b60606138ae8383604051806060016040528060278152602001614c85602791396060600080856001600160a01b031685604051613aae9190614c48565b600060405180830381855af49150503d8060008114613ae9576040519150601f19603f3d011682016040523d82523d6000602084013e613aee565b606091505b5091509150613aff86838387613b09565b9695505050505050565b60608315613b78578251600003613b71576001600160a01b0385163b613b715760405162461bcd60e51b815260206004820152601d60248201527f416464726573733a2063616c6c20746f206e6f6e2d636f6e7472616374000000604482015260640161091c565b5081613b82565b613b828383613b8a565b949350505050565b8151156133975781518083602001fd5b80356001600160a01b0381168114613bb157600080fd5b919050565b60008060408385031215613bc957600080fd5b613bd283613b9a565b946020939093013593505050565b6001600160e01b031981168114610ebe57600080fd5b600060208284031215613c0857600080fd5b81356138ae81613be0565b634e487b7160e01b600052604160045260246000fd5b601f8201601f191681016001600160401b0381118282101715613c4e57613c4e613c13565b6040525050565b600082601f830112613c6657600080fd5b81356001600160401b03811115613c7f57613c7f613c13565b604051613c96601f8301601f191660200182613c29565b818152846020838601011115613cab57600080fd5b816020850160208301376000918101602001919091529392505050565b600060208284031215613cda57600080fd5b81356001600160401b03811115613cf057600080fd5b613b8284828501613c55565b600060208284031215613d0e57600080fd5b5035919050565b60005b83811015613d30578181015183820152602001613d18565b50506000910152565b60008151808452613d51816020860160208601613d15565b601f01601f19169290920160200192915050565b6020815260006138ae6020830184613d39565b634e487b7160e01b600052602160045260246000fd5b60048110613dac57634e487b7160e01b600052602160045260246000fd5b9052565b613dba8188613d8e565b85602082015284604082015260018060a01b038416606082015260c060808201526000613dea60c0830185613d39565b82810360a0840152613dfc8185613d39565b9998505050505050505050565b600060208284031215613e1b57600080fd5b6138ae82613b9a565b60006001600160401b03821115613e3d57613e3d613c13565b5060051b60200190565b600082601f830112613e5857600080fd5b81356020613e6582613e24565b604051613e728282613c29565b83815260059390931b8501820192828101915086841115613e9257600080fd5b8286015b84811015613ead5780358352918301918301613e96565b509695505050505050565b600080600080600060a08688031215613ed057600080fd5b613ed986613b9a565b9450613ee760208701613b9a565b935060408601356001600160401b0380821115613f0357600080fd5b613f0f89838a01613e47565b94506060880135915080821115613f2557600080fd5b613f3189838a01613e47565b93506080880135915080821115613f4757600080fd5b50613f5488828901613c55565b9150509295509295909350565b60008060408385031215613f7457600080fd5b82359150613f8460208401613b9a565b90509250929050565b60008060408385031215613fa057600080fd5b82356001600160401b0380821115613fb757600080fd5b818501915085601f830112613fcb57600080fd5b81356020613fd882613e24565b604051613fe58282613c29565b83815260059390931b850182019282810191508984111561400557600080fd5b948201945b8386101561402a5761401b86613b9a565b8252948201949082019061400a565b9650508601359250508082111561404057600080fd5b5061404d85828601613e47565b9150509250929050565b600081518084526020808501945080840160005b838110156140875781518752958201959082019060010161406b565b509495945050505050565b6020815260006138ae6020830184614057565b600080604083850312156140b857600080fd5b6140c183613b9a565b915060208301356001600160401b038111156140dc57600080fd5b61404d85828601613c55565b6000806000606084860312156140fd57600080fd5b61410684613b9a565b925060208401356001600160401b038082111561412257600080fd5b61412e87838801613e47565b9350604086013591508082111561414457600080fd5b5061415186828701613e47565b9150509250925092565b6000806040838503121561416e57600080fd5b8235915060208301356001600160401b038111156140dc57600080fd5b600080600080608085870312156141a157600080fd5b84359350602085013592506141b860408601613b9a565b915060608501356001600160401b038111156141d357600080fd5b6141df87828801613c55565b91505092959194509250565b600080604083850312156141fe57600080fd5b61420783613b9a565b91506020830135801515811461421c57600080fd5b809150509250929050565b600080600080600060a0868803121561423f57600080fd5b8535945061424f60208701613b9a565b935061425d60408701613b9a565b925060608601356001600160401b038082111561427957600080fd5b613f3189838a01613c55565b60006020808301818452808551808352604092508286019150828160051b87010184880160005b838110156142ed57888303603f19018552815180518785526142d088860182613d39565b9189015194890194909452948701949250908601906001016142ac565b509098975050505050505050565b6000806040838503121561430e57600080fd5b50508035926020909101359150565b60006020808301818452808551808352604092508286019150828160051b87010184880160005b838110156142ed57603f19898403018552815160c0614364858351613d8e565b81890151858a015287820151888601526060808301516001600160a01b03169086015260808083015181870183905261439f83880182613d39565b9250505060a080830151925085820381870152506143bd8183613d39565b968901969450505090860190600101614344565b6000806000606084860312156143e657600080fd5b8335925060208401356001600160401b038082111561440457600080fd5b61441087838801613c55565b9350604086013591508082111561442657600080fd5b5061415186828701613c55565b6000806040838503121561444657600080fd5b61444f83613b9a565b9150613f8460208401613b9a565b600080600080600060a0868803121561447557600080fd5b61447e86613b9a565b945061448c60208701613b9a565b9350604086013592506060860135915060808601356001600160401b038111156144b557600080fd5b613f5488828901613c55565b6000806000606084860312156144d657600080fd5b6144df84613b9a565b95602085013595506040909401359392505050565b60008351614506818460208801613d15565b83519083019061451a818360208801613d15565b01949350505050565b634e487b7160e01b600052601160045260246000fd5b8181038181111561094a5761094a614523565b60006001820161455e5761455e614523565b5060010190565b600181811c9082168061457957607f821691505b602082108103611e3657634e487b7160e01b600052602260045260246000fd5b6020808252602e908201527f455243313135353a2063616c6c6572206973206e6f7420746f6b656e206f776e60408201526d195c881bdc88185c1c1c9bdd995960921b606082015260800190565b6020808252602c908201527f46756e6374696f6e206d7573742062652063616c6c6564207468726f7567682060408201526b19195b1959d85d1958d85b1b60a21b606082015260800190565b6020808252602c908201527f46756e6374696f6e206d7573742062652063616c6c6564207468726f7567682060408201526b6163746976652070726f787960a01b606082015260800190565b634e487b7160e01b600052603260045260246000fd5b8082018082111561094a5761094a614523565b808202811582820484141761094a5761094a614523565b601f821115610d6357600081815260208120601f850160051c810160208610156146e65750805b601f850160051c820191505b818110156123e0578281556001016146f2565b81516001600160401b0381111561471e5761471e613c13565b6147328161472c8454614565565b846146bf565b602080601f831160018114614767576000841561474f5750858301515b600019600386901b1c1916600185901b1785556123e0565b600085815260208120601f198616915b8281101561479657888601518255948401946001909101908401614777565b50858210156147b45787850151600019600388901b60f8161c191681555b5050505050600190811b01905550565b8481526080602082015260006147dd6080830186613d39565b6040830194909452506001600160a01b039190911660609091015292915050565b60208082526028908201527f455243313135353a2069647320616e6420616d6f756e7473206c656e677468206040820152670dad2e6dac2e8c6d60c31b606082015260800190565b60208082526025908201527f455243313135353a207472616e7366657220746f20746865207a65726f206164604082015264647265737360d81b606082015260800190565b6020808252602a908201527f455243313135353a20696e73756666696369656e742062616c616e636520666f60408201526939103a3930b739b332b960b11b606082015260800190565b6040815260006148e86040830185614057565b82810360208401526148fa8185614057565b95945050505050565b60006020828403121561491557600080fd5b5051919050565b60208082526023908201527f455243313135353a206275726e2066726f6d20746865207a65726f206164647260408201526265737360e81b606082015260800190565b60208082526024908201527f455243313135353a206275726e20616d6f756e7420657863656564732062616c604082015263616e636560e01b606082015260800190565b6000826149c057634e487b7160e01b600052601260045260246000fd5b500490565b6020808252602b908201527f496e697469616c697a61626c653a20636f6e7472616374206973206e6f74206960408201526a6e697469616c697a696e6760a81b606082015260800190565b7f416363657373436f6e74726f6c3a206163636f756e7420000000000000000000815260008351614a48816017850160208801613d15565b7001034b99036b4b9b9b4b733903937b6329607d1b6017918401918201528351614a79816028840160208801613d15565b01602801949350505050565b6001600160a01b0386811682528516602082015260a060408201819052600090614ab190830186614057565b8281036060840152614ac38186614057565b90508281036080840152614ad78185613d39565b98975050505050505050565b600060208284031215614af557600080fd5b81516138ae81613be0565b600060033d11156111995760046000803e5060005160e01c90565b600060443d1015614b295790565b6040516003193d81016004833e81513d6001600160401b038160248401118184111715614b5857505050505090565b8285019150815181811115614b705750505050505090565b843d8701016020828501011115614b8a5750505050505090565b614b9960208286010187613c29565b509095945050505050565b60208082526028908201527f455243313135353a204552433131353552656365697665722072656a656374656040820152676420746f6b656e7360c01b606082015260800190565b6001600160a01b03868116825285166020820152604081018490526060810183905260a060808201819052600090614c2690830184613d39565b979650505050505050565b600081614c4057614c40614523565b506000190190565b60008251614c5a818460208701613d15565b919091019291505056fe360894a13ba1a3210667c828492db98dca3e2076cc3735a920a3ca505d382bbc416464726573733a206c6f772d6c6576656c2064656c65676174652063616c6c206661696c656468747470733a2f2f72616461726c61756e63682e6170702f6170692f6d65746164617461a264697066735822122041d688ea45ff0dd16f27705948d7b0a613be01912caf7ee2e3a657e7b63199bf64736f6c63430008130033",
  "linkReferences": {},
  "deployedLinkReferences": {}
}