{
  "_format": "hh-sol-artifact-1",
  "contractName": "RadarEditions",
  "sourceName": "src/RadarEditions.sol",
  "abi": [
    {
      "inputs": [],
      "name": "EditionFeeExceedsMaximumFee",
      "type": "error"
    },
    {
      "inputs": [],
      "name": "EditionNotCreated",
      "type": "error"
    },
    {
      "inputs": [],
      "name": "EditionNotEnoughBalance",
      "type": "error"
    },
    {
      "inputs": [],
      "name": "EditionNotLaunched",
      "type": "error"
    },
    {
      "inputs": [],
      "name": "EditionNotStopped",
      "type": "error"
    },
    {
      "inputs": [],
      "name": "NotCorrectUser",
      "type": "error"
    },
    {
      "inputs": [],
      "name": "NotEditionOwner",
      "type": "error"
    },
    {
      "inputs": [],
      "name": "NotEnoughFees",
      "type": "error"
    },
    {
      "inputs": [],
      "name": "NotEnoughFunds",
      "type": "error"
    },
    {
      "inputs": [],
      "name": "TransactionFailed",
      "type": "error"
    },
    {
      "anonymous": false,
      "inputs": [
        {
          "indexed": false,
          "internalType": "address",
          "name": "previousAdmin",
          "type": "address"
        },
        {
          "indexed": false,
          "internalType": "address",
          "name": "newAdmin",
          "type": "address"
        }
      ],
      "name": "AdminChanged",
      "type": "event"
    },
    {
      "anonymous": false,
      "inputs": [
        {
          "indexed": true,
          "internalType": "address",
          "name": "account",
          "type": "address"
        },
        {
          "indexed": true,
          "internalType": "address",
          "name": "operator",
          "type": "address"
        },
        {
          "indexed": false,
          "internalType": "bool",
          "name": "approved",
          "type": "bool"
        }
      ],
      "name": "ApprovalForAll",
      "type": "event"
    },
    {
      "anonymous": false,
      "inputs": [
        {
          "indexed": true,
          "internalType": "address",
          "name": "beacon",
          "type": "address"
        }
      ],
      "name": "BeaconUpgraded",
      "type": "event"
    },
    {
      "anonymous": false,
      "inputs": [
        {
          "indexed": false,
          "internalType": "uint256",
          "name": "editionId",
          "type": "uint256"
        }
      ],
      "name": "EditionApproved",
      "type": "event"
    },
    {
      "anonymous": false,
      "inputs": [
        {
          "indexed": false,
          "internalType": "uint256",
          "name": "editionId",
          "type": "uint256"
        },
        {
          "indexed": false,
          "internalType": "uint256",
          "name": "amount",
          "type": "uint256"
        },
        {
          "indexed": false,
          "internalType": "address",
          "name": "owner",
          "type": "address"
        }
      ],
      "name": "EditionBalanceWithdrawn",
      "type": "event"
    },
    {
      "anonymous": false,
      "inputs": [
        {
          "indexed": true,
          "internalType": "uint256",
          "name": "editionId",
          "type": "uint256"
        },
        {
          "indexed": true,
          "internalType": "address",
          "name": "believer",
          "type": "address"
        }
      ],
      "name": "EditionBeliefRemoved",
      "type": "event"
    },
    {
      "anonymous": false,
      "inputs": [
        {
          "indexed": true,
          "internalType": "uint256",
          "name": "editionId",
          "type": "uint256"
        },
        {
          "indexed": true,
          "internalType": "address",
          "name": "believer",
          "type": "address"
        },
        {
          "indexed": false,
          "internalType": "string",
          "name": "tags",
          "type": "string"
        }
      ],
      "name": "EditionBelieved",
      "type": "event"
    },
    {
      "anonymous": false,
      "inputs": [
        {
          "indexed": false,
          "internalType": "uint256",
          "name": "editionId",
          "type": "uint256"
        },
        {
          "indexed": false,
          "internalType": "uint256",
          "name": "fee",
          "type": "uint256"
        },
        {
          "indexed": false,
          "internalType": "uint96",
          "name": "briefId",
          "type": "uint96"
        },
        {
          "indexed": false,
          "internalType": "address",
          "name": "owner",
          "type": "address"
        }
      ],
      "name": "EditionCreated",
      "type": "event"
    },
    {
      "anonymous": false,
      "inputs": [
        {
          "indexed": false,
          "internalType": "uint256",
          "name": "editionId",
          "type": "uint256"
        }
      ],
      "name": "EditionResumed",
      "type": "event"
    },
    {
      "anonymous": false,
      "inputs": [
        {
          "indexed": false,
          "internalType": "uint256",
          "name": "editionId",
          "type": "uint256"
        }
      ],
      "name": "EditionStopped",
      "type": "event"
    },
    {
      "anonymous": false,
      "inputs": [
        {
          "indexed": false,
          "internalType": "uint8",
          "name": "version",
          "type": "uint8"
        }
      ],
      "name": "Initialized",
      "type": "event"
    },
    {
      "anonymous": false,
      "inputs": [
        {
          "indexed": false,
          "internalType": "address",
          "name": "account",
          "type": "address"
        }
      ],
      "name": "Paused",
      "type": "event"
    },
    {
      "anonymous": false,
      "inputs": [
        {
          "indexed": true,
          "internalType": "bytes32",
          "name": "role",
          "type": "bytes32"
        },
        {
          "indexed": true,
          "internalType": "bytes32",
          "name": "previousAdminRole",
          "type": "bytes32"
        },
        {
          "indexed": true,
          "internalType": "bytes32",
          "name": "newAdminRole",
          "type": "bytes32"
        }
      ],
      "name": "RoleAdminChanged",
      "type": "event"
    },
    {
      "anonymous": false,
      "inputs": [
        {
          "indexed": true,
          "internalType": "bytes32",
          "name": "role",
          "type": "bytes32"
        },
        {
          "indexed": true,
          "internalType": "address",
          "name": "account",
          "type": "address"
        },
        {
          "indexed": true,
          "internalType": "address",
          "name": "sender",
          "type": "address"
        }
      ],
      "name": "RoleGranted",
      "type": "event"
    },
    {
      "anonymous": false,
      "inputs": [
        {
          "indexed": true,
          "internalType": "bytes32",
          "name": "role",
          "type": "bytes32"
        },
        {
          "indexed": true,
          "internalType": "address",
          "name": "account",
          "type": "address"
        },
        {
          "indexed": true,
          "internalType": "address",
          "name": "sender",
          "type": "address"
        }
      ],
      "name": "RoleRevoked",
      "type": "event"
    },
    {
      "anonymous": false,
      "inputs": [
        {
          "indexed": true,
          "internalType": "address",
          "name": "operator",
          "type": "address"
        },
        {
          "indexed": true,
          "internalType": "address",
          "name": "from",
          "type": "address"
        },
        {
          "indexed": true,
          "internalType": "address",
          "name": "to",
          "type": "address"
        },
        {
          "indexed": false,
          "internalType": "uint256[]",
          "name": "ids",
          "type": "uint256[]"
        },
        {
          "indexed": false,
          "internalType": "uint256[]",
          "name": "values",
          "type": "uint256[]"
        }
      ],
      "name": "TransferBatch",
      "type": "event"
    },
    {
      "anonymous": false,
      "inputs": [
        {
          "indexed": true,
          "internalType": "address",
          "name": "operator",
          "type": "address"
        },
        {
          "indexed": true,
          "internalType": "address",
          "name": "from",
          "type": "address"
        },
        {
          "indexed": true,
          "internalType": "address",
          "name": "to",
          "type": "address"
        },
        {
          "indexed": false,
          "internalType": "uint256",
          "name": "id",
          "type": "uint256"
        },
        {
          "indexed": false,
          "internalType": "uint256",
          "name": "value",
          "type": "uint256"
        }
      ],
      "name": "TransferSingle",
      "type": "event"
    },
    {
      "anonymous": false,
      "inputs": [
        {
          "indexed": false,
          "internalType": "string",
          "name": "value",
          "type": "string"
        },
        {
          "indexed": true,
          "internalType": "uint256",
          "name": "id",
          "type": "uint256"
        }
      ],
      "name": "URI",
      "type": "event"
    },
    {
      "anonymous": false,
      "inputs": [
        {
          "indexed": false,
          "internalType": "address",
          "name": "account",
          "type": "address"
        }
      ],
      "name": "Unpaused",
      "type": "event"
    },
    {
      "anonymous": false,
      "inputs": [
        {
          "indexed": true,
          "internalType": "address",
          "name": "implementation",
          "type": "address"
        }
      ],
      "name": "Upgraded",
      "type": "event"
    },
    {
      "stateMutability": "payable",
      "type": "fallback"
    },
    {
      "inputs": [],
      "name": "DEFAULT_ADMIN_ROLE",
      "outputs": [
        {
          "internalType": "bytes32",
          "name": "",
          "type": "bytes32"
        }
      ],
      "stateMutability": "view",
      "type": "function"
    },
    {
      "inputs": [
        {
          "internalType": "uint256",
          "name": "editionId",
          "type": "uint256"
        }
      ],
      "name": "approveEdition",
      "outputs": [],
      "stateMutability": "nonpayable",
      "type": "function"
    },
    {
      "inputs": [
        {
          "internalType": "address",
          "name": "account",
          "type": "address"
        },
        {
          "internalType": "uint256",
          "name": "id",
          "type": "uint256"
        }
      ],
      "name": "balanceOf",
      "outputs": [
        {
          "internalType": "uint256",
          "name": "",
          "type": "uint256"
        }
      ],
      "stateMutability": "view",
      "type": "function"
    },
    {
      "inputs": [
        {
          "internalType": "address[]",
          "name": "accounts",
          "type": "address[]"
        },
        {
          "internalType": "uint256[]",
          "name": "ids",
          "type": "uint256[]"
        }
      ],
      "name": "balanceOfBatch",
      "outputs": [
        {
          "internalType": "uint256[]",
          "name": "",
          "type": "uint256[]"
        }
      ],
      "stateMutability": "view",
      "type": "function"
    },
    {
      "inputs": [
        {
          "internalType": "uint256",
          "name": "editionId",
          "type": "uint256"
        },
        {
          "internalType": "string",
          "name": "tags",
          "type": "string"
        }
      ],
      "name": "believeProject",
      "outputs": [],
      "stateMutability": "nonpayable",
      "type": "function"
    },
    {
      "inputs": [
        {
          "internalType": "address",
          "name": "account",
          "type": "address"
        },
        {
          "internalType": "uint256",
          "name": "id",
          "type": "uint256"
        },
        {
          "internalType": "uint256",
          "name": "value",
          "type": "uint256"
        }
      ],
      "name": "burn",
      "outputs": [],
      "stateMutability": "nonpayable",
      "type": "function"
    },
    {
      "inputs": [
        {
          "internalType": "address",
          "name": "account",
          "type": "address"
        },
        {
          "internalType": "uint256[]",
          "name": "ids",
          "type": "uint256[]"
        },
        {
          "internalType": "uint256[]",
          "name": "values",
          "type": "uint256[]"
        }
      ],
      "name": "burnBatch",
      "outputs": [],
      "stateMutability": "nonpayable",
      "type": "function"
    },
    {
      "inputs": [],
      "name": "contractURI",
      "outputs": [
        {
          "internalType": "string",
          "name": "",
          "type": "string"
        }
      ],
      "stateMutability": "view",
      "type": "function"
    },
    {
      "inputs": [
        {
          "internalType": "uint256",
          "name": "fee",
          "type": "uint256"
        },
        {
          "internalType": "address",
          "name": "owner",
          "type": "address"
        },
        {
          "internalType": "address",
          "name": "payer",
          "type": "address"
        },
        {
          "internalType": "uint96",
          "name": "id",
          "type": "uint96"
        },
        {
          "internalType": "uint96",
          "name": "briefId",
          "type": "uint96"
        }
      ],
      "name": "createEdition",
      "outputs": [
        {
          "internalType": "uint256",
          "name": "editionId",
          "type": "uint256"
        }
      ],
      "stateMutability": "nonpayable",
      "type": "function"
    },
    {
      "inputs": [],
      "name": "editionCounter",
      "outputs": [
        {
          "internalType": "uint256",
          "name": "",
          "type": "uint256"
        }
      ],
      "stateMutability": "view",
      "type": "function"
    },
    {
      "inputs": [
        {
          "internalType": "uint256",
          "name": "",
          "type": "uint256"
        }
      ],
      "name": "editions",
      "outputs": [
        {
          "internalType": "enum EditionsStructs.EditionStatus",
          "name": "status",
          "type": "uint8"
        },
        {
          "internalType": "uint256",
          "name": "fee",
          "type": "uint256"
        },
        {
          "internalType": "uint256",
          "name": "balance",
          "type": "uint256"
        },
        {
          "internalType": "address",
          "name": "owner",
          "type": "address"
        },
        {
          "internalType": "uint96",
          "name": "id",
          "type": "uint96"
        },
        {
          "internalType": "uint96",
          "name": "briefId",
          "type": "uint96"
        }
      ],
      "stateMutability": "view",
      "type": "function"
    },
    {
      "inputs": [
        {
          "internalType": "uint256",
          "name": "id",
          "type": "uint256"
        }
      ],
      "name": "exists",
      "outputs": [
        {
          "internalType": "bool",
          "name": "",
          "type": "bool"
        }
      ],
      "stateMutability": "view",
      "type": "function"
    },
    {
      "inputs": [
        {
          "internalType": "address",
          "name": "owner",
          "type": "address"
        }
      ],
      "name": "getBalances",
      "outputs": [
        {
          "components": [
            {
              "internalType": "uint96",
              "name": "id",
              "type": "uint96"
            },
            {
              "internalType": "uint256",
              "name": "amount",
              "type": "uint256"
            }
          ],
          "internalType": "struct EditionsStructs.EditionIdWithAmount[]",
          "name": "",
          "type": "tuple[]"
        }
      ],
      "stateMutability": "view",
      "type": "function"
    },
    {
      "inputs": [],
      "name": "getEditions",
      "outputs": [
        {
          "components": [
            {
              "internalType": "enum EditionsStructs.EditionStatus",
              "name": "status",
              "type": "uint8"
            },
            {
              "internalType": "uint256",
              "name": "fee",
              "type": "uint256"
            },
            {
              "internalType": "uint256",
              "name": "balance",
              "type": "uint256"
            },
            {
              "internalType": "address",
              "name": "owner",
              "type": "address"
            },
            {
              "internalType": "uint96",
              "name": "id",
              "type": "uint96"
            },
            {
              "internalType": "uint96",
              "name": "briefId",
              "type": "uint96"
            }
          ],
          "internalType": "struct EditionsStructs.Edition[]",
          "name": "",
          "type": "tuple[]"
        }
      ],
      "stateMutability": "view",
      "type": "function"
    },
    {
      "inputs": [
        {
          "internalType": "bytes32",
          "name": "role",
          "type": "bytes32"
        }
      ],
      "name": "getRoleAdmin",
      "outputs": [
        {
          "internalType": "bytes32",
          "name": "",
          "type": "bytes32"
        }
      ],
      "stateMutability": "view",
      "type": "function"
    },
    {
      "inputs": [
        {
          "internalType": "bytes32",
          "name": "role",
          "type": "bytes32"
        },
        {
          "internalType": "address",
          "name": "account",
          "type": "address"
        }
      ],
      "name": "grantRole",
      "outputs": [],
      "stateMutability": "nonpayable",
      "type": "function"
    },
    {
      "inputs": [
        {
          "internalType": "bytes32",
          "name": "role",
          "type": "bytes32"
        },
        {
          "internalType": "address",
          "name": "account",
          "type": "address"
        }
      ],
      "name": "hasRole",
      "outputs": [
        {
          "internalType": "bool",
          "name": "",
          "type": "bool"
        }
      ],
      "stateMutability": "view",
      "type": "function"
    },
    {
      "inputs": [],
      "name": "initialize",
      "outputs": [],
      "stateMutability": "nonpayable",
      "type": "function"
    },
    {
      "inputs": [
        {
          "internalType": "address",
          "name": "account",
          "type": "address"
        },
        {
          "internalType": "address",
          "name": "operator",
          "type": "address"
        }
      ],
      "name": "isApprovedForAll",
      "outputs": [
        {
          "internalType": "bool",
          "name": "",
          "type": "bool"
        }
      ],
      "stateMutability": "view",
      "type": "function"
    },
    {
      "inputs": [],
      "name": "maximumEditionFee",
      "outputs": [
        {
          "internalType": "uint256",
          "name": "",
          "type": "uint256"
        }
      ],
      "stateMutability": "view",
      "type": "function"
    },
    {
      "inputs": [
        {
          "internalType": "uint256",
          "name": "editionId",
          "type": "uint256"
        },
        {
          "internalType": "uint256",
          "name": "amount",
          "type": "uint256"
        },
        {
          "internalType": "address",
          "name": "buyer",
          "type": "address"
        },
        {
          "internalType": "bytes",
          "name": "data",
          "type": "bytes"
        }
      ],
      "name": "mintEdition",
      "outputs": [],
      "stateMutability": "payable",
      "type": "function"
    },
    {
      "inputs": [],
      "name": "pause",
      "outputs": [],
      "stateMutability": "nonpayable",
      "type": "function"
    },
    {
      "inputs": [],
      "name": "paused",
      "outputs": [
        {
          "internalType": "bool",
          "name": "",
          "type": "bool"
        }
      ],
      "stateMutability": "view",
      "type": "function"
    },
    {
      "inputs": [],
      "name": "protocolFee",
      "outputs": [
        {
          "internalType": "uint256",
          "name": "",
          "type": "uint256"
        }
      ],
      "stateMutability": "view",
      "type": "function"
    },
    {
      "inputs": [],
      "name": "proxiableUUID",
      "outputs": [
        {
          "internalType": "bytes32",
          "name": "",
          "type": "bytes32"
        }
      ],
      "stateMutability": "view",
      "type": "function"
    },
    {
      "inputs": [
        {
          "internalType": "uint256",
          "name": "editionId",
          "type": "uint256"
        }
      ],
      "name": "removeBelief",
      "outputs": [],
      "stateMutability": "nonpayable",
      "type": "function"
    },
    {
      "inputs": [
        {
          "internalType": "bytes32",
          "name": "role",
          "type": "bytes32"
        },
        {
          "internalType": "address",
          "name": "account",
          "type": "address"
        }
      ],
      "name": "renounceRole",
      "outputs": [],
      "stateMutability": "nonpayable",
      "type": "function"
    },
    {
      "inputs": [
        {
          "internalType": "uint256",
          "name": "editionId",
          "type": "uint256"
        }
      ],
      "name": "resumeEdition",
      "outputs": [],
      "stateMutability": "nonpayable",
      "type": "function"
    },
    {
      "inputs": [
        {
          "internalType": "bytes32",
          "name": "role",
          "type": "bytes32"
        },
        {
          "internalType": "address",
          "name": "account",
          "type": "address"
        }
      ],
      "name": "revokeRole",
      "outputs": [],
      "stateMutability": "nonpayable",
      "type": "function"
    },
    {
      "inputs": [
        {
          "internalType": "address",
          "name": "from",
          "type": "address"
        },
        {
          "internalType": "address",
          "name": "to",
          "type": "address"
        },
        {
          "internalType": "uint256[]",
          "name": "ids",
          "type": "uint256[]"
        },
        {
          "internalType": "uint256[]",
          "name": "amounts",
          "type": "uint256[]"
        },
        {
          "internalType": "bytes",
          "name": "data",
          "type": "bytes"
        }
      ],
      "name": "safeBatchTransferFrom",
      "outputs": [],
      "stateMutability": "nonpayable",
      "type": "function"
    },
    {
      "inputs": [
        {
          "internalType": "address",
          "name": "from",
          "type": "address"
        },
        {
          "internalType": "address",
          "name": "to",
          "type": "address"
        },
        {
          "internalType": "uint256",
          "name": "id",
          "type": "uint256"
        },
        {
          "internalType": "uint256",
          "name": "amount",
          "type": "uint256"
        },
        {
          "internalType": "bytes",
          "name": "data",
          "type": "bytes"
        }
      ],
      "name": "safeTransferFrom",
      "outputs": [],
      "stateMutability": "nonpayable",
      "type": "function"
    },
    {
      "inputs": [
        {
          "internalType": "address",
          "name": "operator",
          "type": "address"
        },
        {
          "internalType": "bool",
          "name": "approved",
          "type": "bool"
        }
      ],
      "name": "setApprovalForAll",
      "outputs": [],
      "stateMutability": "nonpayable",
      "type": "function"
    },
    {
      "inputs": [
        {
          "internalType": "uint256",
          "name": "_maximumEditionFee",
          "type": "uint256"
        }
      ],
      "name": "setMaximumEditionFee",
      "outputs": [],
      "stateMutability": "nonpayable",
      "type": "function"
    },
    {
      "inputs": [
        {
          "internalType": "uint256",
          "name": "_protocolFee",
          "type": "uint256"
        }
      ],
      "name": "setProtocolFee",
      "outputs": [],
      "stateMutability": "nonpayable",
      "type": "function"
    },
    {
      "inputs": [
        {
          "internalType": "string",
          "name": "newuri",
          "type": "string"
        }
      ],
      "name": "setURI",
      "outputs": [],
      "stateMutability": "nonpayable",
      "type": "function"
    },
    {
      "inputs": [
        {
          "internalType": "uint256",
          "name": "editionId",
          "type": "uint256"
        }
      ],
      "name": "stopEdition",
      "outputs": [],
      "stateMutability": "nonpayable",
      "type": "function"
    },
    {
      "inputs": [
        {
          "internalType": "bytes4",
          "name": "interfaceId",
          "type": "bytes4"
        }
      ],
      "name": "supportsInterface",
      "outputs": [
        {
          "internalType": "bool",
          "name": "",
          "type": "bool"
        }
      ],
      "stateMutability": "view",
      "type": "function"
    },
    {
      "inputs": [
        {
          "internalType": "uint256",
          "name": "id",
          "type": "uint256"
        }
      ],
      "name": "totalSupply",
      "outputs": [
        {
          "internalType": "uint256",
          "name": "",
          "type": "uint256"
        }
      ],
      "stateMutability": "view",
      "type": "function"
    },
    {
      "inputs": [],
      "name": "unpause",
      "outputs": [],
      "stateMutability": "nonpayable",
      "type": "function"
    },
    {
      "inputs": [
        {
          "internalType": "uint256",
          "name": "editionId",
          "type": "uint256"
        },
        {
          "internalType": "uint96",
          "name": "id",
          "type": "uint96"
        },
        {
          "internalType": "uint96",
          "name": "briefId",
          "type": "uint96"
        }
      ],
      "name": "updateEdition",
      "outputs": [],
      "stateMutability": "nonpayable",
      "type": "function"
    },
    {
      "inputs": [
        {
          "internalType": "address",
          "name": "newImplementation",
          "type": "address"
        }
      ],
      "name": "upgradeTo",
      "outputs": [],
      "stateMutability": "nonpayable",
      "type": "function"
    },
    {
      "inputs": [
        {
          "internalType": "address",
          "name": "newImplementation",
          "type": "address"
        },
        {
          "internalType": "bytes",
          "name": "data",
          "type": "bytes"
        }
      ],
      "name": "upgradeToAndCall",
      "outputs": [],
      "stateMutability": "payable",
      "type": "function"
    },
    {
      "inputs": [
        {
          "internalType": "uint256",
          "name": "id",
          "type": "uint256"
        }
      ],
      "name": "uri",
      "outputs": [
        {
          "internalType": "string",
          "name": "",
          "type": "string"
        }
      ],
      "stateMutability": "view",
      "type": "function"
    },
    {
      "inputs": [
        {
          "internalType": "uint256",
          "name": "editionId",
          "type": "uint256"
        },
        {
          "internalType": "uint256",
          "name": "amount",
          "type": "uint256"
        }
      ],
      "name": "withdrawEditionBalance",
      "outputs": [],
      "stateMutability": "nonpayable",
      "type": "function"
    },
    {
      "inputs": [
        {
          "internalType": "uint256",
          "name": "amount",
          "type": "uint256"
        }
      ],
      "name": "withdrawFunds",
      "outputs": [],
      "stateMutability": "nonpayable",
      "type": "function"
    },
    {
      "stateMutability": "payable",
      "type": "receive"
    }
  ],
  "bytecode": "0x60a0604052306080523480156200001557600080fd5b506200002062000026565b620000e7565b600054610100900460ff1615620000935760405162461bcd60e51b815260206004820152602760248201527f496e697469616c697a61626c653a20636f6e747261637420697320696e697469604482015266616c697a696e6760c81b606482015260840160405180910390fd5b60005460ff90811614620000e5576000805460ff191660ff9081179091556040519081527f7f26b83ff96e1f2b6a682f133852f6798a09c465da95921460cefb38474024989060200160405180910390a15b565b60805161445c6200011f60003960008181610c6a01528181610caa01528181610f4201528181610f820152611011015261445c6000f3fe60806040526004361061025d5760003560e01c8063787dce3d11610143578063bd85b039116100bb578063e8a3d48511610077578063e8a3d485146107ab578063e985e9c5146107c0578063f242432a14610809578063f5298aca14610829578063f8c1b2fd14610849578063fc74efa21461086957005b8063bd85b039146106d7578063c6fbb71214610705578063c84aae171461071c578063d547741f14610749578063d667c9ce14610769578063df6efc6c1461078957005b806391d148541161010a57806391d1485414610638578063940123da14610658578063a217fddf1461066b578063a22cb46514610680578063a2f89fb6146106a0578063b0e21e8a146106c057005b8063787dce3d146105ae578063790bafc6146105ce5780637cc74941146105ee5780638129fc1c1461060e5780638456cb591461062357005b80633659cfe6116101d65780634f558e791161019d5780634f558e79146104fa57806352d1902d1461052a5780635c975abb1461053f5780636b20c454146105575780636b5cb789146105775780637357628c1461058e57005b80633659cfe6146104655780633f4ba83a146104855780634462486f1461049a5780634e1273f4146104ba5780634f1ef286146104e757005b8063155dd5ee11610225578063155dd5ee14610336578063248a9ca314610356578063279c806e146103865780632eb2c2d6146104055780632f2ff15d1461042557806336568abe1461044557005b8062fdd58e1461026657806301ffc9a71461029957806302fe5305146102c95780630a579eca146102e95780630e89341c1461030957005b3661026457005b005b34801561027257600080fd5b506102866102813660046133ce565b610889565b6040519081526020015b60405180910390f35b3480156102a557600080fd5b506102b96102b436600461340e565b610924565b6040519015158152602001610290565b3480156102d557600080fd5b506102646102e43660046134e0565b61092f565b3480156102f557600080fd5b50610264610304366004613514565b610966565b34801561031557600080fd5b50610329610324366004613514565b610a48565b604051610290919061357d565b34801561034257600080fd5b50610264610351366004613514565b610a83565b34801561036257600080fd5b50610286610371366004613514565b60009081526097602052604090206001015490565b34801561039257600080fd5b506103f36103a1366004613514565b6101c4602052600090815260409020805460018201546002830154600384015460049094015460ff90931693919290916001600160a01b038116916001600160601b03600160a01b9092048216911686565b604051610290969594939291906135c8565b34801561041157600080fd5b506102646104203660046136a7565b610b80565b34801561043157600080fd5b50610264610440366004613750565b610bcc565b34801561045157600080fd5b50610264610460366004613750565b610be6565b34801561047157600080fd5b5061026461048036600461377c565b610c60565b34801561049157600080fd5b50610264610d3f565b3480156104a657600080fd5b506102646104b53660046137ae565b610d71565b3480156104c657600080fd5b506104da6104d53660046137ea565b610e0f565b60405161029091906138ef565b6102646104f5366004613902565b610f38565b34801561050657600080fd5b506102b9610515366004613514565b600090815261012d6020526040902054151590565b34801561053657600080fd5b50610286611004565b34801561054b57600080fd5b5060c95460ff166102b9565b34801561056357600080fd5b50610264610572366004613945565b6110b8565b34801561058357600080fd5b506102866101c65481565b34801561059a57600080fd5b506102646105a9366004613514565b6110fb565b3480156105ba57600080fd5b506102646105c9366004613514565b61119c565b3480156105da57600080fd5b506102646105e93660046139b8565b6111ae565b3480156105fa57600080fd5b50610264610609366004613514565b611263565b34801561061a57600080fd5b50610264611275565b34801561062f57600080fd5b50610264611440565b34801561064457600080fd5b506102b9610653366004613750565b611472565b6102646106663660046139e8565b61149d565b34801561067757600080fd5b50610286600081565b34801561068c57600080fd5b5061026461069b366004613a48565b61157e565b3480156106ac57600080fd5b506102866106bb366004613a84565b611589565b3480156106cc57600080fd5b506102866101c35481565b3480156106e357600080fd5b506102866106f2366004613514565b600090815261012d602052604090205490565b34801561071157600080fd5b506102866101c55481565b34801561072857600080fd5b5061073c61073736600461377c565b611706565b6040516102909190613ae2565b34801561075557600080fd5b50610264610764366004613750565b6117f1565b34801561077557600080fd5b50610264610784366004613b3a565b611816565b34801561079557600080fd5b5061079e611958565b6040516102909190613b5c565b3480156107b757600080fd5b50610329611ab3565b3480156107cc57600080fd5b506102b96107db366004613be6565b6001600160a01b03918216600090815260666020908152604080832093909416825291909152205460ff1690565b34801561081557600080fd5b50610264610824366004613c10565b611ad3565b34801561083557600080fd5b50610264610844366004613c74565b611b18565b34801561085557600080fd5b50610264610864366004613514565b611b5b565b34801561087557600080fd5b50610264610884366004613514565b611bf0565b60006001600160a01b0383166108f95760405162461bcd60e51b815260206004820152602a60248201527f455243313135353a2061646472657373207a65726f206973206e6f742061207660448201526930b634b21037bbb732b960b11b60648201526084015b60405180910390fd5b5060008181526065602090815260408083206001600160a01b03861684529091529020545b92915050565b600061091e82611ccb565b7f7804d923f43a17d325d77e781528e0793b2edd9890ab45fc64efd7b4b427744c61095981611cf0565b61096282611cfa565b5050565b60008181526101c460205260409020600301546001600160a01b03163314806109955750610995600033611472565b6109b25760405163388f811f60e01b815260040160405180910390fd5b600260008281526101c4602052604090205460ff1660038111156109d8576109d8613590565b146109f657604051631f0fb6fd60e11b815260040160405180910390fd5b60008181526101c46020908152604091829020805460ff1916600317905590518281527f591913f977ab242c5871f116f36be231ff67df5e8e0bac1efd91fa8a723aca2b91015b60405180910390a150565b6060610a5382611d06565b610a5c83611d9a565b604051602001610a6d929190613ca7565b6040516020818303038152906040529050919050565b6000610a8e81611cf0565b47821115610aaf57604051631036b5ad60e31b815260040160405180910390fd5b4760005b6101c554811015610b105760008181526101c46020526040902060020154610adb9083613cec565b915083821015610afe5760405163156bbc5b60e01b815260040160405180910390fd5b80610b0881613cff565b915050610ab3565b50604051600090339085908381818185875af1925050503d8060008114610b53576040519150601f19603f3d011682016040523d82523d6000602084013e610b58565b606091505b5050905080610b7a576040516317f2c34560e31b815260040160405180910390fd5b50505050565b6001600160a01b038516331480610b9c5750610b9c85336107db565b610bb85760405162461bcd60e51b81526004016108f090613d18565b610bc58585858585611e2c565b5050505050565b6000610bd781611cf0565b610be18383611fd9565b505050565b6001600160a01b0381163314610c565760405162461bcd60e51b815260206004820152602f60248201527f416363657373436f6e74726f6c3a2063616e206f6e6c792072656e6f756e636560448201526e103937b632b9903337b91039b2b63360891b60648201526084016108f0565b610962828261205f565b6001600160a01b037f0000000000000000000000000000000000000000000000000000000000000000163003610ca85760405162461bcd60e51b81526004016108f090613d66565b7f00000000000000000000000000000000000000000000000000000000000000006001600160a01b0316610cf16000805160206143bc833981519152546001600160a01b031690565b6001600160a01b031614610d175760405162461bcd60e51b81526004016108f090613db2565b610d20816120c6565b60408051600080825260208201909252610d3c918391906120f0565b50565b7f65d7a28e3265b37a6474929f336521b332c1681b933f6cb9f3376673440d862a610d6981611cf0565b610d3c61225b565b6000610d7c81611cf0565b60008481526101c4602052604081205460ff166003811115610da057610da0613590565b03610dbe5760405163137c9c1f60e31b815260040160405180910390fd5b5060009283526101c460205260409092206003810180546001600160a01b0316600160a01b6001600160601b039485160217905560040180546bffffffffffffffffffffffff191691909216179055565b60608151835114610e745760405162461bcd60e51b815260206004820152602960248201527f455243313135353a206163636f756e747320616e6420696473206c656e677468604482015268040dad2e6dac2e8c6d60bb1b60648201526084016108f0565b600083516001600160401b03811115610e8f57610e8f61342b565b604051908082528060200260200182016040528015610eb8578160200160208202803683370190505b50905060005b8451811015610f3057610f03858281518110610edc57610edc613dfe565b6020026020010151858381518110610ef657610ef6613dfe565b6020026020010151610889565b828281518110610f1557610f15613dfe565b6020908102919091010152610f2981613cff565b9050610ebe565b509392505050565b6001600160a01b037f0000000000000000000000000000000000000000000000000000000000000000163003610f805760405162461bcd60e51b81526004016108f090613d66565b7f00000000000000000000000000000000000000000000000000000000000000006001600160a01b0316610fc96000805160206143bc833981519152546001600160a01b031690565b6001600160a01b031614610fef5760405162461bcd60e51b81526004016108f090613db2565b610ff8826120c6565b610962828260016120f0565b6000306001600160a01b037f000000000000000000000000000000000000000000000000000000000000000016146110a45760405162461bcd60e51b815260206004820152603860248201527f555550535570677261646561626c653a206d757374206e6f742062652063616c60448201527f6c6564207468726f7567682064656c656761746563616c6c000000000000000060648201526084016108f0565b506000805160206143bc8339815191525b90565b6001600160a01b0383163314806110d457506110d483336107db565b6110f05760405162461bcd60e51b81526004016108f090613d18565b610be18383836122ad565b600061110681611cf0565b600160008381526101c4602052604090205460ff16600381111561112c5761112c613590565b1461114a5760405163137c9c1f60e31b815260040160405180910390fd5b60008281526101c46020908152604091829020805460ff1916600217905590518381527f8f4352ac8b4aefdd2333162306bbe09dd4f4ff6661e89ccc4e4dcced8794e8f7910160405180910390a15050565b60006111a781611cf0565b506101c355565b600260008381526101c4602052604090205460ff1660038111156111d4576111d4613590565b146111f25760405163137c9c1f60e31b815260040160405180910390fd5b3360009081526101c760209081526040808320600886901c845290915290208054600160ff85161b179055336001600160a01b0316827f710e220a47c8d9e50587c80fe509f5e762149ef672440eff70798204dd70f5eb83604051611257919061357d565b60405180910390a35050565b600061126e81611cf0565b506101c655565b600054610100900460ff16158080156112955750600054600160ff909116105b806112af5750303b1580156112af575060005460ff166001145b6113125760405162461bcd60e51b815260206004820152602e60248201527f496e697469616c697a61626c653a20636f6e747261637420697320616c72656160448201526d191e481a5b9a5d1a585b1a5e995960921b60648201526084016108f0565b6000805460ff191660011790558015611335576000805461ff0019166101001790555b61134d6040518060200160405280600081525061244c565b61135561247c565b61135d6124a5565b61136561247c565b61136d61247c565b61137561247c565b611380600033611fd9565b6113aa7f7804d923f43a17d325d77e781528e0793b2edd9890ab45fc64efd7b4b427744c33611fd9565b6113d47f65d7a28e3265b37a6474929f336521b332c1681b933f6cb9f3376673440d862a33611fd9565b6113fe7f189ab7a9244df0848122154315af71fe140f3db0fe014031783b0946b8c9d2e333611fd9565b8015610d3c576000805461ff0019169055604051600181527f7f26b83ff96e1f2b6a682f133852f6798a09c465da95921460cefb384740249890602001610a3d565b7f65d7a28e3265b37a6474929f336521b332c1681b933f6cb9f3376673440d862a61146a81611cf0565b610d3c6124d4565b60009182526097602090815260408084206001600160a01b0393909316845291905290205460ff1690565b600260008581526101c4602052604090205460ff1660038111156114c3576114c3613590565b146114e157604051631f0fb6fd60e11b815260040160405180910390fd5b6101c35460008581526101c46020526040902060010154849161150391613e14565b61150d9190613e27565b34101561152d57604051631036b5ad60e31b815260040160405180910390fd5b61153982858584612511565b6101c3546115479084613e27565b6115519034613cec565b60008581526101c4602052604081206002018054909190611573908490613e14565b909155505050505050565b610962338383612636565b60006101c6548611156115af57604051630f0c4c5f60e41b815260040160405180910390fd5b506101c5546040805160c0810190915280600181526020808201899052600060408084018290526001600160a01b038a1660608501526001600160601b038089166080860152871660a0909401939093528481526101c49091522081518154829060ff1916600183600381111561162857611628613590565b02179055506020820151600182015560408201516002820155606082015160808301516001600160a01b03909116600160a01b6001600160601b039283160217600383015560a090920151600490910180546bffffffffffffffffffffffff1916919092161790556101c580549060006116a183613cff565b909155505060408051828152602081018890526001600160601b038416818301526001600160a01b038716606082015290517f2aa47da5461670f8447338efafce9a1c28b72acd7eed3db3876ad9a1b80c7e919181900360800190a195945050505050565b606060006101c5546001600160401b038111156117255761172561342b565b60405190808252806020026020018201604052801561176a57816020015b60408051808201909152600080825260208201528152602001906001900390816117435790505b50905060005b6101c5548110156117ea5760408051808201825260008381526101c4602090815292902060030154600160a01b90046001600160601b031681529081016117b78684610889565b8152508282815181106117cc576117cc613dfe565b602002602001018190525080806117e290613cff565b915050611770565b5092915050565b60008281526097602052604090206001015461180c81611cf0565b610be1838361205f565b60008281526101c460205260409020600301546001600160a01b031633146118515760405163388f811f60e01b815260040160405180910390fd5b60008281526101c4602052604090206002015481111561188457604051637eafab7d60e01b815260040160405180910390fd5b604051600090339083908381818185875af1925050503d80600081146118c6576040519150601f19603f3d011682016040523d82523d6000602084013e6118cb565b606091505b50509050806118ed576040516317f2c34560e31b815260040160405180910390fd5b60008381526101c460205260408120600201805484929061190f908490613cec565b90915550506040805184815260208101849052338183015290517ff1090e9d5138cd4909542e10e1da576730b07eb291a71a151e63160dde345b949181900360600190a1505050565b606060006101c5546001600160401b038111156119775761197761342b565b6040519080825280602002602001820160405280156119d757816020015b6040805160c08101825260008082526020808301829052928201819052606082018190526080820181905260a082015282526000199092019101816119955790505b50905060005b6101c554811015611aad5760008181526101c4602052604090819020815160c081019092528054829060ff166003811115611a1a57611a1a613590565b6003811115611a2b57611a2b613590565b8152600182015460208201526002820154604082015260038201546001600160a01b03811660608301526001600160601b03600160a01b9091048116608083015260049092015490911660a0909101528251839083908110611a8f57611a8f613dfe565b60200260200101819052508080611aa590613cff565b9150506119dd565b50919050565b606060405180606001604052806024815260200161440360249139905090565b6001600160a01b038516331480611aef5750611aef85336107db565b611b0b5760405162461bcd60e51b81526004016108f090613d18565b610bc58585858585612716565b6001600160a01b038316331480611b345750611b3483336107db565b611b505760405162461bcd60e51b81526004016108f090613d18565b610be1838383612852565b3360009081526101c760209081526040808320600885901c84529182905290912054600160ff84161b16611ba25760405163423f327760e11b815260040160405180910390fd5b600882901c6000908152602082905260408082208054600160ff87161b1916905551339184917fc6c1c3224e50c3c958e39197695bdfe8457ce7c0014d8d51a4d3aa12c5ac18489190a35050565b60008181526101c460205260409020600301546001600160a01b0316331480611c1f5750611c1f600033611472565b611c3c5760405163388f811f60e01b815260040160405180910390fd5b600360008281526101c4602052604090205460ff166003811115611c6257611c62613590565b14611c805760405163968807a560e01b815260040160405180910390fd5b60008181526101c46020908152604091829020805460ff1916600217905590518281527f63bb17c9645a29322601b4fe88d8f3fa84f32229368294f903084be8f5d813ba9101610a3d565b60006001600160e01b03198216637965db0b60e01b148061091e575061091e8261296e565b610d3c81336129be565b60676109628282613eb8565b606060678054611d1590613e3e565b80601f0160208091040260200160405190810160405280929190818152602001828054611d4190613e3e565b8015611d8e5780601f10611d6357610100808354040283529160200191611d8e565b820191906000526020600020905b815481529060010190602001808311611d7157829003601f168201915b50505050509050919050565b60606000611da783612a17565b60010190506000816001600160401b03811115611dc657611dc661342b565b6040519080825280601f01601f191660200182016040528015611df0576020820181803683370190505b5090508181016020015b600019016f181899199a1a9b1b9c1cb0b131b232b360811b600a86061a8153600a8504945084611dfa57509392505050565b8151835114611e4d5760405162461bcd60e51b81526004016108f090613f77565b6001600160a01b038416611e735760405162461bcd60e51b81526004016108f090613fbf565b33611e82818787878787612aef565b60005b8451811015611f6b576000858281518110611ea257611ea2613dfe565b602002602001015190506000858381518110611ec057611ec0613dfe565b60209081029190910181015160008481526065835260408082206001600160a01b038e168352909352919091205490915081811015611f115760405162461bcd60e51b81526004016108f090614004565b60008381526065602090815260408083206001600160a01b038e8116855292528083208585039055908b16825281208054849290611f50908490613e14565b9250508190555050505080611f6490613cff565b9050611e85565b50846001600160a01b0316866001600160a01b0316826001600160a01b03167f4a39dc06d4c0dbc64b70af90fd698a233a518aa5d07e595d983b8c0526c8f7fb8787604051611fbb92919061404e565b60405180910390a4611fd1818787878787612b05565b505050505050565b611fe38282611472565b6109625760008281526097602090815260408083206001600160a01b03851684529091529020805460ff1916600117905561201b3390565b6001600160a01b0316816001600160a01b0316837f2f8788117e7eff1d82e926ec794901d17c78024a50270940304540a733656f0d60405160405180910390a45050565b6120698282611472565b156109625760008281526097602090815260408083206001600160a01b0385168085529252808320805460ff1916905551339285917ff6391f5c32d9c69d2a47ea670b442974b53935d1edc7fd64eb21e047a839171b9190a45050565b7f189ab7a9244df0848122154315af71fe140f3db0fe014031783b0946b8c9d2e361096281611cf0565b7f4910fdfa16fed3260ed0e7147f7cc6da11a60208b5b9406d12a635614ffd91435460ff161561212357610be183612c60565b826001600160a01b03166352d1902d6040518163ffffffff1660e01b8152600401602060405180830381865afa92505050801561217d575060408051601f3d908101601f1916820190925261217a9181019061407c565b60015b6121e05760405162461bcd60e51b815260206004820152602e60248201527f45524331393637557067726164653a206e657720696d706c656d656e7461746960448201526d6f6e206973206e6f74205555505360901b60648201526084016108f0565b6000805160206143bc833981519152811461224f5760405162461bcd60e51b815260206004820152602960248201527f45524331393637557067726164653a20756e737570706f727465642070726f786044820152681a58589b195555525160ba1b60648201526084016108f0565b50610be1838383612cfc565b612263612d21565b60c9805460ff191690557f5db9ee0a495bf2e6ff9c91a7834c1ba4fdd244a5e8aa4e537bd38aeae4b073aa335b6040516001600160a01b03909116815260200160405180910390a1565b6001600160a01b0383166122d35760405162461bcd60e51b81526004016108f090614095565b80518251146122f45760405162461bcd60e51b81526004016108f090613f77565b600033905061231781856000868660405180602001604052806000815250612aef565b60005b83518110156123df57600084828151811061233757612337613dfe565b60200260200101519050600084838151811061235557612355613dfe565b60209081029190910181015160008481526065835260408082206001600160a01b038c1683529093529190912054909150818110156123a65760405162461bcd60e51b81526004016108f0906140d8565b60009283526065602090815260408085206001600160a01b038b16865290915290922091039055806123d781613cff565b91505061231a565b5060006001600160a01b0316846001600160a01b0316826001600160a01b03167f4a39dc06d4c0dbc64b70af90fd698a233a518aa5d07e595d983b8c0526c8f7fb868660405161243092919061404e565b60405180910390a4604080516020810190915260009052610b7a565b600054610100900460ff166124735760405162461bcd60e51b81526004016108f09061411c565b610d3c81612d6a565b600054610100900460ff166124a35760405162461bcd60e51b81526004016108f09061411c565b565b600054610100900460ff166124cc5760405162461bcd60e51b81526004016108f09061411c565b6124a3612d9a565b6124dc612dcd565b60c9805460ff191660011790557f62e78cea01bee320cd4e420270b5ea74000d11b0c9f74754ebdbfc544b05a2586122903390565b6001600160a01b0384166125715760405162461bcd60e51b815260206004820152602160248201527f455243313135353a206d696e7420746f20746865207a65726f206164647265736044820152607360f81b60648201526084016108f0565b33600061257d85612e13565b9050600061258a85612e13565b905061259b83600089858589612aef565b60008681526065602090815260408083206001600160a01b038b168452909152812080548792906125cd908490613e14565b909155505060408051878152602081018790526001600160a01b03808a1692600092918716917fc3d58168c5ae7397731d063d5bbf3d657854427343f4c083240f7aacaa2d0f62910160405180910390a461262d83600089898989612e5e565b50505050505050565b816001600160a01b0316836001600160a01b0316036126a95760405162461bcd60e51b815260206004820152602960248201527f455243313135353a2073657474696e6720617070726f76616c20737461747573604482015268103337b91039b2b63360b91b60648201526084016108f0565b6001600160a01b03838116600081815260666020908152604080832094871680845294825291829020805460ff191686151590811790915591519182527f17307eab39ab6107e8899845ad3d59bd9653f200f220920489ca2b5937696c31910160405180910390a3505050565b6001600160a01b03841661273c5760405162461bcd60e51b81526004016108f090613fbf565b33600061274885612e13565b9050600061275585612e13565b9050612765838989858589612aef565b60008681526065602090815260408083206001600160a01b038c168452909152902054858110156127a85760405162461bcd60e51b81526004016108f090614004565b60008781526065602090815260408083206001600160a01b038d8116855292528083208985039055908a168252812080548892906127e7908490613e14565b909155505060408051888152602081018890526001600160a01b03808b16928c821692918816917fc3d58168c5ae7397731d063d5bbf3d657854427343f4c083240f7aacaa2d0f62910160405180910390a4612847848a8a8a8a8a612e5e565b505050505050505050565b6001600160a01b0383166128785760405162461bcd60e51b81526004016108f090614095565b33600061288484612e13565b9050600061289184612e13565b90506128b183876000858560405180602001604052806000815250612aef565b60008581526065602090815260408083206001600160a01b038a168452909152902054848110156128f45760405162461bcd60e51b81526004016108f0906140d8565b60008681526065602090815260408083206001600160a01b038b81168086529184528285208a8703905582518b81529384018a90529092908816917fc3d58168c5ae7397731d063d5bbf3d657854427343f4c083240f7aacaa2d0f62910160405180910390a460408051602081019091526000905261262d565b60006001600160e01b03198216636cdb3d1360e11b148061299f57506001600160e01b031982166303a24d0760e21b145b8061091e57506301ffc9a760e01b6001600160e01b031983161461091e565b6129c88282611472565b610962576129d581612f19565b6129e0836020612f2b565b6040516020016129f1929190614167565b60408051601f198184030181529082905262461bcd60e51b82526108f09160040161357d565b60008072184f03e93ff9f4daa797ed6e38ed64bf6a1f0160401b8310612a565772184f03e93ff9f4daa797ed6e38ed64bf6a1f0160401b830492506040015b6d04ee2d6d415b85acef81000000008310612a82576d04ee2d6d415b85acef8100000000830492506020015b662386f26fc100008310612aa057662386f26fc10000830492506010015b6305f5e1008310612ab8576305f5e100830492506008015b6127108310612acc57612710830492506004015b60648310612ade576064830492506002015b600a831061091e5760010192915050565b612af7612dcd565b611fd18686868686866130cd565b6001600160a01b0384163b15611fd15760405163bc197c8160e01b81526001600160a01b0385169063bc197c8190612b4990899089908890889088906004016141dc565b6020604051808303816000875af1925050508015612b84575060408051601f3d908101601f19168201909252612b819181019061423a565b60015b612c3057612b90614257565b806308c379a003612bc95750612ba4614272565b80612baf5750612bcb565b8060405162461bcd60e51b81526004016108f0919061357d565b505b60405162461bcd60e51b815260206004820152603460248201527f455243313135353a207472616e7366657220746f206e6f6e2d455243313135356044820152732932b1b2b4bb32b91034b6b83632b6b2b73a32b960611b60648201526084016108f0565b6001600160e01b0319811663bc197c8160e01b1461262d5760405162461bcd60e51b81526004016108f0906142fb565b6001600160a01b0381163b612ccd5760405162461bcd60e51b815260206004820152602d60248201527f455243313936373a206e657720696d706c656d656e746174696f6e206973206e60448201526c1bdd08184818dbdb9d1c9858dd609a1b60648201526084016108f0565b6000805160206143bc83398151915280546001600160a01b0319166001600160a01b0392909216919091179055565b612d0583613249565b600082511180612d125750805b15610be157610b7a8383613289565b60c95460ff166124a35760405162461bcd60e51b815260206004820152601460248201527314185d5cd8589b194e881b9bdd081c185d5cd95960621b60448201526064016108f0565b600054610100900460ff16612d915760405162461bcd60e51b81526004016108f09061411c565b610d3c81611cfa565b600054610100900460ff16612dc15760405162461bcd60e51b81526004016108f09061411c565b60c9805460ff19169055565b60c95460ff16156124a35760405162461bcd60e51b815260206004820152601060248201526f14185d5cd8589b194e881c185d5cd95960821b60448201526064016108f0565b60408051600180825281830190925260609160009190602080830190803683370190505090508281600081518110612e4d57612e4d613dfe565b602090810291909101015292915050565b6001600160a01b0384163b15611fd15760405163f23a6e6160e01b81526001600160a01b0385169063f23a6e6190612ea29089908990889088908890600401614343565b6020604051808303816000875af1925050508015612edd575060408051601f3d908101601f19168201909252612eda9181019061423a565b60015b612ee957612b90614257565b6001600160e01b0319811663f23a6e6160e01b1461262d5760405162461bcd60e51b81526004016108f0906142fb565b606061091e6001600160a01b03831660145b60606000612f3a836002613e27565b612f45906002613e14565b6001600160401b03811115612f5c57612f5c61342b565b6040519080825280601f01601f191660200182016040528015612f86576020820181803683370190505b509050600360fc1b81600081518110612fa157612fa1613dfe565b60200101906001600160f81b031916908160001a905350600f60fb1b81600181518110612fd057612fd0613dfe565b60200101906001600160f81b031916908160001a9053506000612ff4846002613e27565b612fff906001613e14565b90505b6001811115613077576f181899199a1a9b1b9c1cb0b131b232b360811b85600f166010811061303357613033613dfe565b1a60f81b82828151811061304957613049613dfe565b60200101906001600160f81b031916908160001a90535060049490941c9361307081614388565b9050613002565b5083156130c65760405162461bcd60e51b815260206004820181905260248201527f537472696e67733a20686578206c656e67746820696e73756666696369656e7460448201526064016108f0565b9392505050565b6001600160a01b0385166131555760005b8351811015613153578281815181106130f9576130f9613dfe565b602002602001015161012d600086848151811061311857613118613dfe565b60200260200101518152602001908152602001600020600082825461313d9190613e14565b9091555061314c905081613cff565b90506130de565b505b6001600160a01b038416611fd15760005b835181101561262d57600084828151811061318357613183613dfe565b6020026020010151905060008483815181106131a1576131a1613dfe565b60200260200101519050600061012d6000848152602001908152602001600020549050818110156132255760405162461bcd60e51b815260206004820152602860248201527f455243313135353a206275726e20616d6f756e74206578636565647320746f74604482015267616c537570706c7960c01b60648201526084016108f0565b600092835261012d60205260409092209103905561324281613cff565b9050613166565b61325281612c60565b6040516001600160a01b038216907fbc7cd75a20ee27fd9adebab32041f755214dbc6bffa90cc0225b39da2e5c2d3b90600090a250565b60606130c683836040518060600160405280602781526020016143dc602791396060600080856001600160a01b0316856040516132c6919061439f565b600060405180830381855af49150503d8060008114613301576040519150601f19603f3d011682016040523d82523d6000602084013e613306565b606091505b509150915061331786838387613321565b9695505050505050565b60608315613390578251600003613389576001600160a01b0385163b6133895760405162461bcd60e51b815260206004820152601d60248201527f416464726573733a2063616c6c20746f206e6f6e2d636f6e747261637400000060448201526064016108f0565b508161339a565b61339a83836133a2565b949350505050565b815115612baf5781518083602001fd5b80356001600160a01b03811681146133c957600080fd5b919050565b600080604083850312156133e157600080fd5b6133ea836133b2565b946020939093013593505050565b6001600160e01b031981168114610d3c57600080fd5b60006020828403121561342057600080fd5b81356130c6816133f8565b634e487b7160e01b600052604160045260246000fd5b601f8201601f191681016001600160401b03811182821017156134665761346661342b565b6040525050565b600082601f83011261347e57600080fd5b81356001600160401b038111156134975761349761342b565b6040516134ae601f8301601f191660200182613441565b8181528460208386010111156134c357600080fd5b816020850160208301376000918101602001919091529392505050565b6000602082840312156134f257600080fd5b81356001600160401b0381111561350857600080fd5b61339a8482850161346d565b60006020828403121561352657600080fd5b5035919050565b60005b83811015613548578181015183820152602001613530565b50506000910152565b6000815180845261356981602086016020860161352d565b601f01601f19169290920160200192915050565b6020815260006130c66020830184613551565b634e487b7160e01b600052602160045260246000fd5b600481106135c457634e487b7160e01b600052602160045260246000fd5b9052565b60c081016135d682896135a6565b602082019690965260408101949094526001600160a01b039290921660608401526001600160601b0390811660808401521660a090910152919050565b60006001600160401b0382111561362c5761362c61342b565b5060051b60200190565b600082601f83011261364757600080fd5b8135602061365482613613565b6040516136618282613441565b83815260059390931b850182019282810191508684111561368157600080fd5b8286015b8481101561369c5780358352918301918301613685565b509695505050505050565b600080600080600060a086880312156136bf57600080fd5b6136c8866133b2565b94506136d6602087016133b2565b935060408601356001600160401b03808211156136f257600080fd5b6136fe89838a01613636565b9450606088013591508082111561371457600080fd5b61372089838a01613636565b9350608088013591508082111561373657600080fd5b506137438882890161346d565b9150509295509295909350565b6000806040838503121561376357600080fd5b82359150613773602084016133b2565b90509250929050565b60006020828403121561378e57600080fd5b6130c6826133b2565b80356001600160601b03811681146133c957600080fd5b6000806000606084860312156137c357600080fd5b833592506137d360208501613797565b91506137e160408501613797565b90509250925092565b600080604083850312156137fd57600080fd5b82356001600160401b038082111561381457600080fd5b818501915085601f83011261382857600080fd5b8135602061383582613613565b6040516138428282613441565b83815260059390931b850182019282810191508984111561386257600080fd5b948201945b8386101561388757613878866133b2565b82529482019490820190613867565b9650508601359250508082111561389d57600080fd5b506138aa85828601613636565b9150509250929050565b600081518084526020808501945080840160005b838110156138e4578151875295820195908201906001016138c8565b509495945050505050565b6020815260006130c660208301846138b4565b6000806040838503121561391557600080fd5b61391e836133b2565b915060208301356001600160401b0381111561393957600080fd5b6138aa8582860161346d565b60008060006060848603121561395a57600080fd5b613963846133b2565b925060208401356001600160401b038082111561397f57600080fd5b61398b87838801613636565b935060408601359150808211156139a157600080fd5b506139ae86828701613636565b9150509250925092565b600080604083850312156139cb57600080fd5b8235915060208301356001600160401b0381111561393957600080fd5b600080600080608085870312156139fe57600080fd5b8435935060208501359250613a15604086016133b2565b915060608501356001600160401b03811115613a3057600080fd5b613a3c8782880161346d565b91505092959194509250565b60008060408385031215613a5b57600080fd5b613a64836133b2565b915060208301358015158114613a7957600080fd5b809150509250929050565b600080600080600060a08688031215613a9c57600080fd5b85359450613aac602087016133b2565b9350613aba604087016133b2565b9250613ac860608701613797565b9150613ad660808701613797565b90509295509295909350565b602080825282518282018190526000919060409081850190868401855b82811015613b2d57815180516001600160601b03168552860151868501529284019290850190600101613aff565b5091979650505050505050565b60008060408385031215613b4d57600080fd5b50508035926020909101359150565b602080825282518282018190526000919060409081850190868401855b82811015613b2d578151613b8e8582516135a6565b808701518588015285810151868601526060808201516001600160a01b0316908601526080808201516001600160601b039081169187019190915260a091820151169085015260c09093019290850190600101613b79565b60008060408385031215613bf957600080fd5b613c02836133b2565b9150613773602084016133b2565b600080600080600060a08688031215613c2857600080fd5b613c31866133b2565b9450613c3f602087016133b2565b9350604086013592506060860135915060808601356001600160401b03811115613c6857600080fd5b6137438882890161346d565b600080600060608486031215613c8957600080fd5b613c92846133b2565b95602085013595506040909401359392505050565b60008351613cb981846020880161352d565b835190830190613ccd81836020880161352d565b01949350505050565b634e487b7160e01b600052601160045260246000fd5b8181038181111561091e5761091e613cd6565b600060018201613d1157613d11613cd6565b5060010190565b6020808252602e908201527f455243313135353a2063616c6c6572206973206e6f7420746f6b656e206f776e60408201526d195c881bdc88185c1c1c9bdd995960921b606082015260800190565b6020808252602c908201527f46756e6374696f6e206d7573742062652063616c6c6564207468726f7567682060408201526b19195b1959d85d1958d85b1b60a21b606082015260800190565b6020808252602c908201527f46756e6374696f6e206d7573742062652063616c6c6564207468726f7567682060408201526b6163746976652070726f787960a01b606082015260800190565b634e487b7160e01b600052603260045260246000fd5b8082018082111561091e5761091e613cd6565b808202811582820484141761091e5761091e613cd6565b600181811c90821680613e5257607f821691505b602082108103611aad57634e487b7160e01b600052602260045260246000fd5b601f821115610be157600081815260208120601f850160051c81016020861015613e995750805b601f850160051c820191505b81811015611fd157828155600101613ea5565b81516001600160401b03811115613ed157613ed161342b565b613ee581613edf8454613e3e565b84613e72565b602080601f831160018114613f1a5760008415613f025750858301515b600019600386901b1c1916600185901b178555611fd1565b600085815260208120601f198616915b82811015613f4957888601518255948401946001909101908401613f2a565b5085821015613f675787850151600019600388901b60f8161c191681555b5050505050600190811b01905550565b60208082526028908201527f455243313135353a2069647320616e6420616d6f756e7473206c656e677468206040820152670dad2e6dac2e8c6d60c31b606082015260800190565b60208082526025908201527f455243313135353a207472616e7366657220746f20746865207a65726f206164604082015264647265737360d81b606082015260800190565b6020808252602a908201527f455243313135353a20696e73756666696369656e742062616c616e636520666f60408201526939103a3930b739b332b960b11b606082015260800190565b60408152600061406160408301856138b4565b828103602084015261407381856138b4565b95945050505050565b60006020828403121561408e57600080fd5b5051919050565b60208082526023908201527f455243313135353a206275726e2066726f6d20746865207a65726f206164647260408201526265737360e81b606082015260800190565b60208082526024908201527f455243313135353a206275726e20616d6f756e7420657863656564732062616c604082015263616e636560e01b606082015260800190565b6020808252602b908201527f496e697469616c697a61626c653a20636f6e7472616374206973206e6f74206960408201526a6e697469616c697a696e6760a81b606082015260800190565b7f416363657373436f6e74726f6c3a206163636f756e742000000000000000000081526000835161419f81601785016020880161352d565b7001034b99036b4b9b9b4b733903937b6329607d1b60179184019182015283516141d081602884016020880161352d565b01602801949350505050565b6001600160a01b0386811682528516602082015260a060408201819052600090614208908301866138b4565b828103606084015261421a81866138b4565b9050828103608084015261422e8185613551565b98975050505050505050565b60006020828403121561424c57600080fd5b81516130c6816133f8565b600060033d11156110b55760046000803e5060005160e01c90565b600060443d10156142805790565b6040516003193d81016004833e81513d6001600160401b0381602484011181841117156142af57505050505090565b82850191508151818111156142c75750505050505090565b843d87010160208285010111156142e15750505050505090565b6142f060208286010187613441565b509095945050505050565b60208082526028908201527f455243313135353a204552433131353552656365697665722072656a656374656040820152676420746f6b656e7360c01b606082015260800190565b6001600160a01b03868116825285166020820152604081018490526060810183905260a06080820181905260009061437d90830184613551565b979650505050505050565b60008161439757614397613cd6565b506000190190565b600082516143b181846020870161352d565b919091019291505056fe360894a13ba1a3210667c828492db98dca3e2076cc3735a920a3ca505d382bbc416464726573733a206c6f772d6c6576656c2064656c65676174652063616c6c206661696c656468747470733a2f2f72616461726c61756e63682e6170702f6170692f6d65746164617461a26469706673582212209310abdeed455a81df4169c2e3f0b71e54aadc7a0532c0f2bf1ab85bea4afd7364736f6c63430008130033",
  "linkReferences": {},
  "deployedLinkReferences": {}
}