{
  "_format": "hh-sol-artifact-1",
  "contractName": "RadarEditions",
  "sourceName": "src/RadarEditions.sol",
  "abi": [
    {
      "inputs": [],
      "stateMutability": "nonpayable",
      "type": "constructor"
    },
    {
      "inputs": [],
      "name": "EditionFeeExceedsMaximumFee",
      "type": "error"
    },
    {
      "inputs": [],
      "name": "EditionNotCreated",
      "type": "error"
    },
    {
      "inputs": [],
      "name": "EditionNotEnoughBalance",
      "type": "error"
    },
    {
      "inputs": [],
      "name": "EditionNotLaunched",
      "type": "error"
    },
    {
      "inputs": [],
      "name": "EditionNotStopped",
      "type": "error"
    },
    {
      "inputs": [],
      "name": "NotEditionOwner",
      "type": "error"
    },
    {
      "inputs": [],
      "name": "NotEnoughFees",
      "type": "error"
    },
    {
      "inputs": [],
      "name": "NotEnoughFunds",
      "type": "error"
    },
    {
      "inputs": [],
      "name": "TransactionFailed",
      "type": "error"
    },
    {
      "anonymous": false,
      "inputs": [
        {
          "indexed": false,
          "internalType": "address",
          "name": "previousAdmin",
          "type": "address"
        },
        {
          "indexed": false,
          "internalType": "address",
          "name": "newAdmin",
          "type": "address"
        }
      ],
      "name": "AdminChanged",
      "type": "event"
    },
    {
      "anonymous": false,
      "inputs": [
        {
          "indexed": true,
          "internalType": "address",
          "name": "account",
          "type": "address"
        },
        {
          "indexed": true,
          "internalType": "address",
          "name": "operator",
          "type": "address"
        },
        {
          "indexed": false,
          "internalType": "bool",
          "name": "approved",
          "type": "bool"
        }
      ],
      "name": "ApprovalForAll",
      "type": "event"
    },
    {
      "anonymous": false,
      "inputs": [
        {
          "indexed": true,
          "internalType": "address",
          "name": "beacon",
          "type": "address"
        }
      ],
      "name": "BeaconUpgraded",
      "type": "event"
    },
    {
      "anonymous": false,
      "inputs": [
        {
          "indexed": false,
          "internalType": "uint256",
          "name": "editionId",
          "type": "uint256"
        }
      ],
      "name": "EditionApproved",
      "type": "event"
    },
    {
      "anonymous": false,
      "inputs": [
        {
          "indexed": false,
          "internalType": "uint256",
          "name": "editionId",
          "type": "uint256"
        },
        {
          "indexed": false,
          "internalType": "uint256",
          "name": "amount",
          "type": "uint256"
        },
        {
          "indexed": false,
          "internalType": "address",
          "name": "owner",
          "type": "address"
        }
      ],
      "name": "EditionBalanceWithdrawn",
      "type": "event"
    },
    {
      "anonymous": false,
      "inputs": [
        {
          "indexed": false,
          "internalType": "uint256",
          "name": "editionId",
          "type": "uint256"
        },
        {
          "indexed": false,
          "internalType": "uint256",
          "name": "fee",
          "type": "uint256"
        },
        {
          "indexed": false,
          "internalType": "address",
          "name": "owner",
          "type": "address"
        }
      ],
      "name": "EditionCreated",
      "type": "event"
    },
    {
      "anonymous": false,
      "inputs": [
        {
          "indexed": false,
          "internalType": "uint256",
          "name": "editionId",
          "type": "uint256"
        }
      ],
      "name": "EditionResumed",
      "type": "event"
    },
    {
      "anonymous": false,
      "inputs": [
        {
          "indexed": false,
          "internalType": "uint256",
          "name": "editionId",
          "type": "uint256"
        }
      ],
      "name": "EditionStopped",
      "type": "event"
    },
    {
      "anonymous": false,
      "inputs": [
        {
          "indexed": false,
          "internalType": "uint8",
          "name": "version",
          "type": "uint8"
        }
      ],
      "name": "Initialized",
      "type": "event"
    },
    {
      "anonymous": false,
      "inputs": [
        {
          "indexed": false,
          "internalType": "address",
          "name": "account",
          "type": "address"
        }
      ],
      "name": "Paused",
      "type": "event"
    },
    {
      "anonymous": false,
      "inputs": [
        {
          "indexed": true,
          "internalType": "bytes32",
          "name": "role",
          "type": "bytes32"
        },
        {
          "indexed": true,
          "internalType": "bytes32",
          "name": "previousAdminRole",
          "type": "bytes32"
        },
        {
          "indexed": true,
          "internalType": "bytes32",
          "name": "newAdminRole",
          "type": "bytes32"
        }
      ],
      "name": "RoleAdminChanged",
      "type": "event"
    },
    {
      "anonymous": false,
      "inputs": [
        {
          "indexed": true,
          "internalType": "bytes32",
          "name": "role",
          "type": "bytes32"
        },
        {
          "indexed": true,
          "internalType": "address",
          "name": "account",
          "type": "address"
        },
        {
          "indexed": true,
          "internalType": "address",
          "name": "sender",
          "type": "address"
        }
      ],
      "name": "RoleGranted",
      "type": "event"
    },
    {
      "anonymous": false,
      "inputs": [
        {
          "indexed": true,
          "internalType": "bytes32",
          "name": "role",
          "type": "bytes32"
        },
        {
          "indexed": true,
          "internalType": "address",
          "name": "account",
          "type": "address"
        },
        {
          "indexed": true,
          "internalType": "address",
          "name": "sender",
          "type": "address"
        }
      ],
      "name": "RoleRevoked",
      "type": "event"
    },
    {
      "anonymous": false,
      "inputs": [
        {
          "indexed": true,
          "internalType": "address",
          "name": "operator",
          "type": "address"
        },
        {
          "indexed": true,
          "internalType": "address",
          "name": "from",
          "type": "address"
        },
        {
          "indexed": true,
          "internalType": "address",
          "name": "to",
          "type": "address"
        },
        {
          "indexed": false,
          "internalType": "uint256[]",
          "name": "ids",
          "type": "uint256[]"
        },
        {
          "indexed": false,
          "internalType": "uint256[]",
          "name": "values",
          "type": "uint256[]"
        }
      ],
      "name": "TransferBatch",
      "type": "event"
    },
    {
      "anonymous": false,
      "inputs": [
        {
          "indexed": true,
          "internalType": "address",
          "name": "operator",
          "type": "address"
        },
        {
          "indexed": true,
          "internalType": "address",
          "name": "from",
          "type": "address"
        },
        {
          "indexed": true,
          "internalType": "address",
          "name": "to",
          "type": "address"
        },
        {
          "indexed": false,
          "internalType": "uint256",
          "name": "id",
          "type": "uint256"
        },
        {
          "indexed": false,
          "internalType": "uint256",
          "name": "value",
          "type": "uint256"
        }
      ],
      "name": "TransferSingle",
      "type": "event"
    },
    {
      "anonymous": false,
      "inputs": [
        {
          "indexed": false,
          "internalType": "string",
          "name": "value",
          "type": "string"
        },
        {
          "indexed": true,
          "internalType": "uint256",
          "name": "id",
          "type": "uint256"
        }
      ],
      "name": "URI",
      "type": "event"
    },
    {
      "anonymous": false,
      "inputs": [
        {
          "indexed": false,
          "internalType": "address",
          "name": "account",
          "type": "address"
        }
      ],
      "name": "Unpaused",
      "type": "event"
    },
    {
      "anonymous": false,
      "inputs": [
        {
          "indexed": true,
          "internalType": "address",
          "name": "implementation",
          "type": "address"
        }
      ],
      "name": "Upgraded",
      "type": "event"
    },
    {
      "stateMutability": "payable",
      "type": "fallback"
    },
    {
      "inputs": [],
      "name": "DEFAULT_ADMIN_ROLE",
      "outputs": [
        {
          "internalType": "bytes32",
          "name": "",
          "type": "bytes32"
        }
      ],
      "stateMutability": "view",
      "type": "function"
    },
    {
      "inputs": [
        {
          "internalType": "uint256",
          "name": "editionId",
          "type": "uint256"
        }
      ],
      "name": "approveEdition",
      "outputs": [],
      "stateMutability": "nonpayable",
      "type": "function"
    },
    {
      "inputs": [
        {
          "internalType": "address",
          "name": "account",
          "type": "address"
        },
        {
          "internalType": "uint256",
          "name": "id",
          "type": "uint256"
        }
      ],
      "name": "balanceOf",
      "outputs": [
        {
          "internalType": "uint256",
          "name": "",
          "type": "uint256"
        }
      ],
      "stateMutability": "view",
      "type": "function"
    },
    {
      "inputs": [
        {
          "internalType": "address[]",
          "name": "accounts",
          "type": "address[]"
        },
        {
          "internalType": "uint256[]",
          "name": "ids",
          "type": "uint256[]"
        }
      ],
      "name": "balanceOfBatch",
      "outputs": [
        {
          "internalType": "uint256[]",
          "name": "",
          "type": "uint256[]"
        }
      ],
      "stateMutability": "view",
      "type": "function"
    },
    {
      "inputs": [
        {
          "internalType": "address",
          "name": "account",
          "type": "address"
        },
        {
          "internalType": "uint256",
          "name": "id",
          "type": "uint256"
        },
        {
          "internalType": "uint256",
          "name": "value",
          "type": "uint256"
        }
      ],
      "name": "burn",
      "outputs": [],
      "stateMutability": "nonpayable",
      "type": "function"
    },
    {
      "inputs": [
        {
          "internalType": "address",
          "name": "account",
          "type": "address"
        },
        {
          "internalType": "uint256[]",
          "name": "ids",
          "type": "uint256[]"
        },
        {
          "internalType": "uint256[]",
          "name": "values",
          "type": "uint256[]"
        }
      ],
      "name": "burnBatch",
      "outputs": [],
      "stateMutability": "nonpayable",
      "type": "function"
    },
    {
      "inputs": [],
      "name": "contractURI",
      "outputs": [
        {
          "internalType": "string",
          "name": "",
          "type": "string"
        }
      ],
      "stateMutability": "view",
      "type": "function"
    },
    {
      "inputs": [
        {
          "internalType": "uint256",
          "name": "fee",
          "type": "uint256"
        },
        {
          "internalType": "address",
          "name": "owner",
          "type": "address"
        },
        {
          "internalType": "address",
          "name": "payer",
          "type": "address"
        },
        {
          "internalType": "string",
          "name": "id",
          "type": "string"
        }
      ],
      "name": "createEdition",
      "outputs": [
        {
          "internalType": "uint256",
          "name": "editionId",
          "type": "uint256"
        }
      ],
      "stateMutability": "nonpayable",
      "type": "function"
    },
    {
      "inputs": [],
      "name": "editionCounter",
      "outputs": [
        {
          "internalType": "uint256",
          "name": "",
          "type": "uint256"
        }
      ],
      "stateMutability": "view",
      "type": "function"
    },
    {
      "inputs": [
        {
          "internalType": "uint256",
          "name": "",
          "type": "uint256"
        }
      ],
      "name": "editions",
      "outputs": [
        {
          "internalType": "enum EditionsStructs.EditionStatus",
          "name": "status",
          "type": "uint8"
        },
        {
          "internalType": "uint256",
          "name": "fee",
          "type": "uint256"
        },
        {
          "internalType": "uint256",
          "name": "balance",
          "type": "uint256"
        },
        {
          "internalType": "address",
          "name": "owner",
          "type": "address"
        },
        {
          "internalType": "string",
          "name": "id",
          "type": "string"
        }
      ],
      "stateMutability": "view",
      "type": "function"
    },
    {
      "inputs": [
        {
          "internalType": "uint256",
          "name": "id",
          "type": "uint256"
        }
      ],
      "name": "exists",
      "outputs": [
        {
          "internalType": "bool",
          "name": "",
          "type": "bool"
        }
      ],
      "stateMutability": "view",
      "type": "function"
    },
    {
      "inputs": [
        {
          "internalType": "address",
          "name": "owner",
          "type": "address"
        }
      ],
      "name": "getBalances",
      "outputs": [
        {
          "components": [
            {
              "internalType": "string",
              "name": "id",
              "type": "string"
            },
            {
              "internalType": "uint256",
              "name": "amount",
              "type": "uint256"
            }
          ],
          "internalType": "struct EditionsStructs.EditionIdWithAmount[]",
          "name": "",
          "type": "tuple[]"
        }
      ],
      "stateMutability": "view",
      "type": "function"
    },
    {
      "inputs": [],
      "name": "getEditions",
      "outputs": [
        {
          "components": [
            {
              "internalType": "enum EditionsStructs.EditionStatus",
              "name": "status",
              "type": "uint8"
            },
            {
              "internalType": "uint256",
              "name": "fee",
              "type": "uint256"
            },
            {
              "internalType": "uint256",
              "name": "balance",
              "type": "uint256"
            },
            {
              "internalType": "address",
              "name": "owner",
              "type": "address"
            },
            {
              "internalType": "string",
              "name": "id",
              "type": "string"
            }
          ],
          "internalType": "struct EditionsStructs.Edition[]",
          "name": "",
          "type": "tuple[]"
        }
      ],
      "stateMutability": "view",
      "type": "function"
    },
    {
      "inputs": [
        {
          "internalType": "bytes32",
          "name": "role",
          "type": "bytes32"
        }
      ],
      "name": "getRoleAdmin",
      "outputs": [
        {
          "internalType": "bytes32",
          "name": "",
          "type": "bytes32"
        }
      ],
      "stateMutability": "view",
      "type": "function"
    },
    {
      "inputs": [
        {
          "internalType": "bytes32",
          "name": "role",
          "type": "bytes32"
        },
        {
          "internalType": "address",
          "name": "account",
          "type": "address"
        }
      ],
      "name": "grantRole",
      "outputs": [],
      "stateMutability": "nonpayable",
      "type": "function"
    },
    {
      "inputs": [
        {
          "internalType": "bytes32",
          "name": "role",
          "type": "bytes32"
        },
        {
          "internalType": "address",
          "name": "account",
          "type": "address"
        }
      ],
      "name": "hasRole",
      "outputs": [
        {
          "internalType": "bool",
          "name": "",
          "type": "bool"
        }
      ],
      "stateMutability": "view",
      "type": "function"
    },
    {
      "inputs": [],
      "name": "initialize",
      "outputs": [],
      "stateMutability": "nonpayable",
      "type": "function"
    },
    {
      "inputs": [
        {
          "internalType": "address",
          "name": "account",
          "type": "address"
        },
        {
          "internalType": "address",
          "name": "operator",
          "type": "address"
        }
      ],
      "name": "isApprovedForAll",
      "outputs": [
        {
          "internalType": "bool",
          "name": "",
          "type": "bool"
        }
      ],
      "stateMutability": "view",
      "type": "function"
    },
    {
      "inputs": [],
      "name": "maximumEditionFee",
      "outputs": [
        {
          "internalType": "uint256",
          "name": "",
          "type": "uint256"
        }
      ],
      "stateMutability": "view",
      "type": "function"
    },
    {
      "inputs": [
        {
          "internalType": "uint256",
          "name": "editionId",
          "type": "uint256"
        },
        {
          "internalType": "uint256",
          "name": "amount",
          "type": "uint256"
        },
        {
          "internalType": "address",
          "name": "buyer",
          "type": "address"
        },
        {
          "internalType": "bytes",
          "name": "data",
          "type": "bytes"
        }
      ],
      "name": "mintEdition",
      "outputs": [],
      "stateMutability": "payable",
      "type": "function"
    },
    {
      "inputs": [],
      "name": "pause",
      "outputs": [],
      "stateMutability": "nonpayable",
      "type": "function"
    },
    {
      "inputs": [],
      "name": "paused",
      "outputs": [
        {
          "internalType": "bool",
          "name": "",
          "type": "bool"
        }
      ],
      "stateMutability": "view",
      "type": "function"
    },
    {
      "inputs": [],
      "name": "protocolFee",
      "outputs": [
        {
          "internalType": "uint256",
          "name": "",
          "type": "uint256"
        }
      ],
      "stateMutability": "view",
      "type": "function"
    },
    {
      "inputs": [],
      "name": "proxiableUUID",
      "outputs": [
        {
          "internalType": "bytes32",
          "name": "",
          "type": "bytes32"
        }
      ],
      "stateMutability": "view",
      "type": "function"
    },
    {
      "inputs": [
        {
          "internalType": "bytes32",
          "name": "role",
          "type": "bytes32"
        },
        {
          "internalType": "address",
          "name": "account",
          "type": "address"
        }
      ],
      "name": "renounceRole",
      "outputs": [],
      "stateMutability": "nonpayable",
      "type": "function"
    },
    {
      "inputs": [
        {
          "internalType": "uint256",
          "name": "editionId",
          "type": "uint256"
        }
      ],
      "name": "resumeEdition",
      "outputs": [],
      "stateMutability": "nonpayable",
      "type": "function"
    },
    {
      "inputs": [
        {
          "internalType": "bytes32",
          "name": "role",
          "type": "bytes32"
        },
        {
          "internalType": "address",
          "name": "account",
          "type": "address"
        }
      ],
      "name": "revokeRole",
      "outputs": [],
      "stateMutability": "nonpayable",
      "type": "function"
    },
    {
      "inputs": [
        {
          "internalType": "address",
          "name": "from",
          "type": "address"
        },
        {
          "internalType": "address",
          "name": "to",
          "type": "address"
        },
        {
          "internalType": "uint256[]",
          "name": "ids",
          "type": "uint256[]"
        },
        {
          "internalType": "uint256[]",
          "name": "amounts",
          "type": "uint256[]"
        },
        {
          "internalType": "bytes",
          "name": "data",
          "type": "bytes"
        }
      ],
      "name": "safeBatchTransferFrom",
      "outputs": [],
      "stateMutability": "nonpayable",
      "type": "function"
    },
    {
      "inputs": [
        {
          "internalType": "address",
          "name": "from",
          "type": "address"
        },
        {
          "internalType": "address",
          "name": "to",
          "type": "address"
        },
        {
          "internalType": "uint256",
          "name": "id",
          "type": "uint256"
        },
        {
          "internalType": "uint256",
          "name": "amount",
          "type": "uint256"
        },
        {
          "internalType": "bytes",
          "name": "data",
          "type": "bytes"
        }
      ],
      "name": "safeTransferFrom",
      "outputs": [],
      "stateMutability": "nonpayable",
      "type": "function"
    },
    {
      "inputs": [
        {
          "internalType": "address",
          "name": "operator",
          "type": "address"
        },
        {
          "internalType": "bool",
          "name": "approved",
          "type": "bool"
        }
      ],
      "name": "setApprovalForAll",
      "outputs": [],
      "stateMutability": "nonpayable",
      "type": "function"
    },
    {
      "inputs": [
        {
          "internalType": "uint256",
          "name": "_maximumEditionFee",
          "type": "uint256"
        }
      ],
      "name": "setMaximumEditionFee",
      "outputs": [],
      "stateMutability": "nonpayable",
      "type": "function"
    },
    {
      "inputs": [
        {
          "internalType": "uint256",
          "name": "_protocolFee",
          "type": "uint256"
        }
      ],
      "name": "setProtocolFee",
      "outputs": [],
      "stateMutability": "nonpayable",
      "type": "function"
    },
    {
      "inputs": [
        {
          "internalType": "string",
          "name": "newuri",
          "type": "string"
        }
      ],
      "name": "setURI",
      "outputs": [],
      "stateMutability": "nonpayable",
      "type": "function"
    },
    {
      "inputs": [
        {
          "internalType": "uint256",
          "name": "editionId",
          "type": "uint256"
        }
      ],
      "name": "stopEdition",
      "outputs": [],
      "stateMutability": "nonpayable",
      "type": "function"
    },
    {
      "inputs": [
        {
          "internalType": "bytes4",
          "name": "interfaceId",
          "type": "bytes4"
        }
      ],
      "name": "supportsInterface",
      "outputs": [
        {
          "internalType": "bool",
          "name": "",
          "type": "bool"
        }
      ],
      "stateMutability": "view",
      "type": "function"
    },
    {
      "inputs": [
        {
          "internalType": "uint256",
          "name": "id",
          "type": "uint256"
        }
      ],
      "name": "totalSupply",
      "outputs": [
        {
          "internalType": "uint256",
          "name": "",
          "type": "uint256"
        }
      ],
      "stateMutability": "view",
      "type": "function"
    },
    {
      "inputs": [],
      "name": "unpause",
      "outputs": [],
      "stateMutability": "nonpayable",
      "type": "function"
    },
    {
      "inputs": [
        {
          "internalType": "address",
          "name": "newImplementation",
          "type": "address"
        }
      ],
      "name": "upgradeTo",
      "outputs": [],
      "stateMutability": "nonpayable",
      "type": "function"
    },
    {
      "inputs": [
        {
          "internalType": "address",
          "name": "newImplementation",
          "type": "address"
        },
        {
          "internalType": "bytes",
          "name": "data",
          "type": "bytes"
        }
      ],
      "name": "upgradeToAndCall",
      "outputs": [],
      "stateMutability": "payable",
      "type": "function"
    },
    {
      "inputs": [
        {
          "internalType": "uint256",
          "name": "id",
          "type": "uint256"
        }
      ],
      "name": "uri",
      "outputs": [
        {
          "internalType": "string",
          "name": "",
          "type": "string"
        }
      ],
      "stateMutability": "view",
      "type": "function"
    },
    {
      "inputs": [
        {
          "internalType": "uint256",
          "name": "editionId",
          "type": "uint256"
        },
        {
          "internalType": "uint256",
          "name": "amount",
          "type": "uint256"
        }
      ],
      "name": "withdrawEditionBalance",
      "outputs": [],
      "stateMutability": "nonpayable",
      "type": "function"
    },
    {
      "inputs": [
        {
          "internalType": "uint256",
          "name": "amount",
          "type": "uint256"
        }
      ],
      "name": "withdrawFunds",
      "outputs": [],
      "stateMutability": "nonpayable",
      "type": "function"
    },
    {
      "stateMutability": "payable",
      "type": "receive"
    }
  ],
  "bytecode": "0x60a0604052306080523480156200001557600080fd5b506200002062000026565b620000e7565b600054610100900460ff1615620000935760405162461bcd60e51b815260206004820152602760248201527f496e697469616c697a61626c653a20636f6e747261637420697320696e697469604482015266616c697a696e6760c81b606482015260840160405180910390fd5b60005460ff90811614620000e5576000805460ff191660ff9081179091556040519081527f7f26b83ff96e1f2b6a682f133852f6798a09c465da95921460cefb38474024989060200160405180910390a15b565b60805161427c6200011f60003960008181610c5201528181610c9201528181610e8c01528181610ecc0152610f5b015261427c6000f3fe60806040526004361061023c5760003560e01c8063787dce3d1161012d578063bd85b039116100b0578063df6efc6c11610077578063df6efc6c146106da578063e8a3d485146106fc578063e985e9c514610711578063f242432a1461075a578063f5298aca1461077a578063fc74efa21461079a57005b8063bd85b03914610628578063c6fbb71214610656578063c84aae171461066d578063d547741f1461069a578063d667c9ce146106ba57005b806391fc02f1116100f457806391fc02f1146105a9578063940123da146105c9578063a217fddf146105dc578063a22cb465146105f1578063b0e21e8a1461061157005b8063787dce3d1461051f5780637cc749411461053f5780638129fc1c1461055f5780638456cb591461057457806391d148541461058957005b806336568abe116101c05780634f558e79116101875780634f558e791461046b57806352d1902d1461049b5780635c975abb146104b05780636b20c454146104c85780636b5cb789146104e85780637357628c146104ff57005b806336568abe146103d65780633659cfe6146103f65780633f4ba83a146104165780634e1273f41461042b5780634f1ef2861461045857005b8063155dd5ee11610204578063155dd5ee14610315578063248a9ca314610335578063279c806e146103655780632eb2c2d6146103965780632f2ff15d146103b657005b8062fdd58e1461024557806301ffc9a71461027857806302fe5305146102a85780630a579eca146102c85780630e89341c146102e857005b3661024357005b005b34801561025157600080fd5b50610265610260366004613282565b6107ba565b6040519081526020015b60405180910390f35b34801561028457600080fd5b506102986102933660046132c2565b610855565b604051901515815260200161026f565b3480156102b457600080fd5b506102436102c3366004613394565b610860565b3480156102d457600080fd5b506102436102e33660046133c8565b610897565b3480156102f457600080fd5b506103086103033660046133c8565b610968565b60405161026f9190613431565b34801561032157600080fd5b506102436103303660046133c8565b6109a3565b34801561034157600080fd5b506102656103503660046133c8565b60009081526097602052604090206001015490565b34801561037157600080fd5b506103856103803660046133c8565b610aa0565b60405161026f95949392919061347c565b3480156103a257600080fd5b506102436103b1366004613555565b610b68565b3480156103c257600080fd5b506102436103d13660046135fe565b610bb4565b3480156103e257600080fd5b506102436103f13660046135fe565b610bce565b34801561040257600080fd5b5061024361041136600461362a565b610c48565b34801561042257600080fd5b50610243610d27565b34801561043757600080fd5b5061044b610446366004613645565b610d59565b60405161026f919061374a565b61024361046636600461375d565b610e82565b34801561047757600080fd5b506102986104863660046133c8565b600090815261012d6020526040902054151590565b3480156104a757600080fd5b50610265610f4e565b3480156104bc57600080fd5b5060c95460ff16610298565b3480156104d457600080fd5b506102436104e33660046137a0565b611002565b3480156104f457600080fd5b506102656101c65481565b34801561050b57600080fd5b5061024361051a3660046133c8565b611045565b34801561052b57600080fd5b5061024361053a3660046133c8565b6110e6565b34801561054b57600080fd5b5061024361055a3660046133c8565b6110f8565b34801561056b57600080fd5b5061024361110a565b34801561058057600080fd5b506102436112d5565b34801561059557600080fd5b506102986105a43660046135fe565b611307565b3480156105b557600080fd5b506102656105c4366004613813565b611332565b6102436105d736600461387a565b61147a565b3480156105e857600080fd5b50610265600081565b3480156105fd57600080fd5b5061024361060c3660046138a7565b61155b565b34801561061d57600080fd5b506102656101c35481565b34801561063457600080fd5b506102656106433660046133c8565b600090815261012d602052604090205490565b34801561066257600080fd5b506102656101c55481565b34801561067957600080fd5b5061068d61068836600461362a565b611566565b60405161026f91906138e3565b3480156106a657600080fd5b506102436106b53660046135fe565b6116d0565b3480156106c657600080fd5b506102436106d5366004613959565b6116f5565b3480156106e657600080fd5b506106ef611837565b60405161026f919061397b565b34801561070857600080fd5b50610308611a0d565b34801561071d57600080fd5b5061029861072c366004613a11565b6001600160a01b03918216600090815260666020908152604080832093909416825291909152205460ff1690565b34801561076657600080fd5b50610243610775366004613a3b565b611a2d565b34801561078657600080fd5b50610243610795366004613a9f565b611a72565b3480156107a657600080fd5b506102436107b53660046133c8565b611ab5565b60006001600160a01b03831661082a5760405162461bcd60e51b815260206004820152602a60248201527f455243313135353a2061646472657373207a65726f206973206e6f742061207660448201526930b634b21037bbb732b960b11b60648201526084015b60405180910390fd5b5060008181526065602090815260408083206001600160a01b03861684529091529020545b92915050565b600061084f82611b7f565b7f7804d923f43a17d325d77e781528e0793b2edd9890ab45fc64efd7b4b427744c61088a81611ba4565b61089382611bae565b5050565b60008181526101c460205260409020600301546001600160a01b031633146108d25760405163388f811f60e01b815260040160405180910390fd5b600260008281526101c4602052604090205460ff1660038111156108f8576108f8613444565b1461091657604051631f0fb6fd60e11b815260040160405180910390fd5b60008181526101c46020908152604091829020805460ff1916600317905590518281527f591913f977ab242c5871f116f36be231ff67df5e8e0bac1efd91fa8a723aca2b91015b60405180910390a150565b606061097382611bba565b61097c83611c4e565b60405160200161098d929190613ad2565b6040516020818303038152906040529050919050565b60006109ae81611ba4565b478211156109cf57604051631036b5ad60e31b815260040160405180910390fd5b4760005b6101c554811015610a305760008181526101c460205260409020600201546109fb9083613b17565b915083821015610a1e5760405163156bbc5b60e01b815260040160405180910390fd5b80610a2881613b2a565b9150506109d3565b50604051600090339085908381818185875af1925050503d8060008114610a73576040519150601f19603f3d011682016040523d82523d6000602084013e610a78565b606091505b5050905080610a9a576040516317f2c34560e31b815260040160405180910390fd5b50505050565b6101c4602052600090815260409020805460018201546002830154600384015460048501805460ff90951695939492936001600160a01b0390921692610ae590613b43565b80601f0160208091040260200160405190810160405280929190818152602001828054610b1190613b43565b8015610b5e5780601f10610b3357610100808354040283529160200191610b5e565b820191906000526020600020905b815481529060010190602001808311610b4157829003601f168201915b5050505050905085565b6001600160a01b038516331480610b845750610b84853361072c565b610ba05760405162461bcd60e51b815260040161082190613b77565b610bad8585858585611ce0565b5050505050565b6000610bbf81611ba4565b610bc98383611e8d565b505050565b6001600160a01b0381163314610c3e5760405162461bcd60e51b815260206004820152602f60248201527f416363657373436f6e74726f6c3a2063616e206f6e6c792072656e6f756e636560448201526e103937b632b9903337b91039b2b63360891b6064820152608401610821565b6108938282611f13565b6001600160a01b037f0000000000000000000000000000000000000000000000000000000000000000163003610c905760405162461bcd60e51b815260040161082190613bc5565b7f00000000000000000000000000000000000000000000000000000000000000006001600160a01b0316610cd96000805160206141dc833981519152546001600160a01b031690565b6001600160a01b031614610cff5760405162461bcd60e51b815260040161082190613c11565b610d0881611f7a565b60408051600080825260208201909252610d2491839190611fa4565b50565b7f65d7a28e3265b37a6474929f336521b332c1681b933f6cb9f3376673440d862a610d5181611ba4565b610d2461210f565b60608151835114610dbe5760405162461bcd60e51b815260206004820152602960248201527f455243313135353a206163636f756e747320616e6420696473206c656e677468604482015268040dad2e6dac2e8c6d60bb1b6064820152608401610821565b600083516001600160401b03811115610dd957610dd96132df565b604051908082528060200260200182016040528015610e02578160200160208202803683370190505b50905060005b8451811015610e7a57610e4d858281518110610e2657610e26613c5d565b6020026020010151858381518110610e4057610e40613c5d565b60200260200101516107ba565b828281518110610e5f57610e5f613c5d565b6020908102919091010152610e7381613b2a565b9050610e08565b509392505050565b6001600160a01b037f0000000000000000000000000000000000000000000000000000000000000000163003610eca5760405162461bcd60e51b815260040161082190613bc5565b7f00000000000000000000000000000000000000000000000000000000000000006001600160a01b0316610f136000805160206141dc833981519152546001600160a01b031690565b6001600160a01b031614610f395760405162461bcd60e51b815260040161082190613c11565b610f4282611f7a565b61089382826001611fa4565b6000306001600160a01b037f00000000000000000000000000000000000000000000000000000000000000001614610fee5760405162461bcd60e51b815260206004820152603860248201527f555550535570677261646561626c653a206d757374206e6f742062652063616c60448201527f6c6564207468726f7567682064656c656761746563616c6c00000000000000006064820152608401610821565b506000805160206141dc8339815191525b90565b6001600160a01b03831633148061101e575061101e833361072c565b61103a5760405162461bcd60e51b815260040161082190613b77565b610bc9838383612161565b600061105081611ba4565b600160008381526101c4602052604090205460ff16600381111561107657611076613444565b146110945760405163137c9c1f60e31b815260040160405180910390fd5b60008281526101c46020908152604091829020805460ff1916600217905590518381527f8f4352ac8b4aefdd2333162306bbe09dd4f4ff6661e89ccc4e4dcced8794e8f7910160405180910390a15050565b60006110f181611ba4565b506101c355565b600061110381611ba4565b506101c655565b600054610100900460ff161580801561112a5750600054600160ff909116105b806111445750303b158015611144575060005460ff166001145b6111a75760405162461bcd60e51b815260206004820152602e60248201527f496e697469616c697a61626c653a20636f6e747261637420697320616c72656160448201526d191e481a5b9a5d1a585b1a5e995960921b6064820152608401610821565b6000805460ff1916600117905580156111ca576000805461ff0019166101001790555b6111e260405180602001604052806000815250612300565b6111ea612330565b6111f2612359565b6111fa612330565b611202612330565b61120a612330565b611215600033611e8d565b61123f7f7804d923f43a17d325d77e781528e0793b2edd9890ab45fc64efd7b4b427744c33611e8d565b6112697f65d7a28e3265b37a6474929f336521b332c1681b933f6cb9f3376673440d862a33611e8d565b6112937f189ab7a9244df0848122154315af71fe140f3db0fe014031783b0946b8c9d2e333611e8d565b8015610d24576000805461ff0019169055604051600181527f7f26b83ff96e1f2b6a682f133852f6798a09c465da95921460cefb38474024989060200161095d565b7f65d7a28e3265b37a6474929f336521b332c1681b933f6cb9f3376673440d862a6112ff81611ba4565b610d24612388565b60009182526097602090815260408084206001600160a01b0393909316845291905290205460ff1690565b60006101c65485111561135857604051630f0c4c5f60e41b815260040160405180910390fd5b506101c5546040805160a0810190915280600181526020808201889052600060408084018290526001600160a01b038916606085015260809093018690528481526101c49091522081518154829060ff191660018360038111156113be576113be613444565b0217905550602082015160018201556040820151600282015560608201516003820180546001600160a01b0319166001600160a01b03909216919091179055608082015160048201906114119082613cb9565b50506101c580549150600061142583613b2a565b909155505060408051828152602081018790526001600160a01b0386168183015290517f7fe7f72f14a53255f3c9e225ab1d40fdb21335b87a7912726a196fb816866ae09181900360600190a1949350505050565b600260008581526101c4602052604090205460ff1660038111156114a0576114a0613444565b146114be57604051631f0fb6fd60e11b815260040160405180910390fd5b6101c35460008581526101c4602052604090206001015484916114e091613d78565b6114ea9190613d8b565b34101561150a57604051631036b5ad60e31b815260040160405180910390fd5b611516828585846123c5565b6101c3546115249084613d8b565b61152e9034613b17565b60008581526101c4602052604081206002018054909190611550908490613d78565b909155505050505050565b6108933383836124ea565b606060006101c5546001600160401b03811115611585576115856132df565b6040519080825280602002602001820160405280156115cb57816020015b6040805180820190915260608152600060208201528152602001906001900390816115a35790505b50905060005b6101c5548110156116c95760405180604001604052806101c46000848152602001908152602001600020600401805461160990613b43565b80601f016020809104026020016040519081016040528092919081815260200182805461163590613b43565b80156116825780601f1061165757610100808354040283529160200191611682565b820191906000526020600020905b81548152906001019060200180831161166557829003601f168201915b5050505050815260200161169686846107ba565b8152508282815181106116ab576116ab613c5d565b602002602001018190525080806116c190613b2a565b9150506115d1565b5092915050565b6000828152609760205260409020600101546116eb81611ba4565b610bc98383611f13565b60008281526101c460205260409020600301546001600160a01b031633146117305760405163388f811f60e01b815260040160405180910390fd5b60008281526101c4602052604090206002015481111561176357604051637eafab7d60e01b815260040160405180910390fd5b604051600090339083908381818185875af1925050503d80600081146117a5576040519150601f19603f3d011682016040523d82523d6000602084013e6117aa565b606091505b50509050806117cc576040516317f2c34560e31b815260040160405180910390fd5b60008381526101c46020526040812060020180548492906117ee908490613b17565b90915550506040805184815260208101849052338183015290517ff1090e9d5138cd4909542e10e1da576730b07eb291a71a151e63160dde345b949181900360600190a1505050565b606060006101c5546001600160401b03811115611856576118566132df565b6040519080825280602002602001820160405280156118c357816020015b6118b06040805160a081019091528060008152602001600081526020016000815260200160006001600160a01b03168152602001606081525090565b8152602001906001900390816118745790505b50905060005b6101c554811015611a075760008181526101c4602052604090819020815160a081019092528054829060ff16600381111561190657611906613444565b600381111561191757611917613444565b8152600182015460208201526002820154604082015260038201546001600160a01b0316606082015260048201805460809092019161195590613b43565b80601f016020809104026020016040519081016040528092919081815260200182805461198190613b43565b80156119ce5780601f106119a3576101008083540402835291602001916119ce565b820191906000526020600020905b8154815290600101906020018083116119b157829003601f168201915b5050505050815250508282815181106119e9576119e9613c5d565b602002602001018190525080806119ff90613b2a565b9150506118c9565b50919050565b606060405180606001604052806024815260200161422360249139905090565b6001600160a01b038516331480611a495750611a49853361072c565b611a655760405162461bcd60e51b815260040161082190613b77565b610bad85858585856125ca565b6001600160a01b038316331480611a8e5750611a8e833361072c565b611aaa5760405162461bcd60e51b815260040161082190613b77565b610bc9838383612706565b60008181526101c460205260409020600301546001600160a01b03163314611af05760405163388f811f60e01b815260040160405180910390fd5b600360008281526101c4602052604090205460ff166003811115611b1657611b16613444565b14611b345760405163968807a560e01b815260040160405180910390fd5b60008181526101c46020908152604091829020805460ff1916600217905590518281527f63bb17c9645a29322601b4fe88d8f3fa84f32229368294f903084be8f5d813ba910161095d565b60006001600160e01b03198216637965db0b60e01b148061084f575061084f82612822565b610d248133612872565b60676108938282613cb9565b606060678054611bc990613b43565b80601f0160208091040260200160405190810160405280929190818152602001828054611bf590613b43565b8015611c425780601f10611c1757610100808354040283529160200191611c42565b820191906000526020600020905b815481529060010190602001808311611c2557829003601f168201915b50505050509050919050565b60606000611c5b836128cb565b60010190506000816001600160401b03811115611c7a57611c7a6132df565b6040519080825280601f01601f191660200182016040528015611ca4576020820181803683370190505b5090508181016020015b600019016f181899199a1a9b1b9c1cb0b131b232b360811b600a86061a8153600a8504945084611cae57509392505050565b8151835114611d015760405162461bcd60e51b815260040161082190613da2565b6001600160a01b038416611d275760405162461bcd60e51b815260040161082190613dea565b33611d368187878787876129a3565b60005b8451811015611e1f576000858281518110611d5657611d56613c5d565b602002602001015190506000858381518110611d7457611d74613c5d565b60209081029190910181015160008481526065835260408082206001600160a01b038e168352909352919091205490915081811015611dc55760405162461bcd60e51b815260040161082190613e2f565b60008381526065602090815260408083206001600160a01b038e8116855292528083208585039055908b16825281208054849290611e04908490613d78565b9250508190555050505080611e1890613b2a565b9050611d39565b50846001600160a01b0316866001600160a01b0316826001600160a01b03167f4a39dc06d4c0dbc64b70af90fd698a233a518aa5d07e595d983b8c0526c8f7fb8787604051611e6f929190613e79565b60405180910390a4611e858187878787876129b9565b505050505050565b611e978282611307565b6108935760008281526097602090815260408083206001600160a01b03851684529091529020805460ff19166001179055611ecf3390565b6001600160a01b0316816001600160a01b0316837f2f8788117e7eff1d82e926ec794901d17c78024a50270940304540a733656f0d60405160405180910390a45050565b611f1d8282611307565b156108935760008281526097602090815260408083206001600160a01b0385168085529252808320805460ff1916905551339285917ff6391f5c32d9c69d2a47ea670b442974b53935d1edc7fd64eb21e047a839171b9190a45050565b7f189ab7a9244df0848122154315af71fe140f3db0fe014031783b0946b8c9d2e361089381611ba4565b7f4910fdfa16fed3260ed0e7147f7cc6da11a60208b5b9406d12a635614ffd91435460ff1615611fd757610bc983612b14565b826001600160a01b03166352d1902d6040518163ffffffff1660e01b8152600401602060405180830381865afa925050508015612031575060408051601f3d908101601f1916820190925261202e91810190613ea7565b60015b6120945760405162461bcd60e51b815260206004820152602e60248201527f45524331393637557067726164653a206e657720696d706c656d656e7461746960448201526d6f6e206973206e6f74205555505360901b6064820152608401610821565b6000805160206141dc83398151915281146121035760405162461bcd60e51b815260206004820152602960248201527f45524331393637557067726164653a20756e737570706f727465642070726f786044820152681a58589b195555525160ba1b6064820152608401610821565b50610bc9838383612bb0565b612117612bd5565b60c9805460ff191690557f5db9ee0a495bf2e6ff9c91a7834c1ba4fdd244a5e8aa4e537bd38aeae4b073aa335b6040516001600160a01b03909116815260200160405180910390a1565b6001600160a01b0383166121875760405162461bcd60e51b815260040161082190613ec0565b80518251146121a85760405162461bcd60e51b815260040161082190613da2565b60003390506121cb818560008686604051806020016040528060008152506129a3565b60005b83518110156122935760008482815181106121eb576121eb613c5d565b60200260200101519050600084838151811061220957612209613c5d565b60209081029190910181015160008481526065835260408082206001600160a01b038c16835290935291909120549091508181101561225a5760405162461bcd60e51b815260040161082190613f03565b60009283526065602090815260408085206001600160a01b038b168652909152909220910390558061228b81613b2a565b9150506121ce565b5060006001600160a01b0316846001600160a01b0316826001600160a01b03167f4a39dc06d4c0dbc64b70af90fd698a233a518aa5d07e595d983b8c0526c8f7fb86866040516122e4929190613e79565b60405180910390a4604080516020810190915260009052610a9a565b600054610100900460ff166123275760405162461bcd60e51b815260040161082190613f47565b610d2481612c1e565b600054610100900460ff166123575760405162461bcd60e51b815260040161082190613f47565b565b600054610100900460ff166123805760405162461bcd60e51b815260040161082190613f47565b612357612c4e565b612390612c81565b60c9805460ff191660011790557f62e78cea01bee320cd4e420270b5ea74000d11b0c9f74754ebdbfc544b05a2586121443390565b6001600160a01b0384166124255760405162461bcd60e51b815260206004820152602160248201527f455243313135353a206d696e7420746f20746865207a65726f206164647265736044820152607360f81b6064820152608401610821565b33600061243185612cc7565b9050600061243e85612cc7565b905061244f836000898585896129a3565b60008681526065602090815260408083206001600160a01b038b16845290915281208054879290612481908490613d78565b909155505060408051878152602081018790526001600160a01b03808a1692600092918716917fc3d58168c5ae7397731d063d5bbf3d657854427343f4c083240f7aacaa2d0f62910160405180910390a46124e183600089898989612d12565b50505050505050565b816001600160a01b0316836001600160a01b03160361255d5760405162461bcd60e51b815260206004820152602960248201527f455243313135353a2073657474696e6720617070726f76616c20737461747573604482015268103337b91039b2b63360b91b6064820152608401610821565b6001600160a01b03838116600081815260666020908152604080832094871680845294825291829020805460ff191686151590811790915591519182527f17307eab39ab6107e8899845ad3d59bd9653f200f220920489ca2b5937696c31910160405180910390a3505050565b6001600160a01b0384166125f05760405162461bcd60e51b815260040161082190613dea565b3360006125fc85612cc7565b9050600061260985612cc7565b90506126198389898585896129a3565b60008681526065602090815260408083206001600160a01b038c1684529091529020548581101561265c5760405162461bcd60e51b815260040161082190613e2f565b60008781526065602090815260408083206001600160a01b038d8116855292528083208985039055908a1682528120805488929061269b908490613d78565b909155505060408051888152602081018890526001600160a01b03808b16928c821692918816917fc3d58168c5ae7397731d063d5bbf3d657854427343f4c083240f7aacaa2d0f62910160405180910390a46126fb848a8a8a8a8a612d12565b505050505050505050565b6001600160a01b03831661272c5760405162461bcd60e51b815260040161082190613ec0565b33600061273884612cc7565b9050600061274584612cc7565b9050612765838760008585604051806020016040528060008152506129a3565b60008581526065602090815260408083206001600160a01b038a168452909152902054848110156127a85760405162461bcd60e51b815260040161082190613f03565b60008681526065602090815260408083206001600160a01b038b81168086529184528285208a8703905582518b81529384018a90529092908816917fc3d58168c5ae7397731d063d5bbf3d657854427343f4c083240f7aacaa2d0f62910160405180910390a46040805160208101909152600090526124e1565b60006001600160e01b03198216636cdb3d1360e11b148061285357506001600160e01b031982166303a24d0760e21b145b8061084f57506301ffc9a760e01b6001600160e01b031983161461084f565b61287c8282611307565b6108935761288981612dcd565b612894836020612ddf565b6040516020016128a5929190613f92565b60408051601f198184030181529082905262461bcd60e51b825261082191600401613431565b60008072184f03e93ff9f4daa797ed6e38ed64bf6a1f0160401b831061290a5772184f03e93ff9f4daa797ed6e38ed64bf6a1f0160401b830492506040015b6d04ee2d6d415b85acef81000000008310612936576d04ee2d6d415b85acef8100000000830492506020015b662386f26fc10000831061295457662386f26fc10000830492506010015b6305f5e100831061296c576305f5e100830492506008015b612710831061298057612710830492506004015b60648310612992576064830492506002015b600a831061084f5760010192915050565b6129ab612c81565b611e85868686868686612f81565b6001600160a01b0384163b15611e855760405163bc197c8160e01b81526001600160a01b0385169063bc197c81906129fd9089908990889088908890600401614007565b6020604051808303816000875af1925050508015612a38575060408051601f3d908101601f19168201909252612a3591810190614065565b60015b612ae457612a44614082565b806308c379a003612a7d5750612a5861409d565b80612a635750612a7f565b8060405162461bcd60e51b81526004016108219190613431565b505b60405162461bcd60e51b815260206004820152603460248201527f455243313135353a207472616e7366657220746f206e6f6e2d455243313135356044820152732932b1b2b4bb32b91034b6b83632b6b2b73a32b960611b6064820152608401610821565b6001600160e01b0319811663bc197c8160e01b146124e15760405162461bcd60e51b815260040161082190614126565b6001600160a01b0381163b612b815760405162461bcd60e51b815260206004820152602d60248201527f455243313936373a206e657720696d706c656d656e746174696f6e206973206e60448201526c1bdd08184818dbdb9d1c9858dd609a1b6064820152608401610821565b6000805160206141dc83398151915280546001600160a01b0319166001600160a01b0392909216919091179055565b612bb9836130fd565b600082511180612bc65750805b15610bc957610a9a838361313d565b60c95460ff166123575760405162461bcd60e51b815260206004820152601460248201527314185d5cd8589b194e881b9bdd081c185d5cd95960621b6044820152606401610821565b600054610100900460ff16612c455760405162461bcd60e51b815260040161082190613f47565b610d2481611bae565b600054610100900460ff16612c755760405162461bcd60e51b815260040161082190613f47565b60c9805460ff19169055565b60c95460ff16156123575760405162461bcd60e51b815260206004820152601060248201526f14185d5cd8589b194e881c185d5cd95960821b6044820152606401610821565b60408051600180825281830190925260609160009190602080830190803683370190505090508281600081518110612d0157612d01613c5d565b602090810291909101015292915050565b6001600160a01b0384163b15611e855760405163f23a6e6160e01b81526001600160a01b0385169063f23a6e6190612d56908990899088908890889060040161416e565b6020604051808303816000875af1925050508015612d91575060408051601f3d908101601f19168201909252612d8e91810190614065565b60015b612d9d57612a44614082565b6001600160e01b0319811663f23a6e6160e01b146124e15760405162461bcd60e51b815260040161082190614126565b606061084f6001600160a01b03831660145b60606000612dee836002613d8b565b612df9906002613d78565b6001600160401b03811115612e1057612e106132df565b6040519080825280601f01601f191660200182016040528015612e3a576020820181803683370190505b509050600360fc1b81600081518110612e5557612e55613c5d565b60200101906001600160f81b031916908160001a905350600f60fb1b81600181518110612e8457612e84613c5d565b60200101906001600160f81b031916908160001a9053506000612ea8846002613d8b565b612eb3906001613d78565b90505b6001811115612f2b576f181899199a1a9b1b9c1cb0b131b232b360811b85600f1660108110612ee757612ee7613c5d565b1a60f81b828281518110612efd57612efd613c5d565b60200101906001600160f81b031916908160001a90535060049490941c93612f24816141a8565b9050612eb6565b508315612f7a5760405162461bcd60e51b815260206004820181905260248201527f537472696e67733a20686578206c656e67746820696e73756666696369656e746044820152606401610821565b9392505050565b6001600160a01b0385166130095760005b835181101561300757828181518110612fad57612fad613c5d565b602002602001015161012d6000868481518110612fcc57612fcc613c5d565b602002602001015181526020019081526020016000206000828254612ff19190613d78565b90915550613000905081613b2a565b9050612f92565b505b6001600160a01b038416611e855760005b83518110156124e157600084828151811061303757613037613c5d565b60200260200101519050600084838151811061305557613055613c5d565b60200260200101519050600061012d6000848152602001908152602001600020549050818110156130d95760405162461bcd60e51b815260206004820152602860248201527f455243313135353a206275726e20616d6f756e74206578636565647320746f74604482015267616c537570706c7960c01b6064820152608401610821565b600092835261012d6020526040909220910390556130f681613b2a565b905061301a565b61310681612b14565b6040516001600160a01b038216907fbc7cd75a20ee27fd9adebab32041f755214dbc6bffa90cc0225b39da2e5c2d3b90600090a250565b6060612f7a83836040518060600160405280602781526020016141fc602791396060600080856001600160a01b03168560405161317a91906141bf565b600060405180830381855af49150503d80600081146131b5576040519150601f19603f3d011682016040523d82523d6000602084013e6131ba565b606091505b50915091506131cb868383876131d5565b9695505050505050565b6060831561324457825160000361323d576001600160a01b0385163b61323d5760405162461bcd60e51b815260206004820152601d60248201527f416464726573733a2063616c6c20746f206e6f6e2d636f6e74726163740000006044820152606401610821565b508161324e565b61324e8383613256565b949350505050565b815115612a635781518083602001fd5b80356001600160a01b038116811461327d57600080fd5b919050565b6000806040838503121561329557600080fd5b61329e83613266565b946020939093013593505050565b6001600160e01b031981168114610d2457600080fd5b6000602082840312156132d457600080fd5b8135612f7a816132ac565b634e487b7160e01b600052604160045260246000fd5b601f8201601f191681016001600160401b038111828210171561331a5761331a6132df565b6040525050565b600082601f83011261333257600080fd5b81356001600160401b0381111561334b5761334b6132df565b604051613362601f8301601f1916602001826132f5565b81815284602083860101111561337757600080fd5b816020850160208301376000918101602001919091529392505050565b6000602082840312156133a657600080fd5b81356001600160401b038111156133bc57600080fd5b61324e84828501613321565b6000602082840312156133da57600080fd5b5035919050565b60005b838110156133fc5781810151838201526020016133e4565b50506000910152565b6000815180845261341d8160208601602086016133e1565b601f01601f19169290920160200192915050565b602081526000612f7a6020830184613405565b634e487b7160e01b600052602160045260246000fd5b6004811061347857634e487b7160e01b600052602160045260246000fd5b9052565b613486818761345a565b84602082015283604082015260018060a01b038316606082015260a0608082015260006134b660a0830184613405565b979650505050505050565b60006001600160401b038211156134da576134da6132df565b5060051b60200190565b600082601f8301126134f557600080fd5b81356020613502826134c1565b60405161350f82826132f5565b83815260059390931b850182019282810191508684111561352f57600080fd5b8286015b8481101561354a5780358352918301918301613533565b509695505050505050565b600080600080600060a0868803121561356d57600080fd5b61357686613266565b945061358460208701613266565b935060408601356001600160401b03808211156135a057600080fd5b6135ac89838a016134e4565b945060608801359150808211156135c257600080fd5b6135ce89838a016134e4565b935060808801359150808211156135e457600080fd5b506135f188828901613321565b9150509295509295909350565b6000806040838503121561361157600080fd5b8235915061362160208401613266565b90509250929050565b60006020828403121561363c57600080fd5b612f7a82613266565b6000806040838503121561365857600080fd5b82356001600160401b038082111561366f57600080fd5b818501915085601f83011261368357600080fd5b81356020613690826134c1565b60405161369d82826132f5565b83815260059390931b85018201928281019150898411156136bd57600080fd5b948201945b838610156136e2576136d386613266565b825294820194908201906136c2565b965050860135925050808211156136f857600080fd5b50613705858286016134e4565b9150509250929050565b600081518084526020808501945080840160005b8381101561373f57815187529582019590820190600101613723565b509495945050505050565b602081526000612f7a602083018461370f565b6000806040838503121561377057600080fd5b61377983613266565b915060208301356001600160401b0381111561379457600080fd5b61370585828601613321565b6000806000606084860312156137b557600080fd5b6137be84613266565b925060208401356001600160401b03808211156137da57600080fd5b6137e6878388016134e4565b935060408601359150808211156137fc57600080fd5b50613809868287016134e4565b9150509250925092565b6000806000806080858703121561382957600080fd5b8435935061383960208601613266565b925061384760408601613266565b915060608501356001600160401b0381111561386257600080fd5b61386e87828801613321565b91505092959194509250565b6000806000806080858703121561389057600080fd5b843593506020850135925061384760408601613266565b600080604083850312156138ba57600080fd5b6138c383613266565b9150602083013580151581146138d857600080fd5b809150509250929050565b60006020808301818452808551808352604092508286019150828160051b87010184880160005b8381101561394b57888303603f190185528151805187855261392e88860182613405565b91890151948901949094529487019492509086019060010161390a565b509098975050505050505050565b6000806040838503121561396c57600080fd5b50508035926020909101359150565b60006020808301818452808551808352604092508286019150828160051b87010184880160005b8381101561394b57603f19898403018552815160a06139c285835161345a565b81890151858a015287820151888601526060808301516001600160a01b0316908601526080918201519185018190526139fd81860183613405565b9689019694505050908601906001016139a2565b60008060408385031215613a2457600080fd5b613a2d83613266565b915061362160208401613266565b600080600080600060a08688031215613a5357600080fd5b613a5c86613266565b9450613a6a60208701613266565b9350604086013592506060860135915060808601356001600160401b03811115613a9357600080fd5b6135f188828901613321565b600080600060608486031215613ab457600080fd5b613abd84613266565b95602085013595506040909401359392505050565b60008351613ae48184602088016133e1565b835190830190613af88183602088016133e1565b01949350505050565b634e487b7160e01b600052601160045260246000fd5b8181038181111561084f5761084f613b01565b600060018201613b3c57613b3c613b01565b5060010190565b600181811c90821680613b5757607f821691505b602082108103611a0757634e487b7160e01b600052602260045260246000fd5b6020808252602e908201527f455243313135353a2063616c6c6572206973206e6f7420746f6b656e206f776e60408201526d195c881bdc88185c1c1c9bdd995960921b606082015260800190565b6020808252602c908201527f46756e6374696f6e206d7573742062652063616c6c6564207468726f7567682060408201526b19195b1959d85d1958d85b1b60a21b606082015260800190565b6020808252602c908201527f46756e6374696f6e206d7573742062652063616c6c6564207468726f7567682060408201526b6163746976652070726f787960a01b606082015260800190565b634e487b7160e01b600052603260045260246000fd5b601f821115610bc957600081815260208120601f850160051c81016020861015613c9a5750805b601f850160051c820191505b81811015611e8557828155600101613ca6565b81516001600160401b03811115613cd257613cd26132df565b613ce681613ce08454613b43565b84613c73565b602080601f831160018114613d1b5760008415613d035750858301515b600019600386901b1c1916600185901b178555611e85565b600085815260208120601f198616915b82811015613d4a57888601518255948401946001909101908401613d2b565b5085821015613d685787850151600019600388901b60f8161c191681555b5050505050600190811b01905550565b8082018082111561084f5761084f613b01565b808202811582820484141761084f5761084f613b01565b60208082526028908201527f455243313135353a2069647320616e6420616d6f756e7473206c656e677468206040820152670dad2e6dac2e8c6d60c31b606082015260800190565b60208082526025908201527f455243313135353a207472616e7366657220746f20746865207a65726f206164604082015264647265737360d81b606082015260800190565b6020808252602a908201527f455243313135353a20696e73756666696369656e742062616c616e636520666f60408201526939103a3930b739b332b960b11b606082015260800190565b604081526000613e8c604083018561370f565b8281036020840152613e9e818561370f565b95945050505050565b600060208284031215613eb957600080fd5b5051919050565b60208082526023908201527f455243313135353a206275726e2066726f6d20746865207a65726f206164647260408201526265737360e81b606082015260800190565b60208082526024908201527f455243313135353a206275726e20616d6f756e7420657863656564732062616c604082015263616e636560e01b606082015260800190565b6020808252602b908201527f496e697469616c697a61626c653a20636f6e7472616374206973206e6f74206960408201526a6e697469616c697a696e6760a81b606082015260800190565b7f416363657373436f6e74726f6c3a206163636f756e7420000000000000000000815260008351613fca8160178501602088016133e1565b7001034b99036b4b9b9b4b733903937b6329607d1b6017918401918201528351613ffb8160288401602088016133e1565b01602801949350505050565b6001600160a01b0386811682528516602082015260a0604082018190526000906140339083018661370f565b8281036060840152614045818661370f565b905082810360808401526140598185613405565b98975050505050505050565b60006020828403121561407757600080fd5b8151612f7a816132ac565b600060033d1115610fff5760046000803e5060005160e01c90565b600060443d10156140ab5790565b6040516003193d81016004833e81513d6001600160401b0381602484011181841117156140da57505050505090565b82850191508151818111156140f25750505050505090565b843d870101602082850101111561410c5750505050505090565b61411b602082860101876132f5565b509095945050505050565b60208082526028908201527f455243313135353a204552433131353552656365697665722072656a656374656040820152676420746f6b656e7360c01b606082015260800190565b6001600160a01b03868116825285166020820152604081018490526060810183905260a0608082018190526000906134b690830184613405565b6000816141b7576141b7613b01565b506000190190565b600082516141d18184602087016133e1565b919091019291505056fe360894a13ba1a3210667c828492db98dca3e2076cc3735a920a3ca505d382bbc416464726573733a206c6f772d6c6576656c2064656c65676174652063616c6c206661696c656468747470733a2f2f72616461726c61756e63682e6170702f6170692f6d65746164617461a2646970667358221220b07bdecd8f33a8004c3b3078842221a8850f1c086bda48413a02a89c7cb9e45164736f6c63430008130033",
  "linkReferences": {},
  "deployedLinkReferences": {}
}