{
  "_format": "hh-sol-artifact-1",
  "contractName": "RadarEditions",
  "sourceName": "src/RadarEditions.sol",
  "abi": [
    {
      "inputs": [],
      "name": "EditionFeeExceedsMaximumFee",
      "type": "error"
    },
    {
      "inputs": [],
      "name": "EditionNotCreated",
      "type": "error"
    },
    {
      "inputs": [],
      "name": "EditionNotEnoughBalance",
      "type": "error"
    },
    {
      "inputs": [],
      "name": "EditionNotLaunched",
      "type": "error"
    },
    {
      "inputs": [],
      "name": "EditionNotStopped",
      "type": "error"
    },
    {
      "inputs": [],
      "name": "NotCorrectUser",
      "type": "error"
    },
    {
      "inputs": [],
      "name": "NotEditionOwner",
      "type": "error"
    },
    {
      "inputs": [],
      "name": "NotEnoughFees",
      "type": "error"
    },
    {
      "inputs": [],
      "name": "NotEnoughFunds",
      "type": "error"
    },
    {
      "inputs": [],
      "name": "TransactionFailed",
      "type": "error"
    },
    {
      "anonymous": false,
      "inputs": [
        {
          "indexed": false,
          "internalType": "address",
          "name": "previousAdmin",
          "type": "address"
        },
        {
          "indexed": false,
          "internalType": "address",
          "name": "newAdmin",
          "type": "address"
        }
      ],
      "name": "AdminChanged",
      "type": "event"
    },
    {
      "anonymous": false,
      "inputs": [
        {
          "indexed": true,
          "internalType": "address",
          "name": "account",
          "type": "address"
        },
        {
          "indexed": true,
          "internalType": "address",
          "name": "operator",
          "type": "address"
        },
        {
          "indexed": false,
          "internalType": "bool",
          "name": "approved",
          "type": "bool"
        }
      ],
      "name": "ApprovalForAll",
      "type": "event"
    },
    {
      "anonymous": false,
      "inputs": [
        {
          "indexed": true,
          "internalType": "address",
          "name": "beacon",
          "type": "address"
        }
      ],
      "name": "BeaconUpgraded",
      "type": "event"
    },
    {
      "anonymous": false,
      "inputs": [
        {
          "indexed": false,
          "internalType": "uint256",
          "name": "editionId",
          "type": "uint256"
        }
      ],
      "name": "EditionApproved",
      "type": "event"
    },
    {
      "anonymous": false,
      "inputs": [
        {
          "indexed": false,
          "internalType": "uint256",
          "name": "editionId",
          "type": "uint256"
        },
        {
          "indexed": false,
          "internalType": "uint256",
          "name": "amount",
          "type": "uint256"
        },
        {
          "indexed": false,
          "internalType": "address",
          "name": "owner",
          "type": "address"
        }
      ],
      "name": "EditionBalanceWithdrawn",
      "type": "event"
    },
    {
      "anonymous": false,
      "inputs": [
        {
          "indexed": true,
          "internalType": "uint256",
          "name": "editionId",
          "type": "uint256"
        },
        {
          "indexed": true,
          "internalType": "address",
          "name": "believer",
          "type": "address"
        }
      ],
      "name": "EditionBeliefRemoved",
      "type": "event"
    },
    {
      "anonymous": false,
      "inputs": [
        {
          "indexed": true,
          "internalType": "uint256",
          "name": "editionId",
          "type": "uint256"
        },
        {
          "indexed": true,
          "internalType": "address",
          "name": "believer",
          "type": "address"
        },
        {
          "indexed": false,
          "internalType": "string",
          "name": "tags",
          "type": "string"
        }
      ],
      "name": "EditionBelieved",
      "type": "event"
    },
    {
      "anonymous": false,
      "inputs": [
        {
          "indexed": false,
          "internalType": "uint256",
          "name": "editionId",
          "type": "uint256"
        },
        {
          "indexed": false,
          "internalType": "string",
          "name": "briefId",
          "type": "string"
        },
        {
          "indexed": false,
          "internalType": "uint256",
          "name": "fee",
          "type": "uint256"
        },
        {
          "indexed": false,
          "internalType": "address",
          "name": "owner",
          "type": "address"
        }
      ],
      "name": "EditionCreated",
      "type": "event"
    },
    {
      "anonymous": false,
      "inputs": [
        {
          "indexed": false,
          "internalType": "uint256",
          "name": "editionId",
          "type": "uint256"
        }
      ],
      "name": "EditionResumed",
      "type": "event"
    },
    {
      "anonymous": false,
      "inputs": [
        {
          "indexed": false,
          "internalType": "uint256",
          "name": "editionId",
          "type": "uint256"
        }
      ],
      "name": "EditionStopped",
      "type": "event"
    },
    {
      "anonymous": false,
      "inputs": [
        {
          "indexed": false,
          "internalType": "uint8",
          "name": "version",
          "type": "uint8"
        }
      ],
      "name": "Initialized",
      "type": "event"
    },
    {
      "anonymous": false,
      "inputs": [
        {
          "indexed": false,
          "internalType": "address",
          "name": "account",
          "type": "address"
        }
      ],
      "name": "Paused",
      "type": "event"
    },
    {
      "anonymous": false,
      "inputs": [
        {
          "indexed": true,
          "internalType": "bytes32",
          "name": "role",
          "type": "bytes32"
        },
        {
          "indexed": true,
          "internalType": "bytes32",
          "name": "previousAdminRole",
          "type": "bytes32"
        },
        {
          "indexed": true,
          "internalType": "bytes32",
          "name": "newAdminRole",
          "type": "bytes32"
        }
      ],
      "name": "RoleAdminChanged",
      "type": "event"
    },
    {
      "anonymous": false,
      "inputs": [
        {
          "indexed": true,
          "internalType": "bytes32",
          "name": "role",
          "type": "bytes32"
        },
        {
          "indexed": true,
          "internalType": "address",
          "name": "account",
          "type": "address"
        },
        {
          "indexed": true,
          "internalType": "address",
          "name": "sender",
          "type": "address"
        }
      ],
      "name": "RoleGranted",
      "type": "event"
    },
    {
      "anonymous": false,
      "inputs": [
        {
          "indexed": true,
          "internalType": "bytes32",
          "name": "role",
          "type": "bytes32"
        },
        {
          "indexed": true,
          "internalType": "address",
          "name": "account",
          "type": "address"
        },
        {
          "indexed": true,
          "internalType": "address",
          "name": "sender",
          "type": "address"
        }
      ],
      "name": "RoleRevoked",
      "type": "event"
    },
    {
      "anonymous": false,
      "inputs": [
        {
          "indexed": true,
          "internalType": "address",
          "name": "operator",
          "type": "address"
        },
        {
          "indexed": true,
          "internalType": "address",
          "name": "from",
          "type": "address"
        },
        {
          "indexed": true,
          "internalType": "address",
          "name": "to",
          "type": "address"
        },
        {
          "indexed": false,
          "internalType": "uint256[]",
          "name": "ids",
          "type": "uint256[]"
        },
        {
          "indexed": false,
          "internalType": "uint256[]",
          "name": "values",
          "type": "uint256[]"
        }
      ],
      "name": "TransferBatch",
      "type": "event"
    },
    {
      "anonymous": false,
      "inputs": [
        {
          "indexed": true,
          "internalType": "address",
          "name": "operator",
          "type": "address"
        },
        {
          "indexed": true,
          "internalType": "address",
          "name": "from",
          "type": "address"
        },
        {
          "indexed": true,
          "internalType": "address",
          "name": "to",
          "type": "address"
        },
        {
          "indexed": false,
          "internalType": "uint256",
          "name": "id",
          "type": "uint256"
        },
        {
          "indexed": false,
          "internalType": "uint256",
          "name": "value",
          "type": "uint256"
        }
      ],
      "name": "TransferSingle",
      "type": "event"
    },
    {
      "anonymous": false,
      "inputs": [
        {
          "indexed": false,
          "internalType": "string",
          "name": "value",
          "type": "string"
        },
        {
          "indexed": true,
          "internalType": "uint256",
          "name": "id",
          "type": "uint256"
        }
      ],
      "name": "URI",
      "type": "event"
    },
    {
      "anonymous": false,
      "inputs": [
        {
          "indexed": false,
          "internalType": "address",
          "name": "account",
          "type": "address"
        }
      ],
      "name": "Unpaused",
      "type": "event"
    },
    {
      "anonymous": false,
      "inputs": [
        {
          "indexed": true,
          "internalType": "address",
          "name": "implementation",
          "type": "address"
        }
      ],
      "name": "Upgraded",
      "type": "event"
    },
    {
      "stateMutability": "payable",
      "type": "fallback"
    },
    {
      "inputs": [],
      "name": "DEFAULT_ADMIN_ROLE",
      "outputs": [
        {
          "internalType": "bytes32",
          "name": "",
          "type": "bytes32"
        }
      ],
      "stateMutability": "view",
      "type": "function"
    },
    {
      "inputs": [
        {
          "internalType": "uint256",
          "name": "editionId",
          "type": "uint256"
        }
      ],
      "name": "approveEdition",
      "outputs": [],
      "stateMutability": "nonpayable",
      "type": "function"
    },
    {
      "inputs": [
        {
          "internalType": "address",
          "name": "account",
          "type": "address"
        },
        {
          "internalType": "uint256",
          "name": "id",
          "type": "uint256"
        }
      ],
      "name": "balanceOf",
      "outputs": [
        {
          "internalType": "uint256",
          "name": "",
          "type": "uint256"
        }
      ],
      "stateMutability": "view",
      "type": "function"
    },
    {
      "inputs": [
        {
          "internalType": "address[]",
          "name": "accounts",
          "type": "address[]"
        },
        {
          "internalType": "uint256[]",
          "name": "ids",
          "type": "uint256[]"
        }
      ],
      "name": "balanceOfBatch",
      "outputs": [
        {
          "internalType": "uint256[]",
          "name": "",
          "type": "uint256[]"
        }
      ],
      "stateMutability": "view",
      "type": "function"
    },
    {
      "inputs": [
        {
          "internalType": "address",
          "name": "user",
          "type": "address"
        }
      ],
      "name": "balances",
      "outputs": [
        {
          "internalType": "uint256",
          "name": "balance",
          "type": "uint256"
        }
      ],
      "stateMutability": "view",
      "type": "function"
    },
    {
      "inputs": [
        {
          "internalType": "uint256",
          "name": "editionId",
          "type": "uint256"
        },
        {
          "internalType": "string",
          "name": "tags",
          "type": "string"
        }
      ],
      "name": "believeProject",
      "outputs": [],
      "stateMutability": "payable",
      "type": "function"
    },
    {
      "inputs": [
        {
          "internalType": "address",
          "name": "account",
          "type": "address"
        },
        {
          "internalType": "uint256",
          "name": "id",
          "type": "uint256"
        },
        {
          "internalType": "uint256",
          "name": "value",
          "type": "uint256"
        }
      ],
      "name": "burn",
      "outputs": [],
      "stateMutability": "nonpayable",
      "type": "function"
    },
    {
      "inputs": [
        {
          "internalType": "address",
          "name": "account",
          "type": "address"
        },
        {
          "internalType": "uint256[]",
          "name": "ids",
          "type": "uint256[]"
        },
        {
          "internalType": "uint256[]",
          "name": "values",
          "type": "uint256[]"
        }
      ],
      "name": "burnBatch",
      "outputs": [],
      "stateMutability": "nonpayable",
      "type": "function"
    },
    {
      "inputs": [],
      "name": "contractURI",
      "outputs": [
        {
          "internalType": "string",
          "name": "",
          "type": "string"
        }
      ],
      "stateMutability": "view",
      "type": "function"
    },
    {
      "inputs": [
        {
          "internalType": "uint256",
          "name": "fee",
          "type": "uint256"
        },
        {
          "internalType": "address",
          "name": "owner",
          "type": "address"
        },
        {
          "internalType": "address",
          "name": "payer",
          "type": "address"
        },
        {
          "internalType": "string",
          "name": "id",
          "type": "string"
        },
        {
          "internalType": "string",
          "name": "briefId",
          "type": "string"
        }
      ],
      "name": "createEdition",
      "outputs": [
        {
          "internalType": "uint256",
          "name": "editionId",
          "type": "uint256"
        }
      ],
      "stateMutability": "nonpayable",
      "type": "function"
    },
    {
      "inputs": [],
      "name": "editionCounter",
      "outputs": [
        {
          "internalType": "uint256",
          "name": "",
          "type": "uint256"
        }
      ],
      "stateMutability": "view",
      "type": "function"
    },
    {
      "inputs": [
        {
          "internalType": "uint256",
          "name": "",
          "type": "uint256"
        }
      ],
      "name": "editions",
      "outputs": [
        {
          "internalType": "enum EditionsStructs.EditionStatus",
          "name": "status",
          "type": "uint8"
        },
        {
          "internalType": "uint256",
          "name": "fee",
          "type": "uint256"
        },
        {
          "internalType": "uint256",
          "name": "balance",
          "type": "uint256"
        },
        {
          "internalType": "address",
          "name": "owner",
          "type": "address"
        },
        {
          "internalType": "string",
          "name": "id",
          "type": "string"
        },
        {
          "internalType": "string",
          "name": "briefId",
          "type": "string"
        }
      ],
      "stateMutability": "view",
      "type": "function"
    },
    {
      "inputs": [
        {
          "internalType": "uint256",
          "name": "id",
          "type": "uint256"
        }
      ],
      "name": "exists",
      "outputs": [
        {
          "internalType": "bool",
          "name": "",
          "type": "bool"
        }
      ],
      "stateMutability": "view",
      "type": "function"
    },
    {
      "inputs": [],
      "name": "futureFundFee",
      "outputs": [
        {
          "internalType": "uint256",
          "name": "",
          "type": "uint256"
        }
      ],
      "stateMutability": "view",
      "type": "function"
    },
    {
      "inputs": [
        {
          "internalType": "address",
          "name": "owner",
          "type": "address"
        }
      ],
      "name": "getBalances",
      "outputs": [
        {
          "components": [
            {
              "internalType": "string",
              "name": "id",
              "type": "string"
            },
            {
              "internalType": "uint256",
              "name": "amount",
              "type": "uint256"
            }
          ],
          "internalType": "struct EditionsStructs.EditionIdWithAmount[]",
          "name": "",
          "type": "tuple[]"
        }
      ],
      "stateMutability": "view",
      "type": "function"
    },
    {
      "inputs": [],
      "name": "getEditions",
      "outputs": [
        {
          "components": [
            {
              "internalType": "enum EditionsStructs.EditionStatus",
              "name": "status",
              "type": "uint8"
            },
            {
              "internalType": "uint256",
              "name": "fee",
              "type": "uint256"
            },
            {
              "internalType": "uint256",
              "name": "balance",
              "type": "uint256"
            },
            {
              "internalType": "address",
              "name": "owner",
              "type": "address"
            },
            {
              "internalType": "string",
              "name": "id",
              "type": "string"
            },
            {
              "internalType": "string",
              "name": "briefId",
              "type": "string"
            }
          ],
          "internalType": "struct EditionsStructs.Edition[]",
          "name": "",
          "type": "tuple[]"
        }
      ],
      "stateMutability": "view",
      "type": "function"
    },
    {
      "inputs": [
        {
          "internalType": "bytes32",
          "name": "role",
          "type": "bytes32"
        }
      ],
      "name": "getRoleAdmin",
      "outputs": [
        {
          "internalType": "bytes32",
          "name": "",
          "type": "bytes32"
        }
      ],
      "stateMutability": "view",
      "type": "function"
    },
    {
      "inputs": [
        {
          "internalType": "address",
          "name": "user",
          "type": "address"
        }
      ],
      "name": "getUserBeliefs",
      "outputs": [
        {
          "internalType": "bool[]",
          "name": "",
          "type": "bool[]"
        }
      ],
      "stateMutability": "view",
      "type": "function"
    },
    {
      "inputs": [
        {
          "internalType": "bytes32",
          "name": "role",
          "type": "bytes32"
        },
        {
          "internalType": "address",
          "name": "account",
          "type": "address"
        }
      ],
      "name": "grantRole",
      "outputs": [],
      "stateMutability": "nonpayable",
      "type": "function"
    },
    {
      "inputs": [
        {
          "internalType": "bytes32",
          "name": "role",
          "type": "bytes32"
        },
        {
          "internalType": "address",
          "name": "account",
          "type": "address"
        }
      ],
      "name": "hasRole",
      "outputs": [
        {
          "internalType": "bool",
          "name": "",
          "type": "bool"
        }
      ],
      "stateMutability": "view",
      "type": "function"
    },
    {
      "inputs": [],
      "name": "initialize",
      "outputs": [],
      "stateMutability": "nonpayable",
      "type": "function"
    },
    {
      "inputs": [
        {
          "internalType": "address",
          "name": "account",
          "type": "address"
        },
        {
          "internalType": "address",
          "name": "operator",
          "type": "address"
        }
      ],
      "name": "isApprovedForAll",
      "outputs": [
        {
          "internalType": "bool",
          "name": "",
          "type": "bool"
        }
      ],
      "stateMutability": "view",
      "type": "function"
    },
    {
      "inputs": [],
      "name": "maximumEditionFee",
      "outputs": [
        {
          "internalType": "uint256",
          "name": "",
          "type": "uint256"
        }
      ],
      "stateMutability": "view",
      "type": "function"
    },
    {
      "inputs": [
        {
          "internalType": "uint256",
          "name": "editionId",
          "type": "uint256"
        },
        {
          "internalType": "uint256",
          "name": "amount",
          "type": "uint256"
        },
        {
          "internalType": "address",
          "name": "buyer",
          "type": "address"
        },
        {
          "internalType": "bytes",
          "name": "data",
          "type": "bytes"
        }
      ],
      "name": "mintEdition",
      "outputs": [],
      "stateMutability": "payable",
      "type": "function"
    },
    {
      "inputs": [],
      "name": "pause",
      "outputs": [],
      "stateMutability": "nonpayable",
      "type": "function"
    },
    {
      "inputs": [],
      "name": "paused",
      "outputs": [
        {
          "internalType": "bool",
          "name": "",
          "type": "bool"
        }
      ],
      "stateMutability": "view",
      "type": "function"
    },
    {
      "inputs": [],
      "name": "protocolFee",
      "outputs": [
        {
          "internalType": "uint256",
          "name": "",
          "type": "uint256"
        }
      ],
      "stateMutability": "view",
      "type": "function"
    },
    {
      "inputs": [],
      "name": "proxiableUUID",
      "outputs": [
        {
          "internalType": "bytes32",
          "name": "",
          "type": "bytes32"
        }
      ],
      "stateMutability": "view",
      "type": "function"
    },
    {
      "inputs": [
        {
          "internalType": "uint256",
          "name": "editionId",
          "type": "uint256"
        }
      ],
      "name": "removeBelief",
      "outputs": [],
      "stateMutability": "nonpayable",
      "type": "function"
    },
    {
      "inputs": [
        {
          "internalType": "bytes32",
          "name": "role",
          "type": "bytes32"
        },
        {
          "internalType": "address",
          "name": "account",
          "type": "address"
        }
      ],
      "name": "renounceRole",
      "outputs": [],
      "stateMutability": "nonpayable",
      "type": "function"
    },
    {
      "inputs": [
        {
          "internalType": "uint256",
          "name": "editionId",
          "type": "uint256"
        }
      ],
      "name": "resumeEdition",
      "outputs": [],
      "stateMutability": "nonpayable",
      "type": "function"
    },
    {
      "inputs": [
        {
          "internalType": "uint256",
          "name": "amount",
          "type": "uint256"
        }
      ],
      "name": "retrieveBalance",
      "outputs": [],
      "stateMutability": "nonpayable",
      "type": "function"
    },
    {
      "inputs": [
        {
          "internalType": "bytes32",
          "name": "role",
          "type": "bytes32"
        },
        {
          "internalType": "address",
          "name": "account",
          "type": "address"
        }
      ],
      "name": "revokeRole",
      "outputs": [],
      "stateMutability": "nonpayable",
      "type": "function"
    },
    {
      "inputs": [
        {
          "internalType": "address",
          "name": "from",
          "type": "address"
        },
        {
          "internalType": "address",
          "name": "to",
          "type": "address"
        },
        {
          "internalType": "uint256[]",
          "name": "ids",
          "type": "uint256[]"
        },
        {
          "internalType": "uint256[]",
          "name": "amounts",
          "type": "uint256[]"
        },
        {
          "internalType": "bytes",
          "name": "data",
          "type": "bytes"
        }
      ],
      "name": "safeBatchTransferFrom",
      "outputs": [],
      "stateMutability": "nonpayable",
      "type": "function"
    },
    {
      "inputs": [
        {
          "internalType": "address",
          "name": "from",
          "type": "address"
        },
        {
          "internalType": "address",
          "name": "to",
          "type": "address"
        },
        {
          "internalType": "uint256",
          "name": "id",
          "type": "uint256"
        },
        {
          "internalType": "uint256",
          "name": "amount",
          "type": "uint256"
        },
        {
          "internalType": "bytes",
          "name": "data",
          "type": "bytes"
        }
      ],
      "name": "safeTransferFrom",
      "outputs": [],
      "stateMutability": "nonpayable",
      "type": "function"
    },
    {
      "inputs": [
        {
          "internalType": "address",
          "name": "operator",
          "type": "address"
        },
        {
          "internalType": "bool",
          "name": "approved",
          "type": "bool"
        }
      ],
      "name": "setApprovalForAll",
      "outputs": [],
      "stateMutability": "nonpayable",
      "type": "function"
    },
    {
      "inputs": [
        {
          "internalType": "uint256",
          "name": "_futureFundFee",
          "type": "uint256"
        }
      ],
      "name": "setFutureFundFee",
      "outputs": [],
      "stateMutability": "nonpayable",
      "type": "function"
    },
    {
      "inputs": [
        {
          "internalType": "uint256",
          "name": "_maximumEditionFee",
          "type": "uint256"
        }
      ],
      "name": "setMaximumEditionFee",
      "outputs": [],
      "stateMutability": "nonpayable",
      "type": "function"
    },
    {
      "inputs": [
        {
          "internalType": "uint256",
          "name": "_protocolFee",
          "type": "uint256"
        }
      ],
      "name": "setProtocolFee",
      "outputs": [],
      "stateMutability": "nonpayable",
      "type": "function"
    },
    {
      "inputs": [
        {
          "internalType": "string",
          "name": "newuri",
          "type": "string"
        }
      ],
      "name": "setURI",
      "outputs": [],
      "stateMutability": "nonpayable",
      "type": "function"
    },
    {
      "inputs": [
        {
          "internalType": "uint256",
          "name": "editionId",
          "type": "uint256"
        }
      ],
      "name": "stopEdition",
      "outputs": [],
      "stateMutability": "nonpayable",
      "type": "function"
    },
    {
      "inputs": [
        {
          "internalType": "bytes4",
          "name": "interfaceId",
          "type": "bytes4"
        }
      ],
      "name": "supportsInterface",
      "outputs": [
        {
          "internalType": "bool",
          "name": "",
          "type": "bool"
        }
      ],
      "stateMutability": "view",
      "type": "function"
    },
    {
      "inputs": [
        {
          "internalType": "uint256",
          "name": "id",
          "type": "uint256"
        }
      ],
      "name": "totalSupply",
      "outputs": [
        {
          "internalType": "uint256",
          "name": "",
          "type": "uint256"
        }
      ],
      "stateMutability": "view",
      "type": "function"
    },
    {
      "inputs": [],
      "name": "unpause",
      "outputs": [],
      "stateMutability": "nonpayable",
      "type": "function"
    },
    {
      "inputs": [
        {
          "internalType": "uint256",
          "name": "editionId",
          "type": "uint256"
        },
        {
          "internalType": "string",
          "name": "id",
          "type": "string"
        },
        {
          "internalType": "string",
          "name": "briefId",
          "type": "string"
        }
      ],
      "name": "updateEdition",
      "outputs": [],
      "stateMutability": "nonpayable",
      "type": "function"
    },
    {
      "inputs": [
        {
          "internalType": "address",
          "name": "newImplementation",
          "type": "address"
        }
      ],
      "name": "upgradeTo",
      "outputs": [],
      "stateMutability": "nonpayable",
      "type": "function"
    },
    {
      "inputs": [
        {
          "internalType": "address",
          "name": "newImplementation",
          "type": "address"
        },
        {
          "internalType": "bytes",
          "name": "data",
          "type": "bytes"
        }
      ],
      "name": "upgradeToAndCall",
      "outputs": [],
      "stateMutability": "payable",
      "type": "function"
    },
    {
      "inputs": [
        {
          "internalType": "uint256",
          "name": "id",
          "type": "uint256"
        }
      ],
      "name": "uri",
      "outputs": [
        {
          "internalType": "string",
          "name": "",
          "type": "string"
        }
      ],
      "stateMutability": "view",
      "type": "function"
    },
    {
      "inputs": [
        {
          "internalType": "uint256",
          "name": "editionId",
          "type": "uint256"
        },
        {
          "internalType": "uint256",
          "name": "amount",
          "type": "uint256"
        }
      ],
      "name": "withdrawEditionBalance",
      "outputs": [],
      "stateMutability": "nonpayable",
      "type": "function"
    },
    {
      "inputs": [
        {
          "internalType": "uint256",
          "name": "amount",
          "type": "uint256"
        }
      ],
      "name": "withdrawFunds",
      "outputs": [],
      "stateMutability": "nonpayable",
      "type": "function"
    },
    {
      "stateMutability": "payable",
      "type": "receive"
    }
  ],
  "bytecode": "0x60a0604052306080523480156200001557600080fd5b506200002062000026565b620000e7565b600054610100900460ff1615620000935760405162461bcd60e51b815260206004820152602760248201527f496e697469616c697a61626c653a20636f6e747261637420697320696e697469604482015266616c697a696e6760c81b606482015260840160405180910390fd5b60005460ff90811614620000e5576000805460ff191660ff9081179091556040519081527f7f26b83ff96e1f2b6a682f133852f6798a09c465da95921460cefb38474024989060200160405180910390a15b565b608051614f996200011f60003960008181610eef01528181610f2f015281816111290152818161116901526111f80152614f996000f3fe6080604052600436106102ae5760003560e01c80637e1cb16011610166578063c6fbb712116100d3578063e8a3d4851161008f578063f242432a1161006c578063f242432a146108b2578063f5298aca146108d2578063f8c1b2fd146108f2578063fc74efa21461091257005b8063e8a3d48514610827578063e985e9c51461083c578063eb1d10031461088557005b8063c6fbb71214610761578063c84aae1714610778578063d547741f146107a5578063d667c9ce146107c5578063df6efc6c146107e5578063e43990fe1461080757005b8063a217fddf11610122578063a217fddf146106b0578063a22cb465146106c5578063b0e21e8a146106e5578063b3a44bd6146106fc578063b94967a41461071c578063bd85b0391461073357005b80637e1cb160146106135780638129fc1c146106335780638456cb591461064857806391d148541461065d578063940123da1461067d5780639e751ffc1461069057005b80633659cfe61161021c5780635c975abb116101d85780637357628c116101b55780637357628c146105a0578063787dce3d146105c0578063790bafc6146105e05780637cc74941146105f357005b80635c975abb146105515780636b20c454146105695780636b5cb7891461058957005b80633659cfe6146104975780633f4ba83a146104b75780634e1273f4146104cc5780634f1ef286146104f95780634f558e791461050c57806352d1902d1461053c57005b8063248a9ca31161026b578063248a9ca3146103a7578063279c806e146103d757806327e235e3146104095780632eb2c2d6146104375780632f2ff15d1461045757806336568abe1461047757005b8062fdd58e146102b757806301ffc9a7146102ea57806302fe53051461031a5780630a579eca1461033a5780630e89341c1461035a578063155dd5ee1461038757005b366102b557005b005b3480156102c357600080fd5b506102d76102d2366004613e04565b610932565b6040519081526020015b60405180910390f35b3480156102f657600080fd5b5061030a610305366004613e44565b6109cd565b60405190151581526020016102e1565b34801561032657600080fd5b506102b5610335366004613f16565b6109d8565b34801561034657600080fd5b506102b5610355366004613f4a565b610a0f565b34801561036657600080fd5b5061037a610375366004613f4a565b610af1565b6040516102e19190613fb3565b34801561039357600080fd5b506102b56103a2366004613f4a565b610b2c565b3480156103b357600080fd5b506102d76103c2366004613f4a565b60009081526097602052604090206001015490565b3480156103e357600080fd5b506103f76103f2366004613f4a565b610cb6565b6040516102e196959493929190613ffe565b34801561041557600080fd5b506102d7610424366004614057565b6101c96020526000908152604090205481565b34801561044357600080fd5b506102b5610452366004614106565b610e0c565b34801561046357600080fd5b506102b56104723660046141af565b610e51565b34801561048357600080fd5b506102b56104923660046141af565b610e6b565b3480156104a357600080fd5b506102b56104b2366004614057565b610ee5565b3480156104c357600080fd5b506102b5610fc4565b3480156104d857600080fd5b506104ec6104e73660046141db565b610ff6565b6040516102e191906142e0565b6102b56105073660046142f3565b61111f565b34801561051857600080fd5b5061030a610527366004613f4a565b600090815261012d6020526040902054151590565b34801561054857600080fd5b506102d76111eb565b34801561055d57600080fd5b5060c95460ff1661030a565b34801561057557600080fd5b506102b5610584366004614336565b61129f565b34801561059557600080fd5b506102d76101c65481565b3480156105ac57600080fd5b506102b56105bb366004613f4a565b6112e2565b3480156105cc57600080fd5b506102b56105db366004613f4a565b611383565b6102b56105ee3660046143a9565b611395565b3480156105ff57600080fd5b506102b561060e366004613f4a565b61152f565b34801561061f57600080fd5b506102b561062e366004613f4a565b611541565b34801561063f57600080fd5b506102b5611601565b34801561065457600080fd5b506102b56117cc565b34801561066957600080fd5b5061030a6106783660046141af565b6117fe565b6102b561068b3660046143d9565b611829565b34801561069c57600080fd5b506102b56106ab366004613f4a565b611916565b3480156106bc57600080fd5b506102d7600081565b3480156106d157600080fd5b506102b56106e0366004614439565b611928565b3480156106f157600080fd5b506102d76101c35481565b34801561070857600080fd5b506102d7610717366004614475565b611933565b34801561072857600080fd5b506102d76101ca5481565b34801561073f57600080fd5b506102d761074e366004613f4a565b600090815261012d602052604090205490565b34801561076d57600080fd5b506102d76101c55481565b34801561078457600080fd5b50610798610793366004614057565b611a8d565b6040516102e191906144d3565b3480156107b157600080fd5b506102b56107c03660046141af565b611bf7565b3480156107d157600080fd5b506102b56107e0366004614549565b611c1c565b3480156107f157600080fd5b506107fa611d5e565b6040516102e1919061456b565b34801561081357600080fd5b506102b561082236600461461f565b611fcd565b34801561083357600080fd5b5061037a612053565b34801561084857600080fd5b5061030a610857366004614681565b6001600160a01b03918216600090815260666020908152604080832093909416825291909152205460ff1690565b34801561089157600080fd5b506108a56108a0366004614057565b612073565b6040516102e191906146ab565b3480156108be57600080fd5b506102b56108cd3660046146f1565b612133565b3480156108de57600080fd5b506102b56108ed366004614755565b612178565b3480156108fe57600080fd5b506102b561090d366004613f4a565b6121bb565b34801561091e57600080fd5b506102b561092d366004613f4a565b612250565b60006001600160a01b0383166109a25760405162461bcd60e51b815260206004820152602a60248201527f455243313135353a2061646472657373207a65726f206973206e6f742061207660448201526930b634b21037bbb732b960b11b60648201526084015b60405180910390fd5b5060008181526065602090815260408083206001600160a01b03861684529091529020545b92915050565b60006109c78261232b565b7f7804d923f43a17d325d77e781528e0793b2edd9890ab45fc64efd7b4b427744c610a0281612350565b610a0b8261235a565b5050565b60008181526101c460205260409020600301546001600160a01b0316331480610a3e5750610a3e6000336117fe565b610a5b5760405163388f811f60e01b815260040160405180910390fd5b600260008281526101c4602052604090205460ff166003811115610a8157610a81613fc6565b14610a9f57604051631f0fb6fd60e11b815260040160405180910390fd5b60008181526101c46020908152604091829020805460ff1916600317905590518281527f591913f977ab242c5871f116f36be231ff67df5e8e0bac1efd91fa8a723aca2b91015b60405180910390a150565b6060610afc82612366565b610b05836123fa565b604051602001610b16929190614788565b6040516020818303038152906040529050919050565b6000610b3781612350565b47821115610b5857604051631036b5ad60e31b815260040160405180910390fd5b6000475b6101c554821015610bb95760008281526101c46020526040902060020154610b8490826147cd565b905083811015610ba75760405163156bbc5b60e01b815260040160405180910390fd5b81610bb1816147e0565b925050610b5c565b600091505b6101c854821015610c46576101c960006101c88481548110610be257610be26147f9565b60009182526020808320909101546001600160a01b03168352820192909252604001902054610c1190826147cd565b905083811015610c345760405163156bbc5b60e01b815260040160405180910390fd5b81610c3e816147e0565b925050610bbe565b604051600090339086908381818185875af1925050503d8060008114610c88576040519150601f19603f3d011682016040523d82523d6000602084013e610c8d565b606091505b5050905080610caf576040516317f2c34560e31b815260040160405180910390fd5b5050505050565b6101c4602052600090815260409020805460018201546002830154600384015460048501805460ff90951695939492936001600160a01b0390921692610cfb9061480f565b80601f0160208091040260200160405190810160405280929190818152602001828054610d279061480f565b8015610d745780601f10610d4957610100808354040283529160200191610d74565b820191906000526020600020905b815481529060010190602001808311610d5757829003601f168201915b505050505090806005018054610d899061480f565b80601f0160208091040260200160405190810160405280929190818152602001828054610db59061480f565b8015610e025780601f10610dd757610100808354040283529160200191610e02565b820191906000526020600020905b815481529060010190602001808311610de557829003601f168201915b5050505050905086565b6001600160a01b038516331480610e285750610e288533610857565b610e445760405162461bcd60e51b815260040161099990614843565b610caf858585858561248c565b6000610e5c81612350565b610e668383612639565b505050565b6001600160a01b0381163314610edb5760405162461bcd60e51b815260206004820152602f60248201527f416363657373436f6e74726f6c3a2063616e206f6e6c792072656e6f756e636560448201526e103937b632b9903337b91039b2b63360891b6064820152608401610999565b610a0b82826126bf565b6001600160a01b037f0000000000000000000000000000000000000000000000000000000000000000163003610f2d5760405162461bcd60e51b815260040161099990614891565b7f00000000000000000000000000000000000000000000000000000000000000006001600160a01b0316610f76600080516020614ef9833981519152546001600160a01b031690565b6001600160a01b031614610f9c5760405162461bcd60e51b8152600401610999906148dd565b610fa581612726565b60408051600080825260208201909252610fc191839190612750565b50565b7f65d7a28e3265b37a6474929f336521b332c1681b933f6cb9f3376673440d862a610fee81612350565b610fc16128bb565b6060815183511461105b5760405162461bcd60e51b815260206004820152602960248201527f455243313135353a206163636f756e747320616e6420696473206c656e677468604482015268040dad2e6dac2e8c6d60bb1b6064820152608401610999565b600083516001600160401b0381111561107657611076613e61565b60405190808252806020026020018201604052801561109f578160200160208202803683370190505b50905060005b8451811015611117576110ea8582815181106110c3576110c36147f9565b60200260200101518583815181106110dd576110dd6147f9565b6020026020010151610932565b8282815181106110fc576110fc6147f9565b6020908102919091010152611110816147e0565b90506110a5565b509392505050565b6001600160a01b037f00000000000000000000000000000000000000000000000000000000000000001630036111675760405162461bcd60e51b815260040161099990614891565b7f00000000000000000000000000000000000000000000000000000000000000006001600160a01b03166111b0600080516020614ef9833981519152546001600160a01b031690565b6001600160a01b0316146111d65760405162461bcd60e51b8152600401610999906148dd565b6111df82612726565b610a0b82826001612750565b6000306001600160a01b037f0000000000000000000000000000000000000000000000000000000000000000161461128b5760405162461bcd60e51b815260206004820152603860248201527f555550535570677261646561626c653a206d757374206e6f742062652063616c60448201527f6c6564207468726f7567682064656c656761746563616c6c00000000000000006064820152608401610999565b50600080516020614ef98339815191525b90565b6001600160a01b0383163314806112bb57506112bb8333610857565b6112d75760405162461bcd60e51b815260040161099990614843565b610e6683838361290d565b60006112ed81612350565b600160008381526101c4602052604090205460ff16600381111561131357611313613fc6565b146113315760405163137c9c1f60e31b815260040160405180910390fd5b60008281526101c46020908152604091829020805460ff1916600217905590518381527f8f4352ac8b4aefdd2333162306bbe09dd4f4ff6661e89ccc4e4dcced8794e8f7910160405180910390a15050565b600061138e81612350565b506101c355565b6101ca543410156113b957604051631036b5ad60e31b815260040160405180910390fd5b600260008381526101c4602052604090205460ff1660038111156113df576113df613fc6565b146113fd57604051631f0fb6fd60e11b815260040160405180910390fd5b61141134836101c5546101c46101c9612aae565b6000805b6101c85481101561147357336001600160a01b03166101c8828154811061143e5761143e6147f9565b6000918252602090912001546001600160a01b0316036114615760019150611473565b8061146b816147e0565b915050611415565b50806114bd576101c880546001810182556000919091527f8cdee82cb3ac6d59f1f417405a3eecf497b31f3d06d4c506f96deb67789f61e90180546001600160a01b031916331790555b3360009081526101c760209081526040808320600887901c845290915290208054600160ff86161b179055336001600160a01b0316837f710e220a47c8d9e50587c80fe509f5e762149ef672440eff70798204dd70f5eb846040516115229190613fb3565b60405180910390a3505050565b600061153a81612350565b506101c655565b3360009081526101c960205260409020548082111561157357604051631036b5ad60e31b815260040160405180910390fd5b3360009081526101c96020526040812080548492906115939084906147cd565b9091555050604051600090339084908381818185875af1925050503d80600081146115da576040519150601f19603f3d011682016040523d82523d6000602084013e6115df565b606091505b5050905080610e66576040516317f2c34560e31b815260040160405180910390fd5b600054610100900460ff16158080156116215750600054600160ff909116105b8061163b5750303b15801561163b575060005460ff166001145b61169e5760405162461bcd60e51b815260206004820152602e60248201527f496e697469616c697a61626c653a20636f6e747261637420697320616c72656160448201526d191e481a5b9a5d1a585b1a5e995960921b6064820152608401610999565b6000805460ff1916600117905580156116c1576000805461ff0019166101001790555b6116d960405180602001604052806000815250612e8a565b6116e1612eba565b6116e9612ee3565b6116f1612eba565b6116f9612eba565b611701612eba565b61170c600033612639565b6117367f7804d923f43a17d325d77e781528e0793b2edd9890ab45fc64efd7b4b427744c33612639565b6117607f65d7a28e3265b37a6474929f336521b332c1681b933f6cb9f3376673440d862a33612639565b61178a7f189ab7a9244df0848122154315af71fe140f3db0fe014031783b0946b8c9d2e333612639565b8015610fc1576000805461ff0019169055604051600181527f7f26b83ff96e1f2b6a682f133852f6798a09c465da95921460cefb384740249890602001610ae6565b7f65d7a28e3265b37a6474929f336521b332c1681b933f6cb9f3376673440d862a6117f681612350565b610fc1612f12565b60009182526097602090815260408084206001600160a01b0393909316845291905290205460ff1690565b600061183481612350565b600260008681526101c4602052604090205460ff16600381111561185a5761185a613fc6565b1461187857604051631f0fb6fd60e11b815260040160405180910390fd5b6101c35460008681526101c46020526040902060010154859161189a91614929565b6118a4919061493c565b3410156118c457604051631036b5ad60e31b815260040160405180910390fd5b6118d083868685612f4f565b6101c3546118de908561493c565b6118e890346147cd565b60008681526101c460205260408120600201805490919061190a908490614929565b90915550505050505050565b600061192181612350565b506101ca55565b610a0b338383613074565b60006101c65486111561195957604051630f0c4c5f60e41b815260040160405180910390fd5b506101c5546040805160c0810190915280600181526020808201899052600060408084018290526001600160a01b038a1660608501526080840188905260a09093018690528481526101c49091522081518154829060ff191660018360038111156119c6576119c6613fc6565b0217905550602082015160018201556040820151600282015560608201516003820180546001600160a01b0319166001600160a01b0390921691909117905560808201516004820190611a199082614999565b5060a08201516005820190611a2e9082614999565b50506101c5805491506000611a42836147e0565b91905055507f3deb71b5a6774038a220621d78241405004043d5a928de9c7956bcc5270416db81838888604051611a7c9493929190614a58565b60405180910390a195945050505050565b606060006101c5546001600160401b03811115611aac57611aac613e61565b604051908082528060200260200182016040528015611af257816020015b604080518082019091526060815260006020820152815260200190600190039081611aca5790505b50905060005b6101c554811015611bf05760405180604001604052806101c460008481526020019081526020016000206004018054611b309061480f565b80601f0160208091040260200160405190810160405280929190818152602001828054611b5c9061480f565b8015611ba95780601f10611b7e57610100808354040283529160200191611ba9565b820191906000526020600020905b815481529060010190602001808311611b8c57829003601f168201915b50505050508152602001611bbd8684610932565b815250828281518110611bd257611bd26147f9565b60200260200101819052508080611be8906147e0565b915050611af8565b5092915050565b600082815260976020526040902060010154611c1281612350565b610e6683836126bf565b60008281526101c460205260409020600301546001600160a01b03163314611c575760405163388f811f60e01b815260040160405180910390fd5b60008281526101c46020526040902060020154811115611c8a57604051637eafab7d60e01b815260040160405180910390fd5b604051600090339083908381818185875af1925050503d8060008114611ccc576040519150601f19603f3d011682016040523d82523d6000602084013e611cd1565b606091505b5050905080611cf3576040516317f2c34560e31b815260040160405180910390fd5b60008381526101c4602052604081206002018054849290611d159084906147cd565b90915550506040805184815260208101849052338183015290517ff1090e9d5138cd4909542e10e1da576730b07eb291a71a151e63160dde345b949181900360600190a1505050565b606060006101c5546001600160401b03811115611d7d57611d7d613e61565b604051908082528060200260200182016040528015611df157816020015b611dde6040805160c081019091528060008152602001600081526020016000815260200160006001600160a01b0316815260200160608152602001606081525090565b815260200190600190039081611d9b5790505b50905060005b6101c554811015611fc75760008181526101c4602052604090819020815160c081019092528054829060ff166003811115611e3457611e34613fc6565b6003811115611e4557611e45613fc6565b8152600182015460208201526002820154604082015260038201546001600160a01b03166060820152600482018054608090920191611e839061480f565b80601f0160208091040260200160405190810160405280929190818152602001828054611eaf9061480f565b8015611efc5780601f10611ed157610100808354040283529160200191611efc565b820191906000526020600020905b815481529060010190602001808311611edf57829003601f168201915b50505050508152602001600582018054611f159061480f565b80601f0160208091040260200160405190810160405280929190818152602001828054611f419061480f565b8015611f8e5780601f10611f6357610100808354040283529160200191611f8e565b820191906000526020600020905b815481529060010190602001808311611f7157829003601f168201915b505050505081525050828281518110611fa957611fa96147f9565b60200260200101819052508080611fbf906147e0565b915050611df7565b50919050565b6000611fd881612350565b60008481526101c4602052604081205460ff166003811115611ffc57611ffc613fc6565b0361201a5760405163137c9c1f60e31b815260040160405180910390fd5b60008481526101c4602052604090206004016120368482614999565b5060008481526101c460205260409020600501610caf8382614999565b6060604051806060016040528060248152602001614f4060249139905090565b606060006101c5546001600160401b0381111561209257612092613e61565b6040519080825280602002602001820160405280156120bb578160200160208202803683370190505b50905060005b6101c554811015611bf0576001600160a01b03841660009081526101c760209081526040808320600885901c8452909152902054600160ff83161b161515828281518110612111576121116147f9565b911515602092830291909101909101528061212b816147e0565b9150506120c1565b6001600160a01b03851633148061214f575061214f8533610857565b61216b5760405162461bcd60e51b815260040161099990614843565b610caf858585858561314c565b6001600160a01b03831633148061219457506121948333610857565b6121b05760405162461bcd60e51b815260040161099990614843565b610e66838383613288565b3360009081526101c760209081526040808320600885901c84529182905290912054600160ff84161b166122025760405163423f327760e11b815260040160405180910390fd5b600882901c6000908152602082905260408082208054600160ff87161b1916905551339184917fc6c1c3224e50c3c958e39197695bdfe8457ce7c0014d8d51a4d3aa12c5ac18489190a35050565b60008181526101c460205260409020600301546001600160a01b031633148061227f575061227f6000336117fe565b61229c5760405163388f811f60e01b815260040160405180910390fd5b600360008281526101c4602052604090205460ff1660038111156122c2576122c2613fc6565b146122e05760405163968807a560e01b815260040160405180910390fd5b60008181526101c46020908152604091829020805460ff1916600217905590518281527f63bb17c9645a29322601b4fe88d8f3fa84f32229368294f903084be8f5d813ba9101610ae6565b60006001600160e01b03198216637965db0b60e01b14806109c757506109c7826133a4565b610fc181336133f4565b6067610a0b8282614999565b6060606780546123759061480f565b80601f01602080910402602001604051908101604052809291908181526020018280546123a19061480f565b80156123ee5780601f106123c3576101008083540402835291602001916123ee565b820191906000526020600020905b8154815290600101906020018083116123d157829003601f168201915b50505050509050919050565b606060006124078361344d565b60010190506000816001600160401b0381111561242657612426613e61565b6040519080825280601f01601f191660200182016040528015612450576020820181803683370190505b5090508181016020015b600019016f181899199a1a9b1b9c1cb0b131b232b360811b600a86061a8153600a850494508461245a57509392505050565b81518351146124ad5760405162461bcd60e51b815260040161099990614a92565b6001600160a01b0384166124d35760405162461bcd60e51b815260040161099990614ada565b336124e2818787878787613525565b60005b84518110156125cb576000858281518110612502576125026147f9565b602002602001015190506000858381518110612520576125206147f9565b60209081029190910181015160008481526065835260408082206001600160a01b038e1683529093529190912054909150818110156125715760405162461bcd60e51b815260040161099990614b1f565b60008381526065602090815260408083206001600160a01b038e8116855292528083208585039055908b168252812080548492906125b0908490614929565b92505081905550505050806125c4906147e0565b90506124e5565b50846001600160a01b0316866001600160a01b0316826001600160a01b03167f4a39dc06d4c0dbc64b70af90fd698a233a518aa5d07e595d983b8c0526c8f7fb878760405161261b929190614b69565b60405180910390a461263181878787878761353b565b505050505050565b61264382826117fe565b610a0b5760008281526097602090815260408083206001600160a01b03851684529091529020805460ff1916600117905561267b3390565b6001600160a01b0316816001600160a01b0316837f2f8788117e7eff1d82e926ec794901d17c78024a50270940304540a733656f0d60405160405180910390a45050565b6126c982826117fe565b15610a0b5760008281526097602090815260408083206001600160a01b0385168085529252808320805460ff1916905551339285917ff6391f5c32d9c69d2a47ea670b442974b53935d1edc7fd64eb21e047a839171b9190a45050565b7f189ab7a9244df0848122154315af71fe140f3db0fe014031783b0946b8c9d2e3610a0b81612350565b7f4910fdfa16fed3260ed0e7147f7cc6da11a60208b5b9406d12a635614ffd91435460ff161561278357610e6683613696565b826001600160a01b03166352d1902d6040518163ffffffff1660e01b8152600401602060405180830381865afa9250505080156127dd575060408051601f3d908101601f191682019092526127da91810190614b97565b60015b6128405760405162461bcd60e51b815260206004820152602e60248201527f45524331393637557067726164653a206e657720696d706c656d656e7461746960448201526d6f6e206973206e6f74205555505360901b6064820152608401610999565b600080516020614ef983398151915281146128af5760405162461bcd60e51b815260206004820152602960248201527f45524331393637557067726164653a20756e737570706f727465642070726f786044820152681a58589b195555525160ba1b6064820152608401610999565b50610e66838383613732565b6128c3613757565b60c9805460ff191690557f5db9ee0a495bf2e6ff9c91a7834c1ba4fdd244a5e8aa4e537bd38aeae4b073aa335b6040516001600160a01b03909116815260200160405180910390a1565b6001600160a01b0383166129335760405162461bcd60e51b815260040161099990614bb0565b80518251146129545760405162461bcd60e51b815260040161099990614a92565b600033905061297781856000868660405180602001604052806000815250613525565b60005b8351811015612a3f576000848281518110612997576129976147f9565b6020026020010151905060008483815181106129b5576129b56147f9565b60209081029190910181015160008481526065835260408082206001600160a01b038c168352909352919091205490915081811015612a065760405162461bcd60e51b815260040161099990614bf3565b60009283526065602090815260408085206001600160a01b038b1686529091529092209103905580612a37816147e0565b91505061297a565b5060006001600160a01b0316846001600160a01b0316826001600160a01b03167f4a39dc06d4c0dbc64b70af90fd698a233a518aa5d07e595d983b8c0526c8f7fb8686604051612a90929190614b69565b60405180910390a46040805160208101909152600090525b50505050565b6000612abb600287614c37565b90506000612aca600588614c37565b9050818460008881526020019081526020016000206002016000828254612af19190614929565b909155505060008681526020859052604081206005018054612b129061480f565b80601f0160208091040260200160405190810160405280929190818152602001828054612b3e9061480f565b8015612b8b5780601f10612b6057610100808354040283529160200191612b8b565b820191906000526020600020905b815481529060010190602001808311612b6e57829003601f168201915b505050505090506000866001600160401b03811115612bac57612bac613e61565b604051908082528060200260200182016040528015612bd5578160200160208202803683370190505b5090506000805b88811015612df557808a14612de357600081815260208990526040808220815160c081019092528054829060ff166003811115612c1b57612c1b613fc6565b6003811115612c2c57612c2c613fc6565b8152600182015460208201526002820154604082015260038201546001600160a01b03166060820152600482018054608090920191612c6a9061480f565b80601f0160208091040260200160405190810160405280929190818152602001828054612c969061480f565b8015612ce35780601f10612cb857610100808354040283529160200191612ce3565b820191906000526020600020905b815481529060010190602001808311612cc657829003601f168201915b50505050508152602001600582018054612cfc9061480f565b80601f0160208091040260200160405190810160405280929190818152602001828054612d289061480f565b8015612d755780601f10612d4a57610100808354040283529160200191612d75565b820191906000526020600020905b815481529060010190602001808311612d5857829003601f168201915b5050505050815250509050612d9f8160a00151868051602091820120825192909101919091201490565b15612de1578060600151848481518110612dbb57612dbb6147f9565b6001600160a01b0390921660209283029190910190910152612dde600184614929565b92505b505b80612ded816147e0565b915050612bdc565b8115612e7d576000612e078387614c37565b9050600091505b82821015612e7b5780886000868581518110612e2c57612e2c6147f9565b60200260200101516001600160a01b03166001600160a01b031681526020019081526020016000206000828254612e639190614929565b90915550829050612e73816147e0565b925050612e0e565b505b5050505050505050505050565b600054610100900460ff16612eb15760405162461bcd60e51b815260040161099990614c59565b610fc1816137a0565b600054610100900460ff16612ee15760405162461bcd60e51b815260040161099990614c59565b565b600054610100900460ff16612f0a5760405162461bcd60e51b815260040161099990614c59565b612ee16137d0565b612f1a613803565b60c9805460ff191660011790557f62e78cea01bee320cd4e420270b5ea74000d11b0c9f74754ebdbfc544b05a2586128f03390565b6001600160a01b038416612faf5760405162461bcd60e51b815260206004820152602160248201527f455243313135353a206d696e7420746f20746865207a65726f206164647265736044820152607360f81b6064820152608401610999565b336000612fbb85613849565b90506000612fc885613849565b9050612fd983600089858589613525565b60008681526065602090815260408083206001600160a01b038b1684529091528120805487929061300b908490614929565b909155505060408051878152602081018790526001600160a01b03808a1692600092918716917fc3d58168c5ae7397731d063d5bbf3d657854427343f4c083240f7aacaa2d0f62910160405180910390a461306b83600089898989613894565b50505050505050565b816001600160a01b0316836001600160a01b0316036130e75760405162461bcd60e51b815260206004820152602960248201527f455243313135353a2073657474696e6720617070726f76616c20737461747573604482015268103337b91039b2b63360b91b6064820152608401610999565b6001600160a01b03838116600081815260666020908152604080832094871680845294825291829020805460ff191686151590811790915591519182527f17307eab39ab6107e8899845ad3d59bd9653f200f220920489ca2b5937696c319101611522565b6001600160a01b0384166131725760405162461bcd60e51b815260040161099990614ada565b33600061317e85613849565b9050600061318b85613849565b905061319b838989858589613525565b60008681526065602090815260408083206001600160a01b038c168452909152902054858110156131de5760405162461bcd60e51b815260040161099990614b1f565b60008781526065602090815260408083206001600160a01b038d8116855292528083208985039055908a1682528120805488929061321d908490614929565b909155505060408051888152602081018890526001600160a01b03808b16928c821692918816917fc3d58168c5ae7397731d063d5bbf3d657854427343f4c083240f7aacaa2d0f62910160405180910390a461327d848a8a8a8a8a613894565b505050505050505050565b6001600160a01b0383166132ae5760405162461bcd60e51b815260040161099990614bb0565b3360006132ba84613849565b905060006132c784613849565b90506132e783876000858560405180602001604052806000815250613525565b60008581526065602090815260408083206001600160a01b038a1684529091529020548481101561332a5760405162461bcd60e51b815260040161099990614bf3565b60008681526065602090815260408083206001600160a01b038b81168086529184528285208a8703905582518b81529384018a90529092908816917fc3d58168c5ae7397731d063d5bbf3d657854427343f4c083240f7aacaa2d0f62910160405180910390a460408051602081019091526000905261306b565b60006001600160e01b03198216636cdb3d1360e11b14806133d557506001600160e01b031982166303a24d0760e21b145b806109c757506301ffc9a760e01b6001600160e01b03198316146109c7565b6133fe82826117fe565b610a0b5761340b8161394f565b613416836020613961565b604051602001613427929190614ca4565b60408051601f198184030181529082905262461bcd60e51b825261099991600401613fb3565b60008072184f03e93ff9f4daa797ed6e38ed64bf6a1f0160401b831061348c5772184f03e93ff9f4daa797ed6e38ed64bf6a1f0160401b830492506040015b6d04ee2d6d415b85acef810000000083106134b8576d04ee2d6d415b85acef8100000000830492506020015b662386f26fc1000083106134d657662386f26fc10000830492506010015b6305f5e10083106134ee576305f5e100830492506008015b612710831061350257612710830492506004015b60648310613514576064830492506002015b600a83106109c75760010192915050565b61352d613803565b612631868686868686613b03565b6001600160a01b0384163b156126315760405163bc197c8160e01b81526001600160a01b0385169063bc197c819061357f9089908990889088908890600401614d19565b6020604051808303816000875af19250505080156135ba575060408051601f3d908101601f191682019092526135b791810190614d77565b60015b613666576135c6614d94565b806308c379a0036135ff57506135da614daf565b806135e55750613601565b8060405162461bcd60e51b81526004016109999190613fb3565b505b60405162461bcd60e51b815260206004820152603460248201527f455243313135353a207472616e7366657220746f206e6f6e2d455243313135356044820152732932b1b2b4bb32b91034b6b83632b6b2b73a32b960611b6064820152608401610999565b6001600160e01b0319811663bc197c8160e01b1461306b5760405162461bcd60e51b815260040161099990614e38565b6001600160a01b0381163b6137035760405162461bcd60e51b815260206004820152602d60248201527f455243313936373a206e657720696d706c656d656e746174696f6e206973206e60448201526c1bdd08184818dbdb9d1c9858dd609a1b6064820152608401610999565b600080516020614ef983398151915280546001600160a01b0319166001600160a01b0392909216919091179055565b61373b83613c7f565b6000825111806137485750805b15610e6657612aa88383613cbf565b60c95460ff16612ee15760405162461bcd60e51b815260206004820152601460248201527314185d5cd8589b194e881b9bdd081c185d5cd95960621b6044820152606401610999565b600054610100900460ff166137c75760405162461bcd60e51b815260040161099990614c59565b610fc18161235a565b600054610100900460ff166137f75760405162461bcd60e51b815260040161099990614c59565b60c9805460ff19169055565b60c95460ff1615612ee15760405162461bcd60e51b815260206004820152601060248201526f14185d5cd8589b194e881c185d5cd95960821b6044820152606401610999565b60408051600180825281830190925260609160009190602080830190803683370190505090508281600081518110613883576138836147f9565b602090810291909101015292915050565b6001600160a01b0384163b156126315760405163f23a6e6160e01b81526001600160a01b0385169063f23a6e61906138d89089908990889088908890600401614e80565b6020604051808303816000875af1925050508015613913575060408051601f3d908101601f1916820190925261391091810190614d77565b60015b61391f576135c6614d94565b6001600160e01b0319811663f23a6e6160e01b1461306b5760405162461bcd60e51b815260040161099990614e38565b60606109c76001600160a01b03831660145b6060600061397083600261493c565b61397b906002614929565b6001600160401b0381111561399257613992613e61565b6040519080825280601f01601f1916602001820160405280156139bc576020820181803683370190505b509050600360fc1b816000815181106139d7576139d76147f9565b60200101906001600160f81b031916908160001a905350600f60fb1b81600181518110613a0657613a066147f9565b60200101906001600160f81b031916908160001a9053506000613a2a84600261493c565b613a35906001614929565b90505b6001811115613aad576f181899199a1a9b1b9c1cb0b131b232b360811b85600f1660108110613a6957613a696147f9565b1a60f81b828281518110613a7f57613a7f6147f9565b60200101906001600160f81b031916908160001a90535060049490941c93613aa681614ec5565b9050613a38565b508315613afc5760405162461bcd60e51b815260206004820181905260248201527f537472696e67733a20686578206c656e67746820696e73756666696369656e746044820152606401610999565b9392505050565b6001600160a01b038516613b8b5760005b8351811015613b8957828181518110613b2f57613b2f6147f9565b602002602001015161012d6000868481518110613b4e57613b4e6147f9565b602002602001015181526020019081526020016000206000828254613b739190614929565b90915550613b829050816147e0565b9050613b14565b505b6001600160a01b0384166126315760005b835181101561306b576000848281518110613bb957613bb96147f9565b602002602001015190506000848381518110613bd757613bd76147f9565b60200260200101519050600061012d600084815260200190815260200160002054905081811015613c5b5760405162461bcd60e51b815260206004820152602860248201527f455243313135353a206275726e20616d6f756e74206578636565647320746f74604482015267616c537570706c7960c01b6064820152608401610999565b600092835261012d602052604090922091039055613c78816147e0565b9050613b9c565b613c8881613696565b6040516001600160a01b038216907fbc7cd75a20ee27fd9adebab32041f755214dbc6bffa90cc0225b39da2e5c2d3b90600090a250565b6060613afc8383604051806060016040528060278152602001614f19602791396060600080856001600160a01b031685604051613cfc9190614edc565b600060405180830381855af49150503d8060008114613d37576040519150601f19603f3d011682016040523d82523d6000602084013e613d3c565b606091505b5091509150613d4d86838387613d57565b9695505050505050565b60608315613dc6578251600003613dbf576001600160a01b0385163b613dbf5760405162461bcd60e51b815260206004820152601d60248201527f416464726573733a2063616c6c20746f206e6f6e2d636f6e74726163740000006044820152606401610999565b5081613dd0565b613dd08383613dd8565b949350505050565b8151156135e55781518083602001fd5b80356001600160a01b0381168114613dff57600080fd5b919050565b60008060408385031215613e1757600080fd5b613e2083613de8565b946020939093013593505050565b6001600160e01b031981168114610fc157600080fd5b600060208284031215613e5657600080fd5b8135613afc81613e2e565b634e487b7160e01b600052604160045260246000fd5b601f8201601f191681016001600160401b0381118282101715613e9c57613e9c613e61565b6040525050565b600082601f830112613eb457600080fd5b81356001600160401b03811115613ecd57613ecd613e61565b604051613ee4601f8301601f191660200182613e77565b818152846020838601011115613ef957600080fd5b816020850160208301376000918101602001919091529392505050565b600060208284031215613f2857600080fd5b81356001600160401b03811115613f3e57600080fd5b613dd084828501613ea3565b600060208284031215613f5c57600080fd5b5035919050565b60005b83811015613f7e578181015183820152602001613f66565b50506000910152565b60008151808452613f9f816020860160208601613f63565b601f01601f19169290920160200192915050565b602081526000613afc6020830184613f87565b634e487b7160e01b600052602160045260246000fd5b60048110613ffa57634e487b7160e01b600052602160045260246000fd5b9052565b6140088188613fdc565b85602082015284604082015260018060a01b038416606082015260c06080820152600061403860c0830185613f87565b82810360a084015261404a8185613f87565b9998505050505050505050565b60006020828403121561406957600080fd5b613afc82613de8565b60006001600160401b0382111561408b5761408b613e61565b5060051b60200190565b600082601f8301126140a657600080fd5b813560206140b382614072565b6040516140c08282613e77565b83815260059390931b85018201928281019150868411156140e057600080fd5b8286015b848110156140fb57803583529183019183016140e4565b509695505050505050565b600080600080600060a0868803121561411e57600080fd5b61412786613de8565b945061413560208701613de8565b935060408601356001600160401b038082111561415157600080fd5b61415d89838a01614095565b9450606088013591508082111561417357600080fd5b61417f89838a01614095565b9350608088013591508082111561419557600080fd5b506141a288828901613ea3565b9150509295509295909350565b600080604083850312156141c257600080fd5b823591506141d260208401613de8565b90509250929050565b600080604083850312156141ee57600080fd5b82356001600160401b038082111561420557600080fd5b818501915085601f83011261421957600080fd5b8135602061422682614072565b6040516142338282613e77565b83815260059390931b850182019282810191508984111561425357600080fd5b948201945b838610156142785761426986613de8565b82529482019490820190614258565b9650508601359250508082111561428e57600080fd5b5061429b85828601614095565b9150509250929050565b600081518084526020808501945080840160005b838110156142d5578151875295820195908201906001016142b9565b509495945050505050565b602081526000613afc60208301846142a5565b6000806040838503121561430657600080fd5b61430f83613de8565b915060208301356001600160401b0381111561432a57600080fd5b61429b85828601613ea3565b60008060006060848603121561434b57600080fd5b61435484613de8565b925060208401356001600160401b038082111561437057600080fd5b61437c87838801614095565b9350604086013591508082111561439257600080fd5b5061439f86828701614095565b9150509250925092565b600080604083850312156143bc57600080fd5b8235915060208301356001600160401b0381111561432a57600080fd5b600080600080608085870312156143ef57600080fd5b843593506020850135925061440660408601613de8565b915060608501356001600160401b0381111561442157600080fd5b61442d87828801613ea3565b91505092959194509250565b6000806040838503121561444c57600080fd5b61445583613de8565b91506020830135801515811461446a57600080fd5b809150509250929050565b600080600080600060a0868803121561448d57600080fd5b8535945061449d60208701613de8565b93506144ab60408701613de8565b925060608601356001600160401b03808211156144c757600080fd5b61417f89838a01613ea3565b60006020808301818452808551808352604092508286019150828160051b87010184880160005b8381101561453b57888303603f190185528151805187855261451e88860182613f87565b9189015194890194909452948701949250908601906001016144fa565b509098975050505050505050565b6000806040838503121561455c57600080fd5b50508035926020909101359150565b60006020808301818452808551808352604092508286019150828160051b87010184880160005b8381101561453b57603f19898403018552815160c06145b2858351613fdc565b81890151858a015287820151888601526060808301516001600160a01b0316908601526080808301518187018390526145ed83880182613f87565b9250505060a0808301519250858203818701525061460b8183613f87565b968901969450505090860190600101614592565b60008060006060848603121561463457600080fd5b8335925060208401356001600160401b038082111561465257600080fd5b61465e87838801613ea3565b9350604086013591508082111561467457600080fd5b5061439f86828701613ea3565b6000806040838503121561469457600080fd5b61469d83613de8565b91506141d260208401613de8565b6020808252825182820181905260009190848201906040850190845b818110156146e55783511515835292840192918401916001016146c7565b50909695505050505050565b600080600080600060a0868803121561470957600080fd5b61471286613de8565b945061472060208701613de8565b9350604086013592506060860135915060808601356001600160401b0381111561474957600080fd5b6141a288828901613ea3565b60008060006060848603121561476a57600080fd5b61477384613de8565b95602085013595506040909401359392505050565b6000835161479a818460208801613f63565b8351908301906147ae818360208801613f63565b01949350505050565b634e487b7160e01b600052601160045260246000fd5b818103818111156109c7576109c76147b7565b6000600182016147f2576147f26147b7565b5060010190565b634e487b7160e01b600052603260045260246000fd5b600181811c9082168061482357607f821691505b602082108103611fc757634e487b7160e01b600052602260045260246000fd5b6020808252602e908201527f455243313135353a2063616c6c6572206973206e6f7420746f6b656e206f776e60408201526d195c881bdc88185c1c1c9bdd995960921b606082015260800190565b6020808252602c908201527f46756e6374696f6e206d7573742062652063616c6c6564207468726f7567682060408201526b19195b1959d85d1958d85b1b60a21b606082015260800190565b6020808252602c908201527f46756e6374696f6e206d7573742062652063616c6c6564207468726f7567682060408201526b6163746976652070726f787960a01b606082015260800190565b808201808211156109c7576109c76147b7565b80820281158282048414176109c7576109c76147b7565b601f821115610e6657600081815260208120601f850160051c8101602086101561497a5750805b601f850160051c820191505b8181101561263157828155600101614986565b81516001600160401b038111156149b2576149b2613e61565b6149c6816149c0845461480f565b84614953565b602080601f8311600181146149fb57600084156149e35750858301515b600019600386901b1c1916600185901b178555612631565b600085815260208120601f198616915b82811015614a2a57888601518255948401946001909101908401614a0b565b5085821015614a485787850151600019600388901b60f8161c191681555b5050505050600190811b01905550565b848152608060208201526000614a716080830186613f87565b6040830194909452506001600160a01b039190911660609091015292915050565b60208082526028908201527f455243313135353a2069647320616e6420616d6f756e7473206c656e677468206040820152670dad2e6dac2e8c6d60c31b606082015260800190565b60208082526025908201527f455243313135353a207472616e7366657220746f20746865207a65726f206164604082015264647265737360d81b606082015260800190565b6020808252602a908201527f455243313135353a20696e73756666696369656e742062616c616e636520666f60408201526939103a3930b739b332b960b11b606082015260800190565b604081526000614b7c60408301856142a5565b8281036020840152614b8e81856142a5565b95945050505050565b600060208284031215614ba957600080fd5b5051919050565b60208082526023908201527f455243313135353a206275726e2066726f6d20746865207a65726f206164647260408201526265737360e81b606082015260800190565b60208082526024908201527f455243313135353a206275726e20616d6f756e7420657863656564732062616c604082015263616e636560e01b606082015260800190565b600082614c5457634e487b7160e01b600052601260045260246000fd5b500490565b6020808252602b908201527f496e697469616c697a61626c653a20636f6e7472616374206973206e6f74206960408201526a6e697469616c697a696e6760a81b606082015260800190565b7f416363657373436f6e74726f6c3a206163636f756e7420000000000000000000815260008351614cdc816017850160208801613f63565b7001034b99036b4b9b9b4b733903937b6329607d1b6017918401918201528351614d0d816028840160208801613f63565b01602801949350505050565b6001600160a01b0386811682528516602082015260a060408201819052600090614d45908301866142a5565b8281036060840152614d5781866142a5565b90508281036080840152614d6b8185613f87565b98975050505050505050565b600060208284031215614d8957600080fd5b8151613afc81613e2e565b600060033d111561129c5760046000803e5060005160e01c90565b600060443d1015614dbd5790565b6040516003193d81016004833e81513d6001600160401b038160248401118184111715614dec57505050505090565b8285019150815181811115614e045750505050505090565b843d8701016020828501011115614e1e5750505050505090565b614e2d60208286010187613e77565b509095945050505050565b60208082526028908201527f455243313135353a204552433131353552656365697665722072656a656374656040820152676420746f6b656e7360c01b606082015260800190565b6001600160a01b03868116825285166020820152604081018490526060810183905260a060808201819052600090614eba90830184613f87565b979650505050505050565b600081614ed457614ed46147b7565b506000190190565b60008251614eee818460208701613f63565b919091019291505056fe360894a13ba1a3210667c828492db98dca3e2076cc3735a920a3ca505d382bbc416464726573733a206c6f772d6c6576656c2064656c65676174652063616c6c206661696c656468747470733a2f2f72616461726c61756e63682e6170702f6170692f6d65746164617461a2646970667358221220fd6a87e84a70864e9e0c15292ea2119787cc886bdce1d612867c0c7a097362d864736f6c63430008130033",
  "linkReferences": {},
  "deployedLinkReferences": {}
}