{
  "_format": "hh-sol-artifact-1",
  "contractName": "RadarEditions",
  "sourceName": "src/RadarEditions.sol",
  "abi": [
    {
      "inputs": [],
      "name": "EditionFeeExceedsMaximumFee",
      "type": "error"
    },
    {
      "inputs": [],
      "name": "EditionNotCreated",
      "type": "error"
    },
    {
      "inputs": [],
      "name": "EditionNotEnoughBalance",
      "type": "error"
    },
    {
      "inputs": [],
      "name": "EditionNotLaunched",
      "type": "error"
    },
    {
      "inputs": [],
      "name": "EditionNotStopped",
      "type": "error"
    },
    {
      "inputs": [],
      "name": "NotCorrectUser",
      "type": "error"
    },
    {
      "inputs": [],
      "name": "NotEditionOwner",
      "type": "error"
    },
    {
      "inputs": [],
      "name": "NotEnoughFees",
      "type": "error"
    },
    {
      "inputs": [],
      "name": "NotEnoughFunds",
      "type": "error"
    },
    {
      "inputs": [],
      "name": "TransactionFailed",
      "type": "error"
    },
    {
      "anonymous": false,
      "inputs": [
        {
          "indexed": false,
          "internalType": "address",
          "name": "previousAdmin",
          "type": "address"
        },
        {
          "indexed": false,
          "internalType": "address",
          "name": "newAdmin",
          "type": "address"
        }
      ],
      "name": "AdminChanged",
      "type": "event"
    },
    {
      "anonymous": false,
      "inputs": [
        {
          "indexed": true,
          "internalType": "address",
          "name": "account",
          "type": "address"
        },
        {
          "indexed": true,
          "internalType": "address",
          "name": "operator",
          "type": "address"
        },
        {
          "indexed": false,
          "internalType": "bool",
          "name": "approved",
          "type": "bool"
        }
      ],
      "name": "ApprovalForAll",
      "type": "event"
    },
    {
      "anonymous": false,
      "inputs": [
        {
          "indexed": true,
          "internalType": "address",
          "name": "beacon",
          "type": "address"
        }
      ],
      "name": "BeaconUpgraded",
      "type": "event"
    },
    {
      "anonymous": false,
      "inputs": [
        {
          "indexed": false,
          "internalType": "uint256",
          "name": "editionId",
          "type": "uint256"
        }
      ],
      "name": "EditionApproved",
      "type": "event"
    },
    {
      "anonymous": false,
      "inputs": [
        {
          "indexed": false,
          "internalType": "uint256",
          "name": "editionId",
          "type": "uint256"
        },
        {
          "indexed": false,
          "internalType": "uint256",
          "name": "amount",
          "type": "uint256"
        },
        {
          "indexed": false,
          "internalType": "address",
          "name": "owner",
          "type": "address"
        }
      ],
      "name": "EditionBalanceWithdrawn",
      "type": "event"
    },
    {
      "anonymous": false,
      "inputs": [
        {
          "indexed": true,
          "internalType": "uint256",
          "name": "editionId",
          "type": "uint256"
        },
        {
          "indexed": true,
          "internalType": "address",
          "name": "believer",
          "type": "address"
        }
      ],
      "name": "EditionBeliefRemoved",
      "type": "event"
    },
    {
      "anonymous": false,
      "inputs": [
        {
          "indexed": true,
          "internalType": "uint256",
          "name": "editionId",
          "type": "uint256"
        },
        {
          "indexed": true,
          "internalType": "address",
          "name": "believer",
          "type": "address"
        },
        {
          "indexed": false,
          "internalType": "string",
          "name": "tags",
          "type": "string"
        }
      ],
      "name": "EditionBelieved",
      "type": "event"
    },
    {
      "anonymous": false,
      "inputs": [
        {
          "indexed": false,
          "internalType": "uint256",
          "name": "editionId",
          "type": "uint256"
        },
        {
          "indexed": false,
          "internalType": "string",
          "name": "briefId",
          "type": "string"
        },
        {
          "indexed": false,
          "internalType": "uint256",
          "name": "fee",
          "type": "uint256"
        },
        {
          "indexed": false,
          "internalType": "address",
          "name": "owner",
          "type": "address"
        }
      ],
      "name": "EditionCreated",
      "type": "event"
    },
    {
      "anonymous": false,
      "inputs": [
        {
          "indexed": false,
          "internalType": "uint256",
          "name": "editionId",
          "type": "uint256"
        }
      ],
      "name": "EditionResumed",
      "type": "event"
    },
    {
      "anonymous": false,
      "inputs": [
        {
          "indexed": false,
          "internalType": "uint256",
          "name": "editionId",
          "type": "uint256"
        }
      ],
      "name": "EditionStopped",
      "type": "event"
    },
    {
      "anonymous": false,
      "inputs": [
        {
          "indexed": false,
          "internalType": "uint8",
          "name": "version",
          "type": "uint8"
        }
      ],
      "name": "Initialized",
      "type": "event"
    },
    {
      "anonymous": false,
      "inputs": [
        {
          "indexed": false,
          "internalType": "address",
          "name": "account",
          "type": "address"
        }
      ],
      "name": "Paused",
      "type": "event"
    },
    {
      "anonymous": false,
      "inputs": [
        {
          "indexed": true,
          "internalType": "bytes32",
          "name": "role",
          "type": "bytes32"
        },
        {
          "indexed": true,
          "internalType": "bytes32",
          "name": "previousAdminRole",
          "type": "bytes32"
        },
        {
          "indexed": true,
          "internalType": "bytes32",
          "name": "newAdminRole",
          "type": "bytes32"
        }
      ],
      "name": "RoleAdminChanged",
      "type": "event"
    },
    {
      "anonymous": false,
      "inputs": [
        {
          "indexed": true,
          "internalType": "bytes32",
          "name": "role",
          "type": "bytes32"
        },
        {
          "indexed": true,
          "internalType": "address",
          "name": "account",
          "type": "address"
        },
        {
          "indexed": true,
          "internalType": "address",
          "name": "sender",
          "type": "address"
        }
      ],
      "name": "RoleGranted",
      "type": "event"
    },
    {
      "anonymous": false,
      "inputs": [
        {
          "indexed": true,
          "internalType": "bytes32",
          "name": "role",
          "type": "bytes32"
        },
        {
          "indexed": true,
          "internalType": "address",
          "name": "account",
          "type": "address"
        },
        {
          "indexed": true,
          "internalType": "address",
          "name": "sender",
          "type": "address"
        }
      ],
      "name": "RoleRevoked",
      "type": "event"
    },
    {
      "anonymous": false,
      "inputs": [
        {
          "indexed": true,
          "internalType": "address",
          "name": "operator",
          "type": "address"
        },
        {
          "indexed": true,
          "internalType": "address",
          "name": "from",
          "type": "address"
        },
        {
          "indexed": true,
          "internalType": "address",
          "name": "to",
          "type": "address"
        },
        {
          "indexed": false,
          "internalType": "uint256[]",
          "name": "ids",
          "type": "uint256[]"
        },
        {
          "indexed": false,
          "internalType": "uint256[]",
          "name": "values",
          "type": "uint256[]"
        }
      ],
      "name": "TransferBatch",
      "type": "event"
    },
    {
      "anonymous": false,
      "inputs": [
        {
          "indexed": true,
          "internalType": "address",
          "name": "operator",
          "type": "address"
        },
        {
          "indexed": true,
          "internalType": "address",
          "name": "from",
          "type": "address"
        },
        {
          "indexed": true,
          "internalType": "address",
          "name": "to",
          "type": "address"
        },
        {
          "indexed": false,
          "internalType": "uint256",
          "name": "id",
          "type": "uint256"
        },
        {
          "indexed": false,
          "internalType": "uint256",
          "name": "value",
          "type": "uint256"
        }
      ],
      "name": "TransferSingle",
      "type": "event"
    },
    {
      "anonymous": false,
      "inputs": [
        {
          "indexed": false,
          "internalType": "string",
          "name": "value",
          "type": "string"
        },
        {
          "indexed": true,
          "internalType": "uint256",
          "name": "id",
          "type": "uint256"
        }
      ],
      "name": "URI",
      "type": "event"
    },
    {
      "anonymous": false,
      "inputs": [
        {
          "indexed": false,
          "internalType": "address",
          "name": "account",
          "type": "address"
        }
      ],
      "name": "Unpaused",
      "type": "event"
    },
    {
      "anonymous": false,
      "inputs": [
        {
          "indexed": true,
          "internalType": "address",
          "name": "implementation",
          "type": "address"
        }
      ],
      "name": "Upgraded",
      "type": "event"
    },
    {
      "stateMutability": "payable",
      "type": "fallback"
    },
    {
      "inputs": [],
      "name": "DEFAULT_ADMIN_ROLE",
      "outputs": [
        {
          "internalType": "bytes32",
          "name": "",
          "type": "bytes32"
        }
      ],
      "stateMutability": "view",
      "type": "function"
    },
    {
      "inputs": [
        {
          "internalType": "uint256",
          "name": "editionId",
          "type": "uint256"
        }
      ],
      "name": "approveEdition",
      "outputs": [],
      "stateMutability": "nonpayable",
      "type": "function"
    },
    {
      "inputs": [
        {
          "internalType": "address",
          "name": "account",
          "type": "address"
        },
        {
          "internalType": "uint256",
          "name": "id",
          "type": "uint256"
        }
      ],
      "name": "balanceOf",
      "outputs": [
        {
          "internalType": "uint256",
          "name": "",
          "type": "uint256"
        }
      ],
      "stateMutability": "view",
      "type": "function"
    },
    {
      "inputs": [
        {
          "internalType": "address[]",
          "name": "accounts",
          "type": "address[]"
        },
        {
          "internalType": "uint256[]",
          "name": "ids",
          "type": "uint256[]"
        }
      ],
      "name": "balanceOfBatch",
      "outputs": [
        {
          "internalType": "uint256[]",
          "name": "",
          "type": "uint256[]"
        }
      ],
      "stateMutability": "view",
      "type": "function"
    },
    {
      "inputs": [
        {
          "internalType": "uint256",
          "name": "editionId",
          "type": "uint256"
        },
        {
          "internalType": "string",
          "name": "tags",
          "type": "string"
        }
      ],
      "name": "believeProject",
      "outputs": [],
      "stateMutability": "nonpayable",
      "type": "function"
    },
    {
      "inputs": [
        {
          "internalType": "address",
          "name": "account",
          "type": "address"
        },
        {
          "internalType": "uint256",
          "name": "id",
          "type": "uint256"
        },
        {
          "internalType": "uint256",
          "name": "value",
          "type": "uint256"
        }
      ],
      "name": "burn",
      "outputs": [],
      "stateMutability": "nonpayable",
      "type": "function"
    },
    {
      "inputs": [
        {
          "internalType": "address",
          "name": "account",
          "type": "address"
        },
        {
          "internalType": "uint256[]",
          "name": "ids",
          "type": "uint256[]"
        },
        {
          "internalType": "uint256[]",
          "name": "values",
          "type": "uint256[]"
        }
      ],
      "name": "burnBatch",
      "outputs": [],
      "stateMutability": "nonpayable",
      "type": "function"
    },
    {
      "inputs": [],
      "name": "contractURI",
      "outputs": [
        {
          "internalType": "string",
          "name": "",
          "type": "string"
        }
      ],
      "stateMutability": "view",
      "type": "function"
    },
    {
      "inputs": [
        {
          "internalType": "uint256",
          "name": "fee",
          "type": "uint256"
        },
        {
          "internalType": "address",
          "name": "owner",
          "type": "address"
        },
        {
          "internalType": "address",
          "name": "payer",
          "type": "address"
        },
        {
          "internalType": "string",
          "name": "id",
          "type": "string"
        },
        {
          "internalType": "string",
          "name": "briefId",
          "type": "string"
        }
      ],
      "name": "createEdition",
      "outputs": [
        {
          "internalType": "uint256",
          "name": "editionId",
          "type": "uint256"
        }
      ],
      "stateMutability": "nonpayable",
      "type": "function"
    },
    {
      "inputs": [],
      "name": "editionCounter",
      "outputs": [
        {
          "internalType": "uint256",
          "name": "",
          "type": "uint256"
        }
      ],
      "stateMutability": "view",
      "type": "function"
    },
    {
      "inputs": [
        {
          "internalType": "uint256",
          "name": "",
          "type": "uint256"
        }
      ],
      "name": "editions",
      "outputs": [
        {
          "internalType": "enum EditionsStructs.EditionStatus",
          "name": "status",
          "type": "uint8"
        },
        {
          "internalType": "uint256",
          "name": "fee",
          "type": "uint256"
        },
        {
          "internalType": "uint256",
          "name": "balance",
          "type": "uint256"
        },
        {
          "internalType": "address",
          "name": "owner",
          "type": "address"
        },
        {
          "internalType": "string",
          "name": "id",
          "type": "string"
        },
        {
          "internalType": "string",
          "name": "briefId",
          "type": "string"
        }
      ],
      "stateMutability": "view",
      "type": "function"
    },
    {
      "inputs": [
        {
          "internalType": "uint256",
          "name": "id",
          "type": "uint256"
        }
      ],
      "name": "exists",
      "outputs": [
        {
          "internalType": "bool",
          "name": "",
          "type": "bool"
        }
      ],
      "stateMutability": "view",
      "type": "function"
    },
    {
      "inputs": [
        {
          "internalType": "address",
          "name": "owner",
          "type": "address"
        }
      ],
      "name": "getBalances",
      "outputs": [
        {
          "components": [
            {
              "internalType": "string",
              "name": "id",
              "type": "string"
            },
            {
              "internalType": "uint256",
              "name": "amount",
              "type": "uint256"
            }
          ],
          "internalType": "struct EditionsStructs.EditionIdWithAmount[]",
          "name": "",
          "type": "tuple[]"
        }
      ],
      "stateMutability": "view",
      "type": "function"
    },
    {
      "inputs": [],
      "name": "getEditions",
      "outputs": [
        {
          "components": [
            {
              "internalType": "enum EditionsStructs.EditionStatus",
              "name": "status",
              "type": "uint8"
            },
            {
              "internalType": "uint256",
              "name": "fee",
              "type": "uint256"
            },
            {
              "internalType": "uint256",
              "name": "balance",
              "type": "uint256"
            },
            {
              "internalType": "address",
              "name": "owner",
              "type": "address"
            },
            {
              "internalType": "string",
              "name": "id",
              "type": "string"
            },
            {
              "internalType": "string",
              "name": "briefId",
              "type": "string"
            }
          ],
          "internalType": "struct EditionsStructs.Edition[]",
          "name": "",
          "type": "tuple[]"
        }
      ],
      "stateMutability": "view",
      "type": "function"
    },
    {
      "inputs": [
        {
          "internalType": "bytes32",
          "name": "role",
          "type": "bytes32"
        }
      ],
      "name": "getRoleAdmin",
      "outputs": [
        {
          "internalType": "bytes32",
          "name": "",
          "type": "bytes32"
        }
      ],
      "stateMutability": "view",
      "type": "function"
    },
    {
      "inputs": [
        {
          "internalType": "bytes32",
          "name": "role",
          "type": "bytes32"
        },
        {
          "internalType": "address",
          "name": "account",
          "type": "address"
        }
      ],
      "name": "grantRole",
      "outputs": [],
      "stateMutability": "nonpayable",
      "type": "function"
    },
    {
      "inputs": [
        {
          "internalType": "bytes32",
          "name": "role",
          "type": "bytes32"
        },
        {
          "internalType": "address",
          "name": "account",
          "type": "address"
        }
      ],
      "name": "hasRole",
      "outputs": [
        {
          "internalType": "bool",
          "name": "",
          "type": "bool"
        }
      ],
      "stateMutability": "view",
      "type": "function"
    },
    {
      "inputs": [],
      "name": "initialize",
      "outputs": [],
      "stateMutability": "nonpayable",
      "type": "function"
    },
    {
      "inputs": [
        {
          "internalType": "address",
          "name": "account",
          "type": "address"
        },
        {
          "internalType": "address",
          "name": "operator",
          "type": "address"
        }
      ],
      "name": "isApprovedForAll",
      "outputs": [
        {
          "internalType": "bool",
          "name": "",
          "type": "bool"
        }
      ],
      "stateMutability": "view",
      "type": "function"
    },
    {
      "inputs": [],
      "name": "maximumEditionFee",
      "outputs": [
        {
          "internalType": "uint256",
          "name": "",
          "type": "uint256"
        }
      ],
      "stateMutability": "view",
      "type": "function"
    },
    {
      "inputs": [
        {
          "internalType": "uint256",
          "name": "editionId",
          "type": "uint256"
        },
        {
          "internalType": "uint256",
          "name": "amount",
          "type": "uint256"
        },
        {
          "internalType": "address",
          "name": "buyer",
          "type": "address"
        },
        {
          "internalType": "bytes",
          "name": "data",
          "type": "bytes"
        }
      ],
      "name": "mintEdition",
      "outputs": [],
      "stateMutability": "payable",
      "type": "function"
    },
    {
      "inputs": [],
      "name": "pause",
      "outputs": [],
      "stateMutability": "nonpayable",
      "type": "function"
    },
    {
      "inputs": [],
      "name": "paused",
      "outputs": [
        {
          "internalType": "bool",
          "name": "",
          "type": "bool"
        }
      ],
      "stateMutability": "view",
      "type": "function"
    },
    {
      "inputs": [],
      "name": "protocolFee",
      "outputs": [
        {
          "internalType": "uint256",
          "name": "",
          "type": "uint256"
        }
      ],
      "stateMutability": "view",
      "type": "function"
    },
    {
      "inputs": [],
      "name": "proxiableUUID",
      "outputs": [
        {
          "internalType": "bytes32",
          "name": "",
          "type": "bytes32"
        }
      ],
      "stateMutability": "view",
      "type": "function"
    },
    {
      "inputs": [
        {
          "internalType": "uint256",
          "name": "editionId",
          "type": "uint256"
        }
      ],
      "name": "removeBelief",
      "outputs": [],
      "stateMutability": "nonpayable",
      "type": "function"
    },
    {
      "inputs": [
        {
          "internalType": "bytes32",
          "name": "role",
          "type": "bytes32"
        },
        {
          "internalType": "address",
          "name": "account",
          "type": "address"
        }
      ],
      "name": "renounceRole",
      "outputs": [],
      "stateMutability": "nonpayable",
      "type": "function"
    },
    {
      "inputs": [
        {
          "internalType": "uint256",
          "name": "editionId",
          "type": "uint256"
        }
      ],
      "name": "resumeEdition",
      "outputs": [],
      "stateMutability": "nonpayable",
      "type": "function"
    },
    {
      "inputs": [
        {
          "internalType": "bytes32",
          "name": "role",
          "type": "bytes32"
        },
        {
          "internalType": "address",
          "name": "account",
          "type": "address"
        }
      ],
      "name": "revokeRole",
      "outputs": [],
      "stateMutability": "nonpayable",
      "type": "function"
    },
    {
      "inputs": [
        {
          "internalType": "address",
          "name": "from",
          "type": "address"
        },
        {
          "internalType": "address",
          "name": "to",
          "type": "address"
        },
        {
          "internalType": "uint256[]",
          "name": "ids",
          "type": "uint256[]"
        },
        {
          "internalType": "uint256[]",
          "name": "amounts",
          "type": "uint256[]"
        },
        {
          "internalType": "bytes",
          "name": "data",
          "type": "bytes"
        }
      ],
      "name": "safeBatchTransferFrom",
      "outputs": [],
      "stateMutability": "nonpayable",
      "type": "function"
    },
    {
      "inputs": [
        {
          "internalType": "address",
          "name": "from",
          "type": "address"
        },
        {
          "internalType": "address",
          "name": "to",
          "type": "address"
        },
        {
          "internalType": "uint256",
          "name": "id",
          "type": "uint256"
        },
        {
          "internalType": "uint256",
          "name": "amount",
          "type": "uint256"
        },
        {
          "internalType": "bytes",
          "name": "data",
          "type": "bytes"
        }
      ],
      "name": "safeTransferFrom",
      "outputs": [],
      "stateMutability": "nonpayable",
      "type": "function"
    },
    {
      "inputs": [
        {
          "internalType": "address",
          "name": "operator",
          "type": "address"
        },
        {
          "internalType": "bool",
          "name": "approved",
          "type": "bool"
        }
      ],
      "name": "setApprovalForAll",
      "outputs": [],
      "stateMutability": "nonpayable",
      "type": "function"
    },
    {
      "inputs": [
        {
          "internalType": "uint256",
          "name": "_maximumEditionFee",
          "type": "uint256"
        }
      ],
      "name": "setMaximumEditionFee",
      "outputs": [],
      "stateMutability": "nonpayable",
      "type": "function"
    },
    {
      "inputs": [
        {
          "internalType": "uint256",
          "name": "_protocolFee",
          "type": "uint256"
        }
      ],
      "name": "setProtocolFee",
      "outputs": [],
      "stateMutability": "nonpayable",
      "type": "function"
    },
    {
      "inputs": [
        {
          "internalType": "string",
          "name": "newuri",
          "type": "string"
        }
      ],
      "name": "setURI",
      "outputs": [],
      "stateMutability": "nonpayable",
      "type": "function"
    },
    {
      "inputs": [
        {
          "internalType": "uint256",
          "name": "editionId",
          "type": "uint256"
        }
      ],
      "name": "stopEdition",
      "outputs": [],
      "stateMutability": "nonpayable",
      "type": "function"
    },
    {
      "inputs": [
        {
          "internalType": "bytes4",
          "name": "interfaceId",
          "type": "bytes4"
        }
      ],
      "name": "supportsInterface",
      "outputs": [
        {
          "internalType": "bool",
          "name": "",
          "type": "bool"
        }
      ],
      "stateMutability": "view",
      "type": "function"
    },
    {
      "inputs": [
        {
          "internalType": "uint256",
          "name": "id",
          "type": "uint256"
        }
      ],
      "name": "totalSupply",
      "outputs": [
        {
          "internalType": "uint256",
          "name": "",
          "type": "uint256"
        }
      ],
      "stateMutability": "view",
      "type": "function"
    },
    {
      "inputs": [],
      "name": "unpause",
      "outputs": [],
      "stateMutability": "nonpayable",
      "type": "function"
    },
    {
      "inputs": [
        {
          "internalType": "uint256",
          "name": "editionId",
          "type": "uint256"
        },
        {
          "internalType": "string",
          "name": "id",
          "type": "string"
        },
        {
          "internalType": "string",
          "name": "briefId",
          "type": "string"
        }
      ],
      "name": "updateEdition",
      "outputs": [],
      "stateMutability": "nonpayable",
      "type": "function"
    },
    {
      "inputs": [
        {
          "internalType": "address",
          "name": "newImplementation",
          "type": "address"
        }
      ],
      "name": "upgradeTo",
      "outputs": [],
      "stateMutability": "nonpayable",
      "type": "function"
    },
    {
      "inputs": [
        {
          "internalType": "address",
          "name": "newImplementation",
          "type": "address"
        },
        {
          "internalType": "bytes",
          "name": "data",
          "type": "bytes"
        }
      ],
      "name": "upgradeToAndCall",
      "outputs": [],
      "stateMutability": "payable",
      "type": "function"
    },
    {
      "inputs": [
        {
          "internalType": "uint256",
          "name": "id",
          "type": "uint256"
        }
      ],
      "name": "uri",
      "outputs": [
        {
          "internalType": "string",
          "name": "",
          "type": "string"
        }
      ],
      "stateMutability": "view",
      "type": "function"
    },
    {
      "inputs": [
        {
          "internalType": "uint256",
          "name": "editionId",
          "type": "uint256"
        },
        {
          "internalType": "uint256",
          "name": "amount",
          "type": "uint256"
        }
      ],
      "name": "withdrawEditionBalance",
      "outputs": [],
      "stateMutability": "nonpayable",
      "type": "function"
    },
    {
      "inputs": [
        {
          "internalType": "uint256",
          "name": "amount",
          "type": "uint256"
        }
      ],
      "name": "withdrawFunds",
      "outputs": [],
      "stateMutability": "nonpayable",
      "type": "function"
    },
    {
      "stateMutability": "payable",
      "type": "receive"
    }
  ],
  "bytecode": "0x60a0604052306080523480156200001557600080fd5b506200002062000026565b620000e7565b600054610100900460ff1615620000935760405162461bcd60e51b815260206004820152602760248201527f496e697469616c697a61626c653a20636f6e747261637420697320696e697469604482015266616c697a696e6760c81b606482015260840160405180910390fd5b60005460ff90811614620000e5576000805460ff191660ff9081179091556040519081527f7f26b83ff96e1f2b6a682f133852f6798a09c465da95921460cefb38474024989060200160405180910390a15b565b60805161475e6200011f60003960008181610d7301528181610db301528181610fad01528181610fed015261107c015261475e6000f3fe60806040526004361061025d5760003560e01c8063790bafc611610143578063c6fbb712116100bb578063e8a3d48511610077578063e8a3d4851461075e578063e985e9c514610773578063f242432a146107bc578063f5298aca146107dc578063f8c1b2fd146107fc578063fc74efa21461081c57005b8063c6fbb71214610698578063c84aae17146106af578063d547741f146106dc578063d667c9ce146106fc578063df6efc6c1461071c578063e43990fe1461073e57005b8063940123da1161010a578063940123da146105eb578063a217fddf146105fe578063a22cb46514610613578063b0e21e8a14610633578063b3a44bd61461064a578063bd85b0391461066a57005b8063790bafc6146105615780637cc74941146105815780638129fc1c146105a15780638456cb59146105b657806391d14854146105cb57005b80633659cfe6116101d657806352d1902d1161019d57806352d1902d146104bd5780635c975abb146104d25780636b20c454146104ea5780636b5cb7891461050a5780637357628c14610521578063787dce3d1461054157005b80633659cfe6146104185780633f4ba83a146104385780634e1273f41461044d5780634f1ef2861461047a5780634f558e791461048d57005b8063155dd5ee11610225578063155dd5ee14610336578063248a9ca314610356578063279c806e146103865780632eb2c2d6146103b85780632f2ff15d146103d857806336568abe146103f857005b8062fdd58e1461026657806301ffc9a71461029957806302fe5305146102c95780630a579eca146102e95780630e89341c1461030957005b3661026457005b005b34801561027257600080fd5b50610286610281366004613631565b61083c565b6040519081526020015b60405180910390f35b3480156102a557600080fd5b506102b96102b4366004613671565b6108d7565b6040519015158152602001610290565b3480156102d557600080fd5b506102646102e4366004613743565b6108e2565b3480156102f557600080fd5b50610264610304366004613777565b610919565b34801561031557600080fd5b50610329610324366004613777565b6109fb565b60405161029091906137e0565b34801561034257600080fd5b50610264610351366004613777565b610a36565b34801561036257600080fd5b50610286610371366004613777565b60009081526097602052604090206001015490565b34801561039257600080fd5b506103a66103a1366004613777565b610b33565b6040516102909695949392919061382b565b3480156103c457600080fd5b506102646103d3366004613918565b610c89565b3480156103e457600080fd5b506102646103f33660046139c1565b610cd5565b34801561040457600080fd5b506102646104133660046139c1565b610cef565b34801561042457600080fd5b506102646104333660046139ed565b610d69565b34801561044457600080fd5b50610264610e48565b34801561045957600080fd5b5061046d610468366004613a08565b610e7a565b6040516102909190613b0d565b610264610488366004613b20565b610fa3565b34801561049957600080fd5b506102b96104a8366004613777565b600090815261012d6020526040902054151590565b3480156104c957600080fd5b5061028661106f565b3480156104de57600080fd5b5060c95460ff166102b9565b3480156104f657600080fd5b50610264610505366004613b63565b611123565b34801561051657600080fd5b506102866101c65481565b34801561052d57600080fd5b5061026461053c366004613777565b611166565b34801561054d57600080fd5b5061026461055c366004613777565b611207565b34801561056d57600080fd5b5061026461057c366004613bd6565b611219565b34801561058d57600080fd5b5061026461059c366004613777565b6112ce565b3480156105ad57600080fd5b506102646112e0565b3480156105c257600080fd5b506102646114ab565b3480156105d757600080fd5b506102b96105e63660046139c1565b6114dd565b6102646105f9366004613c06565b611508565b34801561060a57600080fd5b50610286600081565b34801561061f57600080fd5b5061026461062e366004613c66565b6115e9565b34801561063f57600080fd5b506102866101c35481565b34801561065657600080fd5b50610286610665366004613ca2565b6115f4565b34801561067657600080fd5b50610286610685366004613777565b600090815261012d602052604090205490565b3480156106a457600080fd5b506102866101c55481565b3480156106bb57600080fd5b506106cf6106ca3660046139ed565b61174e565b6040516102909190613d00565b3480156106e857600080fd5b506102646106f73660046139c1565b6118b8565b34801561070857600080fd5b50610264610717366004613d76565b6118dd565b34801561072857600080fd5b50610731611a1f565b6040516102909190613d98565b34801561074a57600080fd5b50610264610759366004613e4c565b611c8e565b34801561076a57600080fd5b50610329611d16565b34801561077f57600080fd5b506102b961078e366004613eae565b6001600160a01b03918216600090815260666020908152604080832093909416825291909152205460ff1690565b3480156107c857600080fd5b506102646107d7366004613ed8565b611d36565b3480156107e857600080fd5b506102646107f7366004613f3c565b611d7b565b34801561080857600080fd5b50610264610817366004613777565b611dbe565b34801561082857600080fd5b50610264610837366004613777565b611e53565b60006001600160a01b0383166108ac5760405162461bcd60e51b815260206004820152602a60248201527f455243313135353a2061646472657373207a65726f206973206e6f742061207660448201526930b634b21037bbb732b960b11b60648201526084015b60405180910390fd5b5060008181526065602090815260408083206001600160a01b03861684529091529020545b92915050565b60006108d182611f2e565b7f7804d923f43a17d325d77e781528e0793b2edd9890ab45fc64efd7b4b427744c61090c81611f53565b61091582611f5d565b5050565b60008181526101c460205260409020600301546001600160a01b031633148061094857506109486000336114dd565b6109655760405163388f811f60e01b815260040160405180910390fd5b600260008281526101c4602052604090205460ff16600381111561098b5761098b6137f3565b146109a957604051631f0fb6fd60e11b815260040160405180910390fd5b60008181526101c46020908152604091829020805460ff1916600317905590518281527f591913f977ab242c5871f116f36be231ff67df5e8e0bac1efd91fa8a723aca2b91015b60405180910390a150565b6060610a0682611f69565b610a0f83611ffd565b604051602001610a20929190613f6f565b6040516020818303038152906040529050919050565b6000610a4181611f53565b47821115610a6257604051631036b5ad60e31b815260040160405180910390fd5b4760005b6101c554811015610ac35760008181526101c46020526040902060020154610a8e9083613fb4565b915083821015610ab15760405163156bbc5b60e01b815260040160405180910390fd5b80610abb81613fc7565b915050610a66565b50604051600090339085908381818185875af1925050503d8060008114610b06576040519150601f19603f3d011682016040523d82523d6000602084013e610b0b565b606091505b5050905080610b2d576040516317f2c34560e31b815260040160405180910390fd5b50505050565b6101c4602052600090815260409020805460018201546002830154600384015460048501805460ff90951695939492936001600160a01b0390921692610b7890613fe0565b80601f0160208091040260200160405190810160405280929190818152602001828054610ba490613fe0565b8015610bf15780601f10610bc657610100808354040283529160200191610bf1565b820191906000526020600020905b815481529060010190602001808311610bd457829003601f168201915b505050505090806005018054610c0690613fe0565b80601f0160208091040260200160405190810160405280929190818152602001828054610c3290613fe0565b8015610c7f5780601f10610c5457610100808354040283529160200191610c7f565b820191906000526020600020905b815481529060010190602001808311610c6257829003601f168201915b5050505050905086565b6001600160a01b038516331480610ca55750610ca5853361078e565b610cc15760405162461bcd60e51b81526004016108a390614014565b610cce858585858561208f565b5050505050565b6000610ce081611f53565b610cea838361223c565b505050565b6001600160a01b0381163314610d5f5760405162461bcd60e51b815260206004820152602f60248201527f416363657373436f6e74726f6c3a2063616e206f6e6c792072656e6f756e636560448201526e103937b632b9903337b91039b2b63360891b60648201526084016108a3565b61091582826122c2565b6001600160a01b037f0000000000000000000000000000000000000000000000000000000000000000163003610db15760405162461bcd60e51b81526004016108a390614062565b7f00000000000000000000000000000000000000000000000000000000000000006001600160a01b0316610dfa6000805160206146be833981519152546001600160a01b031690565b6001600160a01b031614610e205760405162461bcd60e51b81526004016108a3906140ae565b610e2981612329565b60408051600080825260208201909252610e4591839190612353565b50565b7f65d7a28e3265b37a6474929f336521b332c1681b933f6cb9f3376673440d862a610e7281611f53565b610e456124be565b60608151835114610edf5760405162461bcd60e51b815260206004820152602960248201527f455243313135353a206163636f756e747320616e6420696473206c656e677468604482015268040dad2e6dac2e8c6d60bb1b60648201526084016108a3565b600083516001600160401b03811115610efa57610efa61368e565b604051908082528060200260200182016040528015610f23578160200160208202803683370190505b50905060005b8451811015610f9b57610f6e858281518110610f4757610f476140fa565b6020026020010151858381518110610f6157610f616140fa565b602002602001015161083c565b828281518110610f8057610f806140fa565b6020908102919091010152610f9481613fc7565b9050610f29565b509392505050565b6001600160a01b037f0000000000000000000000000000000000000000000000000000000000000000163003610feb5760405162461bcd60e51b81526004016108a390614062565b7f00000000000000000000000000000000000000000000000000000000000000006001600160a01b03166110346000805160206146be833981519152546001600160a01b031690565b6001600160a01b03161461105a5760405162461bcd60e51b81526004016108a3906140ae565b61106382612329565b61091582826001612353565b6000306001600160a01b037f0000000000000000000000000000000000000000000000000000000000000000161461110f5760405162461bcd60e51b815260206004820152603860248201527f555550535570677261646561626c653a206d757374206e6f742062652063616c60448201527f6c6564207468726f7567682064656c656761746563616c6c000000000000000060648201526084016108a3565b506000805160206146be8339815191525b90565b6001600160a01b03831633148061113f575061113f833361078e565b61115b5760405162461bcd60e51b81526004016108a390614014565b610cea838383612510565b600061117181611f53565b600160008381526101c4602052604090205460ff166003811115611197576111976137f3565b146111b55760405163137c9c1f60e31b815260040160405180910390fd5b60008281526101c46020908152604091829020805460ff1916600217905590518381527f8f4352ac8b4aefdd2333162306bbe09dd4f4ff6661e89ccc4e4dcced8794e8f7910160405180910390a15050565b600061121281611f53565b506101c355565b600260008381526101c4602052604090205460ff16600381111561123f5761123f6137f3565b1461125d5760405163137c9c1f60e31b815260040160405180910390fd5b3360009081526101c760209081526040808320600886901c845290915290208054600160ff85161b179055336001600160a01b0316827f710e220a47c8d9e50587c80fe509f5e762149ef672440eff70798204dd70f5eb836040516112c291906137e0565b60405180910390a35050565b60006112d981611f53565b506101c655565b600054610100900460ff16158080156113005750600054600160ff909116105b8061131a5750303b15801561131a575060005460ff166001145b61137d5760405162461bcd60e51b815260206004820152602e60248201527f496e697469616c697a61626c653a20636f6e747261637420697320616c72656160448201526d191e481a5b9a5d1a585b1a5e995960921b60648201526084016108a3565b6000805460ff1916600117905580156113a0576000805461ff0019166101001790555b6113b8604051806020016040528060008152506126af565b6113c06126df565b6113c8612708565b6113d06126df565b6113d86126df565b6113e06126df565b6113eb60003361223c565b6114157f7804d923f43a17d325d77e781528e0793b2edd9890ab45fc64efd7b4b427744c3361223c565b61143f7f65d7a28e3265b37a6474929f336521b332c1681b933f6cb9f3376673440d862a3361223c565b6114697f189ab7a9244df0848122154315af71fe140f3db0fe014031783b0946b8c9d2e33361223c565b8015610e45576000805461ff0019169055604051600181527f7f26b83ff96e1f2b6a682f133852f6798a09c465da95921460cefb3847402498906020016109f0565b7f65d7a28e3265b37a6474929f336521b332c1681b933f6cb9f3376673440d862a6114d581611f53565b610e45612737565b60009182526097602090815260408084206001600160a01b0393909316845291905290205460ff1690565b600260008581526101c4602052604090205460ff16600381111561152e5761152e6137f3565b1461154c57604051631f0fb6fd60e11b815260040160405180910390fd5b6101c35460008581526101c46020526040902060010154849161156e91614110565b6115789190614123565b34101561159857604051631036b5ad60e31b815260040160405180910390fd5b6115a482858584612774565b6101c3546115b29084614123565b6115bc9034613fb4565b60008581526101c46020526040812060020180549091906115de908490614110565b909155505050505050565b610915338383612899565b60006101c65486111561161a57604051630f0c4c5f60e41b815260040160405180910390fd5b506101c5546040805160c0810190915280600181526020808201899052600060408084018290526001600160a01b038a1660608501526080840188905260a09093018690528481526101c49091522081518154829060ff19166001836003811115611687576116876137f3565b0217905550602082015160018201556040820151600282015560608201516003820180546001600160a01b0319166001600160a01b03909216919091179055608082015160048201906116da9082614180565b5060a082015160058201906116ef9082614180565b50506101c580549150600061170383613fc7565b91905055507f3deb71b5a6774038a220621d78241405004043d5a928de9c7956bcc5270416db8183888860405161173d949392919061423f565b60405180910390a195945050505050565b606060006101c5546001600160401b0381111561176d5761176d61368e565b6040519080825280602002602001820160405280156117b357816020015b60408051808201909152606081526000602082015281526020019060019003908161178b5790505b50905060005b6101c5548110156118b15760405180604001604052806101c4600084815260200190815260200160002060040180546117f190613fe0565b80601f016020809104026020016040519081016040528092919081815260200182805461181d90613fe0565b801561186a5780601f1061183f5761010080835404028352916020019161186a565b820191906000526020600020905b81548152906001019060200180831161184d57829003601f168201915b5050505050815260200161187e868461083c565b815250828281518110611893576118936140fa565b602002602001018190525080806118a990613fc7565b9150506117b9565b5092915050565b6000828152609760205260409020600101546118d381611f53565b610cea83836122c2565b60008281526101c460205260409020600301546001600160a01b031633146119185760405163388f811f60e01b815260040160405180910390fd5b60008281526101c4602052604090206002015481111561194b57604051637eafab7d60e01b815260040160405180910390fd5b604051600090339083908381818185875af1925050503d806000811461198d576040519150601f19603f3d011682016040523d82523d6000602084013e611992565b606091505b50509050806119b4576040516317f2c34560e31b815260040160405180910390fd5b60008381526101c46020526040812060020180548492906119d6908490613fb4565b90915550506040805184815260208101849052338183015290517ff1090e9d5138cd4909542e10e1da576730b07eb291a71a151e63160dde345b949181900360600190a1505050565b606060006101c5546001600160401b03811115611a3e57611a3e61368e565b604051908082528060200260200182016040528015611ab257816020015b611a9f6040805160c081019091528060008152602001600081526020016000815260200160006001600160a01b0316815260200160608152602001606081525090565b815260200190600190039081611a5c5790505b50905060005b6101c554811015611c885760008181526101c4602052604090819020815160c081019092528054829060ff166003811115611af557611af56137f3565b6003811115611b0657611b066137f3565b8152600182015460208201526002820154604082015260038201546001600160a01b03166060820152600482018054608090920191611b4490613fe0565b80601f0160208091040260200160405190810160405280929190818152602001828054611b7090613fe0565b8015611bbd5780601f10611b9257610100808354040283529160200191611bbd565b820191906000526020600020905b815481529060010190602001808311611ba057829003601f168201915b50505050508152602001600582018054611bd690613fe0565b80601f0160208091040260200160405190810160405280929190818152602001828054611c0290613fe0565b8015611c4f5780601f10611c2457610100808354040283529160200191611c4f565b820191906000526020600020905b815481529060010190602001808311611c3257829003601f168201915b505050505081525050828281518110611c6a57611c6a6140fa565b60200260200101819052508080611c8090613fc7565b915050611ab8565b50919050565b6000611c9981611f53565b600260008581526101c4602052604090205460ff166003811115611cbf57611cbf6137f3565b14611cdd5760405163137c9c1f60e31b815260040160405180910390fd5b60008481526101c460205260409020600401611cf98482614180565b5060008481526101c460205260409020600501610cce8382614180565b606060405180606001604052806024815260200161470560249139905090565b6001600160a01b038516331480611d525750611d52853361078e565b611d6e5760405162461bcd60e51b81526004016108a390614014565b610cce8585858585612979565b6001600160a01b038316331480611d975750611d97833361078e565b611db35760405162461bcd60e51b81526004016108a390614014565b610cea838383612ab5565b3360009081526101c760209081526040808320600885901c84529182905290912054600160ff84161b16611e055760405163423f327760e11b815260040160405180910390fd5b600882901c6000908152602082905260408082208054600160ff87161b1916905551339184917fc6c1c3224e50c3c958e39197695bdfe8457ce7c0014d8d51a4d3aa12c5ac18489190a35050565b60008181526101c460205260409020600301546001600160a01b0316331480611e825750611e826000336114dd565b611e9f5760405163388f811f60e01b815260040160405180910390fd5b600360008281526101c4602052604090205460ff166003811115611ec557611ec56137f3565b14611ee35760405163968807a560e01b815260040160405180910390fd5b60008181526101c46020908152604091829020805460ff1916600217905590518281527f63bb17c9645a29322601b4fe88d8f3fa84f32229368294f903084be8f5d813ba91016109f0565b60006001600160e01b03198216637965db0b60e01b14806108d157506108d182612bd1565b610e458133612c21565b60676109158282614180565b606060678054611f7890613fe0565b80601f0160208091040260200160405190810160405280929190818152602001828054611fa490613fe0565b8015611ff15780601f10611fc657610100808354040283529160200191611ff1565b820191906000526020600020905b815481529060010190602001808311611fd457829003601f168201915b50505050509050919050565b6060600061200a83612c7a565b60010190506000816001600160401b038111156120295761202961368e565b6040519080825280601f01601f191660200182016040528015612053576020820181803683370190505b5090508181016020015b600019016f181899199a1a9b1b9c1cb0b131b232b360811b600a86061a8153600a850494508461205d57509392505050565b81518351146120b05760405162461bcd60e51b81526004016108a390614279565b6001600160a01b0384166120d65760405162461bcd60e51b81526004016108a3906142c1565b336120e5818787878787612d52565b60005b84518110156121ce576000858281518110612105576121056140fa565b602002602001015190506000858381518110612123576121236140fa565b60209081029190910181015160008481526065835260408082206001600160a01b038e1683529093529190912054909150818110156121745760405162461bcd60e51b81526004016108a390614306565b60008381526065602090815260408083206001600160a01b038e8116855292528083208585039055908b168252812080548492906121b3908490614110565b92505081905550505050806121c790613fc7565b90506120e8565b50846001600160a01b0316866001600160a01b0316826001600160a01b03167f4a39dc06d4c0dbc64b70af90fd698a233a518aa5d07e595d983b8c0526c8f7fb878760405161221e929190614350565b60405180910390a4612234818787878787612d68565b505050505050565b61224682826114dd565b6109155760008281526097602090815260408083206001600160a01b03851684529091529020805460ff1916600117905561227e3390565b6001600160a01b0316816001600160a01b0316837f2f8788117e7eff1d82e926ec794901d17c78024a50270940304540a733656f0d60405160405180910390a45050565b6122cc82826114dd565b156109155760008281526097602090815260408083206001600160a01b0385168085529252808320805460ff1916905551339285917ff6391f5c32d9c69d2a47ea670b442974b53935d1edc7fd64eb21e047a839171b9190a45050565b7f189ab7a9244df0848122154315af71fe140f3db0fe014031783b0946b8c9d2e361091581611f53565b7f4910fdfa16fed3260ed0e7147f7cc6da11a60208b5b9406d12a635614ffd91435460ff161561238657610cea83612ec3565b826001600160a01b03166352d1902d6040518163ffffffff1660e01b8152600401602060405180830381865afa9250505080156123e0575060408051601f3d908101601f191682019092526123dd9181019061437e565b60015b6124435760405162461bcd60e51b815260206004820152602e60248201527f45524331393637557067726164653a206e657720696d706c656d656e7461746960448201526d6f6e206973206e6f74205555505360901b60648201526084016108a3565b6000805160206146be83398151915281146124b25760405162461bcd60e51b815260206004820152602960248201527f45524331393637557067726164653a20756e737570706f727465642070726f786044820152681a58589b195555525160ba1b60648201526084016108a3565b50610cea838383612f5f565b6124c6612f84565b60c9805460ff191690557f5db9ee0a495bf2e6ff9c91a7834c1ba4fdd244a5e8aa4e537bd38aeae4b073aa335b6040516001600160a01b03909116815260200160405180910390a1565b6001600160a01b0383166125365760405162461bcd60e51b81526004016108a390614397565b80518251146125575760405162461bcd60e51b81526004016108a390614279565b600033905061257a81856000868660405180602001604052806000815250612d52565b60005b835181101561264257600084828151811061259a5761259a6140fa565b6020026020010151905060008483815181106125b8576125b86140fa565b60209081029190910181015160008481526065835260408082206001600160a01b038c1683529093529190912054909150818110156126095760405162461bcd60e51b81526004016108a3906143da565b60009283526065602090815260408085206001600160a01b038b168652909152909220910390558061263a81613fc7565b91505061257d565b5060006001600160a01b0316846001600160a01b0316826001600160a01b03167f4a39dc06d4c0dbc64b70af90fd698a233a518aa5d07e595d983b8c0526c8f7fb8686604051612693929190614350565b60405180910390a4604080516020810190915260009052610b2d565b600054610100900460ff166126d65760405162461bcd60e51b81526004016108a39061441e565b610e4581612fcd565b600054610100900460ff166127065760405162461bcd60e51b81526004016108a39061441e565b565b600054610100900460ff1661272f5760405162461bcd60e51b81526004016108a39061441e565b612706612ffd565b61273f613030565b60c9805460ff191660011790557f62e78cea01bee320cd4e420270b5ea74000d11b0c9f74754ebdbfc544b05a2586124f33390565b6001600160a01b0384166127d45760405162461bcd60e51b815260206004820152602160248201527f455243313135353a206d696e7420746f20746865207a65726f206164647265736044820152607360f81b60648201526084016108a3565b3360006127e085613076565b905060006127ed85613076565b90506127fe83600089858589612d52565b60008681526065602090815260408083206001600160a01b038b16845290915281208054879290612830908490614110565b909155505060408051878152602081018790526001600160a01b03808a1692600092918716917fc3d58168c5ae7397731d063d5bbf3d657854427343f4c083240f7aacaa2d0f62910160405180910390a4612890836000898989896130c1565b50505050505050565b816001600160a01b0316836001600160a01b03160361290c5760405162461bcd60e51b815260206004820152602960248201527f455243313135353a2073657474696e6720617070726f76616c20737461747573604482015268103337b91039b2b63360b91b60648201526084016108a3565b6001600160a01b03838116600081815260666020908152604080832094871680845294825291829020805460ff191686151590811790915591519182527f17307eab39ab6107e8899845ad3d59bd9653f200f220920489ca2b5937696c31910160405180910390a3505050565b6001600160a01b03841661299f5760405162461bcd60e51b81526004016108a3906142c1565b3360006129ab85613076565b905060006129b885613076565b90506129c8838989858589612d52565b60008681526065602090815260408083206001600160a01b038c16845290915290205485811015612a0b5760405162461bcd60e51b81526004016108a390614306565b60008781526065602090815260408083206001600160a01b038d8116855292528083208985039055908a16825281208054889290612a4a908490614110565b909155505060408051888152602081018890526001600160a01b03808b16928c821692918816917fc3d58168c5ae7397731d063d5bbf3d657854427343f4c083240f7aacaa2d0f62910160405180910390a4612aaa848a8a8a8a8a6130c1565b505050505050505050565b6001600160a01b038316612adb5760405162461bcd60e51b81526004016108a390614397565b336000612ae784613076565b90506000612af484613076565b9050612b1483876000858560405180602001604052806000815250612d52565b60008581526065602090815260408083206001600160a01b038a16845290915290205484811015612b575760405162461bcd60e51b81526004016108a3906143da565b60008681526065602090815260408083206001600160a01b038b81168086529184528285208a8703905582518b81529384018a90529092908816917fc3d58168c5ae7397731d063d5bbf3d657854427343f4c083240f7aacaa2d0f62910160405180910390a4604080516020810190915260009052612890565b60006001600160e01b03198216636cdb3d1360e11b1480612c0257506001600160e01b031982166303a24d0760e21b145b806108d157506301ffc9a760e01b6001600160e01b03198316146108d1565b612c2b82826114dd565b61091557612c388161317c565b612c4383602061318e565b604051602001612c54929190614469565b60408051601f198184030181529082905262461bcd60e51b82526108a3916004016137e0565b60008072184f03e93ff9f4daa797ed6e38ed64bf6a1f0160401b8310612cb95772184f03e93ff9f4daa797ed6e38ed64bf6a1f0160401b830492506040015b6d04ee2d6d415b85acef81000000008310612ce5576d04ee2d6d415b85acef8100000000830492506020015b662386f26fc100008310612d0357662386f26fc10000830492506010015b6305f5e1008310612d1b576305f5e100830492506008015b6127108310612d2f57612710830492506004015b60648310612d41576064830492506002015b600a83106108d15760010192915050565b612d5a613030565b612234868686868686613330565b6001600160a01b0384163b156122345760405163bc197c8160e01b81526001600160a01b0385169063bc197c8190612dac90899089908890889088906004016144de565b6020604051808303816000875af1925050508015612de7575060408051601f3d908101601f19168201909252612de49181019061453c565b60015b612e9357612df3614559565b806308c379a003612e2c5750612e07614574565b80612e125750612e2e565b8060405162461bcd60e51b81526004016108a391906137e0565b505b60405162461bcd60e51b815260206004820152603460248201527f455243313135353a207472616e7366657220746f206e6f6e2d455243313135356044820152732932b1b2b4bb32b91034b6b83632b6b2b73a32b960611b60648201526084016108a3565b6001600160e01b0319811663bc197c8160e01b146128905760405162461bcd60e51b81526004016108a3906145fd565b6001600160a01b0381163b612f305760405162461bcd60e51b815260206004820152602d60248201527f455243313936373a206e657720696d706c656d656e746174696f6e206973206e60448201526c1bdd08184818dbdb9d1c9858dd609a1b60648201526084016108a3565b6000805160206146be83398151915280546001600160a01b0319166001600160a01b0392909216919091179055565b612f68836134ac565b600082511180612f755750805b15610cea57610b2d83836134ec565b60c95460ff166127065760405162461bcd60e51b815260206004820152601460248201527314185d5cd8589b194e881b9bdd081c185d5cd95960621b60448201526064016108a3565b600054610100900460ff16612ff45760405162461bcd60e51b81526004016108a39061441e565b610e4581611f5d565b600054610100900460ff166130245760405162461bcd60e51b81526004016108a39061441e565b60c9805460ff19169055565b60c95460ff16156127065760405162461bcd60e51b815260206004820152601060248201526f14185d5cd8589b194e881c185d5cd95960821b60448201526064016108a3565b604080516001808252818301909252606091600091906020808301908036833701905050905082816000815181106130b0576130b06140fa565b602090810291909101015292915050565b6001600160a01b0384163b156122345760405163f23a6e6160e01b81526001600160a01b0385169063f23a6e61906131059089908990889088908890600401614645565b6020604051808303816000875af1925050508015613140575060408051601f3d908101601f1916820190925261313d9181019061453c565b60015b61314c57612df3614559565b6001600160e01b0319811663f23a6e6160e01b146128905760405162461bcd60e51b81526004016108a3906145fd565b60606108d16001600160a01b03831660145b6060600061319d836002614123565b6131a8906002614110565b6001600160401b038111156131bf576131bf61368e565b6040519080825280601f01601f1916602001820160405280156131e9576020820181803683370190505b509050600360fc1b81600081518110613204576132046140fa565b60200101906001600160f81b031916908160001a905350600f60fb1b81600181518110613233576132336140fa565b60200101906001600160f81b031916908160001a9053506000613257846002614123565b613262906001614110565b90505b60018111156132da576f181899199a1a9b1b9c1cb0b131b232b360811b85600f1660108110613296576132966140fa565b1a60f81b8282815181106132ac576132ac6140fa565b60200101906001600160f81b031916908160001a90535060049490941c936132d38161468a565b9050613265565b5083156133295760405162461bcd60e51b815260206004820181905260248201527f537472696e67733a20686578206c656e67746820696e73756666696369656e7460448201526064016108a3565b9392505050565b6001600160a01b0385166133b85760005b83518110156133b65782818151811061335c5761335c6140fa565b602002602001015161012d600086848151811061337b5761337b6140fa565b6020026020010151815260200190815260200160002060008282546133a09190614110565b909155506133af905081613fc7565b9050613341565b505b6001600160a01b0384166122345760005b83518110156128905760008482815181106133e6576133e66140fa565b602002602001015190506000848381518110613404576134046140fa565b60200260200101519050600061012d6000848152602001908152602001600020549050818110156134885760405162461bcd60e51b815260206004820152602860248201527f455243313135353a206275726e20616d6f756e74206578636565647320746f74604482015267616c537570706c7960c01b60648201526084016108a3565b600092835261012d6020526040909220910390556134a581613fc7565b90506133c9565b6134b581612ec3565b6040516001600160a01b038216907fbc7cd75a20ee27fd9adebab32041f755214dbc6bffa90cc0225b39da2e5c2d3b90600090a250565b606061332983836040518060600160405280602781526020016146de602791396060600080856001600160a01b03168560405161352991906146a1565b600060405180830381855af49150503d8060008114613564576040519150601f19603f3d011682016040523d82523d6000602084013e613569565b606091505b509150915061357a86838387613584565b9695505050505050565b606083156135f35782516000036135ec576001600160a01b0385163b6135ec5760405162461bcd60e51b815260206004820152601d60248201527f416464726573733a2063616c6c20746f206e6f6e2d636f6e747261637400000060448201526064016108a3565b50816135fd565b6135fd8383613605565b949350505050565b815115612e125781518083602001fd5b80356001600160a01b038116811461362c57600080fd5b919050565b6000806040838503121561364457600080fd5b61364d83613615565b946020939093013593505050565b6001600160e01b031981168114610e4557600080fd5b60006020828403121561368357600080fd5b81356133298161365b565b634e487b7160e01b600052604160045260246000fd5b601f8201601f191681016001600160401b03811182821017156136c9576136c961368e565b6040525050565b600082601f8301126136e157600080fd5b81356001600160401b038111156136fa576136fa61368e565b604051613711601f8301601f1916602001826136a4565b81815284602083860101111561372657600080fd5b816020850160208301376000918101602001919091529392505050565b60006020828403121561375557600080fd5b81356001600160401b0381111561376b57600080fd5b6135fd848285016136d0565b60006020828403121561378957600080fd5b5035919050565b60005b838110156137ab578181015183820152602001613793565b50506000910152565b600081518084526137cc816020860160208601613790565b601f01601f19169290920160200192915050565b60208152600061332960208301846137b4565b634e487b7160e01b600052602160045260246000fd5b6004811061382757634e487b7160e01b600052602160045260246000fd5b9052565b6138358188613809565b85602082015284604082015260018060a01b038416606082015260c06080820152600061386560c08301856137b4565b82810360a084015261387781856137b4565b9998505050505050505050565b60006001600160401b0382111561389d5761389d61368e565b5060051b60200190565b600082601f8301126138b857600080fd5b813560206138c582613884565b6040516138d282826136a4565b83815260059390931b85018201928281019150868411156138f257600080fd5b8286015b8481101561390d57803583529183019183016138f6565b509695505050505050565b600080600080600060a0868803121561393057600080fd5b61393986613615565b945061394760208701613615565b935060408601356001600160401b038082111561396357600080fd5b61396f89838a016138a7565b9450606088013591508082111561398557600080fd5b61399189838a016138a7565b935060808801359150808211156139a757600080fd5b506139b4888289016136d0565b9150509295509295909350565b600080604083850312156139d457600080fd5b823591506139e460208401613615565b90509250929050565b6000602082840312156139ff57600080fd5b61332982613615565b60008060408385031215613a1b57600080fd5b82356001600160401b0380821115613a3257600080fd5b818501915085601f830112613a4657600080fd5b81356020613a5382613884565b604051613a6082826136a4565b83815260059390931b8501820192828101915089841115613a8057600080fd5b948201945b83861015613aa557613a9686613615565b82529482019490820190613a85565b96505086013592505080821115613abb57600080fd5b50613ac8858286016138a7565b9150509250929050565b600081518084526020808501945080840160005b83811015613b0257815187529582019590820190600101613ae6565b509495945050505050565b6020815260006133296020830184613ad2565b60008060408385031215613b3357600080fd5b613b3c83613615565b915060208301356001600160401b03811115613b5757600080fd5b613ac8858286016136d0565b600080600060608486031215613b7857600080fd5b613b8184613615565b925060208401356001600160401b0380821115613b9d57600080fd5b613ba9878388016138a7565b93506040860135915080821115613bbf57600080fd5b50613bcc868287016138a7565b9150509250925092565b60008060408385031215613be957600080fd5b8235915060208301356001600160401b03811115613b5757600080fd5b60008060008060808587031215613c1c57600080fd5b8435935060208501359250613c3360408601613615565b915060608501356001600160401b03811115613c4e57600080fd5b613c5a878288016136d0565b91505092959194509250565b60008060408385031215613c7957600080fd5b613c8283613615565b915060208301358015158114613c9757600080fd5b809150509250929050565b600080600080600060a08688031215613cba57600080fd5b85359450613cca60208701613615565b9350613cd860408701613615565b925060608601356001600160401b0380821115613cf457600080fd5b61399189838a016136d0565b60006020808301818452808551808352604092508286019150828160051b87010184880160005b83811015613d6857888303603f1901855281518051878552613d4b888601826137b4565b918901519489019490945294870194925090860190600101613d27565b509098975050505050505050565b60008060408385031215613d8957600080fd5b50508035926020909101359150565b60006020808301818452808551808352604092508286019150828160051b87010184880160005b83811015613d6857603f19898403018552815160c0613ddf858351613809565b81890151858a015287820151888601526060808301516001600160a01b031690860152608080830151818701839052613e1a838801826137b4565b9250505060a08083015192508582038187015250613e3881836137b4565b968901969450505090860190600101613dbf565b600080600060608486031215613e6157600080fd5b8335925060208401356001600160401b0380821115613e7f57600080fd5b613e8b878388016136d0565b93506040860135915080821115613ea157600080fd5b50613bcc868287016136d0565b60008060408385031215613ec157600080fd5b613eca83613615565b91506139e460208401613615565b600080600080600060a08688031215613ef057600080fd5b613ef986613615565b9450613f0760208701613615565b9350604086013592506060860135915060808601356001600160401b03811115613f3057600080fd5b6139b4888289016136d0565b600080600060608486031215613f5157600080fd5b613f5a84613615565b95602085013595506040909401359392505050565b60008351613f81818460208801613790565b835190830190613f95818360208801613790565b01949350505050565b634e487b7160e01b600052601160045260246000fd5b818103818111156108d1576108d1613f9e565b600060018201613fd957613fd9613f9e565b5060010190565b600181811c90821680613ff457607f821691505b602082108103611c8857634e487b7160e01b600052602260045260246000fd5b6020808252602e908201527f455243313135353a2063616c6c6572206973206e6f7420746f6b656e206f776e60408201526d195c881bdc88185c1c1c9bdd995960921b606082015260800190565b6020808252602c908201527f46756e6374696f6e206d7573742062652063616c6c6564207468726f7567682060408201526b19195b1959d85d1958d85b1b60a21b606082015260800190565b6020808252602c908201527f46756e6374696f6e206d7573742062652063616c6c6564207468726f7567682060408201526b6163746976652070726f787960a01b606082015260800190565b634e487b7160e01b600052603260045260246000fd5b808201808211156108d1576108d1613f9e565b80820281158282048414176108d1576108d1613f9e565b601f821115610cea57600081815260208120601f850160051c810160208610156141615750805b601f850160051c820191505b818110156122345782815560010161416d565b81516001600160401b038111156141995761419961368e565b6141ad816141a78454613fe0565b8461413a565b602080601f8311600181146141e257600084156141ca5750858301515b600019600386901b1c1916600185901b178555612234565b600085815260208120601f198616915b82811015614211578886015182559484019460019091019084016141f2565b508582101561422f5787850151600019600388901b60f8161c191681555b5050505050600190811b01905550565b84815260806020820152600061425860808301866137b4565b6040830194909452506001600160a01b039190911660609091015292915050565b60208082526028908201527f455243313135353a2069647320616e6420616d6f756e7473206c656e677468206040820152670dad2e6dac2e8c6d60c31b606082015260800190565b60208082526025908201527f455243313135353a207472616e7366657220746f20746865207a65726f206164604082015264647265737360d81b606082015260800190565b6020808252602a908201527f455243313135353a20696e73756666696369656e742062616c616e636520666f60408201526939103a3930b739b332b960b11b606082015260800190565b6040815260006143636040830185613ad2565b82810360208401526143758185613ad2565b95945050505050565b60006020828403121561439057600080fd5b5051919050565b60208082526023908201527f455243313135353a206275726e2066726f6d20746865207a65726f206164647260408201526265737360e81b606082015260800190565b60208082526024908201527f455243313135353a206275726e20616d6f756e7420657863656564732062616c604082015263616e636560e01b606082015260800190565b6020808252602b908201527f496e697469616c697a61626c653a20636f6e7472616374206973206e6f74206960408201526a6e697469616c697a696e6760a81b606082015260800190565b7f416363657373436f6e74726f6c3a206163636f756e74200000000000000000008152600083516144a1816017850160208801613790565b7001034b99036b4b9b9b4b733903937b6329607d1b60179184019182015283516144d2816028840160208801613790565b01602801949350505050565b6001600160a01b0386811682528516602082015260a06040820181905260009061450a90830186613ad2565b828103606084015261451c8186613ad2565b9050828103608084015261453081856137b4565b98975050505050505050565b60006020828403121561454e57600080fd5b81516133298161365b565b600060033d11156111205760046000803e5060005160e01c90565b600060443d10156145825790565b6040516003193d81016004833e81513d6001600160401b0381602484011181841117156145b157505050505090565b82850191508151818111156145c95750505050505090565b843d87010160208285010111156145e35750505050505090565b6145f2602082860101876136a4565b509095945050505050565b60208082526028908201527f455243313135353a204552433131353552656365697665722072656a656374656040820152676420746f6b656e7360c01b606082015260800190565b6001600160a01b03868116825285166020820152604081018490526060810183905260a06080820181905260009061467f908301846137b4565b979650505050505050565b60008161469957614699613f9e565b506000190190565b600082516146b3818460208701613790565b919091019291505056fe360894a13ba1a3210667c828492db98dca3e2076cc3735a920a3ca505d382bbc416464726573733a206c6f772d6c6576656c2064656c65676174652063616c6c206661696c656468747470733a2f2f72616461726c61756e63682e6170702f6170692f6d65746164617461a2646970667358221220c1174f1d1429b4fb2afcbf1349364396ef74d32900209bacff1e0c0f6dda1c9b64736f6c63430008130033",
  "linkReferences": {},
  "deployedLinkReferences": {}
}