{
  "_format": "hh-sol-artifact-1",
  "contractName": "RadarEditions",
  "sourceName": "src/RadarEditions.sol",
  "abi": [
    {
      "inputs": [],
      "stateMutability": "nonpayable",
      "type": "constructor"
    },
    {
      "inputs": [],
      "name": "EditionFeeExceedsMaximumFee",
      "type": "error"
    },
    {
      "inputs": [],
      "name": "EditionNotCreated",
      "type": "error"
    },
    {
      "inputs": [],
      "name": "EditionNotEnoughBalance",
      "type": "error"
    },
    {
      "inputs": [],
      "name": "EditionNotLaunched",
      "type": "error"
    },
    {
      "inputs": [],
      "name": "EditionNotStopped",
      "type": "error"
    },
    {
      "inputs": [],
      "name": "NotEditionOwner",
      "type": "error"
    },
    {
      "inputs": [],
      "name": "NotEnoughFunds",
      "type": "error"
    },
    {
      "inputs": [],
      "name": "TransactionFailed",
      "type": "error"
    },
    {
      "anonymous": false,
      "inputs": [
        {
          "indexed": false,
          "internalType": "address",
          "name": "previousAdmin",
          "type": "address"
        },
        {
          "indexed": false,
          "internalType": "address",
          "name": "newAdmin",
          "type": "address"
        }
      ],
      "name": "AdminChanged",
      "type": "event"
    },
    {
      "anonymous": false,
      "inputs": [
        {
          "indexed": true,
          "internalType": "address",
          "name": "account",
          "type": "address"
        },
        {
          "indexed": true,
          "internalType": "address",
          "name": "operator",
          "type": "address"
        },
        {
          "indexed": false,
          "internalType": "bool",
          "name": "approved",
          "type": "bool"
        }
      ],
      "name": "ApprovalForAll",
      "type": "event"
    },
    {
      "anonymous": false,
      "inputs": [
        {
          "indexed": true,
          "internalType": "address",
          "name": "beacon",
          "type": "address"
        }
      ],
      "name": "BeaconUpgraded",
      "type": "event"
    },
    {
      "anonymous": false,
      "inputs": [
        {
          "indexed": false,
          "internalType": "uint256",
          "name": "editionId",
          "type": "uint256"
        }
      ],
      "name": "EditionApproved",
      "type": "event"
    },
    {
      "anonymous": false,
      "inputs": [
        {
          "indexed": false,
          "internalType": "uint256",
          "name": "editionId",
          "type": "uint256"
        },
        {
          "indexed": false,
          "internalType": "uint256",
          "name": "amount",
          "type": "uint256"
        },
        {
          "indexed": false,
          "internalType": "address",
          "name": "owner",
          "type": "address"
        }
      ],
      "name": "EditionBalanceWithdrawn",
      "type": "event"
    },
    {
      "anonymous": false,
      "inputs": [
        {
          "indexed": false,
          "internalType": "uint256",
          "name": "editionId",
          "type": "uint256"
        },
        {
          "indexed": false,
          "internalType": "uint256",
          "name": "fee",
          "type": "uint256"
        },
        {
          "indexed": false,
          "internalType": "address",
          "name": "owner",
          "type": "address"
        }
      ],
      "name": "EditionCreated",
      "type": "event"
    },
    {
      "anonymous": false,
      "inputs": [
        {
          "indexed": false,
          "internalType": "uint256",
          "name": "editionId",
          "type": "uint256"
        }
      ],
      "name": "EditionResumed",
      "type": "event"
    },
    {
      "anonymous": false,
      "inputs": [
        {
          "indexed": false,
          "internalType": "uint256",
          "name": "editionId",
          "type": "uint256"
        }
      ],
      "name": "EditionStopped",
      "type": "event"
    },
    {
      "anonymous": false,
      "inputs": [
        {
          "indexed": false,
          "internalType": "uint8",
          "name": "version",
          "type": "uint8"
        }
      ],
      "name": "Initialized",
      "type": "event"
    },
    {
      "anonymous": false,
      "inputs": [
        {
          "indexed": false,
          "internalType": "address",
          "name": "account",
          "type": "address"
        }
      ],
      "name": "Paused",
      "type": "event"
    },
    {
      "anonymous": false,
      "inputs": [
        {
          "indexed": true,
          "internalType": "bytes32",
          "name": "role",
          "type": "bytes32"
        },
        {
          "indexed": true,
          "internalType": "bytes32",
          "name": "previousAdminRole",
          "type": "bytes32"
        },
        {
          "indexed": true,
          "internalType": "bytes32",
          "name": "newAdminRole",
          "type": "bytes32"
        }
      ],
      "name": "RoleAdminChanged",
      "type": "event"
    },
    {
      "anonymous": false,
      "inputs": [
        {
          "indexed": true,
          "internalType": "bytes32",
          "name": "role",
          "type": "bytes32"
        },
        {
          "indexed": true,
          "internalType": "address",
          "name": "account",
          "type": "address"
        },
        {
          "indexed": true,
          "internalType": "address",
          "name": "sender",
          "type": "address"
        }
      ],
      "name": "RoleGranted",
      "type": "event"
    },
    {
      "anonymous": false,
      "inputs": [
        {
          "indexed": true,
          "internalType": "bytes32",
          "name": "role",
          "type": "bytes32"
        },
        {
          "indexed": true,
          "internalType": "address",
          "name": "account",
          "type": "address"
        },
        {
          "indexed": true,
          "internalType": "address",
          "name": "sender",
          "type": "address"
        }
      ],
      "name": "RoleRevoked",
      "type": "event"
    },
    {
      "anonymous": false,
      "inputs": [
        {
          "indexed": true,
          "internalType": "address",
          "name": "operator",
          "type": "address"
        },
        {
          "indexed": true,
          "internalType": "address",
          "name": "from",
          "type": "address"
        },
        {
          "indexed": true,
          "internalType": "address",
          "name": "to",
          "type": "address"
        },
        {
          "indexed": false,
          "internalType": "uint256[]",
          "name": "ids",
          "type": "uint256[]"
        },
        {
          "indexed": false,
          "internalType": "uint256[]",
          "name": "values",
          "type": "uint256[]"
        }
      ],
      "name": "TransferBatch",
      "type": "event"
    },
    {
      "anonymous": false,
      "inputs": [
        {
          "indexed": true,
          "internalType": "address",
          "name": "operator",
          "type": "address"
        },
        {
          "indexed": true,
          "internalType": "address",
          "name": "from",
          "type": "address"
        },
        {
          "indexed": true,
          "internalType": "address",
          "name": "to",
          "type": "address"
        },
        {
          "indexed": false,
          "internalType": "uint256",
          "name": "id",
          "type": "uint256"
        },
        {
          "indexed": false,
          "internalType": "uint256",
          "name": "value",
          "type": "uint256"
        }
      ],
      "name": "TransferSingle",
      "type": "event"
    },
    {
      "anonymous": false,
      "inputs": [
        {
          "indexed": false,
          "internalType": "string",
          "name": "value",
          "type": "string"
        },
        {
          "indexed": true,
          "internalType": "uint256",
          "name": "id",
          "type": "uint256"
        }
      ],
      "name": "URI",
      "type": "event"
    },
    {
      "anonymous": false,
      "inputs": [
        {
          "indexed": false,
          "internalType": "address",
          "name": "account",
          "type": "address"
        }
      ],
      "name": "Unpaused",
      "type": "event"
    },
    {
      "anonymous": false,
      "inputs": [
        {
          "indexed": true,
          "internalType": "address",
          "name": "implementation",
          "type": "address"
        }
      ],
      "name": "Upgraded",
      "type": "event"
    },
    {
      "stateMutability": "payable",
      "type": "fallback"
    },
    {
      "inputs": [],
      "name": "DEFAULT_ADMIN_ROLE",
      "outputs": [
        {
          "internalType": "bytes32",
          "name": "",
          "type": "bytes32"
        }
      ],
      "stateMutability": "view",
      "type": "function"
    },
    {
      "inputs": [
        {
          "internalType": "uint256",
          "name": "editionId",
          "type": "uint256"
        }
      ],
      "name": "approveEdition",
      "outputs": [],
      "stateMutability": "nonpayable",
      "type": "function"
    },
    {
      "inputs": [
        {
          "internalType": "address",
          "name": "account",
          "type": "address"
        },
        {
          "internalType": "uint256",
          "name": "id",
          "type": "uint256"
        }
      ],
      "name": "balanceOf",
      "outputs": [
        {
          "internalType": "uint256",
          "name": "",
          "type": "uint256"
        }
      ],
      "stateMutability": "view",
      "type": "function"
    },
    {
      "inputs": [
        {
          "internalType": "address[]",
          "name": "accounts",
          "type": "address[]"
        },
        {
          "internalType": "uint256[]",
          "name": "ids",
          "type": "uint256[]"
        }
      ],
      "name": "balanceOfBatch",
      "outputs": [
        {
          "internalType": "uint256[]",
          "name": "",
          "type": "uint256[]"
        }
      ],
      "stateMutability": "view",
      "type": "function"
    },
    {
      "inputs": [
        {
          "internalType": "address",
          "name": "account",
          "type": "address"
        },
        {
          "internalType": "uint256",
          "name": "id",
          "type": "uint256"
        },
        {
          "internalType": "uint256",
          "name": "value",
          "type": "uint256"
        }
      ],
      "name": "burn",
      "outputs": [],
      "stateMutability": "nonpayable",
      "type": "function"
    },
    {
      "inputs": [
        {
          "internalType": "address",
          "name": "account",
          "type": "address"
        },
        {
          "internalType": "uint256[]",
          "name": "ids",
          "type": "uint256[]"
        },
        {
          "internalType": "uint256[]",
          "name": "values",
          "type": "uint256[]"
        }
      ],
      "name": "burnBatch",
      "outputs": [],
      "stateMutability": "nonpayable",
      "type": "function"
    },
    {
      "inputs": [
        {
          "internalType": "uint256",
          "name": "fee",
          "type": "uint256"
        },
        {
          "internalType": "address",
          "name": "owner",
          "type": "address"
        },
        {
          "internalType": "address",
          "name": "payer",
          "type": "address"
        },
        {
          "internalType": "string",
          "name": "id",
          "type": "string"
        }
      ],
      "name": "createEdition",
      "outputs": [
        {
          "internalType": "uint256",
          "name": "editionId",
          "type": "uint256"
        }
      ],
      "stateMutability": "nonpayable",
      "type": "function"
    },
    {
      "inputs": [],
      "name": "editionCounter",
      "outputs": [
        {
          "internalType": "uint256",
          "name": "",
          "type": "uint256"
        }
      ],
      "stateMutability": "view",
      "type": "function"
    },
    {
      "inputs": [
        {
          "internalType": "uint256",
          "name": "",
          "type": "uint256"
        }
      ],
      "name": "editions",
      "outputs": [
        {
          "internalType": "enum EditionsStructs.EditionStatus",
          "name": "status",
          "type": "uint8"
        },
        {
          "internalType": "uint256",
          "name": "fee",
          "type": "uint256"
        },
        {
          "internalType": "uint256",
          "name": "balance",
          "type": "uint256"
        },
        {
          "internalType": "address",
          "name": "owner",
          "type": "address"
        },
        {
          "internalType": "string",
          "name": "id",
          "type": "string"
        }
      ],
      "stateMutability": "view",
      "type": "function"
    },
    {
      "inputs": [
        {
          "internalType": "uint256",
          "name": "id",
          "type": "uint256"
        }
      ],
      "name": "exists",
      "outputs": [
        {
          "internalType": "bool",
          "name": "",
          "type": "bool"
        }
      ],
      "stateMutability": "view",
      "type": "function"
    },
    {
      "inputs": [
        {
          "internalType": "address",
          "name": "owner",
          "type": "address"
        }
      ],
      "name": "getBalances",
      "outputs": [
        {
          "components": [
            {
              "internalType": "string",
              "name": "id",
              "type": "string"
            },
            {
              "internalType": "uint256",
              "name": "amount",
              "type": "uint256"
            }
          ],
          "internalType": "struct EditionsStructs.EditionIdWithAmount[]",
          "name": "",
          "type": "tuple[]"
        }
      ],
      "stateMutability": "view",
      "type": "function"
    },
    {
      "inputs": [],
      "name": "getEditions",
      "outputs": [
        {
          "components": [
            {
              "internalType": "enum EditionsStructs.EditionStatus",
              "name": "status",
              "type": "uint8"
            },
            {
              "internalType": "uint256",
              "name": "fee",
              "type": "uint256"
            },
            {
              "internalType": "uint256",
              "name": "balance",
              "type": "uint256"
            },
            {
              "internalType": "address",
              "name": "owner",
              "type": "address"
            },
            {
              "internalType": "string",
              "name": "id",
              "type": "string"
            }
          ],
          "internalType": "struct EditionsStructs.Edition[]",
          "name": "",
          "type": "tuple[]"
        }
      ],
      "stateMutability": "view",
      "type": "function"
    },
    {
      "inputs": [
        {
          "internalType": "bytes32",
          "name": "role",
          "type": "bytes32"
        }
      ],
      "name": "getRoleAdmin",
      "outputs": [
        {
          "internalType": "bytes32",
          "name": "",
          "type": "bytes32"
        }
      ],
      "stateMutability": "view",
      "type": "function"
    },
    {
      "inputs": [
        {
          "internalType": "bytes32",
          "name": "role",
          "type": "bytes32"
        },
        {
          "internalType": "address",
          "name": "account",
          "type": "address"
        }
      ],
      "name": "grantRole",
      "outputs": [],
      "stateMutability": "nonpayable",
      "type": "function"
    },
    {
      "inputs": [
        {
          "internalType": "bytes32",
          "name": "role",
          "type": "bytes32"
        },
        {
          "internalType": "address",
          "name": "account",
          "type": "address"
        }
      ],
      "name": "hasRole",
      "outputs": [
        {
          "internalType": "bool",
          "name": "",
          "type": "bool"
        }
      ],
      "stateMutability": "view",
      "type": "function"
    },
    {
      "inputs": [],
      "name": "initialize",
      "outputs": [],
      "stateMutability": "nonpayable",
      "type": "function"
    },
    {
      "inputs": [
        {
          "internalType": "address",
          "name": "account",
          "type": "address"
        },
        {
          "internalType": "address",
          "name": "operator",
          "type": "address"
        }
      ],
      "name": "isApprovedForAll",
      "outputs": [
        {
          "internalType": "bool",
          "name": "",
          "type": "bool"
        }
      ],
      "stateMutability": "view",
      "type": "function"
    },
    {
      "inputs": [],
      "name": "maximumEditionFee",
      "outputs": [
        {
          "internalType": "uint256",
          "name": "",
          "type": "uint256"
        }
      ],
      "stateMutability": "view",
      "type": "function"
    },
    {
      "inputs": [
        {
          "internalType": "uint256",
          "name": "editionId",
          "type": "uint256"
        },
        {
          "internalType": "uint256",
          "name": "amount",
          "type": "uint256"
        },
        {
          "internalType": "address",
          "name": "buyer",
          "type": "address"
        },
        {
          "internalType": "bytes",
          "name": "data",
          "type": "bytes"
        }
      ],
      "name": "mintEdition",
      "outputs": [],
      "stateMutability": "payable",
      "type": "function"
    },
    {
      "inputs": [],
      "name": "pause",
      "outputs": [],
      "stateMutability": "nonpayable",
      "type": "function"
    },
    {
      "inputs": [],
      "name": "paused",
      "outputs": [
        {
          "internalType": "bool",
          "name": "",
          "type": "bool"
        }
      ],
      "stateMutability": "view",
      "type": "function"
    },
    {
      "inputs": [],
      "name": "protocolFee",
      "outputs": [
        {
          "internalType": "uint256",
          "name": "",
          "type": "uint256"
        }
      ],
      "stateMutability": "view",
      "type": "function"
    },
    {
      "inputs": [],
      "name": "proxiableUUID",
      "outputs": [
        {
          "internalType": "bytes32",
          "name": "",
          "type": "bytes32"
        }
      ],
      "stateMutability": "view",
      "type": "function"
    },
    {
      "inputs": [
        {
          "internalType": "bytes32",
          "name": "role",
          "type": "bytes32"
        },
        {
          "internalType": "address",
          "name": "account",
          "type": "address"
        }
      ],
      "name": "renounceRole",
      "outputs": [],
      "stateMutability": "nonpayable",
      "type": "function"
    },
    {
      "inputs": [
        {
          "internalType": "uint256",
          "name": "editionId",
          "type": "uint256"
        }
      ],
      "name": "resumeEdition",
      "outputs": [],
      "stateMutability": "nonpayable",
      "type": "function"
    },
    {
      "inputs": [
        {
          "internalType": "bytes32",
          "name": "role",
          "type": "bytes32"
        },
        {
          "internalType": "address",
          "name": "account",
          "type": "address"
        }
      ],
      "name": "revokeRole",
      "outputs": [],
      "stateMutability": "nonpayable",
      "type": "function"
    },
    {
      "inputs": [
        {
          "internalType": "address",
          "name": "from",
          "type": "address"
        },
        {
          "internalType": "address",
          "name": "to",
          "type": "address"
        },
        {
          "internalType": "uint256[]",
          "name": "ids",
          "type": "uint256[]"
        },
        {
          "internalType": "uint256[]",
          "name": "amounts",
          "type": "uint256[]"
        },
        {
          "internalType": "bytes",
          "name": "data",
          "type": "bytes"
        }
      ],
      "name": "safeBatchTransferFrom",
      "outputs": [],
      "stateMutability": "nonpayable",
      "type": "function"
    },
    {
      "inputs": [
        {
          "internalType": "address",
          "name": "from",
          "type": "address"
        },
        {
          "internalType": "address",
          "name": "to",
          "type": "address"
        },
        {
          "internalType": "uint256",
          "name": "id",
          "type": "uint256"
        },
        {
          "internalType": "uint256",
          "name": "amount",
          "type": "uint256"
        },
        {
          "internalType": "bytes",
          "name": "data",
          "type": "bytes"
        }
      ],
      "name": "safeTransferFrom",
      "outputs": [],
      "stateMutability": "nonpayable",
      "type": "function"
    },
    {
      "inputs": [
        {
          "internalType": "address",
          "name": "operator",
          "type": "address"
        },
        {
          "internalType": "bool",
          "name": "approved",
          "type": "bool"
        }
      ],
      "name": "setApprovalForAll",
      "outputs": [],
      "stateMutability": "nonpayable",
      "type": "function"
    },
    {
      "inputs": [
        {
          "internalType": "uint256",
          "name": "_maximumEditionFee",
          "type": "uint256"
        }
      ],
      "name": "setMaximumEditionFee",
      "outputs": [],
      "stateMutability": "nonpayable",
      "type": "function"
    },
    {
      "inputs": [
        {
          "internalType": "uint256",
          "name": "_protocolFee",
          "type": "uint256"
        }
      ],
      "name": "setProtocolFee",
      "outputs": [],
      "stateMutability": "nonpayable",
      "type": "function"
    },
    {
      "inputs": [
        {
          "internalType": "string",
          "name": "newuri",
          "type": "string"
        }
      ],
      "name": "setURI",
      "outputs": [],
      "stateMutability": "nonpayable",
      "type": "function"
    },
    {
      "inputs": [
        {
          "internalType": "uint256",
          "name": "editionId",
          "type": "uint256"
        }
      ],
      "name": "stopEdition",
      "outputs": [],
      "stateMutability": "nonpayable",
      "type": "function"
    },
    {
      "inputs": [
        {
          "internalType": "bytes4",
          "name": "interfaceId",
          "type": "bytes4"
        }
      ],
      "name": "supportsInterface",
      "outputs": [
        {
          "internalType": "bool",
          "name": "",
          "type": "bool"
        }
      ],
      "stateMutability": "view",
      "type": "function"
    },
    {
      "inputs": [
        {
          "internalType": "uint256",
          "name": "id",
          "type": "uint256"
        }
      ],
      "name": "totalSupply",
      "outputs": [
        {
          "internalType": "uint256",
          "name": "",
          "type": "uint256"
        }
      ],
      "stateMutability": "view",
      "type": "function"
    },
    {
      "inputs": [],
      "name": "unpause",
      "outputs": [],
      "stateMutability": "nonpayable",
      "type": "function"
    },
    {
      "inputs": [
        {
          "internalType": "address",
          "name": "newImplementation",
          "type": "address"
        }
      ],
      "name": "upgradeTo",
      "outputs": [],
      "stateMutability": "nonpayable",
      "type": "function"
    },
    {
      "inputs": [
        {
          "internalType": "address",
          "name": "newImplementation",
          "type": "address"
        },
        {
          "internalType": "bytes",
          "name": "data",
          "type": "bytes"
        }
      ],
      "name": "upgradeToAndCall",
      "outputs": [],
      "stateMutability": "payable",
      "type": "function"
    },
    {
      "inputs": [
        {
          "internalType": "uint256",
          "name": "",
          "type": "uint256"
        }
      ],
      "name": "uri",
      "outputs": [
        {
          "internalType": "string",
          "name": "",
          "type": "string"
        }
      ],
      "stateMutability": "view",
      "type": "function"
    },
    {
      "inputs": [
        {
          "internalType": "uint256",
          "name": "editionId",
          "type": "uint256"
        },
        {
          "internalType": "uint256",
          "name": "amount",
          "type": "uint256"
        }
      ],
      "name": "withdrawEditionBalance",
      "outputs": [],
      "stateMutability": "nonpayable",
      "type": "function"
    },
    {
      "inputs": [
        {
          "internalType": "uint256",
          "name": "amount",
          "type": "uint256"
        }
      ],
      "name": "withdrawFunds",
      "outputs": [],
      "stateMutability": "nonpayable",
      "type": "function"
    },
    {
      "stateMutability": "payable",
      "type": "receive"
    }
  ],
  "bytecode": "0x60a0604052306080523480156200001557600080fd5b506200002062000026565b620000e7565b600054610100900460ff1615620000935760405162461bcd60e51b815260206004820152602760248201527f496e697469616c697a61626c653a20636f6e747261637420697320696e697469604482015266616c697a696e6760c81b606482015260840160405180910390fd5b60005460ff90811614620000e5576000805460ff191660ff9081179091556040519081527f7f26b83ff96e1f2b6a682f133852f6798a09c465da95921460cefb38474024989060200160405180910390a15b565b608051613fa56200011f60003960008181610c0201528181610c4201528181610e3c01528181610e7c0152610f0b0152613fa56000f3fe6080604052600436106102315760003560e01c80637357628c1161012d578063b0e21e8a116100b0578063d667c9ce11610077578063d667c9ce146106af578063df6efc6c146106cf578063e985e9c5146106f1578063f242432a1461073a578063f5298aca1461075a578063fc74efa21461077a57005b8063b0e21e8a14610606578063bd85b0391461061d578063c6fbb7121461064b578063c84aae1714610662578063d547741f1461068f57005b806391d14854116100f457806391d148541461057e57806391fc02f11461059e578063940123da146105be578063a217fddf146105d1578063a22cb465146105e657005b80637357628c146104f4578063787dce3d146105145780637cc74941146105345780638129fc1c146105545780638456cb591461056957005b806336568abe116101b55780634f558e791161017c5780634f558e791461046057806352d1902d146104905780635c975abb146104a55780636b20c454146104bd5780636b5cb789146104dd57005b806336568abe146103cb5780633659cfe6146103eb5780633f4ba83a1461040b5780634e1273f4146104205780634f1ef2861461044d57005b8063155dd5ee116101f9578063155dd5ee1461030a578063248a9ca31461032a578063279c806e1461035a5780632eb2c2d61461038b5780632f2ff15d146103ab57005b8062fdd58e1461023a57806301ffc9a71461026d57806302fe53051461029d5780630a579eca146102bd5780630e89341c146102dd57005b3661023857005b005b34801561024657600080fd5b5061025a610255366004612ffe565b61079a565b6040519081526020015b60405180910390f35b34801561027957600080fd5b5061028d61028836600461303e565b610835565b6040519015158152602001610264565b3480156102a957600080fd5b506102386102b8366004613110565b610840565b3480156102c957600080fd5b506102386102d8366004613144565b610877565b3480156102e957600080fd5b506102fd6102f8366004613144565b610948565b60405161026491906131ad565b34801561031657600080fd5b50610238610325366004613144565b6109dc565b34801561033657600080fd5b5061025a610345366004613144565b60009081526097602052604090206001015490565b34801561036657600080fd5b5061037a610375366004613144565b610a55565b6040516102649594939291906131f8565b34801561039757600080fd5b506102386103a63660046132d1565b610b1d565b3480156103b757600080fd5b506102386103c636600461337a565b610b69565b3480156103d757600080fd5b506102386103e636600461337a565b610b7e565b3480156103f757600080fd5b506102386104063660046133a6565b610bf8565b34801561041757600080fd5b50610238610cd7565b34801561042c57600080fd5b5061044061043b3660046133c1565b610d09565b60405161026491906134c6565b61023861045b3660046134d9565b610e32565b34801561046c57600080fd5b5061028d61047b366004613144565b600090815261012d6020526040902054151590565b34801561049c57600080fd5b5061025a610efe565b3480156104b157600080fd5b5060c95460ff1661028d565b3480156104c957600080fd5b506102386104d836600461351c565b610fb2565b3480156104e957600080fd5b5061025a6101c35481565b34801561050057600080fd5b5061023861050f366004613144565b610ff5565b34801561052057600080fd5b5061023861052f366004613144565b611096565b34801561054057600080fd5b5061023861054f366004613144565b6110a8565b34801561056057600080fd5b506102386110ba565b34801561057557600080fd5b50610238611285565b34801561058a57600080fd5b5061028d61059936600461337a565b6112b7565b3480156105aa57600080fd5b5061025a6105b936600461358f565b6112e2565b6102386105cc3660046135f6565b61142a565b3480156105dd57600080fd5b5061025a600081565b3480156105f257600080fd5b50610238610601366004613623565b6114f3565b34801561061257600080fd5b5061025a6101c45481565b34801561062957600080fd5b5061025a610638366004613144565b600090815261012d602052604090205490565b34801561065757600080fd5b5061025a6101c65481565b34801561066e57600080fd5b5061068261067d3660046133a6565b6114fe565b604051610264919061365f565b34801561069b57600080fd5b506102386106aa36600461337a565b611668565b3480156106bb57600080fd5b506102386106ca3660046136d5565b61168d565b3480156106db57600080fd5b506106e46117cf565b60405161026491906136f7565b3480156106fd57600080fd5b5061028d61070c36600461378d565b6001600160a01b03918216600090815260666020908152604080832093909416825291909152205460ff1690565b34801561074657600080fd5b506102386107553660046137b7565b6119a5565b34801561076657600080fd5b5061023861077536600461381b565b6119ea565b34801561078657600080fd5b50610238610795366004613144565b611a2d565b60006001600160a01b03831661080a5760405162461bcd60e51b815260206004820152602a60248201527f455243313135353a2061646472657373207a65726f206973206e6f742061207660448201526930b634b21037bbb732b960b11b60648201526084015b60405180910390fd5b5060008181526065602090815260408083206001600160a01b03861684529091529020545b92915050565b600061082f82611af7565b7f7804d923f43a17d325d77e781528e0793b2edd9890ab45fc64efd7b4b427744c61086a81611b1c565b61087382611b26565b5050565b60008181526101c560205260409020600301546001600160a01b031633146108b25760405163388f811f60e01b815260040160405180910390fd5b600260008281526101c5602052604090205460ff1660038111156108d8576108d86131c0565b146108f657604051631f0fb6fd60e11b815260040160405180910390fd5b60008181526101c56020908152604091829020805460ff1916600317905590518281527f591913f977ab242c5871f116f36be231ff67df5e8e0bac1efd91fa8a723aca2b91015b60405180910390a150565b6060606780546109579061384e565b80601f01602080910402602001604051908101604052809291908181526020018280546109839061384e565b80156109d05780601f106109a5576101008083540402835291602001916109d0565b820191906000526020600020905b8154815290600101906020018083116109b357829003601f168201915b50505050509050919050565b60006109e781611b1c565b604051600090339084908381818185875af1925050503d8060008114610a29576040519150601f19603f3d011682016040523d82523d6000602084013e610a2e565b606091505b5050905080610a50576040516317f2c34560e31b815260040160405180910390fd5b505050565b6101c5602052600090815260409020805460018201546002830154600384015460048501805460ff90951695939492936001600160a01b0390921692610a9a9061384e565b80601f0160208091040260200160405190810160405280929190818152602001828054610ac69061384e565b8015610b135780601f10610ae857610100808354040283529160200191610b13565b820191906000526020600020905b815481529060010190602001808311610af657829003601f168201915b5050505050905085565b6001600160a01b038516331480610b395750610b39853361070c565b610b555760405162461bcd60e51b815260040161080190613882565b610b628585858585611b32565b5050505050565b6000610b7481611b1c565b610a508383611cdf565b6001600160a01b0381163314610bee5760405162461bcd60e51b815260206004820152602f60248201527f416363657373436f6e74726f6c3a2063616e206f6e6c792072656e6f756e636560448201526e103937b632b9903337b91039b2b63360891b6064820152608401610801565b6108738282611d65565b6001600160a01b037f0000000000000000000000000000000000000000000000000000000000000000163003610c405760405162461bcd60e51b8152600401610801906138d0565b7f00000000000000000000000000000000000000000000000000000000000000006001600160a01b0316610c89600080516020613f29833981519152546001600160a01b031690565b6001600160a01b031614610caf5760405162461bcd60e51b81526004016108019061391c565b610cb881611dcc565b60408051600080825260208201909252610cd491839190611df6565b50565b7f65d7a28e3265b37a6474929f336521b332c1681b933f6cb9f3376673440d862a610d0181611b1c565b610cd4611f61565b60608151835114610d6e5760405162461bcd60e51b815260206004820152602960248201527f455243313135353a206163636f756e747320616e6420696473206c656e677468604482015268040dad2e6dac2e8c6d60bb1b6064820152608401610801565b600083516001600160401b03811115610d8957610d8961305b565b604051908082528060200260200182016040528015610db2578160200160208202803683370190505b50905060005b8451811015610e2a57610dfd858281518110610dd657610dd6613968565b6020026020010151858381518110610df057610df0613968565b602002602001015161079a565b828281518110610e0f57610e0f613968565b6020908102919091010152610e2381613994565b9050610db8565b509392505050565b6001600160a01b037f0000000000000000000000000000000000000000000000000000000000000000163003610e7a5760405162461bcd60e51b8152600401610801906138d0565b7f00000000000000000000000000000000000000000000000000000000000000006001600160a01b0316610ec3600080516020613f29833981519152546001600160a01b031690565b6001600160a01b031614610ee95760405162461bcd60e51b81526004016108019061391c565b610ef282611dcc565b61087382826001611df6565b6000306001600160a01b037f00000000000000000000000000000000000000000000000000000000000000001614610f9e5760405162461bcd60e51b815260206004820152603860248201527f555550535570677261646561626c653a206d757374206e6f742062652063616c60448201527f6c6564207468726f7567682064656c656761746563616c6c00000000000000006064820152608401610801565b50600080516020613f298339815191525b90565b6001600160a01b038316331480610fce5750610fce833361070c565b610fea5760405162461bcd60e51b815260040161080190613882565b610a50838383611fb3565b600061100081611b1c565b600160008381526101c5602052604090205460ff166003811115611026576110266131c0565b146110445760405163137c9c1f60e31b815260040160405180910390fd5b60008281526101c56020908152604091829020805460ff1916600217905590518381527f8f4352ac8b4aefdd2333162306bbe09dd4f4ff6661e89ccc4e4dcced8794e8f7910160405180910390a15050565b60006110a181611b1c565b506101c455565b60006110b381611b1c565b506101c355565b600054610100900460ff16158080156110da5750600054600160ff909116105b806110f45750303b1580156110f4575060005460ff166001145b6111575760405162461bcd60e51b815260206004820152602e60248201527f496e697469616c697a61626c653a20636f6e747261637420697320616c72656160448201526d191e481a5b9a5d1a585b1a5e995960921b6064820152608401610801565b6000805460ff19166001179055801561117a576000805461ff0019166101001790555b61119260405180602001604052806000815250612154565b61119a612184565b6111a26121ad565b6111aa612184565b6111b2612184565b6111ba612184565b6111c5600033611cdf565b6111ef7f7804d923f43a17d325d77e781528e0793b2edd9890ab45fc64efd7b4b427744c33611cdf565b6112197f65d7a28e3265b37a6474929f336521b332c1681b933f6cb9f3376673440d862a33611cdf565b6112437f189ab7a9244df0848122154315af71fe140f3db0fe014031783b0946b8c9d2e333611cdf565b8015610cd4576000805461ff0019169055604051600181527f7f26b83ff96e1f2b6a682f133852f6798a09c465da95921460cefb38474024989060200161093d565b7f65d7a28e3265b37a6474929f336521b332c1681b933f6cb9f3376673440d862a6112af81611b1c565b610cd46121dc565b60009182526097602090815260408084206001600160a01b0393909316845291905290205460ff1690565b60006101c35485111561130857604051630f0c4c5f60e41b815260040160405180910390fd5b506101c6546040805160a0810190915280600181526020808201889052600060408084018290526001600160a01b038916606085015260809093018690528481526101c59091522081518154829060ff1916600183600381111561136e5761136e6131c0565b0217905550602082015160018201556040820151600282015560608201516003820180546001600160a01b0319166001600160a01b03909216919091179055608082015160048201906113c190826139f3565b50506101c68054915060006113d583613994565b909155505060408051828152602081018790526001600160a01b0386168183015290517f7fe7f72f14a53255f3c9e225ab1d40fdb21335b87a7912726a196fb816866ae09181900360600190a1949350505050565b600260008581526101c5602052604090205460ff166003811115611450576114506131c0565b1461146e57604051631f0fb6fd60e11b815260040160405180910390fd5b60008481526101c5602052604090206001015461148c908490613ab2565b3410156114ac57604051631036b5ad60e31b815260040160405180910390fd5b6114b882858584612219565b6101c4546114c69034613ac9565b60008581526101c56020526040812060020180549091906114e8908490613adc565b909155505050505050565b61087333838361233e565b606060006101c6546001600160401b0381111561151d5761151d61305b565b60405190808252806020026020018201604052801561156357816020015b60408051808201909152606081526000602082015281526020019060019003908161153b5790505b50905060005b6101c6548110156116615760405180604001604052806101c5600084815260200190815260200160002060040180546115a19061384e565b80601f01602080910402602001604051908101604052809291908181526020018280546115cd9061384e565b801561161a5780601f106115ef5761010080835404028352916020019161161a565b820191906000526020600020905b8154815290600101906020018083116115fd57829003601f168201915b5050505050815260200161162e868461079a565b81525082828151811061164357611643613968565b6020026020010181905250808061165990613994565b915050611569565b5092915050565b60008281526097602052604090206001015461168381611b1c565b610a508383611d65565b60008281526101c560205260409020600301546001600160a01b031633146116c85760405163388f811f60e01b815260040160405180910390fd5b60008281526101c560205260409020600201548111156116fb57604051637eafab7d60e01b815260040160405180910390fd5b604051600090339083908381818185875af1925050503d806000811461173d576040519150601f19603f3d011682016040523d82523d6000602084013e611742565b606091505b5050905080611764576040516317f2c34560e31b815260040160405180910390fd5b60008381526101c5602052604081206002018054849290611786908490613ac9565b90915550506040805184815260208101849052338183015290517ff1090e9d5138cd4909542e10e1da576730b07eb291a71a151e63160dde345b949181900360600190a1505050565b606060006101c6546001600160401b038111156117ee576117ee61305b565b60405190808252806020026020018201604052801561185b57816020015b6118486040805160a081019091528060008152602001600081526020016000815260200160006001600160a01b03168152602001606081525090565b81526020019060019003908161180c5790505b50905060005b6101c65481101561199f5760008181526101c5602052604090819020815160a081019092528054829060ff16600381111561189e5761189e6131c0565b60038111156118af576118af6131c0565b8152600182015460208201526002820154604082015260038201546001600160a01b031660608201526004820180546080909201916118ed9061384e565b80601f01602080910402602001604051908101604052809291908181526020018280546119199061384e565b80156119665780601f1061193b57610100808354040283529160200191611966565b820191906000526020600020905b81548152906001019060200180831161194957829003601f168201915b50505050508152505082828151811061198157611981613968565b6020026020010181905250808061199790613994565b915050611861565b50919050565b6001600160a01b0385163314806119c157506119c1853361070c565b6119dd5760405162461bcd60e51b815260040161080190613882565b610b62858585858561241e565b6001600160a01b038316331480611a065750611a06833361070c565b611a225760405162461bcd60e51b815260040161080190613882565b610a5083838361255a565b60008181526101c560205260409020600301546001600160a01b03163314611a685760405163388f811f60e01b815260040160405180910390fd5b600360008281526101c5602052604090205460ff166003811115611a8e57611a8e6131c0565b14611aac5760405163968807a560e01b815260040160405180910390fd5b60008181526101c56020908152604091829020805460ff1916600217905590518281527f63bb17c9645a29322601b4fe88d8f3fa84f32229368294f903084be8f5d813ba910161093d565b60006001600160e01b03198216637965db0b60e01b148061082f575061082f82612676565b610cd481336126c6565b606761087382826139f3565b8151835114611b535760405162461bcd60e51b815260040161080190613aef565b6001600160a01b038416611b795760405162461bcd60e51b815260040161080190613b37565b33611b8881878787878761271f565b60005b8451811015611c71576000858281518110611ba857611ba8613968565b602002602001015190506000858381518110611bc657611bc6613968565b60209081029190910181015160008481526065835260408082206001600160a01b038e168352909352919091205490915081811015611c175760405162461bcd60e51b815260040161080190613b7c565b60008381526065602090815260408083206001600160a01b038e8116855292528083208585039055908b16825281208054849290611c56908490613adc565b9250508190555050505080611c6a90613994565b9050611b8b565b50846001600160a01b0316866001600160a01b0316826001600160a01b03167f4a39dc06d4c0dbc64b70af90fd698a233a518aa5d07e595d983b8c0526c8f7fb8787604051611cc1929190613bc6565b60405180910390a4611cd7818787878787612735565b505050505050565b611ce982826112b7565b6108735760008281526097602090815260408083206001600160a01b03851684529091529020805460ff19166001179055611d213390565b6001600160a01b0316816001600160a01b0316837f2f8788117e7eff1d82e926ec794901d17c78024a50270940304540a733656f0d60405160405180910390a45050565b611d6f82826112b7565b156108735760008281526097602090815260408083206001600160a01b0385168085529252808320805460ff1916905551339285917ff6391f5c32d9c69d2a47ea670b442974b53935d1edc7fd64eb21e047a839171b9190a45050565b7f189ab7a9244df0848122154315af71fe140f3db0fe014031783b0946b8c9d2e361087381611b1c565b7f4910fdfa16fed3260ed0e7147f7cc6da11a60208b5b9406d12a635614ffd91435460ff1615611e2957610a5083612890565b826001600160a01b03166352d1902d6040518163ffffffff1660e01b8152600401602060405180830381865afa925050508015611e83575060408051601f3d908101601f19168201909252611e8091810190613bf4565b60015b611ee65760405162461bcd60e51b815260206004820152602e60248201527f45524331393637557067726164653a206e657720696d706c656d656e7461746960448201526d6f6e206973206e6f74205555505360901b6064820152608401610801565b600080516020613f298339815191528114611f555760405162461bcd60e51b815260206004820152602960248201527f45524331393637557067726164653a20756e737570706f727465642070726f786044820152681a58589b195555525160ba1b6064820152608401610801565b50610a5083838361292c565b611f69612951565b60c9805460ff191690557f5db9ee0a495bf2e6ff9c91a7834c1ba4fdd244a5e8aa4e537bd38aeae4b073aa335b6040516001600160a01b03909116815260200160405180910390a1565b6001600160a01b038316611fd95760405162461bcd60e51b815260040161080190613c0d565b8051825114611ffa5760405162461bcd60e51b815260040161080190613aef565b600033905061201d8185600086866040518060200160405280600081525061271f565b60005b83518110156120e557600084828151811061203d5761203d613968565b60200260200101519050600084838151811061205b5761205b613968565b60209081029190910181015160008481526065835260408082206001600160a01b038c1683529093529190912054909150818110156120ac5760405162461bcd60e51b815260040161080190613c50565b60009283526065602090815260408085206001600160a01b038b16865290915290922091039055806120dd81613994565b915050612020565b5060006001600160a01b0316846001600160a01b0316826001600160a01b03167f4a39dc06d4c0dbc64b70af90fd698a233a518aa5d07e595d983b8c0526c8f7fb8686604051612136929190613bc6565b60405180910390a46040805160208101909152600090525b50505050565b600054610100900460ff1661217b5760405162461bcd60e51b815260040161080190613c94565b610cd48161299a565b600054610100900460ff166121ab5760405162461bcd60e51b815260040161080190613c94565b565b600054610100900460ff166121d45760405162461bcd60e51b815260040161080190613c94565b6121ab6129ca565b6121e46129fd565b60c9805460ff191660011790557f62e78cea01bee320cd4e420270b5ea74000d11b0c9f74754ebdbfc544b05a258611f963390565b6001600160a01b0384166122795760405162461bcd60e51b815260206004820152602160248201527f455243313135353a206d696e7420746f20746865207a65726f206164647265736044820152607360f81b6064820152608401610801565b33600061228585612a43565b9050600061229285612a43565b90506122a38360008985858961271f565b60008681526065602090815260408083206001600160a01b038b168452909152812080548792906122d5908490613adc565b909155505060408051878152602081018790526001600160a01b03808a1692600092918716917fc3d58168c5ae7397731d063d5bbf3d657854427343f4c083240f7aacaa2d0f62910160405180910390a461233583600089898989612a8e565b50505050505050565b816001600160a01b0316836001600160a01b0316036123b15760405162461bcd60e51b815260206004820152602960248201527f455243313135353a2073657474696e6720617070726f76616c20737461747573604482015268103337b91039b2b63360b91b6064820152608401610801565b6001600160a01b03838116600081815260666020908152604080832094871680845294825291829020805460ff191686151590811790915591519182527f17307eab39ab6107e8899845ad3d59bd9653f200f220920489ca2b5937696c31910160405180910390a3505050565b6001600160a01b0384166124445760405162461bcd60e51b815260040161080190613b37565b33600061245085612a43565b9050600061245d85612a43565b905061246d83898985858961271f565b60008681526065602090815260408083206001600160a01b038c168452909152902054858110156124b05760405162461bcd60e51b815260040161080190613b7c565b60008781526065602090815260408083206001600160a01b038d8116855292528083208985039055908a168252812080548892906124ef908490613adc565b909155505060408051888152602081018890526001600160a01b03808b16928c821692918816917fc3d58168c5ae7397731d063d5bbf3d657854427343f4c083240f7aacaa2d0f62910160405180910390a461254f848a8a8a8a8a612a8e565b505050505050505050565b6001600160a01b0383166125805760405162461bcd60e51b815260040161080190613c0d565b33600061258c84612a43565b9050600061259984612a43565b90506125b98387600085856040518060200160405280600081525061271f565b60008581526065602090815260408083206001600160a01b038a168452909152902054848110156125fc5760405162461bcd60e51b815260040161080190613c50565b60008681526065602090815260408083206001600160a01b038b81168086529184528285208a8703905582518b81529384018a90529092908816917fc3d58168c5ae7397731d063d5bbf3d657854427343f4c083240f7aacaa2d0f62910160405180910390a4604080516020810190915260009052612335565b60006001600160e01b03198216636cdb3d1360e11b14806126a757506001600160e01b031982166303a24d0760e21b145b8061082f57506301ffc9a760e01b6001600160e01b031983161461082f565b6126d082826112b7565b610873576126dd81612b49565b6126e8836020612b5b565b6040516020016126f9929190613cdf565b60408051601f198184030181529082905262461bcd60e51b8252610801916004016131ad565b6127276129fd565b611cd7868686868686612cfd565b6001600160a01b0384163b15611cd75760405163bc197c8160e01b81526001600160a01b0385169063bc197c81906127799089908990889088908890600401613d54565b6020604051808303816000875af19250505080156127b4575060408051601f3d908101601f191682019092526127b191810190613db2565b60015b612860576127c0613dcf565b806308c379a0036127f957506127d4613dea565b806127df57506127fb565b8060405162461bcd60e51b815260040161080191906131ad565b505b60405162461bcd60e51b815260206004820152603460248201527f455243313135353a207472616e7366657220746f206e6f6e2d455243313135356044820152732932b1b2b4bb32b91034b6b83632b6b2b73a32b960611b6064820152608401610801565b6001600160e01b0319811663bc197c8160e01b146123355760405162461bcd60e51b815260040161080190613e73565b6001600160a01b0381163b6128fd5760405162461bcd60e51b815260206004820152602d60248201527f455243313936373a206e657720696d706c656d656e746174696f6e206973206e60448201526c1bdd08184818dbdb9d1c9858dd609a1b6064820152608401610801565b600080516020613f2983398151915280546001600160a01b0319166001600160a01b0392909216919091179055565b61293583612e79565b6000825111806129425750805b15610a505761214e8383612eb9565b60c95460ff166121ab5760405162461bcd60e51b815260206004820152601460248201527314185d5cd8589b194e881b9bdd081c185d5cd95960621b6044820152606401610801565b600054610100900460ff166129c15760405162461bcd60e51b815260040161080190613c94565b610cd481611b26565b600054610100900460ff166129f15760405162461bcd60e51b815260040161080190613c94565b60c9805460ff19169055565b60c95460ff16156121ab5760405162461bcd60e51b815260206004820152601060248201526f14185d5cd8589b194e881c185d5cd95960821b6044820152606401610801565b60408051600180825281830190925260609160009190602080830190803683370190505090508281600081518110612a7d57612a7d613968565b602090810291909101015292915050565b6001600160a01b0384163b15611cd75760405163f23a6e6160e01b81526001600160a01b0385169063f23a6e6190612ad29089908990889088908890600401613ebb565b6020604051808303816000875af1925050508015612b0d575060408051601f3d908101601f19168201909252612b0a91810190613db2565b60015b612b19576127c0613dcf565b6001600160e01b0319811663f23a6e6160e01b146123355760405162461bcd60e51b815260040161080190613e73565b606061082f6001600160a01b03831660145b60606000612b6a836002613ab2565b612b75906002613adc565b6001600160401b03811115612b8c57612b8c61305b565b6040519080825280601f01601f191660200182016040528015612bb6576020820181803683370190505b509050600360fc1b81600081518110612bd157612bd1613968565b60200101906001600160f81b031916908160001a905350600f60fb1b81600181518110612c0057612c00613968565b60200101906001600160f81b031916908160001a9053506000612c24846002613ab2565b612c2f906001613adc565b90505b6001811115612ca7576f181899199a1a9b1b9c1cb0b131b232b360811b85600f1660108110612c6357612c63613968565b1a60f81b828281518110612c7957612c79613968565b60200101906001600160f81b031916908160001a90535060049490941c93612ca081613ef5565b9050612c32565b508315612cf65760405162461bcd60e51b815260206004820181905260248201527f537472696e67733a20686578206c656e67746820696e73756666696369656e746044820152606401610801565b9392505050565b6001600160a01b038516612d855760005b8351811015612d8357828181518110612d2957612d29613968565b602002602001015161012d6000868481518110612d4857612d48613968565b602002602001015181526020019081526020016000206000828254612d6d9190613adc565b90915550612d7c905081613994565b9050612d0e565b505b6001600160a01b038416611cd75760005b8351811015612335576000848281518110612db357612db3613968565b602002602001015190506000848381518110612dd157612dd1613968565b60200260200101519050600061012d600084815260200190815260200160002054905081811015612e555760405162461bcd60e51b815260206004820152602860248201527f455243313135353a206275726e20616d6f756e74206578636565647320746f74604482015267616c537570706c7960c01b6064820152608401610801565b600092835261012d602052604090922091039055612e7281613994565b9050612d96565b612e8281612890565b6040516001600160a01b038216907fbc7cd75a20ee27fd9adebab32041f755214dbc6bffa90cc0225b39da2e5c2d3b90600090a250565b6060612cf68383604051806060016040528060278152602001613f49602791396060600080856001600160a01b031685604051612ef69190613f0c565b600060405180830381855af49150503d8060008114612f31576040519150601f19603f3d011682016040523d82523d6000602084013e612f36565b606091505b5091509150612f4786838387612f51565b9695505050505050565b60608315612fc0578251600003612fb9576001600160a01b0385163b612fb95760405162461bcd60e51b815260206004820152601d60248201527f416464726573733a2063616c6c20746f206e6f6e2d636f6e74726163740000006044820152606401610801565b5081612fca565b612fca8383612fd2565b949350505050565b8151156127df5781518083602001fd5b80356001600160a01b0381168114612ff957600080fd5b919050565b6000806040838503121561301157600080fd5b61301a83612fe2565b946020939093013593505050565b6001600160e01b031981168114610cd457600080fd5b60006020828403121561305057600080fd5b8135612cf681613028565b634e487b7160e01b600052604160045260246000fd5b601f8201601f191681016001600160401b03811182821017156130965761309661305b565b6040525050565b600082601f8301126130ae57600080fd5b81356001600160401b038111156130c7576130c761305b565b6040516130de601f8301601f191660200182613071565b8181528460208386010111156130f357600080fd5b816020850160208301376000918101602001919091529392505050565b60006020828403121561312257600080fd5b81356001600160401b0381111561313857600080fd5b612fca8482850161309d565b60006020828403121561315657600080fd5b5035919050565b60005b83811015613178578181015183820152602001613160565b50506000910152565b6000815180845261319981602086016020860161315d565b601f01601f19169290920160200192915050565b602081526000612cf66020830184613181565b634e487b7160e01b600052602160045260246000fd5b600481106131f457634e487b7160e01b600052602160045260246000fd5b9052565b61320281876131d6565b84602082015283604082015260018060a01b038316606082015260a06080820152600061323260a0830184613181565b979650505050505050565b60006001600160401b038211156132565761325661305b565b5060051b60200190565b600082601f83011261327157600080fd5b8135602061327e8261323d565b60405161328b8282613071565b83815260059390931b85018201928281019150868411156132ab57600080fd5b8286015b848110156132c657803583529183019183016132af565b509695505050505050565b600080600080600060a086880312156132e957600080fd5b6132f286612fe2565b945061330060208701612fe2565b935060408601356001600160401b038082111561331c57600080fd5b61332889838a01613260565b9450606088013591508082111561333e57600080fd5b61334a89838a01613260565b9350608088013591508082111561336057600080fd5b5061336d8882890161309d565b9150509295509295909350565b6000806040838503121561338d57600080fd5b8235915061339d60208401612fe2565b90509250929050565b6000602082840312156133b857600080fd5b612cf682612fe2565b600080604083850312156133d457600080fd5b82356001600160401b03808211156133eb57600080fd5b818501915085601f8301126133ff57600080fd5b8135602061340c8261323d565b6040516134198282613071565b83815260059390931b850182019282810191508984111561343957600080fd5b948201945b8386101561345e5761344f86612fe2565b8252948201949082019061343e565b9650508601359250508082111561347457600080fd5b5061348185828601613260565b9150509250929050565b600081518084526020808501945080840160005b838110156134bb5781518752958201959082019060010161349f565b509495945050505050565b602081526000612cf6602083018461348b565b600080604083850312156134ec57600080fd5b6134f583612fe2565b915060208301356001600160401b0381111561351057600080fd5b6134818582860161309d565b60008060006060848603121561353157600080fd5b61353a84612fe2565b925060208401356001600160401b038082111561355657600080fd5b61356287838801613260565b9350604086013591508082111561357857600080fd5b5061358586828701613260565b9150509250925092565b600080600080608085870312156135a557600080fd5b843593506135b560208601612fe2565b92506135c360408601612fe2565b915060608501356001600160401b038111156135de57600080fd5b6135ea8782880161309d565b91505092959194509250565b6000806000806080858703121561360c57600080fd5b84359350602085013592506135c360408601612fe2565b6000806040838503121561363657600080fd5b61363f83612fe2565b91506020830135801515811461365457600080fd5b809150509250929050565b60006020808301818452808551808352604092508286019150828160051b87010184880160005b838110156136c757888303603f19018552815180518785526136aa88860182613181565b918901519489019490945294870194925090860190600101613686565b509098975050505050505050565b600080604083850312156136e857600080fd5b50508035926020909101359150565b60006020808301818452808551808352604092508286019150828160051b87010184880160005b838110156136c757603f19898403018552815160a061373e8583516131d6565b81890151858a015287820151888601526060808301516001600160a01b03169086015260809182015191850181905261377981860183613181565b96890196945050509086019060010161371e565b600080604083850312156137a057600080fd5b6137a983612fe2565b915061339d60208401612fe2565b600080600080600060a086880312156137cf57600080fd5b6137d886612fe2565b94506137e660208701612fe2565b9350604086013592506060860135915060808601356001600160401b0381111561380f57600080fd5b61336d8882890161309d565b60008060006060848603121561383057600080fd5b61383984612fe2565b95602085013595506040909401359392505050565b600181811c9082168061386257607f821691505b60208210810361199f57634e487b7160e01b600052602260045260246000fd5b6020808252602e908201527f455243313135353a2063616c6c6572206973206e6f7420746f6b656e206f776e60408201526d195c881bdc88185c1c1c9bdd995960921b606082015260800190565b6020808252602c908201527f46756e6374696f6e206d7573742062652063616c6c6564207468726f7567682060408201526b19195b1959d85d1958d85b1b60a21b606082015260800190565b6020808252602c908201527f46756e6374696f6e206d7573742062652063616c6c6564207468726f7567682060408201526b6163746976652070726f787960a01b606082015260800190565b634e487b7160e01b600052603260045260246000fd5b634e487b7160e01b600052601160045260246000fd5b6000600182016139a6576139a661397e565b5060010190565b601f821115610a5057600081815260208120601f850160051c810160208610156139d45750805b601f850160051c820191505b81811015611cd7578281556001016139e0565b81516001600160401b03811115613a0c57613a0c61305b565b613a2081613a1a845461384e565b846139ad565b602080601f831160018114613a555760008415613a3d5750858301515b600019600386901b1c1916600185901b178555611cd7565b600085815260208120601f198616915b82811015613a8457888601518255948401946001909101908401613a65565b5085821015613aa25787850151600019600388901b60f8161c191681555b5050505050600190811b01905550565b808202811582820484141761082f5761082f61397e565b8181038181111561082f5761082f61397e565b8082018082111561082f5761082f61397e565b60208082526028908201527f455243313135353a2069647320616e6420616d6f756e7473206c656e677468206040820152670dad2e6dac2e8c6d60c31b606082015260800190565b60208082526025908201527f455243313135353a207472616e7366657220746f20746865207a65726f206164604082015264647265737360d81b606082015260800190565b6020808252602a908201527f455243313135353a20696e73756666696369656e742062616c616e636520666f60408201526939103a3930b739b332b960b11b606082015260800190565b604081526000613bd9604083018561348b565b8281036020840152613beb818561348b565b95945050505050565b600060208284031215613c0657600080fd5b5051919050565b60208082526023908201527f455243313135353a206275726e2066726f6d20746865207a65726f206164647260408201526265737360e81b606082015260800190565b60208082526024908201527f455243313135353a206275726e20616d6f756e7420657863656564732062616c604082015263616e636560e01b606082015260800190565b6020808252602b908201527f496e697469616c697a61626c653a20636f6e7472616374206973206e6f74206960408201526a6e697469616c697a696e6760a81b606082015260800190565b7f416363657373436f6e74726f6c3a206163636f756e7420000000000000000000815260008351613d1781601785016020880161315d565b7001034b99036b4b9b9b4b733903937b6329607d1b6017918401918201528351613d4881602884016020880161315d565b01602801949350505050565b6001600160a01b0386811682528516602082015260a060408201819052600090613d809083018661348b565b8281036060840152613d92818661348b565b90508281036080840152613da68185613181565b98975050505050505050565b600060208284031215613dc457600080fd5b8151612cf681613028565b600060033d1115610faf5760046000803e5060005160e01c90565b600060443d1015613df85790565b6040516003193d81016004833e81513d6001600160401b038160248401118184111715613e2757505050505090565b8285019150815181811115613e3f5750505050505090565b843d8701016020828501011115613e595750505050505090565b613e6860208286010187613071565b509095945050505050565b60208082526028908201527f455243313135353a204552433131353552656365697665722072656a656374656040820152676420746f6b656e7360c01b606082015260800190565b6001600160a01b03868116825285166020820152604081018490526060810183905260a06080820181905260009061323290830184613181565b600081613f0457613f0461397e565b506000190190565b60008251613f1e81846020870161315d565b919091019291505056fe360894a13ba1a3210667c828492db98dca3e2076cc3735a920a3ca505d382bbc416464726573733a206c6f772d6c6576656c2064656c65676174652063616c6c206661696c6564a26469706673582212208f0dd433c010c74875b57b7c861c453f6aae217769cfa45c255b2df740ae578c64736f6c63430008130033",
  "linkReferences": {},
  "deployedLinkReferences": {}
}