{
  "_format": "hh-sol-artifact-1",
  "contractName": "RadarEditions",
  "sourceName": "src/RadarEditions.sol",
  "abi": [
    {
      "inputs": [],
      "name": "EditionFeeExceedsMaximumFee",
      "type": "error"
    },
    {
      "inputs": [],
      "name": "EditionNotCreated",
      "type": "error"
    },
    {
      "inputs": [],
      "name": "EditionNotEnoughBalance",
      "type": "error"
    },
    {
      "inputs": [],
      "name": "EditionNotLaunched",
      "type": "error"
    },
    {
      "inputs": [],
      "name": "EditionNotStopped",
      "type": "error"
    },
    {
      "inputs": [],
      "name": "NotCorrectUser",
      "type": "error"
    },
    {
      "inputs": [],
      "name": "NotEditionOwner",
      "type": "error"
    },
    {
      "inputs": [],
      "name": "NotEnoughFees",
      "type": "error"
    },
    {
      "inputs": [],
      "name": "NotEnoughFunds",
      "type": "error"
    },
    {
      "inputs": [],
      "name": "TransactionFailed",
      "type": "error"
    },
    {
      "anonymous": false,
      "inputs": [
        {
          "indexed": false,
          "internalType": "address",
          "name": "previousAdmin",
          "type": "address"
        },
        {
          "indexed": false,
          "internalType": "address",
          "name": "newAdmin",
          "type": "address"
        }
      ],
      "name": "AdminChanged",
      "type": "event"
    },
    {
      "anonymous": false,
      "inputs": [
        {
          "indexed": true,
          "internalType": "address",
          "name": "account",
          "type": "address"
        },
        {
          "indexed": true,
          "internalType": "address",
          "name": "operator",
          "type": "address"
        },
        {
          "indexed": false,
          "internalType": "bool",
          "name": "approved",
          "type": "bool"
        }
      ],
      "name": "ApprovalForAll",
      "type": "event"
    },
    {
      "anonymous": false,
      "inputs": [
        {
          "indexed": true,
          "internalType": "address",
          "name": "user",
          "type": "address"
        },
        {
          "indexed": false,
          "internalType": "uint256",
          "name": "amount",
          "type": "uint256"
        }
      ],
      "name": "BalanceRetrieved",
      "type": "event"
    },
    {
      "anonymous": false,
      "inputs": [
        {
          "indexed": true,
          "internalType": "address",
          "name": "beacon",
          "type": "address"
        }
      ],
      "name": "BeaconUpgraded",
      "type": "event"
    },
    {
      "anonymous": false,
      "inputs": [
        {
          "indexed": false,
          "internalType": "uint256",
          "name": "editionId",
          "type": "uint256"
        }
      ],
      "name": "EditionApproved",
      "type": "event"
    },
    {
      "anonymous": false,
      "inputs": [
        {
          "indexed": false,
          "internalType": "uint256",
          "name": "editionId",
          "type": "uint256"
        },
        {
          "indexed": false,
          "internalType": "uint256",
          "name": "amount",
          "type": "uint256"
        },
        {
          "indexed": false,
          "internalType": "address",
          "name": "owner",
          "type": "address"
        }
      ],
      "name": "EditionBalanceWithdrawn",
      "type": "event"
    },
    {
      "anonymous": false,
      "inputs": [
        {
          "indexed": false,
          "internalType": "uint256",
          "name": "amount",
          "type": "uint256"
        },
        {
          "indexed": false,
          "internalType": "address",
          "name": "owner",
          "type": "address"
        }
      ],
      "name": "EditionBalanceWithdrawnFromAll",
      "type": "event"
    },
    {
      "anonymous": false,
      "inputs": [
        {
          "indexed": true,
          "internalType": "uint256",
          "name": "editionId",
          "type": "uint256"
        },
        {
          "indexed": true,
          "internalType": "address",
          "name": "believer",
          "type": "address"
        }
      ],
      "name": "EditionBeliefRemoved",
      "type": "event"
    },
    {
      "anonymous": false,
      "inputs": [
        {
          "indexed": true,
          "internalType": "uint256",
          "name": "editionId",
          "type": "uint256"
        },
        {
          "indexed": true,
          "internalType": "address",
          "name": "believer",
          "type": "address"
        },
        {
          "indexed": false,
          "internalType": "string",
          "name": "tags",
          "type": "string"
        }
      ],
      "name": "EditionBelieved",
      "type": "event"
    },
    {
      "anonymous": false,
      "inputs": [
        {
          "indexed": false,
          "internalType": "uint256",
          "name": "editionId",
          "type": "uint256"
        },
        {
          "indexed": false,
          "internalType": "string",
          "name": "briefId",
          "type": "string"
        },
        {
          "indexed": false,
          "internalType": "uint256",
          "name": "fee",
          "type": "uint256"
        },
        {
          "indexed": false,
          "internalType": "address",
          "name": "owner",
          "type": "address"
        }
      ],
      "name": "EditionCreated",
      "type": "event"
    },
    {
      "anonymous": false,
      "inputs": [
        {
          "indexed": false,
          "internalType": "uint256",
          "name": "editionId",
          "type": "uint256"
        }
      ],
      "name": "EditionResumed",
      "type": "event"
    },
    {
      "anonymous": false,
      "inputs": [
        {
          "indexed": false,
          "internalType": "uint256",
          "name": "editionId",
          "type": "uint256"
        }
      ],
      "name": "EditionStopped",
      "type": "event"
    },
    {
      "anonymous": false,
      "inputs": [
        {
          "indexed": false,
          "internalType": "uint8",
          "name": "version",
          "type": "uint8"
        }
      ],
      "name": "Initialized",
      "type": "event"
    },
    {
      "anonymous": false,
      "inputs": [
        {
          "indexed": false,
          "internalType": "address",
          "name": "account",
          "type": "address"
        }
      ],
      "name": "Paused",
      "type": "event"
    },
    {
      "anonymous": false,
      "inputs": [
        {
          "indexed": true,
          "internalType": "bytes32",
          "name": "role",
          "type": "bytes32"
        },
        {
          "indexed": true,
          "internalType": "bytes32",
          "name": "previousAdminRole",
          "type": "bytes32"
        },
        {
          "indexed": true,
          "internalType": "bytes32",
          "name": "newAdminRole",
          "type": "bytes32"
        }
      ],
      "name": "RoleAdminChanged",
      "type": "event"
    },
    {
      "anonymous": false,
      "inputs": [
        {
          "indexed": true,
          "internalType": "bytes32",
          "name": "role",
          "type": "bytes32"
        },
        {
          "indexed": true,
          "internalType": "address",
          "name": "account",
          "type": "address"
        },
        {
          "indexed": true,
          "internalType": "address",
          "name": "sender",
          "type": "address"
        }
      ],
      "name": "RoleGranted",
      "type": "event"
    },
    {
      "anonymous": false,
      "inputs": [
        {
          "indexed": true,
          "internalType": "bytes32",
          "name": "role",
          "type": "bytes32"
        },
        {
          "indexed": true,
          "internalType": "address",
          "name": "account",
          "type": "address"
        },
        {
          "indexed": true,
          "internalType": "address",
          "name": "sender",
          "type": "address"
        }
      ],
      "name": "RoleRevoked",
      "type": "event"
    },
    {
      "anonymous": false,
      "inputs": [
        {
          "indexed": true,
          "internalType": "address",
          "name": "operator",
          "type": "address"
        },
        {
          "indexed": true,
          "internalType": "address",
          "name": "from",
          "type": "address"
        },
        {
          "indexed": true,
          "internalType": "address",
          "name": "to",
          "type": "address"
        },
        {
          "indexed": false,
          "internalType": "uint256[]",
          "name": "ids",
          "type": "uint256[]"
        },
        {
          "indexed": false,
          "internalType": "uint256[]",
          "name": "values",
          "type": "uint256[]"
        }
      ],
      "name": "TransferBatch",
      "type": "event"
    },
    {
      "anonymous": false,
      "inputs": [
        {
          "indexed": true,
          "internalType": "address",
          "name": "operator",
          "type": "address"
        },
        {
          "indexed": true,
          "internalType": "address",
          "name": "from",
          "type": "address"
        },
        {
          "indexed": true,
          "internalType": "address",
          "name": "to",
          "type": "address"
        },
        {
          "indexed": false,
          "internalType": "uint256",
          "name": "id",
          "type": "uint256"
        },
        {
          "indexed": false,
          "internalType": "uint256",
          "name": "value",
          "type": "uint256"
        }
      ],
      "name": "TransferSingle",
      "type": "event"
    },
    {
      "anonymous": false,
      "inputs": [
        {
          "indexed": false,
          "internalType": "string",
          "name": "value",
          "type": "string"
        },
        {
          "indexed": true,
          "internalType": "uint256",
          "name": "id",
          "type": "uint256"
        }
      ],
      "name": "URI",
      "type": "event"
    },
    {
      "anonymous": false,
      "inputs": [
        {
          "indexed": false,
          "internalType": "address",
          "name": "account",
          "type": "address"
        }
      ],
      "name": "Unpaused",
      "type": "event"
    },
    {
      "anonymous": false,
      "inputs": [
        {
          "indexed": true,
          "internalType": "address",
          "name": "implementation",
          "type": "address"
        }
      ],
      "name": "Upgraded",
      "type": "event"
    },
    {
      "stateMutability": "payable",
      "type": "fallback"
    },
    {
      "inputs": [],
      "name": "DEFAULT_ADMIN_ROLE",
      "outputs": [
        {
          "internalType": "bytes32",
          "name": "",
          "type": "bytes32"
        }
      ],
      "stateMutability": "view",
      "type": "function"
    },
    {
      "inputs": [
        {
          "internalType": "uint256",
          "name": "editionId",
          "type": "uint256"
        }
      ],
      "name": "approveEdition",
      "outputs": [],
      "stateMutability": "nonpayable",
      "type": "function"
    },
    {
      "inputs": [
        {
          "internalType": "address",
          "name": "account",
          "type": "address"
        },
        {
          "internalType": "uint256",
          "name": "id",
          "type": "uint256"
        }
      ],
      "name": "balanceOf",
      "outputs": [
        {
          "internalType": "uint256",
          "name": "",
          "type": "uint256"
        }
      ],
      "stateMutability": "view",
      "type": "function"
    },
    {
      "inputs": [
        {
          "internalType": "address[]",
          "name": "accounts",
          "type": "address[]"
        },
        {
          "internalType": "uint256[]",
          "name": "ids",
          "type": "uint256[]"
        }
      ],
      "name": "balanceOfBatch",
      "outputs": [
        {
          "internalType": "uint256[]",
          "name": "",
          "type": "uint256[]"
        }
      ],
      "stateMutability": "view",
      "type": "function"
    },
    {
      "inputs": [
        {
          "internalType": "address",
          "name": "user",
          "type": "address"
        }
      ],
      "name": "balances",
      "outputs": [
        {
          "internalType": "uint256",
          "name": "balance",
          "type": "uint256"
        }
      ],
      "stateMutability": "view",
      "type": "function"
    },
    {
      "inputs": [
        {
          "internalType": "uint256",
          "name": "editionId",
          "type": "uint256"
        },
        {
          "internalType": "string",
          "name": "tags",
          "type": "string"
        }
      ],
      "name": "believeProject",
      "outputs": [],
      "stateMutability": "payable",
      "type": "function"
    },
    {
      "inputs": [
        {
          "internalType": "address",
          "name": "account",
          "type": "address"
        },
        {
          "internalType": "uint256",
          "name": "id",
          "type": "uint256"
        },
        {
          "internalType": "uint256",
          "name": "value",
          "type": "uint256"
        }
      ],
      "name": "burn",
      "outputs": [],
      "stateMutability": "nonpayable",
      "type": "function"
    },
    {
      "inputs": [
        {
          "internalType": "address",
          "name": "account",
          "type": "address"
        },
        {
          "internalType": "uint256[]",
          "name": "ids",
          "type": "uint256[]"
        },
        {
          "internalType": "uint256[]",
          "name": "values",
          "type": "uint256[]"
        }
      ],
      "name": "burnBatch",
      "outputs": [],
      "stateMutability": "nonpayable",
      "type": "function"
    },
    {
      "inputs": [],
      "name": "contractURI",
      "outputs": [
        {
          "internalType": "string",
          "name": "",
          "type": "string"
        }
      ],
      "stateMutability": "view",
      "type": "function"
    },
    {
      "inputs": [
        {
          "internalType": "uint256",
          "name": "fee",
          "type": "uint256"
        },
        {
          "internalType": "address",
          "name": "owner",
          "type": "address"
        },
        {
          "internalType": "address",
          "name": "payer",
          "type": "address"
        },
        {
          "internalType": "string",
          "name": "id",
          "type": "string"
        },
        {
          "internalType": "string",
          "name": "briefId",
          "type": "string"
        }
      ],
      "name": "createEdition",
      "outputs": [
        {
          "internalType": "uint256",
          "name": "editionId",
          "type": "uint256"
        }
      ],
      "stateMutability": "nonpayable",
      "type": "function"
    },
    {
      "inputs": [],
      "name": "editionCounter",
      "outputs": [
        {
          "internalType": "uint256",
          "name": "",
          "type": "uint256"
        }
      ],
      "stateMutability": "view",
      "type": "function"
    },
    {
      "inputs": [
        {
          "internalType": "uint256",
          "name": "",
          "type": "uint256"
        }
      ],
      "name": "editions",
      "outputs": [
        {
          "internalType": "enum EditionsStructs.EditionStatus",
          "name": "status",
          "type": "uint8"
        },
        {
          "internalType": "uint256",
          "name": "fee",
          "type": "uint256"
        },
        {
          "internalType": "uint256",
          "name": "balance",
          "type": "uint256"
        },
        {
          "internalType": "address",
          "name": "owner",
          "type": "address"
        },
        {
          "internalType": "string",
          "name": "id",
          "type": "string"
        },
        {
          "internalType": "string",
          "name": "briefId",
          "type": "string"
        }
      ],
      "stateMutability": "view",
      "type": "function"
    },
    {
      "inputs": [
        {
          "internalType": "uint256",
          "name": "id",
          "type": "uint256"
        }
      ],
      "name": "exists",
      "outputs": [
        {
          "internalType": "bool",
          "name": "",
          "type": "bool"
        }
      ],
      "stateMutability": "view",
      "type": "function"
    },
    {
      "inputs": [],
      "name": "futureFundFee",
      "outputs": [
        {
          "internalType": "uint256",
          "name": "",
          "type": "uint256"
        }
      ],
      "stateMutability": "view",
      "type": "function"
    },
    {
      "inputs": [
        {
          "internalType": "address",
          "name": "owner",
          "type": "address"
        }
      ],
      "name": "getBalances",
      "outputs": [
        {
          "components": [
            {
              "internalType": "string",
              "name": "id",
              "type": "string"
            },
            {
              "internalType": "uint256",
              "name": "amount",
              "type": "uint256"
            }
          ],
          "internalType": "struct EditionsStructs.EditionIdWithAmount[]",
          "name": "",
          "type": "tuple[]"
        }
      ],
      "stateMutability": "view",
      "type": "function"
    },
    {
      "inputs": [],
      "name": "getEditions",
      "outputs": [
        {
          "components": [
            {
              "internalType": "enum EditionsStructs.EditionStatus",
              "name": "status",
              "type": "uint8"
            },
            {
              "internalType": "uint256",
              "name": "fee",
              "type": "uint256"
            },
            {
              "internalType": "uint256",
              "name": "balance",
              "type": "uint256"
            },
            {
              "internalType": "address",
              "name": "owner",
              "type": "address"
            },
            {
              "internalType": "string",
              "name": "id",
              "type": "string"
            },
            {
              "internalType": "string",
              "name": "briefId",
              "type": "string"
            }
          ],
          "internalType": "struct EditionsStructs.Edition[]",
          "name": "",
          "type": "tuple[]"
        }
      ],
      "stateMutability": "view",
      "type": "function"
    },
    {
      "inputs": [
        {
          "internalType": "bytes32",
          "name": "role",
          "type": "bytes32"
        }
      ],
      "name": "getRoleAdmin",
      "outputs": [
        {
          "internalType": "bytes32",
          "name": "",
          "type": "bytes32"
        }
      ],
      "stateMutability": "view",
      "type": "function"
    },
    {
      "inputs": [
        {
          "internalType": "address",
          "name": "user",
          "type": "address"
        }
      ],
      "name": "getUserBeliefs",
      "outputs": [
        {
          "internalType": "bool[]",
          "name": "",
          "type": "bool[]"
        }
      ],
      "stateMutability": "view",
      "type": "function"
    },
    {
      "inputs": [
        {
          "internalType": "bytes32",
          "name": "role",
          "type": "bytes32"
        },
        {
          "internalType": "address",
          "name": "account",
          "type": "address"
        }
      ],
      "name": "grantRole",
      "outputs": [],
      "stateMutability": "nonpayable",
      "type": "function"
    },
    {
      "inputs": [
        {
          "internalType": "bytes32",
          "name": "role",
          "type": "bytes32"
        },
        {
          "internalType": "address",
          "name": "account",
          "type": "address"
        }
      ],
      "name": "hasRole",
      "outputs": [
        {
          "internalType": "bool",
          "name": "",
          "type": "bool"
        }
      ],
      "stateMutability": "view",
      "type": "function"
    },
    {
      "inputs": [],
      "name": "initialize",
      "outputs": [],
      "stateMutability": "nonpayable",
      "type": "function"
    },
    {
      "inputs": [
        {
          "internalType": "address",
          "name": "account",
          "type": "address"
        },
        {
          "internalType": "address",
          "name": "operator",
          "type": "address"
        }
      ],
      "name": "isApprovedForAll",
      "outputs": [
        {
          "internalType": "bool",
          "name": "",
          "type": "bool"
        }
      ],
      "stateMutability": "view",
      "type": "function"
    },
    {
      "inputs": [],
      "name": "maximumEditionFee",
      "outputs": [
        {
          "internalType": "uint256",
          "name": "",
          "type": "uint256"
        }
      ],
      "stateMutability": "view",
      "type": "function"
    },
    {
      "inputs": [
        {
          "internalType": "uint256",
          "name": "editionId",
          "type": "uint256"
        },
        {
          "internalType": "uint256",
          "name": "amount",
          "type": "uint256"
        },
        {
          "internalType": "address",
          "name": "buyer",
          "type": "address"
        },
        {
          "internalType": "bytes",
          "name": "data",
          "type": "bytes"
        }
      ],
      "name": "mintEdition",
      "outputs": [],
      "stateMutability": "payable",
      "type": "function"
    },
    {
      "inputs": [],
      "name": "pause",
      "outputs": [],
      "stateMutability": "nonpayable",
      "type": "function"
    },
    {
      "inputs": [],
      "name": "paused",
      "outputs": [
        {
          "internalType": "bool",
          "name": "",
          "type": "bool"
        }
      ],
      "stateMutability": "view",
      "type": "function"
    },
    {
      "inputs": [],
      "name": "protocolFee",
      "outputs": [
        {
          "internalType": "uint256",
          "name": "",
          "type": "uint256"
        }
      ],
      "stateMutability": "view",
      "type": "function"
    },
    {
      "inputs": [],
      "name": "proxiableUUID",
      "outputs": [
        {
          "internalType": "bytes32",
          "name": "",
          "type": "bytes32"
        }
      ],
      "stateMutability": "view",
      "type": "function"
    },
    {
      "inputs": [
        {
          "internalType": "uint256",
          "name": "editionId",
          "type": "uint256"
        }
      ],
      "name": "removeBelief",
      "outputs": [],
      "stateMutability": "nonpayable",
      "type": "function"
    },
    {
      "inputs": [
        {
          "internalType": "bytes32",
          "name": "role",
          "type": "bytes32"
        },
        {
          "internalType": "address",
          "name": "account",
          "type": "address"
        }
      ],
      "name": "renounceRole",
      "outputs": [],
      "stateMutability": "nonpayable",
      "type": "function"
    },
    {
      "inputs": [
        {
          "internalType": "uint256",
          "name": "editionId",
          "type": "uint256"
        }
      ],
      "name": "resumeEdition",
      "outputs": [],
      "stateMutability": "nonpayable",
      "type": "function"
    },
    {
      "inputs": [
        {
          "internalType": "uint256",
          "name": "amount",
          "type": "uint256"
        }
      ],
      "name": "retrieveBalance",
      "outputs": [],
      "stateMutability": "nonpayable",
      "type": "function"
    },
    {
      "inputs": [
        {
          "internalType": "bytes32",
          "name": "role",
          "type": "bytes32"
        },
        {
          "internalType": "address",
          "name": "account",
          "type": "address"
        }
      ],
      "name": "revokeRole",
      "outputs": [],
      "stateMutability": "nonpayable",
      "type": "function"
    },
    {
      "inputs": [
        {
          "internalType": "address",
          "name": "from",
          "type": "address"
        },
        {
          "internalType": "address",
          "name": "to",
          "type": "address"
        },
        {
          "internalType": "uint256[]",
          "name": "ids",
          "type": "uint256[]"
        },
        {
          "internalType": "uint256[]",
          "name": "amounts",
          "type": "uint256[]"
        },
        {
          "internalType": "bytes",
          "name": "data",
          "type": "bytes"
        }
      ],
      "name": "safeBatchTransferFrom",
      "outputs": [],
      "stateMutability": "nonpayable",
      "type": "function"
    },
    {
      "inputs": [
        {
          "internalType": "address",
          "name": "from",
          "type": "address"
        },
        {
          "internalType": "address",
          "name": "to",
          "type": "address"
        },
        {
          "internalType": "uint256",
          "name": "id",
          "type": "uint256"
        },
        {
          "internalType": "uint256",
          "name": "amount",
          "type": "uint256"
        },
        {
          "internalType": "bytes",
          "name": "data",
          "type": "bytes"
        }
      ],
      "name": "safeTransferFrom",
      "outputs": [],
      "stateMutability": "nonpayable",
      "type": "function"
    },
    {
      "inputs": [
        {
          "internalType": "address",
          "name": "operator",
          "type": "address"
        },
        {
          "internalType": "bool",
          "name": "approved",
          "type": "bool"
        }
      ],
      "name": "setApprovalForAll",
      "outputs": [],
      "stateMutability": "nonpayable",
      "type": "function"
    },
    {
      "inputs": [
        {
          "internalType": "uint256",
          "name": "_futureFundFee",
          "type": "uint256"
        }
      ],
      "name": "setFutureFundFee",
      "outputs": [],
      "stateMutability": "nonpayable",
      "type": "function"
    },
    {
      "inputs": [
        {
          "internalType": "uint256",
          "name": "_maximumEditionFee",
          "type": "uint256"
        }
      ],
      "name": "setMaximumEditionFee",
      "outputs": [],
      "stateMutability": "nonpayable",
      "type": "function"
    },
    {
      "inputs": [
        {
          "internalType": "uint256",
          "name": "_protocolFee",
          "type": "uint256"
        }
      ],
      "name": "setProtocolFee",
      "outputs": [],
      "stateMutability": "nonpayable",
      "type": "function"
    },
    {
      "inputs": [
        {
          "internalType": "string",
          "name": "newuri",
          "type": "string"
        }
      ],
      "name": "setURI",
      "outputs": [],
      "stateMutability": "nonpayable",
      "type": "function"
    },
    {
      "inputs": [
        {
          "internalType": "uint256",
          "name": "editionId",
          "type": "uint256"
        }
      ],
      "name": "stopEdition",
      "outputs": [],
      "stateMutability": "nonpayable",
      "type": "function"
    },
    {
      "inputs": [
        {
          "internalType": "bytes4",
          "name": "interfaceId",
          "type": "bytes4"
        }
      ],
      "name": "supportsInterface",
      "outputs": [
        {
          "internalType": "bool",
          "name": "",
          "type": "bool"
        }
      ],
      "stateMutability": "view",
      "type": "function"
    },
    {
      "inputs": [
        {
          "internalType": "uint256",
          "name": "id",
          "type": "uint256"
        }
      ],
      "name": "totalSupply",
      "outputs": [
        {
          "internalType": "uint256",
          "name": "",
          "type": "uint256"
        }
      ],
      "stateMutability": "view",
      "type": "function"
    },
    {
      "inputs": [],
      "name": "unpause",
      "outputs": [],
      "stateMutability": "nonpayable",
      "type": "function"
    },
    {
      "inputs": [
        {
          "internalType": "uint256",
          "name": "editionId",
          "type": "uint256"
        },
        {
          "internalType": "string",
          "name": "id",
          "type": "string"
        },
        {
          "internalType": "string",
          "name": "briefId",
          "type": "string"
        }
      ],
      "name": "updateEdition",
      "outputs": [],
      "stateMutability": "nonpayable",
      "type": "function"
    },
    {
      "inputs": [
        {
          "internalType": "address",
          "name": "newImplementation",
          "type": "address"
        }
      ],
      "name": "upgradeTo",
      "outputs": [],
      "stateMutability": "nonpayable",
      "type": "function"
    },
    {
      "inputs": [
        {
          "internalType": "address",
          "name": "newImplementation",
          "type": "address"
        },
        {
          "internalType": "bytes",
          "name": "data",
          "type": "bytes"
        }
      ],
      "name": "upgradeToAndCall",
      "outputs": [],
      "stateMutability": "payable",
      "type": "function"
    },
    {
      "inputs": [
        {
          "internalType": "uint256",
          "name": "id",
          "type": "uint256"
        }
      ],
      "name": "uri",
      "outputs": [
        {
          "internalType": "string",
          "name": "",
          "type": "string"
        }
      ],
      "stateMutability": "view",
      "type": "function"
    },
    {
      "inputs": [
        {
          "internalType": "uint256",
          "name": "editionId",
          "type": "uint256"
        },
        {
          "internalType": "uint256",
          "name": "amount",
          "type": "uint256"
        }
      ],
      "name": "withdrawEditionBalance",
      "outputs": [],
      "stateMutability": "nonpayable",
      "type": "function"
    },
    {
      "inputs": [],
      "name": "withdrawFromAllEditionBalance",
      "outputs": [],
      "stateMutability": "nonpayable",
      "type": "function"
    },
    {
      "inputs": [
        {
          "internalType": "uint256",
          "name": "amount",
          "type": "uint256"
        }
      ],
      "name": "withdrawFunds",
      "outputs": [],
      "stateMutability": "nonpayable",
      "type": "function"
    },
    {
      "stateMutability": "payable",
      "type": "receive"
    }
  ],
  "bytecode": "0x60a0604052306080523480156200001557600080fd5b506200002062000026565b620000e7565b600054610100900460ff1615620000935760405162461bcd60e51b815260206004820152602760248201527f496e697469616c697a61626c653a20636f6e747261637420697320696e697469604482015266616c697a696e6760c81b606482015260840160405180910390fd5b60005460ff90811614620000e5576000805460ff191660ff9081179091556040519081527f7f26b83ff96e1f2b6a682f133852f6798a09c465da95921460cefb38474024989060200160405180910390a15b565b6080516151396200011f60003960008181610f1c01528181610f5c01528181611296015281816112d6015261136501526151396000f3fe6080604052600436106102c65760003560e01c80637cc749411161017e578063c6fbb712116100d3578063e8a3d4851161008f578063f242432a1161006c578063f242432a146108df578063f5298aca146108ff578063f8c1b2fd1461091f578063fc74efa21461093f57005b8063e8a3d48514610854578063e985e9c514610869578063eb1d1003146108b257005b8063c6fbb7121461078e578063c84aae17146107a5578063d547741f146107d2578063d667c9ce146107f2578063df6efc6c14610812578063e43990fe1461083457005b80639e751ffc1161013a578063b0e21e8a11610117578063b0e21e8a14610712578063b3a44bd614610729578063b94967a414610749578063bd85b0391461076057005b80639e751ffc146106bd578063a217fddf146106dd578063a22cb465146106f257005b80637cc74941146106205780637e1cb160146106405780638129fc1c146106605780638456cb591461067557806391d148541461068a578063940123da146106aa57005b80633659cfe61161023457806352d1902d116101f05780636b5cb789116101cd5780636b5cb789146105b65780637357628c146105cd578063787dce3d146105ed578063790bafc61461060d57005b806352d1902d146105695780635c975abb1461057e5780636b20c4541461059657005b80633659cfe6146104af5780633f4ba83a146104cf5780633fe9d682146104e45780634e1273f4146104f95780634f1ef286146105265780634f558e791461053957005b8063248a9ca311610283578063248a9ca3146103bf578063279c806e146103ef57806327e235e3146104215780632eb2c2d61461044f5780632f2ff15d1461046f57806336568abe1461048f57005b8062fdd58e146102cf57806301ffc9a71461030257806302fe5305146103325780630a579eca146103525780630e89341c14610372578063155dd5ee1461039f57005b366102cd57005b005b3480156102db57600080fd5b506102ef6102ea366004613fa4565b61095f565b6040519081526020015b60405180910390f35b34801561030e57600080fd5b5061032261031d366004613fe4565b6109fa565b60405190151581526020016102f9565b34801561033e57600080fd5b506102cd61034d3660046140b6565b610a05565b34801561035e57600080fd5b506102cd61036d3660046140ea565b610a3c565b34801561037e57600080fd5b5061039261038d3660046140ea565b610b1e565b6040516102f99190614153565b3480156103ab57600080fd5b506102cd6103ba3660046140ea565b610b59565b3480156103cb57600080fd5b506102ef6103da3660046140ea565b60009081526097602052604090206001015490565b3480156103fb57600080fd5b5061040f61040a3660046140ea565b610ce3565b6040516102f99695949392919061419e565b34801561042d57600080fd5b506102ef61043c3660046141f7565b6101c96020526000908152604090205481565b34801561045b57600080fd5b506102cd61046a3660046142a6565b610e39565b34801561047b57600080fd5b506102cd61048a36600461434f565b610e7e565b34801561049b57600080fd5b506102cd6104aa36600461434f565b610e98565b3480156104bb57600080fd5b506102cd6104ca3660046141f7565b610f12565b3480156104db57600080fd5b506102cd610ff1565b3480156104f057600080fd5b506102cd611023565b34801561050557600080fd5b5061051961051436600461437b565b611163565b6040516102f99190614480565b6102cd610534366004614493565b61128c565b34801561054557600080fd5b506103226105543660046140ea565b600090815261012d6020526040902054151590565b34801561057557600080fd5b506102ef611358565b34801561058a57600080fd5b5060c95460ff16610322565b3480156105a257600080fd5b506102cd6105b13660046144d6565b61140c565b3480156105c257600080fd5b506102ef6101c65481565b3480156105d957600080fd5b506102cd6105e83660046140ea565b61144f565b3480156105f957600080fd5b506102cd6106083660046140ea565b6114e9565b6102cd61061b366004614549565b6114fb565b34801561062c57600080fd5b506102cd61063b3660046140ea565b611695565b34801561064c57600080fd5b506102cd61065b3660046140ea565b6116a7565b34801561066c57600080fd5b506102cd6117a1565b34801561068157600080fd5b506102cd61196c565b34801561069657600080fd5b506103226106a536600461434f565b61199e565b6102cd6106b8366004614579565b6119c9565b3480156106c957600080fd5b506102cd6106d83660046140ea565b611ab6565b3480156106e957600080fd5b506102ef600081565b3480156106fe57600080fd5b506102cd61070d3660046145d9565b611ac8565b34801561071e57600080fd5b506102ef6101c35481565b34801561073557600080fd5b506102ef610744366004614615565b611ad3565b34801561075557600080fd5b506102ef6101ca5481565b34801561076c57600080fd5b506102ef61077b3660046140ea565b600090815261012d602052604090205490565b34801561079a57600080fd5b506102ef6101c55481565b3480156107b157600080fd5b506107c56107c03660046141f7565b611c2d565b6040516102f99190614673565b3480156107de57600080fd5b506102cd6107ed36600461434f565b611d97565b3480156107fe57600080fd5b506102cd61080d3660046146e9565b611dbc565b34801561081e57600080fd5b50610827611efe565b6040516102f9919061470b565b34801561084057600080fd5b506102cd61084f3660046147bf565b61216d565b34801561086057600080fd5b506103926121f3565b34801561087557600080fd5b50610322610884366004614821565b6001600160a01b03918216600090815260666020908152604080832093909416825291909152205460ff1690565b3480156108be57600080fd5b506108d26108cd3660046141f7565b612213565b6040516102f9919061484b565b3480156108eb57600080fd5b506102cd6108fa366004614891565b6122d3565b34801561090b57600080fd5b506102cd61091a3660046148f5565b612318565b34801561092b57600080fd5b506102cd61093a3660046140ea565b61235b565b34801561094b57600080fd5b506102cd61095a3660046140ea565b6123f0565b60006001600160a01b0383166109cf5760405162461bcd60e51b815260206004820152602a60248201527f455243313135353a2061646472657373207a65726f206973206e6f742061207660448201526930b634b21037bbb732b960b11b60648201526084015b60405180910390fd5b5060008181526065602090815260408083206001600160a01b03861684529091529020545b92915050565b60006109f4826124cb565b7f7804d923f43a17d325d77e781528e0793b2edd9890ab45fc64efd7b4b427744c610a2f816124f0565b610a38826124fa565b5050565b60008181526101c460205260409020600301546001600160a01b0316331480610a6b5750610a6b60003361199e565b610a885760405163388f811f60e01b815260040160405180910390fd5b600260008281526101c4602052604090205460ff166003811115610aae57610aae614166565b14610acc57604051631f0fb6fd60e11b815260040160405180910390fd5b60008181526101c46020908152604091829020805460ff1916600317905590518281527f591913f977ab242c5871f116f36be231ff67df5e8e0bac1efd91fa8a723aca2b91015b60405180910390a150565b6060610b2982612506565b610b328361259a565b604051602001610b43929190614928565b6040516020818303038152906040529050919050565b6000610b64816124f0565b47821115610b8557604051631036b5ad60e31b815260040160405180910390fd5b6000475b6101c554821015610be65760008281526101c46020526040902060020154610bb1908261496d565b905083811015610bd45760405163156bbc5b60e01b815260040160405180910390fd5b81610bde81614980565b925050610b89565b600091505b6101c854821015610c73576101c960006101c88481548110610c0f57610c0f614999565b60009182526020808320909101546001600160a01b03168352820192909252604001902054610c3e908261496d565b905083811015610c615760405163156bbc5b60e01b815260040160405180910390fd5b81610c6b81614980565b925050610beb565b604051600090339086908381818185875af1925050503d8060008114610cb5576040519150601f19603f3d011682016040523d82523d6000602084013e610cba565b606091505b5050905080610cdc576040516317f2c34560e31b815260040160405180910390fd5b5050505050565b6101c4602052600090815260409020805460018201546002830154600384015460048501805460ff90951695939492936001600160a01b0390921692610d28906149af565b80601f0160208091040260200160405190810160405280929190818152602001828054610d54906149af565b8015610da15780601f10610d7657610100808354040283529160200191610da1565b820191906000526020600020905b815481529060010190602001808311610d8457829003601f168201915b505050505090806005018054610db6906149af565b80601f0160208091040260200160405190810160405280929190818152602001828054610de2906149af565b8015610e2f5780601f10610e0457610100808354040283529160200191610e2f565b820191906000526020600020905b815481529060010190602001808311610e1257829003601f168201915b5050505050905086565b6001600160a01b038516331480610e555750610e558533610884565b610e715760405162461bcd60e51b81526004016109c6906149e3565b610cdc858585858561262c565b6000610e89816124f0565b610e9383836127d9565b505050565b6001600160a01b0381163314610f085760405162461bcd60e51b815260206004820152602f60248201527f416363657373436f6e74726f6c3a2063616e206f6e6c792072656e6f756e636560448201526e103937b632b9903337b91039b2b63360891b60648201526084016109c6565b610a38828261285f565b6001600160a01b037f0000000000000000000000000000000000000000000000000000000000000000163003610f5a5760405162461bcd60e51b81526004016109c690614a31565b7f00000000000000000000000000000000000000000000000000000000000000006001600160a01b0316610fa3600080516020615099833981519152546001600160a01b031690565b6001600160a01b031614610fc95760405162461bcd60e51b81526004016109c690614a7d565b610fd2816128c6565b60408051600080825260208201909252610fee918391906128f0565b50565b7f65d7a28e3265b37a6474929f336521b332c1681b933f6cb9f3376673440d862a61101b816124f0565b610fee612a5b565b6000805b6101c55481101561109b5760008181526101c46020526040902060030154336001600160a01b03909116036110895760008181526101c460205260409020600201546110739083614ac9565b60008281526101c4602052604081206002015591505b8061109381614980565b915050611027565b50806000036110bd57604051637eafab7d60e01b815260040160405180910390fd5b604051600090339083908381818185875af1925050503d80600081146110ff576040519150601f19603f3d011682016040523d82523d6000602084013e611104565b606091505b5050905080611126576040516317f2c34560e31b815260040160405180910390fd5b604080518381523360208201527f2c4d8ac9e2e78ca782b763534316eee3d845022aa396eca3410bfc99512f7f0191015b60405180910390a15050565b606081518351146111c85760405162461bcd60e51b815260206004820152602960248201527f455243313135353a206163636f756e747320616e6420696473206c656e677468604482015268040dad2e6dac2e8c6d60bb1b60648201526084016109c6565b600083516001600160401b038111156111e3576111e3614001565b60405190808252806020026020018201604052801561120c578160200160208202803683370190505b50905060005b84518110156112845761125785828151811061123057611230614999565b602002602001015185838151811061124a5761124a614999565b602002602001015161095f565b82828151811061126957611269614999565b602090810291909101015261127d81614980565b9050611212565b509392505050565b6001600160a01b037f00000000000000000000000000000000000000000000000000000000000000001630036112d45760405162461bcd60e51b81526004016109c690614a31565b7f00000000000000000000000000000000000000000000000000000000000000006001600160a01b031661131d600080516020615099833981519152546001600160a01b031690565b6001600160a01b0316146113435760405162461bcd60e51b81526004016109c690614a7d565b61134c826128c6565b610a38828260016128f0565b6000306001600160a01b037f000000000000000000000000000000000000000000000000000000000000000016146113f85760405162461bcd60e51b815260206004820152603860248201527f555550535570677261646561626c653a206d757374206e6f742062652063616c60448201527f6c6564207468726f7567682064656c656761746563616c6c000000000000000060648201526084016109c6565b506000805160206150998339815191525b90565b6001600160a01b03831633148061142857506114288333610884565b6114445760405162461bcd60e51b81526004016109c6906149e3565b610e93838383612aad565b600061145a816124f0565b600160008381526101c4602052604090205460ff16600381111561148057611480614166565b1461149e5760405163137c9c1f60e31b815260040160405180910390fd5b60008281526101c46020908152604091829020805460ff1916600217905590518381527f8f4352ac8b4aefdd2333162306bbe09dd4f4ff6661e89ccc4e4dcced8794e8f79101611157565b60006114f4816124f0565b506101c355565b6101ca5434101561151f57604051631036b5ad60e31b815260040160405180910390fd5b600260008381526101c4602052604090205460ff16600381111561154557611545614166565b1461156357604051631f0fb6fd60e11b815260040160405180910390fd5b61157734836101c5546101c46101c9612c4e565b6000805b6101c8548110156115d957336001600160a01b03166101c882815481106115a4576115a4614999565b6000918252602090912001546001600160a01b0316036115c757600191506115d9565b806115d181614980565b91505061157b565b5080611623576101c880546001810182556000919091527f8cdee82cb3ac6d59f1f417405a3eecf497b31f3d06d4c506f96deb67789f61e90180546001600160a01b031916331790555b3360009081526101c760209081526040808320600887901c845290915290208054600160ff86161b179055336001600160a01b0316837f710e220a47c8d9e50587c80fe509f5e762149ef672440eff70798204dd70f5eb846040516116889190614153565b60405180910390a3505050565b60006116a0816124f0565b506101c655565b3360009081526101c96020526040902054808211156116d957604051631036b5ad60e31b815260040160405180910390fd5b3360009081526101c96020526040812080548492906116f990849061496d565b9091555050604051600090339084908381818185875af1925050503d8060008114611740576040519150601f19603f3d011682016040523d82523d6000602084013e611745565b606091505b5050905080611767576040516317f2c34560e31b815260040160405180910390fd5b60405183815233907f1333c5e908ee77bb5374e2f8269c28becbb0de91028e297ff763ffaf7bd53a1e9060200160405180910390a2505050565b600054610100900460ff16158080156117c15750600054600160ff909116105b806117db5750303b1580156117db575060005460ff166001145b61183e5760405162461bcd60e51b815260206004820152602e60248201527f496e697469616c697a61626c653a20636f6e747261637420697320616c72656160448201526d191e481a5b9a5d1a585b1a5e995960921b60648201526084016109c6565b6000805460ff191660011790558015611861576000805461ff0019166101001790555b6118796040518060200160405280600081525061302a565b61188161305a565b611889613083565b61189161305a565b61189961305a565b6118a161305a565b6118ac6000336127d9565b6118d67f7804d923f43a17d325d77e781528e0793b2edd9890ab45fc64efd7b4b427744c336127d9565b6119007f65d7a28e3265b37a6474929f336521b332c1681b933f6cb9f3376673440d862a336127d9565b61192a7f189ab7a9244df0848122154315af71fe140f3db0fe014031783b0946b8c9d2e3336127d9565b8015610fee576000805461ff0019169055604051600181527f7f26b83ff96e1f2b6a682f133852f6798a09c465da95921460cefb384740249890602001610b13565b7f65d7a28e3265b37a6474929f336521b332c1681b933f6cb9f3376673440d862a611996816124f0565b610fee6130b2565b60009182526097602090815260408084206001600160a01b0393909316845291905290205460ff1690565b60006119d4816124f0565b600260008681526101c4602052604090205460ff1660038111156119fa576119fa614166565b14611a1857604051631f0fb6fd60e11b815260040160405180910390fd5b6101c35460008681526101c460205260409020600101548591611a3a91614ac9565b611a449190614adc565b341015611a6457604051631036b5ad60e31b815260040160405180910390fd5b611a70838686856130ef565b6101c354611a7e9085614adc565b611a88903461496d565b60008681526101c4602052604081206002018054909190611aaa908490614ac9565b90915550505050505050565b6000611ac1816124f0565b506101ca55565b610a38338383613214565b60006101c654861115611af957604051630f0c4c5f60e41b815260040160405180910390fd5b506101c5546040805160c0810190915280600181526020808201899052600060408084018290526001600160a01b038a1660608501526080840188905260a09093018690528481526101c49091522081518154829060ff19166001836003811115611b6657611b66614166565b0217905550602082015160018201556040820151600282015560608201516003820180546001600160a01b0319166001600160a01b0390921691909117905560808201516004820190611bb99082614b39565b5060a08201516005820190611bce9082614b39565b50506101c5805491506000611be283614980565b91905055507f3deb71b5a6774038a220621d78241405004043d5a928de9c7956bcc5270416db81838888604051611c1c9493929190614bf8565b60405180910390a195945050505050565b606060006101c5546001600160401b03811115611c4c57611c4c614001565b604051908082528060200260200182016040528015611c9257816020015b604080518082019091526060815260006020820152815260200190600190039081611c6a5790505b50905060005b6101c554811015611d905760405180604001604052806101c460008481526020019081526020016000206004018054611cd0906149af565b80601f0160208091040260200160405190810160405280929190818152602001828054611cfc906149af565b8015611d495780601f10611d1e57610100808354040283529160200191611d49565b820191906000526020600020905b815481529060010190602001808311611d2c57829003601f168201915b50505050508152602001611d5d868461095f565b815250828281518110611d7257611d72614999565b60200260200101819052508080611d8890614980565b915050611c98565b5092915050565b600082815260976020526040902060010154611db2816124f0565b610e93838361285f565b60008281526101c460205260409020600301546001600160a01b03163314611df75760405163388f811f60e01b815260040160405180910390fd5b60008281526101c46020526040902060020154811115611e2a57604051637eafab7d60e01b815260040160405180910390fd5b604051600090339083908381818185875af1925050503d8060008114611e6c576040519150601f19603f3d011682016040523d82523d6000602084013e611e71565b606091505b5050905080611e93576040516317f2c34560e31b815260040160405180910390fd5b60008381526101c4602052604081206002018054849290611eb590849061496d565b90915550506040805184815260208101849052338183015290517ff1090e9d5138cd4909542e10e1da576730b07eb291a71a151e63160dde345b949181900360600190a1505050565b606060006101c5546001600160401b03811115611f1d57611f1d614001565b604051908082528060200260200182016040528015611f9157816020015b611f7e6040805160c081019091528060008152602001600081526020016000815260200160006001600160a01b0316815260200160608152602001606081525090565b815260200190600190039081611f3b5790505b50905060005b6101c5548110156121675760008181526101c4602052604090819020815160c081019092528054829060ff166003811115611fd457611fd4614166565b6003811115611fe557611fe5614166565b8152600182015460208201526002820154604082015260038201546001600160a01b03166060820152600482018054608090920191612023906149af565b80601f016020809104026020016040519081016040528092919081815260200182805461204f906149af565b801561209c5780601f106120715761010080835404028352916020019161209c565b820191906000526020600020905b81548152906001019060200180831161207f57829003601f168201915b505050505081526020016005820180546120b5906149af565b80601f01602080910402602001604051908101604052809291908181526020018280546120e1906149af565b801561212e5780601f106121035761010080835404028352916020019161212e565b820191906000526020600020905b81548152906001019060200180831161211157829003601f168201915b50505050508152505082828151811061214957612149614999565b6020026020010181905250808061215f90614980565b915050611f97565b50919050565b6000612178816124f0565b60008481526101c4602052604081205460ff16600381111561219c5761219c614166565b036121ba5760405163137c9c1f60e31b815260040160405180910390fd5b60008481526101c4602052604090206004016121d68482614b39565b5060008481526101c460205260409020600501610cdc8382614b39565b60606040518060600160405280602481526020016150e060249139905090565b606060006101c5546001600160401b0381111561223257612232614001565b60405190808252806020026020018201604052801561225b578160200160208202803683370190505b50905060005b6101c554811015611d90576001600160a01b03841660009081526101c760209081526040808320600885901c8452909152902054600160ff83161b1615158282815181106122b1576122b1614999565b91151560209283029190910190910152806122cb81614980565b915050612261565b6001600160a01b0385163314806122ef57506122ef8533610884565b61230b5760405162461bcd60e51b81526004016109c6906149e3565b610cdc85858585856132ec565b6001600160a01b03831633148061233457506123348333610884565b6123505760405162461bcd60e51b81526004016109c6906149e3565b610e93838383613428565b3360009081526101c760209081526040808320600885901c84529182905290912054600160ff84161b166123a25760405163423f327760e11b815260040160405180910390fd5b600882901c6000908152602082905260408082208054600160ff87161b1916905551339184917fc6c1c3224e50c3c958e39197695bdfe8457ce7c0014d8d51a4d3aa12c5ac18489190a35050565b60008181526101c460205260409020600301546001600160a01b031633148061241f575061241f60003361199e565b61243c5760405163388f811f60e01b815260040160405180910390fd5b600360008281526101c4602052604090205460ff16600381111561246257612462614166565b146124805760405163968807a560e01b815260040160405180910390fd5b60008181526101c46020908152604091829020805460ff1916600217905590518281527f63bb17c9645a29322601b4fe88d8f3fa84f32229368294f903084be8f5d813ba9101610b13565b60006001600160e01b03198216637965db0b60e01b14806109f457506109f482613544565b610fee8133613594565b6067610a388282614b39565b606060678054612515906149af565b80601f0160208091040260200160405190810160405280929190818152602001828054612541906149af565b801561258e5780601f106125635761010080835404028352916020019161258e565b820191906000526020600020905b81548152906001019060200180831161257157829003601f168201915b50505050509050919050565b606060006125a7836135ed565b60010190506000816001600160401b038111156125c6576125c6614001565b6040519080825280601f01601f1916602001820160405280156125f0576020820181803683370190505b5090508181016020015b600019016f181899199a1a9b1b9c1cb0b131b232b360811b600a86061a8153600a85049450846125fa57509392505050565b815183511461264d5760405162461bcd60e51b81526004016109c690614c32565b6001600160a01b0384166126735760405162461bcd60e51b81526004016109c690614c7a565b336126828187878787876136c5565b60005b845181101561276b5760008582815181106126a2576126a2614999565b6020026020010151905060008583815181106126c0576126c0614999565b60209081029190910181015160008481526065835260408082206001600160a01b038e1683529093529190912054909150818110156127115760405162461bcd60e51b81526004016109c690614cbf565b60008381526065602090815260408083206001600160a01b038e8116855292528083208585039055908b16825281208054849290612750908490614ac9565b925050819055505050508061276490614980565b9050612685565b50846001600160a01b0316866001600160a01b0316826001600160a01b03167f4a39dc06d4c0dbc64b70af90fd698a233a518aa5d07e595d983b8c0526c8f7fb87876040516127bb929190614d09565b60405180910390a46127d18187878787876136db565b505050505050565b6127e3828261199e565b610a385760008281526097602090815260408083206001600160a01b03851684529091529020805460ff1916600117905561281b3390565b6001600160a01b0316816001600160a01b0316837f2f8788117e7eff1d82e926ec794901d17c78024a50270940304540a733656f0d60405160405180910390a45050565b612869828261199e565b15610a385760008281526097602090815260408083206001600160a01b0385168085529252808320805460ff1916905551339285917ff6391f5c32d9c69d2a47ea670b442974b53935d1edc7fd64eb21e047a839171b9190a45050565b7f189ab7a9244df0848122154315af71fe140f3db0fe014031783b0946b8c9d2e3610a38816124f0565b7f4910fdfa16fed3260ed0e7147f7cc6da11a60208b5b9406d12a635614ffd91435460ff161561292357610e9383613836565b826001600160a01b03166352d1902d6040518163ffffffff1660e01b8152600401602060405180830381865afa92505050801561297d575060408051601f3d908101601f1916820190925261297a91810190614d37565b60015b6129e05760405162461bcd60e51b815260206004820152602e60248201527f45524331393637557067726164653a206e657720696d706c656d656e7461746960448201526d6f6e206973206e6f74205555505360901b60648201526084016109c6565b6000805160206150998339815191528114612a4f5760405162461bcd60e51b815260206004820152602960248201527f45524331393637557067726164653a20756e737570706f727465642070726f786044820152681a58589b195555525160ba1b60648201526084016109c6565b50610e938383836138d2565b612a636138f7565b60c9805460ff191690557f5db9ee0a495bf2e6ff9c91a7834c1ba4fdd244a5e8aa4e537bd38aeae4b073aa335b6040516001600160a01b03909116815260200160405180910390a1565b6001600160a01b038316612ad35760405162461bcd60e51b81526004016109c690614d50565b8051825114612af45760405162461bcd60e51b81526004016109c690614c32565b6000339050612b17818560008686604051806020016040528060008152506136c5565b60005b8351811015612bdf576000848281518110612b3757612b37614999565b602002602001015190506000848381518110612b5557612b55614999565b60209081029190910181015160008481526065835260408082206001600160a01b038c168352909352919091205490915081811015612ba65760405162461bcd60e51b81526004016109c690614d93565b60009283526065602090815260408085206001600160a01b038b1686529091529092209103905580612bd781614980565b915050612b1a565b5060006001600160a01b0316846001600160a01b0316826001600160a01b03167f4a39dc06d4c0dbc64b70af90fd698a233a518aa5d07e595d983b8c0526c8f7fb8686604051612c30929190614d09565b60405180910390a46040805160208101909152600090525b50505050565b6000612c5b600287614dd7565b90506000612c6a600588614dd7565b9050818460008881526020019081526020016000206002016000828254612c919190614ac9565b909155505060008681526020859052604081206005018054612cb2906149af565b80601f0160208091040260200160405190810160405280929190818152602001828054612cde906149af565b8015612d2b5780601f10612d0057610100808354040283529160200191612d2b565b820191906000526020600020905b815481529060010190602001808311612d0e57829003601f168201915b505050505090506000866001600160401b03811115612d4c57612d4c614001565b604051908082528060200260200182016040528015612d75578160200160208202803683370190505b5090506000805b88811015612f9557808a14612f8357600081815260208990526040808220815160c081019092528054829060ff166003811115612dbb57612dbb614166565b6003811115612dcc57612dcc614166565b8152600182015460208201526002820154604082015260038201546001600160a01b03166060820152600482018054608090920191612e0a906149af565b80601f0160208091040260200160405190810160405280929190818152602001828054612e36906149af565b8015612e835780601f10612e5857610100808354040283529160200191612e83565b820191906000526020600020905b815481529060010190602001808311612e6657829003601f168201915b50505050508152602001600582018054612e9c906149af565b80601f0160208091040260200160405190810160405280929190818152602001828054612ec8906149af565b8015612f155780601f10612eea57610100808354040283529160200191612f15565b820191906000526020600020905b815481529060010190602001808311612ef857829003601f168201915b5050505050815250509050612f3f8160a00151868051602091820120825192909101919091201490565b15612f81578060600151848481518110612f5b57612f5b614999565b6001600160a01b0390921660209283029190910190910152612f7e600184614ac9565b92505b505b80612f8d81614980565b915050612d7c565b811561301d576000612fa78387614dd7565b9050600091505b8282101561301b5780886000868581518110612fcc57612fcc614999565b60200260200101516001600160a01b03166001600160a01b0316815260200190815260200160002060008282546130039190614ac9565b9091555082905061301381614980565b925050612fae565b505b5050505050505050505050565b600054610100900460ff166130515760405162461bcd60e51b81526004016109c690614df9565b610fee81613940565b600054610100900460ff166130815760405162461bcd60e51b81526004016109c690614df9565b565b600054610100900460ff166130aa5760405162461bcd60e51b81526004016109c690614df9565b613081613970565b6130ba6139a3565b60c9805460ff191660011790557f62e78cea01bee320cd4e420270b5ea74000d11b0c9f74754ebdbfc544b05a258612a903390565b6001600160a01b03841661314f5760405162461bcd60e51b815260206004820152602160248201527f455243313135353a206d696e7420746f20746865207a65726f206164647265736044820152607360f81b60648201526084016109c6565b33600061315b856139e9565b90506000613168856139e9565b9050613179836000898585896136c5565b60008681526065602090815260408083206001600160a01b038b168452909152812080548792906131ab908490614ac9565b909155505060408051878152602081018790526001600160a01b03808a1692600092918716917fc3d58168c5ae7397731d063d5bbf3d657854427343f4c083240f7aacaa2d0f62910160405180910390a461320b83600089898989613a34565b50505050505050565b816001600160a01b0316836001600160a01b0316036132875760405162461bcd60e51b815260206004820152602960248201527f455243313135353a2073657474696e6720617070726f76616c20737461747573604482015268103337b91039b2b63360b91b60648201526084016109c6565b6001600160a01b03838116600081815260666020908152604080832094871680845294825291829020805460ff191686151590811790915591519182527f17307eab39ab6107e8899845ad3d59bd9653f200f220920489ca2b5937696c319101611688565b6001600160a01b0384166133125760405162461bcd60e51b81526004016109c690614c7a565b33600061331e856139e9565b9050600061332b856139e9565b905061333b8389898585896136c5565b60008681526065602090815260408083206001600160a01b038c1684529091529020548581101561337e5760405162461bcd60e51b81526004016109c690614cbf565b60008781526065602090815260408083206001600160a01b038d8116855292528083208985039055908a168252812080548892906133bd908490614ac9565b909155505060408051888152602081018890526001600160a01b03808b16928c821692918816917fc3d58168c5ae7397731d063d5bbf3d657854427343f4c083240f7aacaa2d0f62910160405180910390a461341d848a8a8a8a8a613a34565b505050505050505050565b6001600160a01b03831661344e5760405162461bcd60e51b81526004016109c690614d50565b33600061345a846139e9565b90506000613467846139e9565b9050613487838760008585604051806020016040528060008152506136c5565b60008581526065602090815260408083206001600160a01b038a168452909152902054848110156134ca5760405162461bcd60e51b81526004016109c690614d93565b60008681526065602090815260408083206001600160a01b038b81168086529184528285208a8703905582518b81529384018a90529092908816917fc3d58168c5ae7397731d063d5bbf3d657854427343f4c083240f7aacaa2d0f62910160405180910390a460408051602081019091526000905261320b565b60006001600160e01b03198216636cdb3d1360e11b148061357557506001600160e01b031982166303a24d0760e21b145b806109f457506301ffc9a760e01b6001600160e01b03198316146109f4565b61359e828261199e565b610a38576135ab81613aef565b6135b6836020613b01565b6040516020016135c7929190614e44565b60408051601f198184030181529082905262461bcd60e51b82526109c691600401614153565b60008072184f03e93ff9f4daa797ed6e38ed64bf6a1f0160401b831061362c5772184f03e93ff9f4daa797ed6e38ed64bf6a1f0160401b830492506040015b6d04ee2d6d415b85acef81000000008310613658576d04ee2d6d415b85acef8100000000830492506020015b662386f26fc10000831061367657662386f26fc10000830492506010015b6305f5e100831061368e576305f5e100830492506008015b61271083106136a257612710830492506004015b606483106136b4576064830492506002015b600a83106109f45760010192915050565b6136cd6139a3565b6127d1868686868686613ca3565b6001600160a01b0384163b156127d15760405163bc197c8160e01b81526001600160a01b0385169063bc197c819061371f9089908990889088908890600401614eb9565b6020604051808303816000875af192505050801561375a575060408051601f3d908101601f1916820190925261375791810190614f17565b60015b61380657613766614f34565b806308c379a00361379f575061377a614f4f565b8061378557506137a1565b8060405162461bcd60e51b81526004016109c69190614153565b505b60405162461bcd60e51b815260206004820152603460248201527f455243313135353a207472616e7366657220746f206e6f6e2d455243313135356044820152732932b1b2b4bb32b91034b6b83632b6b2b73a32b960611b60648201526084016109c6565b6001600160e01b0319811663bc197c8160e01b1461320b5760405162461bcd60e51b81526004016109c690614fd8565b6001600160a01b0381163b6138a35760405162461bcd60e51b815260206004820152602d60248201527f455243313936373a206e657720696d706c656d656e746174696f6e206973206e60448201526c1bdd08184818dbdb9d1c9858dd609a1b60648201526084016109c6565b60008051602061509983398151915280546001600160a01b0319166001600160a01b0392909216919091179055565b6138db83613e1f565b6000825111806138e85750805b15610e9357612c488383613e5f565b60c95460ff166130815760405162461bcd60e51b815260206004820152601460248201527314185d5cd8589b194e881b9bdd081c185d5cd95960621b60448201526064016109c6565b600054610100900460ff166139675760405162461bcd60e51b81526004016109c690614df9565b610fee816124fa565b600054610100900460ff166139975760405162461bcd60e51b81526004016109c690614df9565b60c9805460ff19169055565b60c95460ff16156130815760405162461bcd60e51b815260206004820152601060248201526f14185d5cd8589b194e881c185d5cd95960821b60448201526064016109c6565b60408051600180825281830190925260609160009190602080830190803683370190505090508281600081518110613a2357613a23614999565b602090810291909101015292915050565b6001600160a01b0384163b156127d15760405163f23a6e6160e01b81526001600160a01b0385169063f23a6e6190613a789089908990889088908890600401615020565b6020604051808303816000875af1925050508015613ab3575060408051601f3d908101601f19168201909252613ab091810190614f17565b60015b613abf57613766614f34565b6001600160e01b0319811663f23a6e6160e01b1461320b5760405162461bcd60e51b81526004016109c690614fd8565b60606109f46001600160a01b03831660145b60606000613b10836002614adc565b613b1b906002614ac9565b6001600160401b03811115613b3257613b32614001565b6040519080825280601f01601f191660200182016040528015613b5c576020820181803683370190505b509050600360fc1b81600081518110613b7757613b77614999565b60200101906001600160f81b031916908160001a905350600f60fb1b81600181518110613ba657613ba6614999565b60200101906001600160f81b031916908160001a9053506000613bca846002614adc565b613bd5906001614ac9565b90505b6001811115613c4d576f181899199a1a9b1b9c1cb0b131b232b360811b85600f1660108110613c0957613c09614999565b1a60f81b828281518110613c1f57613c1f614999565b60200101906001600160f81b031916908160001a90535060049490941c93613c4681615065565b9050613bd8565b508315613c9c5760405162461bcd60e51b815260206004820181905260248201527f537472696e67733a20686578206c656e67746820696e73756666696369656e7460448201526064016109c6565b9392505050565b6001600160a01b038516613d2b5760005b8351811015613d2957828181518110613ccf57613ccf614999565b602002602001015161012d6000868481518110613cee57613cee614999565b602002602001015181526020019081526020016000206000828254613d139190614ac9565b90915550613d22905081614980565b9050613cb4565b505b6001600160a01b0384166127d15760005b835181101561320b576000848281518110613d5957613d59614999565b602002602001015190506000848381518110613d7757613d77614999565b60200260200101519050600061012d600084815260200190815260200160002054905081811015613dfb5760405162461bcd60e51b815260206004820152602860248201527f455243313135353a206275726e20616d6f756e74206578636565647320746f74604482015267616c537570706c7960c01b60648201526084016109c6565b600092835261012d602052604090922091039055613e1881614980565b9050613d3c565b613e2881613836565b6040516001600160a01b038216907fbc7cd75a20ee27fd9adebab32041f755214dbc6bffa90cc0225b39da2e5c2d3b90600090a250565b6060613c9c83836040518060600160405280602781526020016150b9602791396060600080856001600160a01b031685604051613e9c919061507c565b600060405180830381855af49150503d8060008114613ed7576040519150601f19603f3d011682016040523d82523d6000602084013e613edc565b606091505b5091509150613eed86838387613ef7565b9695505050505050565b60608315613f66578251600003613f5f576001600160a01b0385163b613f5f5760405162461bcd60e51b815260206004820152601d60248201527f416464726573733a2063616c6c20746f206e6f6e2d636f6e747261637400000060448201526064016109c6565b5081613f70565b613f708383613f78565b949350505050565b8151156137855781518083602001fd5b80356001600160a01b0381168114613f9f57600080fd5b919050565b60008060408385031215613fb757600080fd5b613fc083613f88565b946020939093013593505050565b6001600160e01b031981168114610fee57600080fd5b600060208284031215613ff657600080fd5b8135613c9c81613fce565b634e487b7160e01b600052604160045260246000fd5b601f8201601f191681016001600160401b038111828210171561403c5761403c614001565b6040525050565b600082601f83011261405457600080fd5b81356001600160401b0381111561406d5761406d614001565b604051614084601f8301601f191660200182614017565b81815284602083860101111561409957600080fd5b816020850160208301376000918101602001919091529392505050565b6000602082840312156140c857600080fd5b81356001600160401b038111156140de57600080fd5b613f7084828501614043565b6000602082840312156140fc57600080fd5b5035919050565b60005b8381101561411e578181015183820152602001614106565b50506000910152565b6000815180845261413f816020860160208601614103565b601f01601f19169290920160200192915050565b602081526000613c9c6020830184614127565b634e487b7160e01b600052602160045260246000fd5b6004811061419a57634e487b7160e01b600052602160045260246000fd5b9052565b6141a8818861417c565b85602082015284604082015260018060a01b038416606082015260c0608082015260006141d860c0830185614127565b82810360a08401526141ea8185614127565b9998505050505050505050565b60006020828403121561420957600080fd5b613c9c82613f88565b60006001600160401b0382111561422b5761422b614001565b5060051b60200190565b600082601f83011261424657600080fd5b8135602061425382614212565b6040516142608282614017565b83815260059390931b850182019282810191508684111561428057600080fd5b8286015b8481101561429b5780358352918301918301614284565b509695505050505050565b600080600080600060a086880312156142be57600080fd5b6142c786613f88565b94506142d560208701613f88565b935060408601356001600160401b03808211156142f157600080fd5b6142fd89838a01614235565b9450606088013591508082111561431357600080fd5b61431f89838a01614235565b9350608088013591508082111561433557600080fd5b5061434288828901614043565b9150509295509295909350565b6000806040838503121561436257600080fd5b8235915061437260208401613f88565b90509250929050565b6000806040838503121561438e57600080fd5b82356001600160401b03808211156143a557600080fd5b818501915085601f8301126143b957600080fd5b813560206143c682614212565b6040516143d38282614017565b83815260059390931b85018201928281019150898411156143f357600080fd5b948201945b838610156144185761440986613f88565b825294820194908201906143f8565b9650508601359250508082111561442e57600080fd5b5061443b85828601614235565b9150509250929050565b600081518084526020808501945080840160005b8381101561447557815187529582019590820190600101614459565b509495945050505050565b602081526000613c9c6020830184614445565b600080604083850312156144a657600080fd5b6144af83613f88565b915060208301356001600160401b038111156144ca57600080fd5b61443b85828601614043565b6000806000606084860312156144eb57600080fd5b6144f484613f88565b925060208401356001600160401b038082111561451057600080fd5b61451c87838801614235565b9350604086013591508082111561453257600080fd5b5061453f86828701614235565b9150509250925092565b6000806040838503121561455c57600080fd5b8235915060208301356001600160401b038111156144ca57600080fd5b6000806000806080858703121561458f57600080fd5b84359350602085013592506145a660408601613f88565b915060608501356001600160401b038111156145c157600080fd5b6145cd87828801614043565b91505092959194509250565b600080604083850312156145ec57600080fd5b6145f583613f88565b91506020830135801515811461460a57600080fd5b809150509250929050565b600080600080600060a0868803121561462d57600080fd5b8535945061463d60208701613f88565b935061464b60408701613f88565b925060608601356001600160401b038082111561466757600080fd5b61431f89838a01614043565b60006020808301818452808551808352604092508286019150828160051b87010184880160005b838110156146db57888303603f19018552815180518785526146be88860182614127565b91890151948901949094529487019492509086019060010161469a565b509098975050505050505050565b600080604083850312156146fc57600080fd5b50508035926020909101359150565b60006020808301818452808551808352604092508286019150828160051b87010184880160005b838110156146db57603f19898403018552815160c061475285835161417c565b81890151858a015287820151888601526060808301516001600160a01b03169086015260808083015181870183905261478d83880182614127565b9250505060a080830151925085820381870152506147ab8183614127565b968901969450505090860190600101614732565b6000806000606084860312156147d457600080fd5b8335925060208401356001600160401b03808211156147f257600080fd5b6147fe87838801614043565b9350604086013591508082111561481457600080fd5b5061453f86828701614043565b6000806040838503121561483457600080fd5b61483d83613f88565b915061437260208401613f88565b6020808252825182820181905260009190848201906040850190845b81811015614885578351151583529284019291840191600101614867565b50909695505050505050565b600080600080600060a086880312156148a957600080fd5b6148b286613f88565b94506148c060208701613f88565b9350604086013592506060860135915060808601356001600160401b038111156148e957600080fd5b61434288828901614043565b60008060006060848603121561490a57600080fd5b61491384613f88565b95602085013595506040909401359392505050565b6000835161493a818460208801614103565b83519083019061494e818360208801614103565b01949350505050565b634e487b7160e01b600052601160045260246000fd5b818103818111156109f4576109f4614957565b60006001820161499257614992614957565b5060010190565b634e487b7160e01b600052603260045260246000fd5b600181811c908216806149c357607f821691505b60208210810361216757634e487b7160e01b600052602260045260246000fd5b6020808252602e908201527f455243313135353a2063616c6c6572206973206e6f7420746f6b656e206f776e60408201526d195c881bdc88185c1c1c9bdd995960921b606082015260800190565b6020808252602c908201527f46756e6374696f6e206d7573742062652063616c6c6564207468726f7567682060408201526b19195b1959d85d1958d85b1b60a21b606082015260800190565b6020808252602c908201527f46756e6374696f6e206d7573742062652063616c6c6564207468726f7567682060408201526b6163746976652070726f787960a01b606082015260800190565b808201808211156109f4576109f4614957565b80820281158282048414176109f4576109f4614957565b601f821115610e9357600081815260208120601f850160051c81016020861015614b1a5750805b601f850160051c820191505b818110156127d157828155600101614b26565b81516001600160401b03811115614b5257614b52614001565b614b6681614b6084546149af565b84614af3565b602080601f831160018114614b9b5760008415614b835750858301515b600019600386901b1c1916600185901b1785556127d1565b600085815260208120601f198616915b82811015614bca57888601518255948401946001909101908401614bab565b5085821015614be85787850151600019600388901b60f8161c191681555b5050505050600190811b01905550565b848152608060208201526000614c116080830186614127565b6040830194909452506001600160a01b039190911660609091015292915050565b60208082526028908201527f455243313135353a2069647320616e6420616d6f756e7473206c656e677468206040820152670dad2e6dac2e8c6d60c31b606082015260800190565b60208082526025908201527f455243313135353a207472616e7366657220746f20746865207a65726f206164604082015264647265737360d81b606082015260800190565b6020808252602a908201527f455243313135353a20696e73756666696369656e742062616c616e636520666f60408201526939103a3930b739b332b960b11b606082015260800190565b604081526000614d1c6040830185614445565b8281036020840152614d2e8185614445565b95945050505050565b600060208284031215614d4957600080fd5b5051919050565b60208082526023908201527f455243313135353a206275726e2066726f6d20746865207a65726f206164647260408201526265737360e81b606082015260800190565b60208082526024908201527f455243313135353a206275726e20616d6f756e7420657863656564732062616c604082015263616e636560e01b606082015260800190565b600082614df457634e487b7160e01b600052601260045260246000fd5b500490565b6020808252602b908201527f496e697469616c697a61626c653a20636f6e7472616374206973206e6f74206960408201526a6e697469616c697a696e6760a81b606082015260800190565b7f416363657373436f6e74726f6c3a206163636f756e7420000000000000000000815260008351614e7c816017850160208801614103565b7001034b99036b4b9b9b4b733903937b6329607d1b6017918401918201528351614ead816028840160208801614103565b01602801949350505050565b6001600160a01b0386811682528516602082015260a060408201819052600090614ee590830186614445565b8281036060840152614ef78186614445565b90508281036080840152614f0b8185614127565b98975050505050505050565b600060208284031215614f2957600080fd5b8151613c9c81613fce565b600060033d11156114095760046000803e5060005160e01c90565b600060443d1015614f5d5790565b6040516003193d81016004833e81513d6001600160401b038160248401118184111715614f8c57505050505090565b8285019150815181811115614fa45750505050505090565b843d8701016020828501011115614fbe5750505050505090565b614fcd60208286010187614017565b509095945050505050565b60208082526028908201527f455243313135353a204552433131353552656365697665722072656a656374656040820152676420746f6b656e7360c01b606082015260800190565b6001600160a01b03868116825285166020820152604081018490526060810183905260a06080820181905260009061505a90830184614127565b979650505050505050565b60008161507457615074614957565b506000190190565b6000825161508e818460208701614103565b919091019291505056fe360894a13ba1a3210667c828492db98dca3e2076cc3735a920a3ca505d382bbc416464726573733a206c6f772d6c6576656c2064656c65676174652063616c6c206661696c656468747470733a2f2f72616461726c61756e63682e6170702f6170692f6d65746164617461a2646970667358221220b2710db016ce6653cecf28ec380cb0118023705749b969bb9af2c297a38113bf64736f6c63430008130033",
  "linkReferences": {},
  "deployedLinkReferences": {}
}