{
  "_format": "hh-sol-artifact-1",
  "contractName": "RadarEditions",
  "sourceName": "src/RadarEditions.sol",
  "abi": [
    {
      "inputs": [],
      "name": "EditionFeeExceedsMaximumFee",
      "type": "error"
    },
    {
      "inputs": [],
      "name": "EditionNotCreated",
      "type": "error"
    },
    {
      "inputs": [],
      "name": "EditionNotEnoughBalance",
      "type": "error"
    },
    {
      "inputs": [],
      "name": "EditionNotLaunched",
      "type": "error"
    },
    {
      "inputs": [],
      "name": "EditionNotStopped",
      "type": "error"
    },
    {
      "inputs": [],
      "name": "NotCorrectUser",
      "type": "error"
    },
    {
      "inputs": [],
      "name": "NotEditionOwner",
      "type": "error"
    },
    {
      "inputs": [],
      "name": "NotEnoughFunds",
      "type": "error"
    },
    {
      "inputs": [],
      "name": "TransactionFailed",
      "type": "error"
    },
    {
      "anonymous": false,
      "inputs": [
        {
          "indexed": false,
          "internalType": "address",
          "name": "previousAdmin",
          "type": "address"
        },
        {
          "indexed": false,
          "internalType": "address",
          "name": "newAdmin",
          "type": "address"
        }
      ],
      "name": "AdminChanged",
      "type": "event"
    },
    {
      "anonymous": false,
      "inputs": [
        {
          "indexed": true,
          "internalType": "address",
          "name": "account",
          "type": "address"
        },
        {
          "indexed": true,
          "internalType": "address",
          "name": "operator",
          "type": "address"
        },
        {
          "indexed": false,
          "internalType": "bool",
          "name": "approved",
          "type": "bool"
        }
      ],
      "name": "ApprovalForAll",
      "type": "event"
    },
    {
      "anonymous": false,
      "inputs": [
        {
          "indexed": true,
          "internalType": "address",
          "name": "user",
          "type": "address"
        },
        {
          "indexed": false,
          "internalType": "uint256",
          "name": "amount",
          "type": "uint256"
        }
      ],
      "name": "BalanceRetrieved",
      "type": "event"
    },
    {
      "anonymous": false,
      "inputs": [
        {
          "indexed": true,
          "internalType": "address",
          "name": "beacon",
          "type": "address"
        }
      ],
      "name": "BeaconUpgraded",
      "type": "event"
    },
    {
      "anonymous": false,
      "inputs": [
        {
          "indexed": false,
          "internalType": "uint256",
          "name": "editionId",
          "type": "uint256"
        }
      ],
      "name": "EditionApproved",
      "type": "event"
    },
    {
      "anonymous": false,
      "inputs": [
        {
          "indexed": false,
          "internalType": "uint256",
          "name": "editionId",
          "type": "uint256"
        },
        {
          "indexed": false,
          "internalType": "uint256",
          "name": "amount",
          "type": "uint256"
        },
        {
          "indexed": false,
          "internalType": "address",
          "name": "owner",
          "type": "address"
        }
      ],
      "name": "EditionBalanceWithdrawn",
      "type": "event"
    },
    {
      "anonymous": false,
      "inputs": [
        {
          "indexed": false,
          "internalType": "uint256",
          "name": "amount",
          "type": "uint256"
        },
        {
          "indexed": false,
          "internalType": "address",
          "name": "owner",
          "type": "address"
        }
      ],
      "name": "EditionBalanceWithdrawnFromAll",
      "type": "event"
    },
    {
      "anonymous": false,
      "inputs": [
        {
          "indexed": true,
          "internalType": "uint256",
          "name": "editionId",
          "type": "uint256"
        },
        {
          "indexed": true,
          "internalType": "address",
          "name": "believer",
          "type": "address"
        }
      ],
      "name": "EditionBeliefRemoved",
      "type": "event"
    },
    {
      "anonymous": false,
      "inputs": [
        {
          "indexed": true,
          "internalType": "uint256",
          "name": "editionId",
          "type": "uint256"
        },
        {
          "indexed": true,
          "internalType": "address",
          "name": "believer",
          "type": "address"
        },
        {
          "indexed": false,
          "internalType": "string",
          "name": "tags",
          "type": "string"
        }
      ],
      "name": "EditionBelieved",
      "type": "event"
    },
    {
      "anonymous": false,
      "inputs": [
        {
          "indexed": false,
          "internalType": "uint256",
          "name": "editionId",
          "type": "uint256"
        },
        {
          "indexed": false,
          "internalType": "string",
          "name": "briefId",
          "type": "string"
        },
        {
          "indexed": false,
          "internalType": "uint256",
          "name": "fee",
          "type": "uint256"
        },
        {
          "indexed": false,
          "internalType": "address",
          "name": "owner",
          "type": "address"
        }
      ],
      "name": "EditionCreated",
      "type": "event"
    },
    {
      "anonymous": false,
      "inputs": [
        {
          "indexed": false,
          "internalType": "uint256",
          "name": "editionId",
          "type": "uint256"
        }
      ],
      "name": "EditionResumed",
      "type": "event"
    },
    {
      "anonymous": false,
      "inputs": [
        {
          "indexed": false,
          "internalType": "uint256",
          "name": "editionId",
          "type": "uint256"
        }
      ],
      "name": "EditionStopped",
      "type": "event"
    },
    {
      "anonymous": false,
      "inputs": [
        {
          "indexed": false,
          "internalType": "uint8",
          "name": "version",
          "type": "uint8"
        }
      ],
      "name": "Initialized",
      "type": "event"
    },
    {
      "anonymous": false,
      "inputs": [
        {
          "indexed": false,
          "internalType": "address",
          "name": "account",
          "type": "address"
        }
      ],
      "name": "Paused",
      "type": "event"
    },
    {
      "anonymous": false,
      "inputs": [
        {
          "indexed": true,
          "internalType": "bytes32",
          "name": "role",
          "type": "bytes32"
        },
        {
          "indexed": true,
          "internalType": "bytes32",
          "name": "previousAdminRole",
          "type": "bytes32"
        },
        {
          "indexed": true,
          "internalType": "bytes32",
          "name": "newAdminRole",
          "type": "bytes32"
        }
      ],
      "name": "RoleAdminChanged",
      "type": "event"
    },
    {
      "anonymous": false,
      "inputs": [
        {
          "indexed": true,
          "internalType": "bytes32",
          "name": "role",
          "type": "bytes32"
        },
        {
          "indexed": true,
          "internalType": "address",
          "name": "account",
          "type": "address"
        },
        {
          "indexed": true,
          "internalType": "address",
          "name": "sender",
          "type": "address"
        }
      ],
      "name": "RoleGranted",
      "type": "event"
    },
    {
      "anonymous": false,
      "inputs": [
        {
          "indexed": true,
          "internalType": "bytes32",
          "name": "role",
          "type": "bytes32"
        },
        {
          "indexed": true,
          "internalType": "address",
          "name": "account",
          "type": "address"
        },
        {
          "indexed": true,
          "internalType": "address",
          "name": "sender",
          "type": "address"
        }
      ],
      "name": "RoleRevoked",
      "type": "event"
    },
    {
      "anonymous": false,
      "inputs": [
        {
          "indexed": true,
          "internalType": "address",
          "name": "operator",
          "type": "address"
        },
        {
          "indexed": true,
          "internalType": "address",
          "name": "from",
          "type": "address"
        },
        {
          "indexed": true,
          "internalType": "address",
          "name": "to",
          "type": "address"
        },
        {
          "indexed": false,
          "internalType": "uint256[]",
          "name": "ids",
          "type": "uint256[]"
        },
        {
          "indexed": false,
          "internalType": "uint256[]",
          "name": "values",
          "type": "uint256[]"
        }
      ],
      "name": "TransferBatch",
      "type": "event"
    },
    {
      "anonymous": false,
      "inputs": [
        {
          "indexed": true,
          "internalType": "address",
          "name": "operator",
          "type": "address"
        },
        {
          "indexed": true,
          "internalType": "address",
          "name": "from",
          "type": "address"
        },
        {
          "indexed": true,
          "internalType": "address",
          "name": "to",
          "type": "address"
        },
        {
          "indexed": false,
          "internalType": "uint256",
          "name": "id",
          "type": "uint256"
        },
        {
          "indexed": false,
          "internalType": "uint256",
          "name": "value",
          "type": "uint256"
        }
      ],
      "name": "TransferSingle",
      "type": "event"
    },
    {
      "anonymous": false,
      "inputs": [
        {
          "indexed": false,
          "internalType": "string",
          "name": "value",
          "type": "string"
        },
        {
          "indexed": true,
          "internalType": "uint256",
          "name": "id",
          "type": "uint256"
        }
      ],
      "name": "URI",
      "type": "event"
    },
    {
      "anonymous": false,
      "inputs": [
        {
          "indexed": false,
          "internalType": "address",
          "name": "account",
          "type": "address"
        }
      ],
      "name": "Unpaused",
      "type": "event"
    },
    {
      "anonymous": false,
      "inputs": [
        {
          "indexed": true,
          "internalType": "address",
          "name": "implementation",
          "type": "address"
        }
      ],
      "name": "Upgraded",
      "type": "event"
    },
    {
      "stateMutability": "payable",
      "type": "fallback"
    },
    {
      "inputs": [],
      "name": "DEFAULT_ADMIN_ROLE",
      "outputs": [
        {
          "internalType": "bytes32",
          "name": "",
          "type": "bytes32"
        }
      ],
      "stateMutability": "view",
      "type": "function"
    },
    {
      "inputs": [
        {
          "internalType": "uint256",
          "name": "editionId",
          "type": "uint256"
        }
      ],
      "name": "approveEdition",
      "outputs": [],
      "stateMutability": "nonpayable",
      "type": "function"
    },
    {
      "inputs": [
        {
          "internalType": "address",
          "name": "account",
          "type": "address"
        },
        {
          "internalType": "uint256",
          "name": "id",
          "type": "uint256"
        }
      ],
      "name": "balanceOf",
      "outputs": [
        {
          "internalType": "uint256",
          "name": "",
          "type": "uint256"
        }
      ],
      "stateMutability": "view",
      "type": "function"
    },
    {
      "inputs": [
        {
          "internalType": "address[]",
          "name": "accounts",
          "type": "address[]"
        },
        {
          "internalType": "uint256[]",
          "name": "ids",
          "type": "uint256[]"
        }
      ],
      "name": "balanceOfBatch",
      "outputs": [
        {
          "internalType": "uint256[]",
          "name": "",
          "type": "uint256[]"
        }
      ],
      "stateMutability": "view",
      "type": "function"
    },
    {
      "inputs": [
        {
          "internalType": "address",
          "name": "user",
          "type": "address"
        }
      ],
      "name": "balances",
      "outputs": [
        {
          "internalType": "uint256",
          "name": "balance",
          "type": "uint256"
        }
      ],
      "stateMutability": "view",
      "type": "function"
    },
    {
      "inputs": [
        {
          "internalType": "uint256",
          "name": "editionId",
          "type": "uint256"
        },
        {
          "internalType": "string",
          "name": "tags",
          "type": "string"
        }
      ],
      "name": "believeProject",
      "outputs": [],
      "stateMutability": "payable",
      "type": "function"
    },
    {
      "inputs": [
        {
          "internalType": "address",
          "name": "account",
          "type": "address"
        },
        {
          "internalType": "uint256",
          "name": "id",
          "type": "uint256"
        },
        {
          "internalType": "uint256",
          "name": "value",
          "type": "uint256"
        }
      ],
      "name": "burn",
      "outputs": [],
      "stateMutability": "nonpayable",
      "type": "function"
    },
    {
      "inputs": [
        {
          "internalType": "address",
          "name": "account",
          "type": "address"
        },
        {
          "internalType": "uint256[]",
          "name": "ids",
          "type": "uint256[]"
        },
        {
          "internalType": "uint256[]",
          "name": "values",
          "type": "uint256[]"
        }
      ],
      "name": "burnBatch",
      "outputs": [],
      "stateMutability": "nonpayable",
      "type": "function"
    },
    {
      "inputs": [],
      "name": "contractURI",
      "outputs": [
        {
          "internalType": "string",
          "name": "",
          "type": "string"
        }
      ],
      "stateMutability": "view",
      "type": "function"
    },
    {
      "inputs": [
        {
          "internalType": "uint256",
          "name": "fee",
          "type": "uint256"
        },
        {
          "internalType": "address",
          "name": "owner",
          "type": "address"
        },
        {
          "internalType": "address",
          "name": "payer",
          "type": "address"
        },
        {
          "internalType": "string",
          "name": "id",
          "type": "string"
        },
        {
          "internalType": "string",
          "name": "briefId",
          "type": "string"
        }
      ],
      "name": "createEdition",
      "outputs": [
        {
          "internalType": "uint256",
          "name": "editionId",
          "type": "uint256"
        }
      ],
      "stateMutability": "nonpayable",
      "type": "function"
    },
    {
      "inputs": [],
      "name": "editionCounter",
      "outputs": [
        {
          "internalType": "uint256",
          "name": "",
          "type": "uint256"
        }
      ],
      "stateMutability": "view",
      "type": "function"
    },
    {
      "inputs": [
        {
          "internalType": "uint256",
          "name": "",
          "type": "uint256"
        }
      ],
      "name": "editions",
      "outputs": [
        {
          "internalType": "enum EditionsStructs.EditionStatus",
          "name": "status",
          "type": "uint8"
        },
        {
          "internalType": "uint256",
          "name": "fee",
          "type": "uint256"
        },
        {
          "internalType": "uint256",
          "name": "balance",
          "type": "uint256"
        },
        {
          "internalType": "address",
          "name": "owner",
          "type": "address"
        },
        {
          "internalType": "string",
          "name": "id",
          "type": "string"
        },
        {
          "internalType": "string",
          "name": "briefId",
          "type": "string"
        }
      ],
      "stateMutability": "view",
      "type": "function"
    },
    {
      "inputs": [
        {
          "internalType": "uint256",
          "name": "id",
          "type": "uint256"
        }
      ],
      "name": "exists",
      "outputs": [
        {
          "internalType": "bool",
          "name": "",
          "type": "bool"
        }
      ],
      "stateMutability": "view",
      "type": "function"
    },
    {
      "inputs": [],
      "name": "futureFundFee",
      "outputs": [
        {
          "internalType": "uint256",
          "name": "",
          "type": "uint256"
        }
      ],
      "stateMutability": "view",
      "type": "function"
    },
    {
      "inputs": [
        {
          "internalType": "address",
          "name": "owner",
          "type": "address"
        }
      ],
      "name": "getBalances",
      "outputs": [
        {
          "components": [
            {
              "internalType": "string",
              "name": "id",
              "type": "string"
            },
            {
              "internalType": "uint256",
              "name": "amount",
              "type": "uint256"
            }
          ],
          "internalType": "struct EditionsStructs.EditionIdWithAmount[]",
          "name": "",
          "type": "tuple[]"
        }
      ],
      "stateMutability": "view",
      "type": "function"
    },
    {
      "inputs": [],
      "name": "getEditions",
      "outputs": [
        {
          "components": [
            {
              "internalType": "enum EditionsStructs.EditionStatus",
              "name": "status",
              "type": "uint8"
            },
            {
              "internalType": "uint256",
              "name": "fee",
              "type": "uint256"
            },
            {
              "internalType": "uint256",
              "name": "balance",
              "type": "uint256"
            },
            {
              "internalType": "address",
              "name": "owner",
              "type": "address"
            },
            {
              "internalType": "string",
              "name": "id",
              "type": "string"
            },
            {
              "internalType": "string",
              "name": "briefId",
              "type": "string"
            }
          ],
          "internalType": "struct EditionsStructs.Edition[]",
          "name": "",
          "type": "tuple[]"
        }
      ],
      "stateMutability": "view",
      "type": "function"
    },
    {
      "inputs": [
        {
          "internalType": "bytes32",
          "name": "role",
          "type": "bytes32"
        }
      ],
      "name": "getRoleAdmin",
      "outputs": [
        {
          "internalType": "bytes32",
          "name": "",
          "type": "bytes32"
        }
      ],
      "stateMutability": "view",
      "type": "function"
    },
    {
      "inputs": [
        {
          "internalType": "address",
          "name": "user",
          "type": "address"
        }
      ],
      "name": "getUserBeliefs",
      "outputs": [
        {
          "internalType": "bool[]",
          "name": "",
          "type": "bool[]"
        }
      ],
      "stateMutability": "view",
      "type": "function"
    },
    {
      "inputs": [],
      "name": "getWithdrawableFunds",
      "outputs": [
        {
          "internalType": "uint256",
          "name": "",
          "type": "uint256"
        }
      ],
      "stateMutability": "view",
      "type": "function"
    },
    {
      "inputs": [
        {
          "internalType": "bytes32",
          "name": "role",
          "type": "bytes32"
        },
        {
          "internalType": "address",
          "name": "account",
          "type": "address"
        }
      ],
      "name": "grantRole",
      "outputs": [],
      "stateMutability": "nonpayable",
      "type": "function"
    },
    {
      "inputs": [
        {
          "internalType": "bytes32",
          "name": "role",
          "type": "bytes32"
        },
        {
          "internalType": "address",
          "name": "account",
          "type": "address"
        }
      ],
      "name": "hasRole",
      "outputs": [
        {
          "internalType": "bool",
          "name": "",
          "type": "bool"
        }
      ],
      "stateMutability": "view",
      "type": "function"
    },
    {
      "inputs": [],
      "name": "initialize",
      "outputs": [],
      "stateMutability": "nonpayable",
      "type": "function"
    },
    {
      "inputs": [
        {
          "internalType": "address",
          "name": "account",
          "type": "address"
        },
        {
          "internalType": "address",
          "name": "operator",
          "type": "address"
        }
      ],
      "name": "isApprovedForAll",
      "outputs": [
        {
          "internalType": "bool",
          "name": "",
          "type": "bool"
        }
      ],
      "stateMutability": "view",
      "type": "function"
    },
    {
      "inputs": [],
      "name": "maximumEditionFee",
      "outputs": [
        {
          "internalType": "uint256",
          "name": "",
          "type": "uint256"
        }
      ],
      "stateMutability": "view",
      "type": "function"
    },
    {
      "inputs": [
        {
          "internalType": "uint256",
          "name": "editionId",
          "type": "uint256"
        },
        {
          "internalType": "uint256",
          "name": "amount",
          "type": "uint256"
        },
        {
          "internalType": "address",
          "name": "buyer",
          "type": "address"
        },
        {
          "internalType": "bytes",
          "name": "data",
          "type": "bytes"
        }
      ],
      "name": "mintEdition",
      "outputs": [],
      "stateMutability": "payable",
      "type": "function"
    },
    {
      "inputs": [],
      "name": "pause",
      "outputs": [],
      "stateMutability": "nonpayable",
      "type": "function"
    },
    {
      "inputs": [],
      "name": "paused",
      "outputs": [
        {
          "internalType": "bool",
          "name": "",
          "type": "bool"
        }
      ],
      "stateMutability": "view",
      "type": "function"
    },
    {
      "inputs": [],
      "name": "protocolFee",
      "outputs": [
        {
          "internalType": "uint256",
          "name": "",
          "type": "uint256"
        }
      ],
      "stateMutability": "view",
      "type": "function"
    },
    {
      "inputs": [],
      "name": "proxiableUUID",
      "outputs": [
        {
          "internalType": "bytes32",
          "name": "",
          "type": "bytes32"
        }
      ],
      "stateMutability": "view",
      "type": "function"
    },
    {
      "inputs": [
        {
          "internalType": "uint256",
          "name": "editionId",
          "type": "uint256"
        }
      ],
      "name": "removeBelief",
      "outputs": [],
      "stateMutability": "nonpayable",
      "type": "function"
    },
    {
      "inputs": [
        {
          "internalType": "bytes32",
          "name": "role",
          "type": "bytes32"
        },
        {
          "internalType": "address",
          "name": "account",
          "type": "address"
        }
      ],
      "name": "renounceRole",
      "outputs": [],
      "stateMutability": "nonpayable",
      "type": "function"
    },
    {
      "inputs": [
        {
          "internalType": "uint256",
          "name": "editionId",
          "type": "uint256"
        }
      ],
      "name": "resumeEdition",
      "outputs": [],
      "stateMutability": "nonpayable",
      "type": "function"
    },
    {
      "inputs": [
        {
          "internalType": "uint256",
          "name": "amount",
          "type": "uint256"
        }
      ],
      "name": "retrieveBalance",
      "outputs": [],
      "stateMutability": "nonpayable",
      "type": "function"
    },
    {
      "inputs": [
        {
          "internalType": "bytes32",
          "name": "role",
          "type": "bytes32"
        },
        {
          "internalType": "address",
          "name": "account",
          "type": "address"
        }
      ],
      "name": "revokeRole",
      "outputs": [],
      "stateMutability": "nonpayable",
      "type": "function"
    },
    {
      "inputs": [
        {
          "internalType": "address",
          "name": "from",
          "type": "address"
        },
        {
          "internalType": "address",
          "name": "to",
          "type": "address"
        },
        {
          "internalType": "uint256[]",
          "name": "ids",
          "type": "uint256[]"
        },
        {
          "internalType": "uint256[]",
          "name": "amounts",
          "type": "uint256[]"
        },
        {
          "internalType": "bytes",
          "name": "data",
          "type": "bytes"
        }
      ],
      "name": "safeBatchTransferFrom",
      "outputs": [],
      "stateMutability": "nonpayable",
      "type": "function"
    },
    {
      "inputs": [
        {
          "internalType": "address",
          "name": "from",
          "type": "address"
        },
        {
          "internalType": "address",
          "name": "to",
          "type": "address"
        },
        {
          "internalType": "uint256",
          "name": "id",
          "type": "uint256"
        },
        {
          "internalType": "uint256",
          "name": "amount",
          "type": "uint256"
        },
        {
          "internalType": "bytes",
          "name": "data",
          "type": "bytes"
        }
      ],
      "name": "safeTransferFrom",
      "outputs": [],
      "stateMutability": "nonpayable",
      "type": "function"
    },
    {
      "inputs": [
        {
          "internalType": "address",
          "name": "operator",
          "type": "address"
        },
        {
          "internalType": "bool",
          "name": "approved",
          "type": "bool"
        }
      ],
      "name": "setApprovalForAll",
      "outputs": [],
      "stateMutability": "nonpayable",
      "type": "function"
    },
    {
      "inputs": [
        {
          "internalType": "uint256",
          "name": "_futureFundFee",
          "type": "uint256"
        }
      ],
      "name": "setFutureFundFee",
      "outputs": [],
      "stateMutability": "nonpayable",
      "type": "function"
    },
    {
      "inputs": [
        {
          "internalType": "uint256",
          "name": "_maximumEditionFee",
          "type": "uint256"
        }
      ],
      "name": "setMaximumEditionFee",
      "outputs": [],
      "stateMutability": "nonpayable",
      "type": "function"
    },
    {
      "inputs": [
        {
          "internalType": "uint256",
          "name": "_protocolFee",
          "type": "uint256"
        }
      ],
      "name": "setProtocolFee",
      "outputs": [],
      "stateMutability": "nonpayable",
      "type": "function"
    },
    {
      "inputs": [
        {
          "internalType": "string",
          "name": "newuri",
          "type": "string"
        }
      ],
      "name": "setURI",
      "outputs": [],
      "stateMutability": "nonpayable",
      "type": "function"
    },
    {
      "inputs": [
        {
          "internalType": "uint256",
          "name": "editionId",
          "type": "uint256"
        }
      ],
      "name": "stopEdition",
      "outputs": [],
      "stateMutability": "nonpayable",
      "type": "function"
    },
    {
      "inputs": [
        {
          "internalType": "bytes4",
          "name": "interfaceId",
          "type": "bytes4"
        }
      ],
      "name": "supportsInterface",
      "outputs": [
        {
          "internalType": "bool",
          "name": "",
          "type": "bool"
        }
      ],
      "stateMutability": "view",
      "type": "function"
    },
    {
      "inputs": [
        {
          "internalType": "uint256",
          "name": "id",
          "type": "uint256"
        }
      ],
      "name": "totalSupply",
      "outputs": [
        {
          "internalType": "uint256",
          "name": "",
          "type": "uint256"
        }
      ],
      "stateMutability": "view",
      "type": "function"
    },
    {
      "inputs": [],
      "name": "unpause",
      "outputs": [],
      "stateMutability": "nonpayable",
      "type": "function"
    },
    {
      "inputs": [
        {
          "internalType": "uint256",
          "name": "editionId",
          "type": "uint256"
        },
        {
          "internalType": "string",
          "name": "id",
          "type": "string"
        },
        {
          "internalType": "string",
          "name": "briefId",
          "type": "string"
        }
      ],
      "name": "updateEdition",
      "outputs": [],
      "stateMutability": "nonpayable",
      "type": "function"
    },
    {
      "inputs": [
        {
          "internalType": "address",
          "name": "newImplementation",
          "type": "address"
        }
      ],
      "name": "upgradeTo",
      "outputs": [],
      "stateMutability": "nonpayable",
      "type": "function"
    },
    {
      "inputs": [
        {
          "internalType": "address",
          "name": "newImplementation",
          "type": "address"
        },
        {
          "internalType": "bytes",
          "name": "data",
          "type": "bytes"
        }
      ],
      "name": "upgradeToAndCall",
      "outputs": [],
      "stateMutability": "payable",
      "type": "function"
    },
    {
      "inputs": [
        {
          "internalType": "uint256",
          "name": "id",
          "type": "uint256"
        }
      ],
      "name": "uri",
      "outputs": [
        {
          "internalType": "string",
          "name": "",
          "type": "string"
        }
      ],
      "stateMutability": "view",
      "type": "function"
    },
    {
      "inputs": [
        {
          "internalType": "uint256",
          "name": "editionId",
          "type": "uint256"
        },
        {
          "internalType": "uint256",
          "name": "amount",
          "type": "uint256"
        }
      ],
      "name": "withdrawEditionBalance",
      "outputs": [],
      "stateMutability": "nonpayable",
      "type": "function"
    },
    {
      "inputs": [],
      "name": "withdrawFromAllEditionBalance",
      "outputs": [],
      "stateMutability": "nonpayable",
      "type": "function"
    },
    {
      "inputs": [
        {
          "internalType": "uint256",
          "name": "amount",
          "type": "uint256"
        }
      ],
      "name": "withdrawFunds",
      "outputs": [],
      "stateMutability": "nonpayable",
      "type": "function"
    },
    {
      "stateMutability": "payable",
      "type": "receive"
    }
  ],
  "bytecode": "0x60a0604052306080523480156200001557600080fd5b506200002062000026565b620000e7565b600054610100900460ff1615620000935760405162461bcd60e51b815260206004820152602760248201527f496e697469616c697a61626c653a20636f6e747261637420697320696e697469604482015266616c697a696e6760c81b606482015260840160405180910390fd5b60005460ff90811614620000e5576000805460ff191660ff9081179091556040519081527f7f26b83ff96e1f2b6a682f133852f6798a09c465da95921460cefb38474024989060200160405180910390a15b565b6080516151c66200011f60003960008181610e8e01528181610ece015281816112080152818161124801526112d701526151c66000f3fe6080604052600436106102de5760003560e01c80637e1cb1601161017e578063c6fbb712116100d3578063e8a3d4851161008f578063f242432a1161006c578063f242432a1461090c578063f5298aca1461092c578063f8c1b2fd1461094c578063fc74efa21461096c57005b8063e8a3d48514610881578063e985e9c514610896578063eb1d1003146108df57005b8063c6fbb712146107bb578063c84aae17146107d2578063d547741f146107ff578063d667c9ce1461081f578063df6efc6c1461083f578063e43990fe1461086157005b8063a217fddf1161013a578063b0e21e8a11610117578063b0e21e8a1461073f578063b3a44bd614610756578063b94967a414610776578063bd85b0391461078d57005b8063a217fddf146106f5578063a22cb4651461070a578063a72599b11461072a57005b80637e1cb160146106585780638129fc1c146106785780638456cb591461068d57806391d14854146106a2578063940123da146106c25780639e751ffc146106d557005b80633f4ba83a116102345780635c975abb116101f05780637357628c116101cd5780637357628c146105e5578063787dce3d14610605578063790bafc6146106255780637cc749411461063857005b80635c975abb146105965780636b20c454146105ae5780636b5cb789146105ce57005b80633f4ba83a146104e75780633fe9d682146104fc5780634e1273f4146105115780634f1ef2861461053e5780634f558e791461055157806352d1902d1461058157005b8063248a9ca31161029b5780632eb2c2d6116102785780632eb2c2d6146104675780632f2ff15d1461048757806336568abe146104a75780633659cfe6146104c757005b8063248a9ca3146103d7578063279c806e1461040757806327e235e31461043957005b8062fdd58e146102e757806301ffc9a71461031a57806302fe53051461034a5780630a579eca1461036a5780630e89341c1461038a578063155dd5ee146103b757005b366102e557005b005b3480156102f357600080fd5b50610307610302366004614031565b61098c565b6040519081526020015b60405180910390f35b34801561032657600080fd5b5061033a610335366004614071565b610a27565b6040519015158152602001610311565b34801561035657600080fd5b506102e5610365366004614143565b610a32565b34801561037657600080fd5b506102e5610385366004614177565b610a69565b34801561039657600080fd5b506103aa6103a5366004614177565b610b4b565b60405161031191906141e0565b3480156103c357600080fd5b506102e56103d2366004614177565b610b86565b3480156103e357600080fd5b506103076103f2366004614177565b60009081526097602052604090206001015490565b34801561041357600080fd5b50610427610422366004614177565b610c4e565b6040516103119695949392919061422b565b34801561044557600080fd5b50610307610454366004614284565b6101c96020526000908152604090205481565b34801561047357600080fd5b506102e5610482366004614333565b610da4565b34801561049357600080fd5b506102e56104a23660046143dc565b610df0565b3480156104b357600080fd5b506102e56104c23660046143dc565b610e0a565b3480156104d357600080fd5b506102e56104e2366004614284565b610e84565b3480156104f357600080fd5b506102e5610f63565b34801561050857600080fd5b506102e5610f95565b34801561051d57600080fd5b5061053161052c366004614408565b6110d5565b604051610311919061450d565b6102e561054c366004614520565b6111fe565b34801561055d57600080fd5b5061033a61056c366004614177565b600090815261012d6020526040902054151590565b34801561058d57600080fd5b506103076112ca565b3480156105a257600080fd5b5060c95460ff1661033a565b3480156105ba57600080fd5b506102e56105c9366004614563565b61137e565b3480156105da57600080fd5b506103076101c65481565b3480156105f157600080fd5b506102e5610600366004614177565b6113c1565b34801561061157600080fd5b506102e5610620366004614177565b61145b565b6102e56106333660046145d6565b61146d565b34801561064457600080fd5b506102e5610653366004614177565b611607565b34801561066457600080fd5b506102e5610673366004614177565b611619565b34801561068457600080fd5b506102e5611713565b34801561069957600080fd5b506102e56118de565b3480156106ae57600080fd5b5061033a6106bd3660046143dc565b611910565b6102e56106d0366004614606565b61193b565b3480156106e157600080fd5b506102e56106f0366004614177565b611a28565b34801561070157600080fd5b50610307600081565b34801561071657600080fd5b506102e5610725366004614666565b611a3a565b34801561073657600080fd5b50610307611a45565b34801561074b57600080fd5b506103076101c35481565b34801561076257600080fd5b506103076107713660046146a2565b611b68565b34801561078257600080fd5b506103076101ca5481565b34801561079957600080fd5b506103076107a8366004614177565b600090815261012d602052604090205490565b3480156107c757600080fd5b506103076101c55481565b3480156107de57600080fd5b506107f26107ed366004614284565b611cc2565b6040516103119190614700565b34801561080b57600080fd5b506102e561081a3660046143dc565b611e2c565b34801561082b57600080fd5b506102e561083a366004614776565b611e51565b34801561084b57600080fd5b50610854611f93565b6040516103119190614798565b34801561086d57600080fd5b506102e561087c36600461484c565b6121fc565b34801561088d57600080fd5b506103aa612282565b3480156108a257600080fd5b5061033a6108b13660046148ae565b6001600160a01b03918216600090815260666020908152604080832093909416825291909152205460ff1690565b3480156108eb57600080fd5b506108ff6108fa366004614284565b6122a2565b60405161031191906148d8565b34801561091857600080fd5b506102e561092736600461491e565b612362565b34801561093857600080fd5b506102e5610947366004614982565b6123a7565b34801561095857600080fd5b506102e5610967366004614177565b6123ea565b34801561097857600080fd5b506102e5610987366004614177565b61247f565b60006001600160a01b0383166109fc5760405162461bcd60e51b815260206004820152602a60248201527f455243313135353a2061646472657373207a65726f206973206e6f742061207660448201526930b634b21037bbb732b960b11b60648201526084015b60405180910390fd5b5060008181526065602090815260408083206001600160a01b03861684529091529020545b92915050565b6000610a218261255a565b7f7804d923f43a17d325d77e781528e0793b2edd9890ab45fc64efd7b4b427744c610a5c8161257f565b610a6582612589565b5050565b60008181526101c460205260409020600301546001600160a01b0316331480610a985750610a98600033611910565b610ab55760405163388f811f60e01b815260040160405180910390fd5b600260008281526101c4602052604090205460ff166003811115610adb57610adb6141f3565b14610af957604051631f0fb6fd60e11b815260040160405180910390fd5b60008181526101c46020908152604091829020805460ff1916600317905590518281527f591913f977ab242c5871f116f36be231ff67df5e8e0bac1efd91fa8a723aca2b91015b60405180910390a150565b6060610b5682612595565b610b5f83612629565b604051602001610b709291906149b5565b6040516020818303038152906040529050919050565b6000610b918161257f565b47821115610bb257604051631036b5ad60e31b815260040160405180910390fd5b6000610bbc611a45565b905080831115610bdf57604051631036b5ad60e31b815260040160405180910390fd5b604051600090339085908381818185875af1925050503d8060008114610c21576040519150601f19603f3d011682016040523d82523d6000602084013e610c26565b606091505b5050905080610c48576040516317f2c34560e31b815260040160405180910390fd5b50505050565b6101c4602052600090815260409020805460018201546002830154600384015460048501805460ff90951695939492936001600160a01b0390921692610c93906149e4565b80601f0160208091040260200160405190810160405280929190818152602001828054610cbf906149e4565b8015610d0c5780601f10610ce157610100808354040283529160200191610d0c565b820191906000526020600020905b815481529060010190602001808311610cef57829003601f168201915b505050505090806005018054610d21906149e4565b80601f0160208091040260200160405190810160405280929190818152602001828054610d4d906149e4565b8015610d9a5780601f10610d6f57610100808354040283529160200191610d9a565b820191906000526020600020905b815481529060010190602001808311610d7d57829003601f168201915b5050505050905086565b6001600160a01b038516331480610dc05750610dc085336108b1565b610ddc5760405162461bcd60e51b81526004016109f390614a18565b610de985858585856126bb565b5050505050565b6000610dfb8161257f565b610e058383612868565b505050565b6001600160a01b0381163314610e7a5760405162461bcd60e51b815260206004820152602f60248201527f416363657373436f6e74726f6c3a2063616e206f6e6c792072656e6f756e636560448201526e103937b632b9903337b91039b2b63360891b60648201526084016109f3565b610a6582826128ee565b6001600160a01b037f0000000000000000000000000000000000000000000000000000000000000000163003610ecc5760405162461bcd60e51b81526004016109f390614a66565b7f00000000000000000000000000000000000000000000000000000000000000006001600160a01b0316610f15600080516020615126833981519152546001600160a01b031690565b6001600160a01b031614610f3b5760405162461bcd60e51b81526004016109f390614ab2565b610f4481612955565b60408051600080825260208201909252610f609183919061297f565b50565b7f65d7a28e3265b37a6474929f336521b332c1681b933f6cb9f3376673440d862a610f8d8161257f565b610f60612aea565b6000805b6101c55481101561100d5760008181526101c46020526040902060030154336001600160a01b0390911603610ffb5760008181526101c46020526040902060020154610fe59083614b14565b60008281526101c4602052604081206002015591505b8061100581614b27565b915050610f99565b508060000361102f57604051637eafab7d60e01b815260040160405180910390fd5b604051600090339083908381818185875af1925050503d8060008114611071576040519150601f19603f3d011682016040523d82523d6000602084013e611076565b606091505b5050905080611098576040516317f2c34560e31b815260040160405180910390fd5b604080518381523360208201527f2c4d8ac9e2e78ca782b763534316eee3d845022aa396eca3410bfc99512f7f0191015b60405180910390a15050565b6060815183511461113a5760405162461bcd60e51b815260206004820152602960248201527f455243313135353a206163636f756e747320616e6420696473206c656e677468604482015268040dad2e6dac2e8c6d60bb1b60648201526084016109f3565b600083516001600160401b038111156111555761115561408e565b60405190808252806020026020018201604052801561117e578160200160208202803683370190505b50905060005b84518110156111f6576111c98582815181106111a2576111a2614b40565b60200260200101518583815181106111bc576111bc614b40565b602002602001015161098c565b8282815181106111db576111db614b40565b60209081029190910101526111ef81614b27565b9050611184565b509392505050565b6001600160a01b037f00000000000000000000000000000000000000000000000000000000000000001630036112465760405162461bcd60e51b81526004016109f390614a66565b7f00000000000000000000000000000000000000000000000000000000000000006001600160a01b031661128f600080516020615126833981519152546001600160a01b031690565b6001600160a01b0316146112b55760405162461bcd60e51b81526004016109f390614ab2565b6112be82612955565b610a658282600161297f565b6000306001600160a01b037f0000000000000000000000000000000000000000000000000000000000000000161461136a5760405162461bcd60e51b815260206004820152603860248201527f555550535570677261646561626c653a206d757374206e6f742062652063616c60448201527f6c6564207468726f7567682064656c656761746563616c6c000000000000000060648201526084016109f3565b506000805160206151268339815191525b90565b6001600160a01b03831633148061139a575061139a83336108b1565b6113b65760405162461bcd60e51b81526004016109f390614a18565b610e05838383612b3c565b60006113cc8161257f565b600160008381526101c4602052604090205460ff1660038111156113f2576113f26141f3565b146114105760405163137c9c1f60e31b815260040160405180910390fd5b60008281526101c46020908152604091829020805460ff1916600217905590518381527f8f4352ac8b4aefdd2333162306bbe09dd4f4ff6661e89ccc4e4dcced8794e8f791016110c9565b60006114668161257f565b506101c355565b6101ca5434101561149157604051631036b5ad60e31b815260040160405180910390fd5b600260008381526101c4602052604090205460ff1660038111156114b7576114b76141f3565b146114d557604051631f0fb6fd60e11b815260040160405180910390fd5b6114e934836101c5546101c46101c9612cdb565b6000805b6101c85481101561154b57336001600160a01b03166101c8828154811061151657611516614b40565b6000918252602090912001546001600160a01b031603611539576001915061154b565b8061154381614b27565b9150506114ed565b5080611595576101c880546001810182556000919091527f8cdee82cb3ac6d59f1f417405a3eecf497b31f3d06d4c506f96deb67789f61e90180546001600160a01b031916331790555b3360009081526101c760209081526040808320600887901c845290915290208054600160ff86161b179055336001600160a01b0316837f710e220a47c8d9e50587c80fe509f5e762149ef672440eff70798204dd70f5eb846040516115fa91906141e0565b60405180910390a3505050565b60006116128161257f565b506101c655565b3360009081526101c960205260409020548082111561164b57604051631036b5ad60e31b815260040160405180910390fd5b3360009081526101c960205260408120805484929061166b908490614b56565b9091555050604051600090339084908381818185875af1925050503d80600081146116b2576040519150601f19603f3d011682016040523d82523d6000602084013e6116b7565b606091505b50509050806116d9576040516317f2c34560e31b815260040160405180910390fd5b60405183815233907f1333c5e908ee77bb5374e2f8269c28becbb0de91028e297ff763ffaf7bd53a1e9060200160405180910390a2505050565b600054610100900460ff16158080156117335750600054600160ff909116105b8061174d5750303b15801561174d575060005460ff166001145b6117b05760405162461bcd60e51b815260206004820152602e60248201527f496e697469616c697a61626c653a20636f6e747261637420697320616c72656160448201526d191e481a5b9a5d1a585b1a5e995960921b60648201526084016109f3565b6000805460ff1916600117905580156117d3576000805461ff0019166101001790555b6117eb604051806020016040528060008152506130b7565b6117f36130e7565b6117fb613110565b6118036130e7565b61180b6130e7565b6118136130e7565b61181e600033612868565b6118487f7804d923f43a17d325d77e781528e0793b2edd9890ab45fc64efd7b4b427744c33612868565b6118727f65d7a28e3265b37a6474929f336521b332c1681b933f6cb9f3376673440d862a33612868565b61189c7f189ab7a9244df0848122154315af71fe140f3db0fe014031783b0946b8c9d2e333612868565b8015610f60576000805461ff0019169055604051600181527f7f26b83ff96e1f2b6a682f133852f6798a09c465da95921460cefb384740249890602001610b40565b7f65d7a28e3265b37a6474929f336521b332c1681b933f6cb9f3376673440d862a6119088161257f565b610f6061313f565b60009182526097602090815260408084206001600160a01b0393909316845291905290205460ff1690565b60006119468161257f565b600260008681526101c4602052604090205460ff16600381111561196c5761196c6141f3565b1461198a57604051631f0fb6fd60e11b815260040160405180910390fd5b6101c35460008681526101c4602052604090206001015485916119ac91614b14565b6119b69190614b69565b3410156119d657604051631036b5ad60e31b815260040160405180910390fd5b6119e28386868561317c565b6101c3546119f09085614b69565b6119fa9034614b56565b60008681526101c4602052604081206002018054909190611a1c908490614b14565b90915550505050505050565b6000611a338161257f565b506101ca55565b610a653383836132a1565b600047815b6101c554811015611aa95760008181526101c46020526040902060020154821015611a785760009250505090565b60008181526101c46020526040902060020154611a959083614b56565b915080611aa181614b27565b915050611a4a565b5060005b6101c854811015611b6257816101c960006101c88481548110611ad257611ad2614b40565b60009182526020808320909101546001600160a01b031683528201929092526040019020541115611b065760009250505090565b6101c960006101c88381548110611b1f57611b1f614b40565b60009182526020808320909101546001600160a01b03168352820192909252604001902054611b4e9083614b56565b915080611b5a81614b27565b915050611aad565b50919050565b60006101c654861115611b8e57604051630f0c4c5f60e41b815260040160405180910390fd5b506101c5546040805160c0810190915280600181526020808201899052600060408084018290526001600160a01b038a1660608501526080840188905260a09093018690528481526101c49091522081518154829060ff19166001836003811115611bfb57611bfb6141f3565b0217905550602082015160018201556040820151600282015560608201516003820180546001600160a01b0319166001600160a01b0390921691909117905560808201516004820190611c4e9082614bc6565b5060a08201516005820190611c639082614bc6565b50506101c5805491506000611c7783614b27565b91905055507f3deb71b5a6774038a220621d78241405004043d5a928de9c7956bcc5270416db81838888604051611cb19493929190614c85565b60405180910390a195945050505050565b606060006101c5546001600160401b03811115611ce157611ce161408e565b604051908082528060200260200182016040528015611d2757816020015b604080518082019091526060815260006020820152815260200190600190039081611cff5790505b50905060005b6101c554811015611e255760405180604001604052806101c460008481526020019081526020016000206004018054611d65906149e4565b80601f0160208091040260200160405190810160405280929190818152602001828054611d91906149e4565b8015611dde5780601f10611db357610100808354040283529160200191611dde565b820191906000526020600020905b815481529060010190602001808311611dc157829003601f168201915b50505050508152602001611df2868461098c565b815250828281518110611e0757611e07614b40565b60200260200101819052508080611e1d90614b27565b915050611d2d565b5092915050565b600082815260976020526040902060010154611e478161257f565b610e0583836128ee565b60008281526101c460205260409020600301546001600160a01b03163314611e8c5760405163388f811f60e01b815260040160405180910390fd5b60008281526101c46020526040902060020154811115611ebf57604051637eafab7d60e01b815260040160405180910390fd5b60008281526101c4602052604081206002018054839290611ee1908490614b56565b9091555050604051600090339083908381818185875af1925050503d8060008114611f28576040519150601f19603f3d011682016040523d82523d6000602084013e611f2d565b606091505b5050905080611f4f576040516317f2c34560e31b815260040160405180910390fd5b6040805184815260208101849052338183015290517ff1090e9d5138cd4909542e10e1da576730b07eb291a71a151e63160dde345b949181900360600190a1505050565b606060006101c5546001600160401b03811115611fb257611fb261408e565b60405190808252806020026020018201604052801561202657816020015b6120136040805160c081019091528060008152602001600081526020016000815260200160006001600160a01b0316815260200160608152602001606081525090565b815260200190600190039081611fd05790505b50905060005b6101c554811015611b625760008181526101c4602052604090819020815160c081019092528054829060ff166003811115612069576120696141f3565b600381111561207a5761207a6141f3565b8152600182015460208201526002820154604082015260038201546001600160a01b031660608201526004820180546080909201916120b8906149e4565b80601f01602080910402602001604051908101604052809291908181526020018280546120e4906149e4565b80156121315780601f1061210657610100808354040283529160200191612131565b820191906000526020600020905b81548152906001019060200180831161211457829003601f168201915b5050505050815260200160058201805461214a906149e4565b80601f0160208091040260200160405190810160405280929190818152602001828054612176906149e4565b80156121c35780601f10612198576101008083540402835291602001916121c3565b820191906000526020600020905b8154815290600101906020018083116121a657829003601f168201915b5050505050815250508282815181106121de576121de614b40565b602002602001018190525080806121f490614b27565b91505061202c565b60006122078161257f565b60008481526101c4602052604081205460ff16600381111561222b5761222b6141f3565b036122495760405163137c9c1f60e31b815260040160405180910390fd5b60008481526101c4602052604090206004016122658482614bc6565b5060008481526101c460205260409020600501610de98382614bc6565b606060405180606001604052806024815260200161516d60249139905090565b606060006101c5546001600160401b038111156122c1576122c161408e565b6040519080825280602002602001820160405280156122ea578160200160208202803683370190505b50905060005b6101c554811015611e25576001600160a01b03841660009081526101c760209081526040808320600885901c8452909152902054600160ff83161b16151582828151811061234057612340614b40565b911515602092830291909101909101528061235a81614b27565b9150506122f0565b6001600160a01b03851633148061237e575061237e85336108b1565b61239a5760405162461bcd60e51b81526004016109f390614a18565b610de98585858585613379565b6001600160a01b0383163314806123c357506123c383336108b1565b6123df5760405162461bcd60e51b81526004016109f390614a18565b610e058383836134b5565b3360009081526101c760209081526040808320600885901c84529182905290912054600160ff84161b166124315760405163423f327760e11b815260040160405180910390fd5b600882901c6000908152602082905260408082208054600160ff87161b1916905551339184917fc6c1c3224e50c3c958e39197695bdfe8457ce7c0014d8d51a4d3aa12c5ac18489190a35050565b60008181526101c460205260409020600301546001600160a01b03163314806124ae57506124ae600033611910565b6124cb5760405163388f811f60e01b815260040160405180910390fd5b600360008281526101c4602052604090205460ff1660038111156124f1576124f16141f3565b1461250f5760405163968807a560e01b815260040160405180910390fd5b60008181526101c46020908152604091829020805460ff1916600217905590518281527f63bb17c9645a29322601b4fe88d8f3fa84f32229368294f903084be8f5d813ba9101610b40565b60006001600160e01b03198216637965db0b60e01b1480610a215750610a21826135d1565b610f608133613621565b6067610a658282614bc6565b6060606780546125a4906149e4565b80601f01602080910402602001604051908101604052809291908181526020018280546125d0906149e4565b801561261d5780601f106125f25761010080835404028352916020019161261d565b820191906000526020600020905b81548152906001019060200180831161260057829003601f168201915b50505050509050919050565b606060006126368361367a565b60010190506000816001600160401b038111156126555761265561408e565b6040519080825280601f01601f19166020018201604052801561267f576020820181803683370190505b5090508181016020015b600019016f181899199a1a9b1b9c1cb0b131b232b360811b600a86061a8153600a850494508461268957509392505050565b81518351146126dc5760405162461bcd60e51b81526004016109f390614cbf565b6001600160a01b0384166127025760405162461bcd60e51b81526004016109f390614d07565b33612711818787878787613752565b60005b84518110156127fa57600085828151811061273157612731614b40565b60200260200101519050600085838151811061274f5761274f614b40565b60209081029190910181015160008481526065835260408082206001600160a01b038e1683529093529190912054909150818110156127a05760405162461bcd60e51b81526004016109f390614d4c565b60008381526065602090815260408083206001600160a01b038e8116855292528083208585039055908b168252812080548492906127df908490614b14565b92505081905550505050806127f390614b27565b9050612714565b50846001600160a01b0316866001600160a01b0316826001600160a01b03167f4a39dc06d4c0dbc64b70af90fd698a233a518aa5d07e595d983b8c0526c8f7fb878760405161284a929190614d96565b60405180910390a4612860818787878787613768565b505050505050565b6128728282611910565b610a655760008281526097602090815260408083206001600160a01b03851684529091529020805460ff191660011790556128aa3390565b6001600160a01b0316816001600160a01b0316837f2f8788117e7eff1d82e926ec794901d17c78024a50270940304540a733656f0d60405160405180910390a45050565b6128f88282611910565b15610a655760008281526097602090815260408083206001600160a01b0385168085529252808320805460ff1916905551339285917ff6391f5c32d9c69d2a47ea670b442974b53935d1edc7fd64eb21e047a839171b9190a45050565b7f189ab7a9244df0848122154315af71fe140f3db0fe014031783b0946b8c9d2e3610a658161257f565b7f4910fdfa16fed3260ed0e7147f7cc6da11a60208b5b9406d12a635614ffd91435460ff16156129b257610e05836138c3565b826001600160a01b03166352d1902d6040518163ffffffff1660e01b8152600401602060405180830381865afa925050508015612a0c575060408051601f3d908101601f19168201909252612a0991810190614dc4565b60015b612a6f5760405162461bcd60e51b815260206004820152602e60248201527f45524331393637557067726164653a206e657720696d706c656d656e7461746960448201526d6f6e206973206e6f74205555505360901b60648201526084016109f3565b6000805160206151268339815191528114612ade5760405162461bcd60e51b815260206004820152602960248201527f45524331393637557067726164653a20756e737570706f727465642070726f786044820152681a58589b195555525160ba1b60648201526084016109f3565b50610e0583838361395f565b612af2613984565b60c9805460ff191690557f5db9ee0a495bf2e6ff9c91a7834c1ba4fdd244a5e8aa4e537bd38aeae4b073aa335b6040516001600160a01b03909116815260200160405180910390a1565b6001600160a01b038316612b625760405162461bcd60e51b81526004016109f390614ddd565b8051825114612b835760405162461bcd60e51b81526004016109f390614cbf565b6000339050612ba681856000868660405180602001604052806000815250613752565b60005b8351811015612c6e576000848281518110612bc657612bc6614b40565b602002602001015190506000848381518110612be457612be4614b40565b60209081029190910181015160008481526065835260408082206001600160a01b038c168352909352919091205490915081811015612c355760405162461bcd60e51b81526004016109f390614e20565b60009283526065602090815260408085206001600160a01b038b1686529091529092209103905580612c6681614b27565b915050612ba9565b5060006001600160a01b0316846001600160a01b0316826001600160a01b03167f4a39dc06d4c0dbc64b70af90fd698a233a518aa5d07e595d983b8c0526c8f7fb8686604051612cbf929190614d96565b60405180910390a4604080516020810190915260009052610c48565b6000612ce8600287614e64565b90506000612cf7600588614e64565b9050818460008881526020019081526020016000206002016000828254612d1e9190614b14565b909155505060008681526020859052604081206005018054612d3f906149e4565b80601f0160208091040260200160405190810160405280929190818152602001828054612d6b906149e4565b8015612db85780601f10612d8d57610100808354040283529160200191612db8565b820191906000526020600020905b815481529060010190602001808311612d9b57829003601f168201915b505050505090506000866001600160401b03811115612dd957612dd961408e565b604051908082528060200260200182016040528015612e02578160200160208202803683370190505b5090506000805b8881101561302257808a1461301057600081815260208990526040808220815160c081019092528054829060ff166003811115612e4857612e486141f3565b6003811115612e5957612e596141f3565b8152600182015460208201526002820154604082015260038201546001600160a01b03166060820152600482018054608090920191612e97906149e4565b80601f0160208091040260200160405190810160405280929190818152602001828054612ec3906149e4565b8015612f105780601f10612ee557610100808354040283529160200191612f10565b820191906000526020600020905b815481529060010190602001808311612ef357829003601f168201915b50505050508152602001600582018054612f29906149e4565b80601f0160208091040260200160405190810160405280929190818152602001828054612f55906149e4565b8015612fa25780601f10612f7757610100808354040283529160200191612fa2565b820191906000526020600020905b815481529060010190602001808311612f8557829003601f168201915b5050505050815250509050612fcc8160a00151868051602091820120825192909101919091201490565b1561300e578060600151848481518110612fe857612fe8614b40565b6001600160a01b039092166020928302919091019091015261300b600184614b14565b92505b505b8061301a81614b27565b915050612e09565b81156130aa5760006130348387614e64565b9050600091505b828210156130a8578088600086858151811061305957613059614b40565b60200260200101516001600160a01b03166001600160a01b0316815260200190815260200160002060008282546130909190614b14565b909155508290506130a081614b27565b92505061303b565b505b5050505050505050505050565b600054610100900460ff166130de5760405162461bcd60e51b81526004016109f390614e86565b610f60816139cd565b600054610100900460ff1661310e5760405162461bcd60e51b81526004016109f390614e86565b565b600054610100900460ff166131375760405162461bcd60e51b81526004016109f390614e86565b61310e6139fd565b613147613a30565b60c9805460ff191660011790557f62e78cea01bee320cd4e420270b5ea74000d11b0c9f74754ebdbfc544b05a258612b1f3390565b6001600160a01b0384166131dc5760405162461bcd60e51b815260206004820152602160248201527f455243313135353a206d696e7420746f20746865207a65726f206164647265736044820152607360f81b60648201526084016109f3565b3360006131e885613a76565b905060006131f585613a76565b905061320683600089858589613752565b60008681526065602090815260408083206001600160a01b038b16845290915281208054879290613238908490614b14565b909155505060408051878152602081018790526001600160a01b03808a1692600092918716917fc3d58168c5ae7397731d063d5bbf3d657854427343f4c083240f7aacaa2d0f62910160405180910390a461329883600089898989613ac1565b50505050505050565b816001600160a01b0316836001600160a01b0316036133145760405162461bcd60e51b815260206004820152602960248201527f455243313135353a2073657474696e6720617070726f76616c20737461747573604482015268103337b91039b2b63360b91b60648201526084016109f3565b6001600160a01b03838116600081815260666020908152604080832094871680845294825291829020805460ff191686151590811790915591519182527f17307eab39ab6107e8899845ad3d59bd9653f200f220920489ca2b5937696c3191016115fa565b6001600160a01b03841661339f5760405162461bcd60e51b81526004016109f390614d07565b3360006133ab85613a76565b905060006133b885613a76565b90506133c8838989858589613752565b60008681526065602090815260408083206001600160a01b038c1684529091529020548581101561340b5760405162461bcd60e51b81526004016109f390614d4c565b60008781526065602090815260408083206001600160a01b038d8116855292528083208985039055908a1682528120805488929061344a908490614b14565b909155505060408051888152602081018890526001600160a01b03808b16928c821692918816917fc3d58168c5ae7397731d063d5bbf3d657854427343f4c083240f7aacaa2d0f62910160405180910390a46134aa848a8a8a8a8a613ac1565b505050505050505050565b6001600160a01b0383166134db5760405162461bcd60e51b81526004016109f390614ddd565b3360006134e784613a76565b905060006134f484613a76565b905061351483876000858560405180602001604052806000815250613752565b60008581526065602090815260408083206001600160a01b038a168452909152902054848110156135575760405162461bcd60e51b81526004016109f390614e20565b60008681526065602090815260408083206001600160a01b038b81168086529184528285208a8703905582518b81529384018a90529092908816917fc3d58168c5ae7397731d063d5bbf3d657854427343f4c083240f7aacaa2d0f62910160405180910390a4604080516020810190915260009052613298565b60006001600160e01b03198216636cdb3d1360e11b148061360257506001600160e01b031982166303a24d0760e21b145b80610a2157506301ffc9a760e01b6001600160e01b0319831614610a21565b61362b8282611910565b610a655761363881613b7c565b613643836020613b8e565b604051602001613654929190614ed1565b60408051601f198184030181529082905262461bcd60e51b82526109f3916004016141e0565b60008072184f03e93ff9f4daa797ed6e38ed64bf6a1f0160401b83106136b95772184f03e93ff9f4daa797ed6e38ed64bf6a1f0160401b830492506040015b6d04ee2d6d415b85acef810000000083106136e5576d04ee2d6d415b85acef8100000000830492506020015b662386f26fc10000831061370357662386f26fc10000830492506010015b6305f5e100831061371b576305f5e100830492506008015b612710831061372f57612710830492506004015b60648310613741576064830492506002015b600a8310610a215760010192915050565b61375a613a30565b612860868686868686613d30565b6001600160a01b0384163b156128605760405163bc197c8160e01b81526001600160a01b0385169063bc197c81906137ac9089908990889088908890600401614f46565b6020604051808303816000875af19250505080156137e7575060408051601f3d908101601f191682019092526137e491810190614fa4565b60015b613893576137f3614fc1565b806308c379a00361382c5750613807614fdc565b80613812575061382e565b8060405162461bcd60e51b81526004016109f391906141e0565b505b60405162461bcd60e51b815260206004820152603460248201527f455243313135353a207472616e7366657220746f206e6f6e2d455243313135356044820152732932b1b2b4bb32b91034b6b83632b6b2b73a32b960611b60648201526084016109f3565b6001600160e01b0319811663bc197c8160e01b146132985760405162461bcd60e51b81526004016109f390615065565b6001600160a01b0381163b6139305760405162461bcd60e51b815260206004820152602d60248201527f455243313936373a206e657720696d706c656d656e746174696f6e206973206e60448201526c1bdd08184818dbdb9d1c9858dd609a1b60648201526084016109f3565b60008051602061512683398151915280546001600160a01b0319166001600160a01b0392909216919091179055565b61396883613eac565b6000825111806139755750805b15610e0557610c488383613eec565b60c95460ff1661310e5760405162461bcd60e51b815260206004820152601460248201527314185d5cd8589b194e881b9bdd081c185d5cd95960621b60448201526064016109f3565b600054610100900460ff166139f45760405162461bcd60e51b81526004016109f390614e86565b610f6081612589565b600054610100900460ff16613a245760405162461bcd60e51b81526004016109f390614e86565b60c9805460ff19169055565b60c95460ff161561310e5760405162461bcd60e51b815260206004820152601060248201526f14185d5cd8589b194e881c185d5cd95960821b60448201526064016109f3565b60408051600180825281830190925260609160009190602080830190803683370190505090508281600081518110613ab057613ab0614b40565b602090810291909101015292915050565b6001600160a01b0384163b156128605760405163f23a6e6160e01b81526001600160a01b0385169063f23a6e6190613b0590899089908890889088906004016150ad565b6020604051808303816000875af1925050508015613b40575060408051601f3d908101601f19168201909252613b3d91810190614fa4565b60015b613b4c576137f3614fc1565b6001600160e01b0319811663f23a6e6160e01b146132985760405162461bcd60e51b81526004016109f390615065565b6060610a216001600160a01b03831660145b60606000613b9d836002614b69565b613ba8906002614b14565b6001600160401b03811115613bbf57613bbf61408e565b6040519080825280601f01601f191660200182016040528015613be9576020820181803683370190505b509050600360fc1b81600081518110613c0457613c04614b40565b60200101906001600160f81b031916908160001a905350600f60fb1b81600181518110613c3357613c33614b40565b60200101906001600160f81b031916908160001a9053506000613c57846002614b69565b613c62906001614b14565b90505b6001811115613cda576f181899199a1a9b1b9c1cb0b131b232b360811b85600f1660108110613c9657613c96614b40565b1a60f81b828281518110613cac57613cac614b40565b60200101906001600160f81b031916908160001a90535060049490941c93613cd3816150f2565b9050613c65565b508315613d295760405162461bcd60e51b815260206004820181905260248201527f537472696e67733a20686578206c656e67746820696e73756666696369656e7460448201526064016109f3565b9392505050565b6001600160a01b038516613db85760005b8351811015613db657828181518110613d5c57613d5c614b40565b602002602001015161012d6000868481518110613d7b57613d7b614b40565b602002602001015181526020019081526020016000206000828254613da09190614b14565b90915550613daf905081614b27565b9050613d41565b505b6001600160a01b0384166128605760005b8351811015613298576000848281518110613de657613de6614b40565b602002602001015190506000848381518110613e0457613e04614b40565b60200260200101519050600061012d600084815260200190815260200160002054905081811015613e885760405162461bcd60e51b815260206004820152602860248201527f455243313135353a206275726e20616d6f756e74206578636565647320746f74604482015267616c537570706c7960c01b60648201526084016109f3565b600092835261012d602052604090922091039055613ea581614b27565b9050613dc9565b613eb5816138c3565b6040516001600160a01b038216907fbc7cd75a20ee27fd9adebab32041f755214dbc6bffa90cc0225b39da2e5c2d3b90600090a250565b6060613d298383604051806060016040528060278152602001615146602791396060600080856001600160a01b031685604051613f299190615109565b600060405180830381855af49150503d8060008114613f64576040519150601f19603f3d011682016040523d82523d6000602084013e613f69565b606091505b5091509150613f7a86838387613f84565b9695505050505050565b60608315613ff3578251600003613fec576001600160a01b0385163b613fec5760405162461bcd60e51b815260206004820152601d60248201527f416464726573733a2063616c6c20746f206e6f6e2d636f6e747261637400000060448201526064016109f3565b5081613ffd565b613ffd8383614005565b949350505050565b8151156138125781518083602001fd5b80356001600160a01b038116811461402c57600080fd5b919050565b6000806040838503121561404457600080fd5b61404d83614015565b946020939093013593505050565b6001600160e01b031981168114610f6057600080fd5b60006020828403121561408357600080fd5b8135613d298161405b565b634e487b7160e01b600052604160045260246000fd5b601f8201601f191681016001600160401b03811182821017156140c9576140c961408e565b6040525050565b600082601f8301126140e157600080fd5b81356001600160401b038111156140fa576140fa61408e565b604051614111601f8301601f1916602001826140a4565b81815284602083860101111561412657600080fd5b816020850160208301376000918101602001919091529392505050565b60006020828403121561415557600080fd5b81356001600160401b0381111561416b57600080fd5b613ffd848285016140d0565b60006020828403121561418957600080fd5b5035919050565b60005b838110156141ab578181015183820152602001614193565b50506000910152565b600081518084526141cc816020860160208601614190565b601f01601f19169290920160200192915050565b602081526000613d2960208301846141b4565b634e487b7160e01b600052602160045260246000fd5b6004811061422757634e487b7160e01b600052602160045260246000fd5b9052565b6142358188614209565b85602082015284604082015260018060a01b038416606082015260c06080820152600061426560c08301856141b4565b82810360a084015261427781856141b4565b9998505050505050505050565b60006020828403121561429657600080fd5b613d2982614015565b60006001600160401b038211156142b8576142b861408e565b5060051b60200190565b600082601f8301126142d357600080fd5b813560206142e08261429f565b6040516142ed82826140a4565b83815260059390931b850182019282810191508684111561430d57600080fd5b8286015b848110156143285780358352918301918301614311565b509695505050505050565b600080600080600060a0868803121561434b57600080fd5b61435486614015565b945061436260208701614015565b935060408601356001600160401b038082111561437e57600080fd5b61438a89838a016142c2565b945060608801359150808211156143a057600080fd5b6143ac89838a016142c2565b935060808801359150808211156143c257600080fd5b506143cf888289016140d0565b9150509295509295909350565b600080604083850312156143ef57600080fd5b823591506143ff60208401614015565b90509250929050565b6000806040838503121561441b57600080fd5b82356001600160401b038082111561443257600080fd5b818501915085601f83011261444657600080fd5b813560206144538261429f565b60405161446082826140a4565b83815260059390931b850182019282810191508984111561448057600080fd5b948201945b838610156144a55761449686614015565b82529482019490820190614485565b965050860135925050808211156144bb57600080fd5b506144c8858286016142c2565b9150509250929050565b600081518084526020808501945080840160005b83811015614502578151875295820195908201906001016144e6565b509495945050505050565b602081526000613d2960208301846144d2565b6000806040838503121561453357600080fd5b61453c83614015565b915060208301356001600160401b0381111561455757600080fd5b6144c8858286016140d0565b60008060006060848603121561457857600080fd5b61458184614015565b925060208401356001600160401b038082111561459d57600080fd5b6145a9878388016142c2565b935060408601359150808211156145bf57600080fd5b506145cc868287016142c2565b9150509250925092565b600080604083850312156145e957600080fd5b8235915060208301356001600160401b0381111561455757600080fd5b6000806000806080858703121561461c57600080fd5b843593506020850135925061463360408601614015565b915060608501356001600160401b0381111561464e57600080fd5b61465a878288016140d0565b91505092959194509250565b6000806040838503121561467957600080fd5b61468283614015565b91506020830135801515811461469757600080fd5b809150509250929050565b600080600080600060a086880312156146ba57600080fd5b853594506146ca60208701614015565b93506146d860408701614015565b925060608601356001600160401b03808211156146f457600080fd5b6143ac89838a016140d0565b60006020808301818452808551808352604092508286019150828160051b87010184880160005b8381101561476857888303603f190185528151805187855261474b888601826141b4565b918901519489019490945294870194925090860190600101614727565b509098975050505050505050565b6000806040838503121561478957600080fd5b50508035926020909101359150565b60006020808301818452808551808352604092508286019150828160051b87010184880160005b8381101561476857603f19898403018552815160c06147df858351614209565b81890151858a015287820151888601526060808301516001600160a01b03169086015260808083015181870183905261481a838801826141b4565b9250505060a0808301519250858203818701525061483881836141b4565b9689019694505050908601906001016147bf565b60008060006060848603121561486157600080fd5b8335925060208401356001600160401b038082111561487f57600080fd5b61488b878388016140d0565b935060408601359150808211156148a157600080fd5b506145cc868287016140d0565b600080604083850312156148c157600080fd5b6148ca83614015565b91506143ff60208401614015565b6020808252825182820181905260009190848201906040850190845b818110156149125783511515835292840192918401916001016148f4565b50909695505050505050565b600080600080600060a0868803121561493657600080fd5b61493f86614015565b945061494d60208701614015565b9350604086013592506060860135915060808601356001600160401b0381111561497657600080fd5b6143cf888289016140d0565b60008060006060848603121561499757600080fd5b6149a084614015565b95602085013595506040909401359392505050565b600083516149c7818460208801614190565b8351908301906149db818360208801614190565b01949350505050565b600181811c908216806149f857607f821691505b602082108103611b6257634e487b7160e01b600052602260045260246000fd5b6020808252602e908201527f455243313135353a2063616c6c6572206973206e6f7420746f6b656e206f776e60408201526d195c881bdc88185c1c1c9bdd995960921b606082015260800190565b6020808252602c908201527f46756e6374696f6e206d7573742062652063616c6c6564207468726f7567682060408201526b19195b1959d85d1958d85b1b60a21b606082015260800190565b6020808252602c908201527f46756e6374696f6e206d7573742062652063616c6c6564207468726f7567682060408201526b6163746976652070726f787960a01b606082015260800190565b634e487b7160e01b600052601160045260246000fd5b80820180821115610a2157610a21614afe565b600060018201614b3957614b39614afe565b5060010190565b634e487b7160e01b600052603260045260246000fd5b81810381811115610a2157610a21614afe565b8082028115828204841417610a2157610a21614afe565b601f821115610e0557600081815260208120601f850160051c81016020861015614ba75750805b601f850160051c820191505b8181101561286057828155600101614bb3565b81516001600160401b03811115614bdf57614bdf61408e565b614bf381614bed84546149e4565b84614b80565b602080601f831160018114614c285760008415614c105750858301515b600019600386901b1c1916600185901b178555612860565b600085815260208120601f198616915b82811015614c5757888601518255948401946001909101908401614c38565b5085821015614c755787850151600019600388901b60f8161c191681555b5050505050600190811b01905550565b848152608060208201526000614c9e60808301866141b4565b6040830194909452506001600160a01b039190911660609091015292915050565b60208082526028908201527f455243313135353a2069647320616e6420616d6f756e7473206c656e677468206040820152670dad2e6dac2e8c6d60c31b606082015260800190565b60208082526025908201527f455243313135353a207472616e7366657220746f20746865207a65726f206164604082015264647265737360d81b606082015260800190565b6020808252602a908201527f455243313135353a20696e73756666696369656e742062616c616e636520666f60408201526939103a3930b739b332b960b11b606082015260800190565b604081526000614da960408301856144d2565b8281036020840152614dbb81856144d2565b95945050505050565b600060208284031215614dd657600080fd5b5051919050565b60208082526023908201527f455243313135353a206275726e2066726f6d20746865207a65726f206164647260408201526265737360e81b606082015260800190565b60208082526024908201527f455243313135353a206275726e20616d6f756e7420657863656564732062616c604082015263616e636560e01b606082015260800190565b600082614e8157634e487b7160e01b600052601260045260246000fd5b500490565b6020808252602b908201527f496e697469616c697a61626c653a20636f6e7472616374206973206e6f74206960408201526a6e697469616c697a696e6760a81b606082015260800190565b7f416363657373436f6e74726f6c3a206163636f756e7420000000000000000000815260008351614f09816017850160208801614190565b7001034b99036b4b9b9b4b733903937b6329607d1b6017918401918201528351614f3a816028840160208801614190565b01602801949350505050565b6001600160a01b0386811682528516602082015260a060408201819052600090614f72908301866144d2565b8281036060840152614f8481866144d2565b90508281036080840152614f9881856141b4565b98975050505050505050565b600060208284031215614fb657600080fd5b8151613d298161405b565b600060033d111561137b5760046000803e5060005160e01c90565b600060443d1015614fea5790565b6040516003193d81016004833e81513d6001600160401b03816024840111818411171561501957505050505090565b82850191508151818111156150315750505050505090565b843d870101602082850101111561504b5750505050505090565b61505a602082860101876140a4565b509095945050505050565b60208082526028908201527f455243313135353a204552433131353552656365697665722072656a656374656040820152676420746f6b656e7360c01b606082015260800190565b6001600160a01b03868116825285166020820152604081018490526060810183905260a0608082018190526000906150e7908301846141b4565b979650505050505050565b60008161510157615101614afe565b506000190190565b6000825161511b818460208701614190565b919091019291505056fe360894a13ba1a3210667c828492db98dca3e2076cc3735a920a3ca505d382bbc416464726573733a206c6f772d6c6576656c2064656c65676174652063616c6c206661696c656468747470733a2f2f72616461726c61756e63682e6170702f6170692f6d65746164617461a2646970667358221220ed2b9d52c9ce240f18b8c937caeb0e7ed39fd7df01bb4b580e54892a58f1c97664736f6c63430008130033",
  "linkReferences": {},
  "deployedLinkReferences": {}
}