{
  "_format": "hh-sol-artifact-1",
  "contractName": "RadarEditions",
  "sourceName": "src/RadarEditions.sol",
  "abi": [
    {
      "inputs": [],
      "stateMutability": "nonpayable",
      "type": "constructor"
    },
    {
      "inputs": [],
      "name": "EditionFeeExceedsProtocolFee",
      "type": "error"
    },
    {
      "inputs": [],
      "name": "EditionNotCreated",
      "type": "error"
    },
    {
      "inputs": [],
      "name": "EditionNotEnoughBalance",
      "type": "error"
    },
    {
      "inputs": [],
      "name": "EditionNotLaunched",
      "type": "error"
    },
    {
      "inputs": [],
      "name": "EditionNotStopped",
      "type": "error"
    },
    {
      "inputs": [],
      "name": "NotEditionOwner",
      "type": "error"
    },
    {
      "inputs": [],
      "name": "NotEnoughFunds",
      "type": "error"
    },
    {
      "inputs": [],
      "name": "TransactionFailed",
      "type": "error"
    },
    {
      "anonymous": false,
      "inputs": [
        {
          "indexed": false,
          "internalType": "address",
          "name": "previousAdmin",
          "type": "address"
        },
        {
          "indexed": false,
          "internalType": "address",
          "name": "newAdmin",
          "type": "address"
        }
      ],
      "name": "AdminChanged",
      "type": "event"
    },
    {
      "anonymous": false,
      "inputs": [
        {
          "indexed": true,
          "internalType": "address",
          "name": "account",
          "type": "address"
        },
        {
          "indexed": true,
          "internalType": "address",
          "name": "operator",
          "type": "address"
        },
        {
          "indexed": false,
          "internalType": "bool",
          "name": "approved",
          "type": "bool"
        }
      ],
      "name": "ApprovalForAll",
      "type": "event"
    },
    {
      "anonymous": false,
      "inputs": [
        {
          "indexed": true,
          "internalType": "address",
          "name": "beacon",
          "type": "address"
        }
      ],
      "name": "BeaconUpgraded",
      "type": "event"
    },
    {
      "anonymous": false,
      "inputs": [
        {
          "indexed": false,
          "internalType": "uint256",
          "name": "editionId",
          "type": "uint256"
        }
      ],
      "name": "EditionApproved",
      "type": "event"
    },
    {
      "anonymous": false,
      "inputs": [
        {
          "indexed": false,
          "internalType": "uint256",
          "name": "editionId",
          "type": "uint256"
        },
        {
          "indexed": false,
          "internalType": "uint256",
          "name": "amount",
          "type": "uint256"
        },
        {
          "indexed": false,
          "internalType": "address",
          "name": "owner",
          "type": "address"
        }
      ],
      "name": "EditionBalanceWithdrawn",
      "type": "event"
    },
    {
      "anonymous": false,
      "inputs": [
        {
          "indexed": false,
          "internalType": "uint256",
          "name": "editionId",
          "type": "uint256"
        },
        {
          "indexed": false,
          "internalType": "uint256",
          "name": "fee",
          "type": "uint256"
        },
        {
          "indexed": false,
          "internalType": "address",
          "name": "owner",
          "type": "address"
        }
      ],
      "name": "EditionCreated",
      "type": "event"
    },
    {
      "anonymous": false,
      "inputs": [
        {
          "indexed": false,
          "internalType": "uint256",
          "name": "editionId",
          "type": "uint256"
        }
      ],
      "name": "EditionResumed",
      "type": "event"
    },
    {
      "anonymous": false,
      "inputs": [
        {
          "indexed": false,
          "internalType": "uint256",
          "name": "editionId",
          "type": "uint256"
        }
      ],
      "name": "EditionStopped",
      "type": "event"
    },
    {
      "anonymous": false,
      "inputs": [
        {
          "indexed": false,
          "internalType": "uint8",
          "name": "version",
          "type": "uint8"
        }
      ],
      "name": "Initialized",
      "type": "event"
    },
    {
      "anonymous": false,
      "inputs": [
        {
          "indexed": false,
          "internalType": "address",
          "name": "account",
          "type": "address"
        }
      ],
      "name": "Paused",
      "type": "event"
    },
    {
      "anonymous": false,
      "inputs": [
        {
          "indexed": true,
          "internalType": "bytes32",
          "name": "role",
          "type": "bytes32"
        },
        {
          "indexed": true,
          "internalType": "bytes32",
          "name": "previousAdminRole",
          "type": "bytes32"
        },
        {
          "indexed": true,
          "internalType": "bytes32",
          "name": "newAdminRole",
          "type": "bytes32"
        }
      ],
      "name": "RoleAdminChanged",
      "type": "event"
    },
    {
      "anonymous": false,
      "inputs": [
        {
          "indexed": true,
          "internalType": "bytes32",
          "name": "role",
          "type": "bytes32"
        },
        {
          "indexed": true,
          "internalType": "address",
          "name": "account",
          "type": "address"
        },
        {
          "indexed": true,
          "internalType": "address",
          "name": "sender",
          "type": "address"
        }
      ],
      "name": "RoleGranted",
      "type": "event"
    },
    {
      "anonymous": false,
      "inputs": [
        {
          "indexed": true,
          "internalType": "bytes32",
          "name": "role",
          "type": "bytes32"
        },
        {
          "indexed": true,
          "internalType": "address",
          "name": "account",
          "type": "address"
        },
        {
          "indexed": true,
          "internalType": "address",
          "name": "sender",
          "type": "address"
        }
      ],
      "name": "RoleRevoked",
      "type": "event"
    },
    {
      "anonymous": false,
      "inputs": [
        {
          "indexed": true,
          "internalType": "address",
          "name": "operator",
          "type": "address"
        },
        {
          "indexed": true,
          "internalType": "address",
          "name": "from",
          "type": "address"
        },
        {
          "indexed": true,
          "internalType": "address",
          "name": "to",
          "type": "address"
        },
        {
          "indexed": false,
          "internalType": "uint256[]",
          "name": "ids",
          "type": "uint256[]"
        },
        {
          "indexed": false,
          "internalType": "uint256[]",
          "name": "values",
          "type": "uint256[]"
        }
      ],
      "name": "TransferBatch",
      "type": "event"
    },
    {
      "anonymous": false,
      "inputs": [
        {
          "indexed": true,
          "internalType": "address",
          "name": "operator",
          "type": "address"
        },
        {
          "indexed": true,
          "internalType": "address",
          "name": "from",
          "type": "address"
        },
        {
          "indexed": true,
          "internalType": "address",
          "name": "to",
          "type": "address"
        },
        {
          "indexed": false,
          "internalType": "uint256",
          "name": "id",
          "type": "uint256"
        },
        {
          "indexed": false,
          "internalType": "uint256",
          "name": "value",
          "type": "uint256"
        }
      ],
      "name": "TransferSingle",
      "type": "event"
    },
    {
      "anonymous": false,
      "inputs": [
        {
          "indexed": false,
          "internalType": "string",
          "name": "value",
          "type": "string"
        },
        {
          "indexed": true,
          "internalType": "uint256",
          "name": "id",
          "type": "uint256"
        }
      ],
      "name": "URI",
      "type": "event"
    },
    {
      "anonymous": false,
      "inputs": [
        {
          "indexed": false,
          "internalType": "address",
          "name": "account",
          "type": "address"
        }
      ],
      "name": "Unpaused",
      "type": "event"
    },
    {
      "anonymous": false,
      "inputs": [
        {
          "indexed": true,
          "internalType": "address",
          "name": "implementation",
          "type": "address"
        }
      ],
      "name": "Upgraded",
      "type": "event"
    },
    {
      "stateMutability": "payable",
      "type": "fallback"
    },
    {
      "inputs": [],
      "name": "DEFAULT_ADMIN_ROLE",
      "outputs": [
        {
          "internalType": "bytes32",
          "name": "",
          "type": "bytes32"
        }
      ],
      "stateMutability": "view",
      "type": "function"
    },
    {
      "inputs": [
        {
          "internalType": "uint256",
          "name": "editionId",
          "type": "uint256"
        }
      ],
      "name": "approveEdition",
      "outputs": [],
      "stateMutability": "nonpayable",
      "type": "function"
    },
    {
      "inputs": [
        {
          "internalType": "address",
          "name": "account",
          "type": "address"
        },
        {
          "internalType": "uint256",
          "name": "id",
          "type": "uint256"
        }
      ],
      "name": "balanceOf",
      "outputs": [
        {
          "internalType": "uint256",
          "name": "",
          "type": "uint256"
        }
      ],
      "stateMutability": "view",
      "type": "function"
    },
    {
      "inputs": [
        {
          "internalType": "address[]",
          "name": "accounts",
          "type": "address[]"
        },
        {
          "internalType": "uint256[]",
          "name": "ids",
          "type": "uint256[]"
        }
      ],
      "name": "balanceOfBatch",
      "outputs": [
        {
          "internalType": "uint256[]",
          "name": "",
          "type": "uint256[]"
        }
      ],
      "stateMutability": "view",
      "type": "function"
    },
    {
      "inputs": [
        {
          "internalType": "address",
          "name": "account",
          "type": "address"
        },
        {
          "internalType": "uint256",
          "name": "id",
          "type": "uint256"
        },
        {
          "internalType": "uint256",
          "name": "value",
          "type": "uint256"
        }
      ],
      "name": "burn",
      "outputs": [],
      "stateMutability": "nonpayable",
      "type": "function"
    },
    {
      "inputs": [
        {
          "internalType": "address",
          "name": "account",
          "type": "address"
        },
        {
          "internalType": "uint256[]",
          "name": "ids",
          "type": "uint256[]"
        },
        {
          "internalType": "uint256[]",
          "name": "values",
          "type": "uint256[]"
        }
      ],
      "name": "burnBatch",
      "outputs": [],
      "stateMutability": "nonpayable",
      "type": "function"
    },
    {
      "inputs": [
        {
          "internalType": "uint256",
          "name": "fee",
          "type": "uint256"
        },
        {
          "internalType": "address",
          "name": "owner",
          "type": "address"
        },
        {
          "internalType": "address",
          "name": "payer",
          "type": "address"
        },
        {
          "internalType": "string",
          "name": "id",
          "type": "string"
        }
      ],
      "name": "createEdition",
      "outputs": [
        {
          "internalType": "uint256",
          "name": "editionId",
          "type": "uint256"
        }
      ],
      "stateMutability": "nonpayable",
      "type": "function"
    },
    {
      "inputs": [],
      "name": "editionCounter",
      "outputs": [
        {
          "internalType": "uint256",
          "name": "",
          "type": "uint256"
        }
      ],
      "stateMutability": "view",
      "type": "function"
    },
    {
      "inputs": [
        {
          "internalType": "uint256",
          "name": "",
          "type": "uint256"
        }
      ],
      "name": "editions",
      "outputs": [
        {
          "internalType": "enum EditionsStructs.EditionStatus",
          "name": "status",
          "type": "uint8"
        },
        {
          "internalType": "uint256",
          "name": "fee",
          "type": "uint256"
        },
        {
          "internalType": "uint256",
          "name": "balance",
          "type": "uint256"
        },
        {
          "internalType": "address",
          "name": "owner",
          "type": "address"
        },
        {
          "internalType": "string",
          "name": "id",
          "type": "string"
        }
      ],
      "stateMutability": "view",
      "type": "function"
    },
    {
      "inputs": [
        {
          "internalType": "uint256",
          "name": "id",
          "type": "uint256"
        }
      ],
      "name": "exists",
      "outputs": [
        {
          "internalType": "bool",
          "name": "",
          "type": "bool"
        }
      ],
      "stateMutability": "view",
      "type": "function"
    },
    {
      "inputs": [
        {
          "internalType": "address",
          "name": "owner",
          "type": "address"
        }
      ],
      "name": "getBalances",
      "outputs": [
        {
          "internalType": "uint256[]",
          "name": "",
          "type": "uint256[]"
        }
      ],
      "stateMutability": "view",
      "type": "function"
    },
    {
      "inputs": [],
      "name": "getEditions",
      "outputs": [
        {
          "components": [
            {
              "internalType": "enum EditionsStructs.EditionStatus",
              "name": "status",
              "type": "uint8"
            },
            {
              "internalType": "uint256",
              "name": "fee",
              "type": "uint256"
            },
            {
              "internalType": "uint256",
              "name": "balance",
              "type": "uint256"
            },
            {
              "internalType": "address",
              "name": "owner",
              "type": "address"
            },
            {
              "internalType": "string",
              "name": "id",
              "type": "string"
            }
          ],
          "internalType": "struct EditionsStructs.Edition[]",
          "name": "",
          "type": "tuple[]"
        }
      ],
      "stateMutability": "view",
      "type": "function"
    },
    {
      "inputs": [
        {
          "internalType": "bytes32",
          "name": "role",
          "type": "bytes32"
        }
      ],
      "name": "getRoleAdmin",
      "outputs": [
        {
          "internalType": "bytes32",
          "name": "",
          "type": "bytes32"
        }
      ],
      "stateMutability": "view",
      "type": "function"
    },
    {
      "inputs": [
        {
          "internalType": "bytes32",
          "name": "role",
          "type": "bytes32"
        },
        {
          "internalType": "address",
          "name": "account",
          "type": "address"
        }
      ],
      "name": "grantRole",
      "outputs": [],
      "stateMutability": "nonpayable",
      "type": "function"
    },
    {
      "inputs": [
        {
          "internalType": "bytes32",
          "name": "role",
          "type": "bytes32"
        },
        {
          "internalType": "address",
          "name": "account",
          "type": "address"
        }
      ],
      "name": "hasRole",
      "outputs": [
        {
          "internalType": "bool",
          "name": "",
          "type": "bool"
        }
      ],
      "stateMutability": "view",
      "type": "function"
    },
    {
      "inputs": [],
      "name": "initialize",
      "outputs": [],
      "stateMutability": "nonpayable",
      "type": "function"
    },
    {
      "inputs": [
        {
          "internalType": "address",
          "name": "account",
          "type": "address"
        },
        {
          "internalType": "address",
          "name": "operator",
          "type": "address"
        }
      ],
      "name": "isApprovedForAll",
      "outputs": [
        {
          "internalType": "bool",
          "name": "",
          "type": "bool"
        }
      ],
      "stateMutability": "view",
      "type": "function"
    },
    {
      "inputs": [
        {
          "internalType": "uint256",
          "name": "editionId",
          "type": "uint256"
        },
        {
          "internalType": "uint256",
          "name": "amount",
          "type": "uint256"
        },
        {
          "internalType": "address",
          "name": "buyer",
          "type": "address"
        },
        {
          "internalType": "bytes",
          "name": "data",
          "type": "bytes"
        }
      ],
      "name": "mintEdition",
      "outputs": [],
      "stateMutability": "payable",
      "type": "function"
    },
    {
      "inputs": [],
      "name": "pause",
      "outputs": [],
      "stateMutability": "nonpayable",
      "type": "function"
    },
    {
      "inputs": [],
      "name": "paused",
      "outputs": [
        {
          "internalType": "bool",
          "name": "",
          "type": "bool"
        }
      ],
      "stateMutability": "view",
      "type": "function"
    },
    {
      "inputs": [],
      "name": "protocolFee",
      "outputs": [
        {
          "internalType": "uint256",
          "name": "",
          "type": "uint256"
        }
      ],
      "stateMutability": "view",
      "type": "function"
    },
    {
      "inputs": [],
      "name": "proxiableUUID",
      "outputs": [
        {
          "internalType": "bytes32",
          "name": "",
          "type": "bytes32"
        }
      ],
      "stateMutability": "view",
      "type": "function"
    },
    {
      "inputs": [
        {
          "internalType": "bytes32",
          "name": "role",
          "type": "bytes32"
        },
        {
          "internalType": "address",
          "name": "account",
          "type": "address"
        }
      ],
      "name": "renounceRole",
      "outputs": [],
      "stateMutability": "nonpayable",
      "type": "function"
    },
    {
      "inputs": [
        {
          "internalType": "uint256",
          "name": "editionId",
          "type": "uint256"
        }
      ],
      "name": "resumeEdition",
      "outputs": [],
      "stateMutability": "nonpayable",
      "type": "function"
    },
    {
      "inputs": [
        {
          "internalType": "bytes32",
          "name": "role",
          "type": "bytes32"
        },
        {
          "internalType": "address",
          "name": "account",
          "type": "address"
        }
      ],
      "name": "revokeRole",
      "outputs": [],
      "stateMutability": "nonpayable",
      "type": "function"
    },
    {
      "inputs": [
        {
          "internalType": "address",
          "name": "from",
          "type": "address"
        },
        {
          "internalType": "address",
          "name": "to",
          "type": "address"
        },
        {
          "internalType": "uint256[]",
          "name": "ids",
          "type": "uint256[]"
        },
        {
          "internalType": "uint256[]",
          "name": "amounts",
          "type": "uint256[]"
        },
        {
          "internalType": "bytes",
          "name": "data",
          "type": "bytes"
        }
      ],
      "name": "safeBatchTransferFrom",
      "outputs": [],
      "stateMutability": "nonpayable",
      "type": "function"
    },
    {
      "inputs": [
        {
          "internalType": "address",
          "name": "from",
          "type": "address"
        },
        {
          "internalType": "address",
          "name": "to",
          "type": "address"
        },
        {
          "internalType": "uint256",
          "name": "id",
          "type": "uint256"
        },
        {
          "internalType": "uint256",
          "name": "amount",
          "type": "uint256"
        },
        {
          "internalType": "bytes",
          "name": "data",
          "type": "bytes"
        }
      ],
      "name": "safeTransferFrom",
      "outputs": [],
      "stateMutability": "nonpayable",
      "type": "function"
    },
    {
      "inputs": [
        {
          "internalType": "address",
          "name": "operator",
          "type": "address"
        },
        {
          "internalType": "bool",
          "name": "approved",
          "type": "bool"
        }
      ],
      "name": "setApprovalForAll",
      "outputs": [],
      "stateMutability": "nonpayable",
      "type": "function"
    },
    {
      "inputs": [
        {
          "internalType": "uint256",
          "name": "_protocolFee",
          "type": "uint256"
        }
      ],
      "name": "setProtocolFee",
      "outputs": [],
      "stateMutability": "nonpayable",
      "type": "function"
    },
    {
      "inputs": [
        {
          "internalType": "string",
          "name": "newuri",
          "type": "string"
        }
      ],
      "name": "setURI",
      "outputs": [],
      "stateMutability": "nonpayable",
      "type": "function"
    },
    {
      "inputs": [
        {
          "internalType": "uint256",
          "name": "editionId",
          "type": "uint256"
        }
      ],
      "name": "stopEdition",
      "outputs": [],
      "stateMutability": "nonpayable",
      "type": "function"
    },
    {
      "inputs": [
        {
          "internalType": "bytes4",
          "name": "interfaceId",
          "type": "bytes4"
        }
      ],
      "name": "supportsInterface",
      "outputs": [
        {
          "internalType": "bool",
          "name": "",
          "type": "bool"
        }
      ],
      "stateMutability": "view",
      "type": "function"
    },
    {
      "inputs": [
        {
          "internalType": "uint256",
          "name": "id",
          "type": "uint256"
        }
      ],
      "name": "totalSupply",
      "outputs": [
        {
          "internalType": "uint256",
          "name": "",
          "type": "uint256"
        }
      ],
      "stateMutability": "view",
      "type": "function"
    },
    {
      "inputs": [],
      "name": "unpause",
      "outputs": [],
      "stateMutability": "nonpayable",
      "type": "function"
    },
    {
      "inputs": [
        {
          "internalType": "address",
          "name": "newImplementation",
          "type": "address"
        }
      ],
      "name": "upgradeTo",
      "outputs": [],
      "stateMutability": "nonpayable",
      "type": "function"
    },
    {
      "inputs": [
        {
          "internalType": "address",
          "name": "newImplementation",
          "type": "address"
        },
        {
          "internalType": "bytes",
          "name": "data",
          "type": "bytes"
        }
      ],
      "name": "upgradeToAndCall",
      "outputs": [],
      "stateMutability": "payable",
      "type": "function"
    },
    {
      "inputs": [
        {
          "internalType": "uint256",
          "name": "",
          "type": "uint256"
        }
      ],
      "name": "uri",
      "outputs": [
        {
          "internalType": "string",
          "name": "",
          "type": "string"
        }
      ],
      "stateMutability": "view",
      "type": "function"
    },
    {
      "inputs": [
        {
          "internalType": "uint256",
          "name": "editionId",
          "type": "uint256"
        },
        {
          "internalType": "uint256",
          "name": "amount",
          "type": "uint256"
        }
      ],
      "name": "withdrawEditionBalance",
      "outputs": [],
      "stateMutability": "nonpayable",
      "type": "function"
    },
    {
      "inputs": [
        {
          "internalType": "uint256",
          "name": "amount",
          "type": "uint256"
        }
      ],
      "name": "withdrawFunds",
      "outputs": [],
      "stateMutability": "nonpayable",
      "type": "function"
    },
    {
      "stateMutability": "payable",
      "type": "receive"
    }
  ],
  "bytecode": "0x60a0604052306080523480156200001557600080fd5b506200002062000026565b620000e7565b600054610100900460ff1615620000935760405162461bcd60e51b815260206004820152602760248201527f496e697469616c697a61626c653a20636f6e747261637420697320696e697469604482015266616c697a696e6760c81b606482015260840160405180910390fd5b60005460ff90811614620000e5576000805460ff191660ff9081179091556040519081527f7f26b83ff96e1f2b6a682f133852f6798a09c465da95921460cefb38474024989060200160405180910390a15b565b608051613e006200011f60003960008181610ba801528181610be801528181610de201528181610e220152610eb10152613e006000f3fe60806040526004361061021b5760003560e01c80637357628c11610122578063bd85b039116100a5578063df6efc6c1161006c578063df6efc6c14610675578063e985e9c514610697578063f242432a146106e0578063f5298aca14610700578063fc74efa21461072057005b8063bd85b039146105d0578063c6fbb712146105fe578063c84aae1714610615578063d547741f14610635578063d667c9ce1461065557005b806391fc02f1116100e957806391fc02f114610551578063940123da14610571578063a217fddf14610584578063a22cb46514610599578063b0e21e8a146105b957005b80637357628c146104c7578063787dce3d146104e75780638129fc1c146105075780638456cb591461051c57806391d148541461053157005b80632f2ff15d116101aa5780634f1ef286116101715780634f1ef286146104375780634f558e791461044a57806352d1902d1461047a5780635c975abb1461048f5780636b20c454146104a757005b80632f2ff15d1461039557806336568abe146103b55780633659cfe6146103d55780633f4ba83a146103f55780634e1273f41461040a57005b80630e89341c116101ee5780630e89341c146102c7578063155dd5ee146102f4578063248a9ca314610314578063279c806e146103445780632eb2c2d61461037557005b8062fdd58e1461022457806301ffc9a71461025757806302fe5305146102875780630a579eca146102a757005b3661022257005b005b34801561023057600080fd5b5061024461023f366004612ec1565b610740565b6040519081526020015b60405180910390f35b34801561026357600080fd5b50610277610272366004612f01565b6107db565b604051901515815260200161024e565b34801561029357600080fd5b506102226102a2366004612fd3565b6107e6565b3480156102b357600080fd5b506102226102c2366004613007565b61081d565b3480156102d357600080fd5b506102e76102e2366004613007565b6108ee565b60405161024e9190613070565b34801561030057600080fd5b5061022261030f366004613007565b610982565b34801561032057600080fd5b5061024461032f366004613007565b60009081526097602052604090206001015490565b34801561035057600080fd5b5061036461035f366004613007565b6109fb565b60405161024e9594939291906130bb565b34801561038157600080fd5b50610222610390366004613194565b610ac3565b3480156103a157600080fd5b506102226103b036600461323d565b610b0f565b3480156103c157600080fd5b506102226103d036600461323d565b610b24565b3480156103e157600080fd5b506102226103f0366004613269565b610b9e565b34801561040157600080fd5b50610222610c7d565b34801561041657600080fd5b5061042a610425366004613284565b610caf565b60405161024e9190613389565b61022261044536600461339c565b610dd8565b34801561045657600080fd5b50610277610465366004613007565b600090815261012d6020526040902054151590565b34801561048657600080fd5b50610244610ea4565b34801561049b57600080fd5b5060c95460ff16610277565b3480156104b357600080fd5b506102226104c23660046133df565b610f58565b3480156104d357600080fd5b506102226104e2366004613007565b610f9b565b3480156104f357600080fd5b50610222610502366004613007565b61103c565b34801561051357600080fd5b5061022261104e565b34801561052857600080fd5b50610222611219565b34801561053d57600080fd5b5061027761054c36600461323d565b61124b565b34801561055d57600080fd5b5061024461056c366004613452565b611276565b61022261057f3660046134b9565b6113be565b34801561059057600080fd5b50610244600081565b3480156105a557600080fd5b506102226105b43660046134e6565b611487565b3480156105c557600080fd5b506102446101c35481565b3480156105dc57600080fd5b506102446105eb366004613007565b600090815261012d602052604090205490565b34801561060a57600080fd5b506102446101c55481565b34801561062157600080fd5b5061042a610630366004613269565b611492565b34801561064157600080fd5b5061022261065036600461323d565b61152b565b34801561066157600080fd5b50610222610670366004613522565b611550565b34801561068157600080fd5b5061068a611692565b60405161024e9190613544565b3480156106a357600080fd5b506102776106b23660046135e8565b6001600160a01b03918216600090815260666020908152604080832093909416825291909152205460ff1690565b3480156106ec57600080fd5b506102226106fb366004613612565b611868565b34801561070c57600080fd5b5061022261071b366004613676565b6118ad565b34801561072c57600080fd5b5061022261073b366004613007565b6118f0565b60006001600160a01b0383166107b05760405162461bcd60e51b815260206004820152602a60248201527f455243313135353a2061646472657373207a65726f206973206e6f742061207660448201526930b634b21037bbb732b960b11b60648201526084015b60405180910390fd5b5060008181526065602090815260408083206001600160a01b03861684529091529020545b92915050565b60006107d5826119ba565b7f7804d923f43a17d325d77e781528e0793b2edd9890ab45fc64efd7b4b427744c610810816119df565b610819826119e9565b5050565b60008181526101c460205260409020600301546001600160a01b031633146108585760405163388f811f60e01b815260040160405180910390fd5b600260008281526101c4602052604090205460ff16600381111561087e5761087e613083565b1461089c57604051631f0fb6fd60e11b815260040160405180910390fd5b60008181526101c46020908152604091829020805460ff1916600317905590518281527f591913f977ab242c5871f116f36be231ff67df5e8e0bac1efd91fa8a723aca2b91015b60405180910390a150565b6060606780546108fd906136a9565b80601f0160208091040260200160405190810160405280929190818152602001828054610929906136a9565b80156109765780601f1061094b57610100808354040283529160200191610976565b820191906000526020600020905b81548152906001019060200180831161095957829003601f168201915b50505050509050919050565b600061098d816119df565b604051600090339084908381818185875af1925050503d80600081146109cf576040519150601f19603f3d011682016040523d82523d6000602084013e6109d4565b606091505b50509050806109f6576040516317f2c34560e31b815260040160405180910390fd5b505050565b6101c4602052600090815260409020805460018201546002830154600384015460048501805460ff90951695939492936001600160a01b0390921692610a40906136a9565b80601f0160208091040260200160405190810160405280929190818152602001828054610a6c906136a9565b8015610ab95780601f10610a8e57610100808354040283529160200191610ab9565b820191906000526020600020905b815481529060010190602001808311610a9c57829003601f168201915b5050505050905085565b6001600160a01b038516331480610adf5750610adf85336106b2565b610afb5760405162461bcd60e51b81526004016107a7906136dd565b610b0885858585856119f5565b5050505050565b6000610b1a816119df565b6109f68383611ba2565b6001600160a01b0381163314610b945760405162461bcd60e51b815260206004820152602f60248201527f416363657373436f6e74726f6c3a2063616e206f6e6c792072656e6f756e636560448201526e103937b632b9903337b91039b2b63360891b60648201526084016107a7565b6108198282611c28565b6001600160a01b037f0000000000000000000000000000000000000000000000000000000000000000163003610be65760405162461bcd60e51b81526004016107a79061372b565b7f00000000000000000000000000000000000000000000000000000000000000006001600160a01b0316610c2f600080516020613d84833981519152546001600160a01b031690565b6001600160a01b031614610c555760405162461bcd60e51b81526004016107a790613777565b610c5e81611c8f565b60408051600080825260208201909252610c7a91839190611cb9565b50565b7f65d7a28e3265b37a6474929f336521b332c1681b933f6cb9f3376673440d862a610ca7816119df565b610c7a611e24565b60608151835114610d145760405162461bcd60e51b815260206004820152602960248201527f455243313135353a206163636f756e747320616e6420696473206c656e677468604482015268040dad2e6dac2e8c6d60bb1b60648201526084016107a7565b600083516001600160401b03811115610d2f57610d2f612f1e565b604051908082528060200260200182016040528015610d58578160200160208202803683370190505b50905060005b8451811015610dd057610da3858281518110610d7c57610d7c6137c3565b6020026020010151858381518110610d9657610d966137c3565b6020026020010151610740565b828281518110610db557610db56137c3565b6020908102919091010152610dc9816137ef565b9050610d5e565b509392505050565b6001600160a01b037f0000000000000000000000000000000000000000000000000000000000000000163003610e205760405162461bcd60e51b81526004016107a79061372b565b7f00000000000000000000000000000000000000000000000000000000000000006001600160a01b0316610e69600080516020613d84833981519152546001600160a01b031690565b6001600160a01b031614610e8f5760405162461bcd60e51b81526004016107a790613777565b610e9882611c8f565b61081982826001611cb9565b6000306001600160a01b037f00000000000000000000000000000000000000000000000000000000000000001614610f445760405162461bcd60e51b815260206004820152603860248201527f555550535570677261646561626c653a206d757374206e6f742062652063616c60448201527f6c6564207468726f7567682064656c656761746563616c6c000000000000000060648201526084016107a7565b50600080516020613d848339815191525b90565b6001600160a01b038316331480610f745750610f7483336106b2565b610f905760405162461bcd60e51b81526004016107a7906136dd565b6109f6838383611e76565b6000610fa6816119df565b600160008381526101c4602052604090205460ff166003811115610fcc57610fcc613083565b14610fea5760405163137c9c1f60e31b815260040160405180910390fd5b60008281526101c46020908152604091829020805460ff1916600217905590518381527f8f4352ac8b4aefdd2333162306bbe09dd4f4ff6661e89ccc4e4dcced8794e8f7910160405180910390a15050565b6000611047816119df565b506101c355565b600054610100900460ff161580801561106e5750600054600160ff909116105b806110885750303b158015611088575060005460ff166001145b6110eb5760405162461bcd60e51b815260206004820152602e60248201527f496e697469616c697a61626c653a20636f6e747261637420697320616c72656160448201526d191e481a5b9a5d1a585b1a5e995960921b60648201526084016107a7565b6000805460ff19166001179055801561110e576000805461ff0019166101001790555b61112660405180602001604052806000815250612017565b61112e612047565b611136612070565b61113e612047565b611146612047565b61114e612047565b611159600033611ba2565b6111837f7804d923f43a17d325d77e781528e0793b2edd9890ab45fc64efd7b4b427744c33611ba2565b6111ad7f65d7a28e3265b37a6474929f336521b332c1681b933f6cb9f3376673440d862a33611ba2565b6111d77f189ab7a9244df0848122154315af71fe140f3db0fe014031783b0946b8c9d2e333611ba2565b8015610c7a576000805461ff0019169055604051600181527f7f26b83ff96e1f2b6a682f133852f6798a09c465da95921460cefb3847402498906020016108e3565b7f65d7a28e3265b37a6474929f336521b332c1681b933f6cb9f3376673440d862a611243816119df565b610c7a61209f565b60009182526097602090815260408084206001600160a01b0393909316845291905290205460ff1690565b60006101c35485111561129c57604051636a61a41960e11b815260040160405180910390fd5b506101c5546040805160a0810190915280600181526020808201889052600060408084018290526001600160a01b038916606085015260809093018690528481526101c49091522081518154829060ff1916600183600381111561130257611302613083565b0217905550602082015160018201556040820151600282015560608201516003820180546001600160a01b0319166001600160a01b0390921691909117905560808201516004820190611355908261384e565b50506101c5805491506000611369836137ef565b909155505060408051828152602081018790526001600160a01b0386168183015290517f7fe7f72f14a53255f3c9e225ab1d40fdb21335b87a7912726a196fb816866ae09181900360600190a1949350505050565b600260008581526101c4602052604090205460ff1660038111156113e4576113e4613083565b1461140257604051631f0fb6fd60e11b815260040160405180910390fd5b60008481526101c4602052604090206001015461142090849061390d565b34101561144057604051631036b5ad60e31b815260040160405180910390fd5b61144c828585846120dc565b6101c35461145a9034613924565b60008581526101c460205260408120600201805490919061147c908490613937565b909155505050505050565b610819338383612201565b606060006101c5546001600160401b038111156114b1576114b1612f1e565b6040519080825280602002602001820160405280156114da578160200160208202803683370190505b50905060005b6101c554811015611524576114f58482610740565b828281518110611507576115076137c3565b60209081029190910101528061151c816137ef565b9150506114e0565b5092915050565b600082815260976020526040902060010154611546816119df565b6109f68383611c28565b60008281526101c460205260409020600301546001600160a01b0316331461158b5760405163388f811f60e01b815260040160405180910390fd5b60008281526101c460205260409020600201548111156115be57604051637eafab7d60e01b815260040160405180910390fd5b604051600090339083908381818185875af1925050503d8060008114611600576040519150601f19603f3d011682016040523d82523d6000602084013e611605565b606091505b5050905080611627576040516317f2c34560e31b815260040160405180910390fd5b60008381526101c4602052604081206002018054849290611649908490613924565b90915550506040805184815260208101849052338183015290517ff1090e9d5138cd4909542e10e1da576730b07eb291a71a151e63160dde345b949181900360600190a1505050565b606060006101c5546001600160401b038111156116b1576116b1612f1e565b60405190808252806020026020018201604052801561171e57816020015b61170b6040805160a081019091528060008152602001600081526020016000815260200160006001600160a01b03168152602001606081525090565b8152602001906001900390816116cf5790505b50905060005b6101c5548110156118625760008181526101c4602052604090819020815160a081019092528054829060ff16600381111561176157611761613083565b600381111561177257611772613083565b8152600182015460208201526002820154604082015260038201546001600160a01b031660608201526004820180546080909201916117b0906136a9565b80601f01602080910402602001604051908101604052809291908181526020018280546117dc906136a9565b80156118295780601f106117fe57610100808354040283529160200191611829565b820191906000526020600020905b81548152906001019060200180831161180c57829003601f168201915b505050505081525050828281518110611844576118446137c3565b6020026020010181905250808061185a906137ef565b915050611724565b50919050565b6001600160a01b038516331480611884575061188485336106b2565b6118a05760405162461bcd60e51b81526004016107a7906136dd565b610b0885858585856122e1565b6001600160a01b0383163314806118c957506118c983336106b2565b6118e55760405162461bcd60e51b81526004016107a7906136dd565b6109f683838361241d565b60008181526101c460205260409020600301546001600160a01b0316331461192b5760405163388f811f60e01b815260040160405180910390fd5b600360008281526101c4602052604090205460ff16600381111561195157611951613083565b1461196f5760405163968807a560e01b815260040160405180910390fd5b60008181526101c46020908152604091829020805460ff1916600217905590518281527f63bb17c9645a29322601b4fe88d8f3fa84f32229368294f903084be8f5d813ba91016108e3565b60006001600160e01b03198216637965db0b60e01b14806107d557506107d582612539565b610c7a8133612589565b6067610819828261384e565b8151835114611a165760405162461bcd60e51b81526004016107a79061394a565b6001600160a01b038416611a3c5760405162461bcd60e51b81526004016107a790613992565b33611a4b8187878787876125e2565b60005b8451811015611b34576000858281518110611a6b57611a6b6137c3565b602002602001015190506000858381518110611a8957611a896137c3565b60209081029190910181015160008481526065835260408082206001600160a01b038e168352909352919091205490915081811015611ada5760405162461bcd60e51b81526004016107a7906139d7565b60008381526065602090815260408083206001600160a01b038e8116855292528083208585039055908b16825281208054849290611b19908490613937565b9250508190555050505080611b2d906137ef565b9050611a4e565b50846001600160a01b0316866001600160a01b0316826001600160a01b03167f4a39dc06d4c0dbc64b70af90fd698a233a518aa5d07e595d983b8c0526c8f7fb8787604051611b84929190613a21565b60405180910390a4611b9a8187878787876125f8565b505050505050565b611bac828261124b565b6108195760008281526097602090815260408083206001600160a01b03851684529091529020805460ff19166001179055611be43390565b6001600160a01b0316816001600160a01b0316837f2f8788117e7eff1d82e926ec794901d17c78024a50270940304540a733656f0d60405160405180910390a45050565b611c32828261124b565b156108195760008281526097602090815260408083206001600160a01b0385168085529252808320805460ff1916905551339285917ff6391f5c32d9c69d2a47ea670b442974b53935d1edc7fd64eb21e047a839171b9190a45050565b7f189ab7a9244df0848122154315af71fe140f3db0fe014031783b0946b8c9d2e3610819816119df565b7f4910fdfa16fed3260ed0e7147f7cc6da11a60208b5b9406d12a635614ffd91435460ff1615611cec576109f683612753565b826001600160a01b03166352d1902d6040518163ffffffff1660e01b8152600401602060405180830381865afa925050508015611d46575060408051601f3d908101601f19168201909252611d4391810190613a4f565b60015b611da95760405162461bcd60e51b815260206004820152602e60248201527f45524331393637557067726164653a206e657720696d706c656d656e7461746960448201526d6f6e206973206e6f74205555505360901b60648201526084016107a7565b600080516020613d848339815191528114611e185760405162461bcd60e51b815260206004820152602960248201527f45524331393637557067726164653a20756e737570706f727465642070726f786044820152681a58589b195555525160ba1b60648201526084016107a7565b506109f68383836127ef565b611e2c612814565b60c9805460ff191690557f5db9ee0a495bf2e6ff9c91a7834c1ba4fdd244a5e8aa4e537bd38aeae4b073aa335b6040516001600160a01b03909116815260200160405180910390a1565b6001600160a01b038316611e9c5760405162461bcd60e51b81526004016107a790613a68565b8051825114611ebd5760405162461bcd60e51b81526004016107a79061394a565b6000339050611ee0818560008686604051806020016040528060008152506125e2565b60005b8351811015611fa8576000848281518110611f0057611f006137c3565b602002602001015190506000848381518110611f1e57611f1e6137c3565b60209081029190910181015160008481526065835260408082206001600160a01b038c168352909352919091205490915081811015611f6f5760405162461bcd60e51b81526004016107a790613aab565b60009283526065602090815260408085206001600160a01b038b1686529091529092209103905580611fa0816137ef565b915050611ee3565b5060006001600160a01b0316846001600160a01b0316826001600160a01b03167f4a39dc06d4c0dbc64b70af90fd698a233a518aa5d07e595d983b8c0526c8f7fb8686604051611ff9929190613a21565b60405180910390a46040805160208101909152600090525b50505050565b600054610100900460ff1661203e5760405162461bcd60e51b81526004016107a790613aef565b610c7a8161285d565b600054610100900460ff1661206e5760405162461bcd60e51b81526004016107a790613aef565b565b600054610100900460ff166120975760405162461bcd60e51b81526004016107a790613aef565b61206e61288d565b6120a76128c0565b60c9805460ff191660011790557f62e78cea01bee320cd4e420270b5ea74000d11b0c9f74754ebdbfc544b05a258611e593390565b6001600160a01b03841661213c5760405162461bcd60e51b815260206004820152602160248201527f455243313135353a206d696e7420746f20746865207a65726f206164647265736044820152607360f81b60648201526084016107a7565b33600061214885612906565b9050600061215585612906565b9050612166836000898585896125e2565b60008681526065602090815260408083206001600160a01b038b16845290915281208054879290612198908490613937565b909155505060408051878152602081018790526001600160a01b03808a1692600092918716917fc3d58168c5ae7397731d063d5bbf3d657854427343f4c083240f7aacaa2d0f62910160405180910390a46121f883600089898989612951565b50505050505050565b816001600160a01b0316836001600160a01b0316036122745760405162461bcd60e51b815260206004820152602960248201527f455243313135353a2073657474696e6720617070726f76616c20737461747573604482015268103337b91039b2b63360b91b60648201526084016107a7565b6001600160a01b03838116600081815260666020908152604080832094871680845294825291829020805460ff191686151590811790915591519182527f17307eab39ab6107e8899845ad3d59bd9653f200f220920489ca2b5937696c31910160405180910390a3505050565b6001600160a01b0384166123075760405162461bcd60e51b81526004016107a790613992565b33600061231385612906565b9050600061232085612906565b90506123308389898585896125e2565b60008681526065602090815260408083206001600160a01b038c168452909152902054858110156123735760405162461bcd60e51b81526004016107a7906139d7565b60008781526065602090815260408083206001600160a01b038d8116855292528083208985039055908a168252812080548892906123b2908490613937565b909155505060408051888152602081018890526001600160a01b03808b16928c821692918816917fc3d58168c5ae7397731d063d5bbf3d657854427343f4c083240f7aacaa2d0f62910160405180910390a4612412848a8a8a8a8a612951565b505050505050505050565b6001600160a01b0383166124435760405162461bcd60e51b81526004016107a790613a68565b33600061244f84612906565b9050600061245c84612906565b905061247c838760008585604051806020016040528060008152506125e2565b60008581526065602090815260408083206001600160a01b038a168452909152902054848110156124bf5760405162461bcd60e51b81526004016107a790613aab565b60008681526065602090815260408083206001600160a01b038b81168086529184528285208a8703905582518b81529384018a90529092908816917fc3d58168c5ae7397731d063d5bbf3d657854427343f4c083240f7aacaa2d0f62910160405180910390a46040805160208101909152600090526121f8565b60006001600160e01b03198216636cdb3d1360e11b148061256a57506001600160e01b031982166303a24d0760e21b145b806107d557506301ffc9a760e01b6001600160e01b03198316146107d5565b612593828261124b565b610819576125a081612a0c565b6125ab836020612a1e565b6040516020016125bc929190613b3a565b60408051601f198184030181529082905262461bcd60e51b82526107a791600401613070565b6125ea6128c0565b611b9a868686868686612bc0565b6001600160a01b0384163b15611b9a5760405163bc197c8160e01b81526001600160a01b0385169063bc197c819061263c9089908990889088908890600401613baf565b6020604051808303816000875af1925050508015612677575060408051601f3d908101601f1916820190925261267491810190613c0d565b60015b61272357612683613c2a565b806308c379a0036126bc5750612697613c45565b806126a257506126be565b8060405162461bcd60e51b81526004016107a79190613070565b505b60405162461bcd60e51b815260206004820152603460248201527f455243313135353a207472616e7366657220746f206e6f6e2d455243313135356044820152732932b1b2b4bb32b91034b6b83632b6b2b73a32b960611b60648201526084016107a7565b6001600160e01b0319811663bc197c8160e01b146121f85760405162461bcd60e51b81526004016107a790613cce565b6001600160a01b0381163b6127c05760405162461bcd60e51b815260206004820152602d60248201527f455243313936373a206e657720696d706c656d656e746174696f6e206973206e60448201526c1bdd08184818dbdb9d1c9858dd609a1b60648201526084016107a7565b600080516020613d8483398151915280546001600160a01b0319166001600160a01b0392909216919091179055565b6127f883612d3c565b6000825111806128055750805b156109f6576120118383612d7c565b60c95460ff1661206e5760405162461bcd60e51b815260206004820152601460248201527314185d5cd8589b194e881b9bdd081c185d5cd95960621b60448201526064016107a7565b600054610100900460ff166128845760405162461bcd60e51b81526004016107a790613aef565b610c7a816119e9565b600054610100900460ff166128b45760405162461bcd60e51b81526004016107a790613aef565b60c9805460ff19169055565b60c95460ff161561206e5760405162461bcd60e51b815260206004820152601060248201526f14185d5cd8589b194e881c185d5cd95960821b60448201526064016107a7565b60408051600180825281830190925260609160009190602080830190803683370190505090508281600081518110612940576129406137c3565b602090810291909101015292915050565b6001600160a01b0384163b15611b9a5760405163f23a6e6160e01b81526001600160a01b0385169063f23a6e61906129959089908990889088908890600401613d16565b6020604051808303816000875af19250505080156129d0575060408051601f3d908101601f191682019092526129cd91810190613c0d565b60015b6129dc57612683613c2a565b6001600160e01b0319811663f23a6e6160e01b146121f85760405162461bcd60e51b81526004016107a790613cce565b60606107d56001600160a01b03831660145b60606000612a2d83600261390d565b612a38906002613937565b6001600160401b03811115612a4f57612a4f612f1e565b6040519080825280601f01601f191660200182016040528015612a79576020820181803683370190505b509050600360fc1b81600081518110612a9457612a946137c3565b60200101906001600160f81b031916908160001a905350600f60fb1b81600181518110612ac357612ac36137c3565b60200101906001600160f81b031916908160001a9053506000612ae784600261390d565b612af2906001613937565b90505b6001811115612b6a576f181899199a1a9b1b9c1cb0b131b232b360811b85600f1660108110612b2657612b266137c3565b1a60f81b828281518110612b3c57612b3c6137c3565b60200101906001600160f81b031916908160001a90535060049490941c93612b6381613d50565b9050612af5565b508315612bb95760405162461bcd60e51b815260206004820181905260248201527f537472696e67733a20686578206c656e67746820696e73756666696369656e7460448201526064016107a7565b9392505050565b6001600160a01b038516612c485760005b8351811015612c4657828181518110612bec57612bec6137c3565b602002602001015161012d6000868481518110612c0b57612c0b6137c3565b602002602001015181526020019081526020016000206000828254612c309190613937565b90915550612c3f9050816137ef565b9050612bd1565b505b6001600160a01b038416611b9a5760005b83518110156121f8576000848281518110612c7657612c766137c3565b602002602001015190506000848381518110612c9457612c946137c3565b60200260200101519050600061012d600084815260200190815260200160002054905081811015612d185760405162461bcd60e51b815260206004820152602860248201527f455243313135353a206275726e20616d6f756e74206578636565647320746f74604482015267616c537570706c7960c01b60648201526084016107a7565b600092835261012d602052604090922091039055612d35816137ef565b9050612c59565b612d4581612753565b6040516001600160a01b038216907fbc7cd75a20ee27fd9adebab32041f755214dbc6bffa90cc0225b39da2e5c2d3b90600090a250565b6060612bb98383604051806060016040528060278152602001613da4602791396060600080856001600160a01b031685604051612db99190613d67565b600060405180830381855af49150503d8060008114612df4576040519150601f19603f3d011682016040523d82523d6000602084013e612df9565b606091505b5091509150612e0a86838387612e14565b9695505050505050565b60608315612e83578251600003612e7c576001600160a01b0385163b612e7c5760405162461bcd60e51b815260206004820152601d60248201527f416464726573733a2063616c6c20746f206e6f6e2d636f6e747261637400000060448201526064016107a7565b5081612e8d565b612e8d8383612e95565b949350505050565b8151156126a25781518083602001fd5b80356001600160a01b0381168114612ebc57600080fd5b919050565b60008060408385031215612ed457600080fd5b612edd83612ea5565b946020939093013593505050565b6001600160e01b031981168114610c7a57600080fd5b600060208284031215612f1357600080fd5b8135612bb981612eeb565b634e487b7160e01b600052604160045260246000fd5b601f8201601f191681016001600160401b0381118282101715612f5957612f59612f1e565b6040525050565b600082601f830112612f7157600080fd5b81356001600160401b03811115612f8a57612f8a612f1e565b604051612fa1601f8301601f191660200182612f34565b818152846020838601011115612fb657600080fd5b816020850160208301376000918101602001919091529392505050565b600060208284031215612fe557600080fd5b81356001600160401b03811115612ffb57600080fd5b612e8d84828501612f60565b60006020828403121561301957600080fd5b5035919050565b60005b8381101561303b578181015183820152602001613023565b50506000910152565b6000815180845261305c816020860160208601613020565b601f01601f19169290920160200192915050565b602081526000612bb96020830184613044565b634e487b7160e01b600052602160045260246000fd5b600481106130b757634e487b7160e01b600052602160045260246000fd5b9052565b6130c58187613099565b84602082015283604082015260018060a01b038316606082015260a0608082015260006130f560a0830184613044565b979650505050505050565b60006001600160401b0382111561311957613119612f1e565b5060051b60200190565b600082601f83011261313457600080fd5b8135602061314182613100565b60405161314e8282612f34565b83815260059390931b850182019282810191508684111561316e57600080fd5b8286015b848110156131895780358352918301918301613172565b509695505050505050565b600080600080600060a086880312156131ac57600080fd5b6131b586612ea5565b94506131c360208701612ea5565b935060408601356001600160401b03808211156131df57600080fd5b6131eb89838a01613123565b9450606088013591508082111561320157600080fd5b61320d89838a01613123565b9350608088013591508082111561322357600080fd5b5061323088828901612f60565b9150509295509295909350565b6000806040838503121561325057600080fd5b8235915061326060208401612ea5565b90509250929050565b60006020828403121561327b57600080fd5b612bb982612ea5565b6000806040838503121561329757600080fd5b82356001600160401b03808211156132ae57600080fd5b818501915085601f8301126132c257600080fd5b813560206132cf82613100565b6040516132dc8282612f34565b83815260059390931b85018201928281019150898411156132fc57600080fd5b948201945b838610156133215761331286612ea5565b82529482019490820190613301565b9650508601359250508082111561333757600080fd5b5061334485828601613123565b9150509250929050565b600081518084526020808501945080840160005b8381101561337e57815187529582019590820190600101613362565b509495945050505050565b602081526000612bb9602083018461334e565b600080604083850312156133af57600080fd5b6133b883612ea5565b915060208301356001600160401b038111156133d357600080fd5b61334485828601612f60565b6000806000606084860312156133f457600080fd5b6133fd84612ea5565b925060208401356001600160401b038082111561341957600080fd5b61342587838801613123565b9350604086013591508082111561343b57600080fd5b5061344886828701613123565b9150509250925092565b6000806000806080858703121561346857600080fd5b8435935061347860208601612ea5565b925061348660408601612ea5565b915060608501356001600160401b038111156134a157600080fd5b6134ad87828801612f60565b91505092959194509250565b600080600080608085870312156134cf57600080fd5b843593506020850135925061348660408601612ea5565b600080604083850312156134f957600080fd5b61350283612ea5565b91506020830135801515811461351757600080fd5b809150509250929050565b6000806040838503121561353557600080fd5b50508035926020909101359150565b60006020808301818452808551808352604092508286019150828160051b87010184880160005b838110156135da57603f19898403018552815160a061358b858351613099565b81890151858a015287820151888601526060808301516001600160a01b0316908601526080918201519185018190526135c681860183613044565b96890196945050509086019060010161356b565b509098975050505050505050565b600080604083850312156135fb57600080fd5b61360483612ea5565b915061326060208401612ea5565b600080600080600060a0868803121561362a57600080fd5b61363386612ea5565b945061364160208701612ea5565b9350604086013592506060860135915060808601356001600160401b0381111561366a57600080fd5b61323088828901612f60565b60008060006060848603121561368b57600080fd5b61369484612ea5565b95602085013595506040909401359392505050565b600181811c908216806136bd57607f821691505b60208210810361186257634e487b7160e01b600052602260045260246000fd5b6020808252602e908201527f455243313135353a2063616c6c6572206973206e6f7420746f6b656e206f776e60408201526d195c881bdc88185c1c1c9bdd995960921b606082015260800190565b6020808252602c908201527f46756e6374696f6e206d7573742062652063616c6c6564207468726f7567682060408201526b19195b1959d85d1958d85b1b60a21b606082015260800190565b6020808252602c908201527f46756e6374696f6e206d7573742062652063616c6c6564207468726f7567682060408201526b6163746976652070726f787960a01b606082015260800190565b634e487b7160e01b600052603260045260246000fd5b634e487b7160e01b600052601160045260246000fd5b600060018201613801576138016137d9565b5060010190565b601f8211156109f657600081815260208120601f850160051c8101602086101561382f5750805b601f850160051c820191505b81811015611b9a5782815560010161383b565b81516001600160401b0381111561386757613867612f1e565b61387b8161387584546136a9565b84613808565b602080601f8311600181146138b057600084156138985750858301515b600019600386901b1c1916600185901b178555611b9a565b600085815260208120601f198616915b828110156138df578886015182559484019460019091019084016138c0565b50858210156138fd5787850151600019600388901b60f8161c191681555b5050505050600190811b01905550565b80820281158282048414176107d5576107d56137d9565b818103818111156107d5576107d56137d9565b808201808211156107d5576107d56137d9565b60208082526028908201527f455243313135353a2069647320616e6420616d6f756e7473206c656e677468206040820152670dad2e6dac2e8c6d60c31b606082015260800190565b60208082526025908201527f455243313135353a207472616e7366657220746f20746865207a65726f206164604082015264647265737360d81b606082015260800190565b6020808252602a908201527f455243313135353a20696e73756666696369656e742062616c616e636520666f60408201526939103a3930b739b332b960b11b606082015260800190565b604081526000613a34604083018561334e565b8281036020840152613a46818561334e565b95945050505050565b600060208284031215613a6157600080fd5b5051919050565b60208082526023908201527f455243313135353a206275726e2066726f6d20746865207a65726f206164647260408201526265737360e81b606082015260800190565b60208082526024908201527f455243313135353a206275726e20616d6f756e7420657863656564732062616c604082015263616e636560e01b606082015260800190565b6020808252602b908201527f496e697469616c697a61626c653a20636f6e7472616374206973206e6f74206960408201526a6e697469616c697a696e6760a81b606082015260800190565b7f416363657373436f6e74726f6c3a206163636f756e7420000000000000000000815260008351613b72816017850160208801613020565b7001034b99036b4b9b9b4b733903937b6329607d1b6017918401918201528351613ba3816028840160208801613020565b01602801949350505050565b6001600160a01b0386811682528516602082015260a060408201819052600090613bdb9083018661334e565b8281036060840152613bed818661334e565b90508281036080840152613c018185613044565b98975050505050505050565b600060208284031215613c1f57600080fd5b8151612bb981612eeb565b600060033d1115610f555760046000803e5060005160e01c90565b600060443d1015613c535790565b6040516003193d81016004833e81513d6001600160401b038160248401118184111715613c8257505050505090565b8285019150815181811115613c9a5750505050505090565b843d8701016020828501011115613cb45750505050505090565b613cc360208286010187612f34565b509095945050505050565b60208082526028908201527f455243313135353a204552433131353552656365697665722072656a656374656040820152676420746f6b656e7360c01b606082015260800190565b6001600160a01b03868116825285166020820152604081018490526060810183905260a0608082018190526000906130f590830184613044565b600081613d5f57613d5f6137d9565b506000190190565b60008251613d79818460208701613020565b919091019291505056fe360894a13ba1a3210667c828492db98dca3e2076cc3735a920a3ca505d382bbc416464726573733a206c6f772d6c6576656c2064656c65676174652063616c6c206661696c6564a26469706673582212205e7586d78876e8631aae9715252351ccabebed9ae32142b6ec16d57be98734b964736f6c63430008130033",
  "linkReferences": {},
  "deployedLinkReferences": {}
}