{
  "_format": "hh-sol-artifact-1",
  "contractName": "RadarEditions",
  "sourceName": "src/RadarEditions.sol",
  "abi": [
    {
      "inputs": [],
      "stateMutability": "nonpayable",
      "type": "constructor"
    },
    {
      "inputs": [],
      "name": "EditionFeeExceedsMaximumFee",
      "type": "error"
    },
    {
      "inputs": [],
      "name": "EditionNotCreated",
      "type": "error"
    },
    {
      "inputs": [],
      "name": "EditionNotEnoughBalance",
      "type": "error"
    },
    {
      "inputs": [],
      "name": "EditionNotLaunched",
      "type": "error"
    },
    {
      "inputs": [],
      "name": "EditionNotStopped",
      "type": "error"
    },
    {
      "inputs": [],
      "name": "NotEditionOwner",
      "type": "error"
    },
    {
      "inputs": [],
      "name": "NotEnoughFunds",
      "type": "error"
    },
    {
      "inputs": [],
      "name": "TransactionFailed",
      "type": "error"
    },
    {
      "anonymous": false,
      "inputs": [
        {
          "indexed": false,
          "internalType": "address",
          "name": "previousAdmin",
          "type": "address"
        },
        {
          "indexed": false,
          "internalType": "address",
          "name": "newAdmin",
          "type": "address"
        }
      ],
      "name": "AdminChanged",
      "type": "event"
    },
    {
      "anonymous": false,
      "inputs": [
        {
          "indexed": true,
          "internalType": "address",
          "name": "account",
          "type": "address"
        },
        {
          "indexed": true,
          "internalType": "address",
          "name": "operator",
          "type": "address"
        },
        {
          "indexed": false,
          "internalType": "bool",
          "name": "approved",
          "type": "bool"
        }
      ],
      "name": "ApprovalForAll",
      "type": "event"
    },
    {
      "anonymous": false,
      "inputs": [
        {
          "indexed": true,
          "internalType": "address",
          "name": "beacon",
          "type": "address"
        }
      ],
      "name": "BeaconUpgraded",
      "type": "event"
    },
    {
      "anonymous": false,
      "inputs": [
        {
          "indexed": false,
          "internalType": "uint256",
          "name": "editionId",
          "type": "uint256"
        }
      ],
      "name": "EditionApproved",
      "type": "event"
    },
    {
      "anonymous": false,
      "inputs": [
        {
          "indexed": false,
          "internalType": "uint256",
          "name": "editionId",
          "type": "uint256"
        },
        {
          "indexed": false,
          "internalType": "uint256",
          "name": "amount",
          "type": "uint256"
        },
        {
          "indexed": false,
          "internalType": "address",
          "name": "owner",
          "type": "address"
        }
      ],
      "name": "EditionBalanceWithdrawn",
      "type": "event"
    },
    {
      "anonymous": false,
      "inputs": [
        {
          "indexed": false,
          "internalType": "uint256",
          "name": "editionId",
          "type": "uint256"
        },
        {
          "indexed": false,
          "internalType": "uint256",
          "name": "fee",
          "type": "uint256"
        },
        {
          "indexed": false,
          "internalType": "address",
          "name": "owner",
          "type": "address"
        }
      ],
      "name": "EditionCreated",
      "type": "event"
    },
    {
      "anonymous": false,
      "inputs": [
        {
          "indexed": false,
          "internalType": "uint256",
          "name": "editionId",
          "type": "uint256"
        }
      ],
      "name": "EditionResumed",
      "type": "event"
    },
    {
      "anonymous": false,
      "inputs": [
        {
          "indexed": false,
          "internalType": "uint256",
          "name": "editionId",
          "type": "uint256"
        }
      ],
      "name": "EditionStopped",
      "type": "event"
    },
    {
      "anonymous": false,
      "inputs": [
        {
          "indexed": false,
          "internalType": "uint8",
          "name": "version",
          "type": "uint8"
        }
      ],
      "name": "Initialized",
      "type": "event"
    },
    {
      "anonymous": false,
      "inputs": [
        {
          "indexed": false,
          "internalType": "address",
          "name": "account",
          "type": "address"
        }
      ],
      "name": "Paused",
      "type": "event"
    },
    {
      "anonymous": false,
      "inputs": [
        {
          "indexed": true,
          "internalType": "bytes32",
          "name": "role",
          "type": "bytes32"
        },
        {
          "indexed": true,
          "internalType": "bytes32",
          "name": "previousAdminRole",
          "type": "bytes32"
        },
        {
          "indexed": true,
          "internalType": "bytes32",
          "name": "newAdminRole",
          "type": "bytes32"
        }
      ],
      "name": "RoleAdminChanged",
      "type": "event"
    },
    {
      "anonymous": false,
      "inputs": [
        {
          "indexed": true,
          "internalType": "bytes32",
          "name": "role",
          "type": "bytes32"
        },
        {
          "indexed": true,
          "internalType": "address",
          "name": "account",
          "type": "address"
        },
        {
          "indexed": true,
          "internalType": "address",
          "name": "sender",
          "type": "address"
        }
      ],
      "name": "RoleGranted",
      "type": "event"
    },
    {
      "anonymous": false,
      "inputs": [
        {
          "indexed": true,
          "internalType": "bytes32",
          "name": "role",
          "type": "bytes32"
        },
        {
          "indexed": true,
          "internalType": "address",
          "name": "account",
          "type": "address"
        },
        {
          "indexed": true,
          "internalType": "address",
          "name": "sender",
          "type": "address"
        }
      ],
      "name": "RoleRevoked",
      "type": "event"
    },
    {
      "anonymous": false,
      "inputs": [
        {
          "indexed": true,
          "internalType": "address",
          "name": "operator",
          "type": "address"
        },
        {
          "indexed": true,
          "internalType": "address",
          "name": "from",
          "type": "address"
        },
        {
          "indexed": true,
          "internalType": "address",
          "name": "to",
          "type": "address"
        },
        {
          "indexed": false,
          "internalType": "uint256[]",
          "name": "ids",
          "type": "uint256[]"
        },
        {
          "indexed": false,
          "internalType": "uint256[]",
          "name": "values",
          "type": "uint256[]"
        }
      ],
      "name": "TransferBatch",
      "type": "event"
    },
    {
      "anonymous": false,
      "inputs": [
        {
          "indexed": true,
          "internalType": "address",
          "name": "operator",
          "type": "address"
        },
        {
          "indexed": true,
          "internalType": "address",
          "name": "from",
          "type": "address"
        },
        {
          "indexed": true,
          "internalType": "address",
          "name": "to",
          "type": "address"
        },
        {
          "indexed": false,
          "internalType": "uint256",
          "name": "id",
          "type": "uint256"
        },
        {
          "indexed": false,
          "internalType": "uint256",
          "name": "value",
          "type": "uint256"
        }
      ],
      "name": "TransferSingle",
      "type": "event"
    },
    {
      "anonymous": false,
      "inputs": [
        {
          "indexed": false,
          "internalType": "string",
          "name": "value",
          "type": "string"
        },
        {
          "indexed": true,
          "internalType": "uint256",
          "name": "id",
          "type": "uint256"
        }
      ],
      "name": "URI",
      "type": "event"
    },
    {
      "anonymous": false,
      "inputs": [
        {
          "indexed": false,
          "internalType": "address",
          "name": "account",
          "type": "address"
        }
      ],
      "name": "Unpaused",
      "type": "event"
    },
    {
      "anonymous": false,
      "inputs": [
        {
          "indexed": true,
          "internalType": "address",
          "name": "implementation",
          "type": "address"
        }
      ],
      "name": "Upgraded",
      "type": "event"
    },
    {
      "stateMutability": "payable",
      "type": "fallback"
    },
    {
      "inputs": [],
      "name": "DEFAULT_ADMIN_ROLE",
      "outputs": [
        {
          "internalType": "bytes32",
          "name": "",
          "type": "bytes32"
        }
      ],
      "stateMutability": "view",
      "type": "function"
    },
    {
      "inputs": [
        {
          "internalType": "uint256",
          "name": "editionId",
          "type": "uint256"
        }
      ],
      "name": "approveEdition",
      "outputs": [],
      "stateMutability": "nonpayable",
      "type": "function"
    },
    {
      "inputs": [
        {
          "internalType": "address",
          "name": "account",
          "type": "address"
        },
        {
          "internalType": "uint256",
          "name": "id",
          "type": "uint256"
        }
      ],
      "name": "balanceOf",
      "outputs": [
        {
          "internalType": "uint256",
          "name": "",
          "type": "uint256"
        }
      ],
      "stateMutability": "view",
      "type": "function"
    },
    {
      "inputs": [
        {
          "internalType": "address[]",
          "name": "accounts",
          "type": "address[]"
        },
        {
          "internalType": "uint256[]",
          "name": "ids",
          "type": "uint256[]"
        }
      ],
      "name": "balanceOfBatch",
      "outputs": [
        {
          "internalType": "uint256[]",
          "name": "",
          "type": "uint256[]"
        }
      ],
      "stateMutability": "view",
      "type": "function"
    },
    {
      "inputs": [
        {
          "internalType": "address",
          "name": "account",
          "type": "address"
        },
        {
          "internalType": "uint256",
          "name": "id",
          "type": "uint256"
        },
        {
          "internalType": "uint256",
          "name": "value",
          "type": "uint256"
        }
      ],
      "name": "burn",
      "outputs": [],
      "stateMutability": "nonpayable",
      "type": "function"
    },
    {
      "inputs": [
        {
          "internalType": "address",
          "name": "account",
          "type": "address"
        },
        {
          "internalType": "uint256[]",
          "name": "ids",
          "type": "uint256[]"
        },
        {
          "internalType": "uint256[]",
          "name": "values",
          "type": "uint256[]"
        }
      ],
      "name": "burnBatch",
      "outputs": [],
      "stateMutability": "nonpayable",
      "type": "function"
    },
    {
      "inputs": [
        {
          "internalType": "uint256",
          "name": "fee",
          "type": "uint256"
        },
        {
          "internalType": "address",
          "name": "owner",
          "type": "address"
        },
        {
          "internalType": "address",
          "name": "payer",
          "type": "address"
        },
        {
          "internalType": "string",
          "name": "id",
          "type": "string"
        }
      ],
      "name": "createEdition",
      "outputs": [
        {
          "internalType": "uint256",
          "name": "editionId",
          "type": "uint256"
        }
      ],
      "stateMutability": "nonpayable",
      "type": "function"
    },
    {
      "inputs": [],
      "name": "editionCounter",
      "outputs": [
        {
          "internalType": "uint256",
          "name": "",
          "type": "uint256"
        }
      ],
      "stateMutability": "view",
      "type": "function"
    },
    {
      "inputs": [
        {
          "internalType": "uint256",
          "name": "",
          "type": "uint256"
        }
      ],
      "name": "editions",
      "outputs": [
        {
          "internalType": "enum EditionsStructs.EditionStatus",
          "name": "status",
          "type": "uint8"
        },
        {
          "internalType": "uint256",
          "name": "fee",
          "type": "uint256"
        },
        {
          "internalType": "uint256",
          "name": "balance",
          "type": "uint256"
        },
        {
          "internalType": "address",
          "name": "owner",
          "type": "address"
        },
        {
          "internalType": "string",
          "name": "id",
          "type": "string"
        }
      ],
      "stateMutability": "view",
      "type": "function"
    },
    {
      "inputs": [
        {
          "internalType": "uint256",
          "name": "id",
          "type": "uint256"
        }
      ],
      "name": "exists",
      "outputs": [
        {
          "internalType": "bool",
          "name": "",
          "type": "bool"
        }
      ],
      "stateMutability": "view",
      "type": "function"
    },
    {
      "inputs": [
        {
          "internalType": "address",
          "name": "owner",
          "type": "address"
        }
      ],
      "name": "getBalances",
      "outputs": [
        {
          "components": [
            {
              "internalType": "string",
              "name": "id",
              "type": "string"
            },
            {
              "internalType": "uint256",
              "name": "amount",
              "type": "uint256"
            }
          ],
          "internalType": "struct EditionsStructs.EditionIdWithAmount[]",
          "name": "",
          "type": "tuple[]"
        }
      ],
      "stateMutability": "view",
      "type": "function"
    },
    {
      "inputs": [],
      "name": "getEditions",
      "outputs": [
        {
          "components": [
            {
              "internalType": "enum EditionsStructs.EditionStatus",
              "name": "status",
              "type": "uint8"
            },
            {
              "internalType": "uint256",
              "name": "fee",
              "type": "uint256"
            },
            {
              "internalType": "uint256",
              "name": "balance",
              "type": "uint256"
            },
            {
              "internalType": "address",
              "name": "owner",
              "type": "address"
            },
            {
              "internalType": "string",
              "name": "id",
              "type": "string"
            }
          ],
          "internalType": "struct EditionsStructs.Edition[]",
          "name": "",
          "type": "tuple[]"
        }
      ],
      "stateMutability": "view",
      "type": "function"
    },
    {
      "inputs": [
        {
          "internalType": "bytes32",
          "name": "role",
          "type": "bytes32"
        }
      ],
      "name": "getRoleAdmin",
      "outputs": [
        {
          "internalType": "bytes32",
          "name": "",
          "type": "bytes32"
        }
      ],
      "stateMutability": "view",
      "type": "function"
    },
    {
      "inputs": [
        {
          "internalType": "bytes32",
          "name": "role",
          "type": "bytes32"
        },
        {
          "internalType": "address",
          "name": "account",
          "type": "address"
        }
      ],
      "name": "grantRole",
      "outputs": [],
      "stateMutability": "nonpayable",
      "type": "function"
    },
    {
      "inputs": [
        {
          "internalType": "bytes32",
          "name": "role",
          "type": "bytes32"
        },
        {
          "internalType": "address",
          "name": "account",
          "type": "address"
        }
      ],
      "name": "hasRole",
      "outputs": [
        {
          "internalType": "bool",
          "name": "",
          "type": "bool"
        }
      ],
      "stateMutability": "view",
      "type": "function"
    },
    {
      "inputs": [],
      "name": "initialize",
      "outputs": [],
      "stateMutability": "nonpayable",
      "type": "function"
    },
    {
      "inputs": [
        {
          "internalType": "address",
          "name": "account",
          "type": "address"
        },
        {
          "internalType": "address",
          "name": "operator",
          "type": "address"
        }
      ],
      "name": "isApprovedForAll",
      "outputs": [
        {
          "internalType": "bool",
          "name": "",
          "type": "bool"
        }
      ],
      "stateMutability": "view",
      "type": "function"
    },
    {
      "inputs": [],
      "name": "maximumEditionFee",
      "outputs": [
        {
          "internalType": "uint256",
          "name": "",
          "type": "uint256"
        }
      ],
      "stateMutability": "view",
      "type": "function"
    },
    {
      "inputs": [
        {
          "internalType": "uint256",
          "name": "editionId",
          "type": "uint256"
        },
        {
          "internalType": "uint256",
          "name": "amount",
          "type": "uint256"
        },
        {
          "internalType": "address",
          "name": "buyer",
          "type": "address"
        },
        {
          "internalType": "bytes",
          "name": "data",
          "type": "bytes"
        }
      ],
      "name": "mintEdition",
      "outputs": [],
      "stateMutability": "payable",
      "type": "function"
    },
    {
      "inputs": [],
      "name": "pause",
      "outputs": [],
      "stateMutability": "nonpayable",
      "type": "function"
    },
    {
      "inputs": [],
      "name": "paused",
      "outputs": [
        {
          "internalType": "bool",
          "name": "",
          "type": "bool"
        }
      ],
      "stateMutability": "view",
      "type": "function"
    },
    {
      "inputs": [],
      "name": "protocolFee",
      "outputs": [
        {
          "internalType": "uint256",
          "name": "",
          "type": "uint256"
        }
      ],
      "stateMutability": "view",
      "type": "function"
    },
    {
      "inputs": [],
      "name": "proxiableUUID",
      "outputs": [
        {
          "internalType": "bytes32",
          "name": "",
          "type": "bytes32"
        }
      ],
      "stateMutability": "view",
      "type": "function"
    },
    {
      "inputs": [
        {
          "internalType": "bytes32",
          "name": "role",
          "type": "bytes32"
        },
        {
          "internalType": "address",
          "name": "account",
          "type": "address"
        }
      ],
      "name": "renounceRole",
      "outputs": [],
      "stateMutability": "nonpayable",
      "type": "function"
    },
    {
      "inputs": [
        {
          "internalType": "uint256",
          "name": "editionId",
          "type": "uint256"
        }
      ],
      "name": "resumeEdition",
      "outputs": [],
      "stateMutability": "nonpayable",
      "type": "function"
    },
    {
      "inputs": [
        {
          "internalType": "bytes32",
          "name": "role",
          "type": "bytes32"
        },
        {
          "internalType": "address",
          "name": "account",
          "type": "address"
        }
      ],
      "name": "revokeRole",
      "outputs": [],
      "stateMutability": "nonpayable",
      "type": "function"
    },
    {
      "inputs": [
        {
          "internalType": "address",
          "name": "from",
          "type": "address"
        },
        {
          "internalType": "address",
          "name": "to",
          "type": "address"
        },
        {
          "internalType": "uint256[]",
          "name": "ids",
          "type": "uint256[]"
        },
        {
          "internalType": "uint256[]",
          "name": "amounts",
          "type": "uint256[]"
        },
        {
          "internalType": "bytes",
          "name": "data",
          "type": "bytes"
        }
      ],
      "name": "safeBatchTransferFrom",
      "outputs": [],
      "stateMutability": "nonpayable",
      "type": "function"
    },
    {
      "inputs": [
        {
          "internalType": "address",
          "name": "from",
          "type": "address"
        },
        {
          "internalType": "address",
          "name": "to",
          "type": "address"
        },
        {
          "internalType": "uint256",
          "name": "id",
          "type": "uint256"
        },
        {
          "internalType": "uint256",
          "name": "amount",
          "type": "uint256"
        },
        {
          "internalType": "bytes",
          "name": "data",
          "type": "bytes"
        }
      ],
      "name": "safeTransferFrom",
      "outputs": [],
      "stateMutability": "nonpayable",
      "type": "function"
    },
    {
      "inputs": [
        {
          "internalType": "address",
          "name": "operator",
          "type": "address"
        },
        {
          "internalType": "bool",
          "name": "approved",
          "type": "bool"
        }
      ],
      "name": "setApprovalForAll",
      "outputs": [],
      "stateMutability": "nonpayable",
      "type": "function"
    },
    {
      "inputs": [
        {
          "internalType": "uint256",
          "name": "_maximumEditionFee",
          "type": "uint256"
        }
      ],
      "name": "setMaximumEditionFee",
      "outputs": [],
      "stateMutability": "nonpayable",
      "type": "function"
    },
    {
      "inputs": [
        {
          "internalType": "uint256",
          "name": "_protocolFee",
          "type": "uint256"
        }
      ],
      "name": "setProtocolFee",
      "outputs": [],
      "stateMutability": "nonpayable",
      "type": "function"
    },
    {
      "inputs": [
        {
          "internalType": "string",
          "name": "newuri",
          "type": "string"
        }
      ],
      "name": "setURI",
      "outputs": [],
      "stateMutability": "nonpayable",
      "type": "function"
    },
    {
      "inputs": [
        {
          "internalType": "uint256",
          "name": "editionId",
          "type": "uint256"
        }
      ],
      "name": "stopEdition",
      "outputs": [],
      "stateMutability": "nonpayable",
      "type": "function"
    },
    {
      "inputs": [
        {
          "internalType": "bytes4",
          "name": "interfaceId",
          "type": "bytes4"
        }
      ],
      "name": "supportsInterface",
      "outputs": [
        {
          "internalType": "bool",
          "name": "",
          "type": "bool"
        }
      ],
      "stateMutability": "view",
      "type": "function"
    },
    {
      "inputs": [
        {
          "internalType": "uint256",
          "name": "id",
          "type": "uint256"
        }
      ],
      "name": "totalSupply",
      "outputs": [
        {
          "internalType": "uint256",
          "name": "",
          "type": "uint256"
        }
      ],
      "stateMutability": "view",
      "type": "function"
    },
    {
      "inputs": [],
      "name": "unpause",
      "outputs": [],
      "stateMutability": "nonpayable",
      "type": "function"
    },
    {
      "inputs": [
        {
          "internalType": "address",
          "name": "newImplementation",
          "type": "address"
        }
      ],
      "name": "upgradeTo",
      "outputs": [],
      "stateMutability": "nonpayable",
      "type": "function"
    },
    {
      "inputs": [
        {
          "internalType": "address",
          "name": "newImplementation",
          "type": "address"
        },
        {
          "internalType": "bytes",
          "name": "data",
          "type": "bytes"
        }
      ],
      "name": "upgradeToAndCall",
      "outputs": [],
      "stateMutability": "payable",
      "type": "function"
    },
    {
      "inputs": [
        {
          "internalType": "uint256",
          "name": "",
          "type": "uint256"
        }
      ],
      "name": "uri",
      "outputs": [
        {
          "internalType": "string",
          "name": "",
          "type": "string"
        }
      ],
      "stateMutability": "view",
      "type": "function"
    },
    {
      "inputs": [
        {
          "internalType": "uint256",
          "name": "editionId",
          "type": "uint256"
        },
        {
          "internalType": "uint256",
          "name": "amount",
          "type": "uint256"
        }
      ],
      "name": "withdrawEditionBalance",
      "outputs": [],
      "stateMutability": "nonpayable",
      "type": "function"
    },
    {
      "inputs": [
        {
          "internalType": "uint256",
          "name": "amount",
          "type": "uint256"
        }
      ],
      "name": "withdrawFunds",
      "outputs": [],
      "stateMutability": "nonpayable",
      "type": "function"
    },
    {
      "stateMutability": "payable",
      "type": "receive"
    }
  ],
  "bytecode": "0x60a0604052306080523480156200001557600080fd5b506200002062000026565b620000e7565b600054610100900460ff1615620000935760405162461bcd60e51b815260206004820152602760248201527f496e697469616c697a61626c653a20636f6e747261637420697320696e697469604482015266616c697a696e6760c81b606482015260840160405180910390fd5b60005460ff90811614620000e5576000805460ff191660ff9081179091556040519081527f7f26b83ff96e1f2b6a682f133852f6798a09c465da95921460cefb38474024989060200160405180910390a15b565b608051613fbd6200011f60003960008181610c0201528181610c4201528181610e3c01528181610e7c0152610f0b0152613fbd6000f3fe6080604052600436106102315760003560e01c80637357628c1161012d578063b0e21e8a116100b0578063d667c9ce11610077578063d667c9ce146106af578063df6efc6c146106cf578063e985e9c5146106f1578063f242432a1461073a578063f5298aca1461075a578063fc74efa21461077a57005b8063b0e21e8a14610606578063bd85b0391461061d578063c6fbb7121461064b578063c84aae1714610662578063d547741f1461068f57005b806391d14854116100f457806391d148541461057e57806391fc02f11461059e578063940123da146105be578063a217fddf146105d1578063a22cb465146105e657005b80637357628c146104f4578063787dce3d146105145780637cc74941146105345780638129fc1c146105545780638456cb591461056957005b806336568abe116101b55780634f558e791161017c5780634f558e791461046057806352d1902d146104905780635c975abb146104a55780636b20c454146104bd5780636b5cb789146104dd57005b806336568abe146103cb5780633659cfe6146103eb5780633f4ba83a1461040b5780634e1273f4146104205780634f1ef2861461044d57005b8063155dd5ee116101f9578063155dd5ee1461030a578063248a9ca31461032a578063279c806e1461035a5780632eb2c2d61461038b5780632f2ff15d146103ab57005b8062fdd58e1461023a57806301ffc9a71461026d57806302fe53051461029d5780630a579eca146102bd5780630e89341c146102dd57005b3661023857005b005b34801561024657600080fd5b5061025a610255366004613016565b61079a565b6040519081526020015b60405180910390f35b34801561027957600080fd5b5061028d610288366004613056565b610835565b6040519015158152602001610264565b3480156102a957600080fd5b506102386102b8366004613128565b610840565b3480156102c957600080fd5b506102386102d836600461315c565b610877565b3480156102e957600080fd5b506102fd6102f836600461315c565b610948565b60405161026491906131c5565b34801561031657600080fd5b5061023861032536600461315c565b6109dc565b34801561033657600080fd5b5061025a61034536600461315c565b60009081526097602052604090206001015490565b34801561036657600080fd5b5061037a61037536600461315c565b610a55565b604051610264959493929190613210565b34801561039757600080fd5b506102386103a63660046132e9565b610b1d565b3480156103b757600080fd5b506102386103c6366004613392565b610b69565b3480156103d757600080fd5b506102386103e6366004613392565b610b7e565b3480156103f757600080fd5b506102386104063660046133be565b610bf8565b34801561041757600080fd5b50610238610cd7565b34801561042c57600080fd5b5061044061043b3660046133d9565b610d09565b60405161026491906134de565b61023861045b3660046134f1565b610e32565b34801561046c57600080fd5b5061028d61047b36600461315c565b600090815261012d6020526040902054151590565b34801561049c57600080fd5b5061025a610efe565b3480156104b157600080fd5b5060c95460ff1661028d565b3480156104c957600080fd5b506102386104d8366004613534565b610fb2565b3480156104e957600080fd5b5061025a6101c65481565b34801561050057600080fd5b5061023861050f36600461315c565b610ff5565b34801561052057600080fd5b5061023861052f36600461315c565b611096565b34801561054057600080fd5b5061023861054f36600461315c565b6110a8565b34801561056057600080fd5b506102386110ba565b34801561057557600080fd5b50610238611285565b34801561058a57600080fd5b5061028d610599366004613392565b6112b7565b3480156105aa57600080fd5b5061025a6105b93660046135a7565b6112e2565b6102386105cc36600461360e565b61142a565b3480156105dd57600080fd5b5061025a600081565b3480156105f257600080fd5b5061023861060136600461363b565b61150b565b34801561061257600080fd5b5061025a6101c35481565b34801561062957600080fd5b5061025a61063836600461315c565b600090815261012d602052604090205490565b34801561065757600080fd5b5061025a6101c55481565b34801561066e57600080fd5b5061068261067d3660046133be565b611516565b6040516102649190613677565b34801561069b57600080fd5b506102386106aa366004613392565b611680565b3480156106bb57600080fd5b506102386106ca3660046136ed565b6116a5565b3480156106db57600080fd5b506106e46117e7565b604051610264919061370f565b3480156106fd57600080fd5b5061028d61070c3660046137a5565b6001600160a01b03918216600090815260666020908152604080832093909416825291909152205460ff1690565b34801561074657600080fd5b506102386107553660046137cf565b6119bd565b34801561076657600080fd5b50610238610775366004613833565b611a02565b34801561078657600080fd5b5061023861079536600461315c565b611a45565b60006001600160a01b03831661080a5760405162461bcd60e51b815260206004820152602a60248201527f455243313135353a2061646472657373207a65726f206973206e6f742061207660448201526930b634b21037bbb732b960b11b60648201526084015b60405180910390fd5b5060008181526065602090815260408083206001600160a01b03861684529091529020545b92915050565b600061082f82611b0f565b7f7804d923f43a17d325d77e781528e0793b2edd9890ab45fc64efd7b4b427744c61086a81611b34565b61087382611b3e565b5050565b60008181526101c460205260409020600301546001600160a01b031633146108b25760405163388f811f60e01b815260040160405180910390fd5b600260008281526101c4602052604090205460ff1660038111156108d8576108d86131d8565b146108f657604051631f0fb6fd60e11b815260040160405180910390fd5b60008181526101c46020908152604091829020805460ff1916600317905590518281527f591913f977ab242c5871f116f36be231ff67df5e8e0bac1efd91fa8a723aca2b91015b60405180910390a150565b60606067805461095790613866565b80601f016020809104026020016040519081016040528092919081815260200182805461098390613866565b80156109d05780601f106109a5576101008083540402835291602001916109d0565b820191906000526020600020905b8154815290600101906020018083116109b357829003601f168201915b50505050509050919050565b60006109e781611b34565b604051600090339084908381818185875af1925050503d8060008114610a29576040519150601f19603f3d011682016040523d82523d6000602084013e610a2e565b606091505b5050905080610a50576040516317f2c34560e31b815260040160405180910390fd5b505050565b6101c4602052600090815260409020805460018201546002830154600384015460048501805460ff90951695939492936001600160a01b0390921692610a9a90613866565b80601f0160208091040260200160405190810160405280929190818152602001828054610ac690613866565b8015610b135780601f10610ae857610100808354040283529160200191610b13565b820191906000526020600020905b815481529060010190602001808311610af657829003601f168201915b5050505050905085565b6001600160a01b038516331480610b395750610b39853361070c565b610b555760405162461bcd60e51b81526004016108019061389a565b610b628585858585611b4a565b5050505050565b6000610b7481611b34565b610a508383611cf7565b6001600160a01b0381163314610bee5760405162461bcd60e51b815260206004820152602f60248201527f416363657373436f6e74726f6c3a2063616e206f6e6c792072656e6f756e636560448201526e103937b632b9903337b91039b2b63360891b6064820152608401610801565b6108738282611d7d565b6001600160a01b037f0000000000000000000000000000000000000000000000000000000000000000163003610c405760405162461bcd60e51b8152600401610801906138e8565b7f00000000000000000000000000000000000000000000000000000000000000006001600160a01b0316610c89600080516020613f41833981519152546001600160a01b031690565b6001600160a01b031614610caf5760405162461bcd60e51b815260040161080190613934565b610cb881611de4565b60408051600080825260208201909252610cd491839190611e0e565b50565b7f65d7a28e3265b37a6474929f336521b332c1681b933f6cb9f3376673440d862a610d0181611b34565b610cd4611f79565b60608151835114610d6e5760405162461bcd60e51b815260206004820152602960248201527f455243313135353a206163636f756e747320616e6420696473206c656e677468604482015268040dad2e6dac2e8c6d60bb1b6064820152608401610801565b600083516001600160401b03811115610d8957610d89613073565b604051908082528060200260200182016040528015610db2578160200160208202803683370190505b50905060005b8451811015610e2a57610dfd858281518110610dd657610dd6613980565b6020026020010151858381518110610df057610df0613980565b602002602001015161079a565b828281518110610e0f57610e0f613980565b6020908102919091010152610e23816139ac565b9050610db8565b509392505050565b6001600160a01b037f0000000000000000000000000000000000000000000000000000000000000000163003610e7a5760405162461bcd60e51b8152600401610801906138e8565b7f00000000000000000000000000000000000000000000000000000000000000006001600160a01b0316610ec3600080516020613f41833981519152546001600160a01b031690565b6001600160a01b031614610ee95760405162461bcd60e51b815260040161080190613934565b610ef282611de4565b61087382826001611e0e565b6000306001600160a01b037f00000000000000000000000000000000000000000000000000000000000000001614610f9e5760405162461bcd60e51b815260206004820152603860248201527f555550535570677261646561626c653a206d757374206e6f742062652063616c60448201527f6c6564207468726f7567682064656c656761746563616c6c00000000000000006064820152608401610801565b50600080516020613f418339815191525b90565b6001600160a01b038316331480610fce5750610fce833361070c565b610fea5760405162461bcd60e51b81526004016108019061389a565b610a50838383611fcb565b600061100081611b34565b600160008381526101c4602052604090205460ff166003811115611026576110266131d8565b146110445760405163137c9c1f60e31b815260040160405180910390fd5b60008281526101c46020908152604091829020805460ff1916600217905590518381527f8f4352ac8b4aefdd2333162306bbe09dd4f4ff6661e89ccc4e4dcced8794e8f7910160405180910390a15050565b60006110a181611b34565b506101c355565b60006110b381611b34565b506101c655565b600054610100900460ff16158080156110da5750600054600160ff909116105b806110f45750303b1580156110f4575060005460ff166001145b6111575760405162461bcd60e51b815260206004820152602e60248201527f496e697469616c697a61626c653a20636f6e747261637420697320616c72656160448201526d191e481a5b9a5d1a585b1a5e995960921b6064820152608401610801565b6000805460ff19166001179055801561117a576000805461ff0019166101001790555b6111926040518060200160405280600081525061216c565b61119a61219c565b6111a26121c5565b6111aa61219c565b6111b261219c565b6111ba61219c565b6111c5600033611cf7565b6111ef7f7804d923f43a17d325d77e781528e0793b2edd9890ab45fc64efd7b4b427744c33611cf7565b6112197f65d7a28e3265b37a6474929f336521b332c1681b933f6cb9f3376673440d862a33611cf7565b6112437f189ab7a9244df0848122154315af71fe140f3db0fe014031783b0946b8c9d2e333611cf7565b8015610cd4576000805461ff0019169055604051600181527f7f26b83ff96e1f2b6a682f133852f6798a09c465da95921460cefb38474024989060200161093d565b7f65d7a28e3265b37a6474929f336521b332c1681b933f6cb9f3376673440d862a6112af81611b34565b610cd46121f4565b60009182526097602090815260408084206001600160a01b0393909316845291905290205460ff1690565b60006101c65485111561130857604051630f0c4c5f60e41b815260040160405180910390fd5b506101c5546040805160a0810190915280600181526020808201889052600060408084018290526001600160a01b038916606085015260809093018690528481526101c49091522081518154829060ff1916600183600381111561136e5761136e6131d8565b0217905550602082015160018201556040820151600282015560608201516003820180546001600160a01b0319166001600160a01b03909216919091179055608082015160048201906113c19082613a0b565b50506101c58054915060006113d5836139ac565b909155505060408051828152602081018790526001600160a01b0386168183015290517f7fe7f72f14a53255f3c9e225ab1d40fdb21335b87a7912726a196fb816866ae09181900360600190a1949350505050565b600260008581526101c4602052604090205460ff166003811115611450576114506131d8565b1461146e57604051631f0fb6fd60e11b815260040160405180910390fd5b6101c35460008581526101c46020526040902060010154849161149091613aca565b61149a9190613add565b3410156114ba57604051631036b5ad60e31b815260040160405180910390fd5b6114c682858584612231565b6101c3546114d49084613add565b6114de9034613af4565b60008581526101c4602052604081206002018054909190611500908490613aca565b909155505050505050565b610873338383612356565b606060006101c5546001600160401b0381111561153557611535613073565b60405190808252806020026020018201604052801561157b57816020015b6040805180820190915260608152600060208201528152602001906001900390816115535790505b50905060005b6101c5548110156116795760405180604001604052806101c4600084815260200190815260200160002060040180546115b990613866565b80601f01602080910402602001604051908101604052809291908181526020018280546115e590613866565b80156116325780601f1061160757610100808354040283529160200191611632565b820191906000526020600020905b81548152906001019060200180831161161557829003601f168201915b50505050508152602001611646868461079a565b81525082828151811061165b5761165b613980565b60200260200101819052508080611671906139ac565b915050611581565b5092915050565b60008281526097602052604090206001015461169b81611b34565b610a508383611d7d565b60008281526101c460205260409020600301546001600160a01b031633146116e05760405163388f811f60e01b815260040160405180910390fd5b60008281526101c4602052604090206002015481111561171357604051637eafab7d60e01b815260040160405180910390fd5b604051600090339083908381818185875af1925050503d8060008114611755576040519150601f19603f3d011682016040523d82523d6000602084013e61175a565b606091505b505090508061177c576040516317f2c34560e31b815260040160405180910390fd5b60008381526101c460205260408120600201805484929061179e908490613af4565b90915550506040805184815260208101849052338183015290517ff1090e9d5138cd4909542e10e1da576730b07eb291a71a151e63160dde345b949181900360600190a1505050565b606060006101c5546001600160401b0381111561180657611806613073565b60405190808252806020026020018201604052801561187357816020015b6118606040805160a081019091528060008152602001600081526020016000815260200160006001600160a01b03168152602001606081525090565b8152602001906001900390816118245790505b50905060005b6101c5548110156119b75760008181526101c4602052604090819020815160a081019092528054829060ff1660038111156118b6576118b66131d8565b60038111156118c7576118c76131d8565b8152600182015460208201526002820154604082015260038201546001600160a01b0316606082015260048201805460809092019161190590613866565b80601f016020809104026020016040519081016040528092919081815260200182805461193190613866565b801561197e5780601f106119535761010080835404028352916020019161197e565b820191906000526020600020905b81548152906001019060200180831161196157829003601f168201915b50505050508152505082828151811061199957611999613980565b602002602001018190525080806119af906139ac565b915050611879565b50919050565b6001600160a01b0385163314806119d957506119d9853361070c565b6119f55760405162461bcd60e51b81526004016108019061389a565b610b628585858585612436565b6001600160a01b038316331480611a1e5750611a1e833361070c565b611a3a5760405162461bcd60e51b81526004016108019061389a565b610a50838383612572565b60008181526101c460205260409020600301546001600160a01b03163314611a805760405163388f811f60e01b815260040160405180910390fd5b600360008281526101c4602052604090205460ff166003811115611aa657611aa66131d8565b14611ac45760405163968807a560e01b815260040160405180910390fd5b60008181526101c46020908152604091829020805460ff1916600217905590518281527f63bb17c9645a29322601b4fe88d8f3fa84f32229368294f903084be8f5d813ba910161093d565b60006001600160e01b03198216637965db0b60e01b148061082f575061082f8261268e565b610cd481336126de565b60676108738282613a0b565b8151835114611b6b5760405162461bcd60e51b815260040161080190613b07565b6001600160a01b038416611b915760405162461bcd60e51b815260040161080190613b4f565b33611ba0818787878787612737565b60005b8451811015611c89576000858281518110611bc057611bc0613980565b602002602001015190506000858381518110611bde57611bde613980565b60209081029190910181015160008481526065835260408082206001600160a01b038e168352909352919091205490915081811015611c2f5760405162461bcd60e51b815260040161080190613b94565b60008381526065602090815260408083206001600160a01b038e8116855292528083208585039055908b16825281208054849290611c6e908490613aca565b9250508190555050505080611c82906139ac565b9050611ba3565b50846001600160a01b0316866001600160a01b0316826001600160a01b03167f4a39dc06d4c0dbc64b70af90fd698a233a518aa5d07e595d983b8c0526c8f7fb8787604051611cd9929190613bde565b60405180910390a4611cef81878787878761274d565b505050505050565b611d0182826112b7565b6108735760008281526097602090815260408083206001600160a01b03851684529091529020805460ff19166001179055611d393390565b6001600160a01b0316816001600160a01b0316837f2f8788117e7eff1d82e926ec794901d17c78024a50270940304540a733656f0d60405160405180910390a45050565b611d8782826112b7565b156108735760008281526097602090815260408083206001600160a01b0385168085529252808320805460ff1916905551339285917ff6391f5c32d9c69d2a47ea670b442974b53935d1edc7fd64eb21e047a839171b9190a45050565b7f189ab7a9244df0848122154315af71fe140f3db0fe014031783b0946b8c9d2e361087381611b34565b7f4910fdfa16fed3260ed0e7147f7cc6da11a60208b5b9406d12a635614ffd91435460ff1615611e4157610a50836128a8565b826001600160a01b03166352d1902d6040518163ffffffff1660e01b8152600401602060405180830381865afa925050508015611e9b575060408051601f3d908101601f19168201909252611e9891810190613c0c565b60015b611efe5760405162461bcd60e51b815260206004820152602e60248201527f45524331393637557067726164653a206e657720696d706c656d656e7461746960448201526d6f6e206973206e6f74205555505360901b6064820152608401610801565b600080516020613f418339815191528114611f6d5760405162461bcd60e51b815260206004820152602960248201527f45524331393637557067726164653a20756e737570706f727465642070726f786044820152681a58589b195555525160ba1b6064820152608401610801565b50610a50838383612944565b611f81612969565b60c9805460ff191690557f5db9ee0a495bf2e6ff9c91a7834c1ba4fdd244a5e8aa4e537bd38aeae4b073aa335b6040516001600160a01b03909116815260200160405180910390a1565b6001600160a01b038316611ff15760405162461bcd60e51b815260040161080190613c25565b80518251146120125760405162461bcd60e51b815260040161080190613b07565b600033905061203581856000868660405180602001604052806000815250612737565b60005b83518110156120fd57600084828151811061205557612055613980565b60200260200101519050600084838151811061207357612073613980565b60209081029190910181015160008481526065835260408082206001600160a01b038c1683529093529190912054909150818110156120c45760405162461bcd60e51b815260040161080190613c68565b60009283526065602090815260408085206001600160a01b038b16865290915290922091039055806120f5816139ac565b915050612038565b5060006001600160a01b0316846001600160a01b0316826001600160a01b03167f4a39dc06d4c0dbc64b70af90fd698a233a518aa5d07e595d983b8c0526c8f7fb868660405161214e929190613bde565b60405180910390a46040805160208101909152600090525b50505050565b600054610100900460ff166121935760405162461bcd60e51b815260040161080190613cac565b610cd4816129b2565b600054610100900460ff166121c35760405162461bcd60e51b815260040161080190613cac565b565b600054610100900460ff166121ec5760405162461bcd60e51b815260040161080190613cac565b6121c36129e2565b6121fc612a15565b60c9805460ff191660011790557f62e78cea01bee320cd4e420270b5ea74000d11b0c9f74754ebdbfc544b05a258611fae3390565b6001600160a01b0384166122915760405162461bcd60e51b815260206004820152602160248201527f455243313135353a206d696e7420746f20746865207a65726f206164647265736044820152607360f81b6064820152608401610801565b33600061229d85612a5b565b905060006122aa85612a5b565b90506122bb83600089858589612737565b60008681526065602090815260408083206001600160a01b038b168452909152812080548792906122ed908490613aca565b909155505060408051878152602081018790526001600160a01b03808a1692600092918716917fc3d58168c5ae7397731d063d5bbf3d657854427343f4c083240f7aacaa2d0f62910160405180910390a461234d83600089898989612aa6565b50505050505050565b816001600160a01b0316836001600160a01b0316036123c95760405162461bcd60e51b815260206004820152602960248201527f455243313135353a2073657474696e6720617070726f76616c20737461747573604482015268103337b91039b2b63360b91b6064820152608401610801565b6001600160a01b03838116600081815260666020908152604080832094871680845294825291829020805460ff191686151590811790915591519182527f17307eab39ab6107e8899845ad3d59bd9653f200f220920489ca2b5937696c31910160405180910390a3505050565b6001600160a01b03841661245c5760405162461bcd60e51b815260040161080190613b4f565b33600061246885612a5b565b9050600061247585612a5b565b9050612485838989858589612737565b60008681526065602090815260408083206001600160a01b038c168452909152902054858110156124c85760405162461bcd60e51b815260040161080190613b94565b60008781526065602090815260408083206001600160a01b038d8116855292528083208985039055908a16825281208054889290612507908490613aca565b909155505060408051888152602081018890526001600160a01b03808b16928c821692918816917fc3d58168c5ae7397731d063d5bbf3d657854427343f4c083240f7aacaa2d0f62910160405180910390a4612567848a8a8a8a8a612aa6565b505050505050505050565b6001600160a01b0383166125985760405162461bcd60e51b815260040161080190613c25565b3360006125a484612a5b565b905060006125b184612a5b565b90506125d183876000858560405180602001604052806000815250612737565b60008581526065602090815260408083206001600160a01b038a168452909152902054848110156126145760405162461bcd60e51b815260040161080190613c68565b60008681526065602090815260408083206001600160a01b038b81168086529184528285208a8703905582518b81529384018a90529092908816917fc3d58168c5ae7397731d063d5bbf3d657854427343f4c083240f7aacaa2d0f62910160405180910390a460408051602081019091526000905261234d565b60006001600160e01b03198216636cdb3d1360e11b14806126bf57506001600160e01b031982166303a24d0760e21b145b8061082f57506301ffc9a760e01b6001600160e01b031983161461082f565b6126e882826112b7565b610873576126f581612b61565b612700836020612b73565b604051602001612711929190613cf7565b60408051601f198184030181529082905262461bcd60e51b8252610801916004016131c5565b61273f612a15565b611cef868686868686612d15565b6001600160a01b0384163b15611cef5760405163bc197c8160e01b81526001600160a01b0385169063bc197c81906127919089908990889088908890600401613d6c565b6020604051808303816000875af19250505080156127cc575060408051601f3d908101601f191682019092526127c991810190613dca565b60015b612878576127d8613de7565b806308c379a00361281157506127ec613e02565b806127f75750612813565b8060405162461bcd60e51b815260040161080191906131c5565b505b60405162461bcd60e51b815260206004820152603460248201527f455243313135353a207472616e7366657220746f206e6f6e2d455243313135356044820152732932b1b2b4bb32b91034b6b83632b6b2b73a32b960611b6064820152608401610801565b6001600160e01b0319811663bc197c8160e01b1461234d5760405162461bcd60e51b815260040161080190613e8b565b6001600160a01b0381163b6129155760405162461bcd60e51b815260206004820152602d60248201527f455243313936373a206e657720696d706c656d656e746174696f6e206973206e60448201526c1bdd08184818dbdb9d1c9858dd609a1b6064820152608401610801565b600080516020613f4183398151915280546001600160a01b0319166001600160a01b0392909216919091179055565b61294d83612e91565b60008251118061295a5750805b15610a50576121668383612ed1565b60c95460ff166121c35760405162461bcd60e51b815260206004820152601460248201527314185d5cd8589b194e881b9bdd081c185d5cd95960621b6044820152606401610801565b600054610100900460ff166129d95760405162461bcd60e51b815260040161080190613cac565b610cd481611b3e565b600054610100900460ff16612a095760405162461bcd60e51b815260040161080190613cac565b60c9805460ff19169055565b60c95460ff16156121c35760405162461bcd60e51b815260206004820152601060248201526f14185d5cd8589b194e881c185d5cd95960821b6044820152606401610801565b60408051600180825281830190925260609160009190602080830190803683370190505090508281600081518110612a9557612a95613980565b602090810291909101015292915050565b6001600160a01b0384163b15611cef5760405163f23a6e6160e01b81526001600160a01b0385169063f23a6e6190612aea9089908990889088908890600401613ed3565b6020604051808303816000875af1925050508015612b25575060408051601f3d908101601f19168201909252612b2291810190613dca565b60015b612b31576127d8613de7565b6001600160e01b0319811663f23a6e6160e01b1461234d5760405162461bcd60e51b815260040161080190613e8b565b606061082f6001600160a01b03831660145b60606000612b82836002613add565b612b8d906002613aca565b6001600160401b03811115612ba457612ba4613073565b6040519080825280601f01601f191660200182016040528015612bce576020820181803683370190505b509050600360fc1b81600081518110612be957612be9613980565b60200101906001600160f81b031916908160001a905350600f60fb1b81600181518110612c1857612c18613980565b60200101906001600160f81b031916908160001a9053506000612c3c846002613add565b612c47906001613aca565b90505b6001811115612cbf576f181899199a1a9b1b9c1cb0b131b232b360811b85600f1660108110612c7b57612c7b613980565b1a60f81b828281518110612c9157612c91613980565b60200101906001600160f81b031916908160001a90535060049490941c93612cb881613f0d565b9050612c4a565b508315612d0e5760405162461bcd60e51b815260206004820181905260248201527f537472696e67733a20686578206c656e67746820696e73756666696369656e746044820152606401610801565b9392505050565b6001600160a01b038516612d9d5760005b8351811015612d9b57828181518110612d4157612d41613980565b602002602001015161012d6000868481518110612d6057612d60613980565b602002602001015181526020019081526020016000206000828254612d859190613aca565b90915550612d949050816139ac565b9050612d26565b505b6001600160a01b038416611cef5760005b835181101561234d576000848281518110612dcb57612dcb613980565b602002602001015190506000848381518110612de957612de9613980565b60200260200101519050600061012d600084815260200190815260200160002054905081811015612e6d5760405162461bcd60e51b815260206004820152602860248201527f455243313135353a206275726e20616d6f756e74206578636565647320746f74604482015267616c537570706c7960c01b6064820152608401610801565b600092835261012d602052604090922091039055612e8a816139ac565b9050612dae565b612e9a816128a8565b6040516001600160a01b038216907fbc7cd75a20ee27fd9adebab32041f755214dbc6bffa90cc0225b39da2e5c2d3b90600090a250565b6060612d0e8383604051806060016040528060278152602001613f61602791396060600080856001600160a01b031685604051612f0e9190613f24565b600060405180830381855af49150503d8060008114612f49576040519150601f19603f3d011682016040523d82523d6000602084013e612f4e565b606091505b5091509150612f5f86838387612f69565b9695505050505050565b60608315612fd8578251600003612fd1576001600160a01b0385163b612fd15760405162461bcd60e51b815260206004820152601d60248201527f416464726573733a2063616c6c20746f206e6f6e2d636f6e74726163740000006044820152606401610801565b5081612fe2565b612fe28383612fea565b949350505050565b8151156127f75781518083602001fd5b80356001600160a01b038116811461301157600080fd5b919050565b6000806040838503121561302957600080fd5b61303283612ffa565b946020939093013593505050565b6001600160e01b031981168114610cd457600080fd5b60006020828403121561306857600080fd5b8135612d0e81613040565b634e487b7160e01b600052604160045260246000fd5b601f8201601f191681016001600160401b03811182821017156130ae576130ae613073565b6040525050565b600082601f8301126130c657600080fd5b81356001600160401b038111156130df576130df613073565b6040516130f6601f8301601f191660200182613089565b81815284602083860101111561310b57600080fd5b816020850160208301376000918101602001919091529392505050565b60006020828403121561313a57600080fd5b81356001600160401b0381111561315057600080fd5b612fe2848285016130b5565b60006020828403121561316e57600080fd5b5035919050565b60005b83811015613190578181015183820152602001613178565b50506000910152565b600081518084526131b1816020860160208601613175565b601f01601f19169290920160200192915050565b602081526000612d0e6020830184613199565b634e487b7160e01b600052602160045260246000fd5b6004811061320c57634e487b7160e01b600052602160045260246000fd5b9052565b61321a81876131ee565b84602082015283604082015260018060a01b038316606082015260a06080820152600061324a60a0830184613199565b979650505050505050565b60006001600160401b0382111561326e5761326e613073565b5060051b60200190565b600082601f83011261328957600080fd5b8135602061329682613255565b6040516132a38282613089565b83815260059390931b85018201928281019150868411156132c357600080fd5b8286015b848110156132de57803583529183019183016132c7565b509695505050505050565b600080600080600060a0868803121561330157600080fd5b61330a86612ffa565b945061331860208701612ffa565b935060408601356001600160401b038082111561333457600080fd5b61334089838a01613278565b9450606088013591508082111561335657600080fd5b61336289838a01613278565b9350608088013591508082111561337857600080fd5b50613385888289016130b5565b9150509295509295909350565b600080604083850312156133a557600080fd5b823591506133b560208401612ffa565b90509250929050565b6000602082840312156133d057600080fd5b612d0e82612ffa565b600080604083850312156133ec57600080fd5b82356001600160401b038082111561340357600080fd5b818501915085601f83011261341757600080fd5b8135602061342482613255565b6040516134318282613089565b83815260059390931b850182019282810191508984111561345157600080fd5b948201945b838610156134765761346786612ffa565b82529482019490820190613456565b9650508601359250508082111561348c57600080fd5b5061349985828601613278565b9150509250929050565b600081518084526020808501945080840160005b838110156134d3578151875295820195908201906001016134b7565b509495945050505050565b602081526000612d0e60208301846134a3565b6000806040838503121561350457600080fd5b61350d83612ffa565b915060208301356001600160401b0381111561352857600080fd5b613499858286016130b5565b60008060006060848603121561354957600080fd5b61355284612ffa565b925060208401356001600160401b038082111561356e57600080fd5b61357a87838801613278565b9350604086013591508082111561359057600080fd5b5061359d86828701613278565b9150509250925092565b600080600080608085870312156135bd57600080fd5b843593506135cd60208601612ffa565b92506135db60408601612ffa565b915060608501356001600160401b038111156135f657600080fd5b613602878288016130b5565b91505092959194509250565b6000806000806080858703121561362457600080fd5b84359350602085013592506135db60408601612ffa565b6000806040838503121561364e57600080fd5b61365783612ffa565b91506020830135801515811461366c57600080fd5b809150509250929050565b60006020808301818452808551808352604092508286019150828160051b87010184880160005b838110156136df57888303603f19018552815180518785526136c288860182613199565b91890151948901949094529487019492509086019060010161369e565b509098975050505050505050565b6000806040838503121561370057600080fd5b50508035926020909101359150565b60006020808301818452808551808352604092508286019150828160051b87010184880160005b838110156136df57603f19898403018552815160a06137568583516131ee565b81890151858a015287820151888601526060808301516001600160a01b03169086015260809182015191850181905261379181860183613199565b968901969450505090860190600101613736565b600080604083850312156137b857600080fd5b6137c183612ffa565b91506133b560208401612ffa565b600080600080600060a086880312156137e757600080fd5b6137f086612ffa565b94506137fe60208701612ffa565b9350604086013592506060860135915060808601356001600160401b0381111561382757600080fd5b613385888289016130b5565b60008060006060848603121561384857600080fd5b61385184612ffa565b95602085013595506040909401359392505050565b600181811c9082168061387a57607f821691505b6020821081036119b757634e487b7160e01b600052602260045260246000fd5b6020808252602e908201527f455243313135353a2063616c6c6572206973206e6f7420746f6b656e206f776e60408201526d195c881bdc88185c1c1c9bdd995960921b606082015260800190565b6020808252602c908201527f46756e6374696f6e206d7573742062652063616c6c6564207468726f7567682060408201526b19195b1959d85d1958d85b1b60a21b606082015260800190565b6020808252602c908201527f46756e6374696f6e206d7573742062652063616c6c6564207468726f7567682060408201526b6163746976652070726f787960a01b606082015260800190565b634e487b7160e01b600052603260045260246000fd5b634e487b7160e01b600052601160045260246000fd5b6000600182016139be576139be613996565b5060010190565b601f821115610a5057600081815260208120601f850160051c810160208610156139ec5750805b601f850160051c820191505b81811015611cef578281556001016139f8565b81516001600160401b03811115613a2457613a24613073565b613a3881613a328454613866565b846139c5565b602080601f831160018114613a6d5760008415613a555750858301515b600019600386901b1c1916600185901b178555611cef565b600085815260208120601f198616915b82811015613a9c57888601518255948401946001909101908401613a7d565b5085821015613aba5787850151600019600388901b60f8161c191681555b5050505050600190811b01905550565b8082018082111561082f5761082f613996565b808202811582820484141761082f5761082f613996565b8181038181111561082f5761082f613996565b60208082526028908201527f455243313135353a2069647320616e6420616d6f756e7473206c656e677468206040820152670dad2e6dac2e8c6d60c31b606082015260800190565b60208082526025908201527f455243313135353a207472616e7366657220746f20746865207a65726f206164604082015264647265737360d81b606082015260800190565b6020808252602a908201527f455243313135353a20696e73756666696369656e742062616c616e636520666f60408201526939103a3930b739b332b960b11b606082015260800190565b604081526000613bf160408301856134a3565b8281036020840152613c0381856134a3565b95945050505050565b600060208284031215613c1e57600080fd5b5051919050565b60208082526023908201527f455243313135353a206275726e2066726f6d20746865207a65726f206164647260408201526265737360e81b606082015260800190565b60208082526024908201527f455243313135353a206275726e20616d6f756e7420657863656564732062616c604082015263616e636560e01b606082015260800190565b6020808252602b908201527f496e697469616c697a61626c653a20636f6e7472616374206973206e6f74206960408201526a6e697469616c697a696e6760a81b606082015260800190565b7f416363657373436f6e74726f6c3a206163636f756e7420000000000000000000815260008351613d2f816017850160208801613175565b7001034b99036b4b9b9b4b733903937b6329607d1b6017918401918201528351613d60816028840160208801613175565b01602801949350505050565b6001600160a01b0386811682528516602082015260a060408201819052600090613d98908301866134a3565b8281036060840152613daa81866134a3565b90508281036080840152613dbe8185613199565b98975050505050505050565b600060208284031215613ddc57600080fd5b8151612d0e81613040565b600060033d1115610faf5760046000803e5060005160e01c90565b600060443d1015613e105790565b6040516003193d81016004833e81513d6001600160401b038160248401118184111715613e3f57505050505090565b8285019150815181811115613e575750505050505090565b843d8701016020828501011115613e715750505050505090565b613e8060208286010187613089565b509095945050505050565b60208082526028908201527f455243313135353a204552433131353552656365697665722072656a656374656040820152676420746f6b656e7360c01b606082015260800190565b6001600160a01b03868116825285166020820152604081018490526060810183905260a06080820181905260009061324a90830184613199565b600081613f1c57613f1c613996565b506000190190565b60008251613f36818460208701613175565b919091019291505056fe360894a13ba1a3210667c828492db98dca3e2076cc3735a920a3ca505d382bbc416464726573733a206c6f772d6c6576656c2064656c65676174652063616c6c206661696c6564a2646970667358221220fa415efa088284bdcc08fe757cd5d2306a67fc4fba0329b207c668190bbe00a464736f6c63430008130033",
  "linkReferences": {},
  "deployedLinkReferences": {}
}