{
  "_format": "hh-sol-artifact-1",
  "contractName": "Editions",
  "sourceName": "src/Editions/Editions.sol",
  "abi": [
    {
      "inputs": [],
      "stateMutability": "nonpayable",
      "type": "constructor"
    },
    {
      "inputs": [],
      "name": "EditionFeeExceedsMaximumFee",
      "type": "error"
    },
    {
      "inputs": [],
      "name": "EditionNotCreated",
      "type": "error"
    },
    {
      "inputs": [],
      "name": "EditionNotEnoughBalance",
      "type": "error"
    },
    {
      "inputs": [],
      "name": "EditionNotLaunched",
      "type": "error"
    },
    {
      "inputs": [],
      "name": "EditionNotStopped",
      "type": "error"
    },
    {
      "inputs": [],
      "name": "NotCorrectUser",
      "type": "error"
    },
    {
      "inputs": [],
      "name": "NotEditionOwner",
      "type": "error"
    },
    {
      "inputs": [],
      "name": "NotEnoughFees",
      "type": "error"
    },
    {
      "inputs": [],
      "name": "NotEnoughFunds",
      "type": "error"
    },
    {
      "inputs": [],
      "name": "TransactionFailed",
      "type": "error"
    },
    {
      "anonymous": false,
      "inputs": [
        {
          "indexed": false,
          "internalType": "address",
          "name": "previousAdmin",
          "type": "address"
        },
        {
          "indexed": false,
          "internalType": "address",
          "name": "newAdmin",
          "type": "address"
        }
      ],
      "name": "AdminChanged",
      "type": "event"
    },
    {
      "anonymous": false,
      "inputs": [
        {
          "indexed": true,
          "internalType": "address",
          "name": "account",
          "type": "address"
        },
        {
          "indexed": true,
          "internalType": "address",
          "name": "operator",
          "type": "address"
        },
        {
          "indexed": false,
          "internalType": "bool",
          "name": "approved",
          "type": "bool"
        }
      ],
      "name": "ApprovalForAll",
      "type": "event"
    },
    {
      "anonymous": false,
      "inputs": [
        {
          "indexed": true,
          "internalType": "address",
          "name": "beacon",
          "type": "address"
        }
      ],
      "name": "BeaconUpgraded",
      "type": "event"
    },
    {
      "anonymous": false,
      "inputs": [
        {
          "indexed": false,
          "internalType": "uint256",
          "name": "editionId",
          "type": "uint256"
        }
      ],
      "name": "EditionApproved",
      "type": "event"
    },
    {
      "anonymous": false,
      "inputs": [
        {
          "indexed": false,
          "internalType": "uint256",
          "name": "editionId",
          "type": "uint256"
        },
        {
          "indexed": false,
          "internalType": "uint256",
          "name": "amount",
          "type": "uint256"
        },
        {
          "indexed": false,
          "internalType": "address",
          "name": "owner",
          "type": "address"
        }
      ],
      "name": "EditionBalanceWithdrawn",
      "type": "event"
    },
    {
      "anonymous": false,
      "inputs": [
        {
          "indexed": true,
          "internalType": "uint256",
          "name": "editionId",
          "type": "uint256"
        },
        {
          "indexed": true,
          "internalType": "address",
          "name": "believer",
          "type": "address"
        }
      ],
      "name": "EditionBeliefRemoved",
      "type": "event"
    },
    {
      "anonymous": false,
      "inputs": [
        {
          "indexed": true,
          "internalType": "uint256",
          "name": "editionId",
          "type": "uint256"
        },
        {
          "indexed": true,
          "internalType": "address",
          "name": "believer",
          "type": "address"
        },
        {
          "indexed": false,
          "internalType": "string",
          "name": "tags",
          "type": "string"
        }
      ],
      "name": "EditionBelieved",
      "type": "event"
    },
    {
      "anonymous": false,
      "inputs": [
        {
          "indexed": false,
          "internalType": "uint256",
          "name": "editionId",
          "type": "uint256"
        },
        {
          "indexed": false,
          "internalType": "uint256",
          "name": "fee",
          "type": "uint256"
        },
        {
          "indexed": false,
          "internalType": "address",
          "name": "owner",
          "type": "address"
        }
      ],
      "name": "EditionCreated",
      "type": "event"
    },
    {
      "anonymous": false,
      "inputs": [
        {
          "indexed": false,
          "internalType": "uint256",
          "name": "editionId",
          "type": "uint256"
        }
      ],
      "name": "EditionResumed",
      "type": "event"
    },
    {
      "anonymous": false,
      "inputs": [
        {
          "indexed": false,
          "internalType": "uint256",
          "name": "editionId",
          "type": "uint256"
        }
      ],
      "name": "EditionStopped",
      "type": "event"
    },
    {
      "anonymous": false,
      "inputs": [
        {
          "indexed": false,
          "internalType": "uint8",
          "name": "version",
          "type": "uint8"
        }
      ],
      "name": "Initialized",
      "type": "event"
    },
    {
      "anonymous": false,
      "inputs": [
        {
          "indexed": false,
          "internalType": "address",
          "name": "account",
          "type": "address"
        }
      ],
      "name": "Paused",
      "type": "event"
    },
    {
      "anonymous": false,
      "inputs": [
        {
          "indexed": true,
          "internalType": "bytes32",
          "name": "role",
          "type": "bytes32"
        },
        {
          "indexed": true,
          "internalType": "bytes32",
          "name": "previousAdminRole",
          "type": "bytes32"
        },
        {
          "indexed": true,
          "internalType": "bytes32",
          "name": "newAdminRole",
          "type": "bytes32"
        }
      ],
      "name": "RoleAdminChanged",
      "type": "event"
    },
    {
      "anonymous": false,
      "inputs": [
        {
          "indexed": true,
          "internalType": "bytes32",
          "name": "role",
          "type": "bytes32"
        },
        {
          "indexed": true,
          "internalType": "address",
          "name": "account",
          "type": "address"
        },
        {
          "indexed": true,
          "internalType": "address",
          "name": "sender",
          "type": "address"
        }
      ],
      "name": "RoleGranted",
      "type": "event"
    },
    {
      "anonymous": false,
      "inputs": [
        {
          "indexed": true,
          "internalType": "bytes32",
          "name": "role",
          "type": "bytes32"
        },
        {
          "indexed": true,
          "internalType": "address",
          "name": "account",
          "type": "address"
        },
        {
          "indexed": true,
          "internalType": "address",
          "name": "sender",
          "type": "address"
        }
      ],
      "name": "RoleRevoked",
      "type": "event"
    },
    {
      "anonymous": false,
      "inputs": [
        {
          "indexed": true,
          "internalType": "address",
          "name": "operator",
          "type": "address"
        },
        {
          "indexed": true,
          "internalType": "address",
          "name": "from",
          "type": "address"
        },
        {
          "indexed": true,
          "internalType": "address",
          "name": "to",
          "type": "address"
        },
        {
          "indexed": false,
          "internalType": "uint256[]",
          "name": "ids",
          "type": "uint256[]"
        },
        {
          "indexed": false,
          "internalType": "uint256[]",
          "name": "values",
          "type": "uint256[]"
        }
      ],
      "name": "TransferBatch",
      "type": "event"
    },
    {
      "anonymous": false,
      "inputs": [
        {
          "indexed": true,
          "internalType": "address",
          "name": "operator",
          "type": "address"
        },
        {
          "indexed": true,
          "internalType": "address",
          "name": "from",
          "type": "address"
        },
        {
          "indexed": true,
          "internalType": "address",
          "name": "to",
          "type": "address"
        },
        {
          "indexed": false,
          "internalType": "uint256",
          "name": "id",
          "type": "uint256"
        },
        {
          "indexed": false,
          "internalType": "uint256",
          "name": "value",
          "type": "uint256"
        }
      ],
      "name": "TransferSingle",
      "type": "event"
    },
    {
      "anonymous": false,
      "inputs": [
        {
          "indexed": false,
          "internalType": "string",
          "name": "value",
          "type": "string"
        },
        {
          "indexed": true,
          "internalType": "uint256",
          "name": "id",
          "type": "uint256"
        }
      ],
      "name": "URI",
      "type": "event"
    },
    {
      "anonymous": false,
      "inputs": [
        {
          "indexed": false,
          "internalType": "address",
          "name": "account",
          "type": "address"
        }
      ],
      "name": "Unpaused",
      "type": "event"
    },
    {
      "anonymous": false,
      "inputs": [
        {
          "indexed": true,
          "internalType": "address",
          "name": "implementation",
          "type": "address"
        }
      ],
      "name": "Upgraded",
      "type": "event"
    },
    {
      "stateMutability": "payable",
      "type": "fallback"
    },
    {
      "inputs": [],
      "name": "DEFAULT_ADMIN_ROLE",
      "outputs": [
        {
          "internalType": "bytes32",
          "name": "",
          "type": "bytes32"
        }
      ],
      "stateMutability": "view",
      "type": "function"
    },
    {
      "inputs": [
        {
          "internalType": "uint256",
          "name": "editionId",
          "type": "uint256"
        }
      ],
      "name": "approveEdition",
      "outputs": [],
      "stateMutability": "nonpayable",
      "type": "function"
    },
    {
      "inputs": [
        {
          "internalType": "address",
          "name": "account",
          "type": "address"
        },
        {
          "internalType": "uint256",
          "name": "id",
          "type": "uint256"
        }
      ],
      "name": "balanceOf",
      "outputs": [
        {
          "internalType": "uint256",
          "name": "",
          "type": "uint256"
        }
      ],
      "stateMutability": "view",
      "type": "function"
    },
    {
      "inputs": [
        {
          "internalType": "address[]",
          "name": "accounts",
          "type": "address[]"
        },
        {
          "internalType": "uint256[]",
          "name": "ids",
          "type": "uint256[]"
        }
      ],
      "name": "balanceOfBatch",
      "outputs": [
        {
          "internalType": "uint256[]",
          "name": "",
          "type": "uint256[]"
        }
      ],
      "stateMutability": "view",
      "type": "function"
    },
    {
      "inputs": [
        {
          "internalType": "uint256",
          "name": "editionId",
          "type": "uint256"
        },
        {
          "internalType": "string",
          "name": "tags",
          "type": "string"
        }
      ],
      "name": "believeProject",
      "outputs": [],
      "stateMutability": "nonpayable",
      "type": "function"
    },
    {
      "inputs": [
        {
          "internalType": "address",
          "name": "account",
          "type": "address"
        },
        {
          "internalType": "uint256",
          "name": "id",
          "type": "uint256"
        },
        {
          "internalType": "uint256",
          "name": "value",
          "type": "uint256"
        }
      ],
      "name": "burn",
      "outputs": [],
      "stateMutability": "nonpayable",
      "type": "function"
    },
    {
      "inputs": [
        {
          "internalType": "address",
          "name": "account",
          "type": "address"
        },
        {
          "internalType": "uint256[]",
          "name": "ids",
          "type": "uint256[]"
        },
        {
          "internalType": "uint256[]",
          "name": "values",
          "type": "uint256[]"
        }
      ],
      "name": "burnBatch",
      "outputs": [],
      "stateMutability": "nonpayable",
      "type": "function"
    },
    {
      "inputs": [],
      "name": "contractURI",
      "outputs": [
        {
          "internalType": "string",
          "name": "",
          "type": "string"
        }
      ],
      "stateMutability": "view",
      "type": "function"
    },
    {
      "inputs": [
        {
          "internalType": "uint256",
          "name": "fee",
          "type": "uint256"
        },
        {
          "internalType": "address",
          "name": "owner",
          "type": "address"
        },
        {
          "internalType": "address",
          "name": "payer",
          "type": "address"
        },
        {
          "internalType": "string",
          "name": "id",
          "type": "string"
        }
      ],
      "name": "createEdition",
      "outputs": [
        {
          "internalType": "uint256",
          "name": "editionId",
          "type": "uint256"
        }
      ],
      "stateMutability": "nonpayable",
      "type": "function"
    },
    {
      "inputs": [],
      "name": "editionCounter",
      "outputs": [
        {
          "internalType": "uint256",
          "name": "",
          "type": "uint256"
        }
      ],
      "stateMutability": "view",
      "type": "function"
    },
    {
      "inputs": [
        {
          "internalType": "uint256",
          "name": "",
          "type": "uint256"
        }
      ],
      "name": "editions",
      "outputs": [
        {
          "internalType": "enum EditionsStructs.EditionStatus",
          "name": "status",
          "type": "uint8"
        },
        {
          "internalType": "uint256",
          "name": "fee",
          "type": "uint256"
        },
        {
          "internalType": "uint256",
          "name": "balance",
          "type": "uint256"
        },
        {
          "internalType": "address",
          "name": "owner",
          "type": "address"
        },
        {
          "internalType": "string",
          "name": "id",
          "type": "string"
        }
      ],
      "stateMutability": "view",
      "type": "function"
    },
    {
      "inputs": [
        {
          "internalType": "uint256",
          "name": "id",
          "type": "uint256"
        }
      ],
      "name": "exists",
      "outputs": [
        {
          "internalType": "bool",
          "name": "",
          "type": "bool"
        }
      ],
      "stateMutability": "view",
      "type": "function"
    },
    {
      "inputs": [
        {
          "internalType": "address",
          "name": "owner",
          "type": "address"
        }
      ],
      "name": "getBalances",
      "outputs": [
        {
          "components": [
            {
              "internalType": "string",
              "name": "id",
              "type": "string"
            },
            {
              "internalType": "uint256",
              "name": "amount",
              "type": "uint256"
            }
          ],
          "internalType": "struct EditionsStructs.EditionIdWithAmount[]",
          "name": "",
          "type": "tuple[]"
        }
      ],
      "stateMutability": "view",
      "type": "function"
    },
    {
      "inputs": [],
      "name": "getEditions",
      "outputs": [
        {
          "components": [
            {
              "internalType": "enum EditionsStructs.EditionStatus",
              "name": "status",
              "type": "uint8"
            },
            {
              "internalType": "uint256",
              "name": "fee",
              "type": "uint256"
            },
            {
              "internalType": "uint256",
              "name": "balance",
              "type": "uint256"
            },
            {
              "internalType": "address",
              "name": "owner",
              "type": "address"
            },
            {
              "internalType": "string",
              "name": "id",
              "type": "string"
            }
          ],
          "internalType": "struct EditionsStructs.Edition[]",
          "name": "",
          "type": "tuple[]"
        }
      ],
      "stateMutability": "view",
      "type": "function"
    },
    {
      "inputs": [
        {
          "internalType": "bytes32",
          "name": "role",
          "type": "bytes32"
        }
      ],
      "name": "getRoleAdmin",
      "outputs": [
        {
          "internalType": "bytes32",
          "name": "",
          "type": "bytes32"
        }
      ],
      "stateMutability": "view",
      "type": "function"
    },
    {
      "inputs": [
        {
          "internalType": "bytes32",
          "name": "role",
          "type": "bytes32"
        },
        {
          "internalType": "address",
          "name": "account",
          "type": "address"
        }
      ],
      "name": "grantRole",
      "outputs": [],
      "stateMutability": "nonpayable",
      "type": "function"
    },
    {
      "inputs": [
        {
          "internalType": "bytes32",
          "name": "role",
          "type": "bytes32"
        },
        {
          "internalType": "address",
          "name": "account",
          "type": "address"
        }
      ],
      "name": "hasRole",
      "outputs": [
        {
          "internalType": "bool",
          "name": "",
          "type": "bool"
        }
      ],
      "stateMutability": "view",
      "type": "function"
    },
    {
      "inputs": [],
      "name": "initialize",
      "outputs": [],
      "stateMutability": "nonpayable",
      "type": "function"
    },
    {
      "inputs": [
        {
          "internalType": "address",
          "name": "account",
          "type": "address"
        },
        {
          "internalType": "address",
          "name": "operator",
          "type": "address"
        }
      ],
      "name": "isApprovedForAll",
      "outputs": [
        {
          "internalType": "bool",
          "name": "",
          "type": "bool"
        }
      ],
      "stateMutability": "view",
      "type": "function"
    },
    {
      "inputs": [],
      "name": "maximumEditionFee",
      "outputs": [
        {
          "internalType": "uint256",
          "name": "",
          "type": "uint256"
        }
      ],
      "stateMutability": "view",
      "type": "function"
    },
    {
      "inputs": [
        {
          "internalType": "uint256",
          "name": "editionId",
          "type": "uint256"
        },
        {
          "internalType": "uint256",
          "name": "amount",
          "type": "uint256"
        },
        {
          "internalType": "address",
          "name": "buyer",
          "type": "address"
        },
        {
          "internalType": "bytes",
          "name": "data",
          "type": "bytes"
        }
      ],
      "name": "mintEdition",
      "outputs": [],
      "stateMutability": "payable",
      "type": "function"
    },
    {
      "inputs": [],
      "name": "pause",
      "outputs": [],
      "stateMutability": "nonpayable",
      "type": "function"
    },
    {
      "inputs": [],
      "name": "paused",
      "outputs": [
        {
          "internalType": "bool",
          "name": "",
          "type": "bool"
        }
      ],
      "stateMutability": "view",
      "type": "function"
    },
    {
      "inputs": [],
      "name": "protocolFee",
      "outputs": [
        {
          "internalType": "uint256",
          "name": "",
          "type": "uint256"
        }
      ],
      "stateMutability": "view",
      "type": "function"
    },
    {
      "inputs": [],
      "name": "proxiableUUID",
      "outputs": [
        {
          "internalType": "bytes32",
          "name": "",
          "type": "bytes32"
        }
      ],
      "stateMutability": "view",
      "type": "function"
    },
    {
      "inputs": [
        {
          "internalType": "uint256",
          "name": "editionId",
          "type": "uint256"
        }
      ],
      "name": "removeBelief",
      "outputs": [],
      "stateMutability": "nonpayable",
      "type": "function"
    },
    {
      "inputs": [
        {
          "internalType": "bytes32",
          "name": "role",
          "type": "bytes32"
        },
        {
          "internalType": "address",
          "name": "account",
          "type": "address"
        }
      ],
      "name": "renounceRole",
      "outputs": [],
      "stateMutability": "nonpayable",
      "type": "function"
    },
    {
      "inputs": [
        {
          "internalType": "uint256",
          "name": "editionId",
          "type": "uint256"
        }
      ],
      "name": "resumeEdition",
      "outputs": [],
      "stateMutability": "nonpayable",
      "type": "function"
    },
    {
      "inputs": [
        {
          "internalType": "bytes32",
          "name": "role",
          "type": "bytes32"
        },
        {
          "internalType": "address",
          "name": "account",
          "type": "address"
        }
      ],
      "name": "revokeRole",
      "outputs": [],
      "stateMutability": "nonpayable",
      "type": "function"
    },
    {
      "inputs": [
        {
          "internalType": "address",
          "name": "from",
          "type": "address"
        },
        {
          "internalType": "address",
          "name": "to",
          "type": "address"
        },
        {
          "internalType": "uint256[]",
          "name": "ids",
          "type": "uint256[]"
        },
        {
          "internalType": "uint256[]",
          "name": "amounts",
          "type": "uint256[]"
        },
        {
          "internalType": "bytes",
          "name": "data",
          "type": "bytes"
        }
      ],
      "name": "safeBatchTransferFrom",
      "outputs": [],
      "stateMutability": "nonpayable",
      "type": "function"
    },
    {
      "inputs": [
        {
          "internalType": "address",
          "name": "from",
          "type": "address"
        },
        {
          "internalType": "address",
          "name": "to",
          "type": "address"
        },
        {
          "internalType": "uint256",
          "name": "id",
          "type": "uint256"
        },
        {
          "internalType": "uint256",
          "name": "amount",
          "type": "uint256"
        },
        {
          "internalType": "bytes",
          "name": "data",
          "type": "bytes"
        }
      ],
      "name": "safeTransferFrom",
      "outputs": [],
      "stateMutability": "nonpayable",
      "type": "function"
    },
    {
      "inputs": [
        {
          "internalType": "address",
          "name": "operator",
          "type": "address"
        },
        {
          "internalType": "bool",
          "name": "approved",
          "type": "bool"
        }
      ],
      "name": "setApprovalForAll",
      "outputs": [],
      "stateMutability": "nonpayable",
      "type": "function"
    },
    {
      "inputs": [
        {
          "internalType": "uint256",
          "name": "editionId",
          "type": "uint256"
        }
      ],
      "name": "stopEdition",
      "outputs": [],
      "stateMutability": "nonpayable",
      "type": "function"
    },
    {
      "inputs": [
        {
          "internalType": "bytes4",
          "name": "interfaceId",
          "type": "bytes4"
        }
      ],
      "name": "supportsInterface",
      "outputs": [
        {
          "internalType": "bool",
          "name": "",
          "type": "bool"
        }
      ],
      "stateMutability": "view",
      "type": "function"
    },
    {
      "inputs": [
        {
          "internalType": "uint256",
          "name": "id",
          "type": "uint256"
        }
      ],
      "name": "totalSupply",
      "outputs": [
        {
          "internalType": "uint256",
          "name": "",
          "type": "uint256"
        }
      ],
      "stateMutability": "view",
      "type": "function"
    },
    {
      "inputs": [],
      "name": "unpause",
      "outputs": [],
      "stateMutability": "nonpayable",
      "type": "function"
    },
    {
      "inputs": [
        {
          "internalType": "address",
          "name": "newImplementation",
          "type": "address"
        }
      ],
      "name": "upgradeTo",
      "outputs": [],
      "stateMutability": "nonpayable",
      "type": "function"
    },
    {
      "inputs": [
        {
          "internalType": "address",
          "name": "newImplementation",
          "type": "address"
        },
        {
          "internalType": "bytes",
          "name": "data",
          "type": "bytes"
        }
      ],
      "name": "upgradeToAndCall",
      "outputs": [],
      "stateMutability": "payable",
      "type": "function"
    },
    {
      "inputs": [
        {
          "internalType": "uint256",
          "name": "id",
          "type": "uint256"
        }
      ],
      "name": "uri",
      "outputs": [
        {
          "internalType": "string",
          "name": "",
          "type": "string"
        }
      ],
      "stateMutability": "view",
      "type": "function"
    },
    {
      "inputs": [
        {
          "internalType": "uint256",
          "name": "editionId",
          "type": "uint256"
        },
        {
          "internalType": "uint256",
          "name": "amount",
          "type": "uint256"
        }
      ],
      "name": "withdrawEditionBalance",
      "outputs": [],
      "stateMutability": "nonpayable",
      "type": "function"
    },
    {
      "inputs": [
        {
          "internalType": "uint256",
          "name": "amount",
          "type": "uint256"
        }
      ],
      "name": "withdrawFunds",
      "outputs": [],
      "stateMutability": "nonpayable",
      "type": "function"
    },
    {
      "stateMutability": "payable",
      "type": "receive"
    }
  ],
  "bytecode": "0x60a0604052306080523480156200001557600080fd5b506200002062000026565b620000e7565b600054610100900460ff1615620000935760405162461bcd60e51b815260206004820152602760248201527f496e697469616c697a61626c653a20636f6e747261637420697320696e697469604482015266616c697a696e6760c81b606482015260840160405180910390fd5b60005460ff90811614620000e5576000805460ff191660ff9081179091556040519081527f7f26b83ff96e1f2b6a682f133852f6798a09c465da95921460cefb38474024989060200160405180910390a15b565b6080516143676200011f60003960008181610c0501528181610c4501528181610e3f01528181610e7f0152610f0e01526143676000f3fe6080604052600436106102315760003560e01c8063790bafc61161012d578063c6fbb712116100b0578063e8a3d48511610077578063e8a3d485146106b1578063e985e9c5146106c6578063f242432a1461070f578063f5298aca1461072f578063f8c1b2fd1461074f578063fc74efa21461076f57005b8063c6fbb7121461060b578063c84aae1714610622578063d547741f1461064f578063d667c9ce1461066f578063df6efc6c1461068f57005b8063940123da116100f4578063940123da1461057e578063a217fddf14610591578063a22cb465146105a6578063b0e21e8a146105c6578063bd85b039146105dd57005b8063790bafc6146104f45780638129fc1c146105145780638456cb591461052957806391d148541461053e57806391fc02f11461055e57005b80633659cfe6116101b557806352d1902d1161017c57806352d1902d146104705780635c975abb146104855780636b20c4541461049d5780636b5cb789146104bd5780637357628c146104d457005b80633659cfe6146103cb5780633f4ba83a146103eb5780634e1273f4146104005780634f1ef2861461042d5780634f558e791461044057005b8063248a9ca3116101f9578063248a9ca31461030a578063279c806e1461033a5780632eb2c2d61461036b5780632f2ff15d1461038b57806336568abe146103ab57005b8062fdd58e1461023a57806301ffc9a71461026d5780630a579eca1461029d5780630e89341c146102bd578063155dd5ee146102ea57005b3661023857005b005b34801561024657600080fd5b5061025a610255366004613371565b61078f565b6040519081526020015b60405180910390f35b34801561027957600080fd5b5061028d6102883660046133b1565b61082a565b6040519015158152602001610264565b3480156102a957600080fd5b506102386102b83660046133ce565b610835565b3480156102c957600080fd5b506102dd6102d83660046133ce565b610917565b6040516102649190613437565b3480156102f657600080fd5b506102386103053660046133ce565b610952565b34801561031657600080fd5b5061025a6103253660046133ce565b60009081526097602052604090206001015490565b34801561034657600080fd5b5061035a6103553660046133ce565b610a4f565b604051610264959493929190613482565b34801561037757600080fd5b50610238610386366004613610565b610b17565b34801561039757600080fd5b506102386103a63660046136b9565b610b63565b3480156103b757600080fd5b506102386103c63660046136b9565b610b7d565b3480156103d757600080fd5b506102386103e63660046136e5565b610bfb565b3480156103f757600080fd5b50610238610cda565b34801561040c57600080fd5b5061042061041b366004613700565b610d0c565b6040516102649190613805565b61023861043b366004613818565b610e35565b34801561044c57600080fd5b5061028d61045b3660046133ce565b600090815261012d6020526040902054151590565b34801561047c57600080fd5b5061025a610f01565b34801561049157600080fd5b5060c95460ff1661028d565b3480156104a957600080fd5b506102386104b836600461385b565b610fb5565b3480156104c957600080fd5b5061025a6101c65481565b3480156104e057600080fd5b506102386104ef3660046133ce565b610ff8565b34801561050057600080fd5b5061023861050f3660046138ce565b611099565b34801561052057600080fd5b5061023861114e565b34801561053557600080fd5b50610238611319565b34801561054a57600080fd5b5061028d6105593660046136b9565b61134b565b34801561056a57600080fd5b5061025a6105793660046138fe565b611376565b61023861058c366004613965565b6114be565b34801561059d57600080fd5b5061025a600081565b3480156105b257600080fd5b506102386105c1366004613992565b61159f565b3480156105d257600080fd5b5061025a6101c35481565b3480156105e957600080fd5b5061025a6105f83660046133ce565b600090815261012d602052604090205490565b34801561061757600080fd5b5061025a6101c55481565b34801561062e57600080fd5b5061064261063d3660046136e5565b6115aa565b60405161026491906139ce565b34801561065b57600080fd5b5061023861066a3660046136b9565b611714565b34801561067b57600080fd5b5061023861068a366004613a44565b611739565b34801561069b57600080fd5b506106a461187b565b6040516102649190613a66565b3480156106bd57600080fd5b506102dd611a51565b3480156106d257600080fd5b5061028d6106e1366004613afc565b6001600160a01b03918216600090815260666020908152604080832093909416825291909152205460ff1690565b34801561071b57600080fd5b5061023861072a366004613b26565b611a71565b34801561073b57600080fd5b5061023861074a366004613b8a565b611ab6565b34801561075b57600080fd5b5061023861076a3660046133ce565b611af9565b34801561077b57600080fd5b5061023861078a3660046133ce565b611b8e565b60006001600160a01b0383166107ff5760405162461bcd60e51b815260206004820152602a60248201527f455243313135353a2061646472657373207a65726f206973206e6f742061207660448201526930b634b21037bbb732b960b11b60648201526084015b60405180910390fd5b5060008181526065602090815260408083206001600160a01b03861684529091529020545b92915050565b600061082482611c69565b60008181526101c460205260409020600301546001600160a01b0316331480610864575061086460003361134b565b6108815760405163388f811f60e01b815260040160405180910390fd5b600260008281526101c4602052604090205460ff1660038111156108a7576108a761344a565b146108c557604051631f0fb6fd60e11b815260040160405180910390fd5b60008181526101c46020908152604091829020805460ff1916600317905590518281527f591913f977ab242c5871f116f36be231ff67df5e8e0bac1efd91fa8a723aca2b91015b60405180910390a150565b606061092282611c8e565b61092b83611d22565b60405160200161093c929190613bbd565b6040516020818303038152906040529050919050565b600061095d81611db4565b4782111561097e57604051631036b5ad60e31b815260040160405180910390fd5b4760005b6101c5548110156109df5760008181526101c460205260409020600201546109aa9083613c02565b9150838210156109cd5760405163156bbc5b60e01b815260040160405180910390fd5b806109d781613c15565b915050610982565b50604051600090339085908381818185875af1925050503d8060008114610a22576040519150601f19603f3d011682016040523d82523d6000602084013e610a27565b606091505b5050905080610a49576040516317f2c34560e31b815260040160405180910390fd5b50505050565b6101c4602052600090815260409020805460018201546002830154600384015460048501805460ff90951695939492936001600160a01b0390921692610a9490613c2e565b80601f0160208091040260200160405190810160405280929190818152602001828054610ac090613c2e565b8015610b0d5780601f10610ae257610100808354040283529160200191610b0d565b820191906000526020600020905b815481529060010190602001808311610af057829003601f168201915b5050505050905085565b6001600160a01b038516331480610b335750610b3385336106e1565b610b4f5760405162461bcd60e51b81526004016107f690613c62565b610b5c8585858585611dbe565b5050505050565b6000610b6e81611db4565b610b788383611f6b565b505050565b6001600160a01b0381163314610bed5760405162461bcd60e51b815260206004820152602f60248201527f416363657373436f6e74726f6c3a2063616e206f6e6c792072656e6f756e636560448201526e103937b632b9903337b91039b2b63360891b60648201526084016107f6565b610bf78282611ff1565b5050565b6001600160a01b037f0000000000000000000000000000000000000000000000000000000000000000163003610c435760405162461bcd60e51b81526004016107f690613cb0565b7f00000000000000000000000000000000000000000000000000000000000000006001600160a01b0316610c8c6000805160206142c7833981519152546001600160a01b031690565b6001600160a01b031614610cb25760405162461bcd60e51b81526004016107f690613cfc565b610cbb81612058565b60408051600080825260208201909252610cd791839190612082565b50565b7f65d7a28e3265b37a6474929f336521b332c1681b933f6cb9f3376673440d862a610d0481611db4565b610cd76121ed565b60608151835114610d715760405162461bcd60e51b815260206004820152602960248201527f455243313135353a206163636f756e747320616e6420696473206c656e677468604482015268040dad2e6dac2e8c6d60bb1b60648201526084016107f6565b600083516001600160401b03811115610d8c57610d8c6134c7565b604051908082528060200260200182016040528015610db5578160200160208202803683370190505b50905060005b8451811015610e2d57610e00858281518110610dd957610dd9613d48565b6020026020010151858381518110610df357610df3613d48565b602002602001015161078f565b828281518110610e1257610e12613d48565b6020908102919091010152610e2681613c15565b9050610dbb565b509392505050565b6001600160a01b037f0000000000000000000000000000000000000000000000000000000000000000163003610e7d5760405162461bcd60e51b81526004016107f690613cb0565b7f00000000000000000000000000000000000000000000000000000000000000006001600160a01b0316610ec66000805160206142c7833981519152546001600160a01b031690565b6001600160a01b031614610eec5760405162461bcd60e51b81526004016107f690613cfc565b610ef582612058565b610bf782826001612082565b6000306001600160a01b037f00000000000000000000000000000000000000000000000000000000000000001614610fa15760405162461bcd60e51b815260206004820152603860248201527f555550535570677261646561626c653a206d757374206e6f742062652063616c60448201527f6c6564207468726f7567682064656c656761746563616c6c000000000000000060648201526084016107f6565b506000805160206142c78339815191525b90565b6001600160a01b038316331480610fd15750610fd183336106e1565b610fed5760405162461bcd60e51b81526004016107f690613c62565b610b7883838361223f565b600061100381611db4565b600160008381526101c4602052604090205460ff1660038111156110295761102961344a565b146110475760405163137c9c1f60e31b815260040160405180910390fd5b60008281526101c46020908152604091829020805460ff1916600217905590518381527f8f4352ac8b4aefdd2333162306bbe09dd4f4ff6661e89ccc4e4dcced8794e8f7910160405180910390a15050565b600260008381526101c4602052604090205460ff1660038111156110bf576110bf61344a565b146110dd5760405163137c9c1f60e31b815260040160405180910390fd5b3360009081526101c760209081526040808320600886901c845290915290208054600160ff85161b179055336001600160a01b0316827f710e220a47c8d9e50587c80fe509f5e762149ef672440eff70798204dd70f5eb836040516111429190613437565b60405180910390a35050565b600054610100900460ff161580801561116e5750600054600160ff909116105b806111885750303b158015611188575060005460ff166001145b6111eb5760405162461bcd60e51b815260206004820152602e60248201527f496e697469616c697a61626c653a20636f6e747261637420697320616c72656160448201526d191e481a5b9a5d1a585b1a5e995960921b60648201526084016107f6565b6000805460ff19166001179055801561120e576000805461ff0019166101001790555b611226604051806020016040528060008152506123de565b61122e61240e565b611236612437565b61123e61240e565b61124661240e565b61124e61240e565b611259600033611f6b565b6112837f7804d923f43a17d325d77e781528e0793b2edd9890ab45fc64efd7b4b427744c33611f6b565b6112ad7f65d7a28e3265b37a6474929f336521b332c1681b933f6cb9f3376673440d862a33611f6b565b6112d77f189ab7a9244df0848122154315af71fe140f3db0fe014031783b0946b8c9d2e333611f6b565b8015610cd7576000805461ff0019169055604051600181527f7f26b83ff96e1f2b6a682f133852f6798a09c465da95921460cefb38474024989060200161090c565b7f65d7a28e3265b37a6474929f336521b332c1681b933f6cb9f3376673440d862a61134381611db4565b610cd7612466565b60009182526097602090815260408084206001600160a01b0393909316845291905290205460ff1690565b60006101c65485111561139c57604051630f0c4c5f60e41b815260040160405180910390fd5b506101c5546040805160a0810190915280600181526020808201889052600060408084018290526001600160a01b038916606085015260809093018690528481526101c49091522081518154829060ff191660018360038111156114025761140261344a565b0217905550602082015160018201556040820151600282015560608201516003820180546001600160a01b0319166001600160a01b03909216919091179055608082015160048201906114559082613da4565b50506101c580549150600061146983613c15565b909155505060408051828152602081018790526001600160a01b0386168183015290517f7fe7f72f14a53255f3c9e225ab1d40fdb21335b87a7912726a196fb816866ae09181900360600190a1949350505050565b600260008581526101c4602052604090205460ff1660038111156114e4576114e461344a565b1461150257604051631f0fb6fd60e11b815260040160405180910390fd5b6101c35460008581526101c46020526040902060010154849161152491613e63565b61152e9190613e76565b34101561154e57604051631036b5ad60e31b815260040160405180910390fd5b61155a828585846124a3565b6101c3546115689084613e76565b6115729034613c02565b60008581526101c4602052604081206002018054909190611594908490613e63565b909155505050505050565b610bf73383836125c8565b606060006101c5546001600160401b038111156115c9576115c96134c7565b60405190808252806020026020018201604052801561160f57816020015b6040805180820190915260608152600060208201528152602001906001900390816115e75790505b50905060005b6101c55481101561170d5760405180604001604052806101c46000848152602001908152602001600020600401805461164d90613c2e565b80601f016020809104026020016040519081016040528092919081815260200182805461167990613c2e565b80156116c65780601f1061169b576101008083540402835291602001916116c6565b820191906000526020600020905b8154815290600101906020018083116116a957829003601f168201915b505050505081526020016116da868461078f565b8152508282815181106116ef576116ef613d48565b6020026020010181905250808061170590613c15565b915050611615565b5092915050565b60008281526097602052604090206001015461172f81611db4565b610b788383611ff1565b60008281526101c460205260409020600301546001600160a01b031633146117745760405163388f811f60e01b815260040160405180910390fd5b60008281526101c460205260409020600201548111156117a757604051637eafab7d60e01b815260040160405180910390fd5b604051600090339083908381818185875af1925050503d80600081146117e9576040519150601f19603f3d011682016040523d82523d6000602084013e6117ee565b606091505b5050905080611810576040516317f2c34560e31b815260040160405180910390fd5b60008381526101c4602052604081206002018054849290611832908490613c02565b90915550506040805184815260208101849052338183015290517ff1090e9d5138cd4909542e10e1da576730b07eb291a71a151e63160dde345b949181900360600190a1505050565b606060006101c5546001600160401b0381111561189a5761189a6134c7565b60405190808252806020026020018201604052801561190757816020015b6118f46040805160a081019091528060008152602001600081526020016000815260200160006001600160a01b03168152602001606081525090565b8152602001906001900390816118b85790505b50905060005b6101c554811015611a4b5760008181526101c4602052604090819020815160a081019092528054829060ff16600381111561194a5761194a61344a565b600381111561195b5761195b61344a565b8152600182015460208201526002820154604082015260038201546001600160a01b0316606082015260048201805460809092019161199990613c2e565b80601f01602080910402602001604051908101604052809291908181526020018280546119c590613c2e565b8015611a125780601f106119e757610100808354040283529160200191611a12565b820191906000526020600020905b8154815290600101906020018083116119f557829003601f168201915b505050505081525050828281518110611a2d57611a2d613d48565b60200260200101819052508080611a4390613c15565b91505061190d565b50919050565b606060405180606001604052806024815260200161430e60249139905090565b6001600160a01b038516331480611a8d5750611a8d85336106e1565b611aa95760405162461bcd60e51b81526004016107f690613c62565b610b5c85858585856126a8565b6001600160a01b038316331480611ad25750611ad283336106e1565b611aee5760405162461bcd60e51b81526004016107f690613c62565b610b788383836127e4565b3360009081526101c760209081526040808320600885901c84529182905290912054600160ff84161b16611b405760405163423f327760e11b815260040160405180910390fd5b600882901c6000908152602082905260408082208054600160ff87161b1916905551339184917fc6c1c3224e50c3c958e39197695bdfe8457ce7c0014d8d51a4d3aa12c5ac18489190a35050565b60008181526101c460205260409020600301546001600160a01b0316331480611bbd5750611bbd60003361134b565b611bda5760405163388f811f60e01b815260040160405180910390fd5b600360008281526101c4602052604090205460ff166003811115611c0057611c0061344a565b14611c1e5760405163968807a560e01b815260040160405180910390fd5b60008181526101c46020908152604091829020805460ff1916600217905590518281527f63bb17c9645a29322601b4fe88d8f3fa84f32229368294f903084be8f5d813ba910161090c565b60006001600160e01b03198216637965db0b60e01b1480610824575061082482612900565b606060678054611c9d90613c2e565b80601f0160208091040260200160405190810160405280929190818152602001828054611cc990613c2e565b8015611d165780601f10611ceb57610100808354040283529160200191611d16565b820191906000526020600020905b815481529060010190602001808311611cf957829003601f168201915b50505050509050919050565b60606000611d2f83612950565b60010190506000816001600160401b03811115611d4e57611d4e6134c7565b6040519080825280601f01601f191660200182016040528015611d78576020820181803683370190505b5090508181016020015b600019016f181899199a1a9b1b9c1cb0b131b232b360811b600a86061a8153600a8504945084611d8257509392505050565b610cd78133612a28565b8151835114611ddf5760405162461bcd60e51b81526004016107f690613e8d565b6001600160a01b038416611e055760405162461bcd60e51b81526004016107f690613ed5565b33611e14818787878787612a81565b60005b8451811015611efd576000858281518110611e3457611e34613d48565b602002602001015190506000858381518110611e5257611e52613d48565b60209081029190910181015160008481526065835260408082206001600160a01b038e168352909352919091205490915081811015611ea35760405162461bcd60e51b81526004016107f690613f1a565b60008381526065602090815260408083206001600160a01b038e8116855292528083208585039055908b16825281208054849290611ee2908490613e63565b9250508190555050505080611ef690613c15565b9050611e17565b50846001600160a01b0316866001600160a01b0316826001600160a01b03167f4a39dc06d4c0dbc64b70af90fd698a233a518aa5d07e595d983b8c0526c8f7fb8787604051611f4d929190613f64565b60405180910390a4611f63818787878787612a97565b505050505050565b611f75828261134b565b610bf75760008281526097602090815260408083206001600160a01b03851684529091529020805460ff19166001179055611fad3390565b6001600160a01b0316816001600160a01b0316837f2f8788117e7eff1d82e926ec794901d17c78024a50270940304540a733656f0d60405160405180910390a45050565b611ffb828261134b565b15610bf75760008281526097602090815260408083206001600160a01b0385168085529252808320805460ff1916905551339285917ff6391f5c32d9c69d2a47ea670b442974b53935d1edc7fd64eb21e047a839171b9190a45050565b7f189ab7a9244df0848122154315af71fe140f3db0fe014031783b0946b8c9d2e3610bf781611db4565b7f4910fdfa16fed3260ed0e7147f7cc6da11a60208b5b9406d12a635614ffd91435460ff16156120b557610b7883612bf2565b826001600160a01b03166352d1902d6040518163ffffffff1660e01b8152600401602060405180830381865afa92505050801561210f575060408051601f3d908101601f1916820190925261210c91810190613f92565b60015b6121725760405162461bcd60e51b815260206004820152602e60248201527f45524331393637557067726164653a206e657720696d706c656d656e7461746960448201526d6f6e206973206e6f74205555505360901b60648201526084016107f6565b6000805160206142c783398151915281146121e15760405162461bcd60e51b815260206004820152602960248201527f45524331393637557067726164653a20756e737570706f727465642070726f786044820152681a58589b195555525160ba1b60648201526084016107f6565b50610b78838383612c8e565b6121f5612cb3565b60c9805460ff191690557f5db9ee0a495bf2e6ff9c91a7834c1ba4fdd244a5e8aa4e537bd38aeae4b073aa335b6040516001600160a01b03909116815260200160405180910390a1565b6001600160a01b0383166122655760405162461bcd60e51b81526004016107f690613fab565b80518251146122865760405162461bcd60e51b81526004016107f690613e8d565b60003390506122a981856000868660405180602001604052806000815250612a81565b60005b83518110156123715760008482815181106122c9576122c9613d48565b6020026020010151905060008483815181106122e7576122e7613d48565b60209081029190910181015160008481526065835260408082206001600160a01b038c1683529093529190912054909150818110156123385760405162461bcd60e51b81526004016107f690613fee565b60009283526065602090815260408085206001600160a01b038b168652909152909220910390558061236981613c15565b9150506122ac565b5060006001600160a01b0316846001600160a01b0316826001600160a01b03167f4a39dc06d4c0dbc64b70af90fd698a233a518aa5d07e595d983b8c0526c8f7fb86866040516123c2929190613f64565b60405180910390a4604080516020810190915260009052610a49565b600054610100900460ff166124055760405162461bcd60e51b81526004016107f690614032565b610cd781612cfc565b600054610100900460ff166124355760405162461bcd60e51b81526004016107f690614032565b565b600054610100900460ff1661245e5760405162461bcd60e51b81526004016107f690614032565b612435612d2c565b61246e612d5f565b60c9805460ff191660011790557f62e78cea01bee320cd4e420270b5ea74000d11b0c9f74754ebdbfc544b05a2586122223390565b6001600160a01b0384166125035760405162461bcd60e51b815260206004820152602160248201527f455243313135353a206d696e7420746f20746865207a65726f206164647265736044820152607360f81b60648201526084016107f6565b33600061250f85612da5565b9050600061251c85612da5565b905061252d83600089858589612a81565b60008681526065602090815260408083206001600160a01b038b1684529091528120805487929061255f908490613e63565b909155505060408051878152602081018790526001600160a01b03808a1692600092918716917fc3d58168c5ae7397731d063d5bbf3d657854427343f4c083240f7aacaa2d0f62910160405180910390a46125bf83600089898989612df0565b50505050505050565b816001600160a01b0316836001600160a01b03160361263b5760405162461bcd60e51b815260206004820152602960248201527f455243313135353a2073657474696e6720617070726f76616c20737461747573604482015268103337b91039b2b63360b91b60648201526084016107f6565b6001600160a01b03838116600081815260666020908152604080832094871680845294825291829020805460ff191686151590811790915591519182527f17307eab39ab6107e8899845ad3d59bd9653f200f220920489ca2b5937696c31910160405180910390a3505050565b6001600160a01b0384166126ce5760405162461bcd60e51b81526004016107f690613ed5565b3360006126da85612da5565b905060006126e785612da5565b90506126f7838989858589612a81565b60008681526065602090815260408083206001600160a01b038c1684529091529020548581101561273a5760405162461bcd60e51b81526004016107f690613f1a565b60008781526065602090815260408083206001600160a01b038d8116855292528083208985039055908a16825281208054889290612779908490613e63565b909155505060408051888152602081018890526001600160a01b03808b16928c821692918816917fc3d58168c5ae7397731d063d5bbf3d657854427343f4c083240f7aacaa2d0f62910160405180910390a46127d9848a8a8a8a8a612df0565b505050505050505050565b6001600160a01b03831661280a5760405162461bcd60e51b81526004016107f690613fab565b33600061281684612da5565b9050600061282384612da5565b905061284383876000858560405180602001604052806000815250612a81565b60008581526065602090815260408083206001600160a01b038a168452909152902054848110156128865760405162461bcd60e51b81526004016107f690613fee565b60008681526065602090815260408083206001600160a01b038b81168086529184528285208a8703905582518b81529384018a90529092908816917fc3d58168c5ae7397731d063d5bbf3d657854427343f4c083240f7aacaa2d0f62910160405180910390a46040805160208101909152600090526125bf565b60006001600160e01b03198216636cdb3d1360e11b148061293157506001600160e01b031982166303a24d0760e21b145b8061082457506301ffc9a760e01b6001600160e01b0319831614610824565b60008072184f03e93ff9f4daa797ed6e38ed64bf6a1f0160401b831061298f5772184f03e93ff9f4daa797ed6e38ed64bf6a1f0160401b830492506040015b6d04ee2d6d415b85acef810000000083106129bb576d04ee2d6d415b85acef8100000000830492506020015b662386f26fc1000083106129d957662386f26fc10000830492506010015b6305f5e10083106129f1576305f5e100830492506008015b6127108310612a0557612710830492506004015b60648310612a17576064830492506002015b600a83106108245760010192915050565b612a32828261134b565b610bf757612a3f81612eab565b612a4a836020612ebd565b604051602001612a5b92919061407d565b60408051601f198184030181529082905262461bcd60e51b82526107f691600401613437565b612a89612d5f565b611f6386868686868661305f565b6001600160a01b0384163b15611f635760405163bc197c8160e01b81526001600160a01b0385169063bc197c8190612adb90899089908890889088906004016140f2565b6020604051808303816000875af1925050508015612b16575060408051601f3d908101601f19168201909252612b1391810190614150565b60015b612bc257612b2261416d565b806308c379a003612b5b5750612b36614188565b80612b415750612b5d565b8060405162461bcd60e51b81526004016107f69190613437565b505b60405162461bcd60e51b815260206004820152603460248201527f455243313135353a207472616e7366657220746f206e6f6e2d455243313135356044820152732932b1b2b4bb32b91034b6b83632b6b2b73a32b960611b60648201526084016107f6565b6001600160e01b0319811663bc197c8160e01b146125bf5760405162461bcd60e51b81526004016107f690614211565b6001600160a01b0381163b612c5f5760405162461bcd60e51b815260206004820152602d60248201527f455243313936373a206e657720696d706c656d656e746174696f6e206973206e60448201526c1bdd08184818dbdb9d1c9858dd609a1b60648201526084016107f6565b6000805160206142c783398151915280546001600160a01b0319166001600160a01b0392909216919091179055565b612c97836131db565b600082511180612ca45750805b15610b7857610a49838361321b565b60c95460ff166124355760405162461bcd60e51b815260206004820152601460248201527314185d5cd8589b194e881b9bdd081c185d5cd95960621b60448201526064016107f6565b600054610100900460ff16612d235760405162461bcd60e51b81526004016107f690614032565b610cd781613240565b600054610100900460ff16612d535760405162461bcd60e51b81526004016107f690614032565b60c9805460ff19169055565b60c95460ff16156124355760405162461bcd60e51b815260206004820152601060248201526f14185d5cd8589b194e881c185d5cd95960821b60448201526064016107f6565b60408051600180825281830190925260609160009190602080830190803683370190505090508281600081518110612ddf57612ddf613d48565b602090810291909101015292915050565b6001600160a01b0384163b15611f635760405163f23a6e6160e01b81526001600160a01b0385169063f23a6e6190612e349089908990889088908890600401614259565b6020604051808303816000875af1925050508015612e6f575060408051601f3d908101601f19168201909252612e6c91810190614150565b60015b612e7b57612b2261416d565b6001600160e01b0319811663f23a6e6160e01b146125bf5760405162461bcd60e51b81526004016107f690614211565b60606108246001600160a01b03831660145b60606000612ecc836002613e76565b612ed7906002613e63565b6001600160401b03811115612eee57612eee6134c7565b6040519080825280601f01601f191660200182016040528015612f18576020820181803683370190505b509050600360fc1b81600081518110612f3357612f33613d48565b60200101906001600160f81b031916908160001a905350600f60fb1b81600181518110612f6257612f62613d48565b60200101906001600160f81b031916908160001a9053506000612f86846002613e76565b612f91906001613e63565b90505b6001811115613009576f181899199a1a9b1b9c1cb0b131b232b360811b85600f1660108110612fc557612fc5613d48565b1a60f81b828281518110612fdb57612fdb613d48565b60200101906001600160f81b031916908160001a90535060049490941c9361300281614293565b9050612f94565b5083156130585760405162461bcd60e51b815260206004820181905260248201527f537472696e67733a20686578206c656e67746820696e73756666696369656e7460448201526064016107f6565b9392505050565b6001600160a01b0385166130e75760005b83518110156130e55782818151811061308b5761308b613d48565b602002602001015161012d60008684815181106130aa576130aa613d48565b6020026020010151815260200190815260200160002060008282546130cf9190613e63565b909155506130de905081613c15565b9050613070565b505b6001600160a01b038416611f635760005b83518110156125bf57600084828151811061311557613115613d48565b60200260200101519050600084838151811061313357613133613d48565b60200260200101519050600061012d6000848152602001908152602001600020549050818110156131b75760405162461bcd60e51b815260206004820152602860248201527f455243313135353a206275726e20616d6f756e74206578636565647320746f74604482015267616c537570706c7960c01b60648201526084016107f6565b600092835261012d6020526040909220910390556131d481613c15565b90506130f8565b6131e481612bf2565b6040516001600160a01b038216907fbc7cd75a20ee27fd9adebab32041f755214dbc6bffa90cc0225b39da2e5c2d3b90600090a250565b606061305883836040518060600160405280602781526020016142e76027913961324c565b6067610bf78282613da4565b6060600080856001600160a01b03168560405161326991906142aa565b600060405180830381855af49150503d80600081146132a4576040519150601f19603f3d011682016040523d82523d6000602084013e6132a9565b606091505b50915091506132ba868383876132c4565b9695505050505050565b6060831561333357825160000361332c576001600160a01b0385163b61332c5760405162461bcd60e51b815260206004820152601d60248201527f416464726573733a2063616c6c20746f206e6f6e2d636f6e747261637400000060448201526064016107f6565b508161333d565b61333d8383613345565b949350505050565b815115612b415781518083602001fd5b80356001600160a01b038116811461336c57600080fd5b919050565b6000806040838503121561338457600080fd5b61338d83613355565b946020939093013593505050565b6001600160e01b031981168114610cd757600080fd5b6000602082840312156133c357600080fd5b81356130588161339b565b6000602082840312156133e057600080fd5b5035919050565b60005b838110156134025781810151838201526020016133ea565b50506000910152565b600081518084526134238160208601602086016133e7565b601f01601f19169290920160200192915050565b602081526000613058602083018461340b565b634e487b7160e01b600052602160045260246000fd5b6004811061347e57634e487b7160e01b600052602160045260246000fd5b9052565b61348c8187613460565b84602082015283604082015260018060a01b038316606082015260a0608082015260006134bc60a083018461340b565b979650505050505050565b634e487b7160e01b600052604160045260246000fd5b601f8201601f191681016001600160401b0381118282101715613502576135026134c7565b6040525050565b60006001600160401b03821115613522576135226134c7565b5060051b60200190565b600082601f83011261353d57600080fd5b8135602061354a82613509565b60405161355782826134dd565b83815260059390931b850182019282810191508684111561357757600080fd5b8286015b84811015613592578035835291830191830161357b565b509695505050505050565b600082601f8301126135ae57600080fd5b81356001600160401b038111156135c7576135c76134c7565b6040516135de601f8301601f1916602001826134dd565b8181528460208386010111156135f357600080fd5b816020850160208301376000918101602001919091529392505050565b600080600080600060a0868803121561362857600080fd5b61363186613355565b945061363f60208701613355565b935060408601356001600160401b038082111561365b57600080fd5b61366789838a0161352c565b9450606088013591508082111561367d57600080fd5b61368989838a0161352c565b9350608088013591508082111561369f57600080fd5b506136ac8882890161359d565b9150509295509295909350565b600080604083850312156136cc57600080fd5b823591506136dc60208401613355565b90509250929050565b6000602082840312156136f757600080fd5b61305882613355565b6000806040838503121561371357600080fd5b82356001600160401b038082111561372a57600080fd5b818501915085601f83011261373e57600080fd5b8135602061374b82613509565b60405161375882826134dd565b83815260059390931b850182019282810191508984111561377857600080fd5b948201945b8386101561379d5761378e86613355565b8252948201949082019061377d565b965050860135925050808211156137b357600080fd5b506137c08582860161352c565b9150509250929050565b600081518084526020808501945080840160005b838110156137fa578151875295820195908201906001016137de565b509495945050505050565b60208152600061305860208301846137ca565b6000806040838503121561382b57600080fd5b61383483613355565b915060208301356001600160401b0381111561384f57600080fd5b6137c08582860161359d565b60008060006060848603121561387057600080fd5b61387984613355565b925060208401356001600160401b038082111561389557600080fd5b6138a18783880161352c565b935060408601359150808211156138b757600080fd5b506138c48682870161352c565b9150509250925092565b600080604083850312156138e157600080fd5b8235915060208301356001600160401b0381111561384f57600080fd5b6000806000806080858703121561391457600080fd5b8435935061392460208601613355565b925061393260408601613355565b915060608501356001600160401b0381111561394d57600080fd5b6139598782880161359d565b91505092959194509250565b6000806000806080858703121561397b57600080fd5b843593506020850135925061393260408601613355565b600080604083850312156139a557600080fd5b6139ae83613355565b9150602083013580151581146139c357600080fd5b809150509250929050565b60006020808301818452808551808352604092508286019150828160051b87010184880160005b83811015613a3657888303603f1901855281518051878552613a198886018261340b565b9189015194890194909452948701949250908601906001016139f5565b509098975050505050505050565b60008060408385031215613a5757600080fd5b50508035926020909101359150565b60006020808301818452808551808352604092508286019150828160051b87010184880160005b83811015613a3657603f19898403018552815160a0613aad858351613460565b81890151858a015287820151888601526060808301516001600160a01b031690860152608091820151918501819052613ae88186018361340b565b968901969450505090860190600101613a8d565b60008060408385031215613b0f57600080fd5b613b1883613355565b91506136dc60208401613355565b600080600080600060a08688031215613b3e57600080fd5b613b4786613355565b9450613b5560208701613355565b9350604086013592506060860135915060808601356001600160401b03811115613b7e57600080fd5b6136ac8882890161359d565b600080600060608486031215613b9f57600080fd5b613ba884613355565b95602085013595506040909401359392505050565b60008351613bcf8184602088016133e7565b835190830190613be38183602088016133e7565b01949350505050565b634e487b7160e01b600052601160045260246000fd5b8181038181111561082457610824613bec565b600060018201613c2757613c27613bec565b5060010190565b600181811c90821680613c4257607f821691505b602082108103611a4b57634e487b7160e01b600052602260045260246000fd5b6020808252602e908201527f455243313135353a2063616c6c6572206973206e6f7420746f6b656e206f776e60408201526d195c881bdc88185c1c1c9bdd995960921b606082015260800190565b6020808252602c908201527f46756e6374696f6e206d7573742062652063616c6c6564207468726f7567682060408201526b19195b1959d85d1958d85b1b60a21b606082015260800190565b6020808252602c908201527f46756e6374696f6e206d7573742062652063616c6c6564207468726f7567682060408201526b6163746976652070726f787960a01b606082015260800190565b634e487b7160e01b600052603260045260246000fd5b601f821115610b7857600081815260208120601f850160051c81016020861015613d855750805b601f850160051c820191505b81811015611f6357828155600101613d91565b81516001600160401b03811115613dbd57613dbd6134c7565b613dd181613dcb8454613c2e565b84613d5e565b602080601f831160018114613e065760008415613dee5750858301515b600019600386901b1c1916600185901b178555611f63565b600085815260208120601f198616915b82811015613e3557888601518255948401946001909101908401613e16565b5085821015613e535787850151600019600388901b60f8161c191681555b5050505050600190811b01905550565b8082018082111561082457610824613bec565b808202811582820484141761082457610824613bec565b60208082526028908201527f455243313135353a2069647320616e6420616d6f756e7473206c656e677468206040820152670dad2e6dac2e8c6d60c31b606082015260800190565b60208082526025908201527f455243313135353a207472616e7366657220746f20746865207a65726f206164604082015264647265737360d81b606082015260800190565b6020808252602a908201527f455243313135353a20696e73756666696369656e742062616c616e636520666f60408201526939103a3930b739b332b960b11b606082015260800190565b604081526000613f7760408301856137ca565b8281036020840152613f8981856137ca565b95945050505050565b600060208284031215613fa457600080fd5b5051919050565b60208082526023908201527f455243313135353a206275726e2066726f6d20746865207a65726f206164647260408201526265737360e81b606082015260800190565b60208082526024908201527f455243313135353a206275726e20616d6f756e7420657863656564732062616c604082015263616e636560e01b606082015260800190565b6020808252602b908201527f496e697469616c697a61626c653a20636f6e7472616374206973206e6f74206960408201526a6e697469616c697a696e6760a81b606082015260800190565b7f416363657373436f6e74726f6c3a206163636f756e74200000000000000000008152600083516140b58160178501602088016133e7565b7001034b99036b4b9b9b4b733903937b6329607d1b60179184019182015283516140e68160288401602088016133e7565b01602801949350505050565b6001600160a01b0386811682528516602082015260a06040820181905260009061411e908301866137ca565b828103606084015261413081866137ca565b90508281036080840152614144818561340b565b98975050505050505050565b60006020828403121561416257600080fd5b81516130588161339b565b600060033d1115610fb25760046000803e5060005160e01c90565b600060443d10156141965790565b6040516003193d81016004833e81513d6001600160401b0381602484011181841117156141c557505050505090565b82850191508151818111156141dd5750505050505090565b843d87010160208285010111156141f75750505050505090565b614206602082860101876134dd565b509095945050505050565b60208082526028908201527f455243313135353a204552433131353552656365697665722072656a656374656040820152676420746f6b656e7360c01b606082015260800190565b6001600160a01b03868116825285166020820152604081018490526060810183905260a0608082018190526000906134bc9083018461340b565b6000816142a2576142a2613bec565b506000190190565b600082516142bc8184602087016133e7565b919091019291505056fe360894a13ba1a3210667c828492db98dca3e2076cc3735a920a3ca505d382bbc416464726573733a206c6f772d6c6576656c2064656c65676174652063616c6c206661696c656468747470733a2f2f72616461726c61756e63682e6170702f6170692f6d65746164617461a26469706673582212204bd725f7b4995e1b3e9032086cd82e55c28589085212a84a1c5b091191c40f6a64736f6c63430008130033",
  "linkReferences": {},
  "deployedLinkReferences": {}
}