{
  "_format": "hh-sol-artifact-1",
  "contractName": "Editions",
  "sourceName": "src/Editions/Editions.sol",
  "abi": [
    {
      "inputs": [],
      "stateMutability": "nonpayable",
      "type": "constructor"
    },
    {
      "inputs": [],
      "name": "EditionFeeExceedsMaximumFee",
      "type": "error"
    },
    {
      "inputs": [],
      "name": "EditionNotCreated",
      "type": "error"
    },
    {
      "inputs": [],
      "name": "EditionNotEnoughBalance",
      "type": "error"
    },
    {
      "inputs": [],
      "name": "EditionNotLaunched",
      "type": "error"
    },
    {
      "inputs": [],
      "name": "EditionNotStopped",
      "type": "error"
    },
    {
      "inputs": [],
      "name": "NotCorrectUser",
      "type": "error"
    },
    {
      "inputs": [],
      "name": "NotEditionOwner",
      "type": "error"
    },
    {
      "inputs": [],
      "name": "NotEnoughFees",
      "type": "error"
    },
    {
      "inputs": [],
      "name": "NotEnoughFunds",
      "type": "error"
    },
    {
      "inputs": [],
      "name": "TransactionFailed",
      "type": "error"
    },
    {
      "anonymous": false,
      "inputs": [
        {
          "indexed": false,
          "internalType": "address",
          "name": "previousAdmin",
          "type": "address"
        },
        {
          "indexed": false,
          "internalType": "address",
          "name": "newAdmin",
          "type": "address"
        }
      ],
      "name": "AdminChanged",
      "type": "event"
    },
    {
      "anonymous": false,
      "inputs": [
        {
          "indexed": true,
          "internalType": "address",
          "name": "account",
          "type": "address"
        },
        {
          "indexed": true,
          "internalType": "address",
          "name": "operator",
          "type": "address"
        },
        {
          "indexed": false,
          "internalType": "bool",
          "name": "approved",
          "type": "bool"
        }
      ],
      "name": "ApprovalForAll",
      "type": "event"
    },
    {
      "anonymous": false,
      "inputs": [
        {
          "indexed": true,
          "internalType": "address",
          "name": "beacon",
          "type": "address"
        }
      ],
      "name": "BeaconUpgraded",
      "type": "event"
    },
    {
      "anonymous": false,
      "inputs": [
        {
          "indexed": false,
          "internalType": "uint256",
          "name": "editionId",
          "type": "uint256"
        }
      ],
      "name": "EditionApproved",
      "type": "event"
    },
    {
      "anonymous": false,
      "inputs": [
        {
          "indexed": false,
          "internalType": "uint256",
          "name": "editionId",
          "type": "uint256"
        },
        {
          "indexed": false,
          "internalType": "uint256",
          "name": "amount",
          "type": "uint256"
        },
        {
          "indexed": false,
          "internalType": "address",
          "name": "owner",
          "type": "address"
        }
      ],
      "name": "EditionBalanceWithdrawn",
      "type": "event"
    },
    {
      "anonymous": false,
      "inputs": [
        {
          "indexed": true,
          "internalType": "uint256",
          "name": "editionId",
          "type": "uint256"
        },
        {
          "indexed": true,
          "internalType": "address",
          "name": "believer",
          "type": "address"
        }
      ],
      "name": "EditionBeliefRemoved",
      "type": "event"
    },
    {
      "anonymous": false,
      "inputs": [
        {
          "indexed": true,
          "internalType": "uint256",
          "name": "editionId",
          "type": "uint256"
        },
        {
          "indexed": true,
          "internalType": "address",
          "name": "believer",
          "type": "address"
        },
        {
          "indexed": false,
          "internalType": "string",
          "name": "tags",
          "type": "string"
        }
      ],
      "name": "EditionBelieved",
      "type": "event"
    },
    {
      "anonymous": false,
      "inputs": [
        {
          "indexed": false,
          "internalType": "uint256",
          "name": "editionId",
          "type": "uint256"
        },
        {
          "indexed": false,
          "internalType": "uint256",
          "name": "fee",
          "type": "uint256"
        },
        {
          "indexed": false,
          "internalType": "uint96",
          "name": "briefId",
          "type": "uint96"
        },
        {
          "indexed": false,
          "internalType": "address",
          "name": "owner",
          "type": "address"
        }
      ],
      "name": "EditionCreated",
      "type": "event"
    },
    {
      "anonymous": false,
      "inputs": [
        {
          "indexed": false,
          "internalType": "uint256",
          "name": "editionId",
          "type": "uint256"
        }
      ],
      "name": "EditionResumed",
      "type": "event"
    },
    {
      "anonymous": false,
      "inputs": [
        {
          "indexed": false,
          "internalType": "uint256",
          "name": "editionId",
          "type": "uint256"
        }
      ],
      "name": "EditionStopped",
      "type": "event"
    },
    {
      "anonymous": false,
      "inputs": [
        {
          "indexed": false,
          "internalType": "uint8",
          "name": "version",
          "type": "uint8"
        }
      ],
      "name": "Initialized",
      "type": "event"
    },
    {
      "anonymous": false,
      "inputs": [
        {
          "indexed": false,
          "internalType": "address",
          "name": "account",
          "type": "address"
        }
      ],
      "name": "Paused",
      "type": "event"
    },
    {
      "anonymous": false,
      "inputs": [
        {
          "indexed": true,
          "internalType": "bytes32",
          "name": "role",
          "type": "bytes32"
        },
        {
          "indexed": true,
          "internalType": "bytes32",
          "name": "previousAdminRole",
          "type": "bytes32"
        },
        {
          "indexed": true,
          "internalType": "bytes32",
          "name": "newAdminRole",
          "type": "bytes32"
        }
      ],
      "name": "RoleAdminChanged",
      "type": "event"
    },
    {
      "anonymous": false,
      "inputs": [
        {
          "indexed": true,
          "internalType": "bytes32",
          "name": "role",
          "type": "bytes32"
        },
        {
          "indexed": true,
          "internalType": "address",
          "name": "account",
          "type": "address"
        },
        {
          "indexed": true,
          "internalType": "address",
          "name": "sender",
          "type": "address"
        }
      ],
      "name": "RoleGranted",
      "type": "event"
    },
    {
      "anonymous": false,
      "inputs": [
        {
          "indexed": true,
          "internalType": "bytes32",
          "name": "role",
          "type": "bytes32"
        },
        {
          "indexed": true,
          "internalType": "address",
          "name": "account",
          "type": "address"
        },
        {
          "indexed": true,
          "internalType": "address",
          "name": "sender",
          "type": "address"
        }
      ],
      "name": "RoleRevoked",
      "type": "event"
    },
    {
      "anonymous": false,
      "inputs": [
        {
          "indexed": true,
          "internalType": "address",
          "name": "operator",
          "type": "address"
        },
        {
          "indexed": true,
          "internalType": "address",
          "name": "from",
          "type": "address"
        },
        {
          "indexed": true,
          "internalType": "address",
          "name": "to",
          "type": "address"
        },
        {
          "indexed": false,
          "internalType": "uint256[]",
          "name": "ids",
          "type": "uint256[]"
        },
        {
          "indexed": false,
          "internalType": "uint256[]",
          "name": "values",
          "type": "uint256[]"
        }
      ],
      "name": "TransferBatch",
      "type": "event"
    },
    {
      "anonymous": false,
      "inputs": [
        {
          "indexed": true,
          "internalType": "address",
          "name": "operator",
          "type": "address"
        },
        {
          "indexed": true,
          "internalType": "address",
          "name": "from",
          "type": "address"
        },
        {
          "indexed": true,
          "internalType": "address",
          "name": "to",
          "type": "address"
        },
        {
          "indexed": false,
          "internalType": "uint256",
          "name": "id",
          "type": "uint256"
        },
        {
          "indexed": false,
          "internalType": "uint256",
          "name": "value",
          "type": "uint256"
        }
      ],
      "name": "TransferSingle",
      "type": "event"
    },
    {
      "anonymous": false,
      "inputs": [
        {
          "indexed": false,
          "internalType": "string",
          "name": "value",
          "type": "string"
        },
        {
          "indexed": true,
          "internalType": "uint256",
          "name": "id",
          "type": "uint256"
        }
      ],
      "name": "URI",
      "type": "event"
    },
    {
      "anonymous": false,
      "inputs": [
        {
          "indexed": false,
          "internalType": "address",
          "name": "account",
          "type": "address"
        }
      ],
      "name": "Unpaused",
      "type": "event"
    },
    {
      "anonymous": false,
      "inputs": [
        {
          "indexed": true,
          "internalType": "address",
          "name": "implementation",
          "type": "address"
        }
      ],
      "name": "Upgraded",
      "type": "event"
    },
    {
      "stateMutability": "payable",
      "type": "fallback"
    },
    {
      "inputs": [],
      "name": "DEFAULT_ADMIN_ROLE",
      "outputs": [
        {
          "internalType": "bytes32",
          "name": "",
          "type": "bytes32"
        }
      ],
      "stateMutability": "view",
      "type": "function"
    },
    {
      "inputs": [
        {
          "internalType": "uint256",
          "name": "editionId",
          "type": "uint256"
        }
      ],
      "name": "approveEdition",
      "outputs": [],
      "stateMutability": "nonpayable",
      "type": "function"
    },
    {
      "inputs": [
        {
          "internalType": "address",
          "name": "account",
          "type": "address"
        },
        {
          "internalType": "uint256",
          "name": "id",
          "type": "uint256"
        }
      ],
      "name": "balanceOf",
      "outputs": [
        {
          "internalType": "uint256",
          "name": "",
          "type": "uint256"
        }
      ],
      "stateMutability": "view",
      "type": "function"
    },
    {
      "inputs": [
        {
          "internalType": "address[]",
          "name": "accounts",
          "type": "address[]"
        },
        {
          "internalType": "uint256[]",
          "name": "ids",
          "type": "uint256[]"
        }
      ],
      "name": "balanceOfBatch",
      "outputs": [
        {
          "internalType": "uint256[]",
          "name": "",
          "type": "uint256[]"
        }
      ],
      "stateMutability": "view",
      "type": "function"
    },
    {
      "inputs": [
        {
          "internalType": "uint256",
          "name": "editionId",
          "type": "uint256"
        },
        {
          "internalType": "string",
          "name": "tags",
          "type": "string"
        }
      ],
      "name": "believeProject",
      "outputs": [],
      "stateMutability": "nonpayable",
      "type": "function"
    },
    {
      "inputs": [
        {
          "internalType": "address",
          "name": "account",
          "type": "address"
        },
        {
          "internalType": "uint256",
          "name": "id",
          "type": "uint256"
        },
        {
          "internalType": "uint256",
          "name": "value",
          "type": "uint256"
        }
      ],
      "name": "burn",
      "outputs": [],
      "stateMutability": "nonpayable",
      "type": "function"
    },
    {
      "inputs": [
        {
          "internalType": "address",
          "name": "account",
          "type": "address"
        },
        {
          "internalType": "uint256[]",
          "name": "ids",
          "type": "uint256[]"
        },
        {
          "internalType": "uint256[]",
          "name": "values",
          "type": "uint256[]"
        }
      ],
      "name": "burnBatch",
      "outputs": [],
      "stateMutability": "nonpayable",
      "type": "function"
    },
    {
      "inputs": [
        {
          "internalType": "uint256",
          "name": "fee",
          "type": "uint256"
        },
        {
          "internalType": "address",
          "name": "owner",
          "type": "address"
        },
        {
          "internalType": "address",
          "name": "payer",
          "type": "address"
        },
        {
          "internalType": "uint96",
          "name": "id",
          "type": "uint96"
        },
        {
          "internalType": "uint96",
          "name": "briefId",
          "type": "uint96"
        }
      ],
      "name": "createEdition",
      "outputs": [
        {
          "internalType": "uint256",
          "name": "editionId",
          "type": "uint256"
        }
      ],
      "stateMutability": "nonpayable",
      "type": "function"
    },
    {
      "inputs": [],
      "name": "editionCounter",
      "outputs": [
        {
          "internalType": "uint256",
          "name": "",
          "type": "uint256"
        }
      ],
      "stateMutability": "view",
      "type": "function"
    },
    {
      "inputs": [
        {
          "internalType": "uint256",
          "name": "",
          "type": "uint256"
        }
      ],
      "name": "editions",
      "outputs": [
        {
          "internalType": "enum EditionsStructs.EditionStatus",
          "name": "status",
          "type": "uint8"
        },
        {
          "internalType": "uint256",
          "name": "fee",
          "type": "uint256"
        },
        {
          "internalType": "uint256",
          "name": "balance",
          "type": "uint256"
        },
        {
          "internalType": "address",
          "name": "owner",
          "type": "address"
        },
        {
          "internalType": "uint96",
          "name": "id",
          "type": "uint96"
        },
        {
          "internalType": "uint96",
          "name": "briefId",
          "type": "uint96"
        }
      ],
      "stateMutability": "view",
      "type": "function"
    },
    {
      "inputs": [
        {
          "internalType": "uint256",
          "name": "id",
          "type": "uint256"
        }
      ],
      "name": "exists",
      "outputs": [
        {
          "internalType": "bool",
          "name": "",
          "type": "bool"
        }
      ],
      "stateMutability": "view",
      "type": "function"
    },
    {
      "inputs": [
        {
          "internalType": "address",
          "name": "owner",
          "type": "address"
        }
      ],
      "name": "getBalances",
      "outputs": [
        {
          "components": [
            {
              "internalType": "uint96",
              "name": "id",
              "type": "uint96"
            },
            {
              "internalType": "uint256",
              "name": "amount",
              "type": "uint256"
            }
          ],
          "internalType": "struct EditionsStructs.EditionIdWithAmount[]",
          "name": "",
          "type": "tuple[]"
        }
      ],
      "stateMutability": "view",
      "type": "function"
    },
    {
      "inputs": [],
      "name": "getEditions",
      "outputs": [
        {
          "components": [
            {
              "internalType": "enum EditionsStructs.EditionStatus",
              "name": "status",
              "type": "uint8"
            },
            {
              "internalType": "uint256",
              "name": "fee",
              "type": "uint256"
            },
            {
              "internalType": "uint256",
              "name": "balance",
              "type": "uint256"
            },
            {
              "internalType": "address",
              "name": "owner",
              "type": "address"
            },
            {
              "internalType": "uint96",
              "name": "id",
              "type": "uint96"
            },
            {
              "internalType": "uint96",
              "name": "briefId",
              "type": "uint96"
            }
          ],
          "internalType": "struct EditionsStructs.Edition[]",
          "name": "",
          "type": "tuple[]"
        }
      ],
      "stateMutability": "view",
      "type": "function"
    },
    {
      "inputs": [
        {
          "internalType": "bytes32",
          "name": "role",
          "type": "bytes32"
        }
      ],
      "name": "getRoleAdmin",
      "outputs": [
        {
          "internalType": "bytes32",
          "name": "",
          "type": "bytes32"
        }
      ],
      "stateMutability": "view",
      "type": "function"
    },
    {
      "inputs": [
        {
          "internalType": "bytes32",
          "name": "role",
          "type": "bytes32"
        },
        {
          "internalType": "address",
          "name": "account",
          "type": "address"
        }
      ],
      "name": "grantRole",
      "outputs": [],
      "stateMutability": "nonpayable",
      "type": "function"
    },
    {
      "inputs": [
        {
          "internalType": "bytes32",
          "name": "role",
          "type": "bytes32"
        },
        {
          "internalType": "address",
          "name": "account",
          "type": "address"
        }
      ],
      "name": "hasRole",
      "outputs": [
        {
          "internalType": "bool",
          "name": "",
          "type": "bool"
        }
      ],
      "stateMutability": "view",
      "type": "function"
    },
    {
      "inputs": [],
      "name": "initialize",
      "outputs": [],
      "stateMutability": "nonpayable",
      "type": "function"
    },
    {
      "inputs": [
        {
          "internalType": "address",
          "name": "account",
          "type": "address"
        },
        {
          "internalType": "address",
          "name": "operator",
          "type": "address"
        }
      ],
      "name": "isApprovedForAll",
      "outputs": [
        {
          "internalType": "bool",
          "name": "",
          "type": "bool"
        }
      ],
      "stateMutability": "view",
      "type": "function"
    },
    {
      "inputs": [],
      "name": "maximumEditionFee",
      "outputs": [
        {
          "internalType": "uint256",
          "name": "",
          "type": "uint256"
        }
      ],
      "stateMutability": "view",
      "type": "function"
    },
    {
      "inputs": [
        {
          "internalType": "uint256",
          "name": "editionId",
          "type": "uint256"
        },
        {
          "internalType": "uint256",
          "name": "amount",
          "type": "uint256"
        },
        {
          "internalType": "address",
          "name": "buyer",
          "type": "address"
        },
        {
          "internalType": "bytes",
          "name": "data",
          "type": "bytes"
        }
      ],
      "name": "mintEdition",
      "outputs": [],
      "stateMutability": "payable",
      "type": "function"
    },
    {
      "inputs": [],
      "name": "pause",
      "outputs": [],
      "stateMutability": "nonpayable",
      "type": "function"
    },
    {
      "inputs": [],
      "name": "paused",
      "outputs": [
        {
          "internalType": "bool",
          "name": "",
          "type": "bool"
        }
      ],
      "stateMutability": "view",
      "type": "function"
    },
    {
      "inputs": [],
      "name": "protocolFee",
      "outputs": [
        {
          "internalType": "uint256",
          "name": "",
          "type": "uint256"
        }
      ],
      "stateMutability": "view",
      "type": "function"
    },
    {
      "inputs": [],
      "name": "proxiableUUID",
      "outputs": [
        {
          "internalType": "bytes32",
          "name": "",
          "type": "bytes32"
        }
      ],
      "stateMutability": "view",
      "type": "function"
    },
    {
      "inputs": [
        {
          "internalType": "uint256",
          "name": "editionId",
          "type": "uint256"
        }
      ],
      "name": "removeBelief",
      "outputs": [],
      "stateMutability": "nonpayable",
      "type": "function"
    },
    {
      "inputs": [
        {
          "internalType": "bytes32",
          "name": "role",
          "type": "bytes32"
        },
        {
          "internalType": "address",
          "name": "account",
          "type": "address"
        }
      ],
      "name": "renounceRole",
      "outputs": [],
      "stateMutability": "nonpayable",
      "type": "function"
    },
    {
      "inputs": [
        {
          "internalType": "uint256",
          "name": "editionId",
          "type": "uint256"
        }
      ],
      "name": "resumeEdition",
      "outputs": [],
      "stateMutability": "nonpayable",
      "type": "function"
    },
    {
      "inputs": [
        {
          "internalType": "bytes32",
          "name": "role",
          "type": "bytes32"
        },
        {
          "internalType": "address",
          "name": "account",
          "type": "address"
        }
      ],
      "name": "revokeRole",
      "outputs": [],
      "stateMutability": "nonpayable",
      "type": "function"
    },
    {
      "inputs": [
        {
          "internalType": "address",
          "name": "from",
          "type": "address"
        },
        {
          "internalType": "address",
          "name": "to",
          "type": "address"
        },
        {
          "internalType": "uint256[]",
          "name": "ids",
          "type": "uint256[]"
        },
        {
          "internalType": "uint256[]",
          "name": "amounts",
          "type": "uint256[]"
        },
        {
          "internalType": "bytes",
          "name": "data",
          "type": "bytes"
        }
      ],
      "name": "safeBatchTransferFrom",
      "outputs": [],
      "stateMutability": "nonpayable",
      "type": "function"
    },
    {
      "inputs": [
        {
          "internalType": "address",
          "name": "from",
          "type": "address"
        },
        {
          "internalType": "address",
          "name": "to",
          "type": "address"
        },
        {
          "internalType": "uint256",
          "name": "id",
          "type": "uint256"
        },
        {
          "internalType": "uint256",
          "name": "amount",
          "type": "uint256"
        },
        {
          "internalType": "bytes",
          "name": "data",
          "type": "bytes"
        }
      ],
      "name": "safeTransferFrom",
      "outputs": [],
      "stateMutability": "nonpayable",
      "type": "function"
    },
    {
      "inputs": [
        {
          "internalType": "address",
          "name": "operator",
          "type": "address"
        },
        {
          "internalType": "bool",
          "name": "approved",
          "type": "bool"
        }
      ],
      "name": "setApprovalForAll",
      "outputs": [],
      "stateMutability": "nonpayable",
      "type": "function"
    },
    {
      "inputs": [
        {
          "internalType": "uint256",
          "name": "editionId",
          "type": "uint256"
        }
      ],
      "name": "stopEdition",
      "outputs": [],
      "stateMutability": "nonpayable",
      "type": "function"
    },
    {
      "inputs": [
        {
          "internalType": "bytes4",
          "name": "interfaceId",
          "type": "bytes4"
        }
      ],
      "name": "supportsInterface",
      "outputs": [
        {
          "internalType": "bool",
          "name": "",
          "type": "bool"
        }
      ],
      "stateMutability": "view",
      "type": "function"
    },
    {
      "inputs": [
        {
          "internalType": "uint256",
          "name": "id",
          "type": "uint256"
        }
      ],
      "name": "totalSupply",
      "outputs": [
        {
          "internalType": "uint256",
          "name": "",
          "type": "uint256"
        }
      ],
      "stateMutability": "view",
      "type": "function"
    },
    {
      "inputs": [],
      "name": "unpause",
      "outputs": [],
      "stateMutability": "nonpayable",
      "type": "function"
    },
    {
      "inputs": [
        {
          "internalType": "uint256",
          "name": "editionId",
          "type": "uint256"
        },
        {
          "internalType": "uint96",
          "name": "id",
          "type": "uint96"
        },
        {
          "internalType": "uint96",
          "name": "briefId",
          "type": "uint96"
        }
      ],
      "name": "updateEdition",
      "outputs": [],
      "stateMutability": "nonpayable",
      "type": "function"
    },
    {
      "inputs": [
        {
          "internalType": "address",
          "name": "newImplementation",
          "type": "address"
        }
      ],
      "name": "upgradeTo",
      "outputs": [],
      "stateMutability": "nonpayable",
      "type": "function"
    },
    {
      "inputs": [
        {
          "internalType": "address",
          "name": "newImplementation",
          "type": "address"
        },
        {
          "internalType": "bytes",
          "name": "data",
          "type": "bytes"
        }
      ],
      "name": "upgradeToAndCall",
      "outputs": [],
      "stateMutability": "payable",
      "type": "function"
    },
    {
      "inputs": [
        {
          "internalType": "uint256",
          "name": "",
          "type": "uint256"
        }
      ],
      "name": "uri",
      "outputs": [
        {
          "internalType": "string",
          "name": "",
          "type": "string"
        }
      ],
      "stateMutability": "view",
      "type": "function"
    },
    {
      "inputs": [
        {
          "internalType": "uint256",
          "name": "editionId",
          "type": "uint256"
        },
        {
          "internalType": "uint256",
          "name": "amount",
          "type": "uint256"
        }
      ],
      "name": "withdrawEditionBalance",
      "outputs": [],
      "stateMutability": "nonpayable",
      "type": "function"
    },
    {
      "inputs": [
        {
          "internalType": "uint256",
          "name": "amount",
          "type": "uint256"
        }
      ],
      "name": "withdrawFunds",
      "outputs": [],
      "stateMutability": "nonpayable",
      "type": "function"
    },
    {
      "stateMutability": "payable",
      "type": "receive"
    }
  ],
  "bytecode": "0x60a0604052306080523480156200001557600080fd5b506200002062000026565b620000e7565b600054610100900460ff1615620000935760405162461bcd60e51b815260206004820152602760248201527f496e697469616c697a61626c653a20636f6e747261637420697320696e697469604482015266616c697a696e6760c81b606482015260840160405180910390fd5b60005460ff90811614620000e5576000805460ff191660ff9081179091556040519081527f7f26b83ff96e1f2b6a682f133852f6798a09c465da95921460cefb38474024989060200160405180910390a15b565b6080516141476200011f60003960008181610bef01528181610c2f01528181610ec701528181610f070152610f9601526141476000f3fe6080604052600436106102315760003560e01c80637357628c1161012d578063bd85b039116100b0578063df6efc6c11610077578063df6efc6c146106fd578063e985e9c51461071f578063f242432a14610768578063f5298aca14610788578063f8c1b2fd146107a8578063fc74efa2146107c857005b8063bd85b0391461064b578063c6fbb71214610679578063c84aae1714610690578063d547741f146106bd578063d667c9ce146106dd57005b8063940123da116100f4578063940123da146105cc578063a217fddf146105df578063a22cb465146105f4578063a2f89fb614610614578063b0e21e8a1461063457005b80637357628c14610542578063790bafc6146105625780638129fc1c146105825780638456cb591461059757806391d14854146105ac57005b80633659cfe6116101b55780634f558e791161017c5780634f558e79146104ae57806352d1902d146104de5780635c975abb146104f35780636b20c4541461050b5780636b5cb7891461052b57005b80633659cfe6146104195780633f4ba83a146104395780634462486f1461044e5780634e1273f41461046e5780634f1ef2861461049b57005b8063248a9ca3116101f9578063248a9ca31461030a578063279c806e1461033a5780632eb2c2d6146103b95780632f2ff15d146103d957806336568abe146103f957005b8062fdd58e1461023a57806301ffc9a71461026d5780630a579eca1461029d5780630e89341c146102bd578063155dd5ee146102ea57005b3661023857005b005b34801561024657600080fd5b5061025a610255366004613116565b6107e8565b6040519081526020015b60405180910390f35b34801561027957600080fd5b5061028d610288366004613156565b610883565b6040519015158152602001610264565b3480156102a957600080fd5b506102386102b8366004613173565b61088e565b3480156102c957600080fd5b506102dd6102d8366004613173565b610970565b60405161026491906131dc565b3480156102f657600080fd5b50610238610305366004613173565b610a04565b34801561031657600080fd5b5061025a610325366004613173565b60009081526097602052604090206001015490565b34801561034657600080fd5b506103a7610355366004613173565b6101c4602052600090815260409020805460018201546002830154600384015460049094015460ff90931693919290916001600160a01b038116916001600160601b03600160a01b9092048216911686565b60405161026496959493929190613227565b3480156103c557600080fd5b506102386103d43660046133c5565b610b01565b3480156103e557600080fd5b506102386103f436600461346e565b610b4d565b34801561040557600080fd5b5061023861041436600461346e565b610b67565b34801561042557600080fd5b5061023861043436600461349a565b610be5565b34801561044557600080fd5b50610238610cc4565b34801561045a57600080fd5b506102386104693660046134cc565b610cf6565b34801561047a57600080fd5b5061048e610489366004613508565b610d94565b604051610264919061360d565b6102386104a9366004613620565b610ebd565b3480156104ba57600080fd5b5061028d6104c9366004613173565b600090815261012d6020526040902054151590565b3480156104ea57600080fd5b5061025a610f89565b3480156104ff57600080fd5b5060c95460ff1661028d565b34801561051757600080fd5b50610238610526366004613663565b61103d565b34801561053757600080fd5b5061025a6101c65481565b34801561054e57600080fd5b5061023861055d366004613173565b611080565b34801561056e57600080fd5b5061023861057d3660046136d6565b611121565b34801561058e57600080fd5b506102386111d6565b3480156105a357600080fd5b506102386113a1565b3480156105b857600080fd5b5061028d6105c736600461346e565b6113d3565b6102386105da366004613726565b6113fe565b3480156105eb57600080fd5b5061025a600081565b34801561060057600080fd5b5061023861060f366004613786565b6114df565b34801561062057600080fd5b5061025a61062f3660046137c2565b6114ea565b34801561064057600080fd5b5061025a6101c35481565b34801561065757600080fd5b5061025a610666366004613173565b600090815261012d602052604090205490565b34801561068557600080fd5b5061025a6101c55481565b34801561069c57600080fd5b506106b06106ab36600461349a565b611667565b6040516102649190613820565b3480156106c957600080fd5b506102386106d836600461346e565b611752565b3480156106e957600080fd5b506102386106f8366004613878565b611777565b34801561070957600080fd5b506107126118b9565b604051610264919061389a565b34801561072b57600080fd5b5061028d61073a366004613924565b6001600160a01b03918216600090815260666020908152604080832093909416825291909152205460ff1690565b34801561077457600080fd5b5061023861078336600461394e565b611a14565b34801561079457600080fd5b506102386107a33660046139b2565b611a59565b3480156107b457600080fd5b506102386107c3366004613173565b611a9c565b3480156107d457600080fd5b506102386107e3366004613173565b611b31565b60006001600160a01b0383166108585760405162461bcd60e51b815260206004820152602a60248201527f455243313135353a2061646472657373207a65726f206973206e6f742061207660448201526930b634b21037bbb732b960b11b60648201526084015b60405180910390fd5b5060008181526065602090815260408083206001600160a01b03861684529091529020545b92915050565b600061087d82611c0c565b60008181526101c460205260409020600301546001600160a01b03163314806108bd57506108bd6000336113d3565b6108da5760405163388f811f60e01b815260040160405180910390fd5b600260008281526101c4602052604090205460ff166003811115610900576109006131ef565b1461091e57604051631f0fb6fd60e11b815260040160405180910390fd5b60008181526101c46020908152604091829020805460ff1916600317905590518281527f591913f977ab242c5871f116f36be231ff67df5e8e0bac1efd91fa8a723aca2b91015b60405180910390a150565b60606067805461097f906139e5565b80601f01602080910402602001604051908101604052809291908181526020018280546109ab906139e5565b80156109f85780601f106109cd576101008083540402835291602001916109f8565b820191906000526020600020905b8154815290600101906020018083116109db57829003601f168201915b50505050509050919050565b6000610a0f81611c31565b47821115610a3057604051631036b5ad60e31b815260040160405180910390fd5b4760005b6101c554811015610a915760008181526101c46020526040902060020154610a5c9083613a2f565b915083821015610a7f5760405163156bbc5b60e01b815260040160405180910390fd5b80610a8981613a42565b915050610a34565b50604051600090339085908381818185875af1925050503d8060008114610ad4576040519150601f19603f3d011682016040523d82523d6000602084013e610ad9565b606091505b5050905080610afb576040516317f2c34560e31b815260040160405180910390fd5b50505050565b6001600160a01b038516331480610b1d5750610b1d853361073a565b610b395760405162461bcd60e51b815260040161084f90613a5b565b610b468585858585611c3b565b5050505050565b6000610b5881611c31565b610b628383611de8565b505050565b6001600160a01b0381163314610bd75760405162461bcd60e51b815260206004820152602f60248201527f416363657373436f6e74726f6c3a2063616e206f6e6c792072656e6f756e636560448201526e103937b632b9903337b91039b2b63360891b606482015260840161084f565b610be18282611e6e565b5050565b6001600160a01b037f0000000000000000000000000000000000000000000000000000000000000000163003610c2d5760405162461bcd60e51b815260040161084f90613aa9565b7f00000000000000000000000000000000000000000000000000000000000000006001600160a01b0316610c766000805160206140cb833981519152546001600160a01b031690565b6001600160a01b031614610c9c5760405162461bcd60e51b815260040161084f90613af5565b610ca581611ed5565b60408051600080825260208201909252610cc191839190611eff565b50565b7f65d7a28e3265b37a6474929f336521b332c1681b933f6cb9f3376673440d862a610cee81611c31565b610cc161206a565b6000610d0181611c31565b60008481526101c4602052604081205460ff166003811115610d2557610d256131ef565b03610d435760405163137c9c1f60e31b815260040160405180910390fd5b5060009283526101c460205260409092206003810180546001600160a01b0316600160a01b6001600160601b039485160217905560040180546bffffffffffffffffffffffff191691909216179055565b60608151835114610df95760405162461bcd60e51b815260206004820152602960248201527f455243313135353a206163636f756e747320616e6420696473206c656e677468604482015268040dad2e6dac2e8c6d60bb1b606482015260840161084f565b600083516001600160401b03811115610e1457610e14613272565b604051908082528060200260200182016040528015610e3d578160200160208202803683370190505b50905060005b8451811015610eb557610e88858281518110610e6157610e61613b41565b6020026020010151858381518110610e7b57610e7b613b41565b60200260200101516107e8565b828281518110610e9a57610e9a613b41565b6020908102919091010152610eae81613a42565b9050610e43565b509392505050565b6001600160a01b037f0000000000000000000000000000000000000000000000000000000000000000163003610f055760405162461bcd60e51b815260040161084f90613aa9565b7f00000000000000000000000000000000000000000000000000000000000000006001600160a01b0316610f4e6000805160206140cb833981519152546001600160a01b031690565b6001600160a01b031614610f745760405162461bcd60e51b815260040161084f90613af5565b610f7d82611ed5565b610be182826001611eff565b6000306001600160a01b037f000000000000000000000000000000000000000000000000000000000000000016146110295760405162461bcd60e51b815260206004820152603860248201527f555550535570677261646561626c653a206d757374206e6f742062652063616c60448201527f6c6564207468726f7567682064656c656761746563616c6c0000000000000000606482015260840161084f565b506000805160206140cb8339815191525b90565b6001600160a01b0383163314806110595750611059833361073a565b6110755760405162461bcd60e51b815260040161084f90613a5b565b610b628383836120bc565b600061108b81611c31565b600160008381526101c4602052604090205460ff1660038111156110b1576110b16131ef565b146110cf5760405163137c9c1f60e31b815260040160405180910390fd5b60008281526101c46020908152604091829020805460ff1916600217905590518381527f8f4352ac8b4aefdd2333162306bbe09dd4f4ff6661e89ccc4e4dcced8794e8f7910160405180910390a15050565b600260008381526101c4602052604090205460ff166003811115611147576111476131ef565b146111655760405163137c9c1f60e31b815260040160405180910390fd5b3360009081526101c760209081526040808320600886901c845290915290208054600160ff85161b179055336001600160a01b0316827f710e220a47c8d9e50587c80fe509f5e762149ef672440eff70798204dd70f5eb836040516111ca91906131dc565b60405180910390a35050565b600054610100900460ff16158080156111f65750600054600160ff909116105b806112105750303b158015611210575060005460ff166001145b6112735760405162461bcd60e51b815260206004820152602e60248201527f496e697469616c697a61626c653a20636f6e747261637420697320616c72656160448201526d191e481a5b9a5d1a585b1a5e995960921b606482015260840161084f565b6000805460ff191660011790558015611296576000805461ff0019166101001790555b6112ae6040518060200160405280600081525061225b565b6112b661228b565b6112be6122b4565b6112c661228b565b6112ce61228b565b6112d661228b565b6112e1600033611de8565b61130b7f7804d923f43a17d325d77e781528e0793b2edd9890ab45fc64efd7b4b427744c33611de8565b6113357f65d7a28e3265b37a6474929f336521b332c1681b933f6cb9f3376673440d862a33611de8565b61135f7f189ab7a9244df0848122154315af71fe140f3db0fe014031783b0946b8c9d2e333611de8565b8015610cc1576000805461ff0019169055604051600181527f7f26b83ff96e1f2b6a682f133852f6798a09c465da95921460cefb384740249890602001610965565b7f65d7a28e3265b37a6474929f336521b332c1681b933f6cb9f3376673440d862a6113cb81611c31565b610cc16122e3565b60009182526097602090815260408084206001600160a01b0393909316845291905290205460ff1690565b600260008581526101c4602052604090205460ff166003811115611424576114246131ef565b1461144257604051631f0fb6fd60e11b815260040160405180910390fd5b6101c35460008581526101c46020526040902060010154849161146491613b57565b61146e9190613b6a565b34101561148e57604051631036b5ad60e31b815260040160405180910390fd5b61149a82858584612320565b6101c3546114a89084613b6a565b6114b29034613a2f565b60008581526101c46020526040812060020180549091906114d4908490613b57565b909155505050505050565b610be1338383612445565b60006101c65486111561151057604051630f0c4c5f60e41b815260040160405180910390fd5b506101c5546040805160c0810190915280600181526020808201899052600060408084018290526001600160a01b038a1660608501526001600160601b038089166080860152871660a0909401939093528481526101c49091522081518154829060ff19166001836003811115611589576115896131ef565b02179055506020820151600182015560408201516002820155606082015160808301516001600160a01b03909116600160a01b6001600160601b039283160217600383015560a090920151600490910180546bffffffffffffffffffffffff1916919092161790556101c5805490600061160283613a42565b909155505060408051828152602081018890526001600160601b038416818301526001600160a01b038716606082015290517f2aa47da5461670f8447338efafce9a1c28b72acd7eed3db3876ad9a1b80c7e919181900360800190a195945050505050565b606060006101c5546001600160401b0381111561168657611686613272565b6040519080825280602002602001820160405280156116cb57816020015b60408051808201909152600080825260208201528152602001906001900390816116a45790505b50905060005b6101c55481101561174b5760408051808201825260008381526101c4602090815292902060030154600160a01b90046001600160601b0316815290810161171886846107e8565b81525082828151811061172d5761172d613b41565b6020026020010181905250808061174390613a42565b9150506116d1565b5092915050565b60008281526097602052604090206001015461176d81611c31565b610b628383611e6e565b60008281526101c460205260409020600301546001600160a01b031633146117b25760405163388f811f60e01b815260040160405180910390fd5b60008281526101c460205260409020600201548111156117e557604051637eafab7d60e01b815260040160405180910390fd5b604051600090339083908381818185875af1925050503d8060008114611827576040519150601f19603f3d011682016040523d82523d6000602084013e61182c565b606091505b505090508061184e576040516317f2c34560e31b815260040160405180910390fd5b60008381526101c4602052604081206002018054849290611870908490613a2f565b90915550506040805184815260208101849052338183015290517ff1090e9d5138cd4909542e10e1da576730b07eb291a71a151e63160dde345b949181900360600190a1505050565b606060006101c5546001600160401b038111156118d8576118d8613272565b60405190808252806020026020018201604052801561193857816020015b6040805160c08101825260008082526020808301829052928201819052606082018190526080820181905260a082015282526000199092019101816118f65790505b50905060005b6101c554811015611a0e5760008181526101c4602052604090819020815160c081019092528054829060ff16600381111561197b5761197b6131ef565b600381111561198c5761198c6131ef565b8152600182015460208201526002820154604082015260038201546001600160a01b03811660608301526001600160601b03600160a01b9091048116608083015260049092015490911660a09091015282518390839081106119f0576119f0613b41565b60200260200101819052508080611a0690613a42565b91505061193e565b50919050565b6001600160a01b038516331480611a305750611a30853361073a565b611a4c5760405162461bcd60e51b815260040161084f90613a5b565b610b468585858585612525565b6001600160a01b038316331480611a755750611a75833361073a565b611a915760405162461bcd60e51b815260040161084f90613a5b565b610b62838383612661565b3360009081526101c760209081526040808320600885901c84529182905290912054600160ff84161b16611ae35760405163423f327760e11b815260040160405180910390fd5b600882901c6000908152602082905260408082208054600160ff87161b1916905551339184917fc6c1c3224e50c3c958e39197695bdfe8457ce7c0014d8d51a4d3aa12c5ac18489190a35050565b60008181526101c460205260409020600301546001600160a01b0316331480611b605750611b606000336113d3565b611b7d5760405163388f811f60e01b815260040160405180910390fd5b600360008281526101c4602052604090205460ff166003811115611ba357611ba36131ef565b14611bc15760405163968807a560e01b815260040160405180910390fd5b60008181526101c46020908152604091829020805460ff1916600217905590518281527f63bb17c9645a29322601b4fe88d8f3fa84f32229368294f903084be8f5d813ba9101610965565b60006001600160e01b03198216637965db0b60e01b148061087d575061087d8261277d565b610cc181336127cd565b8151835114611c5c5760405162461bcd60e51b815260040161084f90613b81565b6001600160a01b038416611c825760405162461bcd60e51b815260040161084f90613bc9565b33611c91818787878787612826565b60005b8451811015611d7a576000858281518110611cb157611cb1613b41565b602002602001015190506000858381518110611ccf57611ccf613b41565b60209081029190910181015160008481526065835260408082206001600160a01b038e168352909352919091205490915081811015611d205760405162461bcd60e51b815260040161084f90613c0e565b60008381526065602090815260408083206001600160a01b038e8116855292528083208585039055908b16825281208054849290611d5f908490613b57565b9250508190555050505080611d7390613a42565b9050611c94565b50846001600160a01b0316866001600160a01b0316826001600160a01b03167f4a39dc06d4c0dbc64b70af90fd698a233a518aa5d07e595d983b8c0526c8f7fb8787604051611dca929190613c58565b60405180910390a4611de081878787878761283c565b505050505050565b611df282826113d3565b610be15760008281526097602090815260408083206001600160a01b03851684529091529020805460ff19166001179055611e2a3390565b6001600160a01b0316816001600160a01b0316837f2f8788117e7eff1d82e926ec794901d17c78024a50270940304540a733656f0d60405160405180910390a45050565b611e7882826113d3565b15610be15760008281526097602090815260408083206001600160a01b0385168085529252808320805460ff1916905551339285917ff6391f5c32d9c69d2a47ea670b442974b53935d1edc7fd64eb21e047a839171b9190a45050565b7f189ab7a9244df0848122154315af71fe140f3db0fe014031783b0946b8c9d2e3610be181611c31565b7f4910fdfa16fed3260ed0e7147f7cc6da11a60208b5b9406d12a635614ffd91435460ff1615611f3257610b6283612997565b826001600160a01b03166352d1902d6040518163ffffffff1660e01b8152600401602060405180830381865afa925050508015611f8c575060408051601f3d908101601f19168201909252611f8991810190613c86565b60015b611fef5760405162461bcd60e51b815260206004820152602e60248201527f45524331393637557067726164653a206e657720696d706c656d656e7461746960448201526d6f6e206973206e6f74205555505360901b606482015260840161084f565b6000805160206140cb833981519152811461205e5760405162461bcd60e51b815260206004820152602960248201527f45524331393637557067726164653a20756e737570706f727465642070726f786044820152681a58589b195555525160ba1b606482015260840161084f565b50610b62838383612a33565b612072612a58565b60c9805460ff191690557f5db9ee0a495bf2e6ff9c91a7834c1ba4fdd244a5e8aa4e537bd38aeae4b073aa335b6040516001600160a01b03909116815260200160405180910390a1565b6001600160a01b0383166120e25760405162461bcd60e51b815260040161084f90613c9f565b80518251146121035760405162461bcd60e51b815260040161084f90613b81565b600033905061212681856000868660405180602001604052806000815250612826565b60005b83518110156121ee57600084828151811061214657612146613b41565b60200260200101519050600084838151811061216457612164613b41565b60209081029190910181015160008481526065835260408082206001600160a01b038c1683529093529190912054909150818110156121b55760405162461bcd60e51b815260040161084f90613ce2565b60009283526065602090815260408085206001600160a01b038b16865290915290922091039055806121e681613a42565b915050612129565b5060006001600160a01b0316846001600160a01b0316826001600160a01b03167f4a39dc06d4c0dbc64b70af90fd698a233a518aa5d07e595d983b8c0526c8f7fb868660405161223f929190613c58565b60405180910390a4604080516020810190915260009052610afb565b600054610100900460ff166122825760405162461bcd60e51b815260040161084f90613d26565b610cc181612aa1565b600054610100900460ff166122b25760405162461bcd60e51b815260040161084f90613d26565b565b600054610100900460ff166122db5760405162461bcd60e51b815260040161084f90613d26565b6122b2612ad1565b6122eb612b04565b60c9805460ff191660011790557f62e78cea01bee320cd4e420270b5ea74000d11b0c9f74754ebdbfc544b05a25861209f3390565b6001600160a01b0384166123805760405162461bcd60e51b815260206004820152602160248201527f455243313135353a206d696e7420746f20746865207a65726f206164647265736044820152607360f81b606482015260840161084f565b33600061238c85612b4a565b9050600061239985612b4a565b90506123aa83600089858589612826565b60008681526065602090815260408083206001600160a01b038b168452909152812080548792906123dc908490613b57565b909155505060408051878152602081018790526001600160a01b03808a1692600092918716917fc3d58168c5ae7397731d063d5bbf3d657854427343f4c083240f7aacaa2d0f62910160405180910390a461243c83600089898989612b95565b50505050505050565b816001600160a01b0316836001600160a01b0316036124b85760405162461bcd60e51b815260206004820152602960248201527f455243313135353a2073657474696e6720617070726f76616c20737461747573604482015268103337b91039b2b63360b91b606482015260840161084f565b6001600160a01b03838116600081815260666020908152604080832094871680845294825291829020805460ff191686151590811790915591519182527f17307eab39ab6107e8899845ad3d59bd9653f200f220920489ca2b5937696c31910160405180910390a3505050565b6001600160a01b03841661254b5760405162461bcd60e51b815260040161084f90613bc9565b33600061255785612b4a565b9050600061256485612b4a565b9050612574838989858589612826565b60008681526065602090815260408083206001600160a01b038c168452909152902054858110156125b75760405162461bcd60e51b815260040161084f90613c0e565b60008781526065602090815260408083206001600160a01b038d8116855292528083208985039055908a168252812080548892906125f6908490613b57565b909155505060408051888152602081018890526001600160a01b03808b16928c821692918816917fc3d58168c5ae7397731d063d5bbf3d657854427343f4c083240f7aacaa2d0f62910160405180910390a4612656848a8a8a8a8a612b95565b505050505050505050565b6001600160a01b0383166126875760405162461bcd60e51b815260040161084f90613c9f565b33600061269384612b4a565b905060006126a084612b4a565b90506126c083876000858560405180602001604052806000815250612826565b60008581526065602090815260408083206001600160a01b038a168452909152902054848110156127035760405162461bcd60e51b815260040161084f90613ce2565b60008681526065602090815260408083206001600160a01b038b81168086529184528285208a8703905582518b81529384018a90529092908816917fc3d58168c5ae7397731d063d5bbf3d657854427343f4c083240f7aacaa2d0f62910160405180910390a460408051602081019091526000905261243c565b60006001600160e01b03198216636cdb3d1360e11b14806127ae57506001600160e01b031982166303a24d0760e21b145b8061087d57506301ffc9a760e01b6001600160e01b031983161461087d565b6127d782826113d3565b610be1576127e481612c50565b6127ef836020612c62565b604051602001612800929190613d71565b60408051601f198184030181529082905262461bcd60e51b825261084f916004016131dc565b61282e612b04565b611de0868686868686612e04565b6001600160a01b0384163b15611de05760405163bc197c8160e01b81526001600160a01b0385169063bc197c81906128809089908990889088908890600401613de6565b6020604051808303816000875af19250505080156128bb575060408051601f3d908101601f191682019092526128b891810190613e44565b60015b612967576128c7613e61565b806308c379a00361290057506128db613e7c565b806128e65750612902565b8060405162461bcd60e51b815260040161084f91906131dc565b505b60405162461bcd60e51b815260206004820152603460248201527f455243313135353a207472616e7366657220746f206e6f6e2d455243313135356044820152732932b1b2b4bb32b91034b6b83632b6b2b73a32b960611b606482015260840161084f565b6001600160e01b0319811663bc197c8160e01b1461243c5760405162461bcd60e51b815260040161084f90613f05565b6001600160a01b0381163b612a045760405162461bcd60e51b815260206004820152602d60248201527f455243313936373a206e657720696d706c656d656e746174696f6e206973206e60448201526c1bdd08184818dbdb9d1c9858dd609a1b606482015260840161084f565b6000805160206140cb83398151915280546001600160a01b0319166001600160a01b0392909216919091179055565b612a3c83612f80565b600082511180612a495750805b15610b6257610afb8383612fc0565b60c95460ff166122b25760405162461bcd60e51b815260206004820152601460248201527314185d5cd8589b194e881b9bdd081c185d5cd95960621b604482015260640161084f565b600054610100900460ff16612ac85760405162461bcd60e51b815260040161084f90613d26565b610cc181612fe5565b600054610100900460ff16612af85760405162461bcd60e51b815260040161084f90613d26565b60c9805460ff19169055565b60c95460ff16156122b25760405162461bcd60e51b815260206004820152601060248201526f14185d5cd8589b194e881c185d5cd95960821b604482015260640161084f565b60408051600180825281830190925260609160009190602080830190803683370190505090508281600081518110612b8457612b84613b41565b602090810291909101015292915050565b6001600160a01b0384163b15611de05760405163f23a6e6160e01b81526001600160a01b0385169063f23a6e6190612bd99089908990889088908890600401613f4d565b6020604051808303816000875af1925050508015612c14575060408051601f3d908101601f19168201909252612c1191810190613e44565b60015b612c20576128c7613e61565b6001600160e01b0319811663f23a6e6160e01b1461243c5760405162461bcd60e51b815260040161084f90613f05565b606061087d6001600160a01b03831660145b60606000612c71836002613b6a565b612c7c906002613b57565b6001600160401b03811115612c9357612c93613272565b6040519080825280601f01601f191660200182016040528015612cbd576020820181803683370190505b509050600360fc1b81600081518110612cd857612cd8613b41565b60200101906001600160f81b031916908160001a905350600f60fb1b81600181518110612d0757612d07613b41565b60200101906001600160f81b031916908160001a9053506000612d2b846002613b6a565b612d36906001613b57565b90505b6001811115612dae576f181899199a1a9b1b9c1cb0b131b232b360811b85600f1660108110612d6a57612d6a613b41565b1a60f81b828281518110612d8057612d80613b41565b60200101906001600160f81b031916908160001a90535060049490941c93612da781613f92565b9050612d39565b508315612dfd5760405162461bcd60e51b815260206004820181905260248201527f537472696e67733a20686578206c656e67746820696e73756666696369656e74604482015260640161084f565b9392505050565b6001600160a01b038516612e8c5760005b8351811015612e8a57828181518110612e3057612e30613b41565b602002602001015161012d6000868481518110612e4f57612e4f613b41565b602002602001015181526020019081526020016000206000828254612e749190613b57565b90915550612e83905081613a42565b9050612e15565b505b6001600160a01b038416611de05760005b835181101561243c576000848281518110612eba57612eba613b41565b602002602001015190506000848381518110612ed857612ed8613b41565b60200260200101519050600061012d600084815260200190815260200160002054905081811015612f5c5760405162461bcd60e51b815260206004820152602860248201527f455243313135353a206275726e20616d6f756e74206578636565647320746f74604482015267616c537570706c7960c01b606482015260840161084f565b600092835261012d602052604090922091039055612f7981613a42565b9050612e9d565b612f8981612997565b6040516001600160a01b038216907fbc7cd75a20ee27fd9adebab32041f755214dbc6bffa90cc0225b39da2e5c2d3b90600090a250565b6060612dfd83836040518060600160405280602781526020016140eb60279139612ff1565b6067610be18282613fef565b6060600080856001600160a01b03168560405161300e91906140ae565b600060405180830381855af49150503d8060008114613049576040519150601f19603f3d011682016040523d82523d6000602084013e61304e565b606091505b509150915061305f86838387613069565b9695505050505050565b606083156130d85782516000036130d1576001600160a01b0385163b6130d15760405162461bcd60e51b815260206004820152601d60248201527f416464726573733a2063616c6c20746f206e6f6e2d636f6e7472616374000000604482015260640161084f565b50816130e2565b6130e283836130ea565b949350505050565b8151156128e65781518083602001fd5b80356001600160a01b038116811461311157600080fd5b919050565b6000806040838503121561312957600080fd5b613132836130fa565b946020939093013593505050565b6001600160e01b031981168114610cc157600080fd5b60006020828403121561316857600080fd5b8135612dfd81613140565b60006020828403121561318557600080fd5b5035919050565b60005b838110156131a757818101518382015260200161318f565b50506000910152565b600081518084526131c881602086016020860161318c565b601f01601f19169290920160200192915050565b602081526000612dfd60208301846131b0565b634e487b7160e01b600052602160045260246000fd5b6004811061322357634e487b7160e01b600052602160045260246000fd5b9052565b60c081016132358289613205565b602082019690965260408101949094526001600160a01b039290921660608401526001600160601b0390811660808401521660a090910152919050565b634e487b7160e01b600052604160045260246000fd5b601f8201601f191681016001600160401b03811182821017156132ad576132ad613272565b6040525050565b60006001600160401b038211156132cd576132cd613272565b5060051b60200190565b600082601f8301126132e857600080fd5b813560206132f5826132b4565b6040516133028282613288565b83815260059390931b850182019282810191508684111561332257600080fd5b8286015b8481101561333d5780358352918301918301613326565b509695505050505050565b60006001600160401b0383111561336157613361613272565b604051613378601f8501601f191660200182613288565b80915083815284848401111561338d57600080fd5b83836020830137600060208583010152509392505050565b600082601f8301126133b657600080fd5b612dfd83833560208501613348565b600080600080600060a086880312156133dd57600080fd5b6133e6866130fa565b94506133f4602087016130fa565b935060408601356001600160401b038082111561341057600080fd5b61341c89838a016132d7565b9450606088013591508082111561343257600080fd5b61343e89838a016132d7565b9350608088013591508082111561345457600080fd5b50613461888289016133a5565b9150509295509295909350565b6000806040838503121561348157600080fd5b82359150613491602084016130fa565b90509250929050565b6000602082840312156134ac57600080fd5b612dfd826130fa565b80356001600160601b038116811461311157600080fd5b6000806000606084860312156134e157600080fd5b833592506134f1602085016134b5565b91506134ff604085016134b5565b90509250925092565b6000806040838503121561351b57600080fd5b82356001600160401b038082111561353257600080fd5b818501915085601f83011261354657600080fd5b81356020613553826132b4565b6040516135608282613288565b83815260059390931b850182019282810191508984111561358057600080fd5b948201945b838610156135a557613596866130fa565b82529482019490820190613585565b965050860135925050808211156135bb57600080fd5b506135c8858286016132d7565b9150509250929050565b600081518084526020808501945080840160005b83811015613602578151875295820195908201906001016135e6565b509495945050505050565b602081526000612dfd60208301846135d2565b6000806040838503121561363357600080fd5b61363c836130fa565b915060208301356001600160401b0381111561365757600080fd5b6135c8858286016133a5565b60008060006060848603121561367857600080fd5b613681846130fa565b925060208401356001600160401b038082111561369d57600080fd5b6136a9878388016132d7565b935060408601359150808211156136bf57600080fd5b506136cc868287016132d7565b9150509250925092565b600080604083850312156136e957600080fd5b8235915060208301356001600160401b0381111561370657600080fd5b8301601f8101851361371757600080fd5b6135c885823560208401613348565b6000806000806080858703121561373c57600080fd5b8435935060208501359250613753604086016130fa565b915060608501356001600160401b0381111561376e57600080fd5b61377a878288016133a5565b91505092959194509250565b6000806040838503121561379957600080fd5b6137a2836130fa565b9150602083013580151581146137b757600080fd5b809150509250929050565b600080600080600060a086880312156137da57600080fd5b853594506137ea602087016130fa565b93506137f8604087016130fa565b9250613806606087016134b5565b9150613814608087016134b5565b90509295509295909350565b602080825282518282018190526000919060409081850190868401855b8281101561386b57815180516001600160601b0316855286015186850152928401929085019060010161383d565b5091979650505050505050565b6000806040838503121561388b57600080fd5b50508035926020909101359150565b602080825282518282018190526000919060409081850190868401855b8281101561386b5781516138cc858251613205565b808701518588015285810151868601526060808201516001600160a01b0316908601526080808201516001600160601b039081169187019190915260a091820151169085015260c090930192908501906001016138b7565b6000806040838503121561393757600080fd5b613940836130fa565b9150613491602084016130fa565b600080600080600060a0868803121561396657600080fd5b61396f866130fa565b945061397d602087016130fa565b9350604086013592506060860135915060808601356001600160401b038111156139a657600080fd5b613461888289016133a5565b6000806000606084860312156139c757600080fd5b6139d0846130fa565b95602085013595506040909401359392505050565b600181811c908216806139f957607f821691505b602082108103611a0e57634e487b7160e01b600052602260045260246000fd5b634e487b7160e01b600052601160045260246000fd5b8181038181111561087d5761087d613a19565b600060018201613a5457613a54613a19565b5060010190565b6020808252602e908201527f455243313135353a2063616c6c6572206973206e6f7420746f6b656e206f776e60408201526d195c881bdc88185c1c1c9bdd995960921b606082015260800190565b6020808252602c908201527f46756e6374696f6e206d7573742062652063616c6c6564207468726f7567682060408201526b19195b1959d85d1958d85b1b60a21b606082015260800190565b6020808252602c908201527f46756e6374696f6e206d7573742062652063616c6c6564207468726f7567682060408201526b6163746976652070726f787960a01b606082015260800190565b634e487b7160e01b600052603260045260246000fd5b8082018082111561087d5761087d613a19565b808202811582820484141761087d5761087d613a19565b60208082526028908201527f455243313135353a2069647320616e6420616d6f756e7473206c656e677468206040820152670dad2e6dac2e8c6d60c31b606082015260800190565b60208082526025908201527f455243313135353a207472616e7366657220746f20746865207a65726f206164604082015264647265737360d81b606082015260800190565b6020808252602a908201527f455243313135353a20696e73756666696369656e742062616c616e636520666f60408201526939103a3930b739b332b960b11b606082015260800190565b604081526000613c6b60408301856135d2565b8281036020840152613c7d81856135d2565b95945050505050565b600060208284031215613c9857600080fd5b5051919050565b60208082526023908201527f455243313135353a206275726e2066726f6d20746865207a65726f206164647260408201526265737360e81b606082015260800190565b60208082526024908201527f455243313135353a206275726e20616d6f756e7420657863656564732062616c604082015263616e636560e01b606082015260800190565b6020808252602b908201527f496e697469616c697a61626c653a20636f6e7472616374206973206e6f74206960408201526a6e697469616c697a696e6760a81b606082015260800190565b7f416363657373436f6e74726f6c3a206163636f756e7420000000000000000000815260008351613da981601785016020880161318c565b7001034b99036b4b9b9b4b733903937b6329607d1b6017918401918201528351613dda81602884016020880161318c565b01602801949350505050565b6001600160a01b0386811682528516602082015260a060408201819052600090613e12908301866135d2565b8281036060840152613e2481866135d2565b90508281036080840152613e3881856131b0565b98975050505050505050565b600060208284031215613e5657600080fd5b8151612dfd81613140565b600060033d111561103a5760046000803e5060005160e01c90565b600060443d1015613e8a5790565b6040516003193d81016004833e81513d6001600160401b038160248401118184111715613eb957505050505090565b8285019150815181811115613ed15750505050505090565b843d8701016020828501011115613eeb5750505050505090565b613efa60208286010187613288565b509095945050505050565b60208082526028908201527f455243313135353a204552433131353552656365697665722072656a656374656040820152676420746f6b656e7360c01b606082015260800190565b6001600160a01b03868116825285166020820152604081018490526060810183905260a060808201819052600090613f87908301846131b0565b979650505050505050565b600081613fa157613fa1613a19565b506000190190565b601f821115610b6257600081815260208120601f850160051c81016020861015613fd05750805b601f850160051c820191505b81811015611de057828155600101613fdc565b81516001600160401b0381111561400857614008613272565b61401c8161401684546139e5565b84613fa9565b602080601f83116001811461405157600084156140395750858301515b600019600386901b1c1916600185901b178555611de0565b600085815260208120601f198616915b8281101561408057888601518255948401946001909101908401614061565b508582101561409e5787850151600019600388901b60f8161c191681555b5050505050600190811b01905550565b600082516140c081846020870161318c565b919091019291505056fe360894a13ba1a3210667c828492db98dca3e2076cc3735a920a3ca505d382bbc416464726573733a206c6f772d6c6576656c2064656c65676174652063616c6c206661696c6564a26469706673582212204d74f9c4a04ccc487fcf7896ccce40b5e17e421a638b4497ee079e511ceb03ae64736f6c63430008130033",
  "linkReferences": {},
  "deployedLinkReferences": {}
}