{
  "_format": "hh-sol-artifact-1",
  "contractName": "Editions",
  "sourceName": "src/Editions/Editions.sol",
  "abi": [
    {
      "inputs": [],
      "stateMutability": "nonpayable",
      "type": "constructor"
    },
    {
      "inputs": [],
      "name": "EditionFeeExceedsMaximumFee",
      "type": "error"
    },
    {
      "inputs": [],
      "name": "EditionNotCreated",
      "type": "error"
    },
    {
      "inputs": [],
      "name": "EditionNotEnoughBalance",
      "type": "error"
    },
    {
      "inputs": [],
      "name": "EditionNotLaunched",
      "type": "error"
    },
    {
      "inputs": [],
      "name": "EditionNotStopped",
      "type": "error"
    },
    {
      "inputs": [],
      "name": "NotEditionOwner",
      "type": "error"
    },
    {
      "inputs": [],
      "name": "NotEnoughFees",
      "type": "error"
    },
    {
      "inputs": [],
      "name": "NotEnoughFunds",
      "type": "error"
    },
    {
      "inputs": [],
      "name": "TransactionFailed",
      "type": "error"
    },
    {
      "anonymous": false,
      "inputs": [
        {
          "indexed": false,
          "internalType": "address",
          "name": "previousAdmin",
          "type": "address"
        },
        {
          "indexed": false,
          "internalType": "address",
          "name": "newAdmin",
          "type": "address"
        }
      ],
      "name": "AdminChanged",
      "type": "event"
    },
    {
      "anonymous": false,
      "inputs": [
        {
          "indexed": true,
          "internalType": "address",
          "name": "account",
          "type": "address"
        },
        {
          "indexed": true,
          "internalType": "address",
          "name": "operator",
          "type": "address"
        },
        {
          "indexed": false,
          "internalType": "bool",
          "name": "approved",
          "type": "bool"
        }
      ],
      "name": "ApprovalForAll",
      "type": "event"
    },
    {
      "anonymous": false,
      "inputs": [
        {
          "indexed": true,
          "internalType": "address",
          "name": "beacon",
          "type": "address"
        }
      ],
      "name": "BeaconUpgraded",
      "type": "event"
    },
    {
      "anonymous": false,
      "inputs": [
        {
          "indexed": false,
          "internalType": "uint256",
          "name": "editionId",
          "type": "uint256"
        }
      ],
      "name": "EditionApproved",
      "type": "event"
    },
    {
      "anonymous": false,
      "inputs": [
        {
          "indexed": false,
          "internalType": "uint256",
          "name": "editionId",
          "type": "uint256"
        },
        {
          "indexed": false,
          "internalType": "uint256",
          "name": "amount",
          "type": "uint256"
        },
        {
          "indexed": false,
          "internalType": "address",
          "name": "owner",
          "type": "address"
        }
      ],
      "name": "EditionBalanceWithdrawn",
      "type": "event"
    },
    {
      "anonymous": false,
      "inputs": [
        {
          "indexed": false,
          "internalType": "uint256",
          "name": "editionId",
          "type": "uint256"
        },
        {
          "indexed": false,
          "internalType": "string",
          "name": "briefId",
          "type": "string"
        },
        {
          "indexed": false,
          "internalType": "uint256",
          "name": "fee",
          "type": "uint256"
        },
        {
          "indexed": false,
          "internalType": "address",
          "name": "owner",
          "type": "address"
        }
      ],
      "name": "EditionCreated",
      "type": "event"
    },
    {
      "anonymous": false,
      "inputs": [
        {
          "indexed": false,
          "internalType": "uint256",
          "name": "editionId",
          "type": "uint256"
        }
      ],
      "name": "EditionResumed",
      "type": "event"
    },
    {
      "anonymous": false,
      "inputs": [
        {
          "indexed": false,
          "internalType": "uint256",
          "name": "editionId",
          "type": "uint256"
        }
      ],
      "name": "EditionStopped",
      "type": "event"
    },
    {
      "anonymous": false,
      "inputs": [
        {
          "indexed": false,
          "internalType": "uint8",
          "name": "version",
          "type": "uint8"
        }
      ],
      "name": "Initialized",
      "type": "event"
    },
    {
      "anonymous": false,
      "inputs": [
        {
          "indexed": false,
          "internalType": "address",
          "name": "account",
          "type": "address"
        }
      ],
      "name": "Paused",
      "type": "event"
    },
    {
      "anonymous": false,
      "inputs": [
        {
          "indexed": true,
          "internalType": "bytes32",
          "name": "role",
          "type": "bytes32"
        },
        {
          "indexed": true,
          "internalType": "bytes32",
          "name": "previousAdminRole",
          "type": "bytes32"
        },
        {
          "indexed": true,
          "internalType": "bytes32",
          "name": "newAdminRole",
          "type": "bytes32"
        }
      ],
      "name": "RoleAdminChanged",
      "type": "event"
    },
    {
      "anonymous": false,
      "inputs": [
        {
          "indexed": true,
          "internalType": "bytes32",
          "name": "role",
          "type": "bytes32"
        },
        {
          "indexed": true,
          "internalType": "address",
          "name": "account",
          "type": "address"
        },
        {
          "indexed": true,
          "internalType": "address",
          "name": "sender",
          "type": "address"
        }
      ],
      "name": "RoleGranted",
      "type": "event"
    },
    {
      "anonymous": false,
      "inputs": [
        {
          "indexed": true,
          "internalType": "bytes32",
          "name": "role",
          "type": "bytes32"
        },
        {
          "indexed": true,
          "internalType": "address",
          "name": "account",
          "type": "address"
        },
        {
          "indexed": true,
          "internalType": "address",
          "name": "sender",
          "type": "address"
        }
      ],
      "name": "RoleRevoked",
      "type": "event"
    },
    {
      "anonymous": false,
      "inputs": [
        {
          "indexed": true,
          "internalType": "address",
          "name": "operator",
          "type": "address"
        },
        {
          "indexed": true,
          "internalType": "address",
          "name": "from",
          "type": "address"
        },
        {
          "indexed": true,
          "internalType": "address",
          "name": "to",
          "type": "address"
        },
        {
          "indexed": false,
          "internalType": "uint256[]",
          "name": "ids",
          "type": "uint256[]"
        },
        {
          "indexed": false,
          "internalType": "uint256[]",
          "name": "values",
          "type": "uint256[]"
        }
      ],
      "name": "TransferBatch",
      "type": "event"
    },
    {
      "anonymous": false,
      "inputs": [
        {
          "indexed": true,
          "internalType": "address",
          "name": "operator",
          "type": "address"
        },
        {
          "indexed": true,
          "internalType": "address",
          "name": "from",
          "type": "address"
        },
        {
          "indexed": true,
          "internalType": "address",
          "name": "to",
          "type": "address"
        },
        {
          "indexed": false,
          "internalType": "uint256",
          "name": "id",
          "type": "uint256"
        },
        {
          "indexed": false,
          "internalType": "uint256",
          "name": "value",
          "type": "uint256"
        }
      ],
      "name": "TransferSingle",
      "type": "event"
    },
    {
      "anonymous": false,
      "inputs": [
        {
          "indexed": false,
          "internalType": "string",
          "name": "value",
          "type": "string"
        },
        {
          "indexed": true,
          "internalType": "uint256",
          "name": "id",
          "type": "uint256"
        }
      ],
      "name": "URI",
      "type": "event"
    },
    {
      "anonymous": false,
      "inputs": [
        {
          "indexed": false,
          "internalType": "address",
          "name": "account",
          "type": "address"
        }
      ],
      "name": "Unpaused",
      "type": "event"
    },
    {
      "anonymous": false,
      "inputs": [
        {
          "indexed": true,
          "internalType": "address",
          "name": "implementation",
          "type": "address"
        }
      ],
      "name": "Upgraded",
      "type": "event"
    },
    {
      "stateMutability": "payable",
      "type": "fallback"
    },
    {
      "inputs": [],
      "name": "DEFAULT_ADMIN_ROLE",
      "outputs": [
        {
          "internalType": "bytes32",
          "name": "",
          "type": "bytes32"
        }
      ],
      "stateMutability": "view",
      "type": "function"
    },
    {
      "inputs": [
        {
          "internalType": "uint256",
          "name": "editionId",
          "type": "uint256"
        }
      ],
      "name": "approveEdition",
      "outputs": [],
      "stateMutability": "nonpayable",
      "type": "function"
    },
    {
      "inputs": [
        {
          "internalType": "address",
          "name": "account",
          "type": "address"
        },
        {
          "internalType": "uint256",
          "name": "id",
          "type": "uint256"
        }
      ],
      "name": "balanceOf",
      "outputs": [
        {
          "internalType": "uint256",
          "name": "",
          "type": "uint256"
        }
      ],
      "stateMutability": "view",
      "type": "function"
    },
    {
      "inputs": [
        {
          "internalType": "address[]",
          "name": "accounts",
          "type": "address[]"
        },
        {
          "internalType": "uint256[]",
          "name": "ids",
          "type": "uint256[]"
        }
      ],
      "name": "balanceOfBatch",
      "outputs": [
        {
          "internalType": "uint256[]",
          "name": "",
          "type": "uint256[]"
        }
      ],
      "stateMutability": "view",
      "type": "function"
    },
    {
      "inputs": [
        {
          "internalType": "address",
          "name": "user",
          "type": "address"
        }
      ],
      "name": "balances",
      "outputs": [
        {
          "internalType": "uint256",
          "name": "balance",
          "type": "uint256"
        }
      ],
      "stateMutability": "view",
      "type": "function"
    },
    {
      "inputs": [
        {
          "internalType": "address",
          "name": "account",
          "type": "address"
        },
        {
          "internalType": "uint256",
          "name": "id",
          "type": "uint256"
        },
        {
          "internalType": "uint256",
          "name": "value",
          "type": "uint256"
        }
      ],
      "name": "burn",
      "outputs": [],
      "stateMutability": "nonpayable",
      "type": "function"
    },
    {
      "inputs": [
        {
          "internalType": "address",
          "name": "account",
          "type": "address"
        },
        {
          "internalType": "uint256[]",
          "name": "ids",
          "type": "uint256[]"
        },
        {
          "internalType": "uint256[]",
          "name": "values",
          "type": "uint256[]"
        }
      ],
      "name": "burnBatch",
      "outputs": [],
      "stateMutability": "nonpayable",
      "type": "function"
    },
    {
      "inputs": [
        {
          "internalType": "uint256",
          "name": "fee",
          "type": "uint256"
        },
        {
          "internalType": "address",
          "name": "owner",
          "type": "address"
        },
        {
          "internalType": "address",
          "name": "payer",
          "type": "address"
        },
        {
          "internalType": "string",
          "name": "id",
          "type": "string"
        },
        {
          "internalType": "string",
          "name": "briefId",
          "type": "string"
        }
      ],
      "name": "createEdition",
      "outputs": [
        {
          "internalType": "uint256",
          "name": "editionId",
          "type": "uint256"
        }
      ],
      "stateMutability": "nonpayable",
      "type": "function"
    },
    {
      "inputs": [],
      "name": "editionCounter",
      "outputs": [
        {
          "internalType": "uint256",
          "name": "",
          "type": "uint256"
        }
      ],
      "stateMutability": "view",
      "type": "function"
    },
    {
      "inputs": [
        {
          "internalType": "uint256",
          "name": "",
          "type": "uint256"
        }
      ],
      "name": "editions",
      "outputs": [
        {
          "internalType": "enum EditionsStructs.EditionStatus",
          "name": "status",
          "type": "uint8"
        },
        {
          "internalType": "uint256",
          "name": "fee",
          "type": "uint256"
        },
        {
          "internalType": "uint256",
          "name": "balance",
          "type": "uint256"
        },
        {
          "internalType": "address",
          "name": "owner",
          "type": "address"
        },
        {
          "internalType": "string",
          "name": "id",
          "type": "string"
        },
        {
          "internalType": "string",
          "name": "briefId",
          "type": "string"
        }
      ],
      "stateMutability": "view",
      "type": "function"
    },
    {
      "inputs": [
        {
          "internalType": "uint256",
          "name": "id",
          "type": "uint256"
        }
      ],
      "name": "exists",
      "outputs": [
        {
          "internalType": "bool",
          "name": "",
          "type": "bool"
        }
      ],
      "stateMutability": "view",
      "type": "function"
    },
    {
      "inputs": [
        {
          "internalType": "address",
          "name": "owner",
          "type": "address"
        }
      ],
      "name": "getBalances",
      "outputs": [
        {
          "components": [
            {
              "internalType": "string",
              "name": "id",
              "type": "string"
            },
            {
              "internalType": "uint256",
              "name": "amount",
              "type": "uint256"
            }
          ],
          "internalType": "struct EditionsStructs.EditionIdWithAmount[]",
          "name": "",
          "type": "tuple[]"
        }
      ],
      "stateMutability": "view",
      "type": "function"
    },
    {
      "inputs": [],
      "name": "getEditions",
      "outputs": [
        {
          "components": [
            {
              "internalType": "enum EditionsStructs.EditionStatus",
              "name": "status",
              "type": "uint8"
            },
            {
              "internalType": "uint256",
              "name": "fee",
              "type": "uint256"
            },
            {
              "internalType": "uint256",
              "name": "balance",
              "type": "uint256"
            },
            {
              "internalType": "address",
              "name": "owner",
              "type": "address"
            },
            {
              "internalType": "string",
              "name": "id",
              "type": "string"
            },
            {
              "internalType": "string",
              "name": "briefId",
              "type": "string"
            }
          ],
          "internalType": "struct EditionsStructs.Edition[]",
          "name": "",
          "type": "tuple[]"
        }
      ],
      "stateMutability": "view",
      "type": "function"
    },
    {
      "inputs": [
        {
          "internalType": "bytes32",
          "name": "role",
          "type": "bytes32"
        }
      ],
      "name": "getRoleAdmin",
      "outputs": [
        {
          "internalType": "bytes32",
          "name": "",
          "type": "bytes32"
        }
      ],
      "stateMutability": "view",
      "type": "function"
    },
    {
      "inputs": [
        {
          "internalType": "bytes32",
          "name": "role",
          "type": "bytes32"
        },
        {
          "internalType": "address",
          "name": "account",
          "type": "address"
        }
      ],
      "name": "grantRole",
      "outputs": [],
      "stateMutability": "nonpayable",
      "type": "function"
    },
    {
      "inputs": [
        {
          "internalType": "bytes32",
          "name": "role",
          "type": "bytes32"
        },
        {
          "internalType": "address",
          "name": "account",
          "type": "address"
        }
      ],
      "name": "hasRole",
      "outputs": [
        {
          "internalType": "bool",
          "name": "",
          "type": "bool"
        }
      ],
      "stateMutability": "view",
      "type": "function"
    },
    {
      "inputs": [],
      "name": "initialize",
      "outputs": [],
      "stateMutability": "nonpayable",
      "type": "function"
    },
    {
      "inputs": [
        {
          "internalType": "address",
          "name": "account",
          "type": "address"
        },
        {
          "internalType": "address",
          "name": "operator",
          "type": "address"
        }
      ],
      "name": "isApprovedForAll",
      "outputs": [
        {
          "internalType": "bool",
          "name": "",
          "type": "bool"
        }
      ],
      "stateMutability": "view",
      "type": "function"
    },
    {
      "inputs": [],
      "name": "maximumEditionFee",
      "outputs": [
        {
          "internalType": "uint256",
          "name": "",
          "type": "uint256"
        }
      ],
      "stateMutability": "view",
      "type": "function"
    },
    {
      "inputs": [
        {
          "internalType": "uint256",
          "name": "editionId",
          "type": "uint256"
        },
        {
          "internalType": "uint256",
          "name": "amount",
          "type": "uint256"
        },
        {
          "internalType": "address",
          "name": "buyer",
          "type": "address"
        },
        {
          "internalType": "bytes",
          "name": "data",
          "type": "bytes"
        }
      ],
      "name": "mintEdition",
      "outputs": [],
      "stateMutability": "payable",
      "type": "function"
    },
    {
      "inputs": [],
      "name": "pause",
      "outputs": [],
      "stateMutability": "nonpayable",
      "type": "function"
    },
    {
      "inputs": [],
      "name": "paused",
      "outputs": [
        {
          "internalType": "bool",
          "name": "",
          "type": "bool"
        }
      ],
      "stateMutability": "view",
      "type": "function"
    },
    {
      "inputs": [],
      "name": "protocolFee",
      "outputs": [
        {
          "internalType": "uint256",
          "name": "",
          "type": "uint256"
        }
      ],
      "stateMutability": "view",
      "type": "function"
    },
    {
      "inputs": [],
      "name": "proxiableUUID",
      "outputs": [
        {
          "internalType": "bytes32",
          "name": "",
          "type": "bytes32"
        }
      ],
      "stateMutability": "view",
      "type": "function"
    },
    {
      "inputs": [
        {
          "internalType": "bytes32",
          "name": "role",
          "type": "bytes32"
        },
        {
          "internalType": "address",
          "name": "account",
          "type": "address"
        }
      ],
      "name": "renounceRole",
      "outputs": [],
      "stateMutability": "nonpayable",
      "type": "function"
    },
    {
      "inputs": [
        {
          "internalType": "uint256",
          "name": "editionId",
          "type": "uint256"
        }
      ],
      "name": "resumeEdition",
      "outputs": [],
      "stateMutability": "nonpayable",
      "type": "function"
    },
    {
      "inputs": [
        {
          "internalType": "bytes32",
          "name": "role",
          "type": "bytes32"
        },
        {
          "internalType": "address",
          "name": "account",
          "type": "address"
        }
      ],
      "name": "revokeRole",
      "outputs": [],
      "stateMutability": "nonpayable",
      "type": "function"
    },
    {
      "inputs": [
        {
          "internalType": "address",
          "name": "from",
          "type": "address"
        },
        {
          "internalType": "address",
          "name": "to",
          "type": "address"
        },
        {
          "internalType": "uint256[]",
          "name": "ids",
          "type": "uint256[]"
        },
        {
          "internalType": "uint256[]",
          "name": "amounts",
          "type": "uint256[]"
        },
        {
          "internalType": "bytes",
          "name": "data",
          "type": "bytes"
        }
      ],
      "name": "safeBatchTransferFrom",
      "outputs": [],
      "stateMutability": "nonpayable",
      "type": "function"
    },
    {
      "inputs": [
        {
          "internalType": "address",
          "name": "from",
          "type": "address"
        },
        {
          "internalType": "address",
          "name": "to",
          "type": "address"
        },
        {
          "internalType": "uint256",
          "name": "id",
          "type": "uint256"
        },
        {
          "internalType": "uint256",
          "name": "amount",
          "type": "uint256"
        },
        {
          "internalType": "bytes",
          "name": "data",
          "type": "bytes"
        }
      ],
      "name": "safeTransferFrom",
      "outputs": [],
      "stateMutability": "nonpayable",
      "type": "function"
    },
    {
      "inputs": [
        {
          "internalType": "address",
          "name": "operator",
          "type": "address"
        },
        {
          "internalType": "bool",
          "name": "approved",
          "type": "bool"
        }
      ],
      "name": "setApprovalForAll",
      "outputs": [],
      "stateMutability": "nonpayable",
      "type": "function"
    },
    {
      "inputs": [
        {
          "internalType": "uint256",
          "name": "editionId",
          "type": "uint256"
        }
      ],
      "name": "stopEdition",
      "outputs": [],
      "stateMutability": "nonpayable",
      "type": "function"
    },
    {
      "inputs": [
        {
          "internalType": "bytes4",
          "name": "interfaceId",
          "type": "bytes4"
        }
      ],
      "name": "supportsInterface",
      "outputs": [
        {
          "internalType": "bool",
          "name": "",
          "type": "bool"
        }
      ],
      "stateMutability": "view",
      "type": "function"
    },
    {
      "inputs": [
        {
          "internalType": "uint256",
          "name": "id",
          "type": "uint256"
        }
      ],
      "name": "totalSupply",
      "outputs": [
        {
          "internalType": "uint256",
          "name": "",
          "type": "uint256"
        }
      ],
      "stateMutability": "view",
      "type": "function"
    },
    {
      "inputs": [],
      "name": "unpause",
      "outputs": [],
      "stateMutability": "nonpayable",
      "type": "function"
    },
    {
      "inputs": [
        {
          "internalType": "uint256",
          "name": "editionId",
          "type": "uint256"
        },
        {
          "internalType": "string",
          "name": "id",
          "type": "string"
        },
        {
          "internalType": "string",
          "name": "briefId",
          "type": "string"
        }
      ],
      "name": "updateEdition",
      "outputs": [],
      "stateMutability": "nonpayable",
      "type": "function"
    },
    {
      "inputs": [
        {
          "internalType": "address",
          "name": "newImplementation",
          "type": "address"
        }
      ],
      "name": "upgradeTo",
      "outputs": [],
      "stateMutability": "nonpayable",
      "type": "function"
    },
    {
      "inputs": [
        {
          "internalType": "address",
          "name": "newImplementation",
          "type": "address"
        },
        {
          "internalType": "bytes",
          "name": "data",
          "type": "bytes"
        }
      ],
      "name": "upgradeToAndCall",
      "outputs": [],
      "stateMutability": "payable",
      "type": "function"
    },
    {
      "inputs": [
        {
          "internalType": "uint256",
          "name": "",
          "type": "uint256"
        }
      ],
      "name": "uri",
      "outputs": [
        {
          "internalType": "string",
          "name": "",
          "type": "string"
        }
      ],
      "stateMutability": "view",
      "type": "function"
    },
    {
      "inputs": [
        {
          "internalType": "uint256",
          "name": "editionId",
          "type": "uint256"
        },
        {
          "internalType": "uint256",
          "name": "amount",
          "type": "uint256"
        }
      ],
      "name": "withdrawEditionBalance",
      "outputs": [],
      "stateMutability": "nonpayable",
      "type": "function"
    },
    {
      "inputs": [
        {
          "internalType": "uint256",
          "name": "amount",
          "type": "uint256"
        }
      ],
      "name": "withdrawFunds",
      "outputs": [],
      "stateMutability": "nonpayable",
      "type": "function"
    },
    {
      "stateMutability": "payable",
      "type": "receive"
    }
  ],
  "bytecode": "0x60a0604052306080523480156200001557600080fd5b506200002062000026565b620000e7565b600054610100900460ff1615620000935760405162461bcd60e51b815260206004820152602760248201527f496e697469616c697a61626c653a20636f6e747261637420697320696e697469604482015266616c697a696e6760c81b606482015260840160405180910390fd5b60005460ff90811614620000e5576000805460ff191660ff9081179091556040519081527f7f26b83ff96e1f2b6a682f133852f6798a09c465da95921460cefb38474024989060200160405180910390a15b565b6080516142926200011f60003960008181610cdb01528181610d1b01528181610f1501528181610f550152610fe401526142926000f3fe6080604052600436106102265760003560e01c80637357628c11610122578063c6fbb712116100a5578063e43990fe1161006c578063e43990fe146106b5578063e985e9c5146106d5578063f242432a1461071e578063f5298aca1461073e578063fc74efa21461075e57005b8063c6fbb7121461060f578063c84aae1714610626578063d547741f14610653578063d667c9ce14610673578063df6efc6c1461069357005b8063a217fddf116100e9578063a217fddf14610575578063a22cb4651461058a578063b0e21e8a146105aa578063b3a44bd6146105c1578063bd85b039146105e157005b80637357628c146104f85780638129fc1c146105185780638456cb591461052d57806391d1485414610542578063940123da1461056257005b806336568abe116101aa5780634f558e79116101715780634f558e791461046457806352d1902d146104945780635c975abb146104a95780636b20c454146104c15780636b5cb789146104e157005b806336568abe146103cf5780633659cfe6146103ef5780633f4ba83a1461040f5780634e1273f4146104245780634f1ef2861461045157005b8063248a9ca3116101ee578063248a9ca3146102ff578063279c806e1461032f57806327e235e3146103615780632eb2c2d61461038f5780632f2ff15d146103af57005b8062fdd58e1461022f57806301ffc9a7146102625780630a579eca146102925780630e89341c146102b2578063155dd5ee146102df57005b3661022d57005b005b34801561023b57600080fd5b5061024f61024a36600461321c565b61077e565b6040519081526020015b60405180910390f35b34801561026e57600080fd5b5061028261027d36600461325c565b610819565b6040519015158152602001610259565b34801561029e57600080fd5b5061022d6102ad366004613279565b610824565b3480156102be57600080fd5b506102d26102cd366004613279565b610906565b60405161025991906132e2565b3480156102eb57600080fd5b5061022d6102fa366004613279565b61099a565b34801561030b57600080fd5b5061024f61031a366004613279565b60009081526097602052604090206001015490565b34801561033b57600080fd5b5061034f61034a366004613279565b610a97565b6040516102599695949392919061332d565b34801561036d57600080fd5b5061024f61037c366004613386565b6101c76020526000908152604090205481565b34801561039b57600080fd5b5061022d6103aa3660046134ea565b610bed565b3480156103bb57600080fd5b5061022d6103ca366004613593565b610c39565b3480156103db57600080fd5b5061022d6103ea366004613593565b610c53565b3480156103fb57600080fd5b5061022d61040a366004613386565b610cd1565b34801561041b57600080fd5b5061022d610db0565b34801561043057600080fd5b5061044461043f3660046135bf565b610de2565b60405161025991906136c4565b61022d61045f3660046136d7565b610f0b565b34801561047057600080fd5b5061028261047f366004613279565b600090815261012d6020526040902054151590565b3480156104a057600080fd5b5061024f610fd7565b3480156104b557600080fd5b5060c95460ff16610282565b3480156104cd57600080fd5b5061022d6104dc36600461371a565b61108b565b3480156104ed57600080fd5b5061024f6101c65481565b34801561050457600080fd5b5061022d610513366004613279565b6110ce565b34801561052457600080fd5b5061022d61116f565b34801561053957600080fd5b5061022d61133a565b34801561054e57600080fd5b5061028261055d366004613593565b61136c565b61022d61057036600461378d565b611397565b34801561058157600080fd5b5061024f600081565b34801561059657600080fd5b5061022d6105a53660046137ed565b611484565b3480156105b657600080fd5b5061024f6101c35481565b3480156105cd57600080fd5b5061024f6105dc366004613829565b61148f565b3480156105ed57600080fd5b5061024f6105fc366004613279565b600090815261012d602052604090205490565b34801561061b57600080fd5b5061024f6101c55481565b34801561063257600080fd5b50610646610641366004613386565b6115e9565b6040516102599190613887565b34801561065f57600080fd5b5061022d61066e366004613593565b611753565b34801561067f57600080fd5b5061022d61068e3660046138fd565b611778565b34801561069f57600080fd5b506106a86118ba565b604051610259919061391f565b3480156106c157600080fd5b5061022d6106d03660046139d3565b611b29565b3480156106e157600080fd5b506102826106f0366004613a35565b6001600160a01b03918216600090815260666020908152604080832093909416825291909152205460ff1690565b34801561072a57600080fd5b5061022d610739366004613a5f565b611baf565b34801561074a57600080fd5b5061022d610759366004613ac3565b611bf4565b34801561076a57600080fd5b5061022d610779366004613279565b611c37565b60006001600160a01b0383166107ee5760405162461bcd60e51b815260206004820152602a60248201527f455243313135353a2061646472657373207a65726f206973206e6f742061207660448201526930b634b21037bbb732b960b11b60648201526084015b60405180910390fd5b5060008181526065602090815260408083206001600160a01b03861684529091529020545b92915050565b600061081382611d12565b60008181526101c460205260409020600301546001600160a01b0316331480610853575061085360003361136c565b6108705760405163388f811f60e01b815260040160405180910390fd5b600260008281526101c4602052604090205460ff166003811115610896576108966132f5565b146108b457604051631f0fb6fd60e11b815260040160405180910390fd5b60008181526101c46020908152604091829020805460ff1916600317905590518281527f591913f977ab242c5871f116f36be231ff67df5e8e0bac1efd91fa8a723aca2b91015b60405180910390a150565b60606067805461091590613af6565b80601f016020809104026020016040519081016040528092919081815260200182805461094190613af6565b801561098e5780601f106109635761010080835404028352916020019161098e565b820191906000526020600020905b81548152906001019060200180831161097157829003601f168201915b50505050509050919050565b60006109a581611d37565b478211156109c657604051631036b5ad60e31b815260040160405180910390fd5b4760005b6101c554811015610a275760008181526101c460205260409020600201546109f29083613b40565b915083821015610a155760405163156bbc5b60e01b815260040160405180910390fd5b80610a1f81613b53565b9150506109ca565b50604051600090339085908381818185875af1925050503d8060008114610a6a576040519150601f19603f3d011682016040523d82523d6000602084013e610a6f565b606091505b5050905080610a91576040516317f2c34560e31b815260040160405180910390fd5b50505050565b6101c4602052600090815260409020805460018201546002830154600384015460048501805460ff90951695939492936001600160a01b0390921692610adc90613af6565b80601f0160208091040260200160405190810160405280929190818152602001828054610b0890613af6565b8015610b555780601f10610b2a57610100808354040283529160200191610b55565b820191906000526020600020905b815481529060010190602001808311610b3857829003601f168201915b505050505090806005018054610b6a90613af6565b80601f0160208091040260200160405190810160405280929190818152602001828054610b9690613af6565b8015610be35780601f10610bb857610100808354040283529160200191610be3565b820191906000526020600020905b815481529060010190602001808311610bc657829003601f168201915b5050505050905086565b6001600160a01b038516331480610c095750610c0985336106f0565b610c255760405162461bcd60e51b81526004016107e590613b6c565b610c328585858585611d41565b5050505050565b6000610c4481611d37565b610c4e8383611eee565b505050565b6001600160a01b0381163314610cc35760405162461bcd60e51b815260206004820152602f60248201527f416363657373436f6e74726f6c3a2063616e206f6e6c792072656e6f756e636560448201526e103937b632b9903337b91039b2b63360891b60648201526084016107e5565b610ccd8282611f74565b5050565b6001600160a01b037f0000000000000000000000000000000000000000000000000000000000000000163003610d195760405162461bcd60e51b81526004016107e590613bba565b7f00000000000000000000000000000000000000000000000000000000000000006001600160a01b0316610d62600080516020614216833981519152546001600160a01b031690565b6001600160a01b031614610d885760405162461bcd60e51b81526004016107e590613c06565b610d9181611fdb565b60408051600080825260208201909252610dad91839190612005565b50565b7f65d7a28e3265b37a6474929f336521b332c1681b933f6cb9f3376673440d862a610dda81611d37565b610dad612170565b60608151835114610e475760405162461bcd60e51b815260206004820152602960248201527f455243313135353a206163636f756e747320616e6420696473206c656e677468604482015268040dad2e6dac2e8c6d60bb1b60648201526084016107e5565b600083516001600160401b03811115610e6257610e626133a1565b604051908082528060200260200182016040528015610e8b578160200160208202803683370190505b50905060005b8451811015610f0357610ed6858281518110610eaf57610eaf613c52565b6020026020010151858381518110610ec957610ec9613c52565b602002602001015161077e565b828281518110610ee857610ee8613c52565b6020908102919091010152610efc81613b53565b9050610e91565b509392505050565b6001600160a01b037f0000000000000000000000000000000000000000000000000000000000000000163003610f535760405162461bcd60e51b81526004016107e590613bba565b7f00000000000000000000000000000000000000000000000000000000000000006001600160a01b0316610f9c600080516020614216833981519152546001600160a01b031690565b6001600160a01b031614610fc25760405162461bcd60e51b81526004016107e590613c06565b610fcb82611fdb565b610ccd82826001612005565b6000306001600160a01b037f000000000000000000000000000000000000000000000000000000000000000016146110775760405162461bcd60e51b815260206004820152603860248201527f555550535570677261646561626c653a206d757374206e6f742062652063616c60448201527f6c6564207468726f7567682064656c656761746563616c6c000000000000000060648201526084016107e5565b506000805160206142168339815191525b90565b6001600160a01b0383163314806110a757506110a783336106f0565b6110c35760405162461bcd60e51b81526004016107e590613b6c565b610c4e8383836121c2565b60006110d981611d37565b600160008381526101c4602052604090205460ff1660038111156110ff576110ff6132f5565b1461111d5760405163137c9c1f60e31b815260040160405180910390fd5b60008281526101c46020908152604091829020805460ff1916600217905590518381527f8f4352ac8b4aefdd2333162306bbe09dd4f4ff6661e89ccc4e4dcced8794e8f7910160405180910390a15050565b600054610100900460ff161580801561118f5750600054600160ff909116105b806111a95750303b1580156111a9575060005460ff166001145b61120c5760405162461bcd60e51b815260206004820152602e60248201527f496e697469616c697a61626c653a20636f6e747261637420697320616c72656160448201526d191e481a5b9a5d1a585b1a5e995960921b60648201526084016107e5565b6000805460ff19166001179055801561122f576000805461ff0019166101001790555b61124760405180602001604052806000815250612361565b61124f612391565b6112576123ba565b61125f612391565b611267612391565b61126f612391565b61127a600033611eee565b6112a47f7804d923f43a17d325d77e781528e0793b2edd9890ab45fc64efd7b4b427744c33611eee565b6112ce7f65d7a28e3265b37a6474929f336521b332c1681b933f6cb9f3376673440d862a33611eee565b6112f87f189ab7a9244df0848122154315af71fe140f3db0fe014031783b0946b8c9d2e333611eee565b8015610dad576000805461ff0019169055604051600181527f7f26b83ff96e1f2b6a682f133852f6798a09c465da95921460cefb3847402498906020016108fb565b7f65d7a28e3265b37a6474929f336521b332c1681b933f6cb9f3376673440d862a61136481611d37565b610dad6123e9565b60009182526097602090815260408084206001600160a01b0393909316845291905290205460ff1690565b60006113a281611d37565b600260008681526101c4602052604090205460ff1660038111156113c8576113c86132f5565b146113e657604051631f0fb6fd60e11b815260040160405180910390fd5b6101c35460008681526101c46020526040902060010154859161140891613c68565b6114129190613c7b565b34101561143257604051631036b5ad60e31b815260040160405180910390fd5b61143e83868685612426565b6101c35461144c9085613c7b565b6114569034613b40565b60008681526101c4602052604081206002018054909190611478908490613c68565b90915550505050505050565b610ccd33838361254b565b60006101c6548611156114b557604051630f0c4c5f60e41b815260040160405180910390fd5b506101c5546040805160c0810190915280600181526020808201899052600060408084018290526001600160a01b038a1660608501526080840188905260a09093018690528481526101c49091522081518154829060ff19166001836003811115611522576115226132f5565b0217905550602082015160018201556040820151600282015560608201516003820180546001600160a01b0319166001600160a01b03909216919091179055608082015160048201906115759082613cd8565b5060a0820151600582019061158a9082613cd8565b50506101c580549150600061159e83613b53565b91905055507f3deb71b5a6774038a220621d78241405004043d5a928de9c7956bcc5270416db818388886040516115d89493929190613d97565b60405180910390a195945050505050565b606060006101c5546001600160401b03811115611608576116086133a1565b60405190808252806020026020018201604052801561164e57816020015b6040805180820190915260608152600060208201528152602001906001900390816116265790505b50905060005b6101c55481101561174c5760405180604001604052806101c46000848152602001908152602001600020600401805461168c90613af6565b80601f01602080910402602001604051908101604052809291908181526020018280546116b890613af6565b80156117055780601f106116da57610100808354040283529160200191611705565b820191906000526020600020905b8154815290600101906020018083116116e857829003601f168201915b50505050508152602001611719868461077e565b81525082828151811061172e5761172e613c52565b6020026020010181905250808061174490613b53565b915050611654565b5092915050565b60008281526097602052604090206001015461176e81611d37565b610c4e8383611f74565b60008281526101c460205260409020600301546001600160a01b031633146117b35760405163388f811f60e01b815260040160405180910390fd5b60008281526101c460205260409020600201548111156117e657604051637eafab7d60e01b815260040160405180910390fd5b604051600090339083908381818185875af1925050503d8060008114611828576040519150601f19603f3d011682016040523d82523d6000602084013e61182d565b606091505b505090508061184f576040516317f2c34560e31b815260040160405180910390fd5b60008381526101c4602052604081206002018054849290611871908490613b40565b90915550506040805184815260208101849052338183015290517ff1090e9d5138cd4909542e10e1da576730b07eb291a71a151e63160dde345b949181900360600190a1505050565b606060006101c5546001600160401b038111156118d9576118d96133a1565b60405190808252806020026020018201604052801561194d57816020015b61193a6040805160c081019091528060008152602001600081526020016000815260200160006001600160a01b0316815260200160608152602001606081525090565b8152602001906001900390816118f75790505b50905060005b6101c554811015611b235760008181526101c4602052604090819020815160c081019092528054829060ff166003811115611990576119906132f5565b60038111156119a1576119a16132f5565b8152600182015460208201526002820154604082015260038201546001600160a01b031660608201526004820180546080909201916119df90613af6565b80601f0160208091040260200160405190810160405280929190818152602001828054611a0b90613af6565b8015611a585780601f10611a2d57610100808354040283529160200191611a58565b820191906000526020600020905b815481529060010190602001808311611a3b57829003601f168201915b50505050508152602001600582018054611a7190613af6565b80601f0160208091040260200160405190810160405280929190818152602001828054611a9d90613af6565b8015611aea5780601f10611abf57610100808354040283529160200191611aea565b820191906000526020600020905b815481529060010190602001808311611acd57829003601f168201915b505050505081525050828281518110611b0557611b05613c52565b60200260200101819052508080611b1b90613b53565b915050611953565b50919050565b6000611b3481611d37565b60008481526101c4602052604081205460ff166003811115611b5857611b586132f5565b03611b765760405163137c9c1f60e31b815260040160405180910390fd5b60008481526101c460205260409020600401611b928482613cd8565b5060008481526101c460205260409020600501610c328382613cd8565b6001600160a01b038516331480611bcb5750611bcb85336106f0565b611be75760405162461bcd60e51b81526004016107e590613b6c565b610c32858585858561262b565b6001600160a01b038316331480611c105750611c1083336106f0565b611c2c5760405162461bcd60e51b81526004016107e590613b6c565b610c4e838383612767565b60008181526101c460205260409020600301546001600160a01b0316331480611c665750611c6660003361136c565b611c835760405163388f811f60e01b815260040160405180910390fd5b600360008281526101c4602052604090205460ff166003811115611ca957611ca96132f5565b14611cc75760405163968807a560e01b815260040160405180910390fd5b60008181526101c46020908152604091829020805460ff1916600217905590518281527f63bb17c9645a29322601b4fe88d8f3fa84f32229368294f903084be8f5d813ba91016108fb565b60006001600160e01b03198216637965db0b60e01b1480610813575061081382612883565b610dad81336128d3565b8151835114611d625760405162461bcd60e51b81526004016107e590613dd1565b6001600160a01b038416611d885760405162461bcd60e51b81526004016107e590613e19565b33611d9781878787878761292c565b60005b8451811015611e80576000858281518110611db757611db7613c52565b602002602001015190506000858381518110611dd557611dd5613c52565b60209081029190910181015160008481526065835260408082206001600160a01b038e168352909352919091205490915081811015611e265760405162461bcd60e51b81526004016107e590613e5e565b60008381526065602090815260408083206001600160a01b038e8116855292528083208585039055908b16825281208054849290611e65908490613c68565b9250508190555050505080611e7990613b53565b9050611d9a565b50846001600160a01b0316866001600160a01b0316826001600160a01b03167f4a39dc06d4c0dbc64b70af90fd698a233a518aa5d07e595d983b8c0526c8f7fb8787604051611ed0929190613ea8565b60405180910390a4611ee6818787878787612942565b505050505050565b611ef8828261136c565b610ccd5760008281526097602090815260408083206001600160a01b03851684529091529020805460ff19166001179055611f303390565b6001600160a01b0316816001600160a01b0316837f2f8788117e7eff1d82e926ec794901d17c78024a50270940304540a733656f0d60405160405180910390a45050565b611f7e828261136c565b15610ccd5760008281526097602090815260408083206001600160a01b0385168085529252808320805460ff1916905551339285917ff6391f5c32d9c69d2a47ea670b442974b53935d1edc7fd64eb21e047a839171b9190a45050565b7f189ab7a9244df0848122154315af71fe140f3db0fe014031783b0946b8c9d2e3610ccd81611d37565b7f4910fdfa16fed3260ed0e7147f7cc6da11a60208b5b9406d12a635614ffd91435460ff161561203857610c4e83612a9d565b826001600160a01b03166352d1902d6040518163ffffffff1660e01b8152600401602060405180830381865afa925050508015612092575060408051601f3d908101601f1916820190925261208f91810190613ed6565b60015b6120f55760405162461bcd60e51b815260206004820152602e60248201527f45524331393637557067726164653a206e657720696d706c656d656e7461746960448201526d6f6e206973206e6f74205555505360901b60648201526084016107e5565b60008051602061421683398151915281146121645760405162461bcd60e51b815260206004820152602960248201527f45524331393637557067726164653a20756e737570706f727465642070726f786044820152681a58589b195555525160ba1b60648201526084016107e5565b50610c4e838383612b39565b612178612b5e565b60c9805460ff191690557f5db9ee0a495bf2e6ff9c91a7834c1ba4fdd244a5e8aa4e537bd38aeae4b073aa335b6040516001600160a01b03909116815260200160405180910390a1565b6001600160a01b0383166121e85760405162461bcd60e51b81526004016107e590613eef565b80518251146122095760405162461bcd60e51b81526004016107e590613dd1565b600033905061222c8185600086866040518060200160405280600081525061292c565b60005b83518110156122f457600084828151811061224c5761224c613c52565b60200260200101519050600084838151811061226a5761226a613c52565b60209081029190910181015160008481526065835260408082206001600160a01b038c1683529093529190912054909150818110156122bb5760405162461bcd60e51b81526004016107e590613f32565b60009283526065602090815260408085206001600160a01b038b16865290915290922091039055806122ec81613b53565b91505061222f565b5060006001600160a01b0316846001600160a01b0316826001600160a01b03167f4a39dc06d4c0dbc64b70af90fd698a233a518aa5d07e595d983b8c0526c8f7fb8686604051612345929190613ea8565b60405180910390a4604080516020810190915260009052610a91565b600054610100900460ff166123885760405162461bcd60e51b81526004016107e590613f76565b610dad81612ba7565b600054610100900460ff166123b85760405162461bcd60e51b81526004016107e590613f76565b565b600054610100900460ff166123e15760405162461bcd60e51b81526004016107e590613f76565b6123b8612bd7565b6123f1612c0a565b60c9805460ff191660011790557f62e78cea01bee320cd4e420270b5ea74000d11b0c9f74754ebdbfc544b05a2586121a53390565b6001600160a01b0384166124865760405162461bcd60e51b815260206004820152602160248201527f455243313135353a206d696e7420746f20746865207a65726f206164647265736044820152607360f81b60648201526084016107e5565b33600061249285612c50565b9050600061249f85612c50565b90506124b08360008985858961292c565b60008681526065602090815260408083206001600160a01b038b168452909152812080548792906124e2908490613c68565b909155505060408051878152602081018790526001600160a01b03808a1692600092918716917fc3d58168c5ae7397731d063d5bbf3d657854427343f4c083240f7aacaa2d0f62910160405180910390a461254283600089898989612c9b565b50505050505050565b816001600160a01b0316836001600160a01b0316036125be5760405162461bcd60e51b815260206004820152602960248201527f455243313135353a2073657474696e6720617070726f76616c20737461747573604482015268103337b91039b2b63360b91b60648201526084016107e5565b6001600160a01b03838116600081815260666020908152604080832094871680845294825291829020805460ff191686151590811790915591519182527f17307eab39ab6107e8899845ad3d59bd9653f200f220920489ca2b5937696c31910160405180910390a3505050565b6001600160a01b0384166126515760405162461bcd60e51b81526004016107e590613e19565b33600061265d85612c50565b9050600061266a85612c50565b905061267a83898985858961292c565b60008681526065602090815260408083206001600160a01b038c168452909152902054858110156126bd5760405162461bcd60e51b81526004016107e590613e5e565b60008781526065602090815260408083206001600160a01b038d8116855292528083208985039055908a168252812080548892906126fc908490613c68565b909155505060408051888152602081018890526001600160a01b03808b16928c821692918816917fc3d58168c5ae7397731d063d5bbf3d657854427343f4c083240f7aacaa2d0f62910160405180910390a461275c848a8a8a8a8a612c9b565b505050505050505050565b6001600160a01b03831661278d5760405162461bcd60e51b81526004016107e590613eef565b33600061279984612c50565b905060006127a684612c50565b90506127c68387600085856040518060200160405280600081525061292c565b60008581526065602090815260408083206001600160a01b038a168452909152902054848110156128095760405162461bcd60e51b81526004016107e590613f32565b60008681526065602090815260408083206001600160a01b038b81168086529184528285208a8703905582518b81529384018a90529092908816917fc3d58168c5ae7397731d063d5bbf3d657854427343f4c083240f7aacaa2d0f62910160405180910390a4604080516020810190915260009052612542565b60006001600160e01b03198216636cdb3d1360e11b14806128b457506001600160e01b031982166303a24d0760e21b145b8061081357506301ffc9a760e01b6001600160e01b0319831614610813565b6128dd828261136c565b610ccd576128ea81612d56565b6128f5836020612d68565b604051602001612906929190613fc1565b60408051601f198184030181529082905262461bcd60e51b82526107e5916004016132e2565b612934612c0a565b611ee6868686868686612f0a565b6001600160a01b0384163b15611ee65760405163bc197c8160e01b81526001600160a01b0385169063bc197c81906129869089908990889088908890600401614036565b6020604051808303816000875af19250505080156129c1575060408051601f3d908101601f191682019092526129be91810190614094565b60015b612a6d576129cd6140b1565b806308c379a003612a0657506129e16140cc565b806129ec5750612a08565b8060405162461bcd60e51b81526004016107e591906132e2565b505b60405162461bcd60e51b815260206004820152603460248201527f455243313135353a207472616e7366657220746f206e6f6e2d455243313135356044820152732932b1b2b4bb32b91034b6b83632b6b2b73a32b960611b60648201526084016107e5565b6001600160e01b0319811663bc197c8160e01b146125425760405162461bcd60e51b81526004016107e590614155565b6001600160a01b0381163b612b0a5760405162461bcd60e51b815260206004820152602d60248201527f455243313936373a206e657720696d706c656d656e746174696f6e206973206e60448201526c1bdd08184818dbdb9d1c9858dd609a1b60648201526084016107e5565b60008051602061421683398151915280546001600160a01b0319166001600160a01b0392909216919091179055565b612b4283613086565b600082511180612b4f5750805b15610c4e57610a9183836130c6565b60c95460ff166123b85760405162461bcd60e51b815260206004820152601460248201527314185d5cd8589b194e881b9bdd081c185d5cd95960621b60448201526064016107e5565b600054610100900460ff16612bce5760405162461bcd60e51b81526004016107e590613f76565b610dad816130eb565b600054610100900460ff16612bfe5760405162461bcd60e51b81526004016107e590613f76565b60c9805460ff19169055565b60c95460ff16156123b85760405162461bcd60e51b815260206004820152601060248201526f14185d5cd8589b194e881c185d5cd95960821b60448201526064016107e5565b60408051600180825281830190925260609160009190602080830190803683370190505090508281600081518110612c8a57612c8a613c52565b602090810291909101015292915050565b6001600160a01b0384163b15611ee65760405163f23a6e6160e01b81526001600160a01b0385169063f23a6e6190612cdf908990899088908890889060040161419d565b6020604051808303816000875af1925050508015612d1a575060408051601f3d908101601f19168201909252612d1791810190614094565b60015b612d26576129cd6140b1565b6001600160e01b0319811663f23a6e6160e01b146125425760405162461bcd60e51b81526004016107e590614155565b60606108136001600160a01b03831660145b60606000612d77836002613c7b565b612d82906002613c68565b6001600160401b03811115612d9957612d996133a1565b6040519080825280601f01601f191660200182016040528015612dc3576020820181803683370190505b509050600360fc1b81600081518110612dde57612dde613c52565b60200101906001600160f81b031916908160001a905350600f60fb1b81600181518110612e0d57612e0d613c52565b60200101906001600160f81b031916908160001a9053506000612e31846002613c7b565b612e3c906001613c68565b90505b6001811115612eb4576f181899199a1a9b1b9c1cb0b131b232b360811b85600f1660108110612e7057612e70613c52565b1a60f81b828281518110612e8657612e86613c52565b60200101906001600160f81b031916908160001a90535060049490941c93612ead816141e2565b9050612e3f565b508315612f035760405162461bcd60e51b815260206004820181905260248201527f537472696e67733a20686578206c656e67746820696e73756666696369656e7460448201526064016107e5565b9392505050565b6001600160a01b038516612f925760005b8351811015612f9057828181518110612f3657612f36613c52565b602002602001015161012d6000868481518110612f5557612f55613c52565b602002602001015181526020019081526020016000206000828254612f7a9190613c68565b90915550612f89905081613b53565b9050612f1b565b505b6001600160a01b038416611ee65760005b8351811015612542576000848281518110612fc057612fc0613c52565b602002602001015190506000848381518110612fde57612fde613c52565b60200260200101519050600061012d6000848152602001908152602001600020549050818110156130625760405162461bcd60e51b815260206004820152602860248201527f455243313135353a206275726e20616d6f756e74206578636565647320746f74604482015267616c537570706c7960c01b60648201526084016107e5565b600092835261012d60205260409092209103905561307f81613b53565b9050612fa3565b61308f81612a9d565b6040516001600160a01b038216907fbc7cd75a20ee27fd9adebab32041f755214dbc6bffa90cc0225b39da2e5c2d3b90600090a250565b6060612f038383604051806060016040528060278152602001614236602791396130f7565b6067610ccd8282613cd8565b6060600080856001600160a01b03168560405161311491906141f9565b600060405180830381855af49150503d806000811461314f576040519150601f19603f3d011682016040523d82523d6000602084013e613154565b606091505b50915091506131658683838761316f565b9695505050505050565b606083156131de5782516000036131d7576001600160a01b0385163b6131d75760405162461bcd60e51b815260206004820152601d60248201527f416464726573733a2063616c6c20746f206e6f6e2d636f6e747261637400000060448201526064016107e5565b50816131e8565b6131e883836131f0565b949350505050565b8151156129ec5781518083602001fd5b80356001600160a01b038116811461321757600080fd5b919050565b6000806040838503121561322f57600080fd5b61323883613200565b946020939093013593505050565b6001600160e01b031981168114610dad57600080fd5b60006020828403121561326e57600080fd5b8135612f0381613246565b60006020828403121561328b57600080fd5b5035919050565b60005b838110156132ad578181015183820152602001613295565b50506000910152565b600081518084526132ce816020860160208601613292565b601f01601f19169290920160200192915050565b602081526000612f0360208301846132b6565b634e487b7160e01b600052602160045260246000fd5b6004811061332957634e487b7160e01b600052602160045260246000fd5b9052565b613337818861330b565b85602082015284604082015260018060a01b038416606082015260c06080820152600061336760c08301856132b6565b82810360a084015261337981856132b6565b9998505050505050505050565b60006020828403121561339857600080fd5b612f0382613200565b634e487b7160e01b600052604160045260246000fd5b601f8201601f191681016001600160401b03811182821017156133dc576133dc6133a1565b6040525050565b60006001600160401b038211156133fc576133fc6133a1565b5060051b60200190565b600082601f83011261341757600080fd5b81356020613424826133e3565b60405161343182826133b7565b83815260059390931b850182019282810191508684111561345157600080fd5b8286015b8481101561346c5780358352918301918301613455565b509695505050505050565b600082601f83011261348857600080fd5b81356001600160401b038111156134a1576134a16133a1565b6040516134b8601f8301601f1916602001826133b7565b8181528460208386010111156134cd57600080fd5b816020850160208301376000918101602001919091529392505050565b600080600080600060a0868803121561350257600080fd5b61350b86613200565b945061351960208701613200565b935060408601356001600160401b038082111561353557600080fd5b61354189838a01613406565b9450606088013591508082111561355757600080fd5b61356389838a01613406565b9350608088013591508082111561357957600080fd5b5061358688828901613477565b9150509295509295909350565b600080604083850312156135a657600080fd5b823591506135b660208401613200565b90509250929050565b600080604083850312156135d257600080fd5b82356001600160401b03808211156135e957600080fd5b818501915085601f8301126135fd57600080fd5b8135602061360a826133e3565b60405161361782826133b7565b83815260059390931b850182019282810191508984111561363757600080fd5b948201945b8386101561365c5761364d86613200565b8252948201949082019061363c565b9650508601359250508082111561367257600080fd5b5061367f85828601613406565b9150509250929050565b600081518084526020808501945080840160005b838110156136b95781518752958201959082019060010161369d565b509495945050505050565b602081526000612f036020830184613689565b600080604083850312156136ea57600080fd5b6136f383613200565b915060208301356001600160401b0381111561370e57600080fd5b61367f85828601613477565b60008060006060848603121561372f57600080fd5b61373884613200565b925060208401356001600160401b038082111561375457600080fd5b61376087838801613406565b9350604086013591508082111561377657600080fd5b5061378386828701613406565b9150509250925092565b600080600080608085870312156137a357600080fd5b84359350602085013592506137ba60408601613200565b915060608501356001600160401b038111156137d557600080fd5b6137e187828801613477565b91505092959194509250565b6000806040838503121561380057600080fd5b61380983613200565b91506020830135801515811461381e57600080fd5b809150509250929050565b600080600080600060a0868803121561384157600080fd5b8535945061385160208701613200565b935061385f60408701613200565b925060608601356001600160401b038082111561387b57600080fd5b61356389838a01613477565b60006020808301818452808551808352604092508286019150828160051b87010184880160005b838110156138ef57888303603f19018552815180518785526138d2888601826132b6565b9189015194890194909452948701949250908601906001016138ae565b509098975050505050505050565b6000806040838503121561391057600080fd5b50508035926020909101359150565b60006020808301818452808551808352604092508286019150828160051b87010184880160005b838110156138ef57603f19898403018552815160c061396685835161330b565b81890151858a015287820151888601526060808301516001600160a01b0316908601526080808301518187018390526139a1838801826132b6565b9250505060a080830151925085820381870152506139bf81836132b6565b968901969450505090860190600101613946565b6000806000606084860312156139e857600080fd5b8335925060208401356001600160401b0380821115613a0657600080fd5b613a1287838801613477565b93506040860135915080821115613a2857600080fd5b5061378386828701613477565b60008060408385031215613a4857600080fd5b613a5183613200565b91506135b660208401613200565b600080600080600060a08688031215613a7757600080fd5b613a8086613200565b9450613a8e60208701613200565b9350604086013592506060860135915060808601356001600160401b03811115613ab757600080fd5b61358688828901613477565b600080600060608486031215613ad857600080fd5b613ae184613200565b95602085013595506040909401359392505050565b600181811c90821680613b0a57607f821691505b602082108103611b2357634e487b7160e01b600052602260045260246000fd5b634e487b7160e01b600052601160045260246000fd5b8181038181111561081357610813613b2a565b600060018201613b6557613b65613b2a565b5060010190565b6020808252602e908201527f455243313135353a2063616c6c6572206973206e6f7420746f6b656e206f776e60408201526d195c881bdc88185c1c1c9bdd995960921b606082015260800190565b6020808252602c908201527f46756e6374696f6e206d7573742062652063616c6c6564207468726f7567682060408201526b19195b1959d85d1958d85b1b60a21b606082015260800190565b6020808252602c908201527f46756e6374696f6e206d7573742062652063616c6c6564207468726f7567682060408201526b6163746976652070726f787960a01b606082015260800190565b634e487b7160e01b600052603260045260246000fd5b8082018082111561081357610813613b2a565b808202811582820484141761081357610813613b2a565b601f821115610c4e57600081815260208120601f850160051c81016020861015613cb95750805b601f850160051c820191505b81811015611ee657828155600101613cc5565b81516001600160401b03811115613cf157613cf16133a1565b613d0581613cff8454613af6565b84613c92565b602080601f831160018114613d3a5760008415613d225750858301515b600019600386901b1c1916600185901b178555611ee6565b600085815260208120601f198616915b82811015613d6957888601518255948401946001909101908401613d4a565b5085821015613d875787850151600019600388901b60f8161c191681555b5050505050600190811b01905550565b848152608060208201526000613db060808301866132b6565b6040830194909452506001600160a01b039190911660609091015292915050565b60208082526028908201527f455243313135353a2069647320616e6420616d6f756e7473206c656e677468206040820152670dad2e6dac2e8c6d60c31b606082015260800190565b60208082526025908201527f455243313135353a207472616e7366657220746f20746865207a65726f206164604082015264647265737360d81b606082015260800190565b6020808252602a908201527f455243313135353a20696e73756666696369656e742062616c616e636520666f60408201526939103a3930b739b332b960b11b606082015260800190565b604081526000613ebb6040830185613689565b8281036020840152613ecd8185613689565b95945050505050565b600060208284031215613ee857600080fd5b5051919050565b60208082526023908201527f455243313135353a206275726e2066726f6d20746865207a65726f206164647260408201526265737360e81b606082015260800190565b60208082526024908201527f455243313135353a206275726e20616d6f756e7420657863656564732062616c604082015263616e636560e01b606082015260800190565b6020808252602b908201527f496e697469616c697a61626c653a20636f6e7472616374206973206e6f74206960408201526a6e697469616c697a696e6760a81b606082015260800190565b7f416363657373436f6e74726f6c3a206163636f756e7420000000000000000000815260008351613ff9816017850160208801613292565b7001034b99036b4b9b9b4b733903937b6329607d1b601791840191820152835161402a816028840160208801613292565b01602801949350505050565b6001600160a01b0386811682528516602082015260a06040820181905260009061406290830186613689565b82810360608401526140748186613689565b9050828103608084015261408881856132b6565b98975050505050505050565b6000602082840312156140a657600080fd5b8151612f0381613246565b600060033d11156110885760046000803e5060005160e01c90565b600060443d10156140da5790565b6040516003193d81016004833e81513d6001600160401b03816024840111818411171561410957505050505090565b82850191508151818111156141215750505050505090565b843d870101602082850101111561413b5750505050505090565b61414a602082860101876133b7565b509095945050505050565b60208082526028908201527f455243313135353a204552433131353552656365697665722072656a656374656040820152676420746f6b656e7360c01b606082015260800190565b6001600160a01b03868116825285166020820152604081018490526060810183905260a0608082018190526000906141d7908301846132b6565b979650505050505050565b6000816141f1576141f1613b2a565b506000190190565b6000825161420b818460208701613292565b919091019291505056fe360894a13ba1a3210667c828492db98dca3e2076cc3735a920a3ca505d382bbc416464726573733a206c6f772d6c6576656c2064656c65676174652063616c6c206661696c6564a264697066735822122063b2a25178ea9376d114d2517b5625041c9d174c5f4e2fe15d860928d1a6afae64736f6c63430008130033",
  "linkReferences": {},
  "deployedLinkReferences": {}
}