{
  "_format": "hh-sol-artifact-1",
  "contractName": "Editions",
  "sourceName": "src/Editions/Editions.sol",
  "abi": [
    {
      "inputs": [],
      "stateMutability": "nonpayable",
      "type": "constructor"
    },
    {
      "inputs": [],
      "name": "EditionFeeExceedsMaximumFee",
      "type": "error"
    },
    {
      "inputs": [],
      "name": "EditionNotCreated",
      "type": "error"
    },
    {
      "inputs": [],
      "name": "EditionNotEnoughBalance",
      "type": "error"
    },
    {
      "inputs": [],
      "name": "EditionNotLaunched",
      "type": "error"
    },
    {
      "inputs": [],
      "name": "EditionNotStopped",
      "type": "error"
    },
    {
      "inputs": [],
      "name": "NotCorrectUser",
      "type": "error"
    },
    {
      "inputs": [],
      "name": "NotEditionOwner",
      "type": "error"
    },
    {
      "inputs": [],
      "name": "NotEnoughFees",
      "type": "error"
    },
    {
      "inputs": [],
      "name": "NotEnoughFunds",
      "type": "error"
    },
    {
      "inputs": [],
      "name": "TransactionFailed",
      "type": "error"
    },
    {
      "anonymous": false,
      "inputs": [
        {
          "indexed": false,
          "internalType": "address",
          "name": "previousAdmin",
          "type": "address"
        },
        {
          "indexed": false,
          "internalType": "address",
          "name": "newAdmin",
          "type": "address"
        }
      ],
      "name": "AdminChanged",
      "type": "event"
    },
    {
      "anonymous": false,
      "inputs": [
        {
          "indexed": true,
          "internalType": "address",
          "name": "account",
          "type": "address"
        },
        {
          "indexed": true,
          "internalType": "address",
          "name": "operator",
          "type": "address"
        },
        {
          "indexed": false,
          "internalType": "bool",
          "name": "approved",
          "type": "bool"
        }
      ],
      "name": "ApprovalForAll",
      "type": "event"
    },
    {
      "anonymous": false,
      "inputs": [
        {
          "indexed": true,
          "internalType": "address",
          "name": "beacon",
          "type": "address"
        }
      ],
      "name": "BeaconUpgraded",
      "type": "event"
    },
    {
      "anonymous": false,
      "inputs": [
        {
          "indexed": false,
          "internalType": "uint256",
          "name": "editionId",
          "type": "uint256"
        }
      ],
      "name": "EditionApproved",
      "type": "event"
    },
    {
      "anonymous": false,
      "inputs": [
        {
          "indexed": false,
          "internalType": "uint256",
          "name": "editionId",
          "type": "uint256"
        },
        {
          "indexed": false,
          "internalType": "uint256",
          "name": "amount",
          "type": "uint256"
        },
        {
          "indexed": false,
          "internalType": "address",
          "name": "owner",
          "type": "address"
        }
      ],
      "name": "EditionBalanceWithdrawn",
      "type": "event"
    },
    {
      "anonymous": false,
      "inputs": [
        {
          "indexed": true,
          "internalType": "uint256",
          "name": "editionId",
          "type": "uint256"
        },
        {
          "indexed": true,
          "internalType": "address",
          "name": "believer",
          "type": "address"
        }
      ],
      "name": "EditionBeliefRemoved",
      "type": "event"
    },
    {
      "anonymous": false,
      "inputs": [
        {
          "indexed": true,
          "internalType": "uint256",
          "name": "editionId",
          "type": "uint256"
        },
        {
          "indexed": true,
          "internalType": "address",
          "name": "believer",
          "type": "address"
        },
        {
          "indexed": false,
          "internalType": "string",
          "name": "tags",
          "type": "string"
        }
      ],
      "name": "EditionBelieved",
      "type": "event"
    },
    {
      "anonymous": false,
      "inputs": [
        {
          "indexed": false,
          "internalType": "uint256",
          "name": "editionId",
          "type": "uint256"
        },
        {
          "indexed": false,
          "internalType": "string",
          "name": "briefId",
          "type": "string"
        },
        {
          "indexed": false,
          "internalType": "uint256",
          "name": "fee",
          "type": "uint256"
        },
        {
          "indexed": false,
          "internalType": "address",
          "name": "owner",
          "type": "address"
        }
      ],
      "name": "EditionCreated",
      "type": "event"
    },
    {
      "anonymous": false,
      "inputs": [
        {
          "indexed": false,
          "internalType": "uint256",
          "name": "editionId",
          "type": "uint256"
        }
      ],
      "name": "EditionResumed",
      "type": "event"
    },
    {
      "anonymous": false,
      "inputs": [
        {
          "indexed": false,
          "internalType": "uint256",
          "name": "editionId",
          "type": "uint256"
        }
      ],
      "name": "EditionStopped",
      "type": "event"
    },
    {
      "anonymous": false,
      "inputs": [
        {
          "indexed": false,
          "internalType": "uint8",
          "name": "version",
          "type": "uint8"
        }
      ],
      "name": "Initialized",
      "type": "event"
    },
    {
      "anonymous": false,
      "inputs": [
        {
          "indexed": false,
          "internalType": "address",
          "name": "account",
          "type": "address"
        }
      ],
      "name": "Paused",
      "type": "event"
    },
    {
      "anonymous": false,
      "inputs": [
        {
          "indexed": true,
          "internalType": "bytes32",
          "name": "role",
          "type": "bytes32"
        },
        {
          "indexed": true,
          "internalType": "bytes32",
          "name": "previousAdminRole",
          "type": "bytes32"
        },
        {
          "indexed": true,
          "internalType": "bytes32",
          "name": "newAdminRole",
          "type": "bytes32"
        }
      ],
      "name": "RoleAdminChanged",
      "type": "event"
    },
    {
      "anonymous": false,
      "inputs": [
        {
          "indexed": true,
          "internalType": "bytes32",
          "name": "role",
          "type": "bytes32"
        },
        {
          "indexed": true,
          "internalType": "address",
          "name": "account",
          "type": "address"
        },
        {
          "indexed": true,
          "internalType": "address",
          "name": "sender",
          "type": "address"
        }
      ],
      "name": "RoleGranted",
      "type": "event"
    },
    {
      "anonymous": false,
      "inputs": [
        {
          "indexed": true,
          "internalType": "bytes32",
          "name": "role",
          "type": "bytes32"
        },
        {
          "indexed": true,
          "internalType": "address",
          "name": "account",
          "type": "address"
        },
        {
          "indexed": true,
          "internalType": "address",
          "name": "sender",
          "type": "address"
        }
      ],
      "name": "RoleRevoked",
      "type": "event"
    },
    {
      "anonymous": false,
      "inputs": [
        {
          "indexed": true,
          "internalType": "address",
          "name": "operator",
          "type": "address"
        },
        {
          "indexed": true,
          "internalType": "address",
          "name": "from",
          "type": "address"
        },
        {
          "indexed": true,
          "internalType": "address",
          "name": "to",
          "type": "address"
        },
        {
          "indexed": false,
          "internalType": "uint256[]",
          "name": "ids",
          "type": "uint256[]"
        },
        {
          "indexed": false,
          "internalType": "uint256[]",
          "name": "values",
          "type": "uint256[]"
        }
      ],
      "name": "TransferBatch",
      "type": "event"
    },
    {
      "anonymous": false,
      "inputs": [
        {
          "indexed": true,
          "internalType": "address",
          "name": "operator",
          "type": "address"
        },
        {
          "indexed": true,
          "internalType": "address",
          "name": "from",
          "type": "address"
        },
        {
          "indexed": true,
          "internalType": "address",
          "name": "to",
          "type": "address"
        },
        {
          "indexed": false,
          "internalType": "uint256",
          "name": "id",
          "type": "uint256"
        },
        {
          "indexed": false,
          "internalType": "uint256",
          "name": "value",
          "type": "uint256"
        }
      ],
      "name": "TransferSingle",
      "type": "event"
    },
    {
      "anonymous": false,
      "inputs": [
        {
          "indexed": false,
          "internalType": "string",
          "name": "value",
          "type": "string"
        },
        {
          "indexed": true,
          "internalType": "uint256",
          "name": "id",
          "type": "uint256"
        }
      ],
      "name": "URI",
      "type": "event"
    },
    {
      "anonymous": false,
      "inputs": [
        {
          "indexed": false,
          "internalType": "address",
          "name": "account",
          "type": "address"
        }
      ],
      "name": "Unpaused",
      "type": "event"
    },
    {
      "anonymous": false,
      "inputs": [
        {
          "indexed": true,
          "internalType": "address",
          "name": "implementation",
          "type": "address"
        }
      ],
      "name": "Upgraded",
      "type": "event"
    },
    {
      "stateMutability": "payable",
      "type": "fallback"
    },
    {
      "inputs": [],
      "name": "DEFAULT_ADMIN_ROLE",
      "outputs": [
        {
          "internalType": "bytes32",
          "name": "",
          "type": "bytes32"
        }
      ],
      "stateMutability": "view",
      "type": "function"
    },
    {
      "inputs": [
        {
          "internalType": "uint256",
          "name": "editionId",
          "type": "uint256"
        }
      ],
      "name": "approveEdition",
      "outputs": [],
      "stateMutability": "nonpayable",
      "type": "function"
    },
    {
      "inputs": [
        {
          "internalType": "address",
          "name": "account",
          "type": "address"
        },
        {
          "internalType": "uint256",
          "name": "id",
          "type": "uint256"
        }
      ],
      "name": "balanceOf",
      "outputs": [
        {
          "internalType": "uint256",
          "name": "",
          "type": "uint256"
        }
      ],
      "stateMutability": "view",
      "type": "function"
    },
    {
      "inputs": [
        {
          "internalType": "address[]",
          "name": "accounts",
          "type": "address[]"
        },
        {
          "internalType": "uint256[]",
          "name": "ids",
          "type": "uint256[]"
        }
      ],
      "name": "balanceOfBatch",
      "outputs": [
        {
          "internalType": "uint256[]",
          "name": "",
          "type": "uint256[]"
        }
      ],
      "stateMutability": "view",
      "type": "function"
    },
    {
      "inputs": [
        {
          "internalType": "uint256",
          "name": "editionId",
          "type": "uint256"
        },
        {
          "internalType": "string",
          "name": "tags",
          "type": "string"
        }
      ],
      "name": "believeProject",
      "outputs": [],
      "stateMutability": "nonpayable",
      "type": "function"
    },
    {
      "inputs": [
        {
          "internalType": "address",
          "name": "account",
          "type": "address"
        },
        {
          "internalType": "uint256",
          "name": "id",
          "type": "uint256"
        },
        {
          "internalType": "uint256",
          "name": "value",
          "type": "uint256"
        }
      ],
      "name": "burn",
      "outputs": [],
      "stateMutability": "nonpayable",
      "type": "function"
    },
    {
      "inputs": [
        {
          "internalType": "address",
          "name": "account",
          "type": "address"
        },
        {
          "internalType": "uint256[]",
          "name": "ids",
          "type": "uint256[]"
        },
        {
          "internalType": "uint256[]",
          "name": "values",
          "type": "uint256[]"
        }
      ],
      "name": "burnBatch",
      "outputs": [],
      "stateMutability": "nonpayable",
      "type": "function"
    },
    {
      "inputs": [
        {
          "internalType": "uint256",
          "name": "fee",
          "type": "uint256"
        },
        {
          "internalType": "address",
          "name": "owner",
          "type": "address"
        },
        {
          "internalType": "address",
          "name": "payer",
          "type": "address"
        },
        {
          "internalType": "string",
          "name": "id",
          "type": "string"
        },
        {
          "internalType": "string",
          "name": "briefId",
          "type": "string"
        }
      ],
      "name": "createEdition",
      "outputs": [
        {
          "internalType": "uint256",
          "name": "editionId",
          "type": "uint256"
        }
      ],
      "stateMutability": "nonpayable",
      "type": "function"
    },
    {
      "inputs": [],
      "name": "editionCounter",
      "outputs": [
        {
          "internalType": "uint256",
          "name": "",
          "type": "uint256"
        }
      ],
      "stateMutability": "view",
      "type": "function"
    },
    {
      "inputs": [
        {
          "internalType": "uint256",
          "name": "",
          "type": "uint256"
        }
      ],
      "name": "editions",
      "outputs": [
        {
          "internalType": "enum EditionsStructs.EditionStatus",
          "name": "status",
          "type": "uint8"
        },
        {
          "internalType": "uint256",
          "name": "fee",
          "type": "uint256"
        },
        {
          "internalType": "uint256",
          "name": "balance",
          "type": "uint256"
        },
        {
          "internalType": "address",
          "name": "owner",
          "type": "address"
        },
        {
          "internalType": "string",
          "name": "id",
          "type": "string"
        },
        {
          "internalType": "string",
          "name": "briefId",
          "type": "string"
        }
      ],
      "stateMutability": "view",
      "type": "function"
    },
    {
      "inputs": [
        {
          "internalType": "uint256",
          "name": "id",
          "type": "uint256"
        }
      ],
      "name": "exists",
      "outputs": [
        {
          "internalType": "bool",
          "name": "",
          "type": "bool"
        }
      ],
      "stateMutability": "view",
      "type": "function"
    },
    {
      "inputs": [
        {
          "internalType": "address",
          "name": "owner",
          "type": "address"
        }
      ],
      "name": "getBalances",
      "outputs": [
        {
          "components": [
            {
              "internalType": "string",
              "name": "id",
              "type": "string"
            },
            {
              "internalType": "uint256",
              "name": "amount",
              "type": "uint256"
            }
          ],
          "internalType": "struct EditionsStructs.EditionIdWithAmount[]",
          "name": "",
          "type": "tuple[]"
        }
      ],
      "stateMutability": "view",
      "type": "function"
    },
    {
      "inputs": [],
      "name": "getEditions",
      "outputs": [
        {
          "components": [
            {
              "internalType": "enum EditionsStructs.EditionStatus",
              "name": "status",
              "type": "uint8"
            },
            {
              "internalType": "uint256",
              "name": "fee",
              "type": "uint256"
            },
            {
              "internalType": "uint256",
              "name": "balance",
              "type": "uint256"
            },
            {
              "internalType": "address",
              "name": "owner",
              "type": "address"
            },
            {
              "internalType": "string",
              "name": "id",
              "type": "string"
            },
            {
              "internalType": "string",
              "name": "briefId",
              "type": "string"
            }
          ],
          "internalType": "struct EditionsStructs.Edition[]",
          "name": "",
          "type": "tuple[]"
        }
      ],
      "stateMutability": "view",
      "type": "function"
    },
    {
      "inputs": [
        {
          "internalType": "bytes32",
          "name": "role",
          "type": "bytes32"
        }
      ],
      "name": "getRoleAdmin",
      "outputs": [
        {
          "internalType": "bytes32",
          "name": "",
          "type": "bytes32"
        }
      ],
      "stateMutability": "view",
      "type": "function"
    },
    {
      "inputs": [
        {
          "internalType": "bytes32",
          "name": "role",
          "type": "bytes32"
        },
        {
          "internalType": "address",
          "name": "account",
          "type": "address"
        }
      ],
      "name": "grantRole",
      "outputs": [],
      "stateMutability": "nonpayable",
      "type": "function"
    },
    {
      "inputs": [
        {
          "internalType": "bytes32",
          "name": "role",
          "type": "bytes32"
        },
        {
          "internalType": "address",
          "name": "account",
          "type": "address"
        }
      ],
      "name": "hasRole",
      "outputs": [
        {
          "internalType": "bool",
          "name": "",
          "type": "bool"
        }
      ],
      "stateMutability": "view",
      "type": "function"
    },
    {
      "inputs": [],
      "name": "initialize",
      "outputs": [],
      "stateMutability": "nonpayable",
      "type": "function"
    },
    {
      "inputs": [
        {
          "internalType": "address",
          "name": "account",
          "type": "address"
        },
        {
          "internalType": "address",
          "name": "operator",
          "type": "address"
        }
      ],
      "name": "isApprovedForAll",
      "outputs": [
        {
          "internalType": "bool",
          "name": "",
          "type": "bool"
        }
      ],
      "stateMutability": "view",
      "type": "function"
    },
    {
      "inputs": [],
      "name": "maximumEditionFee",
      "outputs": [
        {
          "internalType": "uint256",
          "name": "",
          "type": "uint256"
        }
      ],
      "stateMutability": "view",
      "type": "function"
    },
    {
      "inputs": [
        {
          "internalType": "uint256",
          "name": "editionId",
          "type": "uint256"
        },
        {
          "internalType": "uint256",
          "name": "amount",
          "type": "uint256"
        },
        {
          "internalType": "address",
          "name": "buyer",
          "type": "address"
        },
        {
          "internalType": "bytes",
          "name": "data",
          "type": "bytes"
        }
      ],
      "name": "mintEdition",
      "outputs": [],
      "stateMutability": "payable",
      "type": "function"
    },
    {
      "inputs": [],
      "name": "pause",
      "outputs": [],
      "stateMutability": "nonpayable",
      "type": "function"
    },
    {
      "inputs": [],
      "name": "paused",
      "outputs": [
        {
          "internalType": "bool",
          "name": "",
          "type": "bool"
        }
      ],
      "stateMutability": "view",
      "type": "function"
    },
    {
      "inputs": [],
      "name": "protocolFee",
      "outputs": [
        {
          "internalType": "uint256",
          "name": "",
          "type": "uint256"
        }
      ],
      "stateMutability": "view",
      "type": "function"
    },
    {
      "inputs": [],
      "name": "proxiableUUID",
      "outputs": [
        {
          "internalType": "bytes32",
          "name": "",
          "type": "bytes32"
        }
      ],
      "stateMutability": "view",
      "type": "function"
    },
    {
      "inputs": [
        {
          "internalType": "uint256",
          "name": "editionId",
          "type": "uint256"
        }
      ],
      "name": "removeBelief",
      "outputs": [],
      "stateMutability": "nonpayable",
      "type": "function"
    },
    {
      "inputs": [
        {
          "internalType": "bytes32",
          "name": "role",
          "type": "bytes32"
        },
        {
          "internalType": "address",
          "name": "account",
          "type": "address"
        }
      ],
      "name": "renounceRole",
      "outputs": [],
      "stateMutability": "nonpayable",
      "type": "function"
    },
    {
      "inputs": [
        {
          "internalType": "uint256",
          "name": "editionId",
          "type": "uint256"
        }
      ],
      "name": "resumeEdition",
      "outputs": [],
      "stateMutability": "nonpayable",
      "type": "function"
    },
    {
      "inputs": [
        {
          "internalType": "bytes32",
          "name": "role",
          "type": "bytes32"
        },
        {
          "internalType": "address",
          "name": "account",
          "type": "address"
        }
      ],
      "name": "revokeRole",
      "outputs": [],
      "stateMutability": "nonpayable",
      "type": "function"
    },
    {
      "inputs": [
        {
          "internalType": "address",
          "name": "from",
          "type": "address"
        },
        {
          "internalType": "address",
          "name": "to",
          "type": "address"
        },
        {
          "internalType": "uint256[]",
          "name": "ids",
          "type": "uint256[]"
        },
        {
          "internalType": "uint256[]",
          "name": "amounts",
          "type": "uint256[]"
        },
        {
          "internalType": "bytes",
          "name": "data",
          "type": "bytes"
        }
      ],
      "name": "safeBatchTransferFrom",
      "outputs": [],
      "stateMutability": "nonpayable",
      "type": "function"
    },
    {
      "inputs": [
        {
          "internalType": "address",
          "name": "from",
          "type": "address"
        },
        {
          "internalType": "address",
          "name": "to",
          "type": "address"
        },
        {
          "internalType": "uint256",
          "name": "id",
          "type": "uint256"
        },
        {
          "internalType": "uint256",
          "name": "amount",
          "type": "uint256"
        },
        {
          "internalType": "bytes",
          "name": "data",
          "type": "bytes"
        }
      ],
      "name": "safeTransferFrom",
      "outputs": [],
      "stateMutability": "nonpayable",
      "type": "function"
    },
    {
      "inputs": [
        {
          "internalType": "address",
          "name": "operator",
          "type": "address"
        },
        {
          "internalType": "bool",
          "name": "approved",
          "type": "bool"
        }
      ],
      "name": "setApprovalForAll",
      "outputs": [],
      "stateMutability": "nonpayable",
      "type": "function"
    },
    {
      "inputs": [
        {
          "internalType": "uint256",
          "name": "editionId",
          "type": "uint256"
        }
      ],
      "name": "stopEdition",
      "outputs": [],
      "stateMutability": "nonpayable",
      "type": "function"
    },
    {
      "inputs": [
        {
          "internalType": "bytes4",
          "name": "interfaceId",
          "type": "bytes4"
        }
      ],
      "name": "supportsInterface",
      "outputs": [
        {
          "internalType": "bool",
          "name": "",
          "type": "bool"
        }
      ],
      "stateMutability": "view",
      "type": "function"
    },
    {
      "inputs": [
        {
          "internalType": "uint256",
          "name": "id",
          "type": "uint256"
        }
      ],
      "name": "totalSupply",
      "outputs": [
        {
          "internalType": "uint256",
          "name": "",
          "type": "uint256"
        }
      ],
      "stateMutability": "view",
      "type": "function"
    },
    {
      "inputs": [],
      "name": "unpause",
      "outputs": [],
      "stateMutability": "nonpayable",
      "type": "function"
    },
    {
      "inputs": [
        {
          "internalType": "uint256",
          "name": "editionId",
          "type": "uint256"
        },
        {
          "internalType": "string",
          "name": "id",
          "type": "string"
        },
        {
          "internalType": "string",
          "name": "briefId",
          "type": "string"
        }
      ],
      "name": "updateEdition",
      "outputs": [],
      "stateMutability": "nonpayable",
      "type": "function"
    },
    {
      "inputs": [
        {
          "internalType": "address",
          "name": "newImplementation",
          "type": "address"
        }
      ],
      "name": "upgradeTo",
      "outputs": [],
      "stateMutability": "nonpayable",
      "type": "function"
    },
    {
      "inputs": [
        {
          "internalType": "address",
          "name": "newImplementation",
          "type": "address"
        },
        {
          "internalType": "bytes",
          "name": "data",
          "type": "bytes"
        }
      ],
      "name": "upgradeToAndCall",
      "outputs": [],
      "stateMutability": "payable",
      "type": "function"
    },
    {
      "inputs": [
        {
          "internalType": "uint256",
          "name": "",
          "type": "uint256"
        }
      ],
      "name": "uri",
      "outputs": [
        {
          "internalType": "string",
          "name": "",
          "type": "string"
        }
      ],
      "stateMutability": "view",
      "type": "function"
    },
    {
      "inputs": [
        {
          "internalType": "uint256",
          "name": "editionId",
          "type": "uint256"
        },
        {
          "internalType": "uint256",
          "name": "amount",
          "type": "uint256"
        }
      ],
      "name": "withdrawEditionBalance",
      "outputs": [],
      "stateMutability": "nonpayable",
      "type": "function"
    },
    {
      "inputs": [
        {
          "internalType": "uint256",
          "name": "amount",
          "type": "uint256"
        }
      ],
      "name": "withdrawFunds",
      "outputs": [],
      "stateMutability": "nonpayable",
      "type": "function"
    },
    {
      "stateMutability": "payable",
      "type": "receive"
    }
  ],
  "bytecode": "0x60a0604052306080523480156200001557600080fd5b506200002062000026565b620000e7565b600054610100900460ff1615620000935760405162461bcd60e51b815260206004820152602760248201527f496e697469616c697a61626c653a20636f6e747261637420697320696e697469604482015266616c697a696e6760c81b606482015260840160405180910390fd5b60005460ff90811614620000e5576000805460ff191660ff9081179091556040519081527f7f26b83ff96e1f2b6a682f133852f6798a09c465da95921460cefb38474024989060200160405180910390a15b565b60805161441f6200011f60003960008181610cf801528181610d3801528181610f3201528181610f720152611001015261441f6000f3fe6080604052600436106102315760003560e01c8063790bafc61161012d578063c6fbb712116100b0578063e43990fe11610077578063e43990fe146106b2578063e985e9c5146106d2578063f242432a1461071b578063f5298aca1461073b578063f8c1b2fd1461075b578063fc74efa21461077b57005b8063c6fbb7121461060c578063c84aae1714610623578063d547741f14610650578063d667c9ce14610670578063df6efc6c1461069057005b8063a217fddf116100f4578063a217fddf14610572578063a22cb46514610587578063b0e21e8a146105a7578063b3a44bd6146105be578063bd85b039146105de57005b8063790bafc6146104f55780638129fc1c146105155780638456cb591461052a57806391d148541461053f578063940123da1461055f57005b80633659cfe6116101b557806352d1902d1161017c57806352d1902d146104715780635c975abb146104865780636b20c4541461049e5780636b5cb789146104be5780637357628c146104d557005b80633659cfe6146103cc5780633f4ba83a146103ec5780634e1273f4146104015780634f1ef2861461042e5780634f558e791461044157005b8063248a9ca3116101f9578063248a9ca31461030a578063279c806e1461033a5780632eb2c2d61461036c5780632f2ff15d1461038c57806336568abe146103ac57005b8062fdd58e1461023a57806301ffc9a71461026d5780630a579eca1461029d5780630e89341c146102bd578063155dd5ee146102ea57005b3661023857005b005b34801561024657600080fd5b5061025a610255366004613379565b61079b565b6040519081526020015b60405180910390f35b34801561027957600080fd5b5061028d6102883660046133b9565b610836565b6040519015158152602001610264565b3480156102a957600080fd5b506102386102b83660046133d6565b610841565b3480156102c957600080fd5b506102dd6102d83660046133d6565b610923565b604051610264919061343f565b3480156102f657600080fd5b506102386103053660046133d6565b6109b7565b34801561031657600080fd5b5061025a6103253660046133d6565b60009081526097602052604090206001015490565b34801561034657600080fd5b5061035a6103553660046133d6565b610ab4565b6040516102649695949392919061348a565b34801561037857600080fd5b5061023861038736600461362c565b610c0a565b34801561039857600080fd5b506102386103a73660046136d5565b610c56565b3480156103b857600080fd5b506102386103c73660046136d5565b610c70565b3480156103d857600080fd5b506102386103e7366004613701565b610cee565b3480156103f857600080fd5b50610238610dcd565b34801561040d57600080fd5b5061042161041c36600461371c565b610dff565b6040516102649190613821565b61023861043c366004613834565b610f28565b34801561044d57600080fd5b5061028d61045c3660046133d6565b600090815261012d6020526040902054151590565b34801561047d57600080fd5b5061025a610ff4565b34801561049257600080fd5b5060c95460ff1661028d565b3480156104aa57600080fd5b506102386104b9366004613877565b6110a8565b3480156104ca57600080fd5b5061025a6101c65481565b3480156104e157600080fd5b506102386104f03660046133d6565b6110eb565b34801561050157600080fd5b506102386105103660046138ea565b61118c565b34801561052157600080fd5b50610238611241565b34801561053657600080fd5b5061023861140c565b34801561054b57600080fd5b5061028d61055a3660046136d5565b61143e565b61023861056d36600461391a565b611469565b34801561057e57600080fd5b5061025a600081565b34801561059357600080fd5b506102386105a236600461397a565b61154a565b3480156105b357600080fd5b5061025a6101c35481565b3480156105ca57600080fd5b5061025a6105d93660046139b6565b611555565b3480156105ea57600080fd5b5061025a6105f93660046133d6565b600090815261012d602052604090205490565b34801561061857600080fd5b5061025a6101c55481565b34801561062f57600080fd5b5061064361063e366004613701565b6116af565b6040516102649190613a14565b34801561065c57600080fd5b5061023861066b3660046136d5565b611819565b34801561067c57600080fd5b5061023861068b366004613a8a565b61183e565b34801561069c57600080fd5b506106a5611980565b6040516102649190613aac565b3480156106be57600080fd5b506102386106cd366004613b60565b611bef565b3480156106de57600080fd5b5061028d6106ed366004613bc2565b6001600160a01b03918216600090815260666020908152604080832093909416825291909152205460ff1690565b34801561072757600080fd5b50610238610736366004613bec565b611c77565b34801561074757600080fd5b50610238610756366004613c50565b611cbc565b34801561076757600080fd5b506102386107763660046133d6565b611cff565b34801561078757600080fd5b506102386107963660046133d6565b611d94565b60006001600160a01b03831661080b5760405162461bcd60e51b815260206004820152602a60248201527f455243313135353a2061646472657373207a65726f206973206e6f742061207660448201526930b634b21037bbb732b960b11b60648201526084015b60405180910390fd5b5060008181526065602090815260408083206001600160a01b03861684529091529020545b92915050565b600061083082611e6f565b60008181526101c460205260409020600301546001600160a01b0316331480610870575061087060003361143e565b61088d5760405163388f811f60e01b815260040160405180910390fd5b600260008281526101c4602052604090205460ff1660038111156108b3576108b3613452565b146108d157604051631f0fb6fd60e11b815260040160405180910390fd5b60008181526101c46020908152604091829020805460ff1916600317905590518281527f591913f977ab242c5871f116f36be231ff67df5e8e0bac1efd91fa8a723aca2b91015b60405180910390a150565b60606067805461093290613c83565b80601f016020809104026020016040519081016040528092919081815260200182805461095e90613c83565b80156109ab5780601f10610980576101008083540402835291602001916109ab565b820191906000526020600020905b81548152906001019060200180831161098e57829003601f168201915b50505050509050919050565b60006109c281611e94565b478211156109e357604051631036b5ad60e31b815260040160405180910390fd5b4760005b6101c554811015610a445760008181526101c46020526040902060020154610a0f9083613ccd565b915083821015610a325760405163156bbc5b60e01b815260040160405180910390fd5b80610a3c81613ce0565b9150506109e7565b50604051600090339085908381818185875af1925050503d8060008114610a87576040519150601f19603f3d011682016040523d82523d6000602084013e610a8c565b606091505b5050905080610aae576040516317f2c34560e31b815260040160405180910390fd5b50505050565b6101c4602052600090815260409020805460018201546002830154600384015460048501805460ff90951695939492936001600160a01b0390921692610af990613c83565b80601f0160208091040260200160405190810160405280929190818152602001828054610b2590613c83565b8015610b725780601f10610b4757610100808354040283529160200191610b72565b820191906000526020600020905b815481529060010190602001808311610b5557829003601f168201915b505050505090806005018054610b8790613c83565b80601f0160208091040260200160405190810160405280929190818152602001828054610bb390613c83565b8015610c005780601f10610bd557610100808354040283529160200191610c00565b820191906000526020600020905b815481529060010190602001808311610be357829003601f168201915b5050505050905086565b6001600160a01b038516331480610c265750610c2685336106ed565b610c425760405162461bcd60e51b815260040161080290613cf9565b610c4f8585858585611e9e565b5050505050565b6000610c6181611e94565b610c6b838361204b565b505050565b6001600160a01b0381163314610ce05760405162461bcd60e51b815260206004820152602f60248201527f416363657373436f6e74726f6c3a2063616e206f6e6c792072656e6f756e636560448201526e103937b632b9903337b91039b2b63360891b6064820152608401610802565b610cea82826120d1565b5050565b6001600160a01b037f0000000000000000000000000000000000000000000000000000000000000000163003610d365760405162461bcd60e51b815260040161080290613d47565b7f00000000000000000000000000000000000000000000000000000000000000006001600160a01b0316610d7f6000805160206143a3833981519152546001600160a01b031690565b6001600160a01b031614610da55760405162461bcd60e51b815260040161080290613d93565b610dae81612138565b60408051600080825260208201909252610dca91839190612162565b50565b7f65d7a28e3265b37a6474929f336521b332c1681b933f6cb9f3376673440d862a610df781611e94565b610dca6122cd565b60608151835114610e645760405162461bcd60e51b815260206004820152602960248201527f455243313135353a206163636f756e747320616e6420696473206c656e677468604482015268040dad2e6dac2e8c6d60bb1b6064820152608401610802565b600083516001600160401b03811115610e7f57610e7f6134e3565b604051908082528060200260200182016040528015610ea8578160200160208202803683370190505b50905060005b8451811015610f2057610ef3858281518110610ecc57610ecc613ddf565b6020026020010151858381518110610ee657610ee6613ddf565b602002602001015161079b565b828281518110610f0557610f05613ddf565b6020908102919091010152610f1981613ce0565b9050610eae565b509392505050565b6001600160a01b037f0000000000000000000000000000000000000000000000000000000000000000163003610f705760405162461bcd60e51b815260040161080290613d47565b7f00000000000000000000000000000000000000000000000000000000000000006001600160a01b0316610fb96000805160206143a3833981519152546001600160a01b031690565b6001600160a01b031614610fdf5760405162461bcd60e51b815260040161080290613d93565b610fe882612138565b610cea82826001612162565b6000306001600160a01b037f000000000000000000000000000000000000000000000000000000000000000016146110945760405162461bcd60e51b815260206004820152603860248201527f555550535570677261646561626c653a206d757374206e6f742062652063616c60448201527f6c6564207468726f7567682064656c656761746563616c6c00000000000000006064820152608401610802565b506000805160206143a38339815191525b90565b6001600160a01b0383163314806110c457506110c483336106ed565b6110e05760405162461bcd60e51b815260040161080290613cf9565b610c6b83838361231f565b60006110f681611e94565b600160008381526101c4602052604090205460ff16600381111561111c5761111c613452565b1461113a5760405163137c9c1f60e31b815260040160405180910390fd5b60008281526101c46020908152604091829020805460ff1916600217905590518381527f8f4352ac8b4aefdd2333162306bbe09dd4f4ff6661e89ccc4e4dcced8794e8f7910160405180910390a15050565b600260008381526101c4602052604090205460ff1660038111156111b2576111b2613452565b146111d05760405163137c9c1f60e31b815260040160405180910390fd5b3360009081526101c760209081526040808320600886901c845290915290208054600160ff85161b179055336001600160a01b0316827f710e220a47c8d9e50587c80fe509f5e762149ef672440eff70798204dd70f5eb83604051611235919061343f565b60405180910390a35050565b600054610100900460ff16158080156112615750600054600160ff909116105b8061127b5750303b15801561127b575060005460ff166001145b6112de5760405162461bcd60e51b815260206004820152602e60248201527f496e697469616c697a61626c653a20636f6e747261637420697320616c72656160448201526d191e481a5b9a5d1a585b1a5e995960921b6064820152608401610802565b6000805460ff191660011790558015611301576000805461ff0019166101001790555b611319604051806020016040528060008152506124be565b6113216124ee565b611329612517565b6113316124ee565b6113396124ee565b6113416124ee565b61134c60003361204b565b6113767f7804d923f43a17d325d77e781528e0793b2edd9890ab45fc64efd7b4b427744c3361204b565b6113a07f65d7a28e3265b37a6474929f336521b332c1681b933f6cb9f3376673440d862a3361204b565b6113ca7f189ab7a9244df0848122154315af71fe140f3db0fe014031783b0946b8c9d2e33361204b565b8015610dca576000805461ff0019169055604051600181527f7f26b83ff96e1f2b6a682f133852f6798a09c465da95921460cefb384740249890602001610918565b7f65d7a28e3265b37a6474929f336521b332c1681b933f6cb9f3376673440d862a61143681611e94565b610dca612546565b60009182526097602090815260408084206001600160a01b0393909316845291905290205460ff1690565b600260008581526101c4602052604090205460ff16600381111561148f5761148f613452565b146114ad57604051631f0fb6fd60e11b815260040160405180910390fd5b6101c35460008581526101c4602052604090206001015484916114cf91613df5565b6114d99190613e08565b3410156114f957604051631036b5ad60e31b815260040160405180910390fd5b61150582858584612583565b6101c3546115139084613e08565b61151d9034613ccd565b60008581526101c460205260408120600201805490919061153f908490613df5565b909155505050505050565b610cea3383836126a8565b60006101c65486111561157b57604051630f0c4c5f60e41b815260040160405180910390fd5b506101c5546040805160c0810190915280600181526020808201899052600060408084018290526001600160a01b038a1660608501526080840188905260a09093018690528481526101c49091522081518154829060ff191660018360038111156115e8576115e8613452565b0217905550602082015160018201556040820151600282015560608201516003820180546001600160a01b0319166001600160a01b039092169190911790556080820151600482019061163b9082613e65565b5060a082015160058201906116509082613e65565b50506101c580549150600061166483613ce0565b91905055507f3deb71b5a6774038a220621d78241405004043d5a928de9c7956bcc5270416db8183888860405161169e9493929190613f24565b60405180910390a195945050505050565b606060006101c5546001600160401b038111156116ce576116ce6134e3565b60405190808252806020026020018201604052801561171457816020015b6040805180820190915260608152600060208201528152602001906001900390816116ec5790505b50905060005b6101c5548110156118125760405180604001604052806101c46000848152602001908152602001600020600401805461175290613c83565b80601f016020809104026020016040519081016040528092919081815260200182805461177e90613c83565b80156117cb5780601f106117a0576101008083540402835291602001916117cb565b820191906000526020600020905b8154815290600101906020018083116117ae57829003601f168201915b505050505081526020016117df868461079b565b8152508282815181106117f4576117f4613ddf565b6020026020010181905250808061180a90613ce0565b91505061171a565b5092915050565b60008281526097602052604090206001015461183481611e94565b610c6b83836120d1565b60008281526101c460205260409020600301546001600160a01b031633146118795760405163388f811f60e01b815260040160405180910390fd5b60008281526101c460205260409020600201548111156118ac57604051637eafab7d60e01b815260040160405180910390fd5b604051600090339083908381818185875af1925050503d80600081146118ee576040519150601f19603f3d011682016040523d82523d6000602084013e6118f3565b606091505b5050905080611915576040516317f2c34560e31b815260040160405180910390fd5b60008381526101c4602052604081206002018054849290611937908490613ccd565b90915550506040805184815260208101849052338183015290517ff1090e9d5138cd4909542e10e1da576730b07eb291a71a151e63160dde345b949181900360600190a1505050565b606060006101c5546001600160401b0381111561199f5761199f6134e3565b604051908082528060200260200182016040528015611a1357816020015b611a006040805160c081019091528060008152602001600081526020016000815260200160006001600160a01b0316815260200160608152602001606081525090565b8152602001906001900390816119bd5790505b50905060005b6101c554811015611be95760008181526101c4602052604090819020815160c081019092528054829060ff166003811115611a5657611a56613452565b6003811115611a6757611a67613452565b8152600182015460208201526002820154604082015260038201546001600160a01b03166060820152600482018054608090920191611aa590613c83565b80601f0160208091040260200160405190810160405280929190818152602001828054611ad190613c83565b8015611b1e5780601f10611af357610100808354040283529160200191611b1e565b820191906000526020600020905b815481529060010190602001808311611b0157829003601f168201915b50505050508152602001600582018054611b3790613c83565b80601f0160208091040260200160405190810160405280929190818152602001828054611b6390613c83565b8015611bb05780601f10611b8557610100808354040283529160200191611bb0565b820191906000526020600020905b815481529060010190602001808311611b9357829003601f168201915b505050505081525050828281518110611bcb57611bcb613ddf565b60200260200101819052508080611be190613ce0565b915050611a19565b50919050565b6000611bfa81611e94565b600260008581526101c4602052604090205460ff166003811115611c2057611c20613452565b14611c3e5760405163137c9c1f60e31b815260040160405180910390fd5b60008481526101c460205260409020600401611c5a8482613e65565b5060008481526101c460205260409020600501610c4f8382613e65565b6001600160a01b038516331480611c935750611c9385336106ed565b611caf5760405162461bcd60e51b815260040161080290613cf9565b610c4f8585858585612788565b6001600160a01b038316331480611cd85750611cd883336106ed565b611cf45760405162461bcd60e51b815260040161080290613cf9565b610c6b8383836128c4565b3360009081526101c760209081526040808320600885901c84529182905290912054600160ff84161b16611d465760405163423f327760e11b815260040160405180910390fd5b600882901c6000908152602082905260408082208054600160ff87161b1916905551339184917fc6c1c3224e50c3c958e39197695bdfe8457ce7c0014d8d51a4d3aa12c5ac18489190a35050565b60008181526101c460205260409020600301546001600160a01b0316331480611dc35750611dc360003361143e565b611de05760405163388f811f60e01b815260040160405180910390fd5b600360008281526101c4602052604090205460ff166003811115611e0657611e06613452565b14611e245760405163968807a560e01b815260040160405180910390fd5b60008181526101c46020908152604091829020805460ff1916600217905590518281527f63bb17c9645a29322601b4fe88d8f3fa84f32229368294f903084be8f5d813ba9101610918565b60006001600160e01b03198216637965db0b60e01b14806108305750610830826129e0565b610dca8133612a30565b8151835114611ebf5760405162461bcd60e51b815260040161080290613f5e565b6001600160a01b038416611ee55760405162461bcd60e51b815260040161080290613fa6565b33611ef4818787878787612a89565b60005b8451811015611fdd576000858281518110611f1457611f14613ddf565b602002602001015190506000858381518110611f3257611f32613ddf565b60209081029190910181015160008481526065835260408082206001600160a01b038e168352909352919091205490915081811015611f835760405162461bcd60e51b815260040161080290613feb565b60008381526065602090815260408083206001600160a01b038e8116855292528083208585039055908b16825281208054849290611fc2908490613df5565b9250508190555050505080611fd690613ce0565b9050611ef7565b50846001600160a01b0316866001600160a01b0316826001600160a01b03167f4a39dc06d4c0dbc64b70af90fd698a233a518aa5d07e595d983b8c0526c8f7fb878760405161202d929190614035565b60405180910390a4612043818787878787612a9f565b505050505050565b612055828261143e565b610cea5760008281526097602090815260408083206001600160a01b03851684529091529020805460ff1916600117905561208d3390565b6001600160a01b0316816001600160a01b0316837f2f8788117e7eff1d82e926ec794901d17c78024a50270940304540a733656f0d60405160405180910390a45050565b6120db828261143e565b15610cea5760008281526097602090815260408083206001600160a01b0385168085529252808320805460ff1916905551339285917ff6391f5c32d9c69d2a47ea670b442974b53935d1edc7fd64eb21e047a839171b9190a45050565b7f189ab7a9244df0848122154315af71fe140f3db0fe014031783b0946b8c9d2e3610cea81611e94565b7f4910fdfa16fed3260ed0e7147f7cc6da11a60208b5b9406d12a635614ffd91435460ff161561219557610c6b83612bfa565b826001600160a01b03166352d1902d6040518163ffffffff1660e01b8152600401602060405180830381865afa9250505080156121ef575060408051601f3d908101601f191682019092526121ec91810190614063565b60015b6122525760405162461bcd60e51b815260206004820152602e60248201527f45524331393637557067726164653a206e657720696d706c656d656e7461746960448201526d6f6e206973206e6f74205555505360901b6064820152608401610802565b6000805160206143a383398151915281146122c15760405162461bcd60e51b815260206004820152602960248201527f45524331393637557067726164653a20756e737570706f727465642070726f786044820152681a58589b195555525160ba1b6064820152608401610802565b50610c6b838383612c96565b6122d5612cbb565b60c9805460ff191690557f5db9ee0a495bf2e6ff9c91a7834c1ba4fdd244a5e8aa4e537bd38aeae4b073aa335b6040516001600160a01b03909116815260200160405180910390a1565b6001600160a01b0383166123455760405162461bcd60e51b81526004016108029061407c565b80518251146123665760405162461bcd60e51b815260040161080290613f5e565b600033905061238981856000868660405180602001604052806000815250612a89565b60005b83518110156124515760008482815181106123a9576123a9613ddf565b6020026020010151905060008483815181106123c7576123c7613ddf565b60209081029190910181015160008481526065835260408082206001600160a01b038c1683529093529190912054909150818110156124185760405162461bcd60e51b8152600401610802906140bf565b60009283526065602090815260408085206001600160a01b038b168652909152909220910390558061244981613ce0565b91505061238c565b5060006001600160a01b0316846001600160a01b0316826001600160a01b03167f4a39dc06d4c0dbc64b70af90fd698a233a518aa5d07e595d983b8c0526c8f7fb86866040516124a2929190614035565b60405180910390a4604080516020810190915260009052610aae565b600054610100900460ff166124e55760405162461bcd60e51b815260040161080290614103565b610dca81612d04565b600054610100900460ff166125155760405162461bcd60e51b815260040161080290614103565b565b600054610100900460ff1661253e5760405162461bcd60e51b815260040161080290614103565b612515612d34565b61254e612d67565b60c9805460ff191660011790557f62e78cea01bee320cd4e420270b5ea74000d11b0c9f74754ebdbfc544b05a2586123023390565b6001600160a01b0384166125e35760405162461bcd60e51b815260206004820152602160248201527f455243313135353a206d696e7420746f20746865207a65726f206164647265736044820152607360f81b6064820152608401610802565b3360006125ef85612dad565b905060006125fc85612dad565b905061260d83600089858589612a89565b60008681526065602090815260408083206001600160a01b038b1684529091528120805487929061263f908490613df5565b909155505060408051878152602081018790526001600160a01b03808a1692600092918716917fc3d58168c5ae7397731d063d5bbf3d657854427343f4c083240f7aacaa2d0f62910160405180910390a461269f83600089898989612df8565b50505050505050565b816001600160a01b0316836001600160a01b03160361271b5760405162461bcd60e51b815260206004820152602960248201527f455243313135353a2073657474696e6720617070726f76616c20737461747573604482015268103337b91039b2b63360b91b6064820152608401610802565b6001600160a01b03838116600081815260666020908152604080832094871680845294825291829020805460ff191686151590811790915591519182527f17307eab39ab6107e8899845ad3d59bd9653f200f220920489ca2b5937696c31910160405180910390a3505050565b6001600160a01b0384166127ae5760405162461bcd60e51b815260040161080290613fa6565b3360006127ba85612dad565b905060006127c785612dad565b90506127d7838989858589612a89565b60008681526065602090815260408083206001600160a01b038c1684529091529020548581101561281a5760405162461bcd60e51b815260040161080290613feb565b60008781526065602090815260408083206001600160a01b038d8116855292528083208985039055908a16825281208054889290612859908490613df5565b909155505060408051888152602081018890526001600160a01b03808b16928c821692918816917fc3d58168c5ae7397731d063d5bbf3d657854427343f4c083240f7aacaa2d0f62910160405180910390a46128b9848a8a8a8a8a612df8565b505050505050505050565b6001600160a01b0383166128ea5760405162461bcd60e51b81526004016108029061407c565b3360006128f684612dad565b9050600061290384612dad565b905061292383876000858560405180602001604052806000815250612a89565b60008581526065602090815260408083206001600160a01b038a168452909152902054848110156129665760405162461bcd60e51b8152600401610802906140bf565b60008681526065602090815260408083206001600160a01b038b81168086529184528285208a8703905582518b81529384018a90529092908816917fc3d58168c5ae7397731d063d5bbf3d657854427343f4c083240f7aacaa2d0f62910160405180910390a460408051602081019091526000905261269f565b60006001600160e01b03198216636cdb3d1360e11b1480612a1157506001600160e01b031982166303a24d0760e21b145b8061083057506301ffc9a760e01b6001600160e01b0319831614610830565b612a3a828261143e565b610cea57612a4781612eb3565b612a52836020612ec5565b604051602001612a6392919061414e565b60408051601f198184030181529082905262461bcd60e51b82526108029160040161343f565b612a91612d67565b612043868686868686613067565b6001600160a01b0384163b156120435760405163bc197c8160e01b81526001600160a01b0385169063bc197c8190612ae390899089908890889088906004016141c3565b6020604051808303816000875af1925050508015612b1e575060408051601f3d908101601f19168201909252612b1b91810190614221565b60015b612bca57612b2a61423e565b806308c379a003612b635750612b3e614259565b80612b495750612b65565b8060405162461bcd60e51b8152600401610802919061343f565b505b60405162461bcd60e51b815260206004820152603460248201527f455243313135353a207472616e7366657220746f206e6f6e2d455243313135356044820152732932b1b2b4bb32b91034b6b83632b6b2b73a32b960611b6064820152608401610802565b6001600160e01b0319811663bc197c8160e01b1461269f5760405162461bcd60e51b8152600401610802906142e2565b6001600160a01b0381163b612c675760405162461bcd60e51b815260206004820152602d60248201527f455243313936373a206e657720696d706c656d656e746174696f6e206973206e60448201526c1bdd08184818dbdb9d1c9858dd609a1b6064820152608401610802565b6000805160206143a383398151915280546001600160a01b0319166001600160a01b0392909216919091179055565b612c9f836131e3565b600082511180612cac5750805b15610c6b57610aae8383613223565b60c95460ff166125155760405162461bcd60e51b815260206004820152601460248201527314185d5cd8589b194e881b9bdd081c185d5cd95960621b6044820152606401610802565b600054610100900460ff16612d2b5760405162461bcd60e51b815260040161080290614103565b610dca81613248565b600054610100900460ff16612d5b5760405162461bcd60e51b815260040161080290614103565b60c9805460ff19169055565b60c95460ff16156125155760405162461bcd60e51b815260206004820152601060248201526f14185d5cd8589b194e881c185d5cd95960821b6044820152606401610802565b60408051600180825281830190925260609160009190602080830190803683370190505090508281600081518110612de757612de7613ddf565b602090810291909101015292915050565b6001600160a01b0384163b156120435760405163f23a6e6160e01b81526001600160a01b0385169063f23a6e6190612e3c908990899088908890889060040161432a565b6020604051808303816000875af1925050508015612e77575060408051601f3d908101601f19168201909252612e7491810190614221565b60015b612e8357612b2a61423e565b6001600160e01b0319811663f23a6e6160e01b1461269f5760405162461bcd60e51b8152600401610802906142e2565b60606108306001600160a01b03831660145b60606000612ed4836002613e08565b612edf906002613df5565b6001600160401b03811115612ef657612ef66134e3565b6040519080825280601f01601f191660200182016040528015612f20576020820181803683370190505b509050600360fc1b81600081518110612f3b57612f3b613ddf565b60200101906001600160f81b031916908160001a905350600f60fb1b81600181518110612f6a57612f6a613ddf565b60200101906001600160f81b031916908160001a9053506000612f8e846002613e08565b612f99906001613df5565b90505b6001811115613011576f181899199a1a9b1b9c1cb0b131b232b360811b85600f1660108110612fcd57612fcd613ddf565b1a60f81b828281518110612fe357612fe3613ddf565b60200101906001600160f81b031916908160001a90535060049490941c9361300a8161436f565b9050612f9c565b5083156130605760405162461bcd60e51b815260206004820181905260248201527f537472696e67733a20686578206c656e67746820696e73756666696369656e746044820152606401610802565b9392505050565b6001600160a01b0385166130ef5760005b83518110156130ed5782818151811061309357613093613ddf565b602002602001015161012d60008684815181106130b2576130b2613ddf565b6020026020010151815260200190815260200160002060008282546130d79190613df5565b909155506130e6905081613ce0565b9050613078565b505b6001600160a01b0384166120435760005b835181101561269f57600084828151811061311d5761311d613ddf565b60200260200101519050600084838151811061313b5761313b613ddf565b60200260200101519050600061012d6000848152602001908152602001600020549050818110156131bf5760405162461bcd60e51b815260206004820152602860248201527f455243313135353a206275726e20616d6f756e74206578636565647320746f74604482015267616c537570706c7960c01b6064820152608401610802565b600092835261012d6020526040909220910390556131dc81613ce0565b9050613100565b6131ec81612bfa565b6040516001600160a01b038216907fbc7cd75a20ee27fd9adebab32041f755214dbc6bffa90cc0225b39da2e5c2d3b90600090a250565b606061306083836040518060600160405280602781526020016143c360279139613254565b6067610cea8282613e65565b6060600080856001600160a01b0316856040516132719190614386565b600060405180830381855af49150503d80600081146132ac576040519150601f19603f3d011682016040523d82523d6000602084013e6132b1565b606091505b50915091506132c2868383876132cc565b9695505050505050565b6060831561333b578251600003613334576001600160a01b0385163b6133345760405162461bcd60e51b815260206004820152601d60248201527f416464726573733a2063616c6c20746f206e6f6e2d636f6e74726163740000006044820152606401610802565b5081613345565b613345838361334d565b949350505050565b815115612b495781518083602001fd5b80356001600160a01b038116811461337457600080fd5b919050565b6000806040838503121561338c57600080fd5b6133958361335d565b946020939093013593505050565b6001600160e01b031981168114610dca57600080fd5b6000602082840312156133cb57600080fd5b8135613060816133a3565b6000602082840312156133e857600080fd5b5035919050565b60005b8381101561340a5781810151838201526020016133f2565b50506000910152565b6000815180845261342b8160208601602086016133ef565b601f01601f19169290920160200192915050565b6020815260006130606020830184613413565b634e487b7160e01b600052602160045260246000fd5b6004811061348657634e487b7160e01b600052602160045260246000fd5b9052565b6134948188613468565b85602082015284604082015260018060a01b038416606082015260c0608082015260006134c460c0830185613413565b82810360a08401526134d68185613413565b9998505050505050505050565b634e487b7160e01b600052604160045260246000fd5b601f8201601f191681016001600160401b038111828210171561351e5761351e6134e3565b6040525050565b60006001600160401b0382111561353e5761353e6134e3565b5060051b60200190565b600082601f83011261355957600080fd5b8135602061356682613525565b60405161357382826134f9565b83815260059390931b850182019282810191508684111561359357600080fd5b8286015b848110156135ae5780358352918301918301613597565b509695505050505050565b600082601f8301126135ca57600080fd5b81356001600160401b038111156135e3576135e36134e3565b6040516135fa601f8301601f1916602001826134f9565b81815284602083860101111561360f57600080fd5b816020850160208301376000918101602001919091529392505050565b600080600080600060a0868803121561364457600080fd5b61364d8661335d565b945061365b6020870161335d565b935060408601356001600160401b038082111561367757600080fd5b61368389838a01613548565b9450606088013591508082111561369957600080fd5b6136a589838a01613548565b935060808801359150808211156136bb57600080fd5b506136c8888289016135b9565b9150509295509295909350565b600080604083850312156136e857600080fd5b823591506136f86020840161335d565b90509250929050565b60006020828403121561371357600080fd5b6130608261335d565b6000806040838503121561372f57600080fd5b82356001600160401b038082111561374657600080fd5b818501915085601f83011261375a57600080fd5b8135602061376782613525565b60405161377482826134f9565b83815260059390931b850182019282810191508984111561379457600080fd5b948201945b838610156137b9576137aa8661335d565b82529482019490820190613799565b965050860135925050808211156137cf57600080fd5b506137dc85828601613548565b9150509250929050565b600081518084526020808501945080840160005b83811015613816578151875295820195908201906001016137fa565b509495945050505050565b60208152600061306060208301846137e6565b6000806040838503121561384757600080fd5b6138508361335d565b915060208301356001600160401b0381111561386b57600080fd5b6137dc858286016135b9565b60008060006060848603121561388c57600080fd5b6138958461335d565b925060208401356001600160401b03808211156138b157600080fd5b6138bd87838801613548565b935060408601359150808211156138d357600080fd5b506138e086828701613548565b9150509250925092565b600080604083850312156138fd57600080fd5b8235915060208301356001600160401b0381111561386b57600080fd5b6000806000806080858703121561393057600080fd5b84359350602085013592506139476040860161335d565b915060608501356001600160401b0381111561396257600080fd5b61396e878288016135b9565b91505092959194509250565b6000806040838503121561398d57600080fd5b6139968361335d565b9150602083013580151581146139ab57600080fd5b809150509250929050565b600080600080600060a086880312156139ce57600080fd5b853594506139de6020870161335d565b93506139ec6040870161335d565b925060608601356001600160401b0380821115613a0857600080fd5b6136a589838a016135b9565b60006020808301818452808551808352604092508286019150828160051b87010184880160005b83811015613a7c57888303603f1901855281518051878552613a5f88860182613413565b918901519489019490945294870194925090860190600101613a3b565b509098975050505050505050565b60008060408385031215613a9d57600080fd5b50508035926020909101359150565b60006020808301818452808551808352604092508286019150828160051b87010184880160005b83811015613a7c57603f19898403018552815160c0613af3858351613468565b81890151858a015287820151888601526060808301516001600160a01b031690860152608080830151818701839052613b2e83880182613413565b9250505060a08083015192508582038187015250613b4c8183613413565b968901969450505090860190600101613ad3565b600080600060608486031215613b7557600080fd5b8335925060208401356001600160401b0380821115613b9357600080fd5b613b9f878388016135b9565b93506040860135915080821115613bb557600080fd5b506138e0868287016135b9565b60008060408385031215613bd557600080fd5b613bde8361335d565b91506136f86020840161335d565b600080600080600060a08688031215613c0457600080fd5b613c0d8661335d565b9450613c1b6020870161335d565b9350604086013592506060860135915060808601356001600160401b03811115613c4457600080fd5b6136c8888289016135b9565b600080600060608486031215613c6557600080fd5b613c6e8461335d565b95602085013595506040909401359392505050565b600181811c90821680613c9757607f821691505b602082108103611be957634e487b7160e01b600052602260045260246000fd5b634e487b7160e01b600052601160045260246000fd5b8181038181111561083057610830613cb7565b600060018201613cf257613cf2613cb7565b5060010190565b6020808252602e908201527f455243313135353a2063616c6c6572206973206e6f7420746f6b656e206f776e60408201526d195c881bdc88185c1c1c9bdd995960921b606082015260800190565b6020808252602c908201527f46756e6374696f6e206d7573742062652063616c6c6564207468726f7567682060408201526b19195b1959d85d1958d85b1b60a21b606082015260800190565b6020808252602c908201527f46756e6374696f6e206d7573742062652063616c6c6564207468726f7567682060408201526b6163746976652070726f787960a01b606082015260800190565b634e487b7160e01b600052603260045260246000fd5b8082018082111561083057610830613cb7565b808202811582820484141761083057610830613cb7565b601f821115610c6b57600081815260208120601f850160051c81016020861015613e465750805b601f850160051c820191505b8181101561204357828155600101613e52565b81516001600160401b03811115613e7e57613e7e6134e3565b613e9281613e8c8454613c83565b84613e1f565b602080601f831160018114613ec75760008415613eaf5750858301515b600019600386901b1c1916600185901b178555612043565b600085815260208120601f198616915b82811015613ef657888601518255948401946001909101908401613ed7565b5085821015613f145787850151600019600388901b60f8161c191681555b5050505050600190811b01905550565b848152608060208201526000613f3d6080830186613413565b6040830194909452506001600160a01b039190911660609091015292915050565b60208082526028908201527f455243313135353a2069647320616e6420616d6f756e7473206c656e677468206040820152670dad2e6dac2e8c6d60c31b606082015260800190565b60208082526025908201527f455243313135353a207472616e7366657220746f20746865207a65726f206164604082015264647265737360d81b606082015260800190565b6020808252602a908201527f455243313135353a20696e73756666696369656e742062616c616e636520666f60408201526939103a3930b739b332b960b11b606082015260800190565b60408152600061404860408301856137e6565b828103602084015261405a81856137e6565b95945050505050565b60006020828403121561407557600080fd5b5051919050565b60208082526023908201527f455243313135353a206275726e2066726f6d20746865207a65726f206164647260408201526265737360e81b606082015260800190565b60208082526024908201527f455243313135353a206275726e20616d6f756e7420657863656564732062616c604082015263616e636560e01b606082015260800190565b6020808252602b908201527f496e697469616c697a61626c653a20636f6e7472616374206973206e6f74206960408201526a6e697469616c697a696e6760a81b606082015260800190565b7f416363657373436f6e74726f6c3a206163636f756e74200000000000000000008152600083516141868160178501602088016133ef565b7001034b99036b4b9b9b4b733903937b6329607d1b60179184019182015283516141b78160288401602088016133ef565b01602801949350505050565b6001600160a01b0386811682528516602082015260a0604082018190526000906141ef908301866137e6565b828103606084015261420181866137e6565b905082810360808401526142158185613413565b98975050505050505050565b60006020828403121561423357600080fd5b8151613060816133a3565b600060033d11156110a55760046000803e5060005160e01c90565b600060443d10156142675790565b6040516003193d81016004833e81513d6001600160401b03816024840111818411171561429657505050505090565b82850191508151818111156142ae5750505050505090565b843d87010160208285010111156142c85750505050505090565b6142d7602082860101876134f9565b509095945050505050565b60208082526028908201527f455243313135353a204552433131353552656365697665722072656a656374656040820152676420746f6b656e7360c01b606082015260800190565b6001600160a01b03868116825285166020820152604081018490526060810183905260a06080820181905260009061436490830184613413565b979650505050505050565b60008161437e5761437e613cb7565b506000190190565b600082516143988184602087016133ef565b919091019291505056fe360894a13ba1a3210667c828492db98dca3e2076cc3735a920a3ca505d382bbc416464726573733a206c6f772d6c6576656c2064656c65676174652063616c6c206661696c6564a264697066735822122022b94f24b3f1faa5867ff559f4083bdb92bb10ed621123361dc84df53890ef8f64736f6c63430008130033",
  "linkReferences": {},
  "deployedLinkReferences": {}
}