{
  "_format": "hh-sol-artifact-1",
  "contractName": "Editions",
  "sourceName": "src/Editions/Editions.sol",
  "abi": [
    {
      "inputs": [],
      "stateMutability": "nonpayable",
      "type": "constructor"
    },
    {
      "inputs": [],
      "name": "EditionFeeExceedsMaximumFee",
      "type": "error"
    },
    {
      "inputs": [],
      "name": "EditionNotCreated",
      "type": "error"
    },
    {
      "inputs": [],
      "name": "EditionNotEnoughBalance",
      "type": "error"
    },
    {
      "inputs": [],
      "name": "EditionNotLaunched",
      "type": "error"
    },
    {
      "inputs": [],
      "name": "EditionNotStopped",
      "type": "error"
    },
    {
      "inputs": [],
      "name": "NotEditionOwner",
      "type": "error"
    },
    {
      "inputs": [],
      "name": "NotEnoughFees",
      "type": "error"
    },
    {
      "inputs": [],
      "name": "NotEnoughFunds",
      "type": "error"
    },
    {
      "inputs": [],
      "name": "TransactionFailed",
      "type": "error"
    },
    {
      "anonymous": false,
      "inputs": [
        {
          "indexed": false,
          "internalType": "address",
          "name": "previousAdmin",
          "type": "address"
        },
        {
          "indexed": false,
          "internalType": "address",
          "name": "newAdmin",
          "type": "address"
        }
      ],
      "name": "AdminChanged",
      "type": "event"
    },
    {
      "anonymous": false,
      "inputs": [
        {
          "indexed": true,
          "internalType": "address",
          "name": "account",
          "type": "address"
        },
        {
          "indexed": true,
          "internalType": "address",
          "name": "operator",
          "type": "address"
        },
        {
          "indexed": false,
          "internalType": "bool",
          "name": "approved",
          "type": "bool"
        }
      ],
      "name": "ApprovalForAll",
      "type": "event"
    },
    {
      "anonymous": false,
      "inputs": [
        {
          "indexed": true,
          "internalType": "address",
          "name": "beacon",
          "type": "address"
        }
      ],
      "name": "BeaconUpgraded",
      "type": "event"
    },
    {
      "anonymous": false,
      "inputs": [
        {
          "indexed": false,
          "internalType": "uint256",
          "name": "editionId",
          "type": "uint256"
        }
      ],
      "name": "EditionApproved",
      "type": "event"
    },
    {
      "anonymous": false,
      "inputs": [
        {
          "indexed": false,
          "internalType": "uint256",
          "name": "editionId",
          "type": "uint256"
        },
        {
          "indexed": false,
          "internalType": "uint256",
          "name": "amount",
          "type": "uint256"
        },
        {
          "indexed": false,
          "internalType": "address",
          "name": "owner",
          "type": "address"
        }
      ],
      "name": "EditionBalanceWithdrawn",
      "type": "event"
    },
    {
      "anonymous": false,
      "inputs": [
        {
          "indexed": false,
          "internalType": "uint256",
          "name": "editionId",
          "type": "uint256"
        },
        {
          "indexed": false,
          "internalType": "string",
          "name": "briefId",
          "type": "string"
        },
        {
          "indexed": false,
          "internalType": "uint256",
          "name": "fee",
          "type": "uint256"
        },
        {
          "indexed": false,
          "internalType": "address",
          "name": "owner",
          "type": "address"
        }
      ],
      "name": "EditionCreated",
      "type": "event"
    },
    {
      "anonymous": false,
      "inputs": [
        {
          "indexed": false,
          "internalType": "uint256",
          "name": "editionId",
          "type": "uint256"
        }
      ],
      "name": "EditionResumed",
      "type": "event"
    },
    {
      "anonymous": false,
      "inputs": [
        {
          "indexed": false,
          "internalType": "uint256",
          "name": "editionId",
          "type": "uint256"
        }
      ],
      "name": "EditionStopped",
      "type": "event"
    },
    {
      "anonymous": false,
      "inputs": [
        {
          "indexed": false,
          "internalType": "uint8",
          "name": "version",
          "type": "uint8"
        }
      ],
      "name": "Initialized",
      "type": "event"
    },
    {
      "anonymous": false,
      "inputs": [
        {
          "indexed": false,
          "internalType": "address",
          "name": "account",
          "type": "address"
        }
      ],
      "name": "Paused",
      "type": "event"
    },
    {
      "anonymous": false,
      "inputs": [
        {
          "indexed": true,
          "internalType": "bytes32",
          "name": "role",
          "type": "bytes32"
        },
        {
          "indexed": true,
          "internalType": "bytes32",
          "name": "previousAdminRole",
          "type": "bytes32"
        },
        {
          "indexed": true,
          "internalType": "bytes32",
          "name": "newAdminRole",
          "type": "bytes32"
        }
      ],
      "name": "RoleAdminChanged",
      "type": "event"
    },
    {
      "anonymous": false,
      "inputs": [
        {
          "indexed": true,
          "internalType": "bytes32",
          "name": "role",
          "type": "bytes32"
        },
        {
          "indexed": true,
          "internalType": "address",
          "name": "account",
          "type": "address"
        },
        {
          "indexed": true,
          "internalType": "address",
          "name": "sender",
          "type": "address"
        }
      ],
      "name": "RoleGranted",
      "type": "event"
    },
    {
      "anonymous": false,
      "inputs": [
        {
          "indexed": true,
          "internalType": "bytes32",
          "name": "role",
          "type": "bytes32"
        },
        {
          "indexed": true,
          "internalType": "address",
          "name": "account",
          "type": "address"
        },
        {
          "indexed": true,
          "internalType": "address",
          "name": "sender",
          "type": "address"
        }
      ],
      "name": "RoleRevoked",
      "type": "event"
    },
    {
      "anonymous": false,
      "inputs": [
        {
          "indexed": true,
          "internalType": "address",
          "name": "operator",
          "type": "address"
        },
        {
          "indexed": true,
          "internalType": "address",
          "name": "from",
          "type": "address"
        },
        {
          "indexed": true,
          "internalType": "address",
          "name": "to",
          "type": "address"
        },
        {
          "indexed": false,
          "internalType": "uint256[]",
          "name": "ids",
          "type": "uint256[]"
        },
        {
          "indexed": false,
          "internalType": "uint256[]",
          "name": "values",
          "type": "uint256[]"
        }
      ],
      "name": "TransferBatch",
      "type": "event"
    },
    {
      "anonymous": false,
      "inputs": [
        {
          "indexed": true,
          "internalType": "address",
          "name": "operator",
          "type": "address"
        },
        {
          "indexed": true,
          "internalType": "address",
          "name": "from",
          "type": "address"
        },
        {
          "indexed": true,
          "internalType": "address",
          "name": "to",
          "type": "address"
        },
        {
          "indexed": false,
          "internalType": "uint256",
          "name": "id",
          "type": "uint256"
        },
        {
          "indexed": false,
          "internalType": "uint256",
          "name": "value",
          "type": "uint256"
        }
      ],
      "name": "TransferSingle",
      "type": "event"
    },
    {
      "anonymous": false,
      "inputs": [
        {
          "indexed": false,
          "internalType": "string",
          "name": "value",
          "type": "string"
        },
        {
          "indexed": true,
          "internalType": "uint256",
          "name": "id",
          "type": "uint256"
        }
      ],
      "name": "URI",
      "type": "event"
    },
    {
      "anonymous": false,
      "inputs": [
        {
          "indexed": false,
          "internalType": "address",
          "name": "account",
          "type": "address"
        }
      ],
      "name": "Unpaused",
      "type": "event"
    },
    {
      "anonymous": false,
      "inputs": [
        {
          "indexed": true,
          "internalType": "address",
          "name": "implementation",
          "type": "address"
        }
      ],
      "name": "Upgraded",
      "type": "event"
    },
    {
      "stateMutability": "payable",
      "type": "fallback"
    },
    {
      "inputs": [],
      "name": "DEFAULT_ADMIN_ROLE",
      "outputs": [
        {
          "internalType": "bytes32",
          "name": "",
          "type": "bytes32"
        }
      ],
      "stateMutability": "view",
      "type": "function"
    },
    {
      "inputs": [
        {
          "internalType": "uint256",
          "name": "editionId",
          "type": "uint256"
        }
      ],
      "name": "approveEdition",
      "outputs": [],
      "stateMutability": "nonpayable",
      "type": "function"
    },
    {
      "inputs": [
        {
          "internalType": "address",
          "name": "account",
          "type": "address"
        },
        {
          "internalType": "uint256",
          "name": "id",
          "type": "uint256"
        }
      ],
      "name": "balanceOf",
      "outputs": [
        {
          "internalType": "uint256",
          "name": "",
          "type": "uint256"
        }
      ],
      "stateMutability": "view",
      "type": "function"
    },
    {
      "inputs": [
        {
          "internalType": "address[]",
          "name": "accounts",
          "type": "address[]"
        },
        {
          "internalType": "uint256[]",
          "name": "ids",
          "type": "uint256[]"
        }
      ],
      "name": "balanceOfBatch",
      "outputs": [
        {
          "internalType": "uint256[]",
          "name": "",
          "type": "uint256[]"
        }
      ],
      "stateMutability": "view",
      "type": "function"
    },
    {
      "inputs": [
        {
          "internalType": "address",
          "name": "account",
          "type": "address"
        },
        {
          "internalType": "uint256",
          "name": "id",
          "type": "uint256"
        },
        {
          "internalType": "uint256",
          "name": "value",
          "type": "uint256"
        }
      ],
      "name": "burn",
      "outputs": [],
      "stateMutability": "nonpayable",
      "type": "function"
    },
    {
      "inputs": [
        {
          "internalType": "address",
          "name": "account",
          "type": "address"
        },
        {
          "internalType": "uint256[]",
          "name": "ids",
          "type": "uint256[]"
        },
        {
          "internalType": "uint256[]",
          "name": "values",
          "type": "uint256[]"
        }
      ],
      "name": "burnBatch",
      "outputs": [],
      "stateMutability": "nonpayable",
      "type": "function"
    },
    {
      "inputs": [
        {
          "internalType": "uint256",
          "name": "fee",
          "type": "uint256"
        },
        {
          "internalType": "address",
          "name": "owner",
          "type": "address"
        },
        {
          "internalType": "address",
          "name": "payer",
          "type": "address"
        },
        {
          "internalType": "string",
          "name": "id",
          "type": "string"
        },
        {
          "internalType": "string",
          "name": "briefId",
          "type": "string"
        }
      ],
      "name": "createEdition",
      "outputs": [
        {
          "internalType": "uint256",
          "name": "editionId",
          "type": "uint256"
        }
      ],
      "stateMutability": "nonpayable",
      "type": "function"
    },
    {
      "inputs": [],
      "name": "editionCounter",
      "outputs": [
        {
          "internalType": "uint256",
          "name": "",
          "type": "uint256"
        }
      ],
      "stateMutability": "view",
      "type": "function"
    },
    {
      "inputs": [
        {
          "internalType": "uint256",
          "name": "",
          "type": "uint256"
        }
      ],
      "name": "editions",
      "outputs": [
        {
          "internalType": "enum EditionsStructs.EditionStatus",
          "name": "status",
          "type": "uint8"
        },
        {
          "internalType": "uint256",
          "name": "fee",
          "type": "uint256"
        },
        {
          "internalType": "uint256",
          "name": "balance",
          "type": "uint256"
        },
        {
          "internalType": "address",
          "name": "owner",
          "type": "address"
        },
        {
          "internalType": "string",
          "name": "id",
          "type": "string"
        },
        {
          "internalType": "string",
          "name": "briefId",
          "type": "string"
        }
      ],
      "stateMutability": "view",
      "type": "function"
    },
    {
      "inputs": [
        {
          "internalType": "uint256",
          "name": "id",
          "type": "uint256"
        }
      ],
      "name": "exists",
      "outputs": [
        {
          "internalType": "bool",
          "name": "",
          "type": "bool"
        }
      ],
      "stateMutability": "view",
      "type": "function"
    },
    {
      "inputs": [
        {
          "internalType": "address",
          "name": "owner",
          "type": "address"
        }
      ],
      "name": "getBalances",
      "outputs": [
        {
          "components": [
            {
              "internalType": "string",
              "name": "id",
              "type": "string"
            },
            {
              "internalType": "uint256",
              "name": "amount",
              "type": "uint256"
            }
          ],
          "internalType": "struct EditionsStructs.EditionIdWithAmount[]",
          "name": "",
          "type": "tuple[]"
        }
      ],
      "stateMutability": "view",
      "type": "function"
    },
    {
      "inputs": [],
      "name": "getEditions",
      "outputs": [
        {
          "components": [
            {
              "internalType": "enum EditionsStructs.EditionStatus",
              "name": "status",
              "type": "uint8"
            },
            {
              "internalType": "uint256",
              "name": "fee",
              "type": "uint256"
            },
            {
              "internalType": "uint256",
              "name": "balance",
              "type": "uint256"
            },
            {
              "internalType": "address",
              "name": "owner",
              "type": "address"
            },
            {
              "internalType": "string",
              "name": "id",
              "type": "string"
            },
            {
              "internalType": "string",
              "name": "briefId",
              "type": "string"
            }
          ],
          "internalType": "struct EditionsStructs.Edition[]",
          "name": "",
          "type": "tuple[]"
        }
      ],
      "stateMutability": "view",
      "type": "function"
    },
    {
      "inputs": [
        {
          "internalType": "bytes32",
          "name": "role",
          "type": "bytes32"
        }
      ],
      "name": "getRoleAdmin",
      "outputs": [
        {
          "internalType": "bytes32",
          "name": "",
          "type": "bytes32"
        }
      ],
      "stateMutability": "view",
      "type": "function"
    },
    {
      "inputs": [
        {
          "internalType": "bytes32",
          "name": "role",
          "type": "bytes32"
        },
        {
          "internalType": "address",
          "name": "account",
          "type": "address"
        }
      ],
      "name": "grantRole",
      "outputs": [],
      "stateMutability": "nonpayable",
      "type": "function"
    },
    {
      "inputs": [
        {
          "internalType": "bytes32",
          "name": "role",
          "type": "bytes32"
        },
        {
          "internalType": "address",
          "name": "account",
          "type": "address"
        }
      ],
      "name": "hasRole",
      "outputs": [
        {
          "internalType": "bool",
          "name": "",
          "type": "bool"
        }
      ],
      "stateMutability": "view",
      "type": "function"
    },
    {
      "inputs": [],
      "name": "initialize",
      "outputs": [],
      "stateMutability": "nonpayable",
      "type": "function"
    },
    {
      "inputs": [
        {
          "internalType": "address",
          "name": "account",
          "type": "address"
        },
        {
          "internalType": "address",
          "name": "operator",
          "type": "address"
        }
      ],
      "name": "isApprovedForAll",
      "outputs": [
        {
          "internalType": "bool",
          "name": "",
          "type": "bool"
        }
      ],
      "stateMutability": "view",
      "type": "function"
    },
    {
      "inputs": [],
      "name": "maximumEditionFee",
      "outputs": [
        {
          "internalType": "uint256",
          "name": "",
          "type": "uint256"
        }
      ],
      "stateMutability": "view",
      "type": "function"
    },
    {
      "inputs": [
        {
          "internalType": "uint256",
          "name": "editionId",
          "type": "uint256"
        },
        {
          "internalType": "uint256",
          "name": "amount",
          "type": "uint256"
        },
        {
          "internalType": "address",
          "name": "buyer",
          "type": "address"
        },
        {
          "internalType": "bytes",
          "name": "data",
          "type": "bytes"
        }
      ],
      "name": "mintEdition",
      "outputs": [],
      "stateMutability": "payable",
      "type": "function"
    },
    {
      "inputs": [],
      "name": "pause",
      "outputs": [],
      "stateMutability": "nonpayable",
      "type": "function"
    },
    {
      "inputs": [],
      "name": "paused",
      "outputs": [
        {
          "internalType": "bool",
          "name": "",
          "type": "bool"
        }
      ],
      "stateMutability": "view",
      "type": "function"
    },
    {
      "inputs": [],
      "name": "protocolFee",
      "outputs": [
        {
          "internalType": "uint256",
          "name": "",
          "type": "uint256"
        }
      ],
      "stateMutability": "view",
      "type": "function"
    },
    {
      "inputs": [],
      "name": "proxiableUUID",
      "outputs": [
        {
          "internalType": "bytes32",
          "name": "",
          "type": "bytes32"
        }
      ],
      "stateMutability": "view",
      "type": "function"
    },
    {
      "inputs": [
        {
          "internalType": "bytes32",
          "name": "role",
          "type": "bytes32"
        },
        {
          "internalType": "address",
          "name": "account",
          "type": "address"
        }
      ],
      "name": "renounceRole",
      "outputs": [],
      "stateMutability": "nonpayable",
      "type": "function"
    },
    {
      "inputs": [
        {
          "internalType": "uint256",
          "name": "editionId",
          "type": "uint256"
        }
      ],
      "name": "resumeEdition",
      "outputs": [],
      "stateMutability": "nonpayable",
      "type": "function"
    },
    {
      "inputs": [
        {
          "internalType": "bytes32",
          "name": "role",
          "type": "bytes32"
        },
        {
          "internalType": "address",
          "name": "account",
          "type": "address"
        }
      ],
      "name": "revokeRole",
      "outputs": [],
      "stateMutability": "nonpayable",
      "type": "function"
    },
    {
      "inputs": [
        {
          "internalType": "address",
          "name": "from",
          "type": "address"
        },
        {
          "internalType": "address",
          "name": "to",
          "type": "address"
        },
        {
          "internalType": "uint256[]",
          "name": "ids",
          "type": "uint256[]"
        },
        {
          "internalType": "uint256[]",
          "name": "amounts",
          "type": "uint256[]"
        },
        {
          "internalType": "bytes",
          "name": "data",
          "type": "bytes"
        }
      ],
      "name": "safeBatchTransferFrom",
      "outputs": [],
      "stateMutability": "nonpayable",
      "type": "function"
    },
    {
      "inputs": [
        {
          "internalType": "address",
          "name": "from",
          "type": "address"
        },
        {
          "internalType": "address",
          "name": "to",
          "type": "address"
        },
        {
          "internalType": "uint256",
          "name": "id",
          "type": "uint256"
        },
        {
          "internalType": "uint256",
          "name": "amount",
          "type": "uint256"
        },
        {
          "internalType": "bytes",
          "name": "data",
          "type": "bytes"
        }
      ],
      "name": "safeTransferFrom",
      "outputs": [],
      "stateMutability": "nonpayable",
      "type": "function"
    },
    {
      "inputs": [
        {
          "internalType": "address",
          "name": "operator",
          "type": "address"
        },
        {
          "internalType": "bool",
          "name": "approved",
          "type": "bool"
        }
      ],
      "name": "setApprovalForAll",
      "outputs": [],
      "stateMutability": "nonpayable",
      "type": "function"
    },
    {
      "inputs": [
        {
          "internalType": "uint256",
          "name": "editionId",
          "type": "uint256"
        }
      ],
      "name": "stopEdition",
      "outputs": [],
      "stateMutability": "nonpayable",
      "type": "function"
    },
    {
      "inputs": [
        {
          "internalType": "bytes4",
          "name": "interfaceId",
          "type": "bytes4"
        }
      ],
      "name": "supportsInterface",
      "outputs": [
        {
          "internalType": "bool",
          "name": "",
          "type": "bool"
        }
      ],
      "stateMutability": "view",
      "type": "function"
    },
    {
      "inputs": [
        {
          "internalType": "uint256",
          "name": "id",
          "type": "uint256"
        }
      ],
      "name": "totalSupply",
      "outputs": [
        {
          "internalType": "uint256",
          "name": "",
          "type": "uint256"
        }
      ],
      "stateMutability": "view",
      "type": "function"
    },
    {
      "inputs": [],
      "name": "unpause",
      "outputs": [],
      "stateMutability": "nonpayable",
      "type": "function"
    },
    {
      "inputs": [
        {
          "internalType": "uint256",
          "name": "editionId",
          "type": "uint256"
        },
        {
          "internalType": "string",
          "name": "id",
          "type": "string"
        },
        {
          "internalType": "string",
          "name": "briefId",
          "type": "string"
        }
      ],
      "name": "updateEdition",
      "outputs": [],
      "stateMutability": "nonpayable",
      "type": "function"
    },
    {
      "inputs": [
        {
          "internalType": "address",
          "name": "newImplementation",
          "type": "address"
        }
      ],
      "name": "upgradeTo",
      "outputs": [],
      "stateMutability": "nonpayable",
      "type": "function"
    },
    {
      "inputs": [
        {
          "internalType": "address",
          "name": "newImplementation",
          "type": "address"
        },
        {
          "internalType": "bytes",
          "name": "data",
          "type": "bytes"
        }
      ],
      "name": "upgradeToAndCall",
      "outputs": [],
      "stateMutability": "payable",
      "type": "function"
    },
    {
      "inputs": [
        {
          "internalType": "uint256",
          "name": "",
          "type": "uint256"
        }
      ],
      "name": "uri",
      "outputs": [
        {
          "internalType": "string",
          "name": "",
          "type": "string"
        }
      ],
      "stateMutability": "view",
      "type": "function"
    },
    {
      "inputs": [
        {
          "internalType": "uint256",
          "name": "editionId",
          "type": "uint256"
        },
        {
          "internalType": "uint256",
          "name": "amount",
          "type": "uint256"
        }
      ],
      "name": "withdrawEditionBalance",
      "outputs": [],
      "stateMutability": "nonpayable",
      "type": "function"
    },
    {
      "inputs": [
        {
          "internalType": "uint256",
          "name": "amount",
          "type": "uint256"
        }
      ],
      "name": "withdrawFunds",
      "outputs": [],
      "stateMutability": "nonpayable",
      "type": "function"
    },
    {
      "stateMutability": "payable",
      "type": "receive"
    }
  ],
  "bytecode": "0x60a0604052306080523480156200001557600080fd5b506200002062000026565b620000e7565b600054610100900460ff1615620000935760405162461bcd60e51b815260206004820152602760248201527f496e697469616c697a61626c653a20636f6e747261637420697320696e697469604482015266616c697a696e6760c81b606482015260840160405180910390fd5b60005460ff90811614620000e5576000805460ff191660ff9081179091556040519081527f7f26b83ff96e1f2b6a682f133852f6798a09c465da95921460cefb38474024989060200160405180910390a15b565b6080516142596200011f60003960008181610ca201528181610ce201528181610edc01528181610f1c0152610fab01526142596000f3fe60806040526004361061021b5760003560e01c80637357628c11610122578063c6fbb712116100a5578063e43990fe1161006c578063e43990fe1461067c578063e985e9c51461069c578063f242432a146106e5578063f5298aca14610705578063fc74efa21461072557005b8063c6fbb712146105d6578063c84aae17146105ed578063d547741f1461061a578063d667c9ce1461063a578063df6efc6c1461065a57005b8063a217fddf116100e9578063a217fddf1461053c578063a22cb46514610551578063b0e21e8a14610571578063b3a44bd614610588578063bd85b039146105a857005b80637357628c146104bf5780638129fc1c146104df5780638456cb59146104f457806391d1485414610509578063940123da1461052957005b806336568abe116101aa5780634f558e79116101715780634f558e791461042b57806352d1902d1461045b5780635c975abb146104705780636b20c454146104885780636b5cb789146104a857005b806336568abe146103965780633659cfe6146103b65780633f4ba83a146103d65780634e1273f4146103eb5780634f1ef2861461041857005b8063155dd5ee116101ee578063155dd5ee146102d4578063248a9ca3146102f4578063279c806e146103245780632eb2c2d6146103565780632f2ff15d1461037657005b8062fdd58e1461022457806301ffc9a7146102575780630a579eca146102875780630e89341c146102a757005b3661022257005b005b34801561023057600080fd5b5061024461023f3660046131e3565b610745565b6040519081526020015b60405180910390f35b34801561026357600080fd5b50610277610272366004613223565b6107e0565b604051901515815260200161024e565b34801561029357600080fd5b506102226102a2366004613240565b6107eb565b3480156102b357600080fd5b506102c76102c2366004613240565b6108cd565b60405161024e91906132a9565b3480156102e057600080fd5b506102226102ef366004613240565b610961565b34801561030057600080fd5b5061024461030f366004613240565b60009081526097602052604090206001015490565b34801561033057600080fd5b5061034461033f366004613240565b610a5e565b60405161024e969594939291906132f4565b34801561036257600080fd5b50610222610371366004613496565b610bb4565b34801561038257600080fd5b5061022261039136600461353f565b610c00565b3480156103a257600080fd5b506102226103b136600461353f565b610c1a565b3480156103c257600080fd5b506102226103d136600461356b565b610c98565b3480156103e257600080fd5b50610222610d77565b3480156103f757600080fd5b5061040b610406366004613586565b610da9565b60405161024e919061368b565b61022261042636600461369e565b610ed2565b34801561043757600080fd5b50610277610446366004613240565b600090815261012d6020526040902054151590565b34801561046757600080fd5b50610244610f9e565b34801561047c57600080fd5b5060c95460ff16610277565b34801561049457600080fd5b506102226104a33660046136e1565b611052565b3480156104b457600080fd5b506102446101c65481565b3480156104cb57600080fd5b506102226104da366004613240565b611095565b3480156104eb57600080fd5b50610222611136565b34801561050057600080fd5b50610222611301565b34801561051557600080fd5b5061027761052436600461353f565b611333565b610222610537366004613754565b61135e565b34801561054857600080fd5b50610244600081565b34801561055d57600080fd5b5061022261056c3660046137b4565b61144b565b34801561057d57600080fd5b506102446101c35481565b34801561059457600080fd5b506102446105a33660046137f0565b611456565b3480156105b457600080fd5b506102446105c3366004613240565b600090815261012d602052604090205490565b3480156105e257600080fd5b506102446101c55481565b3480156105f957600080fd5b5061060d61060836600461356b565b6115b0565b60405161024e919061384e565b34801561062657600080fd5b5061022261063536600461353f565b61171a565b34801561064657600080fd5b506102226106553660046138c4565b61173f565b34801561066657600080fd5b5061066f611881565b60405161024e91906138e6565b34801561068857600080fd5b5061022261069736600461399a565b611af0565b3480156106a857600080fd5b506102776106b73660046139fc565b6001600160a01b03918216600090815260666020908152604080832093909416825291909152205460ff1690565b3480156106f157600080fd5b50610222610700366004613a26565b611b76565b34801561071157600080fd5b50610222610720366004613a8a565b611bbb565b34801561073157600080fd5b50610222610740366004613240565b611bfe565b60006001600160a01b0383166107b55760405162461bcd60e51b815260206004820152602a60248201527f455243313135353a2061646472657373207a65726f206973206e6f742061207660448201526930b634b21037bbb732b960b11b60648201526084015b60405180910390fd5b5060008181526065602090815260408083206001600160a01b03861684529091529020545b92915050565b60006107da82611cd9565b60008181526101c460205260409020600301546001600160a01b031633148061081a575061081a600033611333565b6108375760405163388f811f60e01b815260040160405180910390fd5b600260008281526101c4602052604090205460ff16600381111561085d5761085d6132bc565b1461087b57604051631f0fb6fd60e11b815260040160405180910390fd5b60008181526101c46020908152604091829020805460ff1916600317905590518281527f591913f977ab242c5871f116f36be231ff67df5e8e0bac1efd91fa8a723aca2b91015b60405180910390a150565b6060606780546108dc90613abd565b80601f016020809104026020016040519081016040528092919081815260200182805461090890613abd565b80156109555780601f1061092a57610100808354040283529160200191610955565b820191906000526020600020905b81548152906001019060200180831161093857829003601f168201915b50505050509050919050565b600061096c81611cfe565b4782111561098d57604051631036b5ad60e31b815260040160405180910390fd5b4760005b6101c5548110156109ee5760008181526101c460205260409020600201546109b99083613b07565b9150838210156109dc5760405163156bbc5b60e01b815260040160405180910390fd5b806109e681613b1a565b915050610991565b50604051600090339085908381818185875af1925050503d8060008114610a31576040519150601f19603f3d011682016040523d82523d6000602084013e610a36565b606091505b5050905080610a58576040516317f2c34560e31b815260040160405180910390fd5b50505050565b6101c4602052600090815260409020805460018201546002830154600384015460048501805460ff90951695939492936001600160a01b0390921692610aa390613abd565b80601f0160208091040260200160405190810160405280929190818152602001828054610acf90613abd565b8015610b1c5780601f10610af157610100808354040283529160200191610b1c565b820191906000526020600020905b815481529060010190602001808311610aff57829003601f168201915b505050505090806005018054610b3190613abd565b80601f0160208091040260200160405190810160405280929190818152602001828054610b5d90613abd565b8015610baa5780601f10610b7f57610100808354040283529160200191610baa565b820191906000526020600020905b815481529060010190602001808311610b8d57829003601f168201915b5050505050905086565b6001600160a01b038516331480610bd05750610bd085336106b7565b610bec5760405162461bcd60e51b81526004016107ac90613b33565b610bf98585858585611d08565b5050505050565b6000610c0b81611cfe565b610c158383611eb5565b505050565b6001600160a01b0381163314610c8a5760405162461bcd60e51b815260206004820152602f60248201527f416363657373436f6e74726f6c3a2063616e206f6e6c792072656e6f756e636560448201526e103937b632b9903337b91039b2b63360891b60648201526084016107ac565b610c948282611f3b565b5050565b6001600160a01b037f0000000000000000000000000000000000000000000000000000000000000000163003610ce05760405162461bcd60e51b81526004016107ac90613b81565b7f00000000000000000000000000000000000000000000000000000000000000006001600160a01b0316610d296000805160206141dd833981519152546001600160a01b031690565b6001600160a01b031614610d4f5760405162461bcd60e51b81526004016107ac90613bcd565b610d5881611fa2565b60408051600080825260208201909252610d7491839190611fcc565b50565b7f65d7a28e3265b37a6474929f336521b332c1681b933f6cb9f3376673440d862a610da181611cfe565b610d74612137565b60608151835114610e0e5760405162461bcd60e51b815260206004820152602960248201527f455243313135353a206163636f756e747320616e6420696473206c656e677468604482015268040dad2e6dac2e8c6d60bb1b60648201526084016107ac565b600083516001600160401b03811115610e2957610e2961334d565b604051908082528060200260200182016040528015610e52578160200160208202803683370190505b50905060005b8451811015610eca57610e9d858281518110610e7657610e76613c19565b6020026020010151858381518110610e9057610e90613c19565b6020026020010151610745565b828281518110610eaf57610eaf613c19565b6020908102919091010152610ec381613b1a565b9050610e58565b509392505050565b6001600160a01b037f0000000000000000000000000000000000000000000000000000000000000000163003610f1a5760405162461bcd60e51b81526004016107ac90613b81565b7f00000000000000000000000000000000000000000000000000000000000000006001600160a01b0316610f636000805160206141dd833981519152546001600160a01b031690565b6001600160a01b031614610f895760405162461bcd60e51b81526004016107ac90613bcd565b610f9282611fa2565b610c9482826001611fcc565b6000306001600160a01b037f0000000000000000000000000000000000000000000000000000000000000000161461103e5760405162461bcd60e51b815260206004820152603860248201527f555550535570677261646561626c653a206d757374206e6f742062652063616c60448201527f6c6564207468726f7567682064656c656761746563616c6c000000000000000060648201526084016107ac565b506000805160206141dd8339815191525b90565b6001600160a01b03831633148061106e575061106e83336106b7565b61108a5760405162461bcd60e51b81526004016107ac90613b33565b610c15838383612189565b60006110a081611cfe565b600160008381526101c4602052604090205460ff1660038111156110c6576110c66132bc565b146110e45760405163137c9c1f60e31b815260040160405180910390fd5b60008281526101c46020908152604091829020805460ff1916600217905590518381527f8f4352ac8b4aefdd2333162306bbe09dd4f4ff6661e89ccc4e4dcced8794e8f7910160405180910390a15050565b600054610100900460ff16158080156111565750600054600160ff909116105b806111705750303b158015611170575060005460ff166001145b6111d35760405162461bcd60e51b815260206004820152602e60248201527f496e697469616c697a61626c653a20636f6e747261637420697320616c72656160448201526d191e481a5b9a5d1a585b1a5e995960921b60648201526084016107ac565b6000805460ff1916600117905580156111f6576000805461ff0019166101001790555b61120e60405180602001604052806000815250612328565b611216612358565b61121e612381565b611226612358565b61122e612358565b611236612358565b611241600033611eb5565b61126b7f7804d923f43a17d325d77e781528e0793b2edd9890ab45fc64efd7b4b427744c33611eb5565b6112957f65d7a28e3265b37a6474929f336521b332c1681b933f6cb9f3376673440d862a33611eb5565b6112bf7f189ab7a9244df0848122154315af71fe140f3db0fe014031783b0946b8c9d2e333611eb5565b8015610d74576000805461ff0019169055604051600181527f7f26b83ff96e1f2b6a682f133852f6798a09c465da95921460cefb3847402498906020016108c2565b7f65d7a28e3265b37a6474929f336521b332c1681b933f6cb9f3376673440d862a61132b81611cfe565b610d746123b0565b60009182526097602090815260408084206001600160a01b0393909316845291905290205460ff1690565b600061136981611cfe565b600260008681526101c4602052604090205460ff16600381111561138f5761138f6132bc565b146113ad57604051631f0fb6fd60e11b815260040160405180910390fd5b6101c35460008681526101c4602052604090206001015485916113cf91613c2f565b6113d99190613c42565b3410156113f957604051631036b5ad60e31b815260040160405180910390fd5b611405838686856123ed565b6101c3546114139085613c42565b61141d9034613b07565b60008681526101c460205260408120600201805490919061143f908490613c2f565b90915550505050505050565b610c94338383612512565b60006101c65486111561147c57604051630f0c4c5f60e41b815260040160405180910390fd5b506101c5546040805160c0810190915280600181526020808201899052600060408084018290526001600160a01b038a1660608501526080840188905260a09093018690528481526101c49091522081518154829060ff191660018360038111156114e9576114e96132bc565b0217905550602082015160018201556040820151600282015560608201516003820180546001600160a01b0319166001600160a01b039092169190911790556080820151600482019061153c9082613c9f565b5060a082015160058201906115519082613c9f565b50506101c580549150600061156583613b1a565b91905055507f3deb71b5a6774038a220621d78241405004043d5a928de9c7956bcc5270416db8183888860405161159f9493929190613d5e565b60405180910390a195945050505050565b606060006101c5546001600160401b038111156115cf576115cf61334d565b60405190808252806020026020018201604052801561161557816020015b6040805180820190915260608152600060208201528152602001906001900390816115ed5790505b50905060005b6101c5548110156117135760405180604001604052806101c46000848152602001908152602001600020600401805461165390613abd565b80601f016020809104026020016040519081016040528092919081815260200182805461167f90613abd565b80156116cc5780601f106116a1576101008083540402835291602001916116cc565b820191906000526020600020905b8154815290600101906020018083116116af57829003601f168201915b505050505081526020016116e08684610745565b8152508282815181106116f5576116f5613c19565b6020026020010181905250808061170b90613b1a565b91505061161b565b5092915050565b60008281526097602052604090206001015461173581611cfe565b610c158383611f3b565b60008281526101c460205260409020600301546001600160a01b0316331461177a5760405163388f811f60e01b815260040160405180910390fd5b60008281526101c460205260409020600201548111156117ad57604051637eafab7d60e01b815260040160405180910390fd5b604051600090339083908381818185875af1925050503d80600081146117ef576040519150601f19603f3d011682016040523d82523d6000602084013e6117f4565b606091505b5050905080611816576040516317f2c34560e31b815260040160405180910390fd5b60008381526101c4602052604081206002018054849290611838908490613b07565b90915550506040805184815260208101849052338183015290517ff1090e9d5138cd4909542e10e1da576730b07eb291a71a151e63160dde345b949181900360600190a1505050565b606060006101c5546001600160401b038111156118a0576118a061334d565b60405190808252806020026020018201604052801561191457816020015b6119016040805160c081019091528060008152602001600081526020016000815260200160006001600160a01b0316815260200160608152602001606081525090565b8152602001906001900390816118be5790505b50905060005b6101c554811015611aea5760008181526101c4602052604090819020815160c081019092528054829060ff166003811115611957576119576132bc565b6003811115611968576119686132bc565b8152600182015460208201526002820154604082015260038201546001600160a01b031660608201526004820180546080909201916119a690613abd565b80601f01602080910402602001604051908101604052809291908181526020018280546119d290613abd565b8015611a1f5780601f106119f457610100808354040283529160200191611a1f565b820191906000526020600020905b815481529060010190602001808311611a0257829003601f168201915b50505050508152602001600582018054611a3890613abd565b80601f0160208091040260200160405190810160405280929190818152602001828054611a6490613abd565b8015611ab15780601f10611a8657610100808354040283529160200191611ab1565b820191906000526020600020905b815481529060010190602001808311611a9457829003601f168201915b505050505081525050828281518110611acc57611acc613c19565b60200260200101819052508080611ae290613b1a565b91505061191a565b50919050565b6000611afb81611cfe565b60008481526101c4602052604081205460ff166003811115611b1f57611b1f6132bc565b03611b3d5760405163137c9c1f60e31b815260040160405180910390fd5b60008481526101c460205260409020600401611b598482613c9f565b5060008481526101c460205260409020600501610bf98382613c9f565b6001600160a01b038516331480611b925750611b9285336106b7565b611bae5760405162461bcd60e51b81526004016107ac90613b33565b610bf985858585856125f2565b6001600160a01b038316331480611bd75750611bd783336106b7565b611bf35760405162461bcd60e51b81526004016107ac90613b33565b610c1583838361272e565b60008181526101c460205260409020600301546001600160a01b0316331480611c2d5750611c2d600033611333565b611c4a5760405163388f811f60e01b815260040160405180910390fd5b600360008281526101c4602052604090205460ff166003811115611c7057611c706132bc565b14611c8e5760405163968807a560e01b815260040160405180910390fd5b60008181526101c46020908152604091829020805460ff1916600217905590518281527f63bb17c9645a29322601b4fe88d8f3fa84f32229368294f903084be8f5d813ba91016108c2565b60006001600160e01b03198216637965db0b60e01b14806107da57506107da8261284a565b610d74813361289a565b8151835114611d295760405162461bcd60e51b81526004016107ac90613d98565b6001600160a01b038416611d4f5760405162461bcd60e51b81526004016107ac90613de0565b33611d5e8187878787876128f3565b60005b8451811015611e47576000858281518110611d7e57611d7e613c19565b602002602001015190506000858381518110611d9c57611d9c613c19565b60209081029190910181015160008481526065835260408082206001600160a01b038e168352909352919091205490915081811015611ded5760405162461bcd60e51b81526004016107ac90613e25565b60008381526065602090815260408083206001600160a01b038e8116855292528083208585039055908b16825281208054849290611e2c908490613c2f565b9250508190555050505080611e4090613b1a565b9050611d61565b50846001600160a01b0316866001600160a01b0316826001600160a01b03167f4a39dc06d4c0dbc64b70af90fd698a233a518aa5d07e595d983b8c0526c8f7fb8787604051611e97929190613e6f565b60405180910390a4611ead818787878787612909565b505050505050565b611ebf8282611333565b610c945760008281526097602090815260408083206001600160a01b03851684529091529020805460ff19166001179055611ef73390565b6001600160a01b0316816001600160a01b0316837f2f8788117e7eff1d82e926ec794901d17c78024a50270940304540a733656f0d60405160405180910390a45050565b611f458282611333565b15610c945760008281526097602090815260408083206001600160a01b0385168085529252808320805460ff1916905551339285917ff6391f5c32d9c69d2a47ea670b442974b53935d1edc7fd64eb21e047a839171b9190a45050565b7f189ab7a9244df0848122154315af71fe140f3db0fe014031783b0946b8c9d2e3610c9481611cfe565b7f4910fdfa16fed3260ed0e7147f7cc6da11a60208b5b9406d12a635614ffd91435460ff1615611fff57610c1583612a64565b826001600160a01b03166352d1902d6040518163ffffffff1660e01b8152600401602060405180830381865afa925050508015612059575060408051601f3d908101601f1916820190925261205691810190613e9d565b60015b6120bc5760405162461bcd60e51b815260206004820152602e60248201527f45524331393637557067726164653a206e657720696d706c656d656e7461746960448201526d6f6e206973206e6f74205555505360901b60648201526084016107ac565b6000805160206141dd833981519152811461212b5760405162461bcd60e51b815260206004820152602960248201527f45524331393637557067726164653a20756e737570706f727465642070726f786044820152681a58589b195555525160ba1b60648201526084016107ac565b50610c15838383612b00565b61213f612b25565b60c9805460ff191690557f5db9ee0a495bf2e6ff9c91a7834c1ba4fdd244a5e8aa4e537bd38aeae4b073aa335b6040516001600160a01b03909116815260200160405180910390a1565b6001600160a01b0383166121af5760405162461bcd60e51b81526004016107ac90613eb6565b80518251146121d05760405162461bcd60e51b81526004016107ac90613d98565b60003390506121f3818560008686604051806020016040528060008152506128f3565b60005b83518110156122bb57600084828151811061221357612213613c19565b60200260200101519050600084838151811061223157612231613c19565b60209081029190910181015160008481526065835260408082206001600160a01b038c1683529093529190912054909150818110156122825760405162461bcd60e51b81526004016107ac90613ef9565b60009283526065602090815260408085206001600160a01b038b16865290915290922091039055806122b381613b1a565b9150506121f6565b5060006001600160a01b0316846001600160a01b0316826001600160a01b03167f4a39dc06d4c0dbc64b70af90fd698a233a518aa5d07e595d983b8c0526c8f7fb868660405161230c929190613e6f565b60405180910390a4604080516020810190915260009052610a58565b600054610100900460ff1661234f5760405162461bcd60e51b81526004016107ac90613f3d565b610d7481612b6e565b600054610100900460ff1661237f5760405162461bcd60e51b81526004016107ac90613f3d565b565b600054610100900460ff166123a85760405162461bcd60e51b81526004016107ac90613f3d565b61237f612b9e565b6123b8612bd1565b60c9805460ff191660011790557f62e78cea01bee320cd4e420270b5ea74000d11b0c9f74754ebdbfc544b05a25861216c3390565b6001600160a01b03841661244d5760405162461bcd60e51b815260206004820152602160248201527f455243313135353a206d696e7420746f20746865207a65726f206164647265736044820152607360f81b60648201526084016107ac565b33600061245985612c17565b9050600061246685612c17565b9050612477836000898585896128f3565b60008681526065602090815260408083206001600160a01b038b168452909152812080548792906124a9908490613c2f565b909155505060408051878152602081018790526001600160a01b03808a1692600092918716917fc3d58168c5ae7397731d063d5bbf3d657854427343f4c083240f7aacaa2d0f62910160405180910390a461250983600089898989612c62565b50505050505050565b816001600160a01b0316836001600160a01b0316036125855760405162461bcd60e51b815260206004820152602960248201527f455243313135353a2073657474696e6720617070726f76616c20737461747573604482015268103337b91039b2b63360b91b60648201526084016107ac565b6001600160a01b03838116600081815260666020908152604080832094871680845294825291829020805460ff191686151590811790915591519182527f17307eab39ab6107e8899845ad3d59bd9653f200f220920489ca2b5937696c31910160405180910390a3505050565b6001600160a01b0384166126185760405162461bcd60e51b81526004016107ac90613de0565b33600061262485612c17565b9050600061263185612c17565b90506126418389898585896128f3565b60008681526065602090815260408083206001600160a01b038c168452909152902054858110156126845760405162461bcd60e51b81526004016107ac90613e25565b60008781526065602090815260408083206001600160a01b038d8116855292528083208985039055908a168252812080548892906126c3908490613c2f565b909155505060408051888152602081018890526001600160a01b03808b16928c821692918816917fc3d58168c5ae7397731d063d5bbf3d657854427343f4c083240f7aacaa2d0f62910160405180910390a4612723848a8a8a8a8a612c62565b505050505050505050565b6001600160a01b0383166127545760405162461bcd60e51b81526004016107ac90613eb6565b33600061276084612c17565b9050600061276d84612c17565b905061278d838760008585604051806020016040528060008152506128f3565b60008581526065602090815260408083206001600160a01b038a168452909152902054848110156127d05760405162461bcd60e51b81526004016107ac90613ef9565b60008681526065602090815260408083206001600160a01b038b81168086529184528285208a8703905582518b81529384018a90529092908816917fc3d58168c5ae7397731d063d5bbf3d657854427343f4c083240f7aacaa2d0f62910160405180910390a4604080516020810190915260009052612509565b60006001600160e01b03198216636cdb3d1360e11b148061287b57506001600160e01b031982166303a24d0760e21b145b806107da57506301ffc9a760e01b6001600160e01b03198316146107da565b6128a48282611333565b610c94576128b181612d1d565b6128bc836020612d2f565b6040516020016128cd929190613f88565b60408051601f198184030181529082905262461bcd60e51b82526107ac916004016132a9565b6128fb612bd1565b611ead868686868686612ed1565b6001600160a01b0384163b15611ead5760405163bc197c8160e01b81526001600160a01b0385169063bc197c819061294d9089908990889088908890600401613ffd565b6020604051808303816000875af1925050508015612988575060408051601f3d908101601f191682019092526129859181019061405b565b60015b612a3457612994614078565b806308c379a0036129cd57506129a8614093565b806129b357506129cf565b8060405162461bcd60e51b81526004016107ac91906132a9565b505b60405162461bcd60e51b815260206004820152603460248201527f455243313135353a207472616e7366657220746f206e6f6e2d455243313135356044820152732932b1b2b4bb32b91034b6b83632b6b2b73a32b960611b60648201526084016107ac565b6001600160e01b0319811663bc197c8160e01b146125095760405162461bcd60e51b81526004016107ac9061411c565b6001600160a01b0381163b612ad15760405162461bcd60e51b815260206004820152602d60248201527f455243313936373a206e657720696d706c656d656e746174696f6e206973206e60448201526c1bdd08184818dbdb9d1c9858dd609a1b60648201526084016107ac565b6000805160206141dd83398151915280546001600160a01b0319166001600160a01b0392909216919091179055565b612b098361304d565b600082511180612b165750805b15610c1557610a58838361308d565b60c95460ff1661237f5760405162461bcd60e51b815260206004820152601460248201527314185d5cd8589b194e881b9bdd081c185d5cd95960621b60448201526064016107ac565b600054610100900460ff16612b955760405162461bcd60e51b81526004016107ac90613f3d565b610d74816130b2565b600054610100900460ff16612bc55760405162461bcd60e51b81526004016107ac90613f3d565b60c9805460ff19169055565b60c95460ff161561237f5760405162461bcd60e51b815260206004820152601060248201526f14185d5cd8589b194e881c185d5cd95960821b60448201526064016107ac565b60408051600180825281830190925260609160009190602080830190803683370190505090508281600081518110612c5157612c51613c19565b602090810291909101015292915050565b6001600160a01b0384163b15611ead5760405163f23a6e6160e01b81526001600160a01b0385169063f23a6e6190612ca69089908990889088908890600401614164565b6020604051808303816000875af1925050508015612ce1575060408051601f3d908101601f19168201909252612cde9181019061405b565b60015b612ced57612994614078565b6001600160e01b0319811663f23a6e6160e01b146125095760405162461bcd60e51b81526004016107ac9061411c565b60606107da6001600160a01b03831660145b60606000612d3e836002613c42565b612d49906002613c2f565b6001600160401b03811115612d6057612d6061334d565b6040519080825280601f01601f191660200182016040528015612d8a576020820181803683370190505b509050600360fc1b81600081518110612da557612da5613c19565b60200101906001600160f81b031916908160001a905350600f60fb1b81600181518110612dd457612dd4613c19565b60200101906001600160f81b031916908160001a9053506000612df8846002613c42565b612e03906001613c2f565b90505b6001811115612e7b576f181899199a1a9b1b9c1cb0b131b232b360811b85600f1660108110612e3757612e37613c19565b1a60f81b828281518110612e4d57612e4d613c19565b60200101906001600160f81b031916908160001a90535060049490941c93612e74816141a9565b9050612e06565b508315612eca5760405162461bcd60e51b815260206004820181905260248201527f537472696e67733a20686578206c656e67746820696e73756666696369656e7460448201526064016107ac565b9392505050565b6001600160a01b038516612f595760005b8351811015612f5757828181518110612efd57612efd613c19565b602002602001015161012d6000868481518110612f1c57612f1c613c19565b602002602001015181526020019081526020016000206000828254612f419190613c2f565b90915550612f50905081613b1a565b9050612ee2565b505b6001600160a01b038416611ead5760005b8351811015612509576000848281518110612f8757612f87613c19565b602002602001015190506000848381518110612fa557612fa5613c19565b60200260200101519050600061012d6000848152602001908152602001600020549050818110156130295760405162461bcd60e51b815260206004820152602860248201527f455243313135353a206275726e20616d6f756e74206578636565647320746f74604482015267616c537570706c7960c01b60648201526084016107ac565b600092835261012d60205260409092209103905561304681613b1a565b9050612f6a565b61305681612a64565b6040516001600160a01b038216907fbc7cd75a20ee27fd9adebab32041f755214dbc6bffa90cc0225b39da2e5c2d3b90600090a250565b6060612eca83836040518060600160405280602781526020016141fd602791396130be565b6067610c948282613c9f565b6060600080856001600160a01b0316856040516130db91906141c0565b600060405180830381855af49150503d8060008114613116576040519150601f19603f3d011682016040523d82523d6000602084013e61311b565b606091505b509150915061312c86838387613136565b9695505050505050565b606083156131a557825160000361319e576001600160a01b0385163b61319e5760405162461bcd60e51b815260206004820152601d60248201527f416464726573733a2063616c6c20746f206e6f6e2d636f6e747261637400000060448201526064016107ac565b50816131af565b6131af83836131b7565b949350505050565b8151156129b35781518083602001fd5b80356001600160a01b03811681146131de57600080fd5b919050565b600080604083850312156131f657600080fd5b6131ff836131c7565b946020939093013593505050565b6001600160e01b031981168114610d7457600080fd5b60006020828403121561323557600080fd5b8135612eca8161320d565b60006020828403121561325257600080fd5b5035919050565b60005b8381101561327457818101518382015260200161325c565b50506000910152565b60008151808452613295816020860160208601613259565b601f01601f19169290920160200192915050565b602081526000612eca602083018461327d565b634e487b7160e01b600052602160045260246000fd5b600481106132f057634e487b7160e01b600052602160045260246000fd5b9052565b6132fe81886132d2565b85602082015284604082015260018060a01b038416606082015260c06080820152600061332e60c083018561327d565b82810360a0840152613340818561327d565b9998505050505050505050565b634e487b7160e01b600052604160045260246000fd5b601f8201601f191681016001600160401b03811182821017156133885761338861334d565b6040525050565b60006001600160401b038211156133a8576133a861334d565b5060051b60200190565b600082601f8301126133c357600080fd5b813560206133d08261338f565b6040516133dd8282613363565b83815260059390931b85018201928281019150868411156133fd57600080fd5b8286015b848110156134185780358352918301918301613401565b509695505050505050565b600082601f83011261343457600080fd5b81356001600160401b0381111561344d5761344d61334d565b604051613464601f8301601f191660200182613363565b81815284602083860101111561347957600080fd5b816020850160208301376000918101602001919091529392505050565b600080600080600060a086880312156134ae57600080fd5b6134b7866131c7565b94506134c5602087016131c7565b935060408601356001600160401b03808211156134e157600080fd5b6134ed89838a016133b2565b9450606088013591508082111561350357600080fd5b61350f89838a016133b2565b9350608088013591508082111561352557600080fd5b5061353288828901613423565b9150509295509295909350565b6000806040838503121561355257600080fd5b82359150613562602084016131c7565b90509250929050565b60006020828403121561357d57600080fd5b612eca826131c7565b6000806040838503121561359957600080fd5b82356001600160401b03808211156135b057600080fd5b818501915085601f8301126135c457600080fd5b813560206135d18261338f565b6040516135de8282613363565b83815260059390931b85018201928281019150898411156135fe57600080fd5b948201945b8386101561362357613614866131c7565b82529482019490820190613603565b9650508601359250508082111561363957600080fd5b50613646858286016133b2565b9150509250929050565b600081518084526020808501945080840160005b8381101561368057815187529582019590820190600101613664565b509495945050505050565b602081526000612eca6020830184613650565b600080604083850312156136b157600080fd5b6136ba836131c7565b915060208301356001600160401b038111156136d557600080fd5b61364685828601613423565b6000806000606084860312156136f657600080fd5b6136ff846131c7565b925060208401356001600160401b038082111561371b57600080fd5b613727878388016133b2565b9350604086013591508082111561373d57600080fd5b5061374a868287016133b2565b9150509250925092565b6000806000806080858703121561376a57600080fd5b8435935060208501359250613781604086016131c7565b915060608501356001600160401b0381111561379c57600080fd5b6137a887828801613423565b91505092959194509250565b600080604083850312156137c757600080fd5b6137d0836131c7565b9150602083013580151581146137e557600080fd5b809150509250929050565b600080600080600060a0868803121561380857600080fd5b85359450613818602087016131c7565b9350613826604087016131c7565b925060608601356001600160401b038082111561384257600080fd5b61350f89838a01613423565b60006020808301818452808551808352604092508286019150828160051b87010184880160005b838110156138b657888303603f19018552815180518785526138998886018261327d565b918901519489019490945294870194925090860190600101613875565b509098975050505050505050565b600080604083850312156138d757600080fd5b50508035926020909101359150565b60006020808301818452808551808352604092508286019150828160051b87010184880160005b838110156138b657603f19898403018552815160c061392d8583516132d2565b81890151858a015287820151888601526060808301516001600160a01b0316908601526080808301518187018390526139688388018261327d565b9250505060a08083015192508582038187015250613986818361327d565b96890196945050509086019060010161390d565b6000806000606084860312156139af57600080fd5b8335925060208401356001600160401b03808211156139cd57600080fd5b6139d987838801613423565b935060408601359150808211156139ef57600080fd5b5061374a86828701613423565b60008060408385031215613a0f57600080fd5b613a18836131c7565b9150613562602084016131c7565b600080600080600060a08688031215613a3e57600080fd5b613a47866131c7565b9450613a55602087016131c7565b9350604086013592506060860135915060808601356001600160401b03811115613a7e57600080fd5b61353288828901613423565b600080600060608486031215613a9f57600080fd5b613aa8846131c7565b95602085013595506040909401359392505050565b600181811c90821680613ad157607f821691505b602082108103611aea57634e487b7160e01b600052602260045260246000fd5b634e487b7160e01b600052601160045260246000fd5b818103818111156107da576107da613af1565b600060018201613b2c57613b2c613af1565b5060010190565b6020808252602e908201527f455243313135353a2063616c6c6572206973206e6f7420746f6b656e206f776e60408201526d195c881bdc88185c1c1c9bdd995960921b606082015260800190565b6020808252602c908201527f46756e6374696f6e206d7573742062652063616c6c6564207468726f7567682060408201526b19195b1959d85d1958d85b1b60a21b606082015260800190565b6020808252602c908201527f46756e6374696f6e206d7573742062652063616c6c6564207468726f7567682060408201526b6163746976652070726f787960a01b606082015260800190565b634e487b7160e01b600052603260045260246000fd5b808201808211156107da576107da613af1565b80820281158282048414176107da576107da613af1565b601f821115610c1557600081815260208120601f850160051c81016020861015613c805750805b601f850160051c820191505b81811015611ead57828155600101613c8c565b81516001600160401b03811115613cb857613cb861334d565b613ccc81613cc68454613abd565b84613c59565b602080601f831160018114613d015760008415613ce95750858301515b600019600386901b1c1916600185901b178555611ead565b600085815260208120601f198616915b82811015613d3057888601518255948401946001909101908401613d11565b5085821015613d4e5787850151600019600388901b60f8161c191681555b5050505050600190811b01905550565b848152608060208201526000613d77608083018661327d565b6040830194909452506001600160a01b039190911660609091015292915050565b60208082526028908201527f455243313135353a2069647320616e6420616d6f756e7473206c656e677468206040820152670dad2e6dac2e8c6d60c31b606082015260800190565b60208082526025908201527f455243313135353a207472616e7366657220746f20746865207a65726f206164604082015264647265737360d81b606082015260800190565b6020808252602a908201527f455243313135353a20696e73756666696369656e742062616c616e636520666f60408201526939103a3930b739b332b960b11b606082015260800190565b604081526000613e826040830185613650565b8281036020840152613e948185613650565b95945050505050565b600060208284031215613eaf57600080fd5b5051919050565b60208082526023908201527f455243313135353a206275726e2066726f6d20746865207a65726f206164647260408201526265737360e81b606082015260800190565b60208082526024908201527f455243313135353a206275726e20616d6f756e7420657863656564732062616c604082015263616e636560e01b606082015260800190565b6020808252602b908201527f496e697469616c697a61626c653a20636f6e7472616374206973206e6f74206960408201526a6e697469616c697a696e6760a81b606082015260800190565b7f416363657373436f6e74726f6c3a206163636f756e7420000000000000000000815260008351613fc0816017850160208801613259565b7001034b99036b4b9b9b4b733903937b6329607d1b6017918401918201528351613ff1816028840160208801613259565b01602801949350505050565b6001600160a01b0386811682528516602082015260a06040820181905260009061402990830186613650565b828103606084015261403b8186613650565b9050828103608084015261404f818561327d565b98975050505050505050565b60006020828403121561406d57600080fd5b8151612eca8161320d565b600060033d111561104f5760046000803e5060005160e01c90565b600060443d10156140a15790565b6040516003193d81016004833e81513d6001600160401b0381602484011181841117156140d057505050505090565b82850191508151818111156140e85750505050505090565b843d87010160208285010111156141025750505050505090565b61411160208286010187613363565b509095945050505050565b60208082526028908201527f455243313135353a204552433131353552656365697665722072656a656374656040820152676420746f6b656e7360c01b606082015260800190565b6001600160a01b03868116825285166020820152604081018490526060810183905260a06080820181905260009061419e9083018461327d565b979650505050505050565b6000816141b8576141b8613af1565b506000190190565b600082516141d2818460208701613259565b919091019291505056fe360894a13ba1a3210667c828492db98dca3e2076cc3735a920a3ca505d382bbc416464726573733a206c6f772d6c6576656c2064656c65676174652063616c6c206661696c6564a2646970667358221220749b0545c67a95a37cd13c435df55c9c3e568da0b5e1612da4f2949999371ea164736f6c63430008130033",
  "linkReferences": {},
  "deployedLinkReferences": {}
}