{
  "_format": "hh-sol-artifact-1",
  "contractName": "Beliefs",
  "sourceName": "src/Beliefs/Beliefs.sol",
  "abi": [
    {
      "inputs": [],
      "name": "EditionFeeExceedsMaximumFee",
      "type": "error"
    },
    {
      "inputs": [],
      "name": "EditionNotCreated",
      "type": "error"
    },
    {
      "inputs": [],
      "name": "EditionNotEnoughBalance",
      "type": "error"
    },
    {
      "inputs": [],
      "name": "EditionNotLaunched",
      "type": "error"
    },
    {
      "inputs": [],
      "name": "EditionNotStopped",
      "type": "error"
    },
    {
      "inputs": [],
      "name": "NotCorrectUser",
      "type": "error"
    },
    {
      "inputs": [],
      "name": "NotEditionOwner",
      "type": "error"
    },
    {
      "inputs": [],
      "name": "NotEnoughFunds",
      "type": "error"
    },
    {
      "inputs": [],
      "name": "TransactionFailed",
      "type": "error"
    },
    {
      "anonymous": false,
      "inputs": [
        {
          "indexed": false,
          "internalType": "address",
          "name": "previousAdmin",
          "type": "address"
        },
        {
          "indexed": false,
          "internalType": "address",
          "name": "newAdmin",
          "type": "address"
        }
      ],
      "name": "AdminChanged",
      "type": "event"
    },
    {
      "anonymous": false,
      "inputs": [
        {
          "indexed": true,
          "internalType": "address",
          "name": "account",
          "type": "address"
        },
        {
          "indexed": true,
          "internalType": "address",
          "name": "operator",
          "type": "address"
        },
        {
          "indexed": false,
          "internalType": "bool",
          "name": "approved",
          "type": "bool"
        }
      ],
      "name": "ApprovalForAll",
      "type": "event"
    },
    {
      "anonymous": false,
      "inputs": [
        {
          "indexed": true,
          "internalType": "address",
          "name": "user",
          "type": "address"
        },
        {
          "indexed": false,
          "internalType": "uint256",
          "name": "amount",
          "type": "uint256"
        }
      ],
      "name": "BalanceRetrieved",
      "type": "event"
    },
    {
      "anonymous": false,
      "inputs": [
        {
          "indexed": true,
          "internalType": "address",
          "name": "beacon",
          "type": "address"
        }
      ],
      "name": "BeaconUpgraded",
      "type": "event"
    },
    {
      "anonymous": false,
      "inputs": [
        {
          "indexed": false,
          "internalType": "uint256",
          "name": "editionId",
          "type": "uint256"
        }
      ],
      "name": "EditionApproved",
      "type": "event"
    },
    {
      "anonymous": false,
      "inputs": [
        {
          "indexed": false,
          "internalType": "uint256",
          "name": "editionId",
          "type": "uint256"
        },
        {
          "indexed": false,
          "internalType": "uint256",
          "name": "amount",
          "type": "uint256"
        },
        {
          "indexed": false,
          "internalType": "address",
          "name": "owner",
          "type": "address"
        }
      ],
      "name": "EditionBalanceWithdrawn",
      "type": "event"
    },
    {
      "anonymous": false,
      "inputs": [
        {
          "indexed": false,
          "internalType": "uint256",
          "name": "amount",
          "type": "uint256"
        },
        {
          "indexed": false,
          "internalType": "address",
          "name": "owner",
          "type": "address"
        }
      ],
      "name": "EditionBalanceWithdrawnFromAll",
      "type": "event"
    },
    {
      "anonymous": false,
      "inputs": [
        {
          "indexed": true,
          "internalType": "uint256",
          "name": "editionId",
          "type": "uint256"
        },
        {
          "indexed": true,
          "internalType": "address",
          "name": "believer",
          "type": "address"
        }
      ],
      "name": "EditionBeliefRemoved",
      "type": "event"
    },
    {
      "anonymous": false,
      "inputs": [
        {
          "indexed": true,
          "internalType": "uint256",
          "name": "editionId",
          "type": "uint256"
        },
        {
          "indexed": true,
          "internalType": "address",
          "name": "believer",
          "type": "address"
        },
        {
          "indexed": false,
          "internalType": "string",
          "name": "tags",
          "type": "string"
        }
      ],
      "name": "EditionBelieved",
      "type": "event"
    },
    {
      "anonymous": false,
      "inputs": [
        {
          "indexed": false,
          "internalType": "uint256",
          "name": "editionId",
          "type": "uint256"
        },
        {
          "indexed": false,
          "internalType": "string",
          "name": "briefId",
          "type": "string"
        },
        {
          "indexed": false,
          "internalType": "uint256",
          "name": "fee",
          "type": "uint256"
        },
        {
          "indexed": false,
          "internalType": "address",
          "name": "owner",
          "type": "address"
        }
      ],
      "name": "EditionCreated",
      "type": "event"
    },
    {
      "anonymous": false,
      "inputs": [
        {
          "indexed": false,
          "internalType": "uint256",
          "name": "editionId",
          "type": "uint256"
        }
      ],
      "name": "EditionResumed",
      "type": "event"
    },
    {
      "anonymous": false,
      "inputs": [
        {
          "indexed": false,
          "internalType": "uint256",
          "name": "editionId",
          "type": "uint256"
        }
      ],
      "name": "EditionStopped",
      "type": "event"
    },
    {
      "anonymous": false,
      "inputs": [
        {
          "indexed": false,
          "internalType": "uint8",
          "name": "version",
          "type": "uint8"
        }
      ],
      "name": "Initialized",
      "type": "event"
    },
    {
      "anonymous": false,
      "inputs": [
        {
          "indexed": false,
          "internalType": "address",
          "name": "account",
          "type": "address"
        }
      ],
      "name": "Paused",
      "type": "event"
    },
    {
      "anonymous": false,
      "inputs": [
        {
          "indexed": true,
          "internalType": "bytes32",
          "name": "role",
          "type": "bytes32"
        },
        {
          "indexed": true,
          "internalType": "bytes32",
          "name": "previousAdminRole",
          "type": "bytes32"
        },
        {
          "indexed": true,
          "internalType": "bytes32",
          "name": "newAdminRole",
          "type": "bytes32"
        }
      ],
      "name": "RoleAdminChanged",
      "type": "event"
    },
    {
      "anonymous": false,
      "inputs": [
        {
          "indexed": true,
          "internalType": "bytes32",
          "name": "role",
          "type": "bytes32"
        },
        {
          "indexed": true,
          "internalType": "address",
          "name": "account",
          "type": "address"
        },
        {
          "indexed": true,
          "internalType": "address",
          "name": "sender",
          "type": "address"
        }
      ],
      "name": "RoleGranted",
      "type": "event"
    },
    {
      "anonymous": false,
      "inputs": [
        {
          "indexed": true,
          "internalType": "bytes32",
          "name": "role",
          "type": "bytes32"
        },
        {
          "indexed": true,
          "internalType": "address",
          "name": "account",
          "type": "address"
        },
        {
          "indexed": true,
          "internalType": "address",
          "name": "sender",
          "type": "address"
        }
      ],
      "name": "RoleRevoked",
      "type": "event"
    },
    {
      "anonymous": false,
      "inputs": [
        {
          "indexed": true,
          "internalType": "address",
          "name": "operator",
          "type": "address"
        },
        {
          "indexed": true,
          "internalType": "address",
          "name": "from",
          "type": "address"
        },
        {
          "indexed": true,
          "internalType": "address",
          "name": "to",
          "type": "address"
        },
        {
          "indexed": false,
          "internalType": "uint256[]",
          "name": "ids",
          "type": "uint256[]"
        },
        {
          "indexed": false,
          "internalType": "uint256[]",
          "name": "values",
          "type": "uint256[]"
        }
      ],
      "name": "TransferBatch",
      "type": "event"
    },
    {
      "anonymous": false,
      "inputs": [
        {
          "indexed": true,
          "internalType": "address",
          "name": "operator",
          "type": "address"
        },
        {
          "indexed": true,
          "internalType": "address",
          "name": "from",
          "type": "address"
        },
        {
          "indexed": true,
          "internalType": "address",
          "name": "to",
          "type": "address"
        },
        {
          "indexed": false,
          "internalType": "uint256",
          "name": "id",
          "type": "uint256"
        },
        {
          "indexed": false,
          "internalType": "uint256",
          "name": "value",
          "type": "uint256"
        }
      ],
      "name": "TransferSingle",
      "type": "event"
    },
    {
      "anonymous": false,
      "inputs": [
        {
          "indexed": false,
          "internalType": "string",
          "name": "value",
          "type": "string"
        },
        {
          "indexed": true,
          "internalType": "uint256",
          "name": "id",
          "type": "uint256"
        }
      ],
      "name": "URI",
      "type": "event"
    },
    {
      "anonymous": false,
      "inputs": [
        {
          "indexed": false,
          "internalType": "address",
          "name": "account",
          "type": "address"
        }
      ],
      "name": "Unpaused",
      "type": "event"
    },
    {
      "anonymous": false,
      "inputs": [
        {
          "indexed": true,
          "internalType": "address",
          "name": "implementation",
          "type": "address"
        }
      ],
      "name": "Upgraded",
      "type": "event"
    },
    {
      "stateMutability": "payable",
      "type": "fallback"
    },
    {
      "inputs": [],
      "name": "DEFAULT_ADMIN_ROLE",
      "outputs": [
        {
          "internalType": "bytes32",
          "name": "",
          "type": "bytes32"
        }
      ],
      "stateMutability": "view",
      "type": "function"
    },
    {
      "inputs": [
        {
          "internalType": "uint256",
          "name": "editionId",
          "type": "uint256"
        }
      ],
      "name": "approveEdition",
      "outputs": [],
      "stateMutability": "nonpayable",
      "type": "function"
    },
    {
      "inputs": [
        {
          "internalType": "address",
          "name": "account",
          "type": "address"
        },
        {
          "internalType": "uint256",
          "name": "id",
          "type": "uint256"
        }
      ],
      "name": "balanceOf",
      "outputs": [
        {
          "internalType": "uint256",
          "name": "",
          "type": "uint256"
        }
      ],
      "stateMutability": "view",
      "type": "function"
    },
    {
      "inputs": [
        {
          "internalType": "address[]",
          "name": "accounts",
          "type": "address[]"
        },
        {
          "internalType": "uint256[]",
          "name": "ids",
          "type": "uint256[]"
        }
      ],
      "name": "balanceOfBatch",
      "outputs": [
        {
          "internalType": "uint256[]",
          "name": "",
          "type": "uint256[]"
        }
      ],
      "stateMutability": "view",
      "type": "function"
    },
    {
      "inputs": [
        {
          "internalType": "address",
          "name": "user",
          "type": "address"
        }
      ],
      "name": "balances",
      "outputs": [
        {
          "internalType": "uint256",
          "name": "balance",
          "type": "uint256"
        }
      ],
      "stateMutability": "view",
      "type": "function"
    },
    {
      "inputs": [
        {
          "internalType": "uint256",
          "name": "editionId",
          "type": "uint256"
        },
        {
          "internalType": "string",
          "name": "tags",
          "type": "string"
        }
      ],
      "name": "believeProject",
      "outputs": [],
      "stateMutability": "payable",
      "type": "function"
    },
    {
      "inputs": [
        {
          "internalType": "address",
          "name": "account",
          "type": "address"
        },
        {
          "internalType": "uint256",
          "name": "id",
          "type": "uint256"
        },
        {
          "internalType": "uint256",
          "name": "value",
          "type": "uint256"
        }
      ],
      "name": "burn",
      "outputs": [],
      "stateMutability": "nonpayable",
      "type": "function"
    },
    {
      "inputs": [
        {
          "internalType": "address",
          "name": "account",
          "type": "address"
        },
        {
          "internalType": "uint256[]",
          "name": "ids",
          "type": "uint256[]"
        },
        {
          "internalType": "uint256[]",
          "name": "values",
          "type": "uint256[]"
        }
      ],
      "name": "burnBatch",
      "outputs": [],
      "stateMutability": "nonpayable",
      "type": "function"
    },
    {
      "inputs": [
        {
          "internalType": "uint256",
          "name": "fee",
          "type": "uint256"
        },
        {
          "internalType": "address",
          "name": "owner",
          "type": "address"
        },
        {
          "internalType": "address",
          "name": "payer",
          "type": "address"
        },
        {
          "internalType": "string",
          "name": "id",
          "type": "string"
        },
        {
          "internalType": "string",
          "name": "briefId",
          "type": "string"
        }
      ],
      "name": "createEdition",
      "outputs": [
        {
          "internalType": "uint256",
          "name": "editionId",
          "type": "uint256"
        }
      ],
      "stateMutability": "nonpayable",
      "type": "function"
    },
    {
      "inputs": [],
      "name": "editionCounter",
      "outputs": [
        {
          "internalType": "uint256",
          "name": "",
          "type": "uint256"
        }
      ],
      "stateMutability": "view",
      "type": "function"
    },
    {
      "inputs": [
        {
          "internalType": "uint256",
          "name": "",
          "type": "uint256"
        }
      ],
      "name": "editions",
      "outputs": [
        {
          "internalType": "enum EditionsStructs.EditionStatus",
          "name": "status",
          "type": "uint8"
        },
        {
          "internalType": "uint256",
          "name": "fee",
          "type": "uint256"
        },
        {
          "internalType": "uint256",
          "name": "balance",
          "type": "uint256"
        },
        {
          "internalType": "address",
          "name": "owner",
          "type": "address"
        },
        {
          "internalType": "string",
          "name": "id",
          "type": "string"
        },
        {
          "internalType": "string",
          "name": "briefId",
          "type": "string"
        }
      ],
      "stateMutability": "view",
      "type": "function"
    },
    {
      "inputs": [
        {
          "internalType": "uint256",
          "name": "id",
          "type": "uint256"
        }
      ],
      "name": "exists",
      "outputs": [
        {
          "internalType": "bool",
          "name": "",
          "type": "bool"
        }
      ],
      "stateMutability": "view",
      "type": "function"
    },
    {
      "inputs": [],
      "name": "futureFundFee",
      "outputs": [
        {
          "internalType": "uint256",
          "name": "",
          "type": "uint256"
        }
      ],
      "stateMutability": "view",
      "type": "function"
    },
    {
      "inputs": [
        {
          "internalType": "address",
          "name": "owner",
          "type": "address"
        }
      ],
      "name": "getBalances",
      "outputs": [
        {
          "components": [
            {
              "internalType": "string",
              "name": "id",
              "type": "string"
            },
            {
              "internalType": "uint256",
              "name": "amount",
              "type": "uint256"
            }
          ],
          "internalType": "struct EditionsStructs.EditionIdWithAmount[]",
          "name": "",
          "type": "tuple[]"
        }
      ],
      "stateMutability": "view",
      "type": "function"
    },
    {
      "inputs": [],
      "name": "getEditions",
      "outputs": [
        {
          "components": [
            {
              "internalType": "enum EditionsStructs.EditionStatus",
              "name": "status",
              "type": "uint8"
            },
            {
              "internalType": "uint256",
              "name": "fee",
              "type": "uint256"
            },
            {
              "internalType": "uint256",
              "name": "balance",
              "type": "uint256"
            },
            {
              "internalType": "address",
              "name": "owner",
              "type": "address"
            },
            {
              "internalType": "string",
              "name": "id",
              "type": "string"
            },
            {
              "internalType": "string",
              "name": "briefId",
              "type": "string"
            }
          ],
          "internalType": "struct EditionsStructs.Edition[]",
          "name": "",
          "type": "tuple[]"
        }
      ],
      "stateMutability": "view",
      "type": "function"
    },
    {
      "inputs": [
        {
          "internalType": "bytes32",
          "name": "role",
          "type": "bytes32"
        }
      ],
      "name": "getRoleAdmin",
      "outputs": [
        {
          "internalType": "bytes32",
          "name": "",
          "type": "bytes32"
        }
      ],
      "stateMutability": "view",
      "type": "function"
    },
    {
      "inputs": [
        {
          "internalType": "address",
          "name": "user",
          "type": "address"
        }
      ],
      "name": "getUserBeliefs",
      "outputs": [
        {
          "internalType": "bool[]",
          "name": "",
          "type": "bool[]"
        }
      ],
      "stateMutability": "view",
      "type": "function"
    },
    {
      "inputs": [
        {
          "internalType": "bytes32",
          "name": "role",
          "type": "bytes32"
        },
        {
          "internalType": "address",
          "name": "account",
          "type": "address"
        }
      ],
      "name": "grantRole",
      "outputs": [],
      "stateMutability": "nonpayable",
      "type": "function"
    },
    {
      "inputs": [
        {
          "internalType": "bytes32",
          "name": "role",
          "type": "bytes32"
        },
        {
          "internalType": "address",
          "name": "account",
          "type": "address"
        }
      ],
      "name": "hasRole",
      "outputs": [
        {
          "internalType": "bool",
          "name": "",
          "type": "bool"
        }
      ],
      "stateMutability": "view",
      "type": "function"
    },
    {
      "inputs": [],
      "name": "initialize",
      "outputs": [],
      "stateMutability": "nonpayable",
      "type": "function"
    },
    {
      "inputs": [
        {
          "internalType": "address",
          "name": "account",
          "type": "address"
        },
        {
          "internalType": "address",
          "name": "operator",
          "type": "address"
        }
      ],
      "name": "isApprovedForAll",
      "outputs": [
        {
          "internalType": "bool",
          "name": "",
          "type": "bool"
        }
      ],
      "stateMutability": "view",
      "type": "function"
    },
    {
      "inputs": [],
      "name": "maximumEditionFee",
      "outputs": [
        {
          "internalType": "uint256",
          "name": "",
          "type": "uint256"
        }
      ],
      "stateMutability": "view",
      "type": "function"
    },
    {
      "inputs": [
        {
          "internalType": "uint256",
          "name": "editionId",
          "type": "uint256"
        },
        {
          "internalType": "uint256",
          "name": "amount",
          "type": "uint256"
        },
        {
          "internalType": "address",
          "name": "buyer",
          "type": "address"
        },
        {
          "internalType": "bytes",
          "name": "data",
          "type": "bytes"
        }
      ],
      "name": "mintEdition",
      "outputs": [],
      "stateMutability": "payable",
      "type": "function"
    },
    {
      "inputs": [],
      "name": "pause",
      "outputs": [],
      "stateMutability": "nonpayable",
      "type": "function"
    },
    {
      "inputs": [],
      "name": "paused",
      "outputs": [
        {
          "internalType": "bool",
          "name": "",
          "type": "bool"
        }
      ],
      "stateMutability": "view",
      "type": "function"
    },
    {
      "inputs": [],
      "name": "protocolFee",
      "outputs": [
        {
          "internalType": "uint256",
          "name": "",
          "type": "uint256"
        }
      ],
      "stateMutability": "view",
      "type": "function"
    },
    {
      "inputs": [],
      "name": "proxiableUUID",
      "outputs": [
        {
          "internalType": "bytes32",
          "name": "",
          "type": "bytes32"
        }
      ],
      "stateMutability": "view",
      "type": "function"
    },
    {
      "inputs": [
        {
          "internalType": "uint256",
          "name": "editionId",
          "type": "uint256"
        }
      ],
      "name": "removeBelief",
      "outputs": [],
      "stateMutability": "nonpayable",
      "type": "function"
    },
    {
      "inputs": [
        {
          "internalType": "bytes32",
          "name": "role",
          "type": "bytes32"
        },
        {
          "internalType": "address",
          "name": "account",
          "type": "address"
        }
      ],
      "name": "renounceRole",
      "outputs": [],
      "stateMutability": "nonpayable",
      "type": "function"
    },
    {
      "inputs": [
        {
          "internalType": "uint256",
          "name": "editionId",
          "type": "uint256"
        }
      ],
      "name": "resumeEdition",
      "outputs": [],
      "stateMutability": "nonpayable",
      "type": "function"
    },
    {
      "inputs": [
        {
          "internalType": "uint256",
          "name": "amount",
          "type": "uint256"
        }
      ],
      "name": "retrieveBalance",
      "outputs": [],
      "stateMutability": "nonpayable",
      "type": "function"
    },
    {
      "inputs": [
        {
          "internalType": "bytes32",
          "name": "role",
          "type": "bytes32"
        },
        {
          "internalType": "address",
          "name": "account",
          "type": "address"
        }
      ],
      "name": "revokeRole",
      "outputs": [],
      "stateMutability": "nonpayable",
      "type": "function"
    },
    {
      "inputs": [
        {
          "internalType": "address",
          "name": "from",
          "type": "address"
        },
        {
          "internalType": "address",
          "name": "to",
          "type": "address"
        },
        {
          "internalType": "uint256[]",
          "name": "ids",
          "type": "uint256[]"
        },
        {
          "internalType": "uint256[]",
          "name": "amounts",
          "type": "uint256[]"
        },
        {
          "internalType": "bytes",
          "name": "data",
          "type": "bytes"
        }
      ],
      "name": "safeBatchTransferFrom",
      "outputs": [],
      "stateMutability": "nonpayable",
      "type": "function"
    },
    {
      "inputs": [
        {
          "internalType": "address",
          "name": "from",
          "type": "address"
        },
        {
          "internalType": "address",
          "name": "to",
          "type": "address"
        },
        {
          "internalType": "uint256",
          "name": "id",
          "type": "uint256"
        },
        {
          "internalType": "uint256",
          "name": "amount",
          "type": "uint256"
        },
        {
          "internalType": "bytes",
          "name": "data",
          "type": "bytes"
        }
      ],
      "name": "safeTransferFrom",
      "outputs": [],
      "stateMutability": "nonpayable",
      "type": "function"
    },
    {
      "inputs": [
        {
          "internalType": "address",
          "name": "operator",
          "type": "address"
        },
        {
          "internalType": "bool",
          "name": "approved",
          "type": "bool"
        }
      ],
      "name": "setApprovalForAll",
      "outputs": [],
      "stateMutability": "nonpayable",
      "type": "function"
    },
    {
      "inputs": [
        {
          "internalType": "uint256",
          "name": "editionId",
          "type": "uint256"
        }
      ],
      "name": "stopEdition",
      "outputs": [],
      "stateMutability": "nonpayable",
      "type": "function"
    },
    {
      "inputs": [
        {
          "internalType": "bytes4",
          "name": "interfaceId",
          "type": "bytes4"
        }
      ],
      "name": "supportsInterface",
      "outputs": [
        {
          "internalType": "bool",
          "name": "",
          "type": "bool"
        }
      ],
      "stateMutability": "view",
      "type": "function"
    },
    {
      "inputs": [
        {
          "internalType": "uint256",
          "name": "id",
          "type": "uint256"
        }
      ],
      "name": "totalSupply",
      "outputs": [
        {
          "internalType": "uint256",
          "name": "",
          "type": "uint256"
        }
      ],
      "stateMutability": "view",
      "type": "function"
    },
    {
      "inputs": [],
      "name": "unpause",
      "outputs": [],
      "stateMutability": "nonpayable",
      "type": "function"
    },
    {
      "inputs": [
        {
          "internalType": "uint256",
          "name": "editionId",
          "type": "uint256"
        },
        {
          "internalType": "string",
          "name": "id",
          "type": "string"
        },
        {
          "internalType": "string",
          "name": "briefId",
          "type": "string"
        }
      ],
      "name": "updateEdition",
      "outputs": [],
      "stateMutability": "nonpayable",
      "type": "function"
    },
    {
      "inputs": [
        {
          "internalType": "address",
          "name": "newImplementation",
          "type": "address"
        }
      ],
      "name": "upgradeTo",
      "outputs": [],
      "stateMutability": "nonpayable",
      "type": "function"
    },
    {
      "inputs": [
        {
          "internalType": "address",
          "name": "newImplementation",
          "type": "address"
        },
        {
          "internalType": "bytes",
          "name": "data",
          "type": "bytes"
        }
      ],
      "name": "upgradeToAndCall",
      "outputs": [],
      "stateMutability": "payable",
      "type": "function"
    },
    {
      "inputs": [
        {
          "internalType": "uint256",
          "name": "",
          "type": "uint256"
        }
      ],
      "name": "uri",
      "outputs": [
        {
          "internalType": "string",
          "name": "",
          "type": "string"
        }
      ],
      "stateMutability": "view",
      "type": "function"
    },
    {
      "inputs": [
        {
          "internalType": "uint256",
          "name": "editionId",
          "type": "uint256"
        },
        {
          "internalType": "uint256",
          "name": "amount",
          "type": "uint256"
        }
      ],
      "name": "withdrawEditionBalance",
      "outputs": [],
      "stateMutability": "nonpayable",
      "type": "function"
    },
    {
      "inputs": [],
      "name": "withdrawFromAllEditionBalance",
      "outputs": [],
      "stateMutability": "nonpayable",
      "type": "function"
    },
    {
      "stateMutability": "payable",
      "type": "receive"
    }
  ],
  "bytecode": "0x60a0604052306080523480156200001557600080fd5b506200002062000026565b620000e7565b600054610100900460ff1615620000935760405162461bcd60e51b815260206004820152602760248201527f496e697469616c697a61626c653a20636f6e747261637420697320696e697469604482015266616c697a696e6760c81b606482015260840160405180910390fd5b60005460ff90811614620000e5576000805460ff191660ff9081179091556040519081527f7f26b83ff96e1f2b6a682f133852f6798a09c465da95921460cefb38474024989060200160405180910390a15b565b608051614be86200011f60003960008181610ca101528181610ce10152818161101b0152818161105b01526110ea0152614be86000f3fe60806040526004361061025d5760003560e01c80637e1cb16011610143578063c6fbb712116100bb578063e985e9c511610077578063e985e9c51461074b578063eb1d100314610794578063f242432a146107c1578063f5298aca146107e1578063f8c1b2fd14610801578063fc74efa21461082157005b8063c6fbb71214610685578063c84aae171461069c578063d547741f146106c9578063d667c9ce146106e9578063df6efc6c14610709578063e43990fe1461072b57005b8063a217fddf1161010a578063a217fddf146105d4578063a22cb465146105e9578063b0e21e8a14610609578063b3a44bd614610620578063b94967a414610640578063bd85b0391461065757005b80637e1cb160146105575780638129fc1c146105775780638456cb591461058c57806391d14854146105a1578063940123da146105c157005b80633f4ba83a116101d657806352d1902d1161019d57806352d1902d146104c05780635c975abb146104d55780636b20c454146104ed5780636b5cb7891461050d5780637357628c14610524578063790bafc61461054457005b80633f4ba83a146104265780633fe9d6821461043b5780634e1273f4146104505780634f1ef2861461047d5780634f558e791461049057005b8063279c806e11610225578063279c806e1461034657806327e235e3146103785780632eb2c2d6146103a65780632f2ff15d146103c657806336568abe146103e65780633659cfe61461040657005b8062fdd58e1461026657806301ffc9a7146102995780630a579eca146102c95780630e89341c146102e9578063248a9ca31461031657005b3661026457005b005b34801561027257600080fd5b50610286610281366004613ada565b610841565b6040519081526020015b60405180910390f35b3480156102a557600080fd5b506102b96102b4366004613b1a565b6108dc565b6040519015158152602001610290565b3480156102d557600080fd5b506102646102e4366004613b37565b6108e7565b3480156102f557600080fd5b50610309610304366004613b37565b6109c9565b6040516102909190613ba0565b34801561032257600080fd5b50610286610331366004613b37565b60009081526097602052604090206001015490565b34801561035257600080fd5b50610366610361366004613b37565b610a5d565b60405161029096959493929190613beb565b34801561038457600080fd5b50610286610393366004613c44565b6101c96020526000908152604090205481565b3480156103b257600080fd5b506102646103c1366004613da8565b610bb3565b3480156103d257600080fd5b506102646103e1366004613e51565b610bff565b3480156103f257600080fd5b50610264610401366004613e51565b610c19565b34801561041257600080fd5b50610264610421366004613c44565b610c97565b34801561043257600080fd5b50610264610d76565b34801561044757600080fd5b50610264610da8565b34801561045c57600080fd5b5061047061046b366004613e7d565b610ee8565b6040516102909190613f82565b61026461048b366004613f95565b611011565b34801561049c57600080fd5b506102b96104ab366004613b37565b600090815261012d6020526040902054151590565b3480156104cc57600080fd5b506102866110dd565b3480156104e157600080fd5b5060c95460ff166102b9565b3480156104f957600080fd5b50610264610508366004613fd8565b611191565b34801561051957600080fd5b506102866101c65481565b34801561053057600080fd5b5061026461053f366004613b37565b6111d4565b61026461055236600461404b565b61126e565b34801561056357600080fd5b50610264610572366004613b37565b611408565b34801561058357600080fd5b50610264611502565b34801561059857600080fd5b506102646116cd565b3480156105ad57600080fd5b506102b96105bc366004613e51565b6116ff565b6102646105cf36600461407b565b61172a565b3480156105e057600080fd5b50610286600081565b3480156105f557600080fd5b506102646106043660046140db565b611817565b34801561061557600080fd5b506102866101c35481565b34801561062c57600080fd5b5061028661063b366004614117565b611822565b34801561064c57600080fd5b506102866101ca5481565b34801561066357600080fd5b50610286610672366004613b37565b600090815261012d602052604090205490565b34801561069157600080fd5b506102866101c55481565b3480156106a857600080fd5b506106bc6106b7366004613c44565b61197c565b6040516102909190614175565b3480156106d557600080fd5b506102646106e4366004613e51565b611ae6565b3480156106f557600080fd5b506102646107043660046141eb565b611b0b565b34801561071557600080fd5b5061071e611c4d565b604051610290919061420d565b34801561073757600080fd5b506102646107463660046142c1565b611ebc565b34801561075757600080fd5b506102b9610766366004614323565b6001600160a01b03918216600090815260666020908152604080832093909416825291909152205460ff1690565b3480156107a057600080fd5b506107b46107af366004613c44565b611f42565b604051610290919061434d565b3480156107cd57600080fd5b506102646107dc366004614393565b612002565b3480156107ed57600080fd5b506102646107fc3660046143f7565b612047565b34801561080d57600080fd5b5061026461081c366004613b37565b61208a565b34801561082d57600080fd5b5061026461083c366004613b37565b61211f565b60006001600160a01b0383166108b15760405162461bcd60e51b815260206004820152602a60248201527f455243313135353a2061646472657373207a65726f206973206e6f742061207660448201526930b634b21037bbb732b960b11b60648201526084015b60405180910390fd5b5060008181526065602090815260408083206001600160a01b03861684529091529020545b92915050565b60006108d6826121fa565b60008181526101c460205260409020600301546001600160a01b031633148061091657506109166000336116ff565b6109335760405163388f811f60e01b815260040160405180910390fd5b600260008281526101c4602052604090205460ff16600381111561095957610959613bb3565b1461097757604051631f0fb6fd60e11b815260040160405180910390fd5b60008181526101c46020908152604091829020805460ff1916600317905590518281527f591913f977ab242c5871f116f36be231ff67df5e8e0bac1efd91fa8a723aca2b91015b60405180910390a150565b6060606780546109d89061442a565b80601f0160208091040260200160405190810160405280929190818152602001828054610a049061442a565b8015610a515780601f10610a2657610100808354040283529160200191610a51565b820191906000526020600020905b815481529060010190602001808311610a3457829003601f168201915b50505050509050919050565b6101c4602052600090815260409020805460018201546002830154600384015460048501805460ff90951695939492936001600160a01b0390921692610aa29061442a565b80601f0160208091040260200160405190810160405280929190818152602001828054610ace9061442a565b8015610b1b5780601f10610af057610100808354040283529160200191610b1b565b820191906000526020600020905b815481529060010190602001808311610afe57829003601f168201915b505050505090806005018054610b309061442a565b80601f0160208091040260200160405190810160405280929190818152602001828054610b5c9061442a565b8015610ba95780601f10610b7e57610100808354040283529160200191610ba9565b820191906000526020600020905b815481529060010190602001808311610b8c57829003601f168201915b5050505050905086565b6001600160a01b038516331480610bcf5750610bcf8533610766565b610beb5760405162461bcd60e51b81526004016108a89061445e565b610bf8858585858561221f565b5050505050565b6000610c0a816123cc565b610c1483836123d6565b505050565b6001600160a01b0381163314610c895760405162461bcd60e51b815260206004820152602f60248201527f416363657373436f6e74726f6c3a2063616e206f6e6c792072656e6f756e636560448201526e103937b632b9903337b91039b2b63360891b60648201526084016108a8565b610c93828261245c565b5050565b6001600160a01b037f0000000000000000000000000000000000000000000000000000000000000000163003610cdf5760405162461bcd60e51b81526004016108a8906144ac565b7f00000000000000000000000000000000000000000000000000000000000000006001600160a01b0316610d28600080516020614b6c833981519152546001600160a01b031690565b6001600160a01b031614610d4e5760405162461bcd60e51b81526004016108a8906144f8565b610d57816124c3565b60408051600080825260208201909252610d73918391906124ed565b50565b7f65d7a28e3265b37a6474929f336521b332c1681b933f6cb9f3376673440d862a610da0816123cc565b610d73612658565b6000805b6101c554811015610e205760008181526101c46020526040902060030154336001600160a01b0390911603610e0e5760008181526101c46020526040902060020154610df8908361455a565b60008281526101c4602052604081206002015591505b80610e188161456d565b915050610dac565b5080600003610e4257604051637eafab7d60e01b815260040160405180910390fd5b604051600090339083908381818185875af1925050503d8060008114610e84576040519150601f19603f3d011682016040523d82523d6000602084013e610e89565b606091505b5050905080610eab576040516317f2c34560e31b815260040160405180910390fd5b604080518381523360208201527f2c4d8ac9e2e78ca782b763534316eee3d845022aa396eca3410bfc99512f7f0191015b60405180910390a15050565b60608151835114610f4d5760405162461bcd60e51b815260206004820152602960248201527f455243313135353a206163636f756e747320616e6420696473206c656e677468604482015268040dad2e6dac2e8c6d60bb1b60648201526084016108a8565b600083516001600160401b03811115610f6857610f68613c5f565b604051908082528060200260200182016040528015610f91578160200160208202803683370190505b50905060005b845181101561100957610fdc858281518110610fb557610fb5614586565b6020026020010151858381518110610fcf57610fcf614586565b6020026020010151610841565b828281518110610fee57610fee614586565b60209081029190910101526110028161456d565b9050610f97565b509392505050565b6001600160a01b037f00000000000000000000000000000000000000000000000000000000000000001630036110595760405162461bcd60e51b81526004016108a8906144ac565b7f00000000000000000000000000000000000000000000000000000000000000006001600160a01b03166110a2600080516020614b6c833981519152546001600160a01b031690565b6001600160a01b0316146110c85760405162461bcd60e51b81526004016108a8906144f8565b6110d1826124c3565b610c93828260016124ed565b6000306001600160a01b037f0000000000000000000000000000000000000000000000000000000000000000161461117d5760405162461bcd60e51b815260206004820152603860248201527f555550535570677261646561626c653a206d757374206e6f742062652063616c60448201527f6c6564207468726f7567682064656c656761746563616c6c000000000000000060648201526084016108a8565b50600080516020614b6c8339815191525b90565b6001600160a01b0383163314806111ad57506111ad8333610766565b6111c95760405162461bcd60e51b81526004016108a89061445e565b610c148383836126aa565b60006111df816123cc565b600160008381526101c4602052604090205460ff16600381111561120557611205613bb3565b146112235760405163137c9c1f60e31b815260040160405180910390fd5b60008281526101c46020908152604091829020805460ff1916600217905590518381527f8f4352ac8b4aefdd2333162306bbe09dd4f4ff6661e89ccc4e4dcced8794e8f79101610edc565b6101ca5434101561129257604051631036b5ad60e31b815260040160405180910390fd5b600260008381526101c4602052604090205460ff1660038111156112b8576112b8613bb3565b146112d657604051631f0fb6fd60e11b815260040160405180910390fd5b6112ea34836101c5546101c46101c961284b565b6000805b6101c85481101561134c57336001600160a01b03166101c8828154811061131757611317614586565b6000918252602090912001546001600160a01b03160361133a576001915061134c565b806113448161456d565b9150506112ee565b5080611396576101c880546001810182556000919091527f8cdee82cb3ac6d59f1f417405a3eecf497b31f3d06d4c506f96deb67789f61e90180546001600160a01b031916331790555b3360009081526101c760209081526040808320600887901c845290915290208054600160ff86161b179055336001600160a01b0316837f710e220a47c8d9e50587c80fe509f5e762149ef672440eff70798204dd70f5eb846040516113fb9190613ba0565b60405180910390a3505050565b3360009081526101c960205260409020548082111561143a57604051631036b5ad60e31b815260040160405180910390fd5b3360009081526101c960205260408120805484929061145a90849061459c565b9091555050604051600090339084908381818185875af1925050503d80600081146114a1576040519150601f19603f3d011682016040523d82523d6000602084013e6114a6565b606091505b50509050806114c8576040516317f2c34560e31b815260040160405180910390fd5b60405183815233907f1333c5e908ee77bb5374e2f8269c28becbb0de91028e297ff763ffaf7bd53a1e9060200160405180910390a2505050565b600054610100900460ff16158080156115225750600054600160ff909116105b8061153c5750303b15801561153c575060005460ff166001145b61159f5760405162461bcd60e51b815260206004820152602e60248201527f496e697469616c697a61626c653a20636f6e747261637420697320616c72656160448201526d191e481a5b9a5d1a585b1a5e995960921b60648201526084016108a8565b6000805460ff1916600117905580156115c2576000805461ff0019166101001790555b6115da60405180602001604052806000815250612c27565b6115e2612c57565b6115ea612c80565b6115f2612c57565b6115fa612c57565b611602612c57565b61160d6000336123d6565b6116377f7804d923f43a17d325d77e781528e0793b2edd9890ab45fc64efd7b4b427744c336123d6565b6116617f65d7a28e3265b37a6474929f336521b332c1681b933f6cb9f3376673440d862a336123d6565b61168b7f189ab7a9244df0848122154315af71fe140f3db0fe014031783b0946b8c9d2e3336123d6565b8015610d73576000805461ff0019169055604051600181527f7f26b83ff96e1f2b6a682f133852f6798a09c465da95921460cefb3847402498906020016109be565b7f65d7a28e3265b37a6474929f336521b332c1681b933f6cb9f3376673440d862a6116f7816123cc565b610d73612caf565b60009182526097602090815260408084206001600160a01b0393909316845291905290205460ff1690565b6000611735816123cc565b600260008681526101c4602052604090205460ff16600381111561175b5761175b613bb3565b1461177957604051631f0fb6fd60e11b815260040160405180910390fd5b6101c35460008681526101c46020526040902060010154859161179b9161455a565b6117a591906145af565b3410156117c557604051631036b5ad60e31b815260040160405180910390fd5b6117d183868685612cec565b6101c3546117df90856145af565b6117e9903461459c565b60008681526101c460205260408120600201805490919061180b90849061455a565b90915550505050505050565b610c93338383612e11565b60006101c65486111561184857604051630f0c4c5f60e41b815260040160405180910390fd5b506101c5546040805160c0810190915280600181526020808201899052600060408084018290526001600160a01b038a1660608501526080840188905260a09093018690528481526101c49091522081518154829060ff191660018360038111156118b5576118b5613bb3565b0217905550602082015160018201556040820151600282015560608201516003820180546001600160a01b0319166001600160a01b0390921691909117905560808201516004820190611908908261460c565b5060a0820151600582019061191d908261460c565b50506101c58054915060006119318361456d565b91905055507f3deb71b5a6774038a220621d78241405004043d5a928de9c7956bcc5270416db8183888860405161196b94939291906146cb565b60405180910390a195945050505050565b606060006101c5546001600160401b0381111561199b5761199b613c5f565b6040519080825280602002602001820160405280156119e157816020015b6040805180820190915260608152600060208201528152602001906001900390816119b95790505b50905060005b6101c554811015611adf5760405180604001604052806101c460008481526020019081526020016000206004018054611a1f9061442a565b80601f0160208091040260200160405190810160405280929190818152602001828054611a4b9061442a565b8015611a985780601f10611a6d57610100808354040283529160200191611a98565b820191906000526020600020905b815481529060010190602001808311611a7b57829003601f168201915b50505050508152602001611aac8684610841565b815250828281518110611ac157611ac1614586565b60200260200101819052508080611ad79061456d565b9150506119e7565b5092915050565b600082815260976020526040902060010154611b01816123cc565b610c14838361245c565b60008281526101c460205260409020600301546001600160a01b03163314611b465760405163388f811f60e01b815260040160405180910390fd5b60008281526101c46020526040902060020154811115611b7957604051637eafab7d60e01b815260040160405180910390fd5b60008281526101c4602052604081206002018054839290611b9b90849061459c565b9091555050604051600090339083908381818185875af1925050503d8060008114611be2576040519150601f19603f3d011682016040523d82523d6000602084013e611be7565b606091505b5050905080611c09576040516317f2c34560e31b815260040160405180910390fd5b6040805184815260208101849052338183015290517ff1090e9d5138cd4909542e10e1da576730b07eb291a71a151e63160dde345b949181900360600190a1505050565b606060006101c5546001600160401b03811115611c6c57611c6c613c5f565b604051908082528060200260200182016040528015611ce057816020015b611ccd6040805160c081019091528060008152602001600081526020016000815260200160006001600160a01b0316815260200160608152602001606081525090565b815260200190600190039081611c8a5790505b50905060005b6101c554811015611eb65760008181526101c4602052604090819020815160c081019092528054829060ff166003811115611d2357611d23613bb3565b6003811115611d3457611d34613bb3565b8152600182015460208201526002820154604082015260038201546001600160a01b03166060820152600482018054608090920191611d729061442a565b80601f0160208091040260200160405190810160405280929190818152602001828054611d9e9061442a565b8015611deb5780601f10611dc057610100808354040283529160200191611deb565b820191906000526020600020905b815481529060010190602001808311611dce57829003601f168201915b50505050508152602001600582018054611e049061442a565b80601f0160208091040260200160405190810160405280929190818152602001828054611e309061442a565b8015611e7d5780601f10611e5257610100808354040283529160200191611e7d565b820191906000526020600020905b815481529060010190602001808311611e6057829003601f168201915b505050505081525050828281518110611e9857611e98614586565b60200260200101819052508080611eae9061456d565b915050611ce6565b50919050565b6000611ec7816123cc565b60008481526101c4602052604081205460ff166003811115611eeb57611eeb613bb3565b03611f095760405163137c9c1f60e31b815260040160405180910390fd5b60008481526101c460205260409020600401611f25848261460c565b5060008481526101c460205260409020600501610bf8838261460c565b606060006101c5546001600160401b03811115611f6157611f61613c5f565b604051908082528060200260200182016040528015611f8a578160200160208202803683370190505b50905060005b6101c554811015611adf576001600160a01b03841660009081526101c760209081526040808320600885901c8452909152902054600160ff83161b161515828281518110611fe057611fe0614586565b9115156020928302919091019091015280611ffa8161456d565b915050611f90565b6001600160a01b03851633148061201e575061201e8533610766565b61203a5760405162461bcd60e51b81526004016108a89061445e565b610bf88585858585612ee9565b6001600160a01b03831633148061206357506120638333610766565b61207f5760405162461bcd60e51b81526004016108a89061445e565b610c14838383613025565b3360009081526101c760209081526040808320600885901c84529182905290912054600160ff84161b166120d15760405163423f327760e11b815260040160405180910390fd5b600882901c6000908152602082905260408082208054600160ff87161b1916905551339184917fc6c1c3224e50c3c958e39197695bdfe8457ce7c0014d8d51a4d3aa12c5ac18489190a35050565b60008181526101c460205260409020600301546001600160a01b031633148061214e575061214e6000336116ff565b61216b5760405163388f811f60e01b815260040160405180910390fd5b600360008281526101c4602052604090205460ff16600381111561219157612191613bb3565b146121af5760405163968807a560e01b815260040160405180910390fd5b60008181526101c46020908152604091829020805460ff1916600217905590518281527f63bb17c9645a29322601b4fe88d8f3fa84f32229368294f903084be8f5d813ba91016109be565b60006001600160e01b03198216637965db0b60e01b14806108d657506108d682613141565b81518351146122405760405162461bcd60e51b81526004016108a890614705565b6001600160a01b0384166122665760405162461bcd60e51b81526004016108a89061474d565b33612275818787878787613191565b60005b845181101561235e57600085828151811061229557612295614586565b6020026020010151905060008583815181106122b3576122b3614586565b60209081029190910181015160008481526065835260408082206001600160a01b038e1683529093529190912054909150818110156123045760405162461bcd60e51b81526004016108a890614792565b60008381526065602090815260408083206001600160a01b038e8116855292528083208585039055908b1682528120805484929061234390849061455a565b92505081905550505050806123579061456d565b9050612278565b50846001600160a01b0316866001600160a01b0316826001600160a01b03167f4a39dc06d4c0dbc64b70af90fd698a233a518aa5d07e595d983b8c0526c8f7fb87876040516123ae9291906147dc565b60405180910390a46123c48187878787876131a7565b505050505050565b610d738133613302565b6123e082826116ff565b610c935760008281526097602090815260408083206001600160a01b03851684529091529020805460ff191660011790556124183390565b6001600160a01b0316816001600160a01b0316837f2f8788117e7eff1d82e926ec794901d17c78024a50270940304540a733656f0d60405160405180910390a45050565b61246682826116ff565b15610c935760008281526097602090815260408083206001600160a01b0385168085529252808320805460ff1916905551339285917ff6391f5c32d9c69d2a47ea670b442974b53935d1edc7fd64eb21e047a839171b9190a45050565b7f189ab7a9244df0848122154315af71fe140f3db0fe014031783b0946b8c9d2e3610c93816123cc565b7f4910fdfa16fed3260ed0e7147f7cc6da11a60208b5b9406d12a635614ffd91435460ff161561252057610c148361335b565b826001600160a01b03166352d1902d6040518163ffffffff1660e01b8152600401602060405180830381865afa92505050801561257a575060408051601f3d908101601f191682019092526125779181019061480a565b60015b6125dd5760405162461bcd60e51b815260206004820152602e60248201527f45524331393637557067726164653a206e657720696d706c656d656e7461746960448201526d6f6e206973206e6f74205555505360901b60648201526084016108a8565b600080516020614b6c833981519152811461264c5760405162461bcd60e51b815260206004820152602960248201527f45524331393637557067726164653a20756e737570706f727465642070726f786044820152681a58589b195555525160ba1b60648201526084016108a8565b50610c148383836133f7565b61266061341c565b60c9805460ff191690557f5db9ee0a495bf2e6ff9c91a7834c1ba4fdd244a5e8aa4e537bd38aeae4b073aa335b6040516001600160a01b03909116815260200160405180910390a1565b6001600160a01b0383166126d05760405162461bcd60e51b81526004016108a890614823565b80518251146126f15760405162461bcd60e51b81526004016108a890614705565b600033905061271481856000868660405180602001604052806000815250613191565b60005b83518110156127dc57600084828151811061273457612734614586565b60200260200101519050600084838151811061275257612752614586565b60209081029190910181015160008481526065835260408082206001600160a01b038c1683529093529190912054909150818110156127a35760405162461bcd60e51b81526004016108a890614866565b60009283526065602090815260408085206001600160a01b038b16865290915290922091039055806127d48161456d565b915050612717565b5060006001600160a01b0316846001600160a01b0316826001600160a01b03167f4a39dc06d4c0dbc64b70af90fd698a233a518aa5d07e595d983b8c0526c8f7fb868660405161282d9291906147dc565b60405180910390a46040805160208101909152600090525b50505050565b60006128586002876148aa565b905060006128676005886148aa565b905081846000888152602001908152602001600020600201600082825461288e919061455a565b9091555050600086815260208590526040812060050180546128af9061442a565b80601f01602080910402602001604051908101604052809291908181526020018280546128db9061442a565b80156129285780601f106128fd57610100808354040283529160200191612928565b820191906000526020600020905b81548152906001019060200180831161290b57829003601f168201915b505050505090506000866001600160401b0381111561294957612949613c5f565b604051908082528060200260200182016040528015612972578160200160208202803683370190505b5090506000805b88811015612b9257808a14612b8057600081815260208990526040808220815160c081019092528054829060ff1660038111156129b8576129b8613bb3565b60038111156129c9576129c9613bb3565b8152600182015460208201526002820154604082015260038201546001600160a01b03166060820152600482018054608090920191612a079061442a565b80601f0160208091040260200160405190810160405280929190818152602001828054612a339061442a565b8015612a805780601f10612a5557610100808354040283529160200191612a80565b820191906000526020600020905b815481529060010190602001808311612a6357829003601f168201915b50505050508152602001600582018054612a999061442a565b80601f0160208091040260200160405190810160405280929190818152602001828054612ac59061442a565b8015612b125780601f10612ae757610100808354040283529160200191612b12565b820191906000526020600020905b815481529060010190602001808311612af557829003601f168201915b5050505050815250509050612b3c8160a00151868051602091820120825192909101919091201490565b15612b7e578060600151848481518110612b5857612b58614586565b6001600160a01b0390921660209283029190910190910152612b7b60018461455a565b92505b505b80612b8a8161456d565b915050612979565b8115612c1a576000612ba483876148aa565b9050600091505b82821015612c185780886000868581518110612bc957612bc9614586565b60200260200101516001600160a01b03166001600160a01b031681526020019081526020016000206000828254612c00919061455a565b90915550829050612c108161456d565b925050612bab565b505b5050505050505050505050565b600054610100900460ff16612c4e5760405162461bcd60e51b81526004016108a8906148cc565b610d7381613465565b600054610100900460ff16612c7e5760405162461bcd60e51b81526004016108a8906148cc565b565b600054610100900460ff16612ca75760405162461bcd60e51b81526004016108a8906148cc565b612c7e613495565b612cb76134c8565b60c9805460ff191660011790557f62e78cea01bee320cd4e420270b5ea74000d11b0c9f74754ebdbfc544b05a25861268d3390565b6001600160a01b038416612d4c5760405162461bcd60e51b815260206004820152602160248201527f455243313135353a206d696e7420746f20746865207a65726f206164647265736044820152607360f81b60648201526084016108a8565b336000612d588561350e565b90506000612d658561350e565b9050612d7683600089858589613191565b60008681526065602090815260408083206001600160a01b038b16845290915281208054879290612da890849061455a565b909155505060408051878152602081018790526001600160a01b03808a1692600092918716917fc3d58168c5ae7397731d063d5bbf3d657854427343f4c083240f7aacaa2d0f62910160405180910390a4612e0883600089898989613559565b50505050505050565b816001600160a01b0316836001600160a01b031603612e845760405162461bcd60e51b815260206004820152602960248201527f455243313135353a2073657474696e6720617070726f76616c20737461747573604482015268103337b91039b2b63360b91b60648201526084016108a8565b6001600160a01b03838116600081815260666020908152604080832094871680845294825291829020805460ff191686151590811790915591519182527f17307eab39ab6107e8899845ad3d59bd9653f200f220920489ca2b5937696c3191016113fb565b6001600160a01b038416612f0f5760405162461bcd60e51b81526004016108a89061474d565b336000612f1b8561350e565b90506000612f288561350e565b9050612f38838989858589613191565b60008681526065602090815260408083206001600160a01b038c16845290915290205485811015612f7b5760405162461bcd60e51b81526004016108a890614792565b60008781526065602090815260408083206001600160a01b038d8116855292528083208985039055908a16825281208054889290612fba90849061455a565b909155505060408051888152602081018890526001600160a01b03808b16928c821692918816917fc3d58168c5ae7397731d063d5bbf3d657854427343f4c083240f7aacaa2d0f62910160405180910390a461301a848a8a8a8a8a613559565b505050505050505050565b6001600160a01b03831661304b5760405162461bcd60e51b81526004016108a890614823565b3360006130578461350e565b905060006130648461350e565b905061308483876000858560405180602001604052806000815250613191565b60008581526065602090815260408083206001600160a01b038a168452909152902054848110156130c75760405162461bcd60e51b81526004016108a890614866565b60008681526065602090815260408083206001600160a01b038b81168086529184528285208a8703905582518b81529384018a90529092908816917fc3d58168c5ae7397731d063d5bbf3d657854427343f4c083240f7aacaa2d0f62910160405180910390a4604080516020810190915260009052612e08565b60006001600160e01b03198216636cdb3d1360e11b148061317257506001600160e01b031982166303a24d0760e21b145b806108d657506301ffc9a760e01b6001600160e01b03198316146108d6565b6131996134c8565b6123c4868686868686613614565b6001600160a01b0384163b156123c45760405163bc197c8160e01b81526001600160a01b0385169063bc197c81906131eb9089908990889088908890600401614917565b6020604051808303816000875af1925050508015613226575060408051601f3d908101601f1916820190925261322391810190614975565b60015b6132d257613232614992565b806308c379a00361326b57506132466149ad565b80613251575061326d565b8060405162461bcd60e51b81526004016108a89190613ba0565b505b60405162461bcd60e51b815260206004820152603460248201527f455243313135353a207472616e7366657220746f206e6f6e2d455243313135356044820152732932b1b2b4bb32b91034b6b83632b6b2b73a32b960611b60648201526084016108a8565b6001600160e01b0319811663bc197c8160e01b14612e085760405162461bcd60e51b81526004016108a890614a36565b61330c82826116ff565b610c935761331981613790565b6133248360206137a2565b604051602001613335929190614a7e565b60408051601f198184030181529082905262461bcd60e51b82526108a891600401613ba0565b6001600160a01b0381163b6133c85760405162461bcd60e51b815260206004820152602d60248201527f455243313936373a206e657720696d706c656d656e746174696f6e206973206e60448201526c1bdd08184818dbdb9d1c9858dd609a1b60648201526084016108a8565b600080516020614b6c83398151915280546001600160a01b0319166001600160a01b0392909216919091179055565b61340083613944565b60008251118061340d5750805b15610c14576128458383613984565b60c95460ff16612c7e5760405162461bcd60e51b815260206004820152601460248201527314185d5cd8589b194e881b9bdd081c185d5cd95960621b60448201526064016108a8565b600054610100900460ff1661348c5760405162461bcd60e51b81526004016108a8906148cc565b610d73816139a9565b600054610100900460ff166134bc5760405162461bcd60e51b81526004016108a8906148cc565b60c9805460ff19169055565b60c95460ff1615612c7e5760405162461bcd60e51b815260206004820152601060248201526f14185d5cd8589b194e881c185d5cd95960821b60448201526064016108a8565b6040805160018082528183019092526060916000919060208083019080368337019050509050828160008151811061354857613548614586565b602090810291909101015292915050565b6001600160a01b0384163b156123c45760405163f23a6e6160e01b81526001600160a01b0385169063f23a6e619061359d9089908990889088908890600401614af3565b6020604051808303816000875af19250505080156135d8575060408051601f3d908101601f191682019092526135d591810190614975565b60015b6135e457613232614992565b6001600160e01b0319811663f23a6e6160e01b14612e085760405162461bcd60e51b81526004016108a890614a36565b6001600160a01b03851661369c5760005b835181101561369a5782818151811061364057613640614586565b602002602001015161012d600086848151811061365f5761365f614586565b602002602001015181526020019081526020016000206000828254613684919061455a565b9091555061369390508161456d565b9050613625565b505b6001600160a01b0384166123c45760005b8351811015612e085760008482815181106136ca576136ca614586565b6020026020010151905060008483815181106136e8576136e8614586565b60200260200101519050600061012d60008481526020019081526020016000205490508181101561376c5760405162461bcd60e51b815260206004820152602860248201527f455243313135353a206275726e20616d6f756e74206578636565647320746f74604482015267616c537570706c7960c01b60648201526084016108a8565b600092835261012d6020526040909220910390556137898161456d565b90506136ad565b60606108d66001600160a01b03831660145b606060006137b18360026145af565b6137bc90600261455a565b6001600160401b038111156137d3576137d3613c5f565b6040519080825280601f01601f1916602001820160405280156137fd576020820181803683370190505b509050600360fc1b8160008151811061381857613818614586565b60200101906001600160f81b031916908160001a905350600f60fb1b8160018151811061384757613847614586565b60200101906001600160f81b031916908160001a905350600061386b8460026145af565b61387690600161455a565b90505b60018111156138ee576f181899199a1a9b1b9c1cb0b131b232b360811b85600f16601081106138aa576138aa614586565b1a60f81b8282815181106138c0576138c0614586565b60200101906001600160f81b031916908160001a90535060049490941c936138e781614b38565b9050613879565b50831561393d5760405162461bcd60e51b815260206004820181905260248201527f537472696e67733a20686578206c656e67746820696e73756666696369656e7460448201526064016108a8565b9392505050565b61394d8161335b565b6040516001600160a01b038216907fbc7cd75a20ee27fd9adebab32041f755214dbc6bffa90cc0225b39da2e5c2d3b90600090a250565b606061393d8383604051806060016040528060278152602001614b8c602791396139b5565b6067610c93828261460c565b6060600080856001600160a01b0316856040516139d29190614b4f565b600060405180830381855af49150503d8060008114613a0d576040519150601f19603f3d011682016040523d82523d6000602084013e613a12565b606091505b5091509150613a2386838387613a2d565b9695505050505050565b60608315613a9c578251600003613a95576001600160a01b0385163b613a955760405162461bcd60e51b815260206004820152601d60248201527f416464726573733a2063616c6c20746f206e6f6e2d636f6e747261637400000060448201526064016108a8565b5081613aa6565b613aa68383613aae565b949350505050565b8151156132515781518083602001fd5b80356001600160a01b0381168114613ad557600080fd5b919050565b60008060408385031215613aed57600080fd5b613af683613abe565b946020939093013593505050565b6001600160e01b031981168114610d7357600080fd5b600060208284031215613b2c57600080fd5b813561393d81613b04565b600060208284031215613b4957600080fd5b5035919050565b60005b83811015613b6b578181015183820152602001613b53565b50506000910152565b60008151808452613b8c816020860160208601613b50565b601f01601f19169290920160200192915050565b60208152600061393d6020830184613b74565b634e487b7160e01b600052602160045260246000fd5b60048110613be757634e487b7160e01b600052602160045260246000fd5b9052565b613bf58188613bc9565b85602082015284604082015260018060a01b038416606082015260c060808201526000613c2560c0830185613b74565b82810360a0840152613c378185613b74565b9998505050505050505050565b600060208284031215613c5657600080fd5b61393d82613abe565b634e487b7160e01b600052604160045260246000fd5b601f8201601f191681016001600160401b0381118282101715613c9a57613c9a613c5f565b6040525050565b60006001600160401b03821115613cba57613cba613c5f565b5060051b60200190565b600082601f830112613cd557600080fd5b81356020613ce282613ca1565b604051613cef8282613c75565b83815260059390931b8501820192828101915086841115613d0f57600080fd5b8286015b84811015613d2a5780358352918301918301613d13565b509695505050505050565b600082601f830112613d4657600080fd5b81356001600160401b03811115613d5f57613d5f613c5f565b604051613d76601f8301601f191660200182613c75565b818152846020838601011115613d8b57600080fd5b816020850160208301376000918101602001919091529392505050565b600080600080600060a08688031215613dc057600080fd5b613dc986613abe565b9450613dd760208701613abe565b935060408601356001600160401b0380821115613df357600080fd5b613dff89838a01613cc4565b94506060880135915080821115613e1557600080fd5b613e2189838a01613cc4565b93506080880135915080821115613e3757600080fd5b50613e4488828901613d35565b9150509295509295909350565b60008060408385031215613e6457600080fd5b82359150613e7460208401613abe565b90509250929050565b60008060408385031215613e9057600080fd5b82356001600160401b0380821115613ea757600080fd5b818501915085601f830112613ebb57600080fd5b81356020613ec882613ca1565b604051613ed58282613c75565b83815260059390931b8501820192828101915089841115613ef557600080fd5b948201945b83861015613f1a57613f0b86613abe565b82529482019490820190613efa565b96505086013592505080821115613f3057600080fd5b50613f3d85828601613cc4565b9150509250929050565b600081518084526020808501945080840160005b83811015613f7757815187529582019590820190600101613f5b565b509495945050505050565b60208152600061393d6020830184613f47565b60008060408385031215613fa857600080fd5b613fb183613abe565b915060208301356001600160401b03811115613fcc57600080fd5b613f3d85828601613d35565b600080600060608486031215613fed57600080fd5b613ff684613abe565b925060208401356001600160401b038082111561401257600080fd5b61401e87838801613cc4565b9350604086013591508082111561403457600080fd5b5061404186828701613cc4565b9150509250925092565b6000806040838503121561405e57600080fd5b8235915060208301356001600160401b03811115613fcc57600080fd5b6000806000806080858703121561409157600080fd5b84359350602085013592506140a860408601613abe565b915060608501356001600160401b038111156140c357600080fd5b6140cf87828801613d35565b91505092959194509250565b600080604083850312156140ee57600080fd5b6140f783613abe565b91506020830135801515811461410c57600080fd5b809150509250929050565b600080600080600060a0868803121561412f57600080fd5b8535945061413f60208701613abe565b935061414d60408701613abe565b925060608601356001600160401b038082111561416957600080fd5b613e2189838a01613d35565b60006020808301818452808551808352604092508286019150828160051b87010184880160005b838110156141dd57888303603f19018552815180518785526141c088860182613b74565b91890151948901949094529487019492509086019060010161419c565b509098975050505050505050565b600080604083850312156141fe57600080fd5b50508035926020909101359150565b60006020808301818452808551808352604092508286019150828160051b87010184880160005b838110156141dd57603f19898403018552815160c0614254858351613bc9565b81890151858a015287820151888601526060808301516001600160a01b03169086015260808083015181870183905261428f83880182613b74565b9250505060a080830151925085820381870152506142ad8183613b74565b968901969450505090860190600101614234565b6000806000606084860312156142d657600080fd5b8335925060208401356001600160401b03808211156142f457600080fd5b61430087838801613d35565b9350604086013591508082111561431657600080fd5b5061404186828701613d35565b6000806040838503121561433657600080fd5b61433f83613abe565b9150613e7460208401613abe565b6020808252825182820181905260009190848201906040850190845b81811015614387578351151583529284019291840191600101614369565b50909695505050505050565b600080600080600060a086880312156143ab57600080fd5b6143b486613abe565b94506143c260208701613abe565b9350604086013592506060860135915060808601356001600160401b038111156143eb57600080fd5b613e4488828901613d35565b60008060006060848603121561440c57600080fd5b61441584613abe565b95602085013595506040909401359392505050565b600181811c9082168061443e57607f821691505b602082108103611eb657634e487b7160e01b600052602260045260246000fd5b6020808252602e908201527f455243313135353a2063616c6c6572206973206e6f7420746f6b656e206f776e60408201526d195c881bdc88185c1c1c9bdd995960921b606082015260800190565b6020808252602c908201527f46756e6374696f6e206d7573742062652063616c6c6564207468726f7567682060408201526b19195b1959d85d1958d85b1b60a21b606082015260800190565b6020808252602c908201527f46756e6374696f6e206d7573742062652063616c6c6564207468726f7567682060408201526b6163746976652070726f787960a01b606082015260800190565b634e487b7160e01b600052601160045260246000fd5b808201808211156108d6576108d6614544565b60006001820161457f5761457f614544565b5060010190565b634e487b7160e01b600052603260045260246000fd5b818103818111156108d6576108d6614544565b80820281158282048414176108d6576108d6614544565b601f821115610c1457600081815260208120601f850160051c810160208610156145ed5750805b601f850160051c820191505b818110156123c4578281556001016145f9565b81516001600160401b0381111561462557614625613c5f565b61463981614633845461442a565b846145c6565b602080601f83116001811461466e57600084156146565750858301515b600019600386901b1c1916600185901b1785556123c4565b600085815260208120601f198616915b8281101561469d5788860151825594840194600190910190840161467e565b50858210156146bb5787850151600019600388901b60f8161c191681555b5050505050600190811b01905550565b8481526080602082015260006146e46080830186613b74565b6040830194909452506001600160a01b039190911660609091015292915050565b60208082526028908201527f455243313135353a2069647320616e6420616d6f756e7473206c656e677468206040820152670dad2e6dac2e8c6d60c31b606082015260800190565b60208082526025908201527f455243313135353a207472616e7366657220746f20746865207a65726f206164604082015264647265737360d81b606082015260800190565b6020808252602a908201527f455243313135353a20696e73756666696369656e742062616c616e636520666f60408201526939103a3930b739b332b960b11b606082015260800190565b6040815260006147ef6040830185613f47565b82810360208401526148018185613f47565b95945050505050565b60006020828403121561481c57600080fd5b5051919050565b60208082526023908201527f455243313135353a206275726e2066726f6d20746865207a65726f206164647260408201526265737360e81b606082015260800190565b60208082526024908201527f455243313135353a206275726e20616d6f756e7420657863656564732062616c604082015263616e636560e01b606082015260800190565b6000826148c757634e487b7160e01b600052601260045260246000fd5b500490565b6020808252602b908201527f496e697469616c697a61626c653a20636f6e7472616374206973206e6f74206960408201526a6e697469616c697a696e6760a81b606082015260800190565b6001600160a01b0386811682528516602082015260a06040820181905260009061494390830186613f47565b82810360608401526149558186613f47565b905082810360808401526149698185613b74565b98975050505050505050565b60006020828403121561498757600080fd5b815161393d81613b04565b600060033d111561118e5760046000803e5060005160e01c90565b600060443d10156149bb5790565b6040516003193d81016004833e81513d6001600160401b0381602484011181841117156149ea57505050505090565b8285019150815181811115614a025750505050505090565b843d8701016020828501011115614a1c5750505050505090565b614a2b60208286010187613c75565b509095945050505050565b60208082526028908201527f455243313135353a204552433131353552656365697665722072656a656374656040820152676420746f6b656e7360c01b606082015260800190565b7f416363657373436f6e74726f6c3a206163636f756e7420000000000000000000815260008351614ab6816017850160208801613b50565b7001034b99036b4b9b9b4b733903937b6329607d1b6017918401918201528351614ae7816028840160208801613b50565b01602801949350505050565b6001600160a01b03868116825285166020820152604081018490526060810183905260a060808201819052600090614b2d90830184613b74565b979650505050505050565b600081614b4757614b47614544565b506000190190565b60008251614b61818460208701613b50565b919091019291505056fe360894a13ba1a3210667c828492db98dca3e2076cc3735a920a3ca505d382bbc416464726573733a206c6f772d6c6576656c2064656c65676174652063616c6c206661696c6564a2646970667358221220ee5157bb36b4399fcb74db64a9457f489668aad1df49d5ad1004c6bd9ee3912a64736f6c63430008130033",
  "linkReferences": {},
  "deployedLinkReferences": {}
}