{
  "_format": "hh-sol-artifact-1",
  "contractName": "Beliefs",
  "sourceName": "src/Beliefs/Beliefs.sol",
  "abi": [
    {
      "inputs": [],
      "name": "EditionFeeExceedsMaximumFee",
      "type": "error"
    },
    {
      "inputs": [],
      "name": "EditionNotCreated",
      "type": "error"
    },
    {
      "inputs": [],
      "name": "EditionNotEnoughBalance",
      "type": "error"
    },
    {
      "inputs": [],
      "name": "EditionNotLaunched",
      "type": "error"
    },
    {
      "inputs": [],
      "name": "EditionNotStopped",
      "type": "error"
    },
    {
      "inputs": [],
      "name": "NotCorrectUser",
      "type": "error"
    },
    {
      "inputs": [],
      "name": "NotEditionOwner",
      "type": "error"
    },
    {
      "inputs": [],
      "name": "NotEnoughFees",
      "type": "error"
    },
    {
      "inputs": [],
      "name": "NotEnoughFunds",
      "type": "error"
    },
    {
      "inputs": [],
      "name": "TransactionFailed",
      "type": "error"
    },
    {
      "anonymous": false,
      "inputs": [
        {
          "indexed": false,
          "internalType": "address",
          "name": "previousAdmin",
          "type": "address"
        },
        {
          "indexed": false,
          "internalType": "address",
          "name": "newAdmin",
          "type": "address"
        }
      ],
      "name": "AdminChanged",
      "type": "event"
    },
    {
      "anonymous": false,
      "inputs": [
        {
          "indexed": true,
          "internalType": "address",
          "name": "account",
          "type": "address"
        },
        {
          "indexed": true,
          "internalType": "address",
          "name": "operator",
          "type": "address"
        },
        {
          "indexed": false,
          "internalType": "bool",
          "name": "approved",
          "type": "bool"
        }
      ],
      "name": "ApprovalForAll",
      "type": "event"
    },
    {
      "anonymous": false,
      "inputs": [
        {
          "indexed": true,
          "internalType": "address",
          "name": "beacon",
          "type": "address"
        }
      ],
      "name": "BeaconUpgraded",
      "type": "event"
    },
    {
      "anonymous": false,
      "inputs": [
        {
          "indexed": false,
          "internalType": "uint256",
          "name": "editionId",
          "type": "uint256"
        }
      ],
      "name": "EditionApproved",
      "type": "event"
    },
    {
      "anonymous": false,
      "inputs": [
        {
          "indexed": false,
          "internalType": "uint256",
          "name": "editionId",
          "type": "uint256"
        },
        {
          "indexed": false,
          "internalType": "uint256",
          "name": "amount",
          "type": "uint256"
        },
        {
          "indexed": false,
          "internalType": "address",
          "name": "owner",
          "type": "address"
        }
      ],
      "name": "EditionBalanceWithdrawn",
      "type": "event"
    },
    {
      "anonymous": false,
      "inputs": [
        {
          "indexed": true,
          "internalType": "uint256",
          "name": "editionId",
          "type": "uint256"
        },
        {
          "indexed": true,
          "internalType": "address",
          "name": "believer",
          "type": "address"
        }
      ],
      "name": "EditionBeliefRemoved",
      "type": "event"
    },
    {
      "anonymous": false,
      "inputs": [
        {
          "indexed": true,
          "internalType": "uint256",
          "name": "editionId",
          "type": "uint256"
        },
        {
          "indexed": true,
          "internalType": "address",
          "name": "believer",
          "type": "address"
        },
        {
          "indexed": false,
          "internalType": "string",
          "name": "tags",
          "type": "string"
        }
      ],
      "name": "EditionBelieved",
      "type": "event"
    },
    {
      "anonymous": false,
      "inputs": [
        {
          "indexed": false,
          "internalType": "uint256",
          "name": "editionId",
          "type": "uint256"
        },
        {
          "indexed": false,
          "internalType": "string",
          "name": "briefId",
          "type": "string"
        },
        {
          "indexed": false,
          "internalType": "uint256",
          "name": "fee",
          "type": "uint256"
        },
        {
          "indexed": false,
          "internalType": "address",
          "name": "owner",
          "type": "address"
        }
      ],
      "name": "EditionCreated",
      "type": "event"
    },
    {
      "anonymous": false,
      "inputs": [
        {
          "indexed": false,
          "internalType": "uint256",
          "name": "editionId",
          "type": "uint256"
        }
      ],
      "name": "EditionResumed",
      "type": "event"
    },
    {
      "anonymous": false,
      "inputs": [
        {
          "indexed": false,
          "internalType": "uint256",
          "name": "editionId",
          "type": "uint256"
        }
      ],
      "name": "EditionStopped",
      "type": "event"
    },
    {
      "anonymous": false,
      "inputs": [
        {
          "indexed": false,
          "internalType": "uint8",
          "name": "version",
          "type": "uint8"
        }
      ],
      "name": "Initialized",
      "type": "event"
    },
    {
      "anonymous": false,
      "inputs": [
        {
          "indexed": false,
          "internalType": "address",
          "name": "account",
          "type": "address"
        }
      ],
      "name": "Paused",
      "type": "event"
    },
    {
      "anonymous": false,
      "inputs": [
        {
          "indexed": true,
          "internalType": "bytes32",
          "name": "role",
          "type": "bytes32"
        },
        {
          "indexed": true,
          "internalType": "bytes32",
          "name": "previousAdminRole",
          "type": "bytes32"
        },
        {
          "indexed": true,
          "internalType": "bytes32",
          "name": "newAdminRole",
          "type": "bytes32"
        }
      ],
      "name": "RoleAdminChanged",
      "type": "event"
    },
    {
      "anonymous": false,
      "inputs": [
        {
          "indexed": true,
          "internalType": "bytes32",
          "name": "role",
          "type": "bytes32"
        },
        {
          "indexed": true,
          "internalType": "address",
          "name": "account",
          "type": "address"
        },
        {
          "indexed": true,
          "internalType": "address",
          "name": "sender",
          "type": "address"
        }
      ],
      "name": "RoleGranted",
      "type": "event"
    },
    {
      "anonymous": false,
      "inputs": [
        {
          "indexed": true,
          "internalType": "bytes32",
          "name": "role",
          "type": "bytes32"
        },
        {
          "indexed": true,
          "internalType": "address",
          "name": "account",
          "type": "address"
        },
        {
          "indexed": true,
          "internalType": "address",
          "name": "sender",
          "type": "address"
        }
      ],
      "name": "RoleRevoked",
      "type": "event"
    },
    {
      "anonymous": false,
      "inputs": [
        {
          "indexed": true,
          "internalType": "address",
          "name": "operator",
          "type": "address"
        },
        {
          "indexed": true,
          "internalType": "address",
          "name": "from",
          "type": "address"
        },
        {
          "indexed": true,
          "internalType": "address",
          "name": "to",
          "type": "address"
        },
        {
          "indexed": false,
          "internalType": "uint256[]",
          "name": "ids",
          "type": "uint256[]"
        },
        {
          "indexed": false,
          "internalType": "uint256[]",
          "name": "values",
          "type": "uint256[]"
        }
      ],
      "name": "TransferBatch",
      "type": "event"
    },
    {
      "anonymous": false,
      "inputs": [
        {
          "indexed": true,
          "internalType": "address",
          "name": "operator",
          "type": "address"
        },
        {
          "indexed": true,
          "internalType": "address",
          "name": "from",
          "type": "address"
        },
        {
          "indexed": true,
          "internalType": "address",
          "name": "to",
          "type": "address"
        },
        {
          "indexed": false,
          "internalType": "uint256",
          "name": "id",
          "type": "uint256"
        },
        {
          "indexed": false,
          "internalType": "uint256",
          "name": "value",
          "type": "uint256"
        }
      ],
      "name": "TransferSingle",
      "type": "event"
    },
    {
      "anonymous": false,
      "inputs": [
        {
          "indexed": false,
          "internalType": "string",
          "name": "value",
          "type": "string"
        },
        {
          "indexed": true,
          "internalType": "uint256",
          "name": "id",
          "type": "uint256"
        }
      ],
      "name": "URI",
      "type": "event"
    },
    {
      "anonymous": false,
      "inputs": [
        {
          "indexed": false,
          "internalType": "address",
          "name": "account",
          "type": "address"
        }
      ],
      "name": "Unpaused",
      "type": "event"
    },
    {
      "anonymous": false,
      "inputs": [
        {
          "indexed": true,
          "internalType": "address",
          "name": "implementation",
          "type": "address"
        }
      ],
      "name": "Upgraded",
      "type": "event"
    },
    {
      "stateMutability": "payable",
      "type": "fallback"
    },
    {
      "inputs": [],
      "name": "DEFAULT_ADMIN_ROLE",
      "outputs": [
        {
          "internalType": "bytes32",
          "name": "",
          "type": "bytes32"
        }
      ],
      "stateMutability": "view",
      "type": "function"
    },
    {
      "inputs": [
        {
          "internalType": "uint256",
          "name": "editionId",
          "type": "uint256"
        }
      ],
      "name": "approveEdition",
      "outputs": [],
      "stateMutability": "nonpayable",
      "type": "function"
    },
    {
      "inputs": [
        {
          "internalType": "address",
          "name": "account",
          "type": "address"
        },
        {
          "internalType": "uint256",
          "name": "id",
          "type": "uint256"
        }
      ],
      "name": "balanceOf",
      "outputs": [
        {
          "internalType": "uint256",
          "name": "",
          "type": "uint256"
        }
      ],
      "stateMutability": "view",
      "type": "function"
    },
    {
      "inputs": [
        {
          "internalType": "address[]",
          "name": "accounts",
          "type": "address[]"
        },
        {
          "internalType": "uint256[]",
          "name": "ids",
          "type": "uint256[]"
        }
      ],
      "name": "balanceOfBatch",
      "outputs": [
        {
          "internalType": "uint256[]",
          "name": "",
          "type": "uint256[]"
        }
      ],
      "stateMutability": "view",
      "type": "function"
    },
    {
      "inputs": [
        {
          "internalType": "address",
          "name": "user",
          "type": "address"
        }
      ],
      "name": "balances",
      "outputs": [
        {
          "internalType": "uint256",
          "name": "balance",
          "type": "uint256"
        }
      ],
      "stateMutability": "view",
      "type": "function"
    },
    {
      "inputs": [
        {
          "internalType": "uint256",
          "name": "editionId",
          "type": "uint256"
        },
        {
          "internalType": "string",
          "name": "tags",
          "type": "string"
        }
      ],
      "name": "believeProject",
      "outputs": [],
      "stateMutability": "payable",
      "type": "function"
    },
    {
      "inputs": [
        {
          "internalType": "address",
          "name": "account",
          "type": "address"
        },
        {
          "internalType": "uint256",
          "name": "id",
          "type": "uint256"
        },
        {
          "internalType": "uint256",
          "name": "value",
          "type": "uint256"
        }
      ],
      "name": "burn",
      "outputs": [],
      "stateMutability": "nonpayable",
      "type": "function"
    },
    {
      "inputs": [
        {
          "internalType": "address",
          "name": "account",
          "type": "address"
        },
        {
          "internalType": "uint256[]",
          "name": "ids",
          "type": "uint256[]"
        },
        {
          "internalType": "uint256[]",
          "name": "values",
          "type": "uint256[]"
        }
      ],
      "name": "burnBatch",
      "outputs": [],
      "stateMutability": "nonpayable",
      "type": "function"
    },
    {
      "inputs": [
        {
          "internalType": "uint256",
          "name": "fee",
          "type": "uint256"
        },
        {
          "internalType": "address",
          "name": "owner",
          "type": "address"
        },
        {
          "internalType": "address",
          "name": "payer",
          "type": "address"
        },
        {
          "internalType": "string",
          "name": "id",
          "type": "string"
        },
        {
          "internalType": "string",
          "name": "briefId",
          "type": "string"
        }
      ],
      "name": "createEdition",
      "outputs": [
        {
          "internalType": "uint256",
          "name": "editionId",
          "type": "uint256"
        }
      ],
      "stateMutability": "nonpayable",
      "type": "function"
    },
    {
      "inputs": [],
      "name": "editionCounter",
      "outputs": [
        {
          "internalType": "uint256",
          "name": "",
          "type": "uint256"
        }
      ],
      "stateMutability": "view",
      "type": "function"
    },
    {
      "inputs": [
        {
          "internalType": "uint256",
          "name": "",
          "type": "uint256"
        }
      ],
      "name": "editions",
      "outputs": [
        {
          "internalType": "enum EditionsStructs.EditionStatus",
          "name": "status",
          "type": "uint8"
        },
        {
          "internalType": "uint256",
          "name": "fee",
          "type": "uint256"
        },
        {
          "internalType": "uint256",
          "name": "balance",
          "type": "uint256"
        },
        {
          "internalType": "address",
          "name": "owner",
          "type": "address"
        },
        {
          "internalType": "string",
          "name": "id",
          "type": "string"
        },
        {
          "internalType": "string",
          "name": "briefId",
          "type": "string"
        }
      ],
      "stateMutability": "view",
      "type": "function"
    },
    {
      "inputs": [
        {
          "internalType": "uint256",
          "name": "id",
          "type": "uint256"
        }
      ],
      "name": "exists",
      "outputs": [
        {
          "internalType": "bool",
          "name": "",
          "type": "bool"
        }
      ],
      "stateMutability": "view",
      "type": "function"
    },
    {
      "inputs": [],
      "name": "futureFundFee",
      "outputs": [
        {
          "internalType": "uint256",
          "name": "",
          "type": "uint256"
        }
      ],
      "stateMutability": "view",
      "type": "function"
    },
    {
      "inputs": [
        {
          "internalType": "address",
          "name": "owner",
          "type": "address"
        }
      ],
      "name": "getBalances",
      "outputs": [
        {
          "components": [
            {
              "internalType": "string",
              "name": "id",
              "type": "string"
            },
            {
              "internalType": "uint256",
              "name": "amount",
              "type": "uint256"
            }
          ],
          "internalType": "struct EditionsStructs.EditionIdWithAmount[]",
          "name": "",
          "type": "tuple[]"
        }
      ],
      "stateMutability": "view",
      "type": "function"
    },
    {
      "inputs": [],
      "name": "getEditions",
      "outputs": [
        {
          "components": [
            {
              "internalType": "enum EditionsStructs.EditionStatus",
              "name": "status",
              "type": "uint8"
            },
            {
              "internalType": "uint256",
              "name": "fee",
              "type": "uint256"
            },
            {
              "internalType": "uint256",
              "name": "balance",
              "type": "uint256"
            },
            {
              "internalType": "address",
              "name": "owner",
              "type": "address"
            },
            {
              "internalType": "string",
              "name": "id",
              "type": "string"
            },
            {
              "internalType": "string",
              "name": "briefId",
              "type": "string"
            }
          ],
          "internalType": "struct EditionsStructs.Edition[]",
          "name": "",
          "type": "tuple[]"
        }
      ],
      "stateMutability": "view",
      "type": "function"
    },
    {
      "inputs": [
        {
          "internalType": "bytes32",
          "name": "role",
          "type": "bytes32"
        }
      ],
      "name": "getRoleAdmin",
      "outputs": [
        {
          "internalType": "bytes32",
          "name": "",
          "type": "bytes32"
        }
      ],
      "stateMutability": "view",
      "type": "function"
    },
    {
      "inputs": [
        {
          "internalType": "bytes32",
          "name": "role",
          "type": "bytes32"
        },
        {
          "internalType": "address",
          "name": "account",
          "type": "address"
        }
      ],
      "name": "grantRole",
      "outputs": [],
      "stateMutability": "nonpayable",
      "type": "function"
    },
    {
      "inputs": [
        {
          "internalType": "bytes32",
          "name": "role",
          "type": "bytes32"
        },
        {
          "internalType": "address",
          "name": "account",
          "type": "address"
        }
      ],
      "name": "hasRole",
      "outputs": [
        {
          "internalType": "bool",
          "name": "",
          "type": "bool"
        }
      ],
      "stateMutability": "view",
      "type": "function"
    },
    {
      "inputs": [],
      "name": "initialize",
      "outputs": [],
      "stateMutability": "nonpayable",
      "type": "function"
    },
    {
      "inputs": [
        {
          "internalType": "address",
          "name": "account",
          "type": "address"
        },
        {
          "internalType": "address",
          "name": "operator",
          "type": "address"
        }
      ],
      "name": "isApprovedForAll",
      "outputs": [
        {
          "internalType": "bool",
          "name": "",
          "type": "bool"
        }
      ],
      "stateMutability": "view",
      "type": "function"
    },
    {
      "inputs": [],
      "name": "maximumEditionFee",
      "outputs": [
        {
          "internalType": "uint256",
          "name": "",
          "type": "uint256"
        }
      ],
      "stateMutability": "view",
      "type": "function"
    },
    {
      "inputs": [
        {
          "internalType": "uint256",
          "name": "editionId",
          "type": "uint256"
        },
        {
          "internalType": "uint256",
          "name": "amount",
          "type": "uint256"
        },
        {
          "internalType": "address",
          "name": "buyer",
          "type": "address"
        },
        {
          "internalType": "bytes",
          "name": "data",
          "type": "bytes"
        }
      ],
      "name": "mintEdition",
      "outputs": [],
      "stateMutability": "payable",
      "type": "function"
    },
    {
      "inputs": [],
      "name": "pause",
      "outputs": [],
      "stateMutability": "nonpayable",
      "type": "function"
    },
    {
      "inputs": [],
      "name": "paused",
      "outputs": [
        {
          "internalType": "bool",
          "name": "",
          "type": "bool"
        }
      ],
      "stateMutability": "view",
      "type": "function"
    },
    {
      "inputs": [],
      "name": "protocolFee",
      "outputs": [
        {
          "internalType": "uint256",
          "name": "",
          "type": "uint256"
        }
      ],
      "stateMutability": "view",
      "type": "function"
    },
    {
      "inputs": [],
      "name": "proxiableUUID",
      "outputs": [
        {
          "internalType": "bytes32",
          "name": "",
          "type": "bytes32"
        }
      ],
      "stateMutability": "view",
      "type": "function"
    },
    {
      "inputs": [
        {
          "internalType": "uint256",
          "name": "editionId",
          "type": "uint256"
        }
      ],
      "name": "removeBelief",
      "outputs": [],
      "stateMutability": "nonpayable",
      "type": "function"
    },
    {
      "inputs": [
        {
          "internalType": "bytes32",
          "name": "role",
          "type": "bytes32"
        },
        {
          "internalType": "address",
          "name": "account",
          "type": "address"
        }
      ],
      "name": "renounceRole",
      "outputs": [],
      "stateMutability": "nonpayable",
      "type": "function"
    },
    {
      "inputs": [
        {
          "internalType": "uint256",
          "name": "editionId",
          "type": "uint256"
        }
      ],
      "name": "resumeEdition",
      "outputs": [],
      "stateMutability": "nonpayable",
      "type": "function"
    },
    {
      "inputs": [
        {
          "internalType": "bytes32",
          "name": "role",
          "type": "bytes32"
        },
        {
          "internalType": "address",
          "name": "account",
          "type": "address"
        }
      ],
      "name": "revokeRole",
      "outputs": [],
      "stateMutability": "nonpayable",
      "type": "function"
    },
    {
      "inputs": [
        {
          "internalType": "address",
          "name": "from",
          "type": "address"
        },
        {
          "internalType": "address",
          "name": "to",
          "type": "address"
        },
        {
          "internalType": "uint256[]",
          "name": "ids",
          "type": "uint256[]"
        },
        {
          "internalType": "uint256[]",
          "name": "amounts",
          "type": "uint256[]"
        },
        {
          "internalType": "bytes",
          "name": "data",
          "type": "bytes"
        }
      ],
      "name": "safeBatchTransferFrom",
      "outputs": [],
      "stateMutability": "nonpayable",
      "type": "function"
    },
    {
      "inputs": [
        {
          "internalType": "address",
          "name": "from",
          "type": "address"
        },
        {
          "internalType": "address",
          "name": "to",
          "type": "address"
        },
        {
          "internalType": "uint256",
          "name": "id",
          "type": "uint256"
        },
        {
          "internalType": "uint256",
          "name": "amount",
          "type": "uint256"
        },
        {
          "internalType": "bytes",
          "name": "data",
          "type": "bytes"
        }
      ],
      "name": "safeTransferFrom",
      "outputs": [],
      "stateMutability": "nonpayable",
      "type": "function"
    },
    {
      "inputs": [
        {
          "internalType": "address",
          "name": "operator",
          "type": "address"
        },
        {
          "internalType": "bool",
          "name": "approved",
          "type": "bool"
        }
      ],
      "name": "setApprovalForAll",
      "outputs": [],
      "stateMutability": "nonpayable",
      "type": "function"
    },
    {
      "inputs": [
        {
          "internalType": "uint256",
          "name": "editionId",
          "type": "uint256"
        }
      ],
      "name": "stopEdition",
      "outputs": [],
      "stateMutability": "nonpayable",
      "type": "function"
    },
    {
      "inputs": [
        {
          "internalType": "bytes4",
          "name": "interfaceId",
          "type": "bytes4"
        }
      ],
      "name": "supportsInterface",
      "outputs": [
        {
          "internalType": "bool",
          "name": "",
          "type": "bool"
        }
      ],
      "stateMutability": "view",
      "type": "function"
    },
    {
      "inputs": [
        {
          "internalType": "uint256",
          "name": "id",
          "type": "uint256"
        }
      ],
      "name": "totalSupply",
      "outputs": [
        {
          "internalType": "uint256",
          "name": "",
          "type": "uint256"
        }
      ],
      "stateMutability": "view",
      "type": "function"
    },
    {
      "inputs": [],
      "name": "unpause",
      "outputs": [],
      "stateMutability": "nonpayable",
      "type": "function"
    },
    {
      "inputs": [
        {
          "internalType": "uint256",
          "name": "editionId",
          "type": "uint256"
        },
        {
          "internalType": "string",
          "name": "id",
          "type": "string"
        },
        {
          "internalType": "string",
          "name": "briefId",
          "type": "string"
        }
      ],
      "name": "updateEdition",
      "outputs": [],
      "stateMutability": "nonpayable",
      "type": "function"
    },
    {
      "inputs": [
        {
          "internalType": "address",
          "name": "newImplementation",
          "type": "address"
        }
      ],
      "name": "upgradeTo",
      "outputs": [],
      "stateMutability": "nonpayable",
      "type": "function"
    },
    {
      "inputs": [
        {
          "internalType": "address",
          "name": "newImplementation",
          "type": "address"
        },
        {
          "internalType": "bytes",
          "name": "data",
          "type": "bytes"
        }
      ],
      "name": "upgradeToAndCall",
      "outputs": [],
      "stateMutability": "payable",
      "type": "function"
    },
    {
      "inputs": [
        {
          "internalType": "uint256",
          "name": "",
          "type": "uint256"
        }
      ],
      "name": "uri",
      "outputs": [
        {
          "internalType": "string",
          "name": "",
          "type": "string"
        }
      ],
      "stateMutability": "view",
      "type": "function"
    },
    {
      "inputs": [
        {
          "internalType": "uint256",
          "name": "editionId",
          "type": "uint256"
        },
        {
          "internalType": "uint256",
          "name": "amount",
          "type": "uint256"
        }
      ],
      "name": "withdrawEditionBalance",
      "outputs": [],
      "stateMutability": "nonpayable",
      "type": "function"
    },
    {
      "inputs": [
        {
          "internalType": "uint256",
          "name": "amount",
          "type": "uint256"
        }
      ],
      "name": "withdrawFunds",
      "outputs": [],
      "stateMutability": "nonpayable",
      "type": "function"
    },
    {
      "stateMutability": "payable",
      "type": "receive"
    }
  ],
  "bytecode": "0x60a0604052306080523480156200001557600080fd5b506200002062000026565b620000e7565b600054610100900460ff1615620000935760405162461bcd60e51b815260206004820152602760248201527f496e697469616c697a61626c653a20636f6e747261637420697320696e697469604482015266616c697a696e6760c81b606482015260840160405180910390fd5b60005460ff90811614620000e5576000805460ff191660ff9081179091556040519081527f7f26b83ff96e1f2b6a682f133852f6798a09c465da95921460cefb38474024989060200160405180910390a15b565b6080516145f76200011f60003960008181610d4601528181610d8601528181610f8001528181610fc0015261104f01526145f76000f3fe6080604052600436106102475760003560e01c8063790bafc611610138578063c6fbb712116100b0578063e43990fe11610077578063e43990fe14610700578063e985e9c514610720578063f242432a14610769578063f5298aca14610789578063f8c1b2fd146107a9578063fc74efa2146107c957005b8063c6fbb7121461065a578063c84aae1714610671578063d547741f1461069e578063d667c9ce146106be578063df6efc6c146106de57005b8063a217fddf116100ff578063a217fddf146105a9578063a22cb465146105be578063b0e21e8a146105de578063b3a44bd6146105f5578063b94967a414610615578063bd85b0391461062c57005b8063790bafc6146105395780638129fc1c1461054c5780638456cb591461056157806391d1485414610576578063940123da1461059657005b806336568abe116101cb5780634f558e79116101925780634f558e791461048557806352d1902d146104b55780635c975abb146104ca5780636b20c454146104e25780636b5cb789146105025780637357628c1461051957005b806336568abe146103f05780633659cfe6146104105780633f4ba83a146104305780634e1273f4146104455780634f1ef2861461047257005b8063248a9ca31161020f578063248a9ca314610320578063279c806e1461035057806327e235e3146103825780632eb2c2d6146103b05780632f2ff15d146103d057005b8062fdd58e1461025057806301ffc9a7146102835780630a579eca146102b35780630e89341c146102d3578063155dd5ee1461030057005b3661024e57005b005b34801561025c57600080fd5b5061027061026b366004613551565b6107e9565b6040519081526020015b60405180910390f35b34801561028f57600080fd5b506102a361029e366004613591565b610884565b604051901515815260200161027a565b3480156102bf57600080fd5b5061024e6102ce3660046135ae565b61088f565b3480156102df57600080fd5b506102f36102ee3660046135ae565b610971565b60405161027a9190613617565b34801561030c57600080fd5b5061024e61031b3660046135ae565b610a05565b34801561032c57600080fd5b5061027061033b3660046135ae565b60009081526097602052604090206001015490565b34801561035c57600080fd5b5061037061036b3660046135ae565b610b02565b60405161027a96959493929190613662565b34801561038e57600080fd5b5061027061039d3660046136bb565b6101c76020526000908152604090205481565b3480156103bc57600080fd5b5061024e6103cb36600461381f565b610c58565b3480156103dc57600080fd5b5061024e6103eb3660046138c8565b610ca4565b3480156103fc57600080fd5b5061024e61040b3660046138c8565b610cbe565b34801561041c57600080fd5b5061024e61042b3660046136bb565b610d3c565b34801561043c57600080fd5b5061024e610e1b565b34801561045157600080fd5b506104656104603660046138f4565b610e4d565b60405161027a91906139f9565b61024e610480366004613a0c565b610f76565b34801561049157600080fd5b506102a36104a03660046135ae565b600090815261012d6020526040902054151590565b3480156104c157600080fd5b50610270611042565b3480156104d657600080fd5b5060c95460ff166102a3565b3480156104ee57600080fd5b5061024e6104fd366004613a4f565b6110f6565b34801561050e57600080fd5b506102706101c65481565b34801561052557600080fd5b5061024e6105343660046135ae565b611139565b61024e610547366004613ac2565b6111da565b34801561055857600080fd5b5061024e611417565b34801561056d57600080fd5b5061024e6115e2565b34801561058257600080fd5b506102a36105913660046138c8565b611614565b61024e6105a4366004613af2565b61163f565b3480156105b557600080fd5b50610270600081565b3480156105ca57600080fd5b5061024e6105d9366004613b52565b61172c565b3480156105ea57600080fd5b506102706101c35481565b34801561060157600080fd5b50610270610610366004613b8e565b611737565b34801561062157600080fd5b506102706101c85481565b34801561063857600080fd5b506102706106473660046135ae565b600090815261012d602052604090205490565b34801561066657600080fd5b506102706101c55481565b34801561067d57600080fd5b5061069161068c3660046136bb565b611891565b60405161027a9190613bec565b3480156106aa57600080fd5b5061024e6106b93660046138c8565b6119fb565b3480156106ca57600080fd5b5061024e6106d9366004613c62565b611a20565b3480156106ea57600080fd5b506106f3611b62565b60405161027a9190613c84565b34801561070c57600080fd5b5061024e61071b366004613d38565b611dd1565b34801561072c57600080fd5b506102a361073b366004613d9a565b6001600160a01b03918216600090815260666020908152604080832093909416825291909152205460ff1690565b34801561077557600080fd5b5061024e610784366004613dc4565b611e57565b34801561079557600080fd5b5061024e6107a4366004613e28565b611e9c565b3480156107b557600080fd5b5061024e6107c43660046135ae565b611edf565b3480156107d557600080fd5b5061024e6107e43660046135ae565b611f74565b60006001600160a01b0383166108595760405162461bcd60e51b815260206004820152602a60248201527f455243313135353a2061646472657373207a65726f206973206e6f742061207660448201526930b634b21037bbb732b960b11b60648201526084015b60405180910390fd5b5060008181526065602090815260408083206001600160a01b03861684529091529020545b92915050565b600061087e8261204f565b60008181526101c460205260409020600301546001600160a01b03163314806108be57506108be600033611614565b6108db5760405163388f811f60e01b815260040160405180910390fd5b600260008281526101c4602052604090205460ff1660038111156109015761090161362a565b1461091f57604051631f0fb6fd60e11b815260040160405180910390fd5b60008181526101c46020908152604091829020805460ff1916600317905590518281527f591913f977ab242c5871f116f36be231ff67df5e8e0bac1efd91fa8a723aca2b91015b60405180910390a150565b60606067805461098090613e5b565b80601f01602080910402602001604051908101604052809291908181526020018280546109ac90613e5b565b80156109f95780601f106109ce576101008083540402835291602001916109f9565b820191906000526020600020905b8154815290600101906020018083116109dc57829003601f168201915b50505050509050919050565b6000610a1081612074565b47821115610a3157604051631036b5ad60e31b815260040160405180910390fd5b4760005b6101c554811015610a925760008181526101c46020526040902060020154610a5d9083613ea5565b915083821015610a805760405163156bbc5b60e01b815260040160405180910390fd5b80610a8a81613eb8565b915050610a35565b50604051600090339085908381818185875af1925050503d8060008114610ad5576040519150601f19603f3d011682016040523d82523d6000602084013e610ada565b606091505b5050905080610afc576040516317f2c34560e31b815260040160405180910390fd5b50505050565b6101c4602052600090815260409020805460018201546002830154600384015460048501805460ff90951695939492936001600160a01b0390921692610b4790613e5b565b80601f0160208091040260200160405190810160405280929190818152602001828054610b7390613e5b565b8015610bc05780601f10610b9557610100808354040283529160200191610bc0565b820191906000526020600020905b815481529060010190602001808311610ba357829003601f168201915b505050505090806005018054610bd590613e5b565b80601f0160208091040260200160405190810160405280929190818152602001828054610c0190613e5b565b8015610c4e5780601f10610c2357610100808354040283529160200191610c4e565b820191906000526020600020905b815481529060010190602001808311610c3157829003601f168201915b5050505050905086565b6001600160a01b038516331480610c745750610c74853361073b565b610c905760405162461bcd60e51b815260040161085090613ed1565b610c9d858585858561207e565b5050505050565b6000610caf81612074565b610cb9838361222b565b505050565b6001600160a01b0381163314610d2e5760405162461bcd60e51b815260206004820152602f60248201527f416363657373436f6e74726f6c3a2063616e206f6e6c792072656e6f756e636560448201526e103937b632b9903337b91039b2b63360891b6064820152608401610850565b610d3882826122b1565b5050565b6001600160a01b037f0000000000000000000000000000000000000000000000000000000000000000163003610d845760405162461bcd60e51b815260040161085090613f1f565b7f00000000000000000000000000000000000000000000000000000000000000006001600160a01b0316610dcd60008051602061457b833981519152546001600160a01b031690565b6001600160a01b031614610df35760405162461bcd60e51b815260040161085090613f6b565b610dfc81612318565b60408051600080825260208201909252610e1891839190612342565b50565b7f65d7a28e3265b37a6474929f336521b332c1681b933f6cb9f3376673440d862a610e4581612074565b610e186124ad565b60608151835114610eb25760405162461bcd60e51b815260206004820152602960248201527f455243313135353a206163636f756e747320616e6420696473206c656e677468604482015268040dad2e6dac2e8c6d60bb1b6064820152608401610850565b600083516001600160401b03811115610ecd57610ecd6136d6565b604051908082528060200260200182016040528015610ef6578160200160208202803683370190505b50905060005b8451811015610f6e57610f41858281518110610f1a57610f1a613fb7565b6020026020010151858381518110610f3457610f34613fb7565b60200260200101516107e9565b828281518110610f5357610f53613fb7565b6020908102919091010152610f6781613eb8565b9050610efc565b509392505050565b6001600160a01b037f0000000000000000000000000000000000000000000000000000000000000000163003610fbe5760405162461bcd60e51b815260040161085090613f1f565b7f00000000000000000000000000000000000000000000000000000000000000006001600160a01b031661100760008051602061457b833981519152546001600160a01b031690565b6001600160a01b03161461102d5760405162461bcd60e51b815260040161085090613f6b565b61103682612318565b610d3882826001612342565b6000306001600160a01b037f000000000000000000000000000000000000000000000000000000000000000016146110e25760405162461bcd60e51b815260206004820152603860248201527f555550535570677261646561626c653a206d757374206e6f742062652063616c60448201527f6c6564207468726f7567682064656c656761746563616c6c00000000000000006064820152608401610850565b5060008051602061457b8339815191525b90565b6001600160a01b0383163314806111125750611112833361073b565b61112e5760405162461bcd60e51b815260040161085090613ed1565b610cb98383836124ff565b600061114481612074565b600160008381526101c4602052604090205460ff16600381111561116a5761116a61362a565b146111885760405163137c9c1f60e31b815260040160405180910390fd5b60008281526101c46020908152604091829020805460ff1916600217905590518381527f8f4352ac8b4aefdd2333162306bbe09dd4f4ff6661e89ccc4e4dcced8794e8f7910160405180910390a15050565b6101c8543410156111fe57604051631036b5ad60e31b815260040160405180910390fd5b600260008381526101c4602052604090205460ff1660038111156112245761122461362a565b1461124257604051631f0fb6fd60e11b815260040160405180910390fd5b6101c5546040516308fe3d0760e01b81523460048201526024810184905260448101919091526101c460648201526101c7608482015273__$49e18fe781110033976e5d9a79c457096c$__906308fe3d079060a40160006040518083038186803b1580156112af57600080fd5b505af41580156112c3573d6000803e3d6000fd5b505050506000805b6101ca5481101561135b57336001600160a01b03166101ca82815481106112f4576112f4613fb7565b6000918252602090912001546001600160a01b03160361134957336001600160a01b03166101ca828154811061132c5761132c613fb7565b6000918252602090912001546001600160a01b031614915061135b565b8061135381613eb8565b9150506112cb565b50806113a5576101ca80546001810182556000919091527f0faeda9012b7f59bd2a84ac2a33ead5fc9f720c38d8bbf90db1ac3c1518386eb0180546001600160a01b031916331790555b3360009081526101c960209081526040808320600887901c845290915290208054600160ff86161b179055336001600160a01b0316837f710e220a47c8d9e50587c80fe509f5e762149ef672440eff70798204dd70f5eb8460405161140a9190613617565b60405180910390a3505050565b600054610100900460ff16158080156114375750600054600160ff909116105b806114515750303b158015611451575060005460ff166001145b6114b45760405162461bcd60e51b815260206004820152602e60248201527f496e697469616c697a61626c653a20636f6e747261637420697320616c72656160448201526d191e481a5b9a5d1a585b1a5e995960921b6064820152608401610850565b6000805460ff1916600117905580156114d7576000805461ff0019166101001790555b6114ef6040518060200160405280600081525061269e565b6114f76126ce565b6114ff6126f7565b6115076126ce565b61150f6126ce565b6115176126ce565b61152260003361222b565b61154c7f7804d923f43a17d325d77e781528e0793b2edd9890ab45fc64efd7b4b427744c3361222b565b6115767f65d7a28e3265b37a6474929f336521b332c1681b933f6cb9f3376673440d862a3361222b565b6115a07f189ab7a9244df0848122154315af71fe140f3db0fe014031783b0946b8c9d2e33361222b565b8015610e18576000805461ff0019169055604051600181527f7f26b83ff96e1f2b6a682f133852f6798a09c465da95921460cefb384740249890602001610966565b7f65d7a28e3265b37a6474929f336521b332c1681b933f6cb9f3376673440d862a61160c81612074565b610e18612726565b60009182526097602090815260408084206001600160a01b0393909316845291905290205460ff1690565b600061164a81612074565b600260008681526101c4602052604090205460ff1660038111156116705761167061362a565b1461168e57604051631f0fb6fd60e11b815260040160405180910390fd5b6101c35460008681526101c4602052604090206001015485916116b091613fcd565b6116ba9190613fe0565b3410156116da57604051631036b5ad60e31b815260040160405180910390fd5b6116e683868685612763565b6101c3546116f49085613fe0565b6116fe9034613ea5565b60008681526101c4602052604081206002018054909190611720908490613fcd565b90915550505050505050565b610d38338383612888565b60006101c65486111561175d57604051630f0c4c5f60e41b815260040160405180910390fd5b506101c5546040805160c0810190915280600181526020808201899052600060408084018290526001600160a01b038a1660608501526080840188905260a09093018690528481526101c49091522081518154829060ff191660018360038111156117ca576117ca61362a565b0217905550602082015160018201556040820151600282015560608201516003820180546001600160a01b0319166001600160a01b039092169190911790556080820151600482019061181d908261403d565b5060a08201516005820190611832908261403d565b50506101c580549150600061184683613eb8565b91905055507f3deb71b5a6774038a220621d78241405004043d5a928de9c7956bcc5270416db8183888860405161188094939291906140fc565b60405180910390a195945050505050565b606060006101c5546001600160401b038111156118b0576118b06136d6565b6040519080825280602002602001820160405280156118f657816020015b6040805180820190915260608152600060208201528152602001906001900390816118ce5790505b50905060005b6101c5548110156119f45760405180604001604052806101c46000848152602001908152602001600020600401805461193490613e5b565b80601f016020809104026020016040519081016040528092919081815260200182805461196090613e5b565b80156119ad5780601f10611982576101008083540402835291602001916119ad565b820191906000526020600020905b81548152906001019060200180831161199057829003601f168201915b505050505081526020016119c186846107e9565b8152508282815181106119d6576119d6613fb7565b602002602001018190525080806119ec90613eb8565b9150506118fc565b5092915050565b600082815260976020526040902060010154611a1681612074565b610cb983836122b1565b60008281526101c460205260409020600301546001600160a01b03163314611a5b5760405163388f811f60e01b815260040160405180910390fd5b60008281526101c46020526040902060020154811115611a8e57604051637eafab7d60e01b815260040160405180910390fd5b604051600090339083908381818185875af1925050503d8060008114611ad0576040519150601f19603f3d011682016040523d82523d6000602084013e611ad5565b606091505b5050905080611af7576040516317f2c34560e31b815260040160405180910390fd5b60008381526101c4602052604081206002018054849290611b19908490613ea5565b90915550506040805184815260208101849052338183015290517ff1090e9d5138cd4909542e10e1da576730b07eb291a71a151e63160dde345b949181900360600190a1505050565b606060006101c5546001600160401b03811115611b8157611b816136d6565b604051908082528060200260200182016040528015611bf557816020015b611be26040805160c081019091528060008152602001600081526020016000815260200160006001600160a01b0316815260200160608152602001606081525090565b815260200190600190039081611b9f5790505b50905060005b6101c554811015611dcb5760008181526101c4602052604090819020815160c081019092528054829060ff166003811115611c3857611c3861362a565b6003811115611c4957611c4961362a565b8152600182015460208201526002820154604082015260038201546001600160a01b03166060820152600482018054608090920191611c8790613e5b565b80601f0160208091040260200160405190810160405280929190818152602001828054611cb390613e5b565b8015611d005780601f10611cd557610100808354040283529160200191611d00565b820191906000526020600020905b815481529060010190602001808311611ce357829003601f168201915b50505050508152602001600582018054611d1990613e5b565b80601f0160208091040260200160405190810160405280929190818152602001828054611d4590613e5b565b8015611d925780601f10611d6757610100808354040283529160200191611d92565b820191906000526020600020905b815481529060010190602001808311611d7557829003601f168201915b505050505081525050828281518110611dad57611dad613fb7565b60200260200101819052508080611dc390613eb8565b915050611bfb565b50919050565b6000611ddc81612074565b60008481526101c4602052604081205460ff166003811115611e0057611e0061362a565b03611e1e5760405163137c9c1f60e31b815260040160405180910390fd5b60008481526101c460205260409020600401611e3a848261403d565b5060008481526101c460205260409020600501610c9d838261403d565b6001600160a01b038516331480611e735750611e73853361073b565b611e8f5760405162461bcd60e51b815260040161085090613ed1565b610c9d8585858585612960565b6001600160a01b038316331480611eb85750611eb8833361073b565b611ed45760405162461bcd60e51b815260040161085090613ed1565b610cb9838383612a9c565b3360009081526101c960209081526040808320600885901c84529182905290912054600160ff84161b16611f265760405163423f327760e11b815260040160405180910390fd5b600882901c6000908152602082905260408082208054600160ff87161b1916905551339184917fc6c1c3224e50c3c958e39197695bdfe8457ce7c0014d8d51a4d3aa12c5ac18489190a35050565b60008181526101c460205260409020600301546001600160a01b0316331480611fa35750611fa3600033611614565b611fc05760405163388f811f60e01b815260040160405180910390fd5b600360008281526101c4602052604090205460ff166003811115611fe657611fe661362a565b146120045760405163968807a560e01b815260040160405180910390fd5b60008181526101c46020908152604091829020805460ff1916600217905590518281527f63bb17c9645a29322601b4fe88d8f3fa84f32229368294f903084be8f5d813ba9101610966565b60006001600160e01b03198216637965db0b60e01b148061087e575061087e82612bb8565b610e188133612c08565b815183511461209f5760405162461bcd60e51b815260040161085090614136565b6001600160a01b0384166120c55760405162461bcd60e51b81526004016108509061417e565b336120d4818787878787612c61565b60005b84518110156121bd5760008582815181106120f4576120f4613fb7565b60200260200101519050600085838151811061211257612112613fb7565b60209081029190910181015160008481526065835260408082206001600160a01b038e1683529093529190912054909150818110156121635760405162461bcd60e51b8152600401610850906141c3565b60008381526065602090815260408083206001600160a01b038e8116855292528083208585039055908b168252812080548492906121a2908490613fcd565b92505081905550505050806121b690613eb8565b90506120d7565b50846001600160a01b0316866001600160a01b0316826001600160a01b03167f4a39dc06d4c0dbc64b70af90fd698a233a518aa5d07e595d983b8c0526c8f7fb878760405161220d92919061420d565b60405180910390a4612223818787878787612c77565b505050505050565b6122358282611614565b610d385760008281526097602090815260408083206001600160a01b03851684529091529020805460ff1916600117905561226d3390565b6001600160a01b0316816001600160a01b0316837f2f8788117e7eff1d82e926ec794901d17c78024a50270940304540a733656f0d60405160405180910390a45050565b6122bb8282611614565b15610d385760008281526097602090815260408083206001600160a01b0385168085529252808320805460ff1916905551339285917ff6391f5c32d9c69d2a47ea670b442974b53935d1edc7fd64eb21e047a839171b9190a45050565b7f189ab7a9244df0848122154315af71fe140f3db0fe014031783b0946b8c9d2e3610d3881612074565b7f4910fdfa16fed3260ed0e7147f7cc6da11a60208b5b9406d12a635614ffd91435460ff161561237557610cb983612dd2565b826001600160a01b03166352d1902d6040518163ffffffff1660e01b8152600401602060405180830381865afa9250505080156123cf575060408051601f3d908101601f191682019092526123cc9181019061423b565b60015b6124325760405162461bcd60e51b815260206004820152602e60248201527f45524331393637557067726164653a206e657720696d706c656d656e7461746960448201526d6f6e206973206e6f74205555505360901b6064820152608401610850565b60008051602061457b83398151915281146124a15760405162461bcd60e51b815260206004820152602960248201527f45524331393637557067726164653a20756e737570706f727465642070726f786044820152681a58589b195555525160ba1b6064820152608401610850565b50610cb9838383612e6e565b6124b5612e93565b60c9805460ff191690557f5db9ee0a495bf2e6ff9c91a7834c1ba4fdd244a5e8aa4e537bd38aeae4b073aa335b6040516001600160a01b03909116815260200160405180910390a1565b6001600160a01b0383166125255760405162461bcd60e51b815260040161085090614254565b80518251146125465760405162461bcd60e51b815260040161085090614136565b600033905061256981856000868660405180602001604052806000815250612c61565b60005b835181101561263157600084828151811061258957612589613fb7565b6020026020010151905060008483815181106125a7576125a7613fb7565b60209081029190910181015160008481526065835260408082206001600160a01b038c1683529093529190912054909150818110156125f85760405162461bcd60e51b815260040161085090614297565b60009283526065602090815260408085206001600160a01b038b168652909152909220910390558061262981613eb8565b91505061256c565b5060006001600160a01b0316846001600160a01b0316826001600160a01b03167f4a39dc06d4c0dbc64b70af90fd698a233a518aa5d07e595d983b8c0526c8f7fb868660405161268292919061420d565b60405180910390a4604080516020810190915260009052610afc565b600054610100900460ff166126c55760405162461bcd60e51b8152600401610850906142db565b610e1881612edc565b600054610100900460ff166126f55760405162461bcd60e51b8152600401610850906142db565b565b600054610100900460ff1661271e5760405162461bcd60e51b8152600401610850906142db565b6126f5612f0c565b61272e612f3f565b60c9805460ff191660011790557f62e78cea01bee320cd4e420270b5ea74000d11b0c9f74754ebdbfc544b05a2586124e23390565b6001600160a01b0384166127c35760405162461bcd60e51b815260206004820152602160248201527f455243313135353a206d696e7420746f20746865207a65726f206164647265736044820152607360f81b6064820152608401610850565b3360006127cf85612f85565b905060006127dc85612f85565b90506127ed83600089858589612c61565b60008681526065602090815260408083206001600160a01b038b1684529091528120805487929061281f908490613fcd565b909155505060408051878152602081018790526001600160a01b03808a1692600092918716917fc3d58168c5ae7397731d063d5bbf3d657854427343f4c083240f7aacaa2d0f62910160405180910390a461287f83600089898989612fd0565b50505050505050565b816001600160a01b0316836001600160a01b0316036128fb5760405162461bcd60e51b815260206004820152602960248201527f455243313135353a2073657474696e6720617070726f76616c20737461747573604482015268103337b91039b2b63360b91b6064820152608401610850565b6001600160a01b03838116600081815260666020908152604080832094871680845294825291829020805460ff191686151590811790915591519182527f17307eab39ab6107e8899845ad3d59bd9653f200f220920489ca2b5937696c31910161140a565b6001600160a01b0384166129865760405162461bcd60e51b81526004016108509061417e565b33600061299285612f85565b9050600061299f85612f85565b90506129af838989858589612c61565b60008681526065602090815260408083206001600160a01b038c168452909152902054858110156129f25760405162461bcd60e51b8152600401610850906141c3565b60008781526065602090815260408083206001600160a01b038d8116855292528083208985039055908a16825281208054889290612a31908490613fcd565b909155505060408051888152602081018890526001600160a01b03808b16928c821692918816917fc3d58168c5ae7397731d063d5bbf3d657854427343f4c083240f7aacaa2d0f62910160405180910390a4612a91848a8a8a8a8a612fd0565b505050505050505050565b6001600160a01b038316612ac25760405162461bcd60e51b815260040161085090614254565b336000612ace84612f85565b90506000612adb84612f85565b9050612afb83876000858560405180602001604052806000815250612c61565b60008581526065602090815260408083206001600160a01b038a16845290915290205484811015612b3e5760405162461bcd60e51b815260040161085090614297565b60008681526065602090815260408083206001600160a01b038b81168086529184528285208a8703905582518b81529384018a90529092908816917fc3d58168c5ae7397731d063d5bbf3d657854427343f4c083240f7aacaa2d0f62910160405180910390a460408051602081019091526000905261287f565b60006001600160e01b03198216636cdb3d1360e11b1480612be957506001600160e01b031982166303a24d0760e21b145b8061087e57506301ffc9a760e01b6001600160e01b031983161461087e565b612c128282611614565b610d3857612c1f8161308b565b612c2a83602061309d565b604051602001612c3b929190614326565b60408051601f198184030181529082905262461bcd60e51b825261085091600401613617565b612c69612f3f565b61222386868686868661323f565b6001600160a01b0384163b156122235760405163bc197c8160e01b81526001600160a01b0385169063bc197c8190612cbb908990899088908890889060040161439b565b6020604051808303816000875af1925050508015612cf6575060408051601f3d908101601f19168201909252612cf3918101906143f9565b60015b612da257612d02614416565b806308c379a003612d3b5750612d16614431565b80612d215750612d3d565b8060405162461bcd60e51b81526004016108509190613617565b505b60405162461bcd60e51b815260206004820152603460248201527f455243313135353a207472616e7366657220746f206e6f6e2d455243313135356044820152732932b1b2b4bb32b91034b6b83632b6b2b73a32b960611b6064820152608401610850565b6001600160e01b0319811663bc197c8160e01b1461287f5760405162461bcd60e51b8152600401610850906144ba565b6001600160a01b0381163b612e3f5760405162461bcd60e51b815260206004820152602d60248201527f455243313936373a206e657720696d706c656d656e746174696f6e206973206e60448201526c1bdd08184818dbdb9d1c9858dd609a1b6064820152608401610850565b60008051602061457b83398151915280546001600160a01b0319166001600160a01b0392909216919091179055565b612e77836133bb565b600082511180612e845750805b15610cb957610afc83836133fb565b60c95460ff166126f55760405162461bcd60e51b815260206004820152601460248201527314185d5cd8589b194e881b9bdd081c185d5cd95960621b6044820152606401610850565b600054610100900460ff16612f035760405162461bcd60e51b8152600401610850906142db565b610e1881613420565b600054610100900460ff16612f335760405162461bcd60e51b8152600401610850906142db565b60c9805460ff19169055565b60c95460ff16156126f55760405162461bcd60e51b815260206004820152601060248201526f14185d5cd8589b194e881c185d5cd95960821b6044820152606401610850565b60408051600180825281830190925260609160009190602080830190803683370190505090508281600081518110612fbf57612fbf613fb7565b602090810291909101015292915050565b6001600160a01b0384163b156122235760405163f23a6e6160e01b81526001600160a01b0385169063f23a6e61906130149089908990889088908890600401614502565b6020604051808303816000875af192505050801561304f575060408051601f3d908101601f1916820190925261304c918101906143f9565b60015b61305b57612d02614416565b6001600160e01b0319811663f23a6e6160e01b1461287f5760405162461bcd60e51b8152600401610850906144ba565b606061087e6001600160a01b03831660145b606060006130ac836002613fe0565b6130b7906002613fcd565b6001600160401b038111156130ce576130ce6136d6565b6040519080825280601f01601f1916602001820160405280156130f8576020820181803683370190505b509050600360fc1b8160008151811061311357613113613fb7565b60200101906001600160f81b031916908160001a905350600f60fb1b8160018151811061314257613142613fb7565b60200101906001600160f81b031916908160001a9053506000613166846002613fe0565b613171906001613fcd565b90505b60018111156131e9576f181899199a1a9b1b9c1cb0b131b232b360811b85600f16601081106131a5576131a5613fb7565b1a60f81b8282815181106131bb576131bb613fb7565b60200101906001600160f81b031916908160001a90535060049490941c936131e281614547565b9050613174565b5083156132385760405162461bcd60e51b815260206004820181905260248201527f537472696e67733a20686578206c656e67746820696e73756666696369656e746044820152606401610850565b9392505050565b6001600160a01b0385166132c75760005b83518110156132c55782818151811061326b5761326b613fb7565b602002602001015161012d600086848151811061328a5761328a613fb7565b6020026020010151815260200190815260200160002060008282546132af9190613fcd565b909155506132be905081613eb8565b9050613250565b505b6001600160a01b0384166122235760005b835181101561287f5760008482815181106132f5576132f5613fb7565b60200260200101519050600084838151811061331357613313613fb7565b60200260200101519050600061012d6000848152602001908152602001600020549050818110156133975760405162461bcd60e51b815260206004820152602860248201527f455243313135353a206275726e20616d6f756e74206578636565647320746f74604482015267616c537570706c7960c01b6064820152608401610850565b600092835261012d6020526040909220910390556133b481613eb8565b90506132d8565b6133c481612dd2565b6040516001600160a01b038216907fbc7cd75a20ee27fd9adebab32041f755214dbc6bffa90cc0225b39da2e5c2d3b90600090a250565b6060613238838360405180606001604052806027815260200161459b6027913961342c565b6067610d38828261403d565b6060600080856001600160a01b031685604051613449919061455e565b600060405180830381855af49150503d8060008114613484576040519150601f19603f3d011682016040523d82523d6000602084013e613489565b606091505b509150915061349a868383876134a4565b9695505050505050565b6060831561351357825160000361350c576001600160a01b0385163b61350c5760405162461bcd60e51b815260206004820152601d60248201527f416464726573733a2063616c6c20746f206e6f6e2d636f6e74726163740000006044820152606401610850565b508161351d565b61351d8383613525565b949350505050565b815115612d215781518083602001fd5b80356001600160a01b038116811461354c57600080fd5b919050565b6000806040838503121561356457600080fd5b61356d83613535565b946020939093013593505050565b6001600160e01b031981168114610e1857600080fd5b6000602082840312156135a357600080fd5b81356132388161357b565b6000602082840312156135c057600080fd5b5035919050565b60005b838110156135e25781810151838201526020016135ca565b50506000910152565b600081518084526136038160208601602086016135c7565b601f01601f19169290920160200192915050565b60208152600061323860208301846135eb565b634e487b7160e01b600052602160045260246000fd5b6004811061365e57634e487b7160e01b600052602160045260246000fd5b9052565b61366c8188613640565b85602082015284604082015260018060a01b038416606082015260c06080820152600061369c60c08301856135eb565b82810360a08401526136ae81856135eb565b9998505050505050505050565b6000602082840312156136cd57600080fd5b61323882613535565b634e487b7160e01b600052604160045260246000fd5b601f8201601f191681016001600160401b0381118282101715613711576137116136d6565b6040525050565b60006001600160401b03821115613731576137316136d6565b5060051b60200190565b600082601f83011261374c57600080fd5b8135602061375982613718565b60405161376682826136ec565b83815260059390931b850182019282810191508684111561378657600080fd5b8286015b848110156137a1578035835291830191830161378a565b509695505050505050565b600082601f8301126137bd57600080fd5b81356001600160401b038111156137d6576137d66136d6565b6040516137ed601f8301601f1916602001826136ec565b81815284602083860101111561380257600080fd5b816020850160208301376000918101602001919091529392505050565b600080600080600060a0868803121561383757600080fd5b61384086613535565b945061384e60208701613535565b935060408601356001600160401b038082111561386a57600080fd5b61387689838a0161373b565b9450606088013591508082111561388c57600080fd5b61389889838a0161373b565b935060808801359150808211156138ae57600080fd5b506138bb888289016137ac565b9150509295509295909350565b600080604083850312156138db57600080fd5b823591506138eb60208401613535565b90509250929050565b6000806040838503121561390757600080fd5b82356001600160401b038082111561391e57600080fd5b818501915085601f83011261393257600080fd5b8135602061393f82613718565b60405161394c82826136ec565b83815260059390931b850182019282810191508984111561396c57600080fd5b948201945b838610156139915761398286613535565b82529482019490820190613971565b965050860135925050808211156139a757600080fd5b506139b48582860161373b565b9150509250929050565b600081518084526020808501945080840160005b838110156139ee578151875295820195908201906001016139d2565b509495945050505050565b60208152600061323860208301846139be565b60008060408385031215613a1f57600080fd5b613a2883613535565b915060208301356001600160401b03811115613a4357600080fd5b6139b4858286016137ac565b600080600060608486031215613a6457600080fd5b613a6d84613535565b925060208401356001600160401b0380821115613a8957600080fd5b613a958783880161373b565b93506040860135915080821115613aab57600080fd5b50613ab88682870161373b565b9150509250925092565b60008060408385031215613ad557600080fd5b8235915060208301356001600160401b03811115613a4357600080fd5b60008060008060808587031215613b0857600080fd5b8435935060208501359250613b1f60408601613535565b915060608501356001600160401b03811115613b3a57600080fd5b613b46878288016137ac565b91505092959194509250565b60008060408385031215613b6557600080fd5b613b6e83613535565b915060208301358015158114613b8357600080fd5b809150509250929050565b600080600080600060a08688031215613ba657600080fd5b85359450613bb660208701613535565b9350613bc460408701613535565b925060608601356001600160401b0380821115613be057600080fd5b61389889838a016137ac565b60006020808301818452808551808352604092508286019150828160051b87010184880160005b83811015613c5457888303603f1901855281518051878552613c37888601826135eb565b918901519489019490945294870194925090860190600101613c13565b509098975050505050505050565b60008060408385031215613c7557600080fd5b50508035926020909101359150565b60006020808301818452808551808352604092508286019150828160051b87010184880160005b83811015613c5457603f19898403018552815160c0613ccb858351613640565b81890151858a015287820151888601526060808301516001600160a01b031690860152608080830151818701839052613d06838801826135eb565b9250505060a08083015192508582038187015250613d2481836135eb565b968901969450505090860190600101613cab565b600080600060608486031215613d4d57600080fd5b8335925060208401356001600160401b0380821115613d6b57600080fd5b613d77878388016137ac565b93506040860135915080821115613d8d57600080fd5b50613ab8868287016137ac565b60008060408385031215613dad57600080fd5b613db683613535565b91506138eb60208401613535565b600080600080600060a08688031215613ddc57600080fd5b613de586613535565b9450613df360208701613535565b9350604086013592506060860135915060808601356001600160401b03811115613e1c57600080fd5b6138bb888289016137ac565b600080600060608486031215613e3d57600080fd5b613e4684613535565b95602085013595506040909401359392505050565b600181811c90821680613e6f57607f821691505b602082108103611dcb57634e487b7160e01b600052602260045260246000fd5b634e487b7160e01b600052601160045260246000fd5b8181038181111561087e5761087e613e8f565b600060018201613eca57613eca613e8f565b5060010190565b6020808252602e908201527f455243313135353a2063616c6c6572206973206e6f7420746f6b656e206f776e60408201526d195c881bdc88185c1c1c9bdd995960921b606082015260800190565b6020808252602c908201527f46756e6374696f6e206d7573742062652063616c6c6564207468726f7567682060408201526b19195b1959d85d1958d85b1b60a21b606082015260800190565b6020808252602c908201527f46756e6374696f6e206d7573742062652063616c6c6564207468726f7567682060408201526b6163746976652070726f787960a01b606082015260800190565b634e487b7160e01b600052603260045260246000fd5b8082018082111561087e5761087e613e8f565b808202811582820484141761087e5761087e613e8f565b601f821115610cb957600081815260208120601f850160051c8101602086101561401e5750805b601f850160051c820191505b818110156122235782815560010161402a565b81516001600160401b03811115614056576140566136d6565b61406a816140648454613e5b565b84613ff7565b602080601f83116001811461409f57600084156140875750858301515b600019600386901b1c1916600185901b178555612223565b600085815260208120601f198616915b828110156140ce578886015182559484019460019091019084016140af565b50858210156140ec5787850151600019600388901b60f8161c191681555b5050505050600190811b01905550565b84815260806020820152600061411560808301866135eb565b6040830194909452506001600160a01b039190911660609091015292915050565b60208082526028908201527f455243313135353a2069647320616e6420616d6f756e7473206c656e677468206040820152670dad2e6dac2e8c6d60c31b606082015260800190565b60208082526025908201527f455243313135353a207472616e7366657220746f20746865207a65726f206164604082015264647265737360d81b606082015260800190565b6020808252602a908201527f455243313135353a20696e73756666696369656e742062616c616e636520666f60408201526939103a3930b739b332b960b11b606082015260800190565b60408152600061422060408301856139be565b828103602084015261423281856139be565b95945050505050565b60006020828403121561424d57600080fd5b5051919050565b60208082526023908201527f455243313135353a206275726e2066726f6d20746865207a65726f206164647260408201526265737360e81b606082015260800190565b60208082526024908201527f455243313135353a206275726e20616d6f756e7420657863656564732062616c604082015263616e636560e01b606082015260800190565b6020808252602b908201527f496e697469616c697a61626c653a20636f6e7472616374206973206e6f74206960408201526a6e697469616c697a696e6760a81b606082015260800190565b7f416363657373436f6e74726f6c3a206163636f756e742000000000000000000081526000835161435e8160178501602088016135c7565b7001034b99036b4b9b9b4b733903937b6329607d1b601791840191820152835161438f8160288401602088016135c7565b01602801949350505050565b6001600160a01b0386811682528516602082015260a0604082018190526000906143c7908301866139be565b82810360608401526143d981866139be565b905082810360808401526143ed81856135eb565b98975050505050505050565b60006020828403121561440b57600080fd5b81516132388161357b565b600060033d11156110f35760046000803e5060005160e01c90565b600060443d101561443f5790565b6040516003193d81016004833e81513d6001600160401b03816024840111818411171561446e57505050505090565b82850191508151818111156144865750505050505090565b843d87010160208285010111156144a05750505050505090565b6144af602082860101876136ec565b509095945050505050565b60208082526028908201527f455243313135353a204552433131353552656365697665722072656a656374656040820152676420746f6b656e7360c01b606082015260800190565b6001600160a01b03868116825285166020820152604081018490526060810183905260a06080820181905260009061453c908301846135eb565b979650505050505050565b60008161455657614556613e8f565b506000190190565b600082516145708184602087016135c7565b919091019291505056fe360894a13ba1a3210667c828492db98dca3e2076cc3735a920a3ca505d382bbc416464726573733a206c6f772d6c6576656c2064656c65676174652063616c6c206661696c6564a26469706673582212209c4e426e0735e46a0effde0cc2d8dd3845fe2d43227361a7083528f4e6090dcb64736f6c63430008130033",
  "linkReferences": {
    "src/Beliefs/LibBeliefs.sol": {
      "LibBeliefs": [
        {
          "length": 20,
          "start": 5017
        }
      ]
    }
  },
  "deployedLinkReferences": {
    "src/Beliefs/LibBeliefs.sol": {
      "LibBeliefs": [
        {
          "length": 20,
          "start": 4730
        }
      ]
    }
  }
}