{
  "_format": "hh-sol-artifact-1",
  "contractName": "Beliefs",
  "sourceName": "src/Beliefs/Beliefs.sol",
  "abi": [
    {
      "inputs": [],
      "name": "EditionFeeExceedsMaximumFee",
      "type": "error"
    },
    {
      "inputs": [],
      "name": "EditionNotCreated",
      "type": "error"
    },
    {
      "inputs": [],
      "name": "EditionNotEnoughBalance",
      "type": "error"
    },
    {
      "inputs": [],
      "name": "EditionNotLaunched",
      "type": "error"
    },
    {
      "inputs": [],
      "name": "EditionNotStopped",
      "type": "error"
    },
    {
      "inputs": [],
      "name": "NotCorrectUser",
      "type": "error"
    },
    {
      "inputs": [],
      "name": "NotEditionOwner",
      "type": "error"
    },
    {
      "inputs": [],
      "name": "NotEnoughFees",
      "type": "error"
    },
    {
      "inputs": [],
      "name": "NotEnoughFunds",
      "type": "error"
    },
    {
      "inputs": [],
      "name": "TransactionFailed",
      "type": "error"
    },
    {
      "anonymous": false,
      "inputs": [
        {
          "indexed": false,
          "internalType": "address",
          "name": "previousAdmin",
          "type": "address"
        },
        {
          "indexed": false,
          "internalType": "address",
          "name": "newAdmin",
          "type": "address"
        }
      ],
      "name": "AdminChanged",
      "type": "event"
    },
    {
      "anonymous": false,
      "inputs": [
        {
          "indexed": true,
          "internalType": "address",
          "name": "account",
          "type": "address"
        },
        {
          "indexed": true,
          "internalType": "address",
          "name": "operator",
          "type": "address"
        },
        {
          "indexed": false,
          "internalType": "bool",
          "name": "approved",
          "type": "bool"
        }
      ],
      "name": "ApprovalForAll",
      "type": "event"
    },
    {
      "anonymous": false,
      "inputs": [
        {
          "indexed": true,
          "internalType": "address",
          "name": "beacon",
          "type": "address"
        }
      ],
      "name": "BeaconUpgraded",
      "type": "event"
    },
    {
      "anonymous": false,
      "inputs": [
        {
          "indexed": false,
          "internalType": "uint256",
          "name": "editionId",
          "type": "uint256"
        }
      ],
      "name": "EditionApproved",
      "type": "event"
    },
    {
      "anonymous": false,
      "inputs": [
        {
          "indexed": false,
          "internalType": "uint256",
          "name": "editionId",
          "type": "uint256"
        },
        {
          "indexed": false,
          "internalType": "uint256",
          "name": "amount",
          "type": "uint256"
        },
        {
          "indexed": false,
          "internalType": "address",
          "name": "owner",
          "type": "address"
        }
      ],
      "name": "EditionBalanceWithdrawn",
      "type": "event"
    },
    {
      "anonymous": false,
      "inputs": [
        {
          "indexed": true,
          "internalType": "uint256",
          "name": "editionId",
          "type": "uint256"
        },
        {
          "indexed": true,
          "internalType": "address",
          "name": "believer",
          "type": "address"
        }
      ],
      "name": "EditionBeliefRemoved",
      "type": "event"
    },
    {
      "anonymous": false,
      "inputs": [
        {
          "indexed": true,
          "internalType": "uint256",
          "name": "editionId",
          "type": "uint256"
        },
        {
          "indexed": true,
          "internalType": "address",
          "name": "believer",
          "type": "address"
        },
        {
          "indexed": false,
          "internalType": "string",
          "name": "tags",
          "type": "string"
        }
      ],
      "name": "EditionBelieved",
      "type": "event"
    },
    {
      "anonymous": false,
      "inputs": [
        {
          "indexed": false,
          "internalType": "uint256",
          "name": "editionId",
          "type": "uint256"
        },
        {
          "indexed": false,
          "internalType": "string",
          "name": "briefId",
          "type": "string"
        },
        {
          "indexed": false,
          "internalType": "uint256",
          "name": "fee",
          "type": "uint256"
        },
        {
          "indexed": false,
          "internalType": "address",
          "name": "owner",
          "type": "address"
        }
      ],
      "name": "EditionCreated",
      "type": "event"
    },
    {
      "anonymous": false,
      "inputs": [
        {
          "indexed": false,
          "internalType": "uint256",
          "name": "editionId",
          "type": "uint256"
        }
      ],
      "name": "EditionResumed",
      "type": "event"
    },
    {
      "anonymous": false,
      "inputs": [
        {
          "indexed": false,
          "internalType": "uint256",
          "name": "editionId",
          "type": "uint256"
        }
      ],
      "name": "EditionStopped",
      "type": "event"
    },
    {
      "anonymous": false,
      "inputs": [
        {
          "indexed": false,
          "internalType": "uint8",
          "name": "version",
          "type": "uint8"
        }
      ],
      "name": "Initialized",
      "type": "event"
    },
    {
      "anonymous": false,
      "inputs": [
        {
          "indexed": false,
          "internalType": "address",
          "name": "account",
          "type": "address"
        }
      ],
      "name": "Paused",
      "type": "event"
    },
    {
      "anonymous": false,
      "inputs": [
        {
          "indexed": true,
          "internalType": "bytes32",
          "name": "role",
          "type": "bytes32"
        },
        {
          "indexed": true,
          "internalType": "bytes32",
          "name": "previousAdminRole",
          "type": "bytes32"
        },
        {
          "indexed": true,
          "internalType": "bytes32",
          "name": "newAdminRole",
          "type": "bytes32"
        }
      ],
      "name": "RoleAdminChanged",
      "type": "event"
    },
    {
      "anonymous": false,
      "inputs": [
        {
          "indexed": true,
          "internalType": "bytes32",
          "name": "role",
          "type": "bytes32"
        },
        {
          "indexed": true,
          "internalType": "address",
          "name": "account",
          "type": "address"
        },
        {
          "indexed": true,
          "internalType": "address",
          "name": "sender",
          "type": "address"
        }
      ],
      "name": "RoleGranted",
      "type": "event"
    },
    {
      "anonymous": false,
      "inputs": [
        {
          "indexed": true,
          "internalType": "bytes32",
          "name": "role",
          "type": "bytes32"
        },
        {
          "indexed": true,
          "internalType": "address",
          "name": "account",
          "type": "address"
        },
        {
          "indexed": true,
          "internalType": "address",
          "name": "sender",
          "type": "address"
        }
      ],
      "name": "RoleRevoked",
      "type": "event"
    },
    {
      "anonymous": false,
      "inputs": [
        {
          "indexed": true,
          "internalType": "address",
          "name": "operator",
          "type": "address"
        },
        {
          "indexed": true,
          "internalType": "address",
          "name": "from",
          "type": "address"
        },
        {
          "indexed": true,
          "internalType": "address",
          "name": "to",
          "type": "address"
        },
        {
          "indexed": false,
          "internalType": "uint256[]",
          "name": "ids",
          "type": "uint256[]"
        },
        {
          "indexed": false,
          "internalType": "uint256[]",
          "name": "values",
          "type": "uint256[]"
        }
      ],
      "name": "TransferBatch",
      "type": "event"
    },
    {
      "anonymous": false,
      "inputs": [
        {
          "indexed": true,
          "internalType": "address",
          "name": "operator",
          "type": "address"
        },
        {
          "indexed": true,
          "internalType": "address",
          "name": "from",
          "type": "address"
        },
        {
          "indexed": true,
          "internalType": "address",
          "name": "to",
          "type": "address"
        },
        {
          "indexed": false,
          "internalType": "uint256",
          "name": "id",
          "type": "uint256"
        },
        {
          "indexed": false,
          "internalType": "uint256",
          "name": "value",
          "type": "uint256"
        }
      ],
      "name": "TransferSingle",
      "type": "event"
    },
    {
      "anonymous": false,
      "inputs": [
        {
          "indexed": false,
          "internalType": "string",
          "name": "value",
          "type": "string"
        },
        {
          "indexed": true,
          "internalType": "uint256",
          "name": "id",
          "type": "uint256"
        }
      ],
      "name": "URI",
      "type": "event"
    },
    {
      "anonymous": false,
      "inputs": [
        {
          "indexed": false,
          "internalType": "address",
          "name": "account",
          "type": "address"
        }
      ],
      "name": "Unpaused",
      "type": "event"
    },
    {
      "anonymous": false,
      "inputs": [
        {
          "indexed": true,
          "internalType": "address",
          "name": "implementation",
          "type": "address"
        }
      ],
      "name": "Upgraded",
      "type": "event"
    },
    {
      "stateMutability": "payable",
      "type": "fallback"
    },
    {
      "inputs": [],
      "name": "DEFAULT_ADMIN_ROLE",
      "outputs": [
        {
          "internalType": "bytes32",
          "name": "",
          "type": "bytes32"
        }
      ],
      "stateMutability": "view",
      "type": "function"
    },
    {
      "inputs": [
        {
          "internalType": "uint256",
          "name": "editionId",
          "type": "uint256"
        }
      ],
      "name": "approveEdition",
      "outputs": [],
      "stateMutability": "nonpayable",
      "type": "function"
    },
    {
      "inputs": [
        {
          "internalType": "address",
          "name": "account",
          "type": "address"
        },
        {
          "internalType": "uint256",
          "name": "id",
          "type": "uint256"
        }
      ],
      "name": "balanceOf",
      "outputs": [
        {
          "internalType": "uint256",
          "name": "",
          "type": "uint256"
        }
      ],
      "stateMutability": "view",
      "type": "function"
    },
    {
      "inputs": [
        {
          "internalType": "address[]",
          "name": "accounts",
          "type": "address[]"
        },
        {
          "internalType": "uint256[]",
          "name": "ids",
          "type": "uint256[]"
        }
      ],
      "name": "balanceOfBatch",
      "outputs": [
        {
          "internalType": "uint256[]",
          "name": "",
          "type": "uint256[]"
        }
      ],
      "stateMutability": "view",
      "type": "function"
    },
    {
      "inputs": [
        {
          "internalType": "address",
          "name": "user",
          "type": "address"
        }
      ],
      "name": "balances",
      "outputs": [
        {
          "internalType": "uint256",
          "name": "balance",
          "type": "uint256"
        }
      ],
      "stateMutability": "view",
      "type": "function"
    },
    {
      "inputs": [
        {
          "internalType": "uint256",
          "name": "editionId",
          "type": "uint256"
        },
        {
          "internalType": "string",
          "name": "tags",
          "type": "string"
        }
      ],
      "name": "believeProject",
      "outputs": [],
      "stateMutability": "payable",
      "type": "function"
    },
    {
      "inputs": [
        {
          "internalType": "address",
          "name": "account",
          "type": "address"
        },
        {
          "internalType": "uint256",
          "name": "id",
          "type": "uint256"
        },
        {
          "internalType": "uint256",
          "name": "value",
          "type": "uint256"
        }
      ],
      "name": "burn",
      "outputs": [],
      "stateMutability": "nonpayable",
      "type": "function"
    },
    {
      "inputs": [
        {
          "internalType": "address",
          "name": "account",
          "type": "address"
        },
        {
          "internalType": "uint256[]",
          "name": "ids",
          "type": "uint256[]"
        },
        {
          "internalType": "uint256[]",
          "name": "values",
          "type": "uint256[]"
        }
      ],
      "name": "burnBatch",
      "outputs": [],
      "stateMutability": "nonpayable",
      "type": "function"
    },
    {
      "inputs": [
        {
          "internalType": "uint256",
          "name": "fee",
          "type": "uint256"
        },
        {
          "internalType": "address",
          "name": "owner",
          "type": "address"
        },
        {
          "internalType": "address",
          "name": "payer",
          "type": "address"
        },
        {
          "internalType": "string",
          "name": "id",
          "type": "string"
        },
        {
          "internalType": "string",
          "name": "briefId",
          "type": "string"
        }
      ],
      "name": "createEdition",
      "outputs": [
        {
          "internalType": "uint256",
          "name": "editionId",
          "type": "uint256"
        }
      ],
      "stateMutability": "nonpayable",
      "type": "function"
    },
    {
      "inputs": [],
      "name": "editionCounter",
      "outputs": [
        {
          "internalType": "uint256",
          "name": "",
          "type": "uint256"
        }
      ],
      "stateMutability": "view",
      "type": "function"
    },
    {
      "inputs": [
        {
          "internalType": "uint256",
          "name": "",
          "type": "uint256"
        }
      ],
      "name": "editions",
      "outputs": [
        {
          "internalType": "enum EditionsStructs.EditionStatus",
          "name": "status",
          "type": "uint8"
        },
        {
          "internalType": "uint256",
          "name": "fee",
          "type": "uint256"
        },
        {
          "internalType": "uint256",
          "name": "balance",
          "type": "uint256"
        },
        {
          "internalType": "address",
          "name": "owner",
          "type": "address"
        },
        {
          "internalType": "string",
          "name": "id",
          "type": "string"
        },
        {
          "internalType": "string",
          "name": "briefId",
          "type": "string"
        }
      ],
      "stateMutability": "view",
      "type": "function"
    },
    {
      "inputs": [
        {
          "internalType": "uint256",
          "name": "id",
          "type": "uint256"
        }
      ],
      "name": "exists",
      "outputs": [
        {
          "internalType": "bool",
          "name": "",
          "type": "bool"
        }
      ],
      "stateMutability": "view",
      "type": "function"
    },
    {
      "inputs": [],
      "name": "futureFundFee",
      "outputs": [
        {
          "internalType": "uint256",
          "name": "",
          "type": "uint256"
        }
      ],
      "stateMutability": "view",
      "type": "function"
    },
    {
      "inputs": [
        {
          "internalType": "address",
          "name": "owner",
          "type": "address"
        }
      ],
      "name": "getBalances",
      "outputs": [
        {
          "components": [
            {
              "internalType": "string",
              "name": "id",
              "type": "string"
            },
            {
              "internalType": "uint256",
              "name": "amount",
              "type": "uint256"
            }
          ],
          "internalType": "struct EditionsStructs.EditionIdWithAmount[]",
          "name": "",
          "type": "tuple[]"
        }
      ],
      "stateMutability": "view",
      "type": "function"
    },
    {
      "inputs": [],
      "name": "getEditions",
      "outputs": [
        {
          "components": [
            {
              "internalType": "enum EditionsStructs.EditionStatus",
              "name": "status",
              "type": "uint8"
            },
            {
              "internalType": "uint256",
              "name": "fee",
              "type": "uint256"
            },
            {
              "internalType": "uint256",
              "name": "balance",
              "type": "uint256"
            },
            {
              "internalType": "address",
              "name": "owner",
              "type": "address"
            },
            {
              "internalType": "string",
              "name": "id",
              "type": "string"
            },
            {
              "internalType": "string",
              "name": "briefId",
              "type": "string"
            }
          ],
          "internalType": "struct EditionsStructs.Edition[]",
          "name": "",
          "type": "tuple[]"
        }
      ],
      "stateMutability": "view",
      "type": "function"
    },
    {
      "inputs": [
        {
          "internalType": "bytes32",
          "name": "role",
          "type": "bytes32"
        }
      ],
      "name": "getRoleAdmin",
      "outputs": [
        {
          "internalType": "bytes32",
          "name": "",
          "type": "bytes32"
        }
      ],
      "stateMutability": "view",
      "type": "function"
    },
    {
      "inputs": [
        {
          "internalType": "bytes32",
          "name": "role",
          "type": "bytes32"
        },
        {
          "internalType": "address",
          "name": "account",
          "type": "address"
        }
      ],
      "name": "grantRole",
      "outputs": [],
      "stateMutability": "nonpayable",
      "type": "function"
    },
    {
      "inputs": [
        {
          "internalType": "bytes32",
          "name": "role",
          "type": "bytes32"
        },
        {
          "internalType": "address",
          "name": "account",
          "type": "address"
        }
      ],
      "name": "hasRole",
      "outputs": [
        {
          "internalType": "bool",
          "name": "",
          "type": "bool"
        }
      ],
      "stateMutability": "view",
      "type": "function"
    },
    {
      "inputs": [],
      "name": "initialize",
      "outputs": [],
      "stateMutability": "nonpayable",
      "type": "function"
    },
    {
      "inputs": [
        {
          "internalType": "address",
          "name": "account",
          "type": "address"
        },
        {
          "internalType": "address",
          "name": "operator",
          "type": "address"
        }
      ],
      "name": "isApprovedForAll",
      "outputs": [
        {
          "internalType": "bool",
          "name": "",
          "type": "bool"
        }
      ],
      "stateMutability": "view",
      "type": "function"
    },
    {
      "inputs": [],
      "name": "maximumEditionFee",
      "outputs": [
        {
          "internalType": "uint256",
          "name": "",
          "type": "uint256"
        }
      ],
      "stateMutability": "view",
      "type": "function"
    },
    {
      "inputs": [
        {
          "internalType": "uint256",
          "name": "editionId",
          "type": "uint256"
        },
        {
          "internalType": "uint256",
          "name": "amount",
          "type": "uint256"
        },
        {
          "internalType": "address",
          "name": "buyer",
          "type": "address"
        },
        {
          "internalType": "bytes",
          "name": "data",
          "type": "bytes"
        }
      ],
      "name": "mintEdition",
      "outputs": [],
      "stateMutability": "payable",
      "type": "function"
    },
    {
      "inputs": [],
      "name": "pause",
      "outputs": [],
      "stateMutability": "nonpayable",
      "type": "function"
    },
    {
      "inputs": [],
      "name": "paused",
      "outputs": [
        {
          "internalType": "bool",
          "name": "",
          "type": "bool"
        }
      ],
      "stateMutability": "view",
      "type": "function"
    },
    {
      "inputs": [],
      "name": "protocolFee",
      "outputs": [
        {
          "internalType": "uint256",
          "name": "",
          "type": "uint256"
        }
      ],
      "stateMutability": "view",
      "type": "function"
    },
    {
      "inputs": [],
      "name": "proxiableUUID",
      "outputs": [
        {
          "internalType": "bytes32",
          "name": "",
          "type": "bytes32"
        }
      ],
      "stateMutability": "view",
      "type": "function"
    },
    {
      "inputs": [
        {
          "internalType": "uint256",
          "name": "editionId",
          "type": "uint256"
        }
      ],
      "name": "removeBelief",
      "outputs": [],
      "stateMutability": "nonpayable",
      "type": "function"
    },
    {
      "inputs": [
        {
          "internalType": "bytes32",
          "name": "role",
          "type": "bytes32"
        },
        {
          "internalType": "address",
          "name": "account",
          "type": "address"
        }
      ],
      "name": "renounceRole",
      "outputs": [],
      "stateMutability": "nonpayable",
      "type": "function"
    },
    {
      "inputs": [
        {
          "internalType": "uint256",
          "name": "editionId",
          "type": "uint256"
        }
      ],
      "name": "resumeEdition",
      "outputs": [],
      "stateMutability": "nonpayable",
      "type": "function"
    },
    {
      "inputs": [
        {
          "internalType": "bytes32",
          "name": "role",
          "type": "bytes32"
        },
        {
          "internalType": "address",
          "name": "account",
          "type": "address"
        }
      ],
      "name": "revokeRole",
      "outputs": [],
      "stateMutability": "nonpayable",
      "type": "function"
    },
    {
      "inputs": [
        {
          "internalType": "address",
          "name": "from",
          "type": "address"
        },
        {
          "internalType": "address",
          "name": "to",
          "type": "address"
        },
        {
          "internalType": "uint256[]",
          "name": "ids",
          "type": "uint256[]"
        },
        {
          "internalType": "uint256[]",
          "name": "amounts",
          "type": "uint256[]"
        },
        {
          "internalType": "bytes",
          "name": "data",
          "type": "bytes"
        }
      ],
      "name": "safeBatchTransferFrom",
      "outputs": [],
      "stateMutability": "nonpayable",
      "type": "function"
    },
    {
      "inputs": [
        {
          "internalType": "address",
          "name": "from",
          "type": "address"
        },
        {
          "internalType": "address",
          "name": "to",
          "type": "address"
        },
        {
          "internalType": "uint256",
          "name": "id",
          "type": "uint256"
        },
        {
          "internalType": "uint256",
          "name": "amount",
          "type": "uint256"
        },
        {
          "internalType": "bytes",
          "name": "data",
          "type": "bytes"
        }
      ],
      "name": "safeTransferFrom",
      "outputs": [],
      "stateMutability": "nonpayable",
      "type": "function"
    },
    {
      "inputs": [
        {
          "internalType": "address",
          "name": "operator",
          "type": "address"
        },
        {
          "internalType": "bool",
          "name": "approved",
          "type": "bool"
        }
      ],
      "name": "setApprovalForAll",
      "outputs": [],
      "stateMutability": "nonpayable",
      "type": "function"
    },
    {
      "inputs": [
        {
          "internalType": "uint256",
          "name": "editionId",
          "type": "uint256"
        }
      ],
      "name": "stopEdition",
      "outputs": [],
      "stateMutability": "nonpayable",
      "type": "function"
    },
    {
      "inputs": [
        {
          "internalType": "bytes4",
          "name": "interfaceId",
          "type": "bytes4"
        }
      ],
      "name": "supportsInterface",
      "outputs": [
        {
          "internalType": "bool",
          "name": "",
          "type": "bool"
        }
      ],
      "stateMutability": "view",
      "type": "function"
    },
    {
      "inputs": [
        {
          "internalType": "uint256",
          "name": "id",
          "type": "uint256"
        }
      ],
      "name": "totalSupply",
      "outputs": [
        {
          "internalType": "uint256",
          "name": "",
          "type": "uint256"
        }
      ],
      "stateMutability": "view",
      "type": "function"
    },
    {
      "inputs": [],
      "name": "unpause",
      "outputs": [],
      "stateMutability": "nonpayable",
      "type": "function"
    },
    {
      "inputs": [
        {
          "internalType": "uint256",
          "name": "editionId",
          "type": "uint256"
        },
        {
          "internalType": "string",
          "name": "id",
          "type": "string"
        },
        {
          "internalType": "string",
          "name": "briefId",
          "type": "string"
        }
      ],
      "name": "updateEdition",
      "outputs": [],
      "stateMutability": "nonpayable",
      "type": "function"
    },
    {
      "inputs": [
        {
          "internalType": "address",
          "name": "newImplementation",
          "type": "address"
        }
      ],
      "name": "upgradeTo",
      "outputs": [],
      "stateMutability": "nonpayable",
      "type": "function"
    },
    {
      "inputs": [
        {
          "internalType": "address",
          "name": "newImplementation",
          "type": "address"
        },
        {
          "internalType": "bytes",
          "name": "data",
          "type": "bytes"
        }
      ],
      "name": "upgradeToAndCall",
      "outputs": [],
      "stateMutability": "payable",
      "type": "function"
    },
    {
      "inputs": [
        {
          "internalType": "uint256",
          "name": "",
          "type": "uint256"
        }
      ],
      "name": "uri",
      "outputs": [
        {
          "internalType": "string",
          "name": "",
          "type": "string"
        }
      ],
      "stateMutability": "view",
      "type": "function"
    },
    {
      "inputs": [
        {
          "internalType": "uint256",
          "name": "editionId",
          "type": "uint256"
        },
        {
          "internalType": "uint256",
          "name": "amount",
          "type": "uint256"
        }
      ],
      "name": "withdrawEditionBalance",
      "outputs": [],
      "stateMutability": "nonpayable",
      "type": "function"
    },
    {
      "inputs": [
        {
          "internalType": "uint256",
          "name": "amount",
          "type": "uint256"
        }
      ],
      "name": "withdrawFunds",
      "outputs": [],
      "stateMutability": "nonpayable",
      "type": "function"
    },
    {
      "stateMutability": "payable",
      "type": "receive"
    }
  ],
  "bytecode": "0x60a0604052306080523480156200001557600080fd5b506200002062000026565b620000e7565b600054610100900460ff1615620000935760405162461bcd60e51b815260206004820152602760248201527f496e697469616c697a61626c653a20636f6e747261637420697320696e697469604482015266616c697a696e6760c81b606482015260840160405180910390fd5b60005460ff90811614620000e5576000805460ff191660ff9081179091556040519081527f7f26b83ff96e1f2b6a682f133852f6798a09c465da95921460cefb38474024989060200160405180910390a15b565b6080516149896200011f60003960008181610d4601528181610d8601528181610f8001528181610fc0015261104f01526149896000f3fe6080604052600436106102475760003560e01c8063790bafc611610138578063c6fbb712116100b0578063e43990fe11610077578063e43990fe14610700578063e985e9c514610720578063f242432a14610769578063f5298aca14610789578063f8c1b2fd146107a9578063fc74efa2146107c957005b8063c6fbb7121461065a578063c84aae1714610671578063d547741f1461069e578063d667c9ce146106be578063df6efc6c146106de57005b8063a217fddf116100ff578063a217fddf146105a9578063a22cb465146105be578063b0e21e8a146105de578063b3a44bd6146105f5578063b94967a414610615578063bd85b0391461062c57005b8063790bafc6146105395780638129fc1c1461054c5780638456cb591461056157806391d1485414610576578063940123da1461059657005b806336568abe116101cb5780634f558e79116101925780634f558e791461048557806352d1902d146104b55780635c975abb146104ca5780636b20c454146104e25780636b5cb789146105025780637357628c1461051957005b806336568abe146103f05780633659cfe6146104105780633f4ba83a146104305780634e1273f4146104455780634f1ef2861461047257005b8063248a9ca31161020f578063248a9ca314610320578063279c806e1461035057806327e235e3146103825780632eb2c2d6146103b05780632f2ff15d146103d057005b8062fdd58e1461025057806301ffc9a7146102835780630a579eca146102b35780630e89341c146102d3578063155dd5ee1461030057005b3661024e57005b005b34801561025c57600080fd5b5061027061026b3660046138c1565b6107e9565b6040519081526020015b60405180910390f35b34801561028f57600080fd5b506102a361029e366004613901565b610884565b604051901515815260200161027a565b3480156102bf57600080fd5b5061024e6102ce36600461391e565b61088f565b3480156102df57600080fd5b506102f36102ee36600461391e565b610971565b60405161027a9190613987565b34801561030c57600080fd5b5061024e61031b36600461391e565b610a05565b34801561032c57600080fd5b5061027061033b36600461391e565b60009081526097602052604090206001015490565b34801561035c57600080fd5b5061037061036b36600461391e565b610b02565b60405161027a969594939291906139d2565b34801561038e57600080fd5b5061027061039d366004613a2b565b6101c96020526000908152604090205481565b3480156103bc57600080fd5b5061024e6103cb366004613b8f565b610c58565b3480156103dc57600080fd5b5061024e6103eb366004613c38565b610ca4565b3480156103fc57600080fd5b5061024e61040b366004613c38565b610cbe565b34801561041c57600080fd5b5061024e61042b366004613a2b565b610d3c565b34801561043c57600080fd5b5061024e610e1b565b34801561045157600080fd5b50610465610460366004613c64565b610e4d565b60405161027a9190613d69565b61024e610480366004613d7c565b610f76565b34801561049157600080fd5b506102a36104a036600461391e565b600090815261012d6020526040902054151590565b3480156104c157600080fd5b50610270611042565b3480156104d657600080fd5b5060c95460ff166102a3565b3480156104ee57600080fd5b5061024e6104fd366004613dbf565b6110f6565b34801561050e57600080fd5b506102706101c65481565b34801561052557600080fd5b5061024e61053436600461391e565b611139565b61024e610547366004613e32565b6111da565b34801561055857600080fd5b5061024e6113a6565b34801561056d57600080fd5b5061024e611571565b34801561058257600080fd5b506102a3610591366004613c38565b6115a3565b61024e6105a4366004613e62565b6115ce565b3480156105b557600080fd5b50610270600081565b3480156105ca57600080fd5b5061024e6105d9366004613ec2565b6116bb565b3480156105ea57600080fd5b506102706101c35481565b34801561060157600080fd5b50610270610610366004613efe565b6116c6565b34801561062157600080fd5b506102706101ca5481565b34801561063857600080fd5b5061027061064736600461391e565b600090815261012d602052604090205490565b34801561066657600080fd5b506102706101c55481565b34801561067d57600080fd5b5061069161068c366004613a2b565b611820565b60405161027a9190613f5c565b3480156106aa57600080fd5b5061024e6106b9366004613c38565b61198a565b3480156106ca57600080fd5b5061024e6106d9366004613fd2565b6119af565b3480156106ea57600080fd5b506106f3611af1565b60405161027a9190613ff4565b34801561070c57600080fd5b5061024e61071b3660046140a8565b611d60565b34801561072c57600080fd5b506102a361073b36600461410a565b6001600160a01b03918216600090815260666020908152604080832093909416825291909152205460ff1690565b34801561077557600080fd5b5061024e610784366004614134565b611de6565b34801561079557600080fd5b5061024e6107a4366004614198565b611e2b565b3480156107b557600080fd5b5061024e6107c436600461391e565b611e6e565b3480156107d557600080fd5b5061024e6107e436600461391e565b611f03565b60006001600160a01b0383166108595760405162461bcd60e51b815260206004820152602a60248201527f455243313135353a2061646472657373207a65726f206973206e6f742061207660448201526930b634b21037bbb732b960b11b60648201526084015b60405180910390fd5b5060008181526065602090815260408083206001600160a01b03861684529091529020545b92915050565b600061087e82611fde565b60008181526101c460205260409020600301546001600160a01b03163314806108be57506108be6000336115a3565b6108db5760405163388f811f60e01b815260040160405180910390fd5b600260008281526101c4602052604090205460ff1660038111156109015761090161399a565b1461091f57604051631f0fb6fd60e11b815260040160405180910390fd5b60008181526101c46020908152604091829020805460ff1916600317905590518281527f591913f977ab242c5871f116f36be231ff67df5e8e0bac1efd91fa8a723aca2b91015b60405180910390a150565b606060678054610980906141cb565b80601f01602080910402602001604051908101604052809291908181526020018280546109ac906141cb565b80156109f95780601f106109ce576101008083540402835291602001916109f9565b820191906000526020600020905b8154815290600101906020018083116109dc57829003601f168201915b50505050509050919050565b6000610a1081612003565b47821115610a3157604051631036b5ad60e31b815260040160405180910390fd5b4760005b6101c554811015610a925760008181526101c46020526040902060020154610a5d9083614215565b915083821015610a805760405163156bbc5b60e01b815260040160405180910390fd5b80610a8a81614228565b915050610a35565b50604051600090339085908381818185875af1925050503d8060008114610ad5576040519150601f19603f3d011682016040523d82523d6000602084013e610ada565b606091505b5050905080610afc576040516317f2c34560e31b815260040160405180910390fd5b50505050565b6101c4602052600090815260409020805460018201546002830154600384015460048501805460ff90951695939492936001600160a01b0390921692610b47906141cb565b80601f0160208091040260200160405190810160405280929190818152602001828054610b73906141cb565b8015610bc05780601f10610b9557610100808354040283529160200191610bc0565b820191906000526020600020905b815481529060010190602001808311610ba357829003601f168201915b505050505090806005018054610bd5906141cb565b80601f0160208091040260200160405190810160405280929190818152602001828054610c01906141cb565b8015610c4e5780601f10610c2357610100808354040283529160200191610c4e565b820191906000526020600020905b815481529060010190602001808311610c3157829003601f168201915b5050505050905086565b6001600160a01b038516331480610c745750610c74853361073b565b610c905760405162461bcd60e51b815260040161085090614241565b610c9d858585858561200d565b5050505050565b6000610caf81612003565b610cb983836121ba565b505050565b6001600160a01b0381163314610d2e5760405162461bcd60e51b815260206004820152602f60248201527f416363657373436f6e74726f6c3a2063616e206f6e6c792072656e6f756e636560448201526e103937b632b9903337b91039b2b63360891b6064820152608401610850565b610d388282612240565b5050565b6001600160a01b037f0000000000000000000000000000000000000000000000000000000000000000163003610d845760405162461bcd60e51b81526004016108509061428f565b7f00000000000000000000000000000000000000000000000000000000000000006001600160a01b0316610dcd60008051602061490d833981519152546001600160a01b031690565b6001600160a01b031614610df35760405162461bcd60e51b8152600401610850906142db565b610dfc816122a7565b60408051600080825260208201909252610e18918391906122d1565b50565b7f65d7a28e3265b37a6474929f336521b332c1681b933f6cb9f3376673440d862a610e4581612003565b610e1861243c565b60608151835114610eb25760405162461bcd60e51b815260206004820152602960248201527f455243313135353a206163636f756e747320616e6420696473206c656e677468604482015268040dad2e6dac2e8c6d60bb1b6064820152608401610850565b600083516001600160401b03811115610ecd57610ecd613a46565b604051908082528060200260200182016040528015610ef6578160200160208202803683370190505b50905060005b8451811015610f6e57610f41858281518110610f1a57610f1a614327565b6020026020010151858381518110610f3457610f34614327565b60200260200101516107e9565b828281518110610f5357610f53614327565b6020908102919091010152610f6781614228565b9050610efc565b509392505050565b6001600160a01b037f0000000000000000000000000000000000000000000000000000000000000000163003610fbe5760405162461bcd60e51b81526004016108509061428f565b7f00000000000000000000000000000000000000000000000000000000000000006001600160a01b031661100760008051602061490d833981519152546001600160a01b031690565b6001600160a01b03161461102d5760405162461bcd60e51b8152600401610850906142db565b611036826122a7565b610d38828260016122d1565b6000306001600160a01b037f000000000000000000000000000000000000000000000000000000000000000016146110e25760405162461bcd60e51b815260206004820152603860248201527f555550535570677261646561626c653a206d757374206e6f742062652063616c60448201527f6c6564207468726f7567682064656c656761746563616c6c00000000000000006064820152608401610850565b5060008051602061490d8339815191525b90565b6001600160a01b0383163314806111125750611112833361073b565b61112e5760405162461bcd60e51b815260040161085090614241565b610cb983838361248e565b600061114481612003565b600160008381526101c4602052604090205460ff16600381111561116a5761116a61399a565b146111885760405163137c9c1f60e31b815260040160405180910390fd5b60008281526101c46020908152604091829020805460ff1916600217905590518381527f8f4352ac8b4aefdd2333162306bbe09dd4f4ff6661e89ccc4e4dcced8794e8f7910160405180910390a15050565b6101ca543410156111fe57604051631036b5ad60e31b815260040160405180910390fd5b600260008381526101c4602052604090205460ff1660038111156112245761122461399a565b1461124257604051631f0fb6fd60e11b815260040160405180910390fd5b61125634836101c5546101c46101c961262d565b6000805b6101c8548110156112ea57336001600160a01b03166101c8828154811061128357611283614327565b6000918252602090912001546001600160a01b0316036112d857336001600160a01b03166101c882815481106112bb576112bb614327565b6000918252602090912001546001600160a01b03161491506112ea565b806112e281614228565b91505061125a565b5080611334576101c880546001810182556000919091527f8cdee82cb3ac6d59f1f417405a3eecf497b31f3d06d4c506f96deb67789f61e90180546001600160a01b031916331790555b3360009081526101c760209081526040808320600887901c845290915290208054600160ff86161b179055336001600160a01b0316837f710e220a47c8d9e50587c80fe509f5e762149ef672440eff70798204dd70f5eb846040516113999190613987565b60405180910390a3505050565b600054610100900460ff16158080156113c65750600054600160ff909116105b806113e05750303b1580156113e0575060005460ff166001145b6114435760405162461bcd60e51b815260206004820152602e60248201527f496e697469616c697a61626c653a20636f6e747261637420697320616c72656160448201526d191e481a5b9a5d1a585b1a5e995960921b6064820152608401610850565b6000805460ff191660011790558015611466576000805461ff0019166101001790555b61147e60405180602001604052806000815250612a0e565b611486612a3e565b61148e612a67565b611496612a3e565b61149e612a3e565b6114a6612a3e565b6114b16000336121ba565b6114db7f7804d923f43a17d325d77e781528e0793b2edd9890ab45fc64efd7b4b427744c336121ba565b6115057f65d7a28e3265b37a6474929f336521b332c1681b933f6cb9f3376673440d862a336121ba565b61152f7f189ab7a9244df0848122154315af71fe140f3db0fe014031783b0946b8c9d2e3336121ba565b8015610e18576000805461ff0019169055604051600181527f7f26b83ff96e1f2b6a682f133852f6798a09c465da95921460cefb384740249890602001610966565b7f65d7a28e3265b37a6474929f336521b332c1681b933f6cb9f3376673440d862a61159b81612003565b610e18612a96565b60009182526097602090815260408084206001600160a01b0393909316845291905290205460ff1690565b60006115d981612003565b600260008681526101c4602052604090205460ff1660038111156115ff576115ff61399a565b1461161d57604051631f0fb6fd60e11b815260040160405180910390fd5b6101c35460008681526101c46020526040902060010154859161163f9161433d565b6116499190614350565b34101561166957604051631036b5ad60e31b815260040160405180910390fd5b61167583868685612ad3565b6101c3546116839085614350565b61168d9034614215565b60008681526101c46020526040812060020180549091906116af90849061433d565b90915550505050505050565b610d38338383612bf8565b60006101c6548611156116ec57604051630f0c4c5f60e41b815260040160405180910390fd5b506101c5546040805160c0810190915280600181526020808201899052600060408084018290526001600160a01b038a1660608501526080840188905260a09093018690528481526101c49091522081518154829060ff191660018360038111156117595761175961399a565b0217905550602082015160018201556040820151600282015560608201516003820180546001600160a01b0319166001600160a01b03909216919091179055608082015160048201906117ac90826143ad565b5060a082015160058201906117c190826143ad565b50506101c58054915060006117d583614228565b91905055507f3deb71b5a6774038a220621d78241405004043d5a928de9c7956bcc5270416db8183888860405161180f949392919061446c565b60405180910390a195945050505050565b606060006101c5546001600160401b0381111561183f5761183f613a46565b60405190808252806020026020018201604052801561188557816020015b60408051808201909152606081526000602082015281526020019060019003908161185d5790505b50905060005b6101c5548110156119835760405180604001604052806101c4600084815260200190815260200160002060040180546118c3906141cb565b80601f01602080910402602001604051908101604052809291908181526020018280546118ef906141cb565b801561193c5780601f106119115761010080835404028352916020019161193c565b820191906000526020600020905b81548152906001019060200180831161191f57829003601f168201915b5050505050815260200161195086846107e9565b81525082828151811061196557611965614327565b6020026020010181905250808061197b90614228565b91505061188b565b5092915050565b6000828152609760205260409020600101546119a581612003565b610cb98383612240565b60008281526101c460205260409020600301546001600160a01b031633146119ea5760405163388f811f60e01b815260040160405180910390fd5b60008281526101c46020526040902060020154811115611a1d57604051637eafab7d60e01b815260040160405180910390fd5b604051600090339083908381818185875af1925050503d8060008114611a5f576040519150601f19603f3d011682016040523d82523d6000602084013e611a64565b606091505b5050905080611a86576040516317f2c34560e31b815260040160405180910390fd5b60008381526101c4602052604081206002018054849290611aa8908490614215565b90915550506040805184815260208101849052338183015290517ff1090e9d5138cd4909542e10e1da576730b07eb291a71a151e63160dde345b949181900360600190a1505050565b606060006101c5546001600160401b03811115611b1057611b10613a46565b604051908082528060200260200182016040528015611b8457816020015b611b716040805160c081019091528060008152602001600081526020016000815260200160006001600160a01b0316815260200160608152602001606081525090565b815260200190600190039081611b2e5790505b50905060005b6101c554811015611d5a5760008181526101c4602052604090819020815160c081019092528054829060ff166003811115611bc757611bc761399a565b6003811115611bd857611bd861399a565b8152600182015460208201526002820154604082015260038201546001600160a01b03166060820152600482018054608090920191611c16906141cb565b80601f0160208091040260200160405190810160405280929190818152602001828054611c42906141cb565b8015611c8f5780601f10611c6457610100808354040283529160200191611c8f565b820191906000526020600020905b815481529060010190602001808311611c7257829003601f168201915b50505050508152602001600582018054611ca8906141cb565b80601f0160208091040260200160405190810160405280929190818152602001828054611cd4906141cb565b8015611d215780601f10611cf657610100808354040283529160200191611d21565b820191906000526020600020905b815481529060010190602001808311611d0457829003601f168201915b505050505081525050828281518110611d3c57611d3c614327565b60200260200101819052508080611d5290614228565b915050611b8a565b50919050565b6000611d6b81612003565b60008481526101c4602052604081205460ff166003811115611d8f57611d8f61399a565b03611dad5760405163137c9c1f60e31b815260040160405180910390fd5b60008481526101c460205260409020600401611dc984826143ad565b5060008481526101c460205260409020600501610c9d83826143ad565b6001600160a01b038516331480611e025750611e02853361073b565b611e1e5760405162461bcd60e51b815260040161085090614241565b610c9d8585858585612cd0565b6001600160a01b038316331480611e475750611e47833361073b565b611e635760405162461bcd60e51b815260040161085090614241565b610cb9838383612e0c565b3360009081526101c760209081526040808320600885901c84529182905290912054600160ff84161b16611eb55760405163423f327760e11b815260040160405180910390fd5b600882901c6000908152602082905260408082208054600160ff87161b1916905551339184917fc6c1c3224e50c3c958e39197695bdfe8457ce7c0014d8d51a4d3aa12c5ac18489190a35050565b60008181526101c460205260409020600301546001600160a01b0316331480611f325750611f326000336115a3565b611f4f5760405163388f811f60e01b815260040160405180910390fd5b600360008281526101c4602052604090205460ff166003811115611f7557611f7561399a565b14611f935760405163968807a560e01b815260040160405180910390fd5b60008181526101c46020908152604091829020805460ff1916600217905590518281527f63bb17c9645a29322601b4fe88d8f3fa84f32229368294f903084be8f5d813ba9101610966565b60006001600160e01b03198216637965db0b60e01b148061087e575061087e82612f28565b610e188133612f78565b815183511461202e5760405162461bcd60e51b8152600401610850906144a6565b6001600160a01b0384166120545760405162461bcd60e51b8152600401610850906144ee565b33612063818787878787612fd1565b60005b845181101561214c57600085828151811061208357612083614327565b6020026020010151905060008583815181106120a1576120a1614327565b60209081029190910181015160008481526065835260408082206001600160a01b038e1683529093529190912054909150818110156120f25760405162461bcd60e51b815260040161085090614533565b60008381526065602090815260408083206001600160a01b038e8116855292528083208585039055908b1682528120805484929061213190849061433d565b925050819055505050508061214590614228565b9050612066565b50846001600160a01b0316866001600160a01b0316826001600160a01b03167f4a39dc06d4c0dbc64b70af90fd698a233a518aa5d07e595d983b8c0526c8f7fb878760405161219c92919061457d565b60405180910390a46121b2818787878787612fe7565b505050505050565b6121c482826115a3565b610d385760008281526097602090815260408083206001600160a01b03851684529091529020805460ff191660011790556121fc3390565b6001600160a01b0316816001600160a01b0316837f2f8788117e7eff1d82e926ec794901d17c78024a50270940304540a733656f0d60405160405180910390a45050565b61224a82826115a3565b15610d385760008281526097602090815260408083206001600160a01b0385168085529252808320805460ff1916905551339285917ff6391f5c32d9c69d2a47ea670b442974b53935d1edc7fd64eb21e047a839171b9190a45050565b7f189ab7a9244df0848122154315af71fe140f3db0fe014031783b0946b8c9d2e3610d3881612003565b7f4910fdfa16fed3260ed0e7147f7cc6da11a60208b5b9406d12a635614ffd91435460ff161561230457610cb983613142565b826001600160a01b03166352d1902d6040518163ffffffff1660e01b8152600401602060405180830381865afa92505050801561235e575060408051601f3d908101601f1916820190925261235b918101906145ab565b60015b6123c15760405162461bcd60e51b815260206004820152602e60248201527f45524331393637557067726164653a206e657720696d706c656d656e7461746960448201526d6f6e206973206e6f74205555505360901b6064820152608401610850565b60008051602061490d83398151915281146124305760405162461bcd60e51b815260206004820152602960248201527f45524331393637557067726164653a20756e737570706f727465642070726f786044820152681a58589b195555525160ba1b6064820152608401610850565b50610cb98383836131de565b612444613203565b60c9805460ff191690557f5db9ee0a495bf2e6ff9c91a7834c1ba4fdd244a5e8aa4e537bd38aeae4b073aa335b6040516001600160a01b03909116815260200160405180910390a1565b6001600160a01b0383166124b45760405162461bcd60e51b8152600401610850906145c4565b80518251146124d55760405162461bcd60e51b8152600401610850906144a6565b60003390506124f881856000868660405180602001604052806000815250612fd1565b60005b83518110156125c057600084828151811061251857612518614327565b60200260200101519050600084838151811061253657612536614327565b60209081029190910181015160008481526065835260408082206001600160a01b038c1683529093529190912054909150818110156125875760405162461bcd60e51b815260040161085090614607565b60009283526065602090815260408085206001600160a01b038b16865290915290922091039055806125b881614228565b9150506124fb565b5060006001600160a01b0316846001600160a01b0316826001600160a01b03167f4a39dc06d4c0dbc64b70af90fd698a233a518aa5d07e595d983b8c0526c8f7fb868660405161261192919061457d565b60405180910390a4604080516020810190915260009052610afc565b600061263a60028761464b565b9050600061264960058861464b565b9050818460008881526020019081526020016000206002016000828254612670919061433d565b909155505060008681526020859052604081206005018054612691906141cb565b80601f01602080910402602001604051908101604052809291908181526020018280546126bd906141cb565b801561270a5780601f106126df5761010080835404028352916020019161270a565b820191906000526020600020905b8154815290600101906020018083116126ed57829003601f168201915b505050505090506000866001600160401b0381111561272b5761272b613a46565b604051908082528060200260200182016040528015612754578160200160208202803683370190505b5090506000805b888110801561276a5750898114155b1561297857600081815260208990526040808220815160c081019092528054829060ff16600381111561279f5761279f61399a565b60038111156127b0576127b061399a565b8152600182015460208201526002820154604082015260038201546001600160a01b031660608201526004820180546080909201916127ee906141cb565b80601f016020809104026020016040519081016040528092919081815260200182805461281a906141cb565b80156128675780601f1061283c57610100808354040283529160200191612867565b820191906000526020600020905b81548152906001019060200180831161284a57829003601f168201915b50505050508152602001600582018054612880906141cb565b80601f01602080910402602001604051908101604052809291908181526020018280546128ac906141cb565b80156128f95780601f106128ce576101008083540402835291602001916128f9565b820191906000526020600020905b8154815290600101906020018083116128dc57829003601f168201915b50505050508152505090506129238160a00151868051602091820120825192909101919091201490565b1561296557806060015184848151811061293f5761293f614327565b6001600160a01b039092166020928302919091019091015261296260018461433d565b92505b508061297081614228565b91505061275b565b825115612a0157600061298b838761464b565b9050600091505b828210156129ff57808860008685815181106129b0576129b0614327565b60200260200101516001600160a01b03166001600160a01b0316815260200190815260200160002060008282546129e7919061433d565b909155508290506129f781614228565b925050612992565b505b5050505050505050505050565b600054610100900460ff16612a355760405162461bcd60e51b81526004016108509061466d565b610e188161324c565b600054610100900460ff16612a655760405162461bcd60e51b81526004016108509061466d565b565b600054610100900460ff16612a8e5760405162461bcd60e51b81526004016108509061466d565b612a6561327c565b612a9e6132af565b60c9805460ff191660011790557f62e78cea01bee320cd4e420270b5ea74000d11b0c9f74754ebdbfc544b05a2586124713390565b6001600160a01b038416612b335760405162461bcd60e51b815260206004820152602160248201527f455243313135353a206d696e7420746f20746865207a65726f206164647265736044820152607360f81b6064820152608401610850565b336000612b3f856132f5565b90506000612b4c856132f5565b9050612b5d83600089858589612fd1565b60008681526065602090815260408083206001600160a01b038b16845290915281208054879290612b8f90849061433d565b909155505060408051878152602081018790526001600160a01b03808a1692600092918716917fc3d58168c5ae7397731d063d5bbf3d657854427343f4c083240f7aacaa2d0f62910160405180910390a4612bef83600089898989613340565b50505050505050565b816001600160a01b0316836001600160a01b031603612c6b5760405162461bcd60e51b815260206004820152602960248201527f455243313135353a2073657474696e6720617070726f76616c20737461747573604482015268103337b91039b2b63360b91b6064820152608401610850565b6001600160a01b03838116600081815260666020908152604080832094871680845294825291829020805460ff191686151590811790915591519182527f17307eab39ab6107e8899845ad3d59bd9653f200f220920489ca2b5937696c319101611399565b6001600160a01b038416612cf65760405162461bcd60e51b8152600401610850906144ee565b336000612d02856132f5565b90506000612d0f856132f5565b9050612d1f838989858589612fd1565b60008681526065602090815260408083206001600160a01b038c16845290915290205485811015612d625760405162461bcd60e51b815260040161085090614533565b60008781526065602090815260408083206001600160a01b038d8116855292528083208985039055908a16825281208054889290612da190849061433d565b909155505060408051888152602081018890526001600160a01b03808b16928c821692918816917fc3d58168c5ae7397731d063d5bbf3d657854427343f4c083240f7aacaa2d0f62910160405180910390a4612e01848a8a8a8a8a613340565b505050505050505050565b6001600160a01b038316612e325760405162461bcd60e51b8152600401610850906145c4565b336000612e3e846132f5565b90506000612e4b846132f5565b9050612e6b83876000858560405180602001604052806000815250612fd1565b60008581526065602090815260408083206001600160a01b038a16845290915290205484811015612eae5760405162461bcd60e51b815260040161085090614607565b60008681526065602090815260408083206001600160a01b038b81168086529184528285208a8703905582518b81529384018a90529092908816917fc3d58168c5ae7397731d063d5bbf3d657854427343f4c083240f7aacaa2d0f62910160405180910390a4604080516020810190915260009052612bef565b60006001600160e01b03198216636cdb3d1360e11b1480612f5957506001600160e01b031982166303a24d0760e21b145b8061087e57506301ffc9a760e01b6001600160e01b031983161461087e565b612f8282826115a3565b610d3857612f8f816133fb565b612f9a83602061340d565b604051602001612fab9291906146b8565b60408051601f198184030181529082905262461bcd60e51b825261085091600401613987565b612fd96132af565b6121b28686868686866135af565b6001600160a01b0384163b156121b25760405163bc197c8160e01b81526001600160a01b0385169063bc197c819061302b908990899088908890889060040161472d565b6020604051808303816000875af1925050508015613066575060408051601f3d908101601f191682019092526130639181019061478b565b60015b613112576130726147a8565b806308c379a0036130ab57506130866147c3565b8061309157506130ad565b8060405162461bcd60e51b81526004016108509190613987565b505b60405162461bcd60e51b815260206004820152603460248201527f455243313135353a207472616e7366657220746f206e6f6e2d455243313135356044820152732932b1b2b4bb32b91034b6b83632b6b2b73a32b960611b6064820152608401610850565b6001600160e01b0319811663bc197c8160e01b14612bef5760405162461bcd60e51b81526004016108509061484c565b6001600160a01b0381163b6131af5760405162461bcd60e51b815260206004820152602d60248201527f455243313936373a206e657720696d706c656d656e746174696f6e206973206e60448201526c1bdd08184818dbdb9d1c9858dd609a1b6064820152608401610850565b60008051602061490d83398151915280546001600160a01b0319166001600160a01b0392909216919091179055565b6131e78361372b565b6000825111806131f45750805b15610cb957610afc838361376b565b60c95460ff16612a655760405162461bcd60e51b815260206004820152601460248201527314185d5cd8589b194e881b9bdd081c185d5cd95960621b6044820152606401610850565b600054610100900460ff166132735760405162461bcd60e51b81526004016108509061466d565b610e1881613790565b600054610100900460ff166132a35760405162461bcd60e51b81526004016108509061466d565b60c9805460ff19169055565b60c95460ff1615612a655760405162461bcd60e51b815260206004820152601060248201526f14185d5cd8589b194e881c185d5cd95960821b6044820152606401610850565b6040805160018082528183019092526060916000919060208083019080368337019050509050828160008151811061332f5761332f614327565b602090810291909101015292915050565b6001600160a01b0384163b156121b25760405163f23a6e6160e01b81526001600160a01b0385169063f23a6e61906133849089908990889088908890600401614894565b6020604051808303816000875af19250505080156133bf575060408051601f3d908101601f191682019092526133bc9181019061478b565b60015b6133cb576130726147a8565b6001600160e01b0319811663f23a6e6160e01b14612bef5760405162461bcd60e51b81526004016108509061484c565b606061087e6001600160a01b03831660145b6060600061341c836002614350565b61342790600261433d565b6001600160401b0381111561343e5761343e613a46565b6040519080825280601f01601f191660200182016040528015613468576020820181803683370190505b509050600360fc1b8160008151811061348357613483614327565b60200101906001600160f81b031916908160001a905350600f60fb1b816001815181106134b2576134b2614327565b60200101906001600160f81b031916908160001a90535060006134d6846002614350565b6134e190600161433d565b90505b6001811115613559576f181899199a1a9b1b9c1cb0b131b232b360811b85600f166010811061351557613515614327565b1a60f81b82828151811061352b5761352b614327565b60200101906001600160f81b031916908160001a90535060049490941c93613552816148d9565b90506134e4565b5083156135a85760405162461bcd60e51b815260206004820181905260248201527f537472696e67733a20686578206c656e67746820696e73756666696369656e746044820152606401610850565b9392505050565b6001600160a01b0385166136375760005b8351811015613635578281815181106135db576135db614327565b602002602001015161012d60008684815181106135fa576135fa614327565b60200260200101518152602001908152602001600020600082825461361f919061433d565b9091555061362e905081614228565b90506135c0565b505b6001600160a01b0384166121b25760005b8351811015612bef57600084828151811061366557613665614327565b60200260200101519050600084838151811061368357613683614327565b60200260200101519050600061012d6000848152602001908152602001600020549050818110156137075760405162461bcd60e51b815260206004820152602860248201527f455243313135353a206275726e20616d6f756e74206578636565647320746f74604482015267616c537570706c7960c01b6064820152608401610850565b600092835261012d60205260409092209103905561372481614228565b9050613648565b61373481613142565b6040516001600160a01b038216907fbc7cd75a20ee27fd9adebab32041f755214dbc6bffa90cc0225b39da2e5c2d3b90600090a250565b60606135a8838360405180606001604052806027815260200161492d6027913961379c565b6067610d3882826143ad565b6060600080856001600160a01b0316856040516137b991906148f0565b600060405180830381855af49150503d80600081146137f4576040519150601f19603f3d011682016040523d82523d6000602084013e6137f9565b606091505b509150915061380a86838387613814565b9695505050505050565b6060831561388357825160000361387c576001600160a01b0385163b61387c5760405162461bcd60e51b815260206004820152601d60248201527f416464726573733a2063616c6c20746f206e6f6e2d636f6e74726163740000006044820152606401610850565b508161388d565b61388d8383613895565b949350505050565b8151156130915781518083602001fd5b80356001600160a01b03811681146138bc57600080fd5b919050565b600080604083850312156138d457600080fd5b6138dd836138a5565b946020939093013593505050565b6001600160e01b031981168114610e1857600080fd5b60006020828403121561391357600080fd5b81356135a8816138eb565b60006020828403121561393057600080fd5b5035919050565b60005b8381101561395257818101518382015260200161393a565b50506000910152565b60008151808452613973816020860160208601613937565b601f01601f19169290920160200192915050565b6020815260006135a8602083018461395b565b634e487b7160e01b600052602160045260246000fd5b600481106139ce57634e487b7160e01b600052602160045260246000fd5b9052565b6139dc81886139b0565b85602082015284604082015260018060a01b038416606082015260c060808201526000613a0c60c083018561395b565b82810360a0840152613a1e818561395b565b9998505050505050505050565b600060208284031215613a3d57600080fd5b6135a8826138a5565b634e487b7160e01b600052604160045260246000fd5b601f8201601f191681016001600160401b0381118282101715613a8157613a81613a46565b6040525050565b60006001600160401b03821115613aa157613aa1613a46565b5060051b60200190565b600082601f830112613abc57600080fd5b81356020613ac982613a88565b604051613ad68282613a5c565b83815260059390931b8501820192828101915086841115613af657600080fd5b8286015b84811015613b115780358352918301918301613afa565b509695505050505050565b600082601f830112613b2d57600080fd5b81356001600160401b03811115613b4657613b46613a46565b604051613b5d601f8301601f191660200182613a5c565b818152846020838601011115613b7257600080fd5b816020850160208301376000918101602001919091529392505050565b600080600080600060a08688031215613ba757600080fd5b613bb0866138a5565b9450613bbe602087016138a5565b935060408601356001600160401b0380821115613bda57600080fd5b613be689838a01613aab565b94506060880135915080821115613bfc57600080fd5b613c0889838a01613aab565b93506080880135915080821115613c1e57600080fd5b50613c2b88828901613b1c565b9150509295509295909350565b60008060408385031215613c4b57600080fd5b82359150613c5b602084016138a5565b90509250929050565b60008060408385031215613c7757600080fd5b82356001600160401b0380821115613c8e57600080fd5b818501915085601f830112613ca257600080fd5b81356020613caf82613a88565b604051613cbc8282613a5c565b83815260059390931b8501820192828101915089841115613cdc57600080fd5b948201945b83861015613d0157613cf2866138a5565b82529482019490820190613ce1565b96505086013592505080821115613d1757600080fd5b50613d2485828601613aab565b9150509250929050565b600081518084526020808501945080840160005b83811015613d5e57815187529582019590820190600101613d42565b509495945050505050565b6020815260006135a86020830184613d2e565b60008060408385031215613d8f57600080fd5b613d98836138a5565b915060208301356001600160401b03811115613db357600080fd5b613d2485828601613b1c565b600080600060608486031215613dd457600080fd5b613ddd846138a5565b925060208401356001600160401b0380821115613df957600080fd5b613e0587838801613aab565b93506040860135915080821115613e1b57600080fd5b50613e2886828701613aab565b9150509250925092565b60008060408385031215613e4557600080fd5b8235915060208301356001600160401b03811115613db357600080fd5b60008060008060808587031215613e7857600080fd5b8435935060208501359250613e8f604086016138a5565b915060608501356001600160401b03811115613eaa57600080fd5b613eb687828801613b1c565b91505092959194509250565b60008060408385031215613ed557600080fd5b613ede836138a5565b915060208301358015158114613ef357600080fd5b809150509250929050565b600080600080600060a08688031215613f1657600080fd5b85359450613f26602087016138a5565b9350613f34604087016138a5565b925060608601356001600160401b0380821115613f5057600080fd5b613c0889838a01613b1c565b60006020808301818452808551808352604092508286019150828160051b87010184880160005b83811015613fc457888303603f1901855281518051878552613fa78886018261395b565b918901519489019490945294870194925090860190600101613f83565b509098975050505050505050565b60008060408385031215613fe557600080fd5b50508035926020909101359150565b60006020808301818452808551808352604092508286019150828160051b87010184880160005b83811015613fc457603f19898403018552815160c061403b8583516139b0565b81890151858a015287820151888601526060808301516001600160a01b0316908601526080808301518187018390526140768388018261395b565b9250505060a08083015192508582038187015250614094818361395b565b96890196945050509086019060010161401b565b6000806000606084860312156140bd57600080fd5b8335925060208401356001600160401b03808211156140db57600080fd5b6140e787838801613b1c565b935060408601359150808211156140fd57600080fd5b50613e2886828701613b1c565b6000806040838503121561411d57600080fd5b614126836138a5565b9150613c5b602084016138a5565b600080600080600060a0868803121561414c57600080fd5b614155866138a5565b9450614163602087016138a5565b9350604086013592506060860135915060808601356001600160401b0381111561418c57600080fd5b613c2b88828901613b1c565b6000806000606084860312156141ad57600080fd5b6141b6846138a5565b95602085013595506040909401359392505050565b600181811c908216806141df57607f821691505b602082108103611d5a57634e487b7160e01b600052602260045260246000fd5b634e487b7160e01b600052601160045260246000fd5b8181038181111561087e5761087e6141ff565b60006001820161423a5761423a6141ff565b5060010190565b6020808252602e908201527f455243313135353a2063616c6c6572206973206e6f7420746f6b656e206f776e60408201526d195c881bdc88185c1c1c9bdd995960921b606082015260800190565b6020808252602c908201527f46756e6374696f6e206d7573742062652063616c6c6564207468726f7567682060408201526b19195b1959d85d1958d85b1b60a21b606082015260800190565b6020808252602c908201527f46756e6374696f6e206d7573742062652063616c6c6564207468726f7567682060408201526b6163746976652070726f787960a01b606082015260800190565b634e487b7160e01b600052603260045260246000fd5b8082018082111561087e5761087e6141ff565b808202811582820484141761087e5761087e6141ff565b601f821115610cb957600081815260208120601f850160051c8101602086101561438e5750805b601f850160051c820191505b818110156121b25782815560010161439a565b81516001600160401b038111156143c6576143c6613a46565b6143da816143d484546141cb565b84614367565b602080601f83116001811461440f57600084156143f75750858301515b600019600386901b1c1916600185901b1785556121b2565b600085815260208120601f198616915b8281101561443e5788860151825594840194600190910190840161441f565b508582101561445c5787850151600019600388901b60f8161c191681555b5050505050600190811b01905550565b848152608060208201526000614485608083018661395b565b6040830194909452506001600160a01b039190911660609091015292915050565b60208082526028908201527f455243313135353a2069647320616e6420616d6f756e7473206c656e677468206040820152670dad2e6dac2e8c6d60c31b606082015260800190565b60208082526025908201527f455243313135353a207472616e7366657220746f20746865207a65726f206164604082015264647265737360d81b606082015260800190565b6020808252602a908201527f455243313135353a20696e73756666696369656e742062616c616e636520666f60408201526939103a3930b739b332b960b11b606082015260800190565b6040815260006145906040830185613d2e565b82810360208401526145a28185613d2e565b95945050505050565b6000602082840312156145bd57600080fd5b5051919050565b60208082526023908201527f455243313135353a206275726e2066726f6d20746865207a65726f206164647260408201526265737360e81b606082015260800190565b60208082526024908201527f455243313135353a206275726e20616d6f756e7420657863656564732062616c604082015263616e636560e01b606082015260800190565b60008261466857634e487b7160e01b600052601260045260246000fd5b500490565b6020808252602b908201527f496e697469616c697a61626c653a20636f6e7472616374206973206e6f74206960408201526a6e697469616c697a696e6760a81b606082015260800190565b7f416363657373436f6e74726f6c3a206163636f756e74200000000000000000008152600083516146f0816017850160208801613937565b7001034b99036b4b9b9b4b733903937b6329607d1b6017918401918201528351614721816028840160208801613937565b01602801949350505050565b6001600160a01b0386811682528516602082015260a06040820181905260009061475990830186613d2e565b828103606084015261476b8186613d2e565b9050828103608084015261477f818561395b565b98975050505050505050565b60006020828403121561479d57600080fd5b81516135a8816138eb565b600060033d11156110f35760046000803e5060005160e01c90565b600060443d10156147d15790565b6040516003193d81016004833e81513d6001600160401b03816024840111818411171561480057505050505090565b82850191508151818111156148185750505050505090565b843d87010160208285010111156148325750505050505090565b61484160208286010187613a5c565b509095945050505050565b60208082526028908201527f455243313135353a204552433131353552656365697665722072656a656374656040820152676420746f6b656e7360c01b606082015260800190565b6001600160a01b03868116825285166020820152604081018490526060810183905260a0608082018190526000906148ce9083018461395b565b979650505050505050565b6000816148e8576148e86141ff565b506000190190565b60008251614902818460208701613937565b919091019291505056fe360894a13ba1a3210667c828492db98dca3e2076cc3735a920a3ca505d382bbc416464726573733a206c6f772d6c6576656c2064656c65676174652063616c6c206661696c6564a26469706673582212205775fe935d629c90d0ed99f19f617fa289154eb0c95b819e3cc5fadd98fc443564736f6c63430008130033",
  "linkReferences": {},
  "deployedLinkReferences": {}
}